:020000040800F2
:1000000058E9002025D10308F5990308F79903085A
:10001000F9990308FB990308FD9903080000000003
:100020000000000000000000000000008D25020814
:10003000FF9903080000000035250208019A030813
:1000400099D803089DD80308A1D80308A5D80308A8
:10005000A9D80308ADD80308B1D80308B5D8030858
:10006000B9D80308BDD80308C1D80308C5D8030808
:10007000C9D80308CDD80308D1D80308D5D80308B8
:10008000159A0308D9D80308DDD80308E1D8030876
:10009000E5D80308E9D80308EDD80308F1D8030828
:1000A000F5D80308F9D80308FDD8030801D90308D7
:1000B00005D9030809D903080DD9030811D9030884
:1000C00015D9030819D903081DD9030821D9030834
:1000D00025D9030829D903081F9A0308299A030878
:1000E0002DD9030831D9030835D9030839D90308B4
:1000F0003DD9030841D9030845D9030849D9030864
:100100004DD9030851D9030855D9030859D9030813
:100110005DD9030861D9030865D9030869D90308C3
:100120006DD90308339A030871D9030875D90308F8
:1001300079D90308176003087DD9030881D903081A
:1001400085D9030889D903088DD9030891D90308F3
:1001500095D9030899D903089DD903083D9A030846
:10016000A1D90308A5D90308A9D90308ADD9030863
:10017000B1D90308B5D90308B9D9030800000000B4
:10018000BDD90308C1D90308C5D90308C9D90308D3
:10019000CDD90308D1D90308D5D90308D9D9030883
:0C01A000DDD90308E1D90308E5D9030804
:10020000BFF34F8FDFF80405016811F4E061DFF8F8
:1002100000050143DFF8F4040160BFF34F8F00BF16
:10022000FDE730B402004FF6FF70002400E0641CCC
:1002300023000D009BB2ADB2AB4215D223009BB29E
:10024000D35C584000231D00ADB2082DEFDAC5077E
:1002500002D480B2400805E080B205004AF20100F5
:1002600090EA55005B1CEEE780B230BC704770B579
:100270000C0000210025DFF89C140978002914D017
:1002800002293AD020D3042900F0808068D30629BF
:1002900000F0A880C0F09080082900F0CE80C0F067
:1002A000BC80092900F0D8805AE1C0B2132808D1D7
:1002B0000120DFF8601408701020DFF858148871EE
:1002C00001E000F00CFA4DE10100C9B2DFF844246E
:1002D000A2F80110DFF83C14DFF83C241278114436
:1002E000C871DFF834040078401CDFF82C14087063
:1002F0000220DFF82014087034E1DFF81814B1F898
:1003000001100200D2B251EA0221DFF80824A2F85B
:100310000110DFF80014DFF8002412781144C871CE
:10032000DFF8F003B0F80100DFF8F01349888842E5
:100330000BD1DFF8E4030078401CDFF8DC13087011
:100340000320DFF8D013087009E000F0C8F9DFF8E7
:10035000C403B0F80110DFF8C80305F0FBF801E1B1
:100360000421DFF8B0231170DFF8A813C870DFF89C
:10037000A413DFF8A42312781144C871DFF898039E
:100380000078401CDFF890130870EBE00521DFF8DF
:1003900084231170DFF87C130871DFF87813DFF81D
:1003A000782312781144C871DFF86C030078401C80
:1003B000DFF864130870D5E00621DFF858231170C8
:1003C000DFF850134871DFF84C13DFF84C23127834
:1003D0001144C871DFF840030078401CDFF838137F
:1003E0000870BFE0DFF830130978DFF8282392792E
:1003F00091420ED2DFF81C13DFF81C23127811444F
:10040000C871DFF814030078401CDFF80C13087083
:10041000A8E00721DFF8FC2211700821DFF8F422A0
:100420001170DFF8F01281F80701DFF8EC020078B4
:10043000401CDFF8E412087094E00921DFF8D422B0
:100440001170DFF8D01281F80601DFF8CC020078D5
:10045000401CB149087085E0C0B20D287DD1AD487F
:1004600090F80601AB4991F8076156EA0026A948C1
:10047000817989B2AB48FFF7D4FEA7490978491CB6
:10048000A54A117080B2864264D1A348007813282F
:100490005BD1A0484079112806D11022A149200043
:1004A00005F06CF811254BE09A484079122806D1E6
:1004B00010229C49200005F061F8122540E0954883
:1004C0004079132806D110229649200005F056F8ED
:1004D000132535E08F484079312806D11022914903
:1004E000200005F04BF831252AE08A48407903289E
:1004F00006D110228B49200005F040F803251FE0AB
:1005000084484079142806D110228649200005F03D
:1005100035F8142514E07F484079152806D11022BB
:100520008049200005F02AF8152509E0794840792E
:10053000212805D110227B49200005F01FF8212534
:1005400000F0CDF82800C0B20EE000F0C8F8280096
:10055000C0B209E000F0C3F801E000F0C0F801E02B
:1005600000F0BDF82800C0B270BD70B50C000021CD
:10057000002500216749097800290CD003291CD0E7
:1005800005292AD0062939D007294ED0082958D064
:10059000092962D09EE0C0B20D280BD103205D492D
:1005A000087008205B4988715B480078401C5A49F4
:1005B000087001E000F093F88EE00521554A1170B3
:1005C0005449C8705349544A1278114488715248AA
:1005D0000078401C504908707EE006214D4A117099
:1005E0004C494871401C4B494B4A12781144887160
:1005F00049480078401C484908706DE04649097830
:10060000444A9279D21C91420CDA43490978491E36
:10061000404AC9B21144C8713F480078401C3E4965
:10062000087059E007213B4A11700821394A1170BE
:10063000384981F8070138480078401C364908706D
:100640004AE00921334A1170324981F806013248E3
:100650000078401C304908703EE0C0B20D2836D109
:100660002C4890F806012B4991F8076156EA0026BC
:100670002848817989B22C48FFF7D3FD80B28642A1
:1006800022D1254800780D2819D122484079002828
:1006900006D10A222349200004F070FF012509E059
:1006A0001C484079012805D10A221E49200004F087
:1006B00065FF022500F013F82800C0B20EE000F03C
:1006C0000EF82800C0B209E000F009F801E000F0DF
:1006D00006F801E000F003F82800C0B270BD10B5C4
:1006E00000200C49087000200B490870C821002226
:1006F000DFF8904C200004F0D1FF4FF48471002209
:10070000044C200004F0CAFF10BD00000CED00E016
:100710000400FA0510D400204DE5002010DE002072
:1007200078CB030817D4002019D400202DE9F0411C
:100730000024002500260027DFF84C0C0078401C20
:10074000DFF8441C0870DFF8440C0078002826D03D
:100750005FF000080DE0DFF8381CDFF8380C424687
:10076000D2B2805CFFF783FDDFF82C1C087018F113
:1007700001084046DFF8141C0978C0B28842EAD369
:100780000020DFF8081C0870C8210022DFF8048C64
:10079000404604F083FF0020DFF8EC1B0870DFF810
:1007A000E80B0078652810DBFFF799FF0020DFF8E1
:1007B000D81B08700020DFF8D41B0870C821002265
:1007C000DFF8D08B404604F069FFDFF8CC0B0078EF
:1007D000002800F0D5850020DFF8BC1B0870DFF88A
:1007E000B00B8078401EDFF8B41B0870DFF8AC0B4C
:1007F0000178491CDFF8A82BDFF8A00B037817203D
:10080000434302EB03004172DFF8840BC0780128F8
:100810000BD10A21DFF8882BDFF8800B0378172033
:10082000434302EB030081724AE0DFF8640BC078B7
:1008300002280BD11421DFF8682BDFF8600B037856
:100840001720434302EB0300817239E0DFF8400BCD
:10085000C07803280BD11E21DFF8442BDFF83C0BB6
:1008600003781720434302EB0300817228E0DFF88E
:10087000200BC07804280BD12821DFF8242BDFF8C7
:100880001C0B03781720434302EB0300817217E02F
:100890001421DFF80C2BDFF8040B037817204343F7
:1008A00002EB0300817204F050FFDFF8F00A0278D7
:1008B000DFF8F01ADFF8F00A04F0CAFF04F04DFF89
:1008C000DFF8CC0A0179DFF8D82ADFF8D00A0378FC
:1008D0001720434302EB0300C172DFF8C41ADFF8AC
:1008E000BC0A02781720424301EB0200C07A31288B
:1008F0000BD0DFF8AC1ADFF8A40A027817204243C5
:1009000001EB0200C07A21283CD10121DFF8902AB6
:10091000DFF8880A037817204343D154DFF88C0AA4
:10092000DFF8781A097830F81100002800F02885DF
:10093000DFF8780ADFF8641A097830F81100401EF1
:10094000DFF8681ADFF8542A127821F81200DFF86D
:100950005C0ADFF8481A097830F811000B28C0F259
:100960000F85DFF8480ADFF8341A097830F81100EB
:10097000401EDFF8381ADFF8242A127821F8120016
:1009800000F0FEBCDFF8181ADFF8100A0278172012
:10099000424301EB0200C07A112840F07182DFF877
:1009A000F00990F80580DFF8E809807958EA002816
:1009B000DFF8EC19DFF8E40902781720424301EB75
:1009C00002008089414689B2884200F09180DFF8B8
:1009D000D019DFF8C80902781720424301EB020062
:1009E000427ADFF8CC19DFF8CC0904F04FFFDFF8CA
:1009F000C4290121002005F00FF9DFF8A419DFF860
:100A00009C0902781720424301EB0200807A0A28F1
:100A100014D1DFF88C19DFF88409027817204243DB
:100A200001EB0200A0F80C800022DFF870090178C9
:100A3000491CC9B2042006F083FF59E0DFF86019B1
:100A4000DFF8580902781720424301EB0200807A50
:100A5000142814D1DFF84819DFF84009027817206C
:100A6000424301EB0200A0F80C800022DFF82C09C1
:100A70000178491CC9B2042006F062FF38E0DFF8B3
:100A80002019DFF8180902781720424301EB020011
:100A9000807A1E280CD10127DFF80419DFF8FC0842
:100AA00002781720424301EB0200A0F80C801FE0FF
:100AB000DFF8EC18DFF8E40802781720424301EB76
:100AC0000200807A282813D1DFF8D418DFF8CC0888
:100AD00002781720424301EB0200A0F80C800022AC
:100AE000DFF8B8080178491CC9B2042006F028FFD5
:100AF000DFF8AC18DFF8A40802781720424301EBB6
:100B00000200807A1E2840F0AA80DFF88408417A2B
:100B1000DFF87C08827ADFF87808C07A52EA00228F
:100B2000DFF87C38DFF8740890F800C0172000FB6D
:100B30000CFC03EB0C00A0F81120DFF85408027B3A
:100B4000DFF84C08407B52EA0022DFF85438DFF827
:100B50004C0890F800C0172000FB0CFC03EB0C00C5
:100B6000A0F81320DFF82808827BDFF82408C07B78
:100B700052EA0022DFF82838DFF8200890F800C099
:100B8000172000FB0CFC03EB0C00A0F81520DFF88D
:100B90001028DFF8080803781720434302EB03000E
:100BA000007C10F02A000A00D2B212F02A02904211
:100BB0002ED057F00207DFF8E827DFF8E0070378C8
:100BC0001720434302EB0300007C800702D588070F
:100BD00000D40124DFF8C827DFF8C0070378172006
:100BE000434302EB0300007C000702D5080700D452
:100BF0000125DFF8AC27DFF8A4070378172043436B
:100C000002EB0300007C800602D5880600D4012692
:100C1000DFF88C27DFF8840703781720434302EBC3
:100C20000300007C10F02A0F01D057F00407DFF812
:100C30007027DFF8680703781720434302EB0300AF
:100C40000174DFF85C17DFF854070278172042437D
:100C500001EB02004078012801D157F00807DFF8C6
:100C6000900A07703800C0B2002808D00022DFF8D0
:100C70002C070178491CC9B2032006F061FEB807B1
:100C800040F1CB80DFF86C0A0078012840F0C58085
:100C9000DFF8640A47787F1C3800C0B20A2800D108
:100CA0000027DFF8540A00783900C9B2884222D1FF
:100CB000DFF8480AC288DFF8481ADFF8F80604F0BF
:100CC000E5FDDFF8F0260121002004F0A5FF04F087
:100CD0003CFDDFF8280AC288DFF8781CDFF8C80678
:100CE00004F0B6FD04F039FD40F6B8300AF070F8B3
:100CF000FFF786FA91E0DFF8001ADFF8FC09427886
:100D00003420424301EB020000210171DFF8E819B1
:100D1000DFF8E40942783420424301EB0200DFF8B7
:100D20007C160978491C4171DFF8CC19DFF8C80935
:100D300042783420424301EB020080F83440DFF86F
:100D4000B819DFF8B40942783420424301EB0200BD
:100D500080F83550DFF8A019DFF89C09427834207C
:100D6000424301EB020080F83660DFF88C19DFF8AF
:100D700088094278342042431144DFF82426DFF802
:100D80001C0603781720434302EB0300B0F8110060
:100D9000C885DFF86419DFF86009427834204243DF
:100DA0001144DFF8FC25DFF8F405037817204343EE
:100DB00002EB0300B0F813000886DFF83C19DFF8F7
:100DC00038094278342042431144DFF8D425DFF853
:100DD000CC0503781720434302EB0300B0F815005D
:100DE0004886DFF81419DFF81009427834204243AE
:100DF00001EB02004079042805DADFF85C2B0121C1
:100E00000C2004F009FFDFF8F0084770DFF84C0B06
:100E10000078401CDFF8441B0870DFF89005DFF80D
:100E20007C15097830F81100002800F0A982DFF85D
:100E30007C05DFF86815097830F81100401EDFF8EE
:100E40006C15DFF85825127821F81200DFF85C05E0
:100E5000DFF84815097830F811000B28C0F29082AD
:100E6000DFF84805DFF83415097830F81100401E26
:100E7000DFF83815DFF82425127821F812007FE218
:100E8000DFF81C15DFF8140502781720424301EB48
:100E90000200C07A122840F09380DFF8F404417910
:100EA000DFF8EC04807951EA0021DFF8F424DFF860
:100EB000EC0403781720434302EB030081811222E4
:100EC000DFF8D8040178022006F03AFD0120DFF8AF
:100ED000F01B0870DFF8C814DFF8C0040278172090
:100EE000424301EB02008389DFF8B0040278521C10
:100EF000DFF8D01BDFF8BC0404F0C8FCDFF8B42432
:100F00000121002004F088FEDFF8A004DFF88C1433
:100F1000097830F81100002826D0DFF89004DFF8B7
:100F20007C14097830F81100401EDFF88014DFF8D7
:100F30006C24127821F81200DFF87004DFF85C14DA
:100F4000097830F811000B280EDBDFF86004DFF8B9
:100F50004C14097830F81100401EDFF85014DFF807
:100F60003C24127821F81200DFF83414DFF82C0446
:100F700002781720424301EB02008189DFF8202428
:100F8000DFF8180403781720434302EB0300418085
:100F900004F0DBFBDFF80814DFF800040278172008
:100FA000424301EB02008389DFF8F0030278DFF8A7
:100FB000181BDFF8F40304F04BFC04F0CEFBDFE178
:100FC000DFF8DC13DFF8D40302781720424301EB8B
:100FD0000200C07A132840F0B480DFF8B4034179EE
:100FE000DFF8AC03807951EA0021DFF8B423DFF8A1
:100FF000AC0303781720434302EB03008181DFF841
:10100000AC03DFF89813097830F81100002826D0D7
:10101000DFF89803DFF88413097830F81100401ED8
:10102000DFF88813DFF87423127821F81200DFF854
:101030007C03DFF86813097830F811000B280EDB09
:10104000DFF86803DFF85413097830F81100401E08
:10105000DFF85813DFF84423127821F81200DFF884
:101060006C1ADFF8380302786E20424301EB02006D
:10107000007D002827D0DFF82813DFF8200302784E
:101080001720424301EB0200007BC0071BD5DFF8AD
:101090003C1AC24802786E2042431144DFF82C2AE1
:1010A000BE4803786E20434302EB0300407D0022DC
:1010B0000A540021DFF8142AB84803786E2043430D
:1010C00002EB03000175B649B44802781720424389
:1010D00001EB02004188B24AB0480378172043432D
:1010E00002EB03008089814217D0AD49AB480278FA
:1010F0001720424301EB02008189A94AA7480378DF
:101100001720434302EB030041800022A3480178EB
:10111000491CC9B2042006F013FC04F016FBA049D8
:101120009E4802781720424301EB020083899B48C6
:101130000278DFF89C199C4804F08AFB04F00DFB50
:101140001EE19749954802781720424301EB0200BF
:10115000C07A14286FD18E4841798D48807951EA40
:1011600000218F4A8D4803781720434302EB030088
:1011700081818E488949097830F8110000281CD0F7
:101180008A488649097830F81100401E8749834A09
:10119000127821F8120085488049097830F811004A
:1011A0000B280ADB81487D49097830F81100401E80
:1011B0007E497A4A127821F81200794977480278F4
:1011C0001720424301EB02004188754A73480378B7
:1011D0001720434302EB03008089814217D07049F6
:1011E0006E4802781720424301EB020081896C4A65
:1011F0006A4803781720434302EB03004180002232
:1012000066480178491CC9B2042006F099FB04F035
:101210009CFA6349614802781720424301EB0200BF
:1012200083895E480278DFF8AC185F4804F010FB51
:1012300004F093FAA4E05A49584802781720424330
:1012400001EB0200C07A14283FD10121544A5348CF
:1012500003781720434302EB0300417014224F48E8
:101260000178022006F06CFB00224C480178491CF2
:10127000C9B2032006F064FB0120DFF844180870AF
:101280004A484649097830F81100002878D0474884
:101290004249097830F81100401E44493F4A12780B
:1012A00021F8120041483D49097830F811000B2817
:1012B00066DB3E483949097830F81100401E3B4949
:1012C000364A127821F812005AE03549334802783C
:1012D0001720424301EB0200C07A15283FD10021BC
:1012E0002F4A2E4803781720434302EB0300417036
:1012F00015222A480178022006F022FB0022274806
:101300000178491CC9B2032006F01AFB0120DFF85E
:10131000B017087025482149097830F811000028D5
:101320002ED022481D49097830F81100401E1F496F
:101330001A4A127821F812001C481849097830F826
:1013400011000B281CDB19481449097830F81100EA
:10135000401E1649114A127821F8120010E004F0DC
:10136000F4F90F490D4802781720424301EB0200BF
:10137000C27ADFF864170C4804F06AFA04F0EDF959
:10138000BDE8F08118D6002038E5002036E50020C1
:10139000A8D70020E0D6002037E5002039E500205E
:1013A00030D10020F8AB03080C02002080E10020BF
:1013B000A4D30308B0E200200100002008784A7896
:1013C00050EA82008A7850EA0210CA7850EA821005
:1013D0000A7950EA02204A7950EA82208A7950EA52
:1013E0000230C97950EA813080B2704710B5DFF819
:1013F000EC060078401CDFF8E4160870DFF8E00621
:101400000078002824D000240CE0DFF8D816DFF89C
:10141000D8062200D2B2805CFFF7A7F8DFF8CC161E
:101420000870641C2000DFF8B8160978C0B2884242
:10143000EBD30020DFF8A8160870C8210022DFF8DF
:10144000A846200004F02AF90020DFF89016087062
:10145000DFF888060078652810DBFFF740F90020E8
:10146000DFF8781608700020DFF874160870C821BD
:101470000022DFF87446200004F010F9DFF86C0653
:101480000078002800F032810020DFF86016087034
:10149000DFF850060078401EDFF854160870DFF8B9
:1014A00050060178491CDFF84C26DFF84406037823
:1014B0001720434302EB03004172DFF8280641780E
:1014C000DFF83026DFF8280603781720434302EBC5
:1014D0000300C172DFF81C16DFF81406027817202B
:1014E000424301EB0200C07A01284FD10121DFF80D
:1014F0000426DFF8FC05037817204343D154DFF8B6
:10150000F805FFF759FFDFF8EC25DFF8E4150B7855
:1015100017214B4302EB03018989020092B29142E9
:1015200000F0E480DFF8CC25DFF8C4150B78172134
:101530004B4302EB03018881DFF8B815DFF8B005F3
:1015400002781720424301EB02008389DFF8A415DB
:10155000DFF89C0502781720424301EB0200427A33
:10156000DFF89815DFF8980504F090F9DFF890257A
:101570000121002004F050FB0022DFF874050178FF
:10158000491CC9B2082006F0DBF9AFE0DFF86415AA
:10159000DFF85C0502781720424301EB0200C07AB5
:1015A000022840F08F80DFF85005FFF705FFDFF8D5
:1015B0004425DFF83C150B7817214B4302EB030160
:1015C00088811222DFF828050178072006F0B8F993
:1015D0000120DFF8EC140870DFF81815DFF81005AB
:1015E00002781720424301EB02008389DFF80005EF
:1015F0000278521CDFF8CC14DFF8040504F046F939
:10160000DFF8FC240121002004F006FBDFF8F404DD
:10161000DFF8DC14097830F81100002826D0DFF854
:10162000E404DFF8CC14097830F81100401EDFF82C
:10163000D414DFF8BC24127821F81200DFF8C404B7
:10164000DFF8AC14097830F811000B280EDBDFF856
:10165000B404DFF89C14097830F81100401EDFF85C
:10166000A414DFF88C24127821F81200DFF8841417
:10167000DFF87C0402781720424301EB02008189E5
:10168000DFF87024DFF8680403781720434302EB87
:101690000300418004F059F8DFF85814DFF85004D3
:1016A00002781720424301EB02008389DFF84004EF
:1016B0000278DFF81414DFF8500404F0C9F804F0DD
:1016C0004CF813E004F041F8DFF82814DFF82004A8
:1016D00002781720424301EB0200C27ADFF8F813C8
:1016E000DFF8240404F0B4F804F037F810BD00006B
:1016F00053E500202FE5002018C8002010DE002050
:101700008CCB0308F8B588B005000E000024002734
:101710003000C0B200280CD0AA2069462200D2B204
:101720008854641CBB2069462200D2B28854641CD1
:1017300005E0AB2069462200D2B28854641C012027
:1017400069462200D2B28854641C132069462200E4
:10175000D2B28854641CDFF8B40340886946220082
:10176000D2B28854641CDFF8A403408880B2000A17
:1017700069462200D2B28854641C687A6946220005
:10178000D2B28854641CA87A642801D1642712E07C
:10179000A87A0A2801D101270DE0A87A142801D1DE
:1017A000022708E0A87A1E2801D1032703E0A87ABF
:1017B000282800D10427D348697A00EB4100D14999
:1017C0006A7A01EB420131F8021C491C20F8021C24
:1017D000CC48697A00EB410030F8020C42F21171FA
:1017E000884207DBC748697A00EB410042F210717A
:1017F00020F8021CC348697A00EB410030F8020C63
:10180000152827DB03F0A1FFBE48697A00EB4100F1
:1018100030F8023C6A7A521EBD49BB4804F018F801
:1018200003F09BFFB748697A00EB410030F8020CE7
:101830001F280FDB0022687A411EC9B2022006F081
:101840001BFDAC496A7A1720424301EB02000021DC
:1018500000F80D1C68462100C9B24754641CE87AA0
:1018600069462200D2B28854641CA88969462200C5
:10187000D2B28854641CA88980B2000A694622004A
:10188000D2B28854641CE88969462200D2B28854D6
:10189000641CE88980B2000A69462200D2B28854EA
:1018A000641C287C69462200D2B28854641CB5F8B6
:1018B000110069462200D2B28854641CB5F81100A8
:1018C00080B2000A69462200D2B28854641CB5F87E
:1018D000130069462200D2B28854641CB5F8130084
:1018E00080B2000A69462200D2B28854641CB5F85E
:1018F000150069462200D2B28854641CB5F8150060
:1019000080B2000A69462200D2B28854641C1021B9
:101910006846F6B23044C01CFEF783FC69462200DC
:10192000D2B28854641C000A69462200D2B288549C
:10193000641C0D2069462200D2B28854641C42F215
:101940001073E4B2220092B26946724809F089FA33
:1019500009B0F0BDA0CB030844D7030823E500205D
:10196000F8B58AB006000C0000252000C0B200289F
:101970000CD0AA2002A92A00D2B288546D1CBB2028
:1019800002A92A00D2B288546D1C05E0AB2002A93E
:101990002A00D2B288546D1C012002A92A00D2B2BA
:1019A00088546D1C0D2002A92A00D2B288546D1CE7
:1019B000707A02A92A00D2B288546D1C5148717AFB
:1019C00000EB41004F49727A01EB420131F8021CF1
:1019D000491C20F8021CF07A02A92A00D2B28854CD
:1019E0006D1C082100226F46380003F057FEB089B5
:1019F00001280FD035D3032814D00FD3052819D0D0
:101A000014D307281ED019D3092823D01ED30A289F
:101A100024D026E001208DF8000022E002208DF87D
:101A200000001EE001208DF801001AE002208DF870
:101A3000010016E001208DF8020012E002208DF86E
:101A400002000EE001208DF803000AE002208DF86C
:101A5000030006E001208DF8040002E002208DF86A
:101A600004000822694602A82B00DBB200EB030643
:101A7000300003F083FD0835082102A8E4B22044B9
:101A8000401DFEF7CEFB02A92A00D2B288546D1C7D
:101A9000000A02A92A00D2B288546D1C0D2002A9A6
:101AA0002A00D2B288546D1C42F21073EDB22A00A3
:101AB00092B202A9174809F0D4F90BB0F0BD0000AA
:101AC00035E50020B4CB030890BC0308C0CD00204E
:101AD000B0BC030848B80308D0BC030838E50020B0
:101AE00036E50020A8D70020E0D6002037E500200A
:101AF00039E5002030D10020AAD70020C8CB030848
:101B0000B0E2002080E100200C02002010DE002066
:101B100038B3030870E000202DE9FC4105000F00F8
:101B2000160000240020DFF8F4092900C9B2084497
:101B300010F8010C00280ED0022800F08483C0F0B9
:101B40000881042800F06F87C0F0EE85052801F0B9
:101B5000E98001F04BBADFF8C8192A00D2B2182088
:101B6000424301EB020010F8180C002840F0EF800F
:101B7000DFF8980B0088318B88425ED330780028DC
:101B80005BD001203075002070750121DFF89429A9
:101B90002B00DBB21720434302EB030020F80B1CA1
:101BA000DFF88409C18ADFF87C292B00DBB217201B
:101BB000434302EB030020F8091C3900C9B2DFF8E7
:101BC00064292B00DBB21720434302EB03001738D4
:101BD000FFF798FD0124DFF854290121002004F0CB
:101BE0001BF801232A00D2B2DFF84419DFF84409B8
:101BF00003F04CFEDFF83C290121002004F00CF832
:101C000003F0A3FDDFF8040B00883C2190FBF1F208
:101C100001FB12000190DFF8F40A00883C2190FBE0
:101C2000F1F0009001232A00D2B2DFF80C19DFF89E
:101C30000C0903F00DFE03F090FD5FF0010805E0D4
:101C400000204146C9B2705418F101084046B17DE8
:101C5000C0B288427BD2DFF8B40A00884146C9B2DC
:101C600006EB4101098B8842EED34046C0B2305C9E
:101C70000028E9D02000C0B20028E5D14046C0B21B
:101C800006EB4000008B0028DAD00120307586F882
:101C900015800121DFF88C282B00DBB2172043438D
:101CA00002EB030020F80B1CDFF87C08C18ADFF888
:101CB00074282B00DBB21720434302EB030020F80B
:101CC000091C3900C9B2DFF85C282B00DBB21720F1
:101CD000434302EB03001738FFF714FD0120DFF840
:101CE0004C280121002003F097FF4346DBB25B1C28
:101CF0002A00D2B2DFF83818DFF8380803F0C6FD42
:101D0000DFF830280121002003F086FF03F01DFDDD
:101D1000DFF8F80900883C2190FBF1F201FB12008A
:101D20000190DFF8E80900883C2190FBF1F0009079
:101D30005FFA88F818F1010843462A00D2B2DFF8AA
:101D4000F817DFF8F80703F083FD03F006FD01F054
:101D500054B9DFF8CC172A00D2B21820424301EB65
:101D6000020010F8140C002840F06B82B6F84E0008
:101D7000B6F84810884201D2012008E0B6F84800C1
:101D8000B6F84E10884201D1022000E00020010088
:101D9000C9B2012940F0F580DFF870090088B6F873
:101DA0004E10884279D3DFF864090088B6F84810ED
:101DB000884272D22000C0B200286ED10321DFF821
:101DC00064272B00DBB21720434302EB030020F80B
:101DD0000B1C0021DFF84C272B00DBB217204343FC
:101DE00002EB030020F8091CB6F84210DFF8342794
:101DF0002B00DBB21720434302EB030020F8061C44
:101E0000B6F84410DFF81C272B00DBB21720434341
:101E100002EB030020F8041C3900C9B2DFF80427E4
:101E20002B00DBB21720434302EB03001738FFF708
:101E300069FC0120DFF8F4260121002003F0ECFE0C
:101E400001232A00D2B2DFF8C818DFF8E80603F051
:101E50001DFDDFF8E0260121002003F0DDFE03F088
:101E600074FCDFF8A80800883C2190FBF1F201FB2C
:101E700012000190DFF8940800883C2190FBF1F0FB
:101E8000009001232A00D2B2DFF88818DFF8AC06F0
:101E900003F0DEFC03F061FCD3E1E4B2002C40F07F
:101EA000D0810321DFF87C262B00DBB217204343CF
:101EB00002EB030020F80B1C4FF41671DFF86426C8
:101EC0002B00DBB21720434302EB030020F8091C70
:101ED000B6F84210DFF84C262B00DBB21720434344
:101EE00002EB030020F8061CB6F84410DFF8342695
:101EF0002B00DBB21720434302EB030020F8041C45
:101F00003900C9B2DFF81C262B00DBB2172043438F
:101F100002EB03001738FFF7F5FB0120DFF80C2672
:101F20000121002003F078FE01232A00D2B2DFF85D
:101F30003C1EDFF8000603F0A9FCDFF8F8250121BC
:101F4000002003F069FE03F000FCDFF8C007008802
:101F50003C2190FBF1F201FB12000190DFF8AC078D
:101F600000883C2190FBF1F0009001232A00D2B2BE
:101F7000DFF8FC1DDFF8C40503F06AFC03F0EDFB9D
:101F80005FE1C0B202286FD10321DFF898252B0052
:101F9000DBB21720434302EB030020F80B1C4FF485
:101FA0001671DFF880252B00DBB21720434302EBCC
:101FB000030020F8091CB6F84210DFF868252B0052
:101FC000DBB21720434302EB030020F8061CB6F8EF
:101FD0004410DFF850252B00DBB21720434302EBFF
:101FE000030020F8041C3900C9B2DFF838252B00A3
:101FF000DBB21720434302EB03001738FFF782FBE5
:102000000120DFF828250121002003F005FE01232F
:102010002A00D2B2DFF8541DDFF8180503F036FCB1
:10202000DFF810250121002003F0F6FD03F08DFB01
:10203000DFF8D80600883C2190FBF1F201FB12008A
:102040000190DFF8C80600883C2190FBF1F0009079
:1020500001232A00D2B2DFF8181DDFF8E00403F0F4
:10206000F7FB03F07AFBECE0DFF8A0060088B6F897
:10207000481088427AD3DFF894060088B6F84E10EC
:10208000884273D22000C0B200286FD10321DFF84C
:1020900094242B00DBB21720434302EB030020F80B
:1020A0000B1C4FF41671DFF87C242B00DBB21720D9
:1020B000434302EB030020F8091CB6F84210DFF896
:1020C00064242B00DBB21720434302EB030020F80B
:1020D000061CB6F84410DFF84C242B00DBB21720A6
:1020E000434302EB030020F8041C3900C9B2DFF8B7
:1020F00034242B00DBB21720434302EB03001738D4
:10210000FFF700FB0120DFF824240121002003F069
:1021100083FD01232A00D2B2DFF8501CDFF814043B
:1021200003F0B4FBDFF80C240121002003F074FD60
:1021300003F00BFBDFF8D40500883C2190FBF1F2A3
:1021400001FB12000190DFF8C40500883C2190FBE0
:10215000F1F0009001232A00D2B2DFF8141CDFF85E
:10216000DC0303F075FB03F0F8FA6AE0E4B2002C3C
:1021700067D10321DFF8AC232B00DBB217204343E8
:1021800002EB030020F80B1C0021DFF898232B0042
:10219000DBB21720434302EB030020F8091CB6F81A
:1021A0004210DFF880232B00DBB21720434302EB01
:1021B000030020F8061CB6F84410DA4A2B00DBB204
:1021C0001720434302EB030020F8041C3900C9B276
:1021D000D44A2B00DBB21720434302EB030017382D
:1021E000FFF790FA0120D14A0121002003F014FDED
:1021F00001232A00D2B2DFF81815CE4803F046FBBF
:10220000CC4A0121002003F007FD03F09EFADFF81D
:10221000FC0400883C2190FBF1F201FB12000190CC
:10222000DFF8E80400883C2190FBF1F000900123E6
:102230002A00D2B2DFF8DC14C04803F009FB03F037
:102240008CFA00F0DABEB6492A00D2B21820424316
:1022500001EB020010F8100C002840F06382B6F881
:102260005000B6F84A10884201D2012008E0B6F8C2
:102270004A00B6F85010884201D1022000E0002048
:102280000100C9B2012940F0E180DFF88004008834
:10229000B6F85010884270D3DFF870040088B6F8A2
:1022A0004A10884269D22000C0B2002865D10421BA
:1022B0009C4A2B00DBB21720434302EB030020F8BB
:1022C0000B1C0021974A2B00DBB21720434302EB83
:1022D000030020F8091CB6F84210924A2B00DBB22A
:1022E0001720434302EB030020F8061CB6F8441005
:1022F0008C4A2B00DBB21720434302EB030020F88B
:10230000041C3900C9B2874A2B00DBB217204343B3
:1023100002EB03001738FFF7F5F90120834A01218A
:10232000002003F079FC02232A00D2B2DFF8E01388
:10233000804803F0ABFA7F4A0121002003F06CFCD7
:1023400003F003FADFF8C40300883C2190FBF1F2AC
:1023500001FB12000190DFF8B40300883C2190FBE0
:10236000F1F0009002232A00D2B2DFF8A8137348DC
:1023700003F06EFA03F0F1F9D4E1E4B2002C40F07E
:10238000D1810421674A2B00DBB21720434302EBC3
:10239000030020F80B1C4FF41671624A2B00DBB2CD
:1023A0001720434302EB030020F8091CB6F8421043
:1023B0005C4A2B00DBB21720434302EB030020F8FA
:1023C000061CB6F84410574A2B00DBB217204343D3
:1023D00002EB030020F8041C3900C9B2514A2B005B
:1023E000DBB21720434302EB03001738FFF78AF9EB
:1023F00001204E4A0121002003F00EFC02232A0096
:10240000D2B2DFF868194B4803F040FA494A01217B
:10241000002003F001FC03F098F9BC4800883C213F
:1024200090FBF1F201FB12000190B84800883C21BA
:1024300090FBF1F0009002232A00D2B2DFF83019AD
:102440003E4803F005FA03F088F96BE1C0B20228B8
:1024500076D10421334A2B00DBB21720434302EB31
:10246000030020F80B1C4FF416712E4A2B00DBB230
:102470001720434302EB030020F8091CB6F8421072
:10248000284A2B00DBB21720434302EB030020F85D
:10249000061CB6F84410234A2B00DBB21720434336
:1024A00002EB030020F8041C3900C9B21D4A2B00BE
:1024B000DBB21720434302EB03001738FFF722F982
:1024C00001201A4A0121002003F0A6FB02232A0062
:1024D000D2B2DFF89818174803F0D8F9154A01214D
:1024E000002003F099FB03F030F9884800883C2174
:1024F00090FBF1F201FB12000190844800883C211E
:1025000090FBF1F0009002232A00D2B2DFF86018AD
:102510000A4803F09DF903F020F903E148E40020A4
:1025200090DC0020A0D2002010DE0020DCCB0308CD
:10253000D4CF0308B0E20020F0BC03080C02002056
:1025400072480088B6F84A10884277D36F480088EE
:10255000B6F85010884271D22000C0B200286DD168
:102560000421DFF8A02B2B00DBB21720434302EB42
:10257000030020F80B1C4FF41671DFF8882B2B009A
:10258000DBB21720434302EB030020F8091CB6F826
:102590004210DFF8702B2B00DBB21720434302EB15
:1025A000030020F8061CB6F84410DFF8582B2B0067
:1025B000DBB21720434302EB030020F8041C390070
:1025C000C9B2DFF8402B2B00DBB21720434302EBEC
:1025D00003001738FFF796F80120DFF82C2B0121B4
:1025E000002003F019FB02232A00D2B2DFF87C1787
:1025F000DFF8180B03F04AF9DFF8102B0121002057
:1026000003F00AFB03F0A1F8404800883C2190FB4E
:10261000F1F201FB120001903C4800883C2190FB44
:10262000F1F0009002232A00D2B2DFF84417DFF85D
:10263000E00A03F00DF903F090F873E0E4B2002C27
:1026400070D10421DFF8BC2A2B00DBB217204343F2
:1026500002EB030020F80B1C0021DFF8A82A2B0056
:10266000DBB21720434302EB030020F8091CB6F845
:102670004210DFF8902A2B00DBB21720434302EB15
:10268000030020F8061CB6F84410DFF8782A2B0067
:10269000DBB21720434302EB030020F8041C39008F
:1026A000C9B2DFF8602A2B00DBB21720434302EBEC
:1026B00003001738FFF726F80120DFF84C2A012124
:1026C000002003F0A9FA02232A00D2B21049DFF851
:1026D0003C0A03F0DBF8DFF8342A0121002003F084
:1026E0009BFA03F032F8094800883C2190FBF1F294
:1026F00001FB12000190054800883C2190FBF1F09D
:10270000009002232A00D2B2024905E0FEE4002034
:10271000F0CB03086CB80308DFF8F40903F098F86D
:1027200003F01BF800F069BCDFF8E8192A00D2B208
:102730001820424301EB020010F80C0C002840F076
:102740007181DFF8D4092900C9B2084410F8010CDE
:10275000012840F06781DFF8C4092900C9B200EB05
:10276000410030F8020C652809DADFF8B4092900C5
:10277000C9B200EB410030F8020C65284CDB0020A8
:1027800086F855000621DFF87C292B00DBB21720E4
:10279000434302EB030020F80B1C0021DFF86429FF
:1027A0002B00DBB21720434302EB030020F8091C87
:1027B0003900C9B2DFF84C292B00DBB217204343A4
:1027C00002EB03001738FEF79DFF0120DFF83829E0
:1027D0000121002003F020FA01232A00D2B2DFF801
:1027E0004419DFF8280903F051F8DFF82029012106
:1027F000002003F011FA02F0A8FFB6F9680000907B
:1028000001232A00D2B2DFF82019DFF8040903F00F
:102810001FF802F0A2FF05E1B6F95800B6F96810FA
:10282000884251DB2000C0B200284DD1012086F83B
:1028300055000621DFF8CC282B00DBB217204343DC
:1028400002EB030020F80B1C4FF41671DFF8B428DC
:102850002B00DBB21720434302EB030020F8091CD6
:102860003900C9B2DFF89C282B00DBB217204343A4
:1028700002EB03001738FEF745FF0120DFF8882838
:102880000121002003F0C8F901232A00D2B2DFF8A9
:102890009C18DFF8780802F0F9FFDFF870280121B2
:1028A000002003F0B9F902F050FFB6F9680000907B
:1028B00001232A00D2B2DFF87818DFF8540802F0BA
:1028C000C7FF02F04AFFADE096F85500012854D149
:1028D000B6F96200B6F9681088424EDB2000C0B23B
:1028E00000284AD10621DFF81C282B00DBB2172074
:1028F000434302EB030020F80B1C4FF41671DFF882
:1029000004282B00DBB21720434302EB030020F81E
:10291000091C3900C9B2DFF8EC272B00DBB2172005
:10292000434302EB03001738FEF7ECFE0120DFF80B
:10293000D8270121002003F06FF901232A00D2B229
:10294000DFF8F017DFF8C40702F0A0FFDFF8BC27BC
:102950000121002003F060F902F0F7FEB6F96800EB
:10296000009001232A00D2B2DFF8CC17DFF8A007CD
:1029700002F06EFF02F0F1FE54E0B6F96800B6F91D
:10298000621088424EDBE4B2002C4BD1002086F866
:1029900055000621DFF86C272B00DBB217204343DC
:1029A00002EB030020F80B1C0021DFF858272B0056
:1029B000DBB21720434302EB030020F8091C390067
:1029C000C9B2DFF840272B00DBB21720434302EBEC
:1029D00003001738FEF796FE0120DFF82C270121AF
:1029E000002003F019F901232A00D2B2DFF84C17B6
:1029F000DFF8180702F04AFFDFF810270121002056
:102A000003F00AF902F0A1FEB6F968000090012374
:102A10002A00D2B2DFF82817DFF8F40602F018FF18
:102A200002F09BFEE9E2DFF8EC162A00D2B2182091
:102A3000424301EB020010F8080C002840F07181BD
:102A4000DFF8D4062900C9B2084410F8010C0128A7
:102A500040F06781DFF8C4062900C9B200EB4100ED
:102A600030F8020C652809DADFF8B4062900C9B28B
:102A700000EB410030F8020C65284CDB002086F8A2
:102A800055000621DFF87C262B00DBB217204343DC
:102A900002EB030020F80B1C0021DFF868262B0056
:102AA000DBB21720434302EB030020F8091C390076
:102AB000C9B2DFF850262B00DBB21720434302EBEC
:102AC00003001738FEF71EFE0120DFF83C26012127
:102AD000002003F0A1F802232A00D2B2DFF8441646
:102AE000DFF8280602F0D2FEDFF8202601210020C0
:102AF00003F092F802F029FEB6F968000090012375
:102B00002A00D2B2DFF82016DFF8040602F0A0FE99
:102B100002F023FE05E1B6F95A00B6F968108842C2
:102B200051DB2000C0B200284DD1012086F85600AC
:102B30000721DFF8D0252B00DBB21720434302EB3F
:102B4000030020F80B1C4FF41671DFF8B8252B009A
:102B5000DBB21720434302EB030020F8091C3900C5
:102B6000C9B2DFF8A0252B00DBB21720434302EBEC
:102B700003001738FEF7C6FD0120DFF88C25012180
:102B8000002003F049F802232A00D2B2DFF89C1596
:102B9000DFF8780502F07AFEDFF8702501210020C9
:102BA00003F03AF802F0D1FDB6F968000090022374
:102BB0002A00D2B2DFF87815DFF8540502F048FE9B
:102BC00002F0CBFDADE096F85600012854D1B6F9DD
:102BD0006400B6F9681088424EDB2000C0B20028BD
:102BE0004AD10721DFF81C252B00DBB21720434315
:102BF00002EB030020F80B1C4FF41671DFF80425DC
:102C00002B00DBB21720434302EB030020F8091C22
:102C10003900C9B2DFF8EC242B00DBB217204343A4
:102C200002EB03001738FEF76DFD0120DFF8D82412
:102C30000121002002F0F0FF02232A00D2B2DFF8C7
:102C4000F414DFF8C80402F021FEDFF8C0240121EB
:102C5000002002F0E1FF02F078FDB6F96800009074
:102C600002232A00D2B2DFF8D014DFF8A40402F065
:102C7000EFFD02F072FD54E0B6F96800B6F9641099
:102C800088424EDBE4B2002C4BD1002086F856007F
:102C90000721DFF870242B00DBB21720434302EB3F
:102CA000030020F80B1C0021DFF858242B00DBB2B6
:102CB0001720434302EB030020F8091C3900C9B276
:102CC000DFF840242B00DBB21720434302EB030064
:102CD0001738FEF717FD0120DFF82C240121002012
:102CE00002F09AFF02232A00D2B2DFF85014DFF874
:102CF0001C0402F0CBFDDFF814240121002002F0B7
:102D00008BFF02F022FDB6F96800009002232A0032
:102D1000D2B2DFF82C14DFF8F80302F099FD02F0CC
:102D20001CFD6AE1DFF8EC132A00D2B218204243FE
:102D300001EB020010F8040C002840F05681DFF887
:102D4000D8032900C9B2084410F8010C012840F04A
:102D50004C81DFF8C8032900C9B200EB410030F80C
:102D6000020C65280EDADFF8B80303E0E4CF0308AD
:102D700090B803082900C9B200EB410030F8020CFA
:102D8000652847DB002086F855000821DFF874230A
:102D90002B00DBB21720434302EB030020F80B1C8F
:102DA0000021DFF860232B00DBB21720434302EB46
:102DB000030020F8091C3900C9B2DFF848232B00B2
:102DC000DBB21720434302EB03001738FEF79AFCEF
:102DD0000120CD4A0121002002F01EFF03232A001A
:102DE000D2B2DFF84013C94802F050FDC74A0121B2
:102DF000002002F011FF02F0A8FCB6F96800009074
:102E000001232A00D2B2C849C14802F021FD02F0D4
:102E1000A4FCEAE0B6F95C00B6F96810884248DB29
:102E20002000C0B2002844D1012086F857000821B4
:102E3000B44A2B00DBB21720434302EB030020F817
:102E40000B1C4FF41671AF4A2B00DBB21720434323
:102E500002EB030020F8091C3900C9B2A94A2B0073
:102E6000DBB21720434302EB03001738FEF74AFC9E
:102E70000120A54A0121002002F0CEFE03232A00F2
:102E8000D2B2AA49A14802F001FDA04A01210020C6
:102E900002F0C2FE02F059FCB6F96800009003236C
:102EA0002A00D2B2A2499A4802F0D2FC02F055FCA4
:102EB0009BE096F8570001284BD1B6F96600B6F9A9
:102EC0006810884245DB2000C0B2002841D10821AB
:102ED0008C4A2B00DBB21720434302EB030020F89F
:102EE0000B1C4FF41671874A2B00DBB217204343AB
:102EF00002EB030020F8091C3900C9B2814A2B00FB
:102F0000DBB21720434302EB03001738FEF7FAFB4E
:102F100001207D4A0121002002F07EFE03232A00C9
:102F2000D2B28449794802F0B1FC784A01210020EC
:102F300002F072FE02F009FCB6F96800009003236B
:102F40002A00D2B27C49724802F082FC02F005FCF1
:102F50004BE0B6F96800B6F96610884245DBE4B28A
:102F6000002C42D1002086F857000821654A2B002A
:102F7000DBB21720434302EB030020F80B1C0021B7
:102F8000604A2B00DBB21720434302EB030020F81A
:102F9000091C3900C9B25B4A2B00DBB2172043433E
:102FA00002EB03001738FEF7ADFB0120564A012162
:102FB000002002F031FE03232A00D2B25F495348B9
:102FC00002F064FC514A0121002002F025FE02F0CB
:102FD000BCFBB6F96800009003232A00D2B258491E
:102FE0004B4802F035FC02F0B8FB06E000205549E2
:102FF0002A00D2B2114401F8010C52482900C9B28A
:10300000084410F8010C401C4E492A00D2B2114469
:1030100001F8010C4B482900C9B2084410F8010C12
:10302000012817D196F8460000285AD196F8540086
:10303000002807D1002043492A00D2B2114401F8E8
:10304000010C4EE003203F492A00D2B2114401F89E
:10305000010C46E03B482900C9B2084410F8010CB5
:10306000022817D196F8460001283AD196F8540064
:10307000002807D1002033492A00D2B2114401F8B8
:10308000010C2EE003202F492A00D2B2114401F88E
:10309000010C26E02B482900C9B2084410F8010CA5
:1030A00004280BD196F8540001281AD10020254994
:1030B0002A00D2B2114401F8010C12E02148290083
:1030C000C9B2084410F8010C05280AD196F854003A
:1030D000022806D100201B492A00D2B2114401F86F
:1030E000010C18482900C9B2084410F8010C062840
:1030F00005DB00201349EDB2294401F8010CBDE8BD
:10310000F3810000A0D20020DCCB0308B0E2002055
:103110000C02002090DC002050E40020E4E30020BA
:10312000ECE3002078C6030810BD0308F4CF0308C1
:1031300098C2030804D00308B4C2030804CC0308EF
:10314000D0C2030848E40020FEB504001500DFF8F3
:10315000B00C2200D2B2104410F8016C0020002202
:10316000DFF8A07CDFF8A0CCA6465FFA8EFE4FF415
:10317000847303FB0EFE0CEB0E03B4465FFA8CFC6B
:103180006344B3F5837393F800C06E2303FB0CFC18
:1031900007EB0C03B3F86A30A5F80431DFF8647C60
:1031A000DFF864CCA6465FFA8EFE4FF4847303FB0F
:1031B0000EFE0CEB0E03B4465FFA8CFC6344B3F5D1
:1031C000837393F800C06E2303FB0CFC07EB0C0326
:1031D000B3F86830A5F802313300DBB22B4493F822
:1031E0004230012B41F04683DFF8203C2F783B44EE
:1031F00013F8013C012B41F03D83DFF8143C27001C
:10320000FFB203EB470333F8023C652B09DADFF822
:10321000043C2700FFB203EB470333F8023C652B65
:1032200052DB00203200D2B22A4482F8620032001F
:10323000D2B2521CDFF8E03B2700FFB21720474311
:1032400003EB070020F80B2C0022DFF8CC3B270013
:10325000FFB21720474303EB070020F8092CC9B23F
:10326000DFF8B42B2300DBB21720434302EB03004B
:103270001738FEF747FADFF8A42B0121002002F0EF
:10328000CBFCF6B2761C33002200D2B2DFF8901BE2
:10329000DFF8900B02F0FAFADFF8882B012100200A
:1032A00002F0BAFC02F051FAB5F9020100900123D4
:1032B0002200D2B2DFF8701BDFF8700B02F0C8FA00
:1032C00002F04BFA01F0EBBA3300DBB22B449B7CEB
:1032D000012B40F0C5853300DBB22B4493F822303C
:1032E000012B40F0BD853300DBB205EB4303B3F99E
:1032F00072303700FFB205EB4707B7F9C270BB4227
:1033000000DA01203300DBB205EB4303B3F992305E
:103310003700FFB205EB4707B7F9E270BB4200DAAE
:1033200001220300DBB2012B40F061811300DBB20C
:10333000012B40F05C813000C0B205EB4000B0F9D9
:103340007200B5F90221904209DA3000C0B205EBF3
:103350004000B0F99200B5F90421904256DB0120FB
:103360003200D2B22A4482F862003200D2B2521C39
:10337000DFF8A43A2700FFB21720474303EB07000A
:1033800020F80B2C4FF41672DFF88C3A2700FFB2AE
:103390001720474303EB070020F8092CC9B2DFF8D8
:1033A000782A2300DBB21720434302EB03001738CF
:1033B000FEF7A8F9DFF8642A0121002002F02CFCB6
:1033C0003300DBB22200D2B2DFF8641ADFF8540A0D
:1033D00002F05CFADFF84C2A0121002002F01CFC0C
:1033E00002F0B3F9B5F904010190B5F902010090BA
:1033F000F6B233002200D2B2DFF8381ADFF82C0A16
:1034000002F026FA02F0A9F901F049BA3000C0B280
:10341000284490F86200012809D13000C0B205EBC1
:103420004000B0F9C200B5F90221904209DA30003B
:10343000C0B205EB4000B0F9E200B5F904219042BA
:1034400050DB3200D2B2521CDFF8CC392700FFB279
:103450001720474303EB070020F80B2C4FF416729C
:10346000DFF8B4392700FFB21720474303EB07000A
:1034700020F8092CC9B2DFF8A0292300DBB21720FD
:10348000434302EB03001738FEF73CF9DFF88C29C1
:103490000121002002F0C0FB3300DBB22200D2B2D7
:1034A000DFF89419DFF87C0902F0F0F9DFF87429ED
:1034B0000121002002F0B0FB02F047F9B5F9040148
:1034C0000190B5F902010090F6B233002200D2B2A9
:1034D000DFF86819DFF8540902F0BAF902F03DF993
:1034E00001F0DDB9B5F902013200D2B205EB4202BA
:1034F000B2F9C22090425FDBB5F904013200D2B2CA
:1035000005EB4202B2F9E220904255DB0020320086
:10351000D2B22A4482F862003200D2B2521CDFF8E2
:10352000F8382700FFB21720474303EB070020F8C5
:103530000B2C0022DFF8E0382700FFB217204743AA
:1035400003EB070020F8092CC9B2DFF8CC282300D0
:10355000DBB21720434302EB03001738FEF7D2F823
:10356000DFF8B8280121002002F056FB3300DBB25F
:103570002200D2B2DFF8C818DFF8A80802F086F9F6
:10358000DFF8A0280121002002F046FB02F0DDF860
:10359000B5F904010190B5F902010090F6B23300CB
:1035A0002200D2B2DFF89C18DFF8800802F050F950
:1035B00002F0D3F801F073B90122DFF85C38DFF8CC
:1035C000880806781720464303EB060000F80C2C09
:1035D000C9B2DFF84428DFF87008037817204343A6
:1035E00002EB03001738FEF78DF801F058B903001D
:1035F000DBB2012B40F061811300DBB2002B40F005
:103600005C813000C0B205EB4000B0F97200B5F942
:103610000221904209DAB5F904013200D2B205EB79
:103620004202B2F99220904256DB01203200D2B21F
:103630002A4482F862003200D2B2521CDFF8D83736
:103640002700FFB21720474303EB070020F80B2C9D
:103650004FF41672DFF8C0372700FFB21720474338
:1036600003EB070020F8092CC9B2DFF8AC272300D0
:10367000DBB21720434302EB03001738FEF742F892
:10368000DFF898270121002002F0C6FA3300DBB2F0
:103690002200D2B2DFF89817DFF8880702F0F6F8B8
:1036A000DFF880270121002002F0B6FA02F04DF881
:1036B000B5F904010190B5F902010090F6B23300AA
:1036C0002200D2B2DFF88417DFF8600702F0C0F8FA
:1036D00002F043F801F0E3B83000C0B2284490F89B
:1036E0006200012809D13000C0B205EB4000B0F9FA
:1036F000C200B5F90221904209DAB5F9040132009D
:10370000D2B205EB4202B2F9E220904250DB320025
:10371000D2B2521CDFF800372700FFB21720474310
:1037200003EB070020F80B2C4FF41672DFF8E83695
:103730002700FFB21720474303EB070020F8092CAE
:10374000C9B2DFF8D4262300DBB21720434302EBD3
:1037500003001738FDF7D6FFDFF8C026012100204F
:1037600002F05AFA3300DBB22200D2B2DFF8C816F8
:10377000DFF8B00602F08AF8DFF8A8260121002061
:1037800002F04AFA01F0E1FFB5F904010190B5F940
:1037900002010090F6B233002200D2B2DFF8B01678
:1037A000DFF8880602F054F801F0D7FF01F077B88F
:1037B000B5F902013200D2B205EB4202B2F9C220E1
:1037C00090425FDB3000C0B205EB4000B0F9E20090
:1037D000B5F90421904255DB00203200D2B22A44D0
:1037E00082F862003200D2B2521CDFF82C36270079
:1037F000FFB21720474303EB070020F80B2C0022F1
:10380000DFF814362700FFB21720474303EB070009
:1038100020F8092CC9B2DFF800262300DBB21720FC
:10382000434302EB03001738FDF76CFFDFF8EC258C
:103830000121002002F0F0F93300DBB22200D2B205
:10384000DFF8FC15DFF8DC0502F020F8DFF8D425FE
:103850000121002002F0E0F901F077FFB5F9040141
:103860000190B5F902010090F6B233002200D2B205
:10387000DFF8E015DFF8B40501F0EAFF01F06DFFB5
:1038800001F00DB80122DFF89035DFF8BC050678AD
:103890001720464303EB060000F80C2CC9B2DFF8F2
:1038A0007825DFF8A40503781720434302EB0300D3
:1038B0001738FDF727FF00F0F2BF0300DBB2002B43
:1038C00040F055811300DBB2012B40F05081B5F977
:1038D00002013200D2B205EB4202B2F972209042EC
:1038E00009DA3000C0B205EB4000B0F99200B5F93A
:1038F0000421904256DB01203200D2B22A4482F8E1
:1039000062003200D2B2521CDFF80C352700FFB241
:103910001720474303EB070020F80B2C4FF41672D7
:10392000DFF8F4342700FFB21720474303EB07000A
:1039300020F8092CC9B2DFF8E0242300DBB21720FD
:10394000434302EB03001738FDF7DCFEDFF8CC241D
:103950000121002002F060F93300DBB22200D2B274
:10396000DFF8CC14DFF8BC0401F090FFDFF8B424DA
:103970000121002002F050F901F0E7FEB5F9040141
:103980000190B5F902010090F6B233002200D2B2E4
:10399000DFF8C414DFF8940401F05AFF01F0DDFEF3
:1039A00000F07DBF3000C0B2284490F862000128CA
:1039B00009D1B5F902013200D2B205EB4202B2F9E7
:1039C000C220904209DA3000C0B205EB4000B0F9E5
:1039D000E200B5F90421904250DB3200D2B2521C11
:1039E000DFF834342700FFB21720474303EB07000A
:1039F00020F80B2C4FF41672DFF81C342700FFB2AE
:103A00001720474303EB070020F8092CC9B2DFF861
:103A100008242300DBB21720434302EB03001738CE
:103A2000FDF770FEDFF8F4230121002002F0F4F826
:103A30003300DBB22200D2B2DFF8FC13DFF8E4037C
:103A400001F024FFDFF8DC230121002002F0E4F87C
:103A500001F07BFEB5F904010190B5F90201009077
:103A6000F6B233002200D2B2DFF8F013DFF8BC0365
:103A700001F0EEFE01F071FE00F011BF3000C0B2A7
:103A800005EB4000B0F9C200B5F90221904257DBC6
:103A9000B5F904013200D2B205EB4202B2F9E220DC
:103AA00090424DDB00203200D2B22A4482F86200FC
:103AB0003200D2B2521CD84B2700FFB21720474326
:103AC00003EB070020F80B2C0022D34B2700FFB29A
:103AD0001720474303EB070020F8092CC9B2CE4A50
:103AE0002300DBB21720434302EB03001738FDF736
:103AF00009FECA4A0121002002F08EF83300DBB231
:103B00002200D2B2CE49C74801F0C0FEC54A012109
:103B1000002002F081F801F018FEB5F904010190CF
:103B2000B5F902010090F6B233002200D2B2DFF8FC
:103B3000181EBE4801F08CFE01F00FFE00F0AFBE73
:103B40000122B54BC04806781720464303EB060018
:103B500000F80C2CC9B2B04ABB4803781720434385
:103B600002EB03001738FDF7CDFD00F098BEC0B2A0
:103B7000002840F09486D2B2002A40F09086B5F931
:103B800002013200D2B205EB4202B2F97220904239
:103B900009DAB5F904013200D2B205EB4202B2F9FA
:103BA000922090424EDB01203200D2B22A4482F8A9
:103BB00062003200D2B2521C974B2700FFB217208E
:103BC000474303EB070020F80B2C4FF41672924B7F
:103BD0002700FFB21720474303EB070020F8092C0A
:103BE000C9B28D4A2300DBB21720434302EB030026
:103BF0001738FDF787FD894A0121002002F00CF8F3
:103C00003300DBB22200D2B28949864801F03EFE81
:103C1000844A0121002001F0FFFF01F096FDB5F973
:103C200004010190B5F902010090F6B233002200C0
:103C3000D2B2DFF8181D7D4801F00AFE01F08DFDBB
:103C400000F02DBE3000C0B2284490F86200012878
:103C500009D1B5F902013200D2B205EB4202B2F944
:103C6000C220904209DAB5F904013200D2B205EB64
:103C70004202B2F9E220904248DB3200D2B2521C3A
:103C8000654B2700FFB21720474303EB070020F8DE
:103C90000B2C4FF41672604B2700FFB217204743DE
:103CA00003EB070020F8092CC9B25B4A2300DBB202
:103CB0001720434302EB03001738FDF723FD574A53
:103CC0000121002001F0A8FF3300DBB22200D2B2B4
:103CD0005949544801F0DAFD524A0121002001F00F
:103CE0009BFF01F032FDB5F904010190B5F9020125
:103CF0000090F6B233002200D2B2DFF8541C4B48D9
:103D000001F0A6FD01F029FD00F0C9BD3000C0B2F0
:103D100005EB4000B0F9C200B5F90221904257DB33
:103D20003000C0B205EB4000B0F9E200B5F9042163
:103D300090424DDB00203200D2B22A4482F8620069
:103D40003200D2B2521C344B2700FFB21720474337
:103D500003EB070020F80B2C00222F4B2700FFB2AB
:103D60001720474303EB070020F8092CC9B22A4A61
:103D70002300DBB21720434302EB03001738FDF7A3
:103D8000C1FC264A0121002001F046FF3300DBB2CE
:103D90002200D2B22A49234801F078FD214A0121AC
:103DA000002001F039FF01F0D0FCB5F904010190C9
:103DB000B5F902010090F6B233002200D2B2DFF86A
:103DC000941B1A4801F044FD01F0C7FC00F067BDE8
:103DD0000122114B1C4806781720464303EB0600CE
:103DE00000F80C2CC9B20C4A17480378172043433B
:103DF00002EB03001738FDF785FC00F050BD00BF53
:103E00009CE30020C0CD0020F089002050E4002079
:103E1000E4E30020ECE30020A0D20020DCCB030888
:103E200014D00308B0E2002030BD03080C020020CB
:103E300024D00308449F030834D00308909F03084C
:103E400044D00308DC9F030852E5002028A00308A3
:103E500074A003081C9D0308C0A003080CA103085C
:103E60003300DBB22B449B7C012B40F08E8232006E
:103E7000D2B205EB4202B2F972203300DBB205EB9D
:103E80004303B3F9C2309A4200DA01200200D2B2F1
:103E9000012A40F03C813000C0B205EB4000B0F98F
:103EA0007200B5F90221904256DB01203200D2B2F5
:103EB0002A4482F862003200D2B2521CDFF8983AEB
:103EC0002700FFB21720474303EB070020F80B2C15
:103ED0004FF41672DFF8803A2700FFB217204743ED
:103EE00003EB070020F8092CC9B2DFF86C2A230085
:103EF000DBB21720434302EB03001738FDF702FC47
:103F0000DFF8582A0121002001F086FE3300DBB2E1
:103F10002200D2B2DFF8481ADFF8480A01F0B6FCF6
:103F2000DFF8402A0121002001F076FE01F00DFCAF
:103F3000B5F904010190B5F902010090F6B2330021
:103F40002200D2B2DFF8201ADFF8200A01F080FC4C
:103F500001F003FC00F0A3BC3000C0B2284490F88C
:103F6000620001285AD13000C0B205EB4000B0F920
:103F7000C200B5F90221904250DB3200D2B2521C8D
:103F8000DFF8D4392700FFB21720474303EB0700BF
:103F900020F80B2C4FF41672DFF8BC392700FFB263
:103FA0001720474303EB070020F8092CC9B2DFF8BC
:103FB000A8292300DBB21720434302EB0300173884
:103FC000FDF7A0FBDFF894290121002001F024FE79
:103FD0003300DBB22200D2B2DFF89419DFF8840993
:103FE00001F054FCDFF87C290121002001F014FECF
:103FF00001F0ABFBB5F904010190B5F902010090A5
:10400000F6B233002200D2B2DFF86819DFF85C099B
:1040100001F01EFC01F0A1FB00F041BCB5F902016A
:104020003200D2B205EB4202B2F9C220904254DB18
:1040300000203200D2B22A4482F862003200D2B2AA
:10404000521CDFF814392700FFB21720474303EB57
:10405000070020F80B2C0022DFF8FC382700FFB205
:104060001720474303EB070020F8092CC9B2DFF8FB
:10407000E8282300DBB21720434302EB0300173884
:10408000FDF740FBDFF8D4280121002001F0C4FD3A
:104090003300DBB22200D2B2DFF8DC18DFF8C4084C
:1040A00001F0F4FBDFF8BC280121002001F0B4FD91
:1040B00001F04BFBB5F904010190B5F90201009044
:1040C000F6B233002200D2B2DFF8B018DFF89C0855
:1040D00001F0BEFB01F041FBE1E30122DFF878389B
:1040E000DFF89C0806781720464303EB060000F82B
:1040F0000C2CC9B2DFF86028DFF884080378172099
:10410000434302EB03001738FDF7FCFAC7E3C0B2E4
:10411000002840F0C483B5F902013200D2B205EBA9
:104120004202B2F97220904255DB01203200D2B235
:104130002A4482F862003200D2B2521CDFF81838EA
:104140002700FFB21720474303EB070020F80B2C92
:104150004FF41672DFF800382700FFB217204743EC
:1041600003EB070020F8092CC9B2DFF8EC27230085
:10417000DBB21720434302EB03001738FDF7C2FA06
:10418000DFF8D8270121002001F046FD3300DBB223
:104190002200D2B2DFF8C817DFF8C80701F076FBBB
:1041A000DFF8C0270121002001F036FD01F0CDFA33
:1041B000B5F904010190B5F902010090F6B233009F
:1041C0002200D2B2DFF8BC17DFF8A00701F040FBF5
:1041D00001F0C3FA63E33000C0B2284490F86200F3
:1041E000012859D1B5F902013200D2B205EB4202E1
:1041F000B2F9C22090424FDB3200D2B2521CDFF83B
:1042000058372700FFB21720474303EB070020F879
:104210000B2C4FF41672DFF840372700FFB217203F
:10422000474303EB070020F8092CC9B2DFF8282721
:104230002300DBB21720434302EB03001738FDF7DE
:1042400061FADFF818270121002001F0E5FC3300B6
:10425000DBB22200D2B2DFF81817DFF8080701F04E
:1042600015FBDFF800270121002001F0D5FC01F04B
:104270006CFAB5F904010190B5F902010090F6B2AB
:1042800033002200D2B2DFF80017DFF8E00601F0B9
:10429000DFFA01F062FA02E33000C0B205EB400041
:1042A000B0F9C200B5F90221904254DB002032007F
:1042B000D2B22A4482F862003200D2B2521CDFF835
:1042C00098362700FFB21720474303EB070020F87A
:1042D0000B2C0022DFF880362700FFB2172047435F
:1042E00003EB070020F8092CC9B2DFF86C26230085
:1042F000DBB21720434302EB03001738FDF702FA45
:10430000DFF858260121002001F086FC3300DBB2E3
:104310002200D2B2DFF86016DFF8480601F0B6FAE4
:10432000DFF840260121002001F076FC01F00DFAB3
:10433000B5F904010190B5F902010090F6B233001D
:104340002200D2B2DFF84416DFF8200601F080FA2E
:1043500001F003FAA3E20122DFF8FC35DFF82006C2
:1043600006781720464303EB060000F80C2CC9B270
:10437000DFF8E425DFF8080603781720434302EB53
:1043800003001738FDF7BEF989E23000C0B22844B7
:1043900090F82200012840F082823000C0B205EB84
:1043A0004000B0F992003300DBB205EB4303B3F9F0
:1043B000E230984200DA01221000C0B2012840F039
:1043C00037813000C0B205EB4000B0F99200B5F97A
:1043D0000421904255DB01203200D2B22A4482F8F7
:1043E00062003200D2B2521CDFF86C352700FFB2F7
:1043F0001720474303EB070020F80B2C4FF41672ED
:10440000DFF854352700FFB21720474303EB0700BE
:1044100020F8092CC9B2DFF840252300DBB21720B1
:10442000434302EB03001738FDF76CF9DFF82C2546
:104430000121002001F0F0FB3300DBB22200D2B2F8
:10444000DFF81C15DFF81C0501F020FADFF8142551
:104450000121002001F0E0FB01F077F9B5F904013A
:104460000190B5F902010090F6B233002200D2B2F9
:10447000DFF81C15DFF8F40401F0EAF901F06DF93A
:104480000DE23000C0B2284490F86200012859D1F2
:104490003000C0B205EB4000B0F9E200B5F90421EC
:1044A00090424FDB3200D2B2521CDFF8AC3427000E
:1044B000FFB21720474303EB070020F80B2C4FF403
:1044C0001672DFF894342700FFB21720474303EB3E
:1044D000070020F8092CC9B2DFF87C242300DBB2E6
:1044E0001720434302EB03001738FDF70BF9DFF801
:1044F0006C240121002001F08FFB3300DBB222008D
:10450000D2B2DFF86C14DFF85C0401F0BFF9DFF819
:1045100054240121002001F07FFB01F016F9B5F9C8
:1045200004010190B5F902010090F6B233002200B7
:10453000D2B2DFF8D41CDFF8340401F089F901F0BD
:104540000CF9ACE1B5F904013200D2B205EB42023C
:10455000B2F9E220904254DB00203200D2B22A4469
:1045600082F862003200D2B2521CDFF8EC3327002E
:10457000FFB21720474303EB070020F80B2C002263
:10458000DFF8D4332700FFB21720474303EB0700BF
:1045900020F8092CC9B2DFF8C0232300DBB21720B2
:1045A000434302EB03001738FDF7ACF8DFF8AC2308
:1045B0000121002001F030FB3300DBB22200D2B237
:1045C000DFF8B413DFF89C0301F060F9DFF89423FF
:1045D0000121002001F020FB01F0B7F8B5F904013A
:1045E0000190B5F902010090F6B233002200D2B278
:1045F000DFF8181CDFF8740301F02AF901F0ADF8B8
:104600004DE10122D44BDFF87803067817204643AA
:1046100003EB060000F80C2CC9B2CF4AD848037847
:104620001720434302EB03001738FDF76BF836E120
:10463000D2B2002A40F03381B5F904013200D2B27F
:1046400005EB4202B2F9922090424DDB012032008C
:10465000D2B22A4482F862003200D2B2521CBE4B5F
:104660002700FFB21720474303EB070020F80B2C6D
:104670004FF41672B84B2700FFB21720474303EBE5
:10468000070020F8092CC9B2B34A2300DBB2172077
:10469000434302EB03001738FDF734F8AF4A01211A
:1046A000002001F0B9FA3300DBB22200D2B2AC49EB
:1046B000AC4801F0EBF8AB4A0121002001F0ACFA64
:1046C00001F043F8B5F904010190B5F90201009039
:1046D000F6B233002200D2B2DFF8341BA34801F057
:1046E000B7F801F03AF8DAE03000C0B2284490F8A8
:1046F0006200012851D1B5F904013200D2B205EBB4
:104700004202B2F9E220904247DB3200D2B2521CA0
:10471000914B2700FFB21720474303EB070020F817
:104720000B2C4FF416728C4B2700FFB21720474317
:1047300003EB070020F8092CC9B2874A2300DBB23B
:104740001720434302EB03001738FCF7DBFF834AD3
:104750000121002001F060FA3300DBB22200D2B266
:104760008349804801F092F87E4A0121002001F03F
:1047700053FA00F0EAFFB5F904010190B5F902011E
:104780000090F6B233002200D2B2DFF8881A7748E0
:1047900001F05EF800F0E1FF81E03000C0B205EB0F
:1047A0004000B0F9E200B5F9042190424CDB002052
:1047B0003200D2B22A4482F862003200D2B2521CD5
:1047C000654B2700FFB21720474303EB070020F893
:1047D0000B2C0022604B2700FFB21720474303EB4E
:1047E000070020F8092CC9B25B4A2300DBB217206E
:1047F000434302EB03001738FCF784FF574A0121BB
:10480000002001F009FA3300DBB22200D2B25A498B
:10481000544801F03BF8534A0121002001F0FCF913
:1048200000F093FFB5F904010190B5F90201009081
:10483000F6B233002200D2B2DFF8DC194B4801F0A7
:1048400007F800F08AFF2AE00122434B4C48067823
:104850001720464303EB060000F80C2CC9B23E4A71
:10486000474803781720434302EB03001738FCF74F
:1048700049FF14E00122384B41480678172046438F
:1048800003EB060000F80C2CC9B2334A3C4803780D
:104890001720434302EB03001738FCF733FFDFF820
:1048A000300C2100C9B2084410F8010C401CDFF89C
:1048B000201C2200D2B2114401F8010CDFF8100CC8
:1048C0002100C9B2084410F8010C102807DB0020B1
:1048D000DFF8FC1B2200D2B2114401F8010C0020C9
:1048E00021E00021DFF8E82B2300DBB21A4402F8B4
:1048F000011C17E0DFF8D81B2200D2B2114411F8D6
:10490000011C1029EDDADFF8C81B2200D2B21144D5
:1049100011F8011C491CDFF8B82B2300DBB21A4444
:1049200002F8011C401C0100C9B210290BDADFF8A3
:10493000A01B2200D2B2114411F8011C294491F8A5
:1049400032100129D6D1F7BD6C9D0308BC9D030828
:104950000C9E03085C9E0308A0D20020DCCB030859
:1049600024D00308B0E2002078A703080C0200203E
:1049700034D00308ACA7030844D0030854A50308A7
:1049800052E500208CA50308C4A50308FCA5030874
:10499000E0A7030838B504000025FBF7C7FEDFF8E1
:1049A000340B0078411CDFF82C2B1170C0B20A28A0
:1049B000C0F228840020DFF81C1B0870DFF8180BF9
:1049C0000088411CDFF8102B1180DFF8101B0978DC
:1049D00089B280B2814280F0DB830020DFF8F81AD0
:1049E0000880002100E0491C0800C0B2DFF8F02A6E
:1049F000928880B290420CD2DFF8E82A0B00DBB23A
:104A00001720434302EB030040790128EBD10D004E
:104A10006D1CDFF8D40A0078002800F0B983DFF8B5
:104A2000CC0A0078002849D1DFF8C40A0078401C7D
:104A3000DFF8BC1A0870DFF8B80A0178DFF8A42A9A
:104A4000DFF8AC0A03781720434302EB030000F8B9
:104A50000E1C6421DFF88C2ADFF8940A03781720F3
:104A6000434302EB030000F80D1C2121DFF8742AF8
:104A7000DFF87C0A03781720434302EB030000F8B9
:104A80000C1C2100C9B2DFF85C2ADFF8640A037845
:104A90001720434302EB03001738FCF733FEDFF81F
:104AA000500A0078DFF8381A898880B28842C0F04E
:104AB0006F830120DFF8341A087069E32800C0B260
:104AC000002800F08F81DFF81C1A2A00D2B21720CC
:104AD000424301EB020010F80D0C282840F037810A
:104AE000DFF8001A2A00D2B21720424301EB02007D
:104AF00030F80B0C01283BD10121DFF8F8292B00FD
:104B0000DBB21820434302EB030000F8181CDFF867
:104B1000D009C18ADFF8DC292B00DBB2182043431F
:104B200002EB030020F8161CDFF8CC192A00D2B2E1
:104B30001720424301EB020030F8151C51F001012F
:104B4000DFF8B4292B00DBB21720434302EB03004C
:104B500020F8151C00F0F9FD2A00D2B2521EDFF831
:104B60009C19DFF89C0900F073FE00F0F6FDEEE002
:104B7000DFF870192A00D2B21720424301EB02007D
:104B800030F80B0C032823D10121DFF868292B0012
:104B9000DBB21820434302EB030000F8141C3C2155
:104BA000DFF850292B00DBB21820434302EB03004F
:104BB00020F8121C00F0C9FD2A00D2B2521EDFF804
:104BC0004419DFF83C0900F043FE00F0C6FDBEE0EA
:104BD000DFF810192A00D2B21720424301EB02007D
:104BE00030F80B0C042823D10121DFF808292B0011
:104BF000DBB21820434302EB030000F8101C3C21F9
:104C0000DFF8F0282B00DBB21820434302EB03004F
:104C100020F80E1C00F099FD2A00D2B2521EDFF8D7
:104C2000E818DFF8DC0800F013FE00F096FD8EE0D7
:104C3000DFF8B0182A00D2B21720424301EB02007D
:104C400030F80B0C062823D10121DFF8A8282B000F
:104C5000DBB21820434302EB030000F80C1C3C219C
:104C6000DFF890282B00DBB21820434302EB03004F
:104C700020F80A1C00F069FD2A00D2B2521EDFF8AB
:104C80008C18DFF87C0800F0E3FD00F066FD5EE0C4
:104C9000DFF850182A00D2B21720424301EB02007D
:104CA00030F80B0C072823D10121DFF848282B000E
:104CB000DBB21820434302EB030000F8081C3C2140
:104CC000DFF830282B00DBB21820434302EB03004F
:104CD00020F8061C00F039FD2A00D2B2521EDFF87F
:104CE0003018DFF81C0800F0B3FD00F036FD2EE0B0
:104CF000DFF8F0172A00D2B21720424301EB02007E
:104D000030F80B0C082822D10121DFF8E8272B000E
:104D1000DBB21820434302EB030000F8041C3C21E3
:104D2000DFF8D0272B00DBB21820434302EB03004F
:104D300020F8021C00F009FD2A00D2B2521EDFF852
:104D4000D417DFF8BC0700F083FD00F006FD00215A
:104D5000DFF890272B00DBB21720434302EB030060
:104D600000F8121C2100C9B2DFF878272B00DBB253
:104D70001720434302EB03001738FCF7C3FC012064
:104D8000DFF8941708702A00D2B2DFF89017DFF826
:104D9000900700F07BFDDFF888270121002000F05C
:104DA0003BFF00F0D2FC2800C0B20090DFF83417BF
:104DB0002A00D2B21720424301EB020010F80E3C49
:104DC000DFF82017EDB21720454301EB050010F87E
:104DD0000D2CDFF85017DFF8280700F039FD00F040
:104DE000BCFCD5E1DFF840070078002800F07F81A7
:104DF000DFF838070078401CDFF830170870DFF85C
:104E00002C070178DFF8DC26DFF82007037817206D
:104E1000434302EB030000F80E1CDFF8DC16DFF85A
:104E20000C0702781720424301EB020010F80D1C1A
:104E3000DFF8B026DFF8F40603781720434302EBCF
:104E4000030000F80D1C0121DFF89826DFF8DC06CE
:104E500003781720434302EB030000F80C1CDFF833
:104E60009816DFF8C80602781720424301EB0200CB
:104E700010F80D0C282840F0B5800321DFF86426D7
:104E8000DFF8A80603781720434302EB030000F87D
:104E90000C1CDFF89C06DFF894160978084410F81B
:104EA000010C012840F01181DFF88816DFF87C063C
:104EB00002786E20424301EB020010F8020C002839
:104EC0007DD0DFF87016DFF8640602786E2042436A
:104ED00001EB020010F8020C800709D50120DFF871
:104EE0005816DFF848261278114401F8010C5AE0F0
:104EF000DFF84016DFF8340602786E20424301EBFB
:104F0000020010F8020C400709D50220DFF828162D
:104F1000DFF818261278114401F8010C43E0DFF89D
:104F20001416DFF8080602786E20424301EB0200F7
:104F300010F8020C000709D50320DFF8FC15DFF894
:104F4000EC251278114401F8010C2CE0DFF8E4158F
:104F5000DFF8D80502786E20424301EB020010F81A
:104F6000020CC00609D50420DFF8CC15DFF8BC25FB
:104F70001278114401F8010C15E0DFF8B815DFF8DC
:104F8000AC0502786E20424301EB020010F8020CDF
:104F9000800608D50520DFF8A015DFF890251278E7
:104FA000114401F8010C0021DFF88825DFF87C05A9
:104FB00003786E20434302EB030000F8021CDFF885
:104FC0007415DFF8680502786E20424301EB020099
:104FD000B0F16E022100C9B2DFF850050078FCF78D
:104FE0009BFD72E0DFF81015DFF84005027817200E
:104FF000424301EB020010F80D0C0A283DD1DFF806
:105000003C15DFF8280502784FF48470424301EB29
:105010000200B0F58470007801281FD10421DFF868
:10502000C424DFF8080503781720434302EB03008C
:1050300000F80C1CDFF80415DFF8F00402784FF4D8
:105040008470424301EB0200B0F584722100C9B2C2
:10505000DFF8D8040078FEF777F836E02100C9B20F
:10506000DFF88024DFF8C40403781720434302EB01
:1050700003001738FCF746FB27E0DFF87C14DFF865
:10508000AC0402781720424301EB020010F80D0C2B
:105090001E280CD0DFF86014DFF890040278172087
:1050A000424301EB020010F80D0C14280DD1210031
:1050B000C9B2DFF83024DFF87404037817204343C3
:1050C00002EB03001738FCF71DFBDFF860040078E3
:1050D000DFF80C14898880B2884259D30020DFF8A9
:1050E000481408700020DFF84414087050E0DFF81E
:1050F0005004007800284BD0DFF830040078401CC2
:10510000DFF828140870DFF824040178DFF8D423CE
:10511000DFF8180403781720434302EB030000F87C
:105120000E1C6421DFF8BC23DFF80004037817208D
:10513000434302EB030000F80D1C2121DFF8A423F8
:10514000DFF8E80303781720434302EB030000F87D
:105150000C1C2100C9B2DFF88C23DFF8D0030378E0
:105160001720434302EB03001738FCF7CBFADFF8B4
:10517000BC030078DFF86813898880B2884207D3BF
:105180000020DFF8BC1308700020DFF8A0130870BF
:10519000DFF854030078002834D0DFF840030078AB
:1051A000DFF83C138988891C4843DFF898130860AE
:1051B000DFF894030088411CDFF88C23118080B253
:1051C000DFF88013096888421CD30020DFF87813C9
:1051D0000880DFF878030078401CDFF8701308704F
:1051E000DFF868030078142804DA0120DFF83813A8
:1051F000087007E00020DFF8541308700120DFF882
:105200004013087031BD000014A8030834A6030839
:1052100048A803086CA60308A4A6030838B505002F
:105220000024FCF7E3F8AB480078411CA94A117050
:10523000C0B20A28C0F24A810020A6490870A648D8
:105240000088411CA44A1180A449097889B280B21F
:10525000814280F0FE8000209F490880002100E00C
:10526000491C0800C0B29E4A928880B290420BD27C
:105270009C4A0B00DBB21720434302EB030040794A
:105280000128EDD10C00641C97480078002800F03C
:10529000E08096480078002831D195480078401C7D
:1052A00093490870924801788E4A914803781720F4
:1052B000434302EB030000F80E1C0021894A8C488E
:1052C00003781720434302EB030000F80C1C29006D
:1052D000C9B2844A864803781720434302EB03008F
:1052E0001738FCF73DFB824800787D49898880B2F9
:1052F0008842C0F0AE8001207C490870A9E02000FF
:10530000C0B2002836D00021764A2300DBB2172035
:10531000434302EB030000F8121C2900C9B2714A92
:105320002300DBB21720434302EB03001738FCF7DE
:1053300017FB0120784908702200D2B277497848DB
:1053400000F0A4FA764A0121002000F065FC00F08C
:10535000FCF92300DBB26349E4B21720444301EBBC
:10536000040010F80E2C7A49654800F071FA00F03C
:10537000F4F96EE06C480078002833D06B48007870
:10538000401C6A49087069480178564A67480378A2
:105390001720434302EB030000F80E1C0021514A82
:1053A000624803781720434302EB030000F80C1C0B
:1053B0002900C9B24B4A5D4803781720434302EBEA
:1053C00003001738FCF7CCFA58480078444989881C
:1053D00080B288423DD300205349087000205349D1
:1053E000087036E056480078002832D04F480078E0
:1053F000401C4E4908704D4801783A4A4B480378A2
:105400001720434302EB030000F80E1C0021354A2D
:10541000464803781720434302EB030000F80C1CB6
:105420002900C9B22F4A414803781720434302EBB1
:1054300003001738FCF794FA3C480078284989881B
:1054400080B2884205D300203D49087000203749CA
:10545000087025480078002838D02148C0880828DE
:1054600003D01F48C088092808D11C4800781C496F
:105470008988491D48433349086007E01748007888
:1054800017498988891C48432E4908602E4800889E
:10549000411C2D4A118080B22A490968884215D3DF
:1054A00000202949088029480078401C27490870B5
:1054B00026480078142803DA01201B49087005E00B
:1054C00000202249087001201D49087031BD0000EC
:1054D0009CE300204EE500200EE50020DE020020C7
:1054E00010DE0020A0D200202FE5002030E50020B3
:1054F0003AE5002090DC002030D10020ECC2030807
:105500000C02002008C3030824C3030840C3030897
:105510005CC3030878C3030835E5002054D00308B2
:10552000B0E200204CAF03084FE5002052E5002018
:1055300044E40020C0CD002048E40020F089002091
:1055400050E5002030E4002010E5002051E5002067
:10555000B4B803080EB4C0B5024603A800210190F8
:10556000009101AB0121044878440C3006F0C2F8E8
:1055700006BC5DF810FB00BF0972030062B38B0725
:1055800008D0521E11F8013B00F8013B00F02480C6
:105590008B07F6D1830740F0208000BF103A07D375
:1055A00030B4B1E83810103AA0E83810F9D230BC65
:1055B000530724BFB1E80810A0E8081044BF51F811
:1055C000043B40F8043BD20724BF31F8022B20F8FB
:1055D000022B44BF0B7803707047121F17D35B0078
:1055E00009D151F8043B20F8023B1B0C121F20F894
:1055F000023BF6D20BE051F8043B00F8013B1B0ADA
:1056000020F8023B1B0C121F00F8013BF3D238BFFD
:10561000121D521E24BF11F8013B00F8013BF8D8BF
:105620007047F0B40246106895681318506803EB91
:105630005004C00721D54D441FE0F0BC02F10C001E
:10564000704713F8017B05F8017B491EF9D1A0B121
:10565000B60813F8011B06F00306032E08BF13F863
:10566000016B01EB06214942801C294405D011F849
:10567000016B05F8016B401EF9D1A342DDD013F890
:10568000016B16F0030104BF13F8011BC91C30099C
:105690000F28DAD113F8010B0F30D6E762F30F228F
:1056A00062F31F42401810F0030308D0C91A1FD339
:1056B000DB0748BF00F8012D28BF20F8022D13009A
:1056C00030B414461546103928BF20E93C00FAD8FA
:1056D000490728BF20E90C0048BF40F8042D890085
:1056E00028BF20F8022D48BF00F8012D30BC7047BC
:1056F000C91818BF00F8012DCB0728BF00F8012DED
:1057000070470268531C036011707047704780B582
:1057100007F004F801BD3EB50C0011001A00069B0D
:105720000025029502AD019500930B0092B2010095
:10573000200006F0F1FE012801D1029800E00020CF
:105740003EBD80B506F0D1FF01BD80B507F03AFA45
:10575000012801D007F00AF801BD80B507F032FA40
:10576000012801D007F00AF801BD10B5040003229A
:105770000021012007F0F1FB20602068002805D0FF
:10578000002300220021206807F02CFC206800285C
:1057900005D00021206807F0DAFC012000E000209D
:1057A00010BD80B50168002902D0006807F068FDCF
:1057B00001BD80B5002300220021006807F012FC23
:1057C00001BD80B50021006807F0C1FC01BD80B5B6
:1057D00011F1010F05D15FF0FF31006807F0B7FC50
:1057E00002E0006807F0B3FC02BD80B50021009123
:1057F0006946006807F07DFC009802BD10B5040002
:10580000012007F0E2FB20602068002801D0012081
:1058100000E0002010BD80B55FF0FF31006807F0A8
:1058200096FC01BD80B5002300220021006807F02E
:10583000D9FB01BD80B507F012F802BD80B507F0B5
:10584000C6FD02BD80B5002801D007F0CCFD01BD2A
:105850000CB43EB5044606A801900D462046AFF3B1
:1058600000800021009101AB2A4621460648784479
:10587000163005F03FFF05462046AFF3008028466E
:1058800003B030BC5DF80CFBE16E03000CB430B526
:1058900083B0044606A802900A46002501940095AC
:1058A00002AB01A9084878441E3005F023FF019996
:1058B0000D7000284EBF04460198041B204603B01B
:1058C00030BC5DF80CFB00BF3BFEFFFF01E000BFFA
:1058D00000BF0100481E0029F9D1704710B504002F
:1058E00002E00B20FFF7F2FF2000441E0028F8D151
:1058F00010BDF8B502A8DFF8DC13D1E90023C0E938
:1059000000236846DFF8D013D1E90023C0E9002363
:105910000221102000F00AF802A9002000F0ECF9A2
:105920006946012000F0E8F905B000BD38B5050072
:105930000C0000F066F8DFF8A403FFF7CFFFDFF8F4
:10594000A003C470DFF8980305710020DFF89013FE
:1059500048710020DFF8881388710020DFF8801379
:105960004870E4B2022C07DBDFF87403407850F093
:105970000800DFF86C134870032000F09DF841F236
:105980009410FFF7ABFF032000F096F841F294105B
:10599000FFF7A4FF032000F08FF841F29410FFF707
:1059A0009DFF022000F088F86420FFF797FFDFF8E2
:1059B0003003407850F02000C0B200F056F8642068
:1059C000FFF78CFF0420DFF81813087000F072F95D
:1059D0006420FFF783FF00F03FF86420FFF77EFFAD
:1059E0000220DFF8FC128870DFF8F402807850F0B3
:1059F0000400C0B200F039F842F21070FFF76EFFF9
:105A000031BD80B500224FF48071DFF8D80207F075
:105A1000FEFD00228021DFF8CC0207F0F8FD002215
:105A20004FF48051DFF8BC0207F0F1FD00224FF483
:105A30008041DFF8B00207F0EAFD00224FF4004198
:105A4000DFF8A00207F0E3FD00224FF48061DFF8E9
:105A5000980207F0DCFD01BD80B5012000F005F8DB
:105A600040F6B830FFF73AFF01BD10B50400002240
:105A70004FF48071DFF86C0207F0C9FD2000C0B25E
:105A8000000900F019F814F00F04200000F014F8D9
:105A900010BD10B5040001224FF48071914807F049
:105AA000B6FD2000C0B2000900F006F814F00F04A3
:105AB000200000F001F810BD10B504002000C0B2B5
:105AC000000706D501224FF48061874807F09FFD4B
:105AD00005E000224FF48061834807F098FD200024
:105AE000C0B2400706D501224FF400417D4807F0BF
:105AF0008EFD05E000224FF400417A4807F087FD53
:105B00002000C0B2800706D501224FF480417548BD
:105B100007F07DFD05E000224FF48041714807F059
:105B200076FDE4B2E00706D501224FF480516D48BE
