:020000040800F2
:1000000080CA002015920308D5640308D76403084A
:10001000D9640308DB640308DD6403080000000002
:100020000000000000000000000000009D3A0208EF
:10003000DF64030800000000453A0208E164030899
:100040000D990308119903081599030819990308D4
:100050001D99030821990308259903082999030884
:100060002D99030831990308359903083999030834
:100070003D990308419903084599030849990308E4
:10008000F56403084D99030851990308559903082D
:10009000599903085D990308619903086599030854
:1000A000699903086D990308719903087599030804
:1000B000799903087D9903088199030885990308B4
:1000C000899903088D990308919903089599030864
:1000D000999903089D990308FF64030809650308BB
:1000E000A1990308A5990308A9990308AD990308E4
:1000F000B1990308B5990308B9990308BD99030894
:10010000C1990308C5990308C9990308CD99030843
:10011000D1990308D5990308D9990308DD990308F3
:10012000E199030813650308E5990308E9990308B1
:10013000ED9903089F2B0308F1990308F59903082B
:10014000F9990308FD990308019A0308059A030821
:10015000099A03080D9A0308119A03081D650308FC
:10016000159A0308199A03081D9A0308219A03088F
:10017000259A0308299A03082D9A03080000000015
:10018000319A0308359A0308399A03083D9A0308FF
:10019000419A0308459A0308499A03084D9A0308AF
:0C01A000519A0308559A0308599A030865
:10020000BFF34F8FDFF8C40C016811F4E061DFF831
:100210008C090143DFF8B40C0160BFF34F8F00BFBE
:10022000FDE780B5AAB000200090DFF874090068EF
:1002300050F08050DFF868190860DFF86409006842
:1002400010F080500090009800200090DFF85409D2
:10025000006850F44040DFF84C190860DFF84409AA
:10026000006810F4404000900098012006905FF470
:10027000A02007900020099002200C905FF48000DD
:100280000D9008200E904FF4B4700F900220109043
:100290000720119006A804F05BFA04F037FC0F2049
:1002A000019002200290002003904FF4A05004908F
:1002B0004FF480500590052101A804F071FC202026
:1002C0001E904FF4807028901EA804F0AFFD04200B
:1002D00012900120149012A804F03AFA002805D0D8
:1002E0004FF4CB71DFF8E80B04F084F904F020FD43
:1002F0004FF47A71B0FBF1F004F083FF042004F0B6
:1003000084FF00220F215FF0FF3004F064FF2BB068
:1003100000BD80B5DFF89008DFF89018086006206F
:10032000DFF88818486040F6C410DFF8801888604D
:10033000DFF8780804F08AFF002805D04FF4D87160
:10034000DFF88C0B04F056F901BD00002DE9F843ED
:1003500088461600089F099DDDF828900B9C04F044
:10036000BCFF3A00DFF86C1BDFF8440805F038F8F2
:1003700004F0BBFF04F0B1FFEDB22A00DFF8581B18
:10038000DFF82C0805F02CF804F0AFFF04F0A5FF0F
:100390004A46DFF8481BDFF8180805F021F804F09A
:1003A000A4FF04F09AFFA4B22200DFF8341BDFF8A8
:1003B000000805F015F804F098FF04F08EFF42469F
:1003C000DFF8201BDFF8E80705F00AF804F08DFFDE
:1003D00004F083FF3200DFF8101BDFF8D40704F0CD
:1003E000FFFF04F082FF0020300005F0D1FD040083
:1003F000002C0DD104F071FFDFF8F01ADFF8B00720
:1004000004F0EEFF04F071FF200005F070FEBCE385
:10041000200005F03EFE0500DFF8D41A404605F046
:1004200023FF002840F06E83DFF8C80A0078002818
:1004300007D00020DFF8BC1A0870200005F057FE36
:10044000A3E30021280005F0E7FDC5A105F00CFF9E
:1004500000280DD004F041FFDFF89C1ADFF85007A8
:1004600004F0BEFF04F041FF200005F040FE8CE3E5
:10047000BBA1280005F0B8FDDFF8801A05F0F4FEF6
:1004800000280FD100220021012001F0F3FA04F02E
:1004900024FFDFF86C1ADFF8180704F0A1FF04F05E
:1004A00024FF2FE3AEA1280005F09EFDDFF8541ACB
:1004B00005F0DAFE002840F0C181AAA1280005F06D
:1004C00099FD51EC100B05F031FF461E711CDFF851
:1004D000382A3300DBB21720434302EB030041729A
:1004E000DFF8281A280005F085FD51EC100B05F007
:1004F0001DFF0700DFF8181A280005F07BFD51ECFE
:10050000100B05F013FFDFF8002A3300DBB21721D0
:100510004B4302EB030188720221DFF8EC29330020
:10052000DBB21720434302EB0300C172DFF8D81996
:100530003200D2B21720424301EB0200807A0A282F
:100540000AD0DFF8C4193200D2B21720424301EBBF
:100550000200807A28283CD13800C0B2002838D068
:100560003900C9B2DFF8A0293300DBB217204343BA
:1005700002EB03008181DFF89C19280005F03AFDA9
:1005800053EC102B0020DFF8901905F0F1FE0BD191
:100590004FF6FF71DFF870293300DBB217204343B9
:1005A00002EB0300C18109E00021DFF85C29330080
:1005B000DBB21720434302EB0300C1810121DFF8C6
:1005C00048293300DBB21720434302EB030041719B
:1005D00026E13800C0B2002800F0C680DFF82819F4
:1005E0003200D2B21720424301EB0200807A1E286B
:1005F00048D1DFF82019280005F0FCFC53EC102B43
:100600000020DFF8141905F0B3FE18D13800C0B28D
:100610004100491EDFF8F0283300DBB217204343C6
:1006200002EB030081814FF6FF71DFF8DC28330015
:10063000DBB21720434302EB0300C18117E038000F
:10064000C0B280B24100DFF8C0283300DBB217200F
:10065000434302EB030081814FF6FF71DFF8A828C6
:100660003300DBB21720434302EB0300C1810121B9
:10067000DFF894283300DBB21720434302EB03007A
:100680004171CDE0DFF88C18280005F0B3FC53EC85
:10069000102B00205FF0804105F06AFE18D1380071
:1006A000C0B280B24100DFF860283300DBB217200F
:1006B000434302EB030081814FF6FF71DFF84828C6
:1006C0003300DBB21720434302EB0300C1813CE05F
:1006D000DFF84018280005F08DFC53EC102B0020AB
:1006E000DFF8341805F044FE18D13800C0B24100DC
:1006F000491EDFF814283300DBB21720434302EB16
:10070000030081814FF6FF71DFF8FC273300DBB275
:100710001720434302EB0300C18116E03800C0B24A
:1007200080B24100DFF8E0273300DBB217204343FB
:1007300002EB030081810021DFF8CC273300DBB21C
:100740001720434302EB0300C1810121DFF8B827E2
:100750003300DBB21720434302EB030041715FE03B
:10076000434D440041445200DFF89C173200D2B29E
:100770001720424301EB0200807A1E2850D1380036
:10078000C0B200284CD1DFF88C17280005F032FCED
:1007900053EC102B0020DFF8801705F0E9FD14D191
:1007A0003900C9B2DFF860273300DBB217204343BA
:1007B00002EB030081810421DFF84C273300DBB218
:1007C0001720434302EB0300C172DFF848172800EB
:1007D00005F010FC53EC102B0020002105F0C8FDA3
:1007E00014D13900C9B2DFF820273300DBB217205B
:1007F000434302EB030081810521DFF80C2733001E
:10080000DBB21720434302EB0300C1720121DFF882
:10081000F8263300DBB21720434302EB030041719B
:1008200004F05BFDFFB23B00F6B23200DFF8EC16DD
:10083000DF4804F0D5FD04F058FD63E1D4A12800A1
:1008400005F0D2FBDFF8D81605F00EFD00281FD109
:10085000D0A1280005F0CEFB51EC100B05F066FD91
:1008600006004FF4FA70DFF8BC1608600022310071
:10087000C9B2042001F0FEF804F02FFDF6B23200F8
:10088000DFF8A416CA4804F0ABFD04F02EFD39E1F0
:10089000BFA1280005F0A8FBDFF8901605F0E4FCE6
:1008A000002854D1DFF888060078002830D10120D4
:1008B000DFF87C160870B7A1280005F09BFB51EC0F
:1008C000100B05F033FDDFF868164870DFF84416AA
:1008D000280005F08FFB51EC100B05F027FDDFF829
:1008E00050164860DFF8F02A0021002005F0F6FEDF
:1008F000DFF83C064278DFF83C16DFF8E00A05F046
:1009000075FFDFF8D82A0021002005F0E7FE14E08B
:10091000DFF8C42A0021002005F0E0FEDFF8100611
:100920004278DFF8BC1ADFF8B40A05F05FFFDFF8A1
:10093000AC2A0021002005F0D1FE04F0CEFCDFF847
:10094000A41A9B4804F04CFD04F0CFFCDAE090A11F
:10095000280005F049FBDFF8901A05F085FC002817
:1009600054D1DFF8880A0078002830D10120DFF860
:100970007C1A087087A1280005F03CFB51EC100B95
:1009800005F0D4FCDFF8641A4870DFF888152800F9
:1009900005F030FB51EC100B05F0C8FCDFF84C1AE9
:1009A0004860DFF8342A0021002005F097FEDFF8C8
:1009B0003C0A4278DFF8381ADFF8200A05F016FF03
:1009C000DFF8182A0021002005F088FE14E0DFF887
:1009D000082A0021002005F081FEDFF8100A427885
:1009E000DFF8101ADFF8F40905F000FFDFF8EC2952
:1009F0000021002005F072FE04F06FFCDFF8F8190A
:100A00006B4804F0EDFC04F070FC7BE060A1280072
:100A100005F0EAFADFF8E41905F026FC002853D1C6
:100A2000DFF8DC09007800282FD10120DFF8D01989
:100A3000087058A1280005F0DDFA51EC100B05F004
:100A400075FCDFF8BC194870DFF8B819280005F00C
:100A5000CBFA020050A1DFF8B00905F0C7FEDFF8BD
:100A600078290021002005F039FEDFF8940942784A
:100A7000DFF89819DFF8640905F0B8FEDFF85C29A3
:100A80000021002005F02AFE14E0DFF84C290021A7
:100A9000002005F023FEDFF868094278DFF87019BE
:100AA000DFF8380905F0A2FEDFF830290021002028
:100AB00005F014FE04F011FCDFF858193C4804F06E
:100AC0008FFC04F012FC1DE031A1280005F08CFA27
:100AD000DFF8441905F0C8FB002813D12DA1280028
:100AE00005F088FA51EC100B05F020FCDFF82C190A
:100AF000087004F0F2FBDFF828192D4804F070FCB0
:100B000004F0F3FBDFF81C19404605F0ADFB0028AC
:100B100038D1DFF814090078002807D00020DFF86A
:100B200008190870200005F0E2FA2EE000212800E4
:100B300005F072FA16A105F097FB00280CD004F01E
:100B4000CCFBDFF8B4131A4804F04AFC04F0CDFBE8
:100B5000200005F0CCFA18E00DA1280005F044FAB9
:100B6000DFF8C81805F080FB00280BD1DFF8C008BB
:100B70000078002806D0DFF8B8080078401EDFF8BB
:100B8000B0180870200005F0B2FABDE8F18300004B
:100B9000434D440041445200257300000400FA050F
:100BA000403802400070004000300040E0C40020A7
:100BB0000C02002010B4002200220DE030231400AB
:100BC000E4B2035507E00B00D340DB07F6D5312331
:100BD0001400E4B20355521C1300DBB2102BF2DBFD
:100BE00010BC704710B4002200220DE03023140026
:100BF000E4B2035507E00B00D340DB07F6D5312301
:100C00001400E4B20355521C1300DBB2082BF2DBD4
:100C100010BC704770B40300002000201000C0B268
:100C200000283BD000250CE033202C00E4B21855FE
:100C300006E080B20028F7D130202C00E4B218552D
:100C40006D1C28001400C0B2E4B2A0421BD2080000
:100C500080B20326EDB26C00A6403040EDB26C00CD
:100C600020410400A4B2012C04D131202C00E4B2B4
:100C70001855E5E70400A4B2022CDAD132202C008A
:100C8000E4B21855DCE7082004E030210200D2B2BB
:100C90009954401C0100C9B21029F6DB70BC7047A2
:100CA00030B400230024D2B2002A62D0002204E033
:100CB00030241500EDB24455521C1400E4B2102C3F
:100CC000F6DB11F005021400A4B2012C04D131228C
:100CD0001C00E4B2025506E092B2042A03D132228B
:100CE0001C00E4B202559B1C11F050021400A4B287
:100CF000102C04D131221C00E4B2025506E092B25D
:100D0000402A03D132221C00E4B202559B1C11F48C
:100D1000A0621400A4B2B4F5807F04D131221C007B
:100D2000E4B2025507E092B2B2F5806F03D13222ED
:100D30001C00E4B202559B1C11F4805292B2B2F531
:100D4000805F03D131221C00E4B202555B1C11F418
:100D500040410A0092B2B2F5804F03D13121DBB29B
:100D6000C15406E089B2B1F5004F02D13221DBB2A5
:100D7000C15430BC704718B591B004F0AEFADFF83A
:100D8000B416DFF8B40604F02BFB04F0AEFA00232F
:100D900002AA4649002005F008FF010009B2002917
:100DA00001D000B27FE0DFF8940605F075FF07A8D8
:100DB00005F096FFDFF88806089007A9DFF87C06A3
:100DC00005F096FF0421DFF8740605F09CFF012171
:100DD000DFF8680605F09EFF4FF46161DFF85C06FE
:100DE00005F09FFFDFF85C16DFF8500605F0A0FF66
:100DF00000200190002000900723DFF84C26DFF848
:100E00004C16DFF8380605F0AAFF0120DFF8C81BF2
:100E1000087004F062FA002102A806F05BFB0200F1
:100E2000DFF82C16DFF8100604F0DAFA04F05DFAA9
:100E3000DFF820060078401CDFF818160870012340
:100E400040F25B7202A9DFF8F40505F0BBFF040075
:100E5000200000B2002818D1002301222449DFF825
:100E6000DC0506F0EBF80400200000B200280CD1ED
:100E700000230122DFF8AC15DFF8C00506F0DEF82C
:100E80000400200000B20028FFD1200000B200289A
:100E900003D0DFF8A80506F053F90120DFF8381B6E
:100EA0000870200000B212B010BD0000C48E03080C
:100EB00080B5DFF8281BDFF8280B06F027FB002899
:100EC00003D00120DFF81C1B087001BD0CED00E011
:100ED000046603085C93030868930308D48E030830
:100EE0001C810308E48E0308F48E0308A886030817
:100EF000ACC30020DB020020208A03088896030888
:100F00007493030890960308D8B3002098960308BA
:100F1000A0960308A89603080000F03F348A03084F
:100F2000B096030860C50020048F0308B896030834
:100F30002CC50020148F03082DE9F8438AB0060061
:100F40000F004FF47A710022DFF89C4A200006F06F
:100F5000F5FA04F0C2F9DFF8DC14DFF8DC0404F081
:100F60003FFA04F0C2F9002305AADFF8801A002036
:100F700005F01BFE0400200000B200280CD004F095
:100F8000ACF9DFF86C1ADFF8B00404F029FA04F0C9
:100F9000ACF9200000B217E20621012005F07AFC2E
:100FA0000400002C0BD104F098F9DFF8481ADFF8A0
:100FB000880404F015FA04F098F9C82004E204F05B
:100FC0008CF9002105A806F085FA0200DFF8281A3E
:100FD000DFF8640404F004FA04F087F9502205A94C
:100FE000200005F0D7FC0500280000B200280AD038
:100FF00004F073F9DFF8041ADFF83C0404F0F0F9A8
:1010000004F073F9D2E104F068F9DFF8F419DFF8BD
:10101000280404F0E5F904F068F93000C0B20028B3
:1010200011D1DFF8E00940890090DFF8D809038981
:10103000DFF8D0094288DFF8D019DFF8AC0905F0F5
:10104000D5FB049017E03000C0B2012813D138005E
:10105000C0B20190DFF8AC0940890090DFF8A40924
:101060000389DFF8A0094288DFF8A019DFF87809C2
:1010700005F0BCFB04900020DFF86819087004F04C
:101080002CF9DFF86429DFF88819DFF8AC0304F0E5
:10109000A7F904F02AF9002000900023049ADFF851
:1010A0004819200005F0AEFC0500280000B2002819
:1010B00040F07C8104F011F9DFF85819DFF878036B
:1010C00004F08EF904F011F941F20A00009004AB2B
:1010D00040F2E732DFF81019200005F0DAFC0500D5
:1010E000280000B200282BD1049800280DD0049AC3
:1010F000DFF8F418DFF8E888404606F053FA049861
:10110000DFF814190860FFF7D3FE0020DFF8D818C5
:10111000049A8854AEA1DFF8D00805F0A5F800289D
:10112000D2D1DFF8C0080078002815D104F0D5F836
:10113000DFF8E818C04804F053F904F0D6F835E1B8
:1011400004F0CBF82A0012B2DFF8D418BA4804F041
:1011500047F904F0CAF8E4E704F0BFF8DFF8C41870
:10116000B54804F03DF904F0C0F80020009004AB4D
:1011700040F2E732DFF87018200005F08AFC050025
:10118000280000B200280BD004F0A7F82A0012B201
:10119000DFF89418A84804F023F904F0A6F805E154
:1011A0000020DFF84418049A8854DFF88018DFF82C
:1011B000380806F0ABF900280BD004F08EF8DFF801
:1011C0002828DFF86C189C4804F00AF904F08DF820
:1011D000ECE03000C0B2012819D10120DFF854182A
:1011E0003A00D2B2114401F8010C0020DFF848188F
:1011F0003A00D2B2114401F8010C3800874909784D
:10120000C0B288420BD100208449087007E030004A
:10121000C0B2002803D10120DFF820180870300088
:10122000C0B200280ED1DFF81818DFF8BC0706F0AE
:101230006DF9020067A1DFF80C0805F0D7FA5FF03E
:10124000000822E03000C0B201280CD1DFF8F81706
:10125000DFF8940706F05AF902005EA1DFF8E40710
:1012600005F0C4FAEBE704F038F82A0012B2DFF810
:10127000DC17714804F0B4F804F037F896E040F257
:10128000E930804508D218F10108DFF8B80710F8F6
:1012900008007D28F3D1FFE718F1010840F2E9309A
:1012A00080450BD304F019F8DFF8A417624804F066
:1012B00097F804F01AF8280000B285E04FF47A712C
:1012C0000022DFF82497484606F038F9DFF8743733
:1012D0004246DFF88017DFF8100705F087FA002094
:1012E000DFF8040704F054FE80463000C0B2002846
:1012F00051D1DFF86427DFF86417404606F0B5F9EE
:10130000DFF85C170870002110E00120DFF82827C3
:101310000B00DBB2D0542822DFF848370E00F6B2BB
:101320001720464303EB06008272491C0800DFF8D1
:1013300030271278C0B29042E7D30022DFF81817A6
:10134000DFF8240706F0CEFC0022DFF81017DFF8E4
:10135000180706F07FFD03F0C0FFDFF8FC06807879
:101360000390DFF8F40640780290DFF8EC0600788E
:101370000190DFF8E80680780090DFF8E006437817
:10138000DFF8D806C278DFF8E4162B4804F028F816
:1013900003F0ABFF07E0F6B2012E04D13900C9B269
:1013A000404606F0B3F9404604F0A1FE200005F0E7
:1013B000D6FB03F092FFDFF8B8161F4804F010F8D0
:1013C00003F093FF280000B20BB0BDE8F0830000EB
:1013D0000D0A000025730000488A0308D4C30020CA
:1013E000248F0308348F03088093030834C500203A
:1013F0008C930308448F0308548F0308C096030896
:1014000068C30020C89603086AC30020648F0308DD
:10141000748F0308848F03089893030855C600202F
:101420005C8A030898C20020DC020020D0960308E2
:1014300070C60020407C03080C020020748200204B
:101440004D030008FCC30020D8960308948F0308BE
:10145000FC78030856C60020F0B5ADF53B7D0600CC
:101460000D004FF4FA7100223EAC200006F066F841
:10147000C82100220CAC200006F060F803F02DFF1C
:10148000DFF8101CDFF8100C03F0AAFF03F02DFFAB
:10149000002307AADFF85415002005F086FB04009E
:1014A000200000B200280CD003F017FFDFF8401531
:1014B000DFF8E40B03F094FF03F017FF200000B205
:1014C0003EE20621012005F0E5F90400002C0BD1D5
:1014D00003F003FFDFF81C15DFF8BC0B03F080FFFF
:1014E00003F003FFC8202BE203F0F7FE002107A85A
:1014F00005F0F0FF0200DFF80015DFF89C0B03F0A9
:101500006FFF03F0F2FE502207A9200005F042FA17
:101510000700380000B200280AD003F0DEFEDFF832
:10152000DC14DFF8740B03F05BFF03F0DEFEF9E17F
:101530002800C0B2002845D1DFF8601BDFF85C0B43
:1015400002783420424301EB0200418E4FF47A705E
:1015500041430491DFF8441BDFF8400B027834204C
:10156000424301EB0200018E4FF47A704143039134
:10157000DFF8281BDFF8240B02783420424301EB0C
:101580000200C18D4FF47A70414302910196DFF859
:10159000740440890090DFF86C040389DFF8640468
:1015A0004288DFF8FC1A3EA805F020F903F095FE0A
:1015B0003EAADFF8F01ADFF8E00A03F011FF03F0AB
:1015C00094FE3EE12800C0B2012816D1DFF8D80A07
:1015D000006806F011FECDE90201DFF8D00A0088AC
:1015E0000090DFF820044389DFF818040289DFF84F
:1015F000C01A3EA805F0FAF823E12800C0B203287B
:1016000040F09680DFF8FC0340880090DFF8F40398
:101610004389DFF8F0030289DFF8981A3EA805F045
:10162000E5F8DFF8941A3EA806F00AFEDFF88C1AF7
:1016300006F006FEDFF8641ADFF8600A027834204C
:10164000424301EB0200806906F0D6FDCDE90401BA
:10165000DFF8481ADFF8440A02783420424301EBED
:101660000200008A0290DFF8341ADFF8300A0278AC
:101670003420424301EB0200C06806F0BDFDCDE915
:101680000001DFF8181ADFF8140A02783420424308
:1016900001EB0200806806F0AFFD02000B00DFF8EE
:1016A000201A0CA805F0A2F80CA806F0D9FD02003B
:1016B0000CA93EA806F0EFFDC82100220CAF3800AF
:1016C00005F03CFFDFF8FC193EA806F0B9FD701CE0
:1016D0000190701C0090731C761C3200DFF8E81932
:1016E0000CA805F083F80CA806F0BAFD02000CA9BE
:1016F0003EA806F0D0FDDFF8D41906F0A1FDDFF812
:10170000D0193EA806F09CFDDFF8C81906F098FD38
:101710009AA13EA806F094FD03F0DFFD3EAADFF893
:10172000B819DFF8740903F05BFE03F0DEFD88E012
:101730002800C0B204284BD1F61E0196B14840895A
:101740000090B0480389AF484288DFF890193EA85E
:1017500005F04CF8DFF84419DFF84009027834202E
:10176000424301EB0200436ADFF83019DFF82C092D
:1017700002783420424301EB0200826ADFF86019EC
:101780000CA805F033F80CA806F06AFD02000CA9BD
:101790003EA806F080FDDFF8341906F051FDDFF8B1
:1017A00030193EA806F04CFDDFF8281906F048FD78
:1017B00072A13EA806F044FD03F08FFD3EAADFF8BB
:1017C000E41BDFF8D40803F00BFE03F08EFD38E0D5
:1017D0002800C0B2062834D1DFF8C018DFF8BC08F2
:1017E00002783420424301EB020040690290F61F68
:1017F0000196844840880090824843898148028944
:10180000DFF8A41B3EA804F0F1FFDFF8C0183EA8E3
:1018100006F016FDDFF8B81806F012FDDFF8B41870
:101820003EA806F00DFD55A106F00AFD03F055FD9A
:101830003EAADFF8781BDFF8600803F0D1FD03F063
:1018400054FD3EA806F00CFD0690002000900023F9
:10185000069A3EA9200005F0D5F80700380000B22E
:10186000002818D003F039FDDFF8441BDFF8280802
:1018700003F0B6FD03F039FDEDB22A00DFF8341BAA
:10188000DFF8340B04F0B2FFDFF82C2B002100202E
:1018900004F024FF46E003F020FDDFF8201BDFF812
:1018A000F80703F09DFD03F020FD41F20A000090CF
:1018B00006AB40F2F3123EA9200005F0EAF807005B
:1018C000380000B200283ED100203EA9069A885474
:1018D0002AA13EA804F0C8FC0028E6D103F0FDFCD4
:1018E000DFF8DC1ADFF8B00703F07AFD03F0FDFC47
:1018F0002A00D2B2DFF8CC1ADFF8BC0A04F076FF77
:10190000DFF8B42A0021002004F0E8FE03F0E5FC33
:10191000EDB22A00DFF8B01ADFF87C0703F060FDB3
:1019200003F0E3FC200005F01AF903F0D6FC50495F
:10193000DFF8640703F054FD03F0D7FC380000B271
:101940000DF53B7DF0BD2A00D2B2DFF8801ADFF83A
:10195000680A04F04BFFDFF8602A0021002004F041
:10196000BDFE03F0BAFC3EAADFF8641ADFF82807D0
:1019700003F036FD03F0B9FCB0E700000D0A0000EB
:101980000168DFF8502A91420FD1DFF84C1A09782C
:10199000DFF8482ADFF8483A1B78D154DFF8401ABC
:1019A0000978491CDFF8382A11700068DFF8341A0A
:1019B00088420FD1DFF8300A0078DFF8301ADFF8FC
:1019C000302A12788854DFF8280A0078401CDFF8A3
:1019D000201A0870704700004AC60020A48F030830
:1019E0007492002071C600205C9A0020B48F030816
:1019F0002079030838810308607C0308C086030847
:101A0000D886030848BF00200463030878610308F0
:101A100054810308807C03087CC5002044790308B6
:101A2000A07C0308708103088C810308708A030876
:101A3000A49303086CC5002064C500204FC6002095
:101A4000E0960308449E0020E8960308A881030856
:101A5000C07C0308F0960308C0C3002080C50020A6
:101A600050C6002068B20020F8C200209C73030812
:101A7000C4810308F8B50E001400DFF878194D781A
:101A80006D1C2900C9B2142900D10025DFF86419A2
:101A900009782A00D2B2914222D1DFF85C09C288CB
:101AA000DFF85819DFF8580904F0A0FEDFF85029D4
:101AB0000121002004F012FE03F00FFCDFF83809CA
:101AC000C288DFF84019DFF8D00503F089FC03F085
:101AD0000CFC40F6B83006F0F2FBFEF791FBD8E2C2
:101AE000DFF81029DFF80C194B7844214B4302EB47
:101AF00003014871DFF8FC18DFF8F8084278442049
:101B0000424301EB0200407901280AD103F0E5FBD2
:101B1000DFF8F418DFF8800503F062FC03F0E5FB62
:101B2000ADE2DFF8D018DFF8CC0842784420424319
:101B300001EB02004079022840F0C480DFF8B418BD
:101B4000DFF8B0084278442042431144DFF8BC2853
:101B50003300DBB21720434302EB0300407A0872E4
:101B6000DFF89018DFF88C08427844204243114493
:101B7000DFF898283300DBB21720434302EB030061
:101B8000807A4872DFF86C18DFF8680842784420E1
:101B900042431144DFF87828DFF870383700FFB28D
:101BA0001720474303EB0700437A1720434302EB18
:101BB000030030F80B0C8881DFF83818DFF83408A0
:101BC0004278442042431144DFF840283300DBB21E
:101BD0001720434302EB030080894881DFF8141883
:101BE000DFF8100842784420424301EB0200C4733E
:101BF00003F073FBDFF81C18DFF89C0403F0F0FB24
:101C000003F073FB03F069FBDFF800183200D2B277
:101C10001720424301EB0200427ADFF8FC17DFF89D
:101C2000780403F0DDFB03F060FB03F056FBDFF804
:101C3000DC173200D2B21720424301EB0200827A55
:101C4000DFF8D817DFF8500403F0CAFB03F04DFBB0
:101C500003F043FBDFF8B817DFF8B0273300DBB23F
:101C60001720434302EB0300427A1720424301EB63
:101C7000020030F80B2CDFF8A817DFF81C0403F083
:101C8000AFFB03F032FB03F028FBDFF88017F6B25E
:101C90001720464301EB06008289DFF88817DFF83A
:101CA000F80303F09DFB03F020FB03F016FBE4B206
:101CB0002200DFF87417DFF8E00303F091FB03F074
:101CC00014FBDCE1DFF82C17DFF82807427844200A
:101CD000424301EB02004079032840F0C680DFF860
:101CE0001417DFF8100742784420424301EB02004A
:101CF0000672DFF80017DFF8FC0642784420424302
:101D00001144DFF808273300DBB21720434302EB0E
:101D1000030010F80D0C4872DFF8D816DFF8D4066F
:101D20004278442042431144DFF8E0263300DBB21E
:101D30001720434302EB030010F8070C8873DFF809
:101D4000B416DFF8B0064278442042431144DFF86D
:101D5000BC263300DBB21720434302EB030030F80C
:101D60000B0C4881E4B2002C2AD003F0B6FADFF85D
:101D7000BC16C94803F034FB03F0B7FADFF8741659
:101D8000DFF8700642784420424301EB0200002154
:101D9000C182DFF86016DFF85C06427844204243D7
:101DA00001EB020000210183DFF84816DFF844064A
:101DB00042784420424301EB02000021418338E095
:101DC000DFF83016DFF82C064278442042431144F5
:101DD000DFF838263300DBB21720434302EB030061
:101DE00030F8060CC882DFF80C16DFF808064278D7
:101DF000442042431144DFF814263300DBB217209D
:101E0000434302EB030030F8040C0883DFF8E415C9
:101E1000DFF8E0054278442042431144DFF8EC2526
:101E20003300DBB21720434302EB030030F8020C0F
:101E30004883DFF8C015DFF8BC05427844204243F0
:101E40001144DFF8C825F6B21720464302EB06001E
:101E500010F8160C487403F040FADFF8D4158E48D9
:101E600003F0BEFA03F041FA09E1DFF88815DFF864
:101E7000840542784420424301EB02004079042863
:101E800040F09B80DFF86C15DFF86805427844204D
:101E9000424301EB02000672DFF85815DFF85405E3
:101EA0004278442042431144DFF860253300DBB21E
:101EB0001720434302EB030010F80D0C4872DFF8C3
:101EC0003415DFF830054278442042431144DFF8EE
:101ED0003C253300DBB21720434302EB030010F82C
:101EE000070C8873DFF80C15DFF8080542784420EA
:101EF00042431144DFF814253300DBB2172043437B
:101F000002EB030030F80B0C4881DFF8E814DFF82F
:101F1000E4044278442042431144DFF8F0243300C3
:101F2000DBB21720434302EB030030F8060CC882F3
:101F3000DFF8C014DFF8BC04427844204243114467
:101F4000DFF8C8243300DBB21720434302EB030061
:101F500030F8040C0883DFF89C14DFF8980442780A
:101F6000442042431144DFF8A4243300DBB217209D
:101F7000434302EB030030F8020C4883DFF874148B
:101F8000DFF870044278442042431144DFF87C2497
:101F90003300DBB21720434302EB030010F8160CAA
:101FA000487403F09AF9F6B23200DFF888143A4820
:101FB00003F016FA03F099F961E0DFF83814DFF85E
:101FC000340442784420424301EB02004079052862
:101FD00055D1DFF82014DFF81C0442784420424336
:101FE00001EB02000672DFF80C14DFF808044278F7
:101FF000442042431144DFF814243300DBB217209D
:10200000434302EB030010F80D0C4872DFF8E413B1
:10201000DFF8E0034278442042431144DFF8EC2328
:102020003300DBB21720434302EB030010F8130C1C
:10203000C874DFF8C013DFF8BC0342784420424381
:102040001144DFF8C823F6B21720464302EB06001E
:1020500010F8120C0875DFF89C13DFF8980342782B
:102060004420424301EB0200E4B2448103F035F91D
:10207000DFF8C413084803F0B3F903F036F9DFF8CA
:1020800074034570DFF8B4030078401CDFF8AC132C
:102090000870F1BD407C03080C02002060A90020FC
:1020A000385F0308E08103085CC50020D8020020E7
:1020B000006203083C680308F896030800970308C9
:1020C000F086030808970308C48F0308B093030839
:1020D000FC810308848A03081882030880680308C7
:1020E000988A030838B5DFF858235478641C220016
:1020F000D2B2142A00D10024DFF84423127823003E
:10210000DBB29A421BD1BC48C288BC49BC4804F02F
:102110006DFBBB4A0121002004F0E0FA03F0DDF87A
:10212000B548C288B749C74803F05AF903F0DDF84B
:1021300040F6B83006F0C3F8FEF762F831E1C04B64
:10214000BF4A55784422554303EB05025071BC4AFF
:10215000BB4843784420434302EB03004079022804
:1021600039D1B74AB64843784420434302EB0300D1
:102170000172B34AB24843784420434302EB030060
:10218000B14A0B00DBB232F81320A0F84220AC4A6F
:10219000AB4843784420434302EB0300AB4A0B00B7
:1021A000DBB232F81320A0F84420A54AA4484378B3
:1021B0004420434302EB0300A54AC9B232F8111090
:1021C000A0F8461003F089F8A2499E4803F008F9E8
:1021D00003F08BF8DEE09A49994842784420424364
:1021E00001EB02004079032853D195499448427885
:1021F000442042431144984A97480378342043438B
:1022000002EB0300407908728D498D4842784420E2
:1022100042431144904A904803783420434302EBF0
:10222000030080680862864985484278442042431A
:102230001144894A884803783420434302EB030061
:10224000C06848627E497E48427844204243114437
:10225000814A814803783420434302EB0300008A1B
:1022600008857749764842784420424311447A4AA7
:10227000794803783420434302EB03008069086304
:1022800003F02BF875496F4803F0AAF803F02DF816
:1022900080E06B496A4842784420424301EB0200E7
:1022A0004079042846D16649654842784420424333
:1022B0001144694A684803783420434302EB030021
:1022C000407908725E495E48427844204243114496
:1022D000614A614803783420434302EB0300806A7B
:1022E000C8635749564842784420424311445A4AE9
:1022F000594803783420434302EB0300006A8863A3
:102300004F494F484278442042431144524A524870
:1023100003783420434302EB030090F82C0081F84B
:10232000400002F0DAFF4E49464803F059F802F047
:10233000DCFF2FE04249424842784420424301EB0F
:1023400002004079052825D13D493D484278442086
:1023500042431144404A404803783420434302EB4F
:102360000300407908723649354842784420424398
:102370001144394A384803783420434302EB0300C0
:102380004069C86202F0A9FF35492E4803F028F8D9
:1023900002F0ABFF2A48447032480078401C3149B3
:1023A000087031BD34820308586603085082030860
:1023B00068790308AC8A0308D4C30020E07C0308D2
:1023C0006C820308D48A0308E88A0308C08A0308D9
:1023D000BC93030800440040A8B9002070BA002054
:1023E00063C600200014014050B7002018B8002038
:1023F0005EC60020CC87002048BF0020FC8A03086E
:10240000E8C30020108B0308C473030868B20020DF
:10241000D8B30020B06F0308088703088882030838
:10242000486D0308A4820308C8930308C082030808
:102430008C790308DC6F0308EC73030867C600207F
:10244000208D00200C0200200CC5002014C50020A7
:10245000B8C200201474030860A900203C7403086B
:10246000647403086AC6002078B599B000258EE030
:1024700002F033FF220012B2DFF8741CDFF8740C94
:1024800002F0AEFF02F031FF5FE002F026FFDFF85E
:10249000681CDFF8640C02784420424301EB020020
:1024A0004279DFF8581CDFF84C0C02F099FF02F07B
:1024B0001CFF02F012FFDFF8482CDFF8481CDFF8A1
:1024C000340C02F08DFF02F010FFDFF8340C05F041
:1024D000C7FE03000020029001200190012000901F
:1024E000DFF81C2CDFF81C1EDFF81C0E04F01FFDAB
:1024F0000400200000B20028BAD10020DFF80C1E32
:102500000870DFF8F40B0078401CDFF8EC1B087053
:10251000DFF8E40B0078142803DB0020DFF8D81B79
:10252000087002F0DAFEDFF8D00B0278DFF8E01D69
:10253000DFF8C00B02F054FF02F0D7FEDFF8D40D35
:102540000078401EDFF8CC1D087024B2002C0BD0A0
:10255000DFF8B40D04F0F4FD0020DFF8BC1D0860C6
:102560004FF4FA6002F0B5FEDFF8B00D0078401CC1
:10257000DFF8A81D0870DFF8A40D0078022803DB3F
:102580000020DFF8981D0870052002F0A2FEDFF899
:10259000880D0068002857D10120DFF87C1D0860F5
:1025A000FEF7E9FB00B2002834D00020DFF8681DF8
:1025B000086002F092FEDFF8600D0268DFF8A81DE7
:1025C000DFF8300B02F00CFF02F08FFE4FF4FA60E0
:1025D00005F075FEDFF8940D0078401CDFF88C1DC7
:1025E0000870DFF8880D00780628BDDB02F075FE64
:1025F000DFF8780D0278DFF8781DDFF8F80A02F0CE
:10260000EFFE02F072FE4FF4FA6005F058FEFDF79F
:10261000F7FDA9E70220DFF8001D08600120DFF8C0
:10262000541D08700120DFF8501D087002F055FE9F
:10263000DFF8E40C0268DFF8441DDFF8B80A02F0A6
:10264000CFFE02F052FE8FE76421DFF8BC0C04F0ED
:1026500086FD0100080000B200281CD009B2DC2968
:1026600019D0DFF8A40C04F06BFD0020DFF8A81CE3
:10267000086002F032FEDFF8A00C0268DFF8A01C50
:10268000DFF8700A02F0ACFE02F02FFE4FF4FA60A1
:1026900002F01FFE68E70024002005F0E6FEA842D5
:1026A00000D00500DFF8CC0C007801287FF44DAF96
:1026B000DFF8680C0078002840F0AC84DFF8C00C2C
:1026C000007800283FF441AFDFF8B80C007800280C
:1026D0007FF43BAF0120DFF8AC1C0870DFF8A81CCA
:1026E000DFF8A40C02784420424301EB0200407959
:1026F000002800F05784DFF8901CDFF88C0C02787B
:102700004420424301EB02004079062880F24A84CB
:102710004FF47A710022DFF8E849200004F00EFF40
:10272000DFF8641CDFF8600C02784420424301EBC0
:1027300002004079012814D1DFF8500C8088029003
:10274000DFF8780D00680190DFF8440C0090022358
:102750000222DFF8401CDFF8A80904F047F800F077
:1027600007BCDFF8241CDFF8200C02784420424329
:1027700001EB02004079022840F06281DFF8081C7A
:10278000DFF8040C02784420424301EB0200407A57
:102790001E2828D1DFF8F01BDFF8EC0B027844206C
:1027A000424301EB0200808900281CD10024DFF89D
:1027B000D81BDFF8D40B02784420424301EB02001F
:1027C000C07B142800D10126DFF8BC1BDFF8B80B52
:1027D00002784420424301EB0200C07B152840F000
:1027E0000F8100260CE102F078FDDFF89C1BDFF87A
:1027F000980B02784420424301EB0200808900904C
:102800000123DFF8841BDFF8800B02784420424369
:1028100001EB02008089401E8340DFF86C1BDFF86B
:10282000680B02784420424301EB02004289DFF842
:10283000901CDFF8C00802F0D3FD02F056FDDFF86F
:10284000481BDFF8440B02784420424301EB0200AE
:1028500046890121DFF8302BDFF82C0B0378442068
:10286000434302EB03008089401E81400E40DFF8A5
:10287000181BDFF8140B02784420424301EB0200DE
:10288000407A0A280BD0DFF8001BDFF8FC0A027838
:102890004420424301EB0200407A282810D1DFF89F
:1028A000E81ADFF8E40A02784420424301EB020010
:1028B0008489300080B2002800F0A28001269FE0C9
:1028C000DFF8C41ADFF8C00A02784420424301EB63
:1028D0000200407A1E284AD1DFF8AC1ADFF8A80AB5
:1028E00002784420424301EB02008089401C02210F
:1028F00090FBF1F4300080B2002800F0818002F0FB
:10290000ECFCDFF8841ADFF8800A027844204243A6
:1029100001EB02008389022093FBF0F100FB1133ED
:10292000DFF8641ADFF8600A02784420424301EBC2
:1029300002008289DFF88C1BDFF8B80702F050FD37
:1029400002F0D3FCDFF8401ADFF83C0A027844209A
:10295000424301EB02008089022190FBF1F201FB6E
:102960001200002801D001264AE0002648E0DFF8E6
:10297000181ADFF8140A02784420424301EB0200DF
:102980008089401C022190FBF1F4300080B20028C5
:1029900036D002F0A2FCDFF8F019DFF8EC0902787B
:1029A0004420424301EB02008389022093FBF0F1B3
:1029B00000FB1133DFF8D019DFF8CC09027844208E
:1029C000424301EB02008289DFF8FC1ADFF824079A
:1029D00002F006FD02F089FCDFF8AC19DFF8A80967
:1029E00002784420424301EB02008089022190FBDF
:1029F000F1F201FB1200002801D0012600E00226BE
:102A0000300080B20190A4B20094DFF87C19DFF8A6
:102A1000780902784420424301EB0200437ADFF850
:102A20006819DFF8640902784420424301EB020090
:102A3000027ADFF8981ADFF8C80603F0D7FE97E2AB
:102A4000DFF84419DFF8400902784420424301EBE3
:102A500002004079032840F0EA801421002208ACEB
:102A6000200004F06BFD1021002211AC200004F0C6
:102A700065FD102100220DAC200004F05FFDDFF8A1
:102A80000819DFF8040902784420424301EB0200F0
:102A9000407A0A280BD0DFF8F018DFF8EC0802784B
:102AA0004420424301EB0200407A28280DD1DFF890
:102AB000D818DFF8D40802784420424301EB020022
:102AC000418908A8FEF776F841E0DFF8BC18DFF886
:102AD000B80802784420424301EB0200407A1428EF
:102AE0000ED10822DFF8A018DFF89C0803784420F4
:102AF000434301EB0300418908A8FEF78BF826E069
:102B0000DFF88418DFF8800802784420424301EBA4
:102B10000200407A1E280ED10822DFF86C18DFF878
:102B2000680803784420434301EB0300418908A867
:102B3000FEF7B6F80BE0002005E0302108AA0300FC
:102B4000DBB2D154401C0100C9B21029F5DBDFF81B
:102B50003818DFF8340802784420424301EB0200C1
:102B6000817B11A8FEF73EF8DFF81C18DFF8180883
:102B700002784420424301EB0200407A002805D14C
:102B8000DFF8CC1B0DA803F031FE03E0C8A10DA8AF
:102B900003F02CFEDFF8F017DFF8EC070278442092
:102BA000424301EB0200407C06900DA80590DFF83F
:102BB000D817DFF8D40702784420424301EB020023
:102BC000408B0490DFF8C017DFF8BC070278442080
:102BD000424301EB0200008B0390DFF8AC17DFF8F3
:102BE000A80702784420424301EB0200C08A029009
:102BF00011A8019008A80090DFF88C17DFF888076B
:102C000002784420424301EB0200437ADFF8781750
:102C1000DFF8740702784420424301EB0200027A95
:102C2000DFF8301BDFF8D80403F0E0FDA0E1DFF8A7
:102C30005817DFF8540702784420424301EB0200A2
:102C40004079042840F0E9801421002208AC2000DB
:102C500004F074FC1021002211AC200004F06EFC82
:102C6000102100220DAC200004F068FCDFF81817DA
:102C7000DFF8140702784420424301EB0200407A57
:102C80000A280BD0DFF80017DFF8FC060278442092
:102C9000424301EB0200407A28280DD1DFF8E81604
:102CA000DFF8E40602784420424301EB0200418948
:102CB00008A8FDF77FFF41E0DFF8CC16DFF8C80673
:102CC00002784420424301EB0200407A14280ED1DE
:102CD0000822DFF8B416DFF8B00603784420434337
:102CE00001EB0300418908A8FDF794FF26E0DFF817
:102CF0009816DFF8940602784420424301EB020064
:102D0000407A1E280ED10822DFF87C16DFF87806FC
:102D100003784420434301EB0300418908A8FDF7F1
:102D2000BFFF0BE0002005E0302108AA0300DBB262
:102D3000D154401C0100C9B21029F5DBDFF8481658
:102D4000DFF8440602784420424301EB0200817B15
:102D500011A8FDF747FFDFF83016DFF82C060278E0
:102D60004420424301EB0200407A002805D1DFF8FD
:102D7000E0190DA803F03AFD03E04DA10DA803F002
:102D800035FDDFF80416DFF80006027844204243E0
:102D900001EB0200407C06900DA80590DFF8E815D5
:102DA000DFF8E40502784420424301EB0200408B47
:102DB0000490DFF8D415DFF8D005027844204243B0
:102DC00001EB0200008B0390DFF8BC15DFF8B805BB
:102DD00002784420424301EB0200C08A029011A80D
:102DE000019008A80090DFF8A015DFF89C05027894
:102DF0004420424301EB0200437ADFF88C15DFF8F0
:102E0000880502784420424301EB0200027ADFF891
:102E10004819BB4803F0EAFCAAE0DFF86C15DFF8BC
:102E2000680502784420424301EB020040790528FE
:102E300040F08C801021002215AC200004F07EFBB5
:102E4000DFF84415DFF8400502784420424301EBE7
:102E50000200807C00282DD0A3A115A803F0C6FC99
:102E6000DFF82415DFF8200502784420424301EB07
:102E70000200C17CDFF8E428DFF80C35DFF8080534
:102E800004784420444303EB0400037A17204343AF
:102E900002EB0300002200F8132CDFF8EC24DFF82B
:102EA000E80403784420434302EB0300867B2CE0D4
:102EB0004F4B00008DA115A803F098FCDFF8C81453
:102EC000DFF8C40402784420424301EB0200017D94
:102ED000DFF88828DFF8B034DFF8AC040478442049
:102EE000444303EB0400037A1720434302EB03003F
:102EF000002200F8122CDFF89024DFF88C0403780D
:102F00004420434302EB03004689300080B2029024
:102F100089B2019115A80090DFF86C14DFF86804FD
:102F200002784420424301EB0200437ADFF8581450
:102F3000DFF8540402784420424301EB0200027A95
:102F4000DFF81C186E4803F051FC11E002F0C5F9DF
:102F5000DFF83414DFF8300402784420424301EBF8
:102F6000020042796549634802F03AFA02F0BDF97D
:102F700002F0B3F9624A63495E4802F031FA02F0A6
:102F8000B4F95F4805F06CF900210291012101912B
:102F90000121009103005A4ADFF8C817DA4803F00C
:102FA000C6FF0400200000B2002827D10020DFF86F
:102FB000D4130870DFF8D0030078401CDFF8C81382
:102FC0000870DFF8C4030078142803DB0020DFF862
:102FD000B813087002F081F9DFF8AC030278CC492D
:102FE000444802F0FDF902F080F9DFF8940300781C
:102FF000401EDFF88C130870FFF7A7BA02F06DF9D6
:10300000220012B23A493B4802F0EAF902F06DF9A7
:10301000FFF79BBAC148007801287FF496AABD4803
:10302000007800283FF491AAB848007800287FF47F
:103030008CAA0120B54908702F492F4802784420F6
:10304000424301EB0200407900283FF452AA2A498A
:10305000294802784420424301EB020040790628C7
:10306000BFF647AA4FF47A710022254C200004F0E5
:1030700065FA2149204802784420424301EB0200CE
:103080004079012840D1DFF834040368DFF8D8061E
:103090000288DFF8D8161A4803F0A8FBDFF8D0063C
:1030A0000078401CDFF8C8160870DFF8C406007806
:1030B00005280BDB02F011F9DFF8B4060278DFF81F
:1030C000B4160C4802F08CF902F00FF9DFF8A006F4
:1030D00000780628FFF6EDA94FF4FA6005F0EFF846
:1030E000FDF78EF8FFF7E5B9494E00004F55540043
:1030F000688703080C020020208D00203887030811
:1031000074960020248B0308DFF86C16DFF868063D
:1031100002784420424301EB02004079032847D162
:10312000DFF85416DFF8500602784420424301EBE2
:103130000200006B05F060F8CDE90601DFF83816F3
:10314000DFF8340602784420424301EB0200008D90
:103150000490DFF82416DFF820060278442042436A
:1031600001EB0200406A05F047F8CDE90201DFF803
:103170000816DFF8040602784420424301EB0200FF
:10318000006A05F039F8CDE90001DFF8EC15DFF849
:10319000E80502784420424301EB0200027A521C07
:1031A000DFF8D815DFF8400D03F020FBFFF781B9F9
:1031B000DFF8C415DFF8C00502784420424301EB74
:1031C00002004079042833D1DFF8AC15DFF8A805F8
:1031D00002784420424301EB020090F84000019045
:1031E000DFF89415DFF8900502784420424301EBA4
:1031F0000200C06B0090DFF88015DFF87C050278D4
:103200004420424301EB0200836BDFF86C15DFF8CA
:10321000680502784420424301EB0200027A521C06
:10322000DFF85C15DFF8C00C03F0E0FAFFF741B9F6
:10323000DFF84415DFF8400502784420424301EBF3
:103240000200407905281CD1DFF82C15DFF828058D
:1032500002784420424301EB0200C36ADFF81815EC
:10326000DFF8140502784420424301EB0200027AA1
:10327000521CDFF81015DFF8700C03F0B7FAFFF7F7
:1032800018B94149404802784420424301EB02000A
:10329000407902287FF4F9A83B493B480278442052
:1032A000424301EB0200B0F844000390364936482F
:1032B00002784420424301EB0200B0F84200029041
:1032C0003149314802784420424301EB0200B0F812
:1032D000460001902C492C4802784420424301EBDF
:1032E0000200007A401C0090DFF89C0403887348B9
:1032F0000268DFF89814DFF8F00B03F077FAFFF7B5
:10330000D8B8000098C200207482002069C600204E
:10331000508703086AC6002054C5002059C6002003
:103320008C74030880B5002005F042F8DFF8BC0B70
:103330000078002806D100220421DFF8B40B05F044
:10334000B6F90CE0DFF8A40B0078401EDFF89C1BF8
:10335000087001220421DFF8980B05F0A8F9642019
:1033600001F0B7FFDFE700000870030868C600201F
:10337000007D03084BC6002057C60020DC820308EE
:1033800067C6002066C60020CC87002048BF00200A
:10339000D8C200206C64030880B556E0DFF8540BF7
:1033A000C088012804D0DFF84C0BC088022848D11F
:1033B000DFF8440B0078401CDFF83C1B0870DFF896
:1033C000380B007805283CDBDFF88C0C00780028EF
:1033D00003D101210020FDF7AFFD0020DFF8181B0D
:1033E00008702EE0DFF8140BDFF8141B097808448E
:1033F00010F8010C01280CD1DFF8040B0178012032
:10340000FDF79AFDDFF8F80A0078401CDFF8F01AA3
:103410000870DFF8F00A0078DFF8E41A09788842CB
:1034200003D20120DFF8D81A08700020DFF8C81A8C
:103430000870DFF8D40A007850F00400DFF8C81AEA
:1034400008704FF47A7001F044FFDFF8C00A00689A
:103450000228F6D1DFF89C0AC088062804D0DFF8DD
:10346000940AC088072899D1DFF88C0A0078401C9C
:10347000DFF8841A0870DFF8980A007800280ED068
:10348000DFF8D40B0078002809D00020DFF8681A94
:103490000870DFF87C0A01780120FDF74DFDDFF8A8
:1034A000580A00780528C4DBDFF8AC0B0078002848
:1034B00098D101210020FDF73FFDB6E768C5002047
:1034C0002087030854670308086B0308C4680308CF
:1034D00080B548E0DFF8300A007810F003000328D8
:1034E0003ED10020DFF8201A08704AF6AA20DFF843
:1034F0006C1B0968086033E0DFF8640B0078002873
:1035000013D0DFF8600B007800280ED10120DFF81F
:10351000541B08700020DFF84C1B0870DFF8400BCC
:103520000078401EDFF8381B0870DFF8C809C08833
:10353000072804D0DFF8BC09C0880628CAD1DFF804
:10354000C809007810F00700072809D10020DFF82B
:10355000B81908704AF6AA20DFF8001B096808604D
:10356000642001F0B6FEDFF8000B00780028C3D01D
:10357000DFF8F00A00780028BED1DFF8EC0A027804
:10358000DFF8E81ADFF8E80A03F030F9DFF8E02A9C
:103590000021002003F0A2F80120DFF8C81A08700B
:1035A000DFF8D01ADFF8CC0A02783420424301EB6E
:1035B00002000079012840F09580DFF8B81ADFF8A2
:1035C000B40A02783420424301EB02004079042817
:1035D00021DADFF8A01ADFF89C0A0278342042438F
:1035E00001EB020090F8340001280CD10321DFF830
:1035F000842ADFF8800A03783420434302EB030077
:103600004079FDF729FF0022DFF8680A01780320DE
:10361000FEF768FD7FE0DFF85C1ADFF8580A0278F1
:103620003420424301EB0200407908282CDADFF80D
:10363000441ADFF8400A02783420424301EB0200CA
:1036400090F83400012817D10421DFF8282ADFF888
:10365000240A03783420434302EB03004079FDF74A
:10366000FBFE0021DFF80C2ADFF8080A037834207B
:10367000434302EB030041620022DFF8F8090178BE
:103680000420FEF72FFD46E0DFF8E819DFF8E40933
:1036900002783420424301EB0200407910283ADAE4
:1036A000DFF8D019DFF8CC0902783420424301EB6F
:1036B000020090F8340001280CD10621DFF8B4296B
:1036C000DFF8B00903783420434302EB030040796C
:1036D000FDF7C2FE0022DFF89C0901780520FEF705
:1036E00001FD18E0DFF88C19DFF888090278342032
:1036F000424301EB0200007900280CD10021DFF8E1
:103700007429DFF8700943783420434302EB030047
:103710004079FDF7A1FE0020DFF848190870DFF8B6
:1037200054090078401CDFF84C190870DFF8440990
:1037300000780A2803DB0020DFF838190870DFF86A
:1037400028090078401EDFF820190870EDE6000017
:10375000D493030864600308D45F030868B20020B0
:10376000A4670308ACC30020D8020020B474030887
:1037700070C6002034700308208D0020F067030815
:10378000446B0308B079030832C60020AC65030817
:1037900038B57CE00020DFF8E0180870DFF8DC08BE
:1037A0000088DFF8DC180988491C884216DBDFF83E
:1037B000CC080088DFF8C8180880DFF8C80800685F
:1037C000401CDFF8C0180860DFF8400700680228D6
:1037D00004D1002200210120FEF784FCDFF89C08C0
:1037E0000088DFF8A41809883C31884219DBDFF82B
:1037F0008C080088DFF89018088004210122DFF887
:103800008C48200003F09AFE01F067FDDFF8700895
:103810000288DFF87C18DFF87C0801F0E1FD01F098
:1038200064FDDFF874080078002809D0DFF86C2800
:103830000021002002F052FF0020DFF85C18087021
:103840000020DFF85C180870DFF8580800680028CE
:1038500012D0DFF850080068401EDFF848180860F2
:10386000DFF840080068002806D110210022DFF8A8
:103870003848200003F062FEDFF88C06007850F034
:103880000200DFF8841608700A2001F022FD04F01F
:103890003EFF05F020F8DFF814080078411CDFF83F
:1038A0000C281170C0B21328C0F21F820020DFF86C
:1038B000FC170870DFF8F8070088411CDFF8F027D4
:1038C000118080B20528C0F254810020DFF8E01793
:1038D0000880DFF8E0070088401CDFF8D817088070
:1038E000DFF81006C088062805D0DFF80806C08873
:1038F000072840F03E8100213EE00022DFF8B83783
:103900000C00E4B21820444303EB0400027532E0DB
:103910000022DFF8A4370C00E4B21820444303EB84
:1039200004000274DFF890270B00DBB21820434339
:1039300002EB0300007D00281DD0DFF87C270B0080
:10394000DBB21820434302EB0300C08A0028D4D026
:10395000DFF864270B00DBB21820434302EB0300BF
:10396000C08A421EDFF850370C00E4B218204443EE
:1039700003EB0400C282491C0800C0B2042880F294
:10398000F880DFF834270B00DBB218204343D05C0B
:10399000002826D0DFF820270B00DBB21820434395
:1039A00002EB03004088002813D0DFF80C270B003F
:1039B000DBB21820434302EB03004088421EDFF8CD
:1039C000F8360C00E4B21820444303EB04004280B4
:1039D00007E00022DFF8E0360C00E4B21820444390
:1039E0001A55DFF8D4260B00DBB21820434302EB54
:1039F00003000079002828D0DFF8BC260B00DBB2DA
:103A00001820434302EB0300C088002813D0DFF8DE
:103A1000A8260B00DBB21820434302EB0300C0884A
:103A2000421EDFF894360C00E4B21820444303EB46
:103A30000400C28009E00022DFF87C360C00E4B20A
:103A40001820444303EB04000271DFF86C260B00DE
:103A5000DBB21820434302EB0300007A002828D091
:103A6000DFF854260B00DBB21820434302EB0300BF
:103A70004089002813D0DFF840260B00DBB2182065
:103A8000434302EB03004089421EDFF82C360C0052
:103A9000E4B21820444303EB0400428109E0002211
:103AA000DFF814360C00E4B21820444303EB0400A2
:103AB0000272DFF804260B00DBB21820434302EB4E
:103AC0000300007B002828D0DFF8EC250B00DBB2D8
:103AD0001820434302EB0300C089002813D0DFF80D
:103AE000D8250B00DBB21820434302EB0300C0894A
:103AF000421EDFF8C4350C00E4B21820444303EB47
:103B00000400C28109E00022DFF8AC350C00E4B209
:103B10001820444303EB04000273DFF89C250B00DC
:103B2000DBB21820434302EB0300007C00283FF483
:103B3000F9AEDFF884250B00DBB21820434302EB1B
:103B40000300408A00283FF4E3AEDFF86C250B0049
:103B5000DBB21820434302EB0300408A421EDFF829
:103B600058350C00E4B21820444303EB04004282B1
:103B7000D8E6DFF8400500883C2803DB0020DFF8AA
:103B800034150880DFF86C03C088012805D0DFF801
:103B90006403C088022840F0A8800022DFF8441A9D
:103BA000DFF8440A04F025F90022DFF8401ADFF8B4
:103BB000380A04F0C8F9DFF82C0A01783C22DFF853
:103BC000240A407802FB0101DFF8B0040180DFF82D
:103BD000AC04008800282ED1DFF8140A00780028F1
:103BE0002DD10120DFF8081A08700020DFF89014AA
:103BF00008800020DFF890140880C448006802287C
:103C000004D1002200210120FEF76CFA04210122D8
:103C1000DFF87844200003F091FC01F05EFBDFF850
:103C20005C040288DFF8E419DFF8680401F0D8FBCF
:103C300001F05BFB03E00020DFF8B4190870DFF847
:103C40003C04008840F2D12188420CDBDFF8C00937
:103C50000078002807D10120DFF8B419087000208F
:103C6000DFF8F4130870DFF814040088DFF810148C
:103C70000988491C884215DBDFF800040088DFF85A
:103C800000140880DFF8FC030068401CDFF8F41320
:103C900008609E480068022804D10022002101200B
:103CA000FEF720FADFF8D4030088DFF8DC13098878
:103CB0003C31884219DBDFF8C4030088DFF8C81301
:103CC000088004210122DFF8C443200003F036FC01
:103CD00001F003FBDFF8A8030288DFF8B413DFF874
:103CE000B40301F07DFB01F000FB8248C088062888
:103CF00004D08048C08807287FF4A6ADDFF8A00371
:103D00000078401CDFF898130870DFF894030078FF
:103D10003228FFF699ADDFF8FC08007800280BD0B8
:103D2000DFF8F0080078401EDFF8E818087001207E
:103D3000DFF86413087083E50022DFF8A818DFF8C5
:103D4000A80804F056F80022DFF8A018DFF8980859
:103D500004F0F9F8DFF88C0801783C22DFF88408D9
:103D6000407802FB0101C5480180DFF878088078BF
:103D70000090DFF870084378DFF868080278DFF811
:103D80009818BB4802F032FDB94A0021002002F029
:103D9000A5FCBA480088022855DADFF880080078C8
:103DA000002854D101F099FAB4480288DFF870185D
:103DB000B84801F015FB01F098FA0020DFF8501820
:103DC00008700020DFF85C1808800020AC490880EB
:103DD0000020AD49088000241BE014210122DFF8F7
:103DE00048382500EDB26C2045431D44280003F0FF
:103DF000A5FB012041492200D2B288542821DFF8D6
:103E00002C282300DBB21720434302EB030081720E
:103E1000641C20003B490978C0B28842DDD30120F0
:103E2000DFF8F817087039480068022804D100222A
:103E300000210120FEF756F904210122934C2000B5
:103E400003F07CFB03E00020DFF8D01708708B48FC
:103E5000008840F2D12188420BDBDFF8B4070078FC
:103E6000002806D10120DFF8A817087000207A4941
:103E7000087082480088DFF8AC1709880A31884248
:103E8000FFF688AC7C48007800287FF487AC0120DE
:103E90007949087079480088DFF88817088001F0B0
:103EA0001CFA76480288DFF888177A4801F098FAF9
:103EB00001F01BFA00210800124A1278C0B29042A9
:103EC000BFF46CAC01200D4A0B00DBB2D0542822A9
:103ED000DFF858370C00E4B21720444303EB04002A
:103EE0008272491CE7E70000749600205DC600203E
:103EF000000C024048BF00205AC6002064C50020C4
:103F0000DD02002050C600205BC6002054C5002002
:103F100055C6002080B51FE0DFF81807007800289C
:103F2000FAD1DFF814070078401CDFF80C1708708E
:103F3000DFF804070078022803DB0020DFF8F8161A
:103F40000870DFF8F806007850F00100DFF8EC1692
:103F50000870012001F0BDF9DFF8E406C0880128EF
:103F60000AD0D9D3032829D017D3052844D032D377
:103F700007285FD04DD3CFE7DFF8BC0600780028D4
:103F800003D1002007F054FC06E0DFF8AC0600780F
:103F9000012801D108F0FAFCBEE7DFF89C060078A2
:103FA000002803D1012007F043FC06E0DFF8880673
:103FB0000078012801D108F0E9FCADE7DFF87806C8
:103FC0000078002806D0DFF870060078012801D1BB
:103FD00008F0DCFCA0E7DFF860060078002803D1D9
:103FE000012007F025FC06E0DFF84C0600780128E8
:103FF00001D108F0CBFC8FE7DFF83C060078002801
:1040000006D0DFF834060078012801D108F0BEFCA4
:1040100082E7DFF824060078002803D1002007F0AB
:1040200007FC06E0DFF810060078012801D108F04F
:10403000ADFC71E7DFF800060078002803D101200D
:1040400007F0F6FB06E0DFF8F0050078012801D163
:1040500008F09CFC60E700004FC60020E0C4002090
:104060004EC600204CC600204DC60020388B0308E9
:10407000D4C3002060A9002051C6002028C600201B
:104080002CC6002068C5002026C600208C00002019
:10409000786B03080C0200206EC60020488A0308D3
:1040A0006CC6002060C50020C4C400206BC6002080
:1040B00030C600202EC60020C8BD00201FB509F064
:1040C0000DF9FCF7AEF801F0E9F85FF4E13009F022
:1040D00027F901F002F99FA1DFF8680501F080F9E6
:1040E00001F003F901F0F9F8DFF85C15DFF8540589
:1040F00001F076F901F0F9F801F0EFF8022302225D
:10410000DFF84815DFF83C0501F06AF901F0EDF839
:1041100001F0E3F8DFF83015DFF8280501F060F969
:1041200001F0E3F801F0D9F8DFF82415DFF8140501
:1041300001F056F901F0D9F801F0CFF8DFF81435A5
:10414000DFF81425DFF81415DFF8F80401F048F95A
:1041500001F0CBF801F0C1F8DFF80415DFF8E40452
:1041600001F03EF901F0C1F801F0B7F879A1DFF8EC
:10417000D40401F035F901F0B8F8002004F0ACF8EF
:10418000012004F0A9F8022004F0A6F8002004F0B1
:1041900001F9012004F0FEF8022004F0FBF80021F0
:1041A000002004F012F900200090DFF8B804006845
:1041B00050F04000DFF8AC140860DFF8A804006895
:1041C00010F0400000900098DFF89C04DFF89C1489
:1041D0000860DFF8980409F04DF900241BE001A9FC
:1041E000DFF8880409F069F90198DFF884140855AC
:1041F0000198000ADFF87814214448700198000CF7
:10420000DFF86C14214488700198000EDFF8601408
:104210002144C870241D202CE1D309F081F909F054
:1042200039FA09F067FA09F089FA09F079FBFCF725
:1042300070F800220121DFF83C0404F038FADFF8BE
:104240003804006880000AD5022004F095F8DFF8F1
:104250002804006850F08070DFF81C14086009F032
:10426000F7FB09F075FC02F0A6F80122DFF80C1448
:10427000DFF80C0409F08CFD0122DFF80814DFF8E8
:10428000080409F085FDDFF8B8034088DFF8FC1367
:104290000880DFF8F8030288DFF8F413DFF8F4038E
:1042A00002F0A4FADFF8E4030288DFF8EC13DFF889
:1042B000EC0302F09BFA14210022DFF8E443200013
:1042C00003F03CF9DFF8C4030288DFF8D813DFF805
:1042D000D00302F08BFA01F000F8DFF8C423DFF816
:1042E000C813DFF8600301F07BF800F0FEFF1E2129
:1042F0000022DFF8B843200003F020F9DFF88C0338
:104300000388642093FBF0F100FB1133DFF87C039A
:104310000088642190FBF1F2DFF89413DFF88C033E
:1043200002F064FA00F0D9FFDFF88023DFF884138D
:10433000C44801F055F800F0D8FFC148C0880128F2
:1043400003D0BF48C088062806D11E20DFF86813B6
:10435000087005E00D0A00001420DFF85C130870F7
:1043600002230222DFF85413DFF8540302F03EFA6E
:10437000DFF84C230021002002F0B0F9B048C388D8
:10438000C2480288DFF83C13DFF83C0302F02EFA43
:10439000DFF834230121002002F0A0F94FF47A70F5
:1043A00003F08DFF01220121B24804F080F94FF49F
:1043B0007A7003F084FF4CF6CC40C4490968086069
:1043C000C3480AF091F800B2002807D000F085FF3A
:1043D000C0499C4801F004F800F087FF2022A4495E
:1043E000BB480AF09CF800B2002807D000F075FF27
:1043F000B949944800F0F4FF00F077FF0AF0D4F8D0
:1044000000B2002807D000F068FFB4498D4800F0E2
:10441000E7FF00F06AFFB24CB24920000AF095F9BC
:10442000B14920000AF0AAF9B04920000AF0BFF90A
:10443000AF4920000AF0CFF902A99C480AF0C5FE56
:1044400002A920000AF063F920000AF0D8F900B2AE
:10445000002809D000F041FF14F11002A549794865
:1044600000F0BEFF00F041FFA3480AF019FFA24888
:1044700004600020A04948619F49A0480AF026FF37
:1044800000B2002807D000F028FF9D496D4800F0D9
:10449000A7FF00F02AFF99480AF066FF00B2002843
:1044A00007D000F01AFF9749664800F099FF00F026
:1044B0001CFF95480BF062FE9348046092499348B4
:1044C0000BF068FE00B2002807D000F006FF90490C
:1044D0005C4800F085FF00F008FF8C480BF083FE7D
:1044E00000B2002807D000F0F8FE8A49554800F0D5
:1044F00077FF00F0FAFE0120009040F6B83300226A
:104500008549864800F0CFFE002807D100F0E5FE7F
:1045100083494C4800F064FF00F0E7FE0120009062
:104520004FF4FA7300227F497F4800F0BCFE002858
:1045300007D100F0D2FE7A49424800F051FF00F066
:10454000D4FE022000904FF47A7300227749784815
:1045500000F0A9FE002807D100F0BFFE70493948DD
:1045600000F03EFF00F0C1FE012000904FF47A738E
:1045700000227049704800F096FE002807D100F034
:10458000ACFE67492F4800F02BFF00F0AEFE012083
:1045900000904FF47A7300226849694800F083FE66
:1045A000002807D100F099FE5D49264800F018FF69
:1045B00000F09BFE022000904FF47A7300226149C4
:1045C000614800F070FE002807D100F086FE5449D3
:1045D0001C4800F005FF00F088FE00F060FE00209F
:1045E00004B010BDC0C30020F8C2002080C5002068
:1045F00052C6002080B50A00010054480CF084F82F
:104600004FF47A7003F05BFE01BD00008087030861
:1046100054C600206DC600209887030853C60020AA
:10462000B08703082AC6002008AF002068B2002027
:10463000786D03086FC6002065C600205BC60020A9
:1046400048BF00200C020020DC740308D479030862
:1046500060700308EC930308E09303084C8B030895
:10466000608B03083438024000080650D4C4002090
:1046700078C200200010024074380240A8B900201F
:1046800028C1002050B70020A8C10020D802002077
:10469000748B0308ACC30020888B030898C20020E9
:1046A000FCC30020D48F03089C8B0308D8C20020D1
:1046B000C8870308B08B0308DE020020C48B030800
:1046C000D4C30020D88B0308E8C30020E0C4002036
:1046D00030A60020207D0308E08703080475030846
:1046E0006876002010970308E48F0308886A03089F
:1046F00080890308F879030824C2002060BD0020E7
:104700001C7A0308407D030884C4002050C30020A5
:10471000607D0308F88203086924000818970308DD
:1047200014830308253300082097030899330008F1
:10473000F89303089137000804940308153F000814
:1047400010940308D13400081C940308F48F030864
:1047500038B5040000202078C0076ED5DFF880034C
:10476000006810F00C0004280BD0DFF87403006818
:1047700010F00C0008280ED1DFF868030068400232
:1047800009D5DFF864030068800356D56068002807
:1047900053D10120A3E16068B0F5803F08D1DFF874
:1047A0004803006850F48030DFF83C13086024E0D0
:1047B0006068B0F5A02F10D1DFF82C03006850F42A
:1047C0008020DFF824130860DFF81C03006850F431
:1047D0008030DFF8141308600FE0DFF80C03006886
:1047E00030F48030DFF800130860DFF8FC02006866
:1047F00030F48020DFF8F0120860606800280ED0E6
:104800000BF096FF0500DFF8E0020068800314D487
:104810000BF08EFF401B6528F5D303205FE10BF002
:1048200087FF0500B0480068800306D50BF080FFC5
:10483000401B6528F6D3032051E12078800725D559
:10484000A748006810F00C0F09D0A548006810F0C8
:104850000C00082831D1A348006840022DD4A2489A
:104860000068800704D5E068012801D0012036E106
:104870009D4800685FF0F851B1FA81F130F0F8001E
:10488000226912FA01F1084397490860207800076D
:1048900058D56069002844D00120944908600BF085
:1048A00047FF05009248006880074BD40BF040FF9B
:1048B000401B0328F6D3032011E1E06800281FD035
:1048C00001208C4908600BF033FF05008648006822
:1048D000800706D40BF02CFF401B0328F6D30320DF
:1048E000FDE0814800685FF0F851B1FA81F130F0E5
:1048F000F800226912FA01F108437B490860C5E714
:1049000000207C4908600BF013FF05007648006822
:104910008007BBD50BF00CFF401B0328F6D3032008
:10492000DDE00020714908600BF002FF05007048CF
:104930000068800706D50BF0FBFE401B0328F6D36A
:104940000320CCE0207840076AD5002000906A4818
:10495000006850F08050684908606748006810F0AF
:104960008050009000986548006850F4807063495A
:1049700008600BF0DDFE050060480068C00506D445
:104980000BF0D6FE401B0328F6D30320A7E0A06857
:10499000012806D15A48006850F0010058490860C3
:1049A0001BE0A06805280CD15548006850F00400B1
:1049B000534908605248006850F0010050490860AF
:1049C0000BE04F480068400840004D4908604C48E3
:1049D000006830F004004A490860A06800280FD041
:1049E0000BF0A6FE050046480068800718D40BF0BF
:1049F0009FFE401B41F289318842F4D303206EE0D0
:104A00000BF096FE05003E480068800708D50BF0C5
:104A10008FFE401B41F289318842F4D303205EE0CF
:104A2000A06900285AD02E48006810F00C00082811
:104A300052D0A06902283ED10020324908600BF014
:104A400077FE050028480068800106D50BF070FE4F
:104A5000401B0328F6D3032041E02B48B0FA80F135
:104A60004FF44040B0FA80F2F020B0FA80F3E569EC
:104A7000206A0543606A10FA01F12943A06A4008E0
:104A8000401E10FA02F21143E06A10FA03F31943D0
:104A90001448016001201B4908600BF049FE040026
:104AA00011480068800119D40BF042FE001B032856
:104AB000F6D3032013E00020124908600BF038FE03
:104AC000040009480068800108D50BF031FE001B86
:104AD0000328F6D3032002E0012000E0002032BDCD
:104AE000083802400438024000380240800E474235
:104AF00074380240000047424038024000700040D5
:104B000070380240600047420000FE031CB50020E0
:104B1000002000902148006850F080501F49086034
:104B20001E48006810F080500090009801204FF45B
:104B30000041B1FA81F1184A12EB810210600BF0CA
:104B4000F7FD040013480068C00308D40BF0F0FD23
:104B5000001B40F2E9318842F4D3032019E0012020
:104B60004FF48041B1FA81F10B4A12EB81021060DF
:104B70000BF0DEFD040007480068800308D40BF04A
:104B8000D7FD001B40F2E9318842F4D3032000E056
:104B9000002016BD0470004000000E424038024064
:104BA00070B504000D0000207348006810F00F007D
:104BB000A84209D2704805706F48006810F00F00D5
:104BC000A84201D00120B2E02078800707D56B48C9
:104BD000016831F0F001A068014368480160207865
:104BE000C00769D56068012805D165480068800361
:104BF00013D401209BE06068022802D0606803287B
:104C000005D15F480068800107D401208FE05C482F
:104C10000068800701D4012089E0584801688908AC
:104C2000890060680143554801600BF081FD060072
:104C3000606801280ED15148006810F00C0004286B
:104C40003AD00BF075FD801B41F289318842F2D3D6
:104C500003206CE0606802280ED14848006810F01C
:104C60000C00082828D00BF063FD801B41F289312D
:104C70008842F2D303205AE0606803280ED13F48EF
:104C8000006810F00C000C2816D00BF051FD801BB2
:104C900041F289318842F2D3032048E03748006866
:104CA00010F00C0F08D00BF043FD801B41F289314E
:104CB0008842F3D303203AE02F48006810F00F0039
:104CC000854209D22C4805702B48006810F00F006F
:104CD000A84201D001202AE02078400707D52748C4
:104CE000016831F4E051E068014324480160207814
:104CF000000708D52148006830F46040216950EA77
:104D0000C1001E49086000F041F81C4909681D4AAD
:104D100011F0F0015FF07063B3FA83F3D940515C96
:104D2000C840194908600F200BF008FD002070BD35
:104D300015480068704780B5FFF7FAFF0F4909680A
:104D4000104A11F4E0515FF46013B3FA83F3D940D1
:104D5000515CC84002BD80B5FFF7EAFF074909680A
:104D6000084A11F460415FF4E023B3FA83F3D940B9
:104D7000515CC84002BD0000003C024008380240BF
:104D80000038024074910308A40100200020002094
:104D9000002000202048006810F00C00002804D0FB
:104DA000042804D0082804D034E01C4833E01C4810
:104DB00031E01C48006810F03F001A4909684902B8
:104DC0000DD518490A681649B1FBF0F147F6C070D5
:104DD00002401548B0FA80F0C24051430CE011493E
:104DE0000A680E49B1FBF0F147F6C07002400E4868
:104DF000B0FA80F0C24051430A48006810F44030D5
:104E00004FF44042B2FA82F2D040401C4000B1FB65
:104E1000F0F000E001487047083802400024F40038
:104E200000127A00043802400000FE0338B5040086
:104E300000200020207810F0030F54D00020DFF86D
:104E4000901208600BF074FC0500DFF8780200682F
:104E5000000106D50BF06CFC401B0328F5D30320A2
:104E60002EE12078C00710D5DFF86802B0FA80F094
:104E70000E21B1FA81F1626812FA00F0A26812FA0A
:104E800001F10843DFF8441208602078800719D543
:104E90008E48006810F0E0400E21B1FA81F1C84060
:104EA0006168E268120652EA811252EA007287488B
:104EB00002608948006840094001E169491E0843D1
:104EC000854908600120824908600BF031FC05002B
:104ED0007C480068000106D40BF02AFC401B032824
:104EE000F6D30320ECE0207810F00C0F71D00020F6
:104EF0007A4908600BF01CFC0500724800688000CD
:104F000006D50BF015FC401B0328F6D30320D7E091
:104F10002078400725D57248006810F0E0400E2147
:104F2000B1FA81F1C8406B49B1FA81F1F022B2FACD
:104F300082F20E23B3FA83F3256915FA01F165694C
:104F400015FA02F211439840084365490860624827
:104F5000006830F4F850216A491E50EA01205E4989
:104F600008602078000723D55D48006810F0706065
:104F7000F021B1FA81F1C8405649B1FA81F1F0222D
:104F8000B2FA82F20E23B3FA83F3256915FA01F11E
:104F900090400843A16911FA03F31843504908608F
:104FA0004D48016831F44031606A01434A4801606C
:104FB00001204A4908600BF0BBFB0500414800682E
:104FC000800006D40BF0B4FB401B0328F6D303206B
:104FD00076E0207880066BD500200090414800687C
:104FE00050F080503F4908603E48006810F0805003
:104FF000009000983C48006850F480703A4908607E
:105000000BF096FB050038480068C00506D40BF08D
:105010008FFB401B0328F6D3032051E03348006880
:1050200010F44070002824D0A16A11F44071884225
:105030001FD02E48006830F4407001212C4A1160C6
:1050400000212B4A11602949086028480068C007E0
:105050000FD50BF06DFB050024480068800708D4CD
:105060000BF066FB401B41F289318842F4D30320E8
:1050700026E0A06A10F44070B0F5407F0AD11248D3
:10508000016831F4F811A26A1A48024011430E482F
:10509000016005E00C48006830F4F8100A49086027
:1050A00012480068A16A0905090D08430F49086004
:1050B0002078C00603D594F82C000F490860002022
:1050C00032BD0000003802400838024084380240F7
:1050D000680047420000FE038C38024070004742DF
:1050E000883802404038024000700040703802406A
:1050F000400E4742FFFCFF0FE011474210F007004F
:105100004A490A684FF6FF010A40494951EA00211D
:105110000A4346480260704744480068C0F30220D2
:105120007047010049B2002908D4012210F01F0184
:105130008A40404940B2400941F8202070470200AF
:1051400052B2002A04D409013B4A40B2115407E08C
:1051500009013A4A40B210F00F00104400F8041C54
:10516000704710B410F00700D0F10703052B01D3EE
:10517000042301E0D0F10703041D072C01D2002015
:1051800000E0C01E012414FA03F35B1E19408140A5
:10519000012313FA00F0401E1040084310BC704772
:1051A00080B5411EB1F1807F01D301200EE0401E89
:1051B000234908600F215FF0FF30FFF7C0FF002098
:1051C00020490860072020490860002002BD80B502
:1051D000FFF794FF01BD70B504000D00160000201C
:1051E000FFF79AFF32002900FFF7BBFF0100200004
:1051F00040B2FFF7A4FF70BD80B540B2FFF791FF4A
:1052000001BD80B5FFF7CCFF02BD042806D10E48D2
:10521000006850F004000C49086005E00A48006886
:1052200030F0040008490860704700000CED00E011
:105230000000FA0500E100E000E400E018ED00E005
:1052400014E000E018E000E010E000E038B50400F1
:10525000002C01D1012020E04CF6CC4021680860F0
:1052600045F2555021680860606821684860A06870
:10527000216888600BF05CFA05002068C06800288F
:1052800006D00BF055FA401B3128F6D3032004E07A
:105290004AF6AA2021680860002032BD704780B518
:1052A0000BF062FB01BD3EB50C0011001A00069B1D
:1052B0000025029502AD019500930B0092B201000A
:1052C00020000BF04FFA012801D1029800E00020E5
:1052D0003EBD80B50BF02FFB01BD80B50BF098FDF6
:1052E000012801D00BF068FB01BD80B50BF090FDEB
:1052F000012801D00BF068FB01BD10B504000322AA
:10530000002101200BF04FFF20602068002805D00D
:1053100000230022002120680BF08AFF206800286B
:1053200005D0002120680CF038F8012000E00020B2
:1053300010BD80B50168002902D000680CF0C6F8E5
:1053400001BD80B500230022002100680BF070FF32
:1053500001BD80B5002100680CF01FF801BD80B5CB
:1053600011F1010F05D15FF0FF3100680CF015F865
:1053700002E000680CF011F802BD80B50021009138
:10538000694600680BF0DBFF009802BD10B5040011
:1053900001200BF040FF20602068002801D0012090
:1053A00000E0002010BD80B55FF0FF3100680BF019
:1053B000F4FF01BD80B500230022002100680BF03E
:1053C00037FF01BD80B50BF070FB02BD80B50CF05E
:1053D00024F902BD80B5002801D00CF02AF901BDE6
:1053E0000CB43EB5044606A801900D462046AFF326
:1053F00000800021009101AB2A46214606487844EE
:1054000016300CF023F905462046AFF300802846FD
:1054100003B030BC5DF80CFB1935030070B5050016
:105420000E00701CDFF80817096888470400002C7C
:1054300001D1002007E00020A05532002900200003
:105440000DF016F8200070BD0100C9B230390A29EC
:1054500002D2C0B2303811E00100C9B26139062968
:1054600002D2C0B2573809E00100C9B24139062959
:1054700002D2C0B2373801E05FF0FF3070472DE94B
:10548000F04105000C002878002808D06878002832
:1054900005D0A878002802D0E878002801D10020A3
:1054A00024E02878FFF7D0FF06006878FFF7CCFFEC
:1054B0000700A878FFF7C8FF8046E878FFF7C4FF29
:1054C00016F1010F08D017F1010F05D018F1010FE7
:1054D00002D010F1010F01D1002007E03F0257EA8E
:1054E000063757EA0817074327600120BDE8F08117
:1054F00038B504000D00022D07D32078302804D1E0
:1055000060782E2801D000201AE0032D0BD3022250
:1055100017A120000CF0E4FF002804D1A0782E2869
:1055200001D000200CE02800451E002807D0615D56
:1055300010A00CF0E9FF0028F5D0002000E00120C9
:1055400032BD10B504001420DFF8241A096888471A
:10555000002801D1002008E0046000214160002102
:105560008160002101610021C16010BD00000000C8
:105570002D3000007858000070B505000C001600B2
:10558000002C02D15FF0FF3008E0200002F068FE3E
:10559000020033002100280000F001F870BD2DE961
:1055A000F04104000E0017001D000020002C03D065
:1055B000002E01D0002D02D15FF0FF303AE03A001A
:1055C0003100200000F08EF8002802D05FF0FF309C
:1055D00030E0E0682169884210D32069400011283A
:1055E00002D32069410000E01021200000F024F8DF
:1055F00010F1010F02D15FF0FF301BE0D4F80C80F6
:1056000039003000FFF70AFF616841F82800606840
:1056100050F82800002802D15FF0FF300AE0200097
:1056200000F00AFD2860A06840F82850E068401C9F
:10563000E0600020BDE8F081F8B507000C00002014
:1056400000207868002802D1B868002807D178685F
:10565000002802D0B868002801D0002C02D15FF0E9
:10566000FF303DE0A000DFF8C81409688847050056
:10567000002D02D15FF0FF3032E0A000DFF8B0145F
:10568000096888470600002E07D12800DFF8E418D3
:10569000096888475FF0FF3022E07868002811D061
:1056A000B86800280ED0F86800280BD0F86882008F
:1056B0007968280001F076FFF8688200B968300048
:1056C00001F070FF7868DFF8AC1809688847B8689F
:1056D000DFF8A018096888477D60BE603C61002043
:1056E000F2BD0000F8B504000D001600002700E030
:1056F0007F1C200000F08AFC874213D2606850F8BB
:10570000270002F0ADFDB042F2D1320029006068FE
:1057100050F827000CF0E4FE0028E9D1A06850F80A
:10572000270000E00020F2BD38B5040000250CE0A1
:10573000606850F82500DFF83C1809688847A068C1
:1057400050F8250000F0D3FC6D1CE0688542EFD3D3
:105750006068DFF8201809688847A068DFF8141827
:10576000096888472000DFF80C180968884731BDB0
:1057700010B504001020DFF8F817096888470028E2
:1057800001D1002006E00460002141600021C160D9
:105790000021816010BD38B504000D00A068E168EB
:1057A000884210D3E0684000112802D3E06841002D
:1057B00000E01021200000F013F810F1010F02D1D9
:1057C0005FF0FF300BE0200000F05AFC28606068BA
:1057D000A16840F82150A068401CA060002032BDA4
:1057E00070B506000C000020002C02D15FF0FF30E5
:1057F0001EE0A000DFF83813096888470500002D77
:1058000002D15FF0FF3013E07068002808D0B06864
:10581000002805D0B06882007168280001F0C2FE3F
:105820007068DFF85017096888477560F4600020D9
:1058300070BD38B50400002505E0606850F825000B
:1058400000F055FC6D1CA0688542F6D36068DFF857
:105850002417096888472000DFF818170968884767
:1058600031BD10B504001020DFF80417096888471F
:10587000002801D1002004E00021016002214160E4
:10588000846010BD01680978222902D05FF0FF30E2
:1058900023E00168491C01600DE0016809785C297A
:1058A00006D10168491C01600168097800290DD002
:1058B0000168491C016001680978222909D0016842
:1058C00009780029E9D15FF0FF3006E05FF0FF3092
:1058D00003E00168491C0160002070472DE9FC418C
:1058E00004000D0000202E682068471C694638001F
:1058F000FFF7C5FD002802D15FF0FF3008E00098F7
:10590000802807D200983070F81C2E60206000209C
:10591000BDE8F6810098B0F5006F0ED200988009BE
:1059200010F01F0050F0C0003070009810F03F00E1
:1059300050F080007070761CE6E70098B0F5584093
:10594000B0F5006F15D30098000B10F00F0050F069
:10595000E00030700098800910F03F0050F08000A7
:105960007070009810F03F0050F08000B070B61CCE
:10597000CAE70098B0F55840B0F5806F44D2DDF822
:105980000080381D411C00785C2803D14F1C08782A
:10599000752802D05FF0FF30BAE701A93800FFF7A1
:1059A0006EFD002805D00198B0F55C40B0F5806F21
:1059B00002D35FF0FF30ABE7DFF8C40510EA8820C0
:1059C00001998905890D084310F5803000900098F1
:1059D000800C10F0070050F0F00030700098000BC1
:1059E00010F03F0050F0800070700098800910F0B7
:1059F0003F0050F08000B070009810F03F0050F071
:105A00008000F070F61C7FE75FF0FF3080E77CB528
:105A100005000E000195701C00210021002100915D
:105A200000214349096888470400002C06D1200062
:105A3000DFF8401509688847002076BD009405E02E
:105A40000098401C00900198401C0190019800783B
:105A5000002852D00198401BB0424ED201980078E5
:105A60005C2840D10198401C0190019800782228C0
:105A700010D02F2816D05C2810D0622816D06628A7
:105A800018D06E281AD072281CD074281ED0752801
:105A900020D027E0222000990870D1E75C200099EF
:105AA0000870CDE72F2000990870C9E708200099F9
:105AB0000870C5E70C2000990870C1E70A2000991A
:105AC0000870BDE70D2000990870B9E7092000991A
:105AD0000870B5E7694601A8FFF700FF10F1010F54
:105AE000AED1A4E7A3E701980078202804DB019851
:105AF000007800990870A3E799E7002000990870E2
:105B0000009E361B761C300009490968884705004D
:105B1000002D8CD032002100280001F043FD200030
:105B2000DFF8501409688847280086E70000000065
