:020000040800F2
:1000000068E90020E9DE030895A5030897A5030821
:1000100099A503089BA503089DA5030800000000FF
:100020000000000000000000000000002D31020868
:100030009FA5030800000000D5300208A1A5030811
:1000400081E6030885E6030889E603088DE60308D0
:1000500091E6030895E6030899E603089DE6030880
:10006000A1E60308A5E60308A9E60308ADE6030830
:10007000B1E60308B5E60308B9E60308BDE60308E0
:10008000B5A50308C1E60308C5E60308C9E60308E9
:10009000CDE60308D1E60308D5E60308D9E6030850
:1000A000DDE60308E1E60308E5E60308E9E6030800
:1000B000EDE60308F1E60308F5E60308F9E60308B0
:1000C000FDE6030801E7030805E7030809E703085D
:1000D0000DE7030811E70308BFA50308C9A5030836
:1000E00015E7030819E703081DE7030821E70308DC
:1000F00025E7030829E703082DE7030831E703088C
:1001000035E7030839E703083DE7030841E703083B
:1001100045E7030849E703084DE7030851E70308EB
:1001200055E70308D3A5030859E703085DE703086B
:1001300061E70308B76B030865E7030869E703088D
:100140006DE7030871E7030875E7030879E703081B
:100150007DE7030881E7030885E70308DDA50308B9
:1001600089E703088DE7030891E7030895E703088B
:1001700099E703089DE70308A1E7030800000000D2
:10018000A5E70308A9E70308ADE70308B1E70308FB
:10019000B5E70308B9E70308BDE70308C1E70308AB
:0C01A000C5E70308C9E70308CDE7030822
:10020000BFF34F8FDFF8A809016811F4E061DFF850
:10021000A4090143DFF898090160BFF34F8F00BFC5
:10022000FDE730B402004FF6FF70002400E0641CCC
:1002300023000D009BB2ADB2AB4215D223009BB29E
:10024000D35C584000231D00ADB2082DEFDAC5077E
:1002500002D480B2400805E080B205004AF20100F5
:1002600090EA55005B1CEEE780B230BC704770B579
:100270000C0000210025DFF840190978002900F062
:100280009381DFF838190978002914D002293AD06F
:1002900020D3042900F0808068D3062900F0A880CC
:1002A000C0F09080082900F0CE80C0F0BC80092901
:1002B00000F0D98073E1C0B2132808D10120DFF823
:1002C000FC1808701020DFF8F418887101E000F0C5
:1002D00059FC66E10100C9B2DFF8E028A2F801107C
:1002E000DFF8D818DFF8D82812781144C871DFF881
:1002F000D0080078401CDFF8C81808700220DFF82A
:10030000BC1808704DE1DFF8B418B1F80110020014
:10031000D2B251EA0221DFF8A428A2F80110DFF8D6
:100320009C18DFF89C2812781144C871DFF88C08FB
:10033000B0F80100DFF88C18498888420BD1DFF84B
:1003400080080078401CDFF8781808700320DFF878
:100350006C18087009E000F015FCDFF86008B0F8D0
:100360000110DFF8640805F0F5FC1AE10421DFF85C
:100370004C281170DFF84418C870DFF84018DFF817
:10038000402812781144C871DFF834080078401C06
:10039000DFF82C18087004E10521DFF8202811701F
:1003A000DFF818180871DFF81418DFF8142812782D
:1003B0001144C871DFF808080078401CDFF8001805
:1003C0000870EEE00621DFF8F4271170DFF8EC1773
:1003D0004871DFF8E817DFF8E82712781144C87190
:1003E000DFF8DC070078401CDFF8D4170870D8E08D
:1003F000DFF8CC170978DFF8C427927991420ED242
:10040000DFF8B817DFF8B82712781144C871DFF8A1
:10041000B0070078401CDFF8A8170870C1E007217A
:10042000DFF8982711700821DFF890271170DFF8A6
:100430008C1781F80701DFF888070078401CDFF887
:1004400080170870ADE00921DFF870271170DFF820
:100450006C1781F80601DFF868070078401CDFF8A8
:10046000601708709DE0C0B20D2840F09580DFF85D
:100470004C0790F80601DFF8441791F8076156EA37
:100480000026DFF83807817989B2DFF84007FFF7E7
:10049000C8FEDFF82C170978491CDFF824271170F3
:1004A00080B2864275D1DFF81807007813286BD127
:1004B000DFF808074079112807D11022DFF80C1760
:1004C000200005F05BFC112559E0DFF8F0064079CB
:1004D000122807D11022DFF8F416200005F04EFC98
:1004E00012254CE0DFF8D4064079132807D11022FA
:1004F000DFF8D816200005F041FC13253FE0DFF8B7
:10050000BC064079312807D11022DFF8C016200040
:1005100005F034FC312532E0DFF8A00640790328ED
:1005200007D11022DFF8A416200005F027FC0325D0
:1005300025E0DFF888064079142807D11022DFF87B
:100540008C16200005F01AFC142518E0DFF86C0664
:100550004079152807D11022DFF87016200005F029
:100560000DFC15250BE0DFF854064079212806D153
:100570001022DFF85816200005F000FC212500F0BD
:1005800001FB2800C0B238E100F0FCFA2800C0B23C
:1005900033E100F0F7FA01E000F0F4FA01E000F0D6
:1005A000F1FA2800C0B228E1DFF824160978022900
:1005B00005D0DFF81C160978062940F01D81D2B25B
:1005C000002A00F08680DFF8F4150978002902D0AF
:1005D000062913D07AE0DFF8E415DFF8E425127875
:1005E0001144C871DFF8D8050078401CDFF8D01539
:1005F00008700620DFF8C4150870FBE0DFF8BC15B2
:10060000DFF8BC2512781144C871DFF8B005C07955
:10061000DFF8B015498A80B2884217D1DFF89C050F
:10062000007ADFF8A015898A80B288420ED10120B5
:10063000DFF88415087005F050FCDFF89815DFF836
:10064000980505F0CDFC05F050FC2CE00320DFF808
:1006500080150870DFF884050088401CDFF87C15E1
:100660000880DFF87805008803281CDBDFF87015A8
:10067000DFF8700505F0D2FCDFF8682500210020C6
:1006800005F092FE05F029FCDFF850050288DFF83E
:100690005815DFF8440505F0A3FC05F026FC012001
:1006A000DFF81415087005F018FCDFF81005037A60
:1006B000DFF80805C279DFF83415DFF81C0505F00E
:1006C0008FFC05F012FC00F05DFA93E000F05AFA9E
:1006D00090E0DFF8E8140978002906D005290CD04D
:1006E000062915D009292BD082E0C0B2AB2803D14E
:1006F0000520DFF8C81408707CE0C0B20A2804D1D5
:100700000620DFF8B814087001E000F03BFA71E051
:10071000DFF8A814DFF8A82412781144C871DFF8B4
:10072000A0040078401CDFF898140870DFF89004EB
:100730000078032803DB0920DFF88014087059E0F3
:10074000DFF87814DFF8782412781144C871DFF8E4
:100750006C04C079DFF86C14498A80B2884217D1E2
:10076000DFF85804007ADFF85C14898A80B2884286
:100770000ED10120DFF84014087005F0AEFBDFF861
:100780005414DFF8540405F02BFC05F0AEFB2CE00C
:100790000320DFF83C140870DFF840040088401C98
:1007A000DFF838140880DFF83404008803281CDBE5
:1007B000DFF82C14DFF82C0405F030FCDFF82424DB
:1007C0000021002005F0F0FD05F087FBDFF80C04A8
:1007D0000288DFF81414DFF8000405F001FC05F0CE
:1007E00084FB0120DFF8D013087000F0CBF901E0A2
:1007F00000F0C8F9002000E0002070BD70B50C00CA
:10080000002100250021DFF8B0130978002900F04D
:10081000CD80DFF8A813097800290CD0032920D057
:10082000052934D0062949D0072965D008296FD079
:10083000092979D0B5E0C0B20D280FD10320DFF827
:100840007C1308700820DFF874138871DFF87003D8
:100850000078401CDFF86813087001E000F092F99E
:10086000A1E00521DFF854231170DFF85013C870A0
:10087000DFF84813DFF84823127811448871DFF855
:1008800040030078401CDFF8381308708BE0062125
:10089000DFF828231170DFF824134871401CDFF8BB
:1008A0001C13DFF81C23127811448871DFF8100341
:1008B0000078401CDFF80813087074E0DFF80013BC
:1008C0000978DFF8F8229279D21C914210DADFF829
:1008D000F0120978491EDFF8E422C9B21144C87148
:1008E000DFF8DC020078401CDFF8D41208705AE010
:1008F0000721DFF8C82211700821B04A1170AF49F2
:1009000081F80701AE480078401CAD4908704AE004
:100910000921AA4A1170A94981F80601A84800785E
:10092000401CA74908703EE0C0B20D2836D1A3484C
:1009300090F80601A14991F8076156EA00269F4800
:10094000817989B2AA48FFF76CFC80B2864222D135
:100950009B4800780D2819D198484079002806D185
:100960000A229A49200005F009FA012509E0934876
:100970004079012805D10A229449200005F0FEF9AA
:10098000022500F0FFF82800C0B2FAE000F0FAF803
:100990002800C0B2F5E000F0F5F801E000F0F2F850
:1009A00001E000F0EFF82800C0B2EAE088490978D9
:1009B000022904D086490978062940F0E180D2B2A4
:1009C000002A67D07D490978002902D006290ED077
:1009D0005DE07A497A4A12781144C8717848007803
:1009E000401C77490870062074490870C6E07349B6
:1009F000734A12781144C8717048C0797149498AA4
:100A000080B2884212D16D48007A6E49898A80B2DC
:100A100088420BD101206849087005F05EFA6D49E3
:100A20006D4805F0DDFA05F060FA21E00320684921
:100A300008706A480088401C684908806748008838
:100A4000032815DB6649674805F0E8FA654A002186
:100A5000002005F0A9FC05F040FA604802886249D0
:100A60005D4805F0BDFA05F040FA012052490870D2
:100A700005F033FA5148037A5048C2795B49564829
:100A800005F0AEFA05F031FA00F07CF876E000F0FF
:100A900079F873E049490978002906D005290BD077
:100AA000062913D0092923D066E0C0B2AB2802D1B1
:100AB00005204249087061E0C0B20A2803D106202F
:100AC0003E49087001E000F05DF857E03B493C4AC0
:100AD00012781144C8713A480078401C38490870AF
:100AE00037480078032802DB09203449087045E0C4
:100AF0003249334A12781144C8713048C0793149BB
:100B0000498A80B2884212D12C48007A2D49898ABC
:100B100080B288420BD101202749087005F0DDF929
:100B20002C492D4805F05CFA05F0DFF921E003209F
:100B30002749087029480088401C28490880274810
:100B40000088032815DB2649264805F067FA254A60
:100B50000021002005F028FC05F0BFF91F4802889D
:100B600021491D4805F03CFA05F0BFF90120124962
:100B7000087000F007F801E000F004F8002000E041
:100B8000002070BD10B500200C49087000200C49F1
:100B90000870C8210022DFF8BC4C200005F090FC52
:100BA0004FF484710022054C200005F089FC10BD33
:100BB0000CED00E00400FA0544E5002010D400200C
:100BC0005EE5002010DE0020E4D8030817D40020E2
:100BD00045E50020E0CE03080C02002012E50020CD
:100BE000F8D803089CE20020CCB7030800AF030844
:100BF00019D400202DE9F843804600240025002662
:100C00000027DFF8540C0078401CDFF84C1C0870FB
:100C1000DFF8480C0078002828D05FF000090FE0CA
:100C20004246D2B2DFF8381CDFF8380C4B46DBB254
:100C3000C05CFFF71CFBDFF8301C087019F10109DC
:100C40004846DFF8181C0978C0B28842E8D3002073
:100C5000DFF8081C0870C8210022DFF8088C404625
:100C600005F02EFC0020DFF8F01B0870DFF8E80B21
:100C70000078652810DBFFF785FF0020DFF8D81B20
:100C800008700020DFF8D41B0870C8210022DFF8AC
:100C9000D48B404605F014FCDFF8CC0B007800281C
:100CA00000F0D5850020DFF8C01B0870DFF8B00B1E
:100CB0008078401EDFF8B41B0870DFF8B00B0178B5
:100CC000491CDFF8AC2BDFF8A40B03781720434353
:100CD00002EB03004172DFF8880BC07801280BD1CA
:100CE0000A21DFF88C2BDFF8840B037817204343AD
:100CF00002EB030081724AE0DFF8640BC07802283F
:100D00000BD11421DFF8682BDFF8600B0378172074
:100D1000434302EB0300817239E0DFF8440BC078F3
:100D200003280BD11E21DFF8482BDFF8400B037896
:100D30001720434302EB0300817228E0DFF8200B09
:100D4000C07804280BD12821DFF8242BDFF81C0BF6
:100D500003781720434302EB0300817217E014214C
:100D6000DFF80C2BDFF8040B03781720434302EB6A
:100D70000300817205F0B1F8DFF8F00A0278DFF8BD
:100D8000F41ADFF8F40A05F02BF905F0AEF8DFF8F5
:100D9000D00A0179DFF8D82ADFF8D00A03781720C3
:100DA000434302EB0300C172DFF8C41ADFF8BC0A48
:100DB00002781720424301EB0200C07A31280BD0A1
:100DC000DFF8AC1ADFF8A40A02781720424301EBDF
:100DD0000200C07A21283CD10121DFF8942ADFF8F3
:100DE0008C0A037817204343D154DFF8900ADFF8C8
:100DF0007C1A097830F81100002800F02885DFF807
:100E00007C0ADFF8681A097830F81100401EDFF814
:100E10006C1ADFF8582A127821F81200DFF85C0A01
:100E2000DFF8481A097830F811000B28C0F20F8556
:100E3000DFF8480ADFF8341A097830F81100401E4C
:100E4000DFF8381ADFF8242A127821F8120000F0AF
:100E5000FEBCDFF81C1ADFF8140A027817204243A0
:100E600001EB0200C07A112840F07182DFF8F0092E
:100E700090F80580DFF8E809807958EA0028DFF863
:100E8000F019DFF8E80902781720424301EB02006D
:100E90008089414689B2884200F09180DFF8D019FC
:100EA000DFF8C80902781720424301EB0200427ABA
:100EB000DFF8CC19DFF8CC0905F0B0F8DFF8C42969
:100EC0000121002005F070FADFF8A419DFF89C0971
:100ED00002781720424301EB0200807A0A2814D1DD
:100EE000DFF88C19DFF8840902781720424301EB00
:100EF0000200A0F80C800022DFF870090178491C7C
:100F0000C9B2042007F01CF959E0DFF86419DFF8D2
:100F10005C0902781720424301EB0200807A142812
:100F200014D1DFF84C19DFF8440902781720424346
:100F300001EB0200A0F80C800022DFF830090178F4
:100F4000491CC9B2042007F0FBF838E0DFF820198B
:100F5000DFF8180902781720424301EB0200807A7B
:100F60001E280CD10127DFF80819DFF800090278E4
:100F70001720424301EB0200A0F80C801FE0DFF8CD
:100F8000F018DFF8E80802781720424301EB02006E
:100F9000807A282813D1DFF8D818DFF8D008027833
:100FA0001720424301EB0200A0F80C800022DFF87A
:100FB000BC080178491CC9B2042007F0C1F8DFF869
:100FC000B018DFF8A80802781720424301EB0200AE
:100FD000807A1E2840F0AA80DFF88408417ADFF882
:100FE0008008827ADFF87808C07A52EA0022DFF8B7
:100FF0008038DFF8780890F800C0172000FB0CFC60
:1010000003EB0C00A0F81120DFF85408027BDFF896
:101010005008407B52EA0022DFF85438DFF84C08D1
:1010200090F800C0172000FB0CFC03EB0C00A0F8AC
:101030001320DFF82C08827BDFF82408C07B52EAFB
:101040000022DFF82C38DFF8240890F800C01720C1
:1010500000FB0CFC03EB0C00A0F81520DFF81028B7
:10106000DFF8080803781720434302EB0300007CF5
:1010700010F02A000A00D2B212F02A0290422ED0BA
:1010800057F00207DFF8E827DFF8E00703781720BA
:10109000434302EB0300007C800702D5880700D49D
:1010A0000124DFF8CC27DFF8C40703781720434377
:1010B00002EB0300007C000702D5080700D40125DD
:1010C000DFF8AC27DFF8A40703781720434302EBCF
:1010D0000300007C800602D5880600D40126DFF8D4
:1010E0009027DFF8880703781720434302EB0300BB
:1010F000007C10F02A0F01D057F00407DFF87027AA
:10110000DFF8680703781720434302EB03000174FC
:10111000DFF85C17DFF8540702781720424301EB31
:1011200002004078012801D157F00807DFF8940A3F
:1011300007703800C0B2002808D00022DFF82C0762
:101140000178491CC9B2032006F0FAFFB80740F144
:10115000CB80DFF8740A0078012840F0C580DFF802
:101160006C0A47787F1C3800C0B20A2800D10027DB
:10117000DFF8580A00783900C9B2884222D1DFF876
:10118000500AC288DFF84C1ADFF8F80604F046FF70
:10119000DFF8F0260121002005F006F904F09DFE9D
:1011A000DFF82C0AC288DFF8941CDFF8CC0604F0C4
:1011B00017FF04F09AFE40F6B8300AF09BFAFFF7EA
:1011C0001FF891E0DFF8041ADFF8000A42783420B3
:1011D000424301EB020000210171DFF8F019DFF852
:1011E000EC0942783420424301EB0200DFF87C1620
:1011F0000978491C4171DFF8D419DFF8D009427829
:101200003420424301EB020080F83440DFF8BC197F
:10121000DFF8B80942783420424301EB020080F83D
:101220003550DFF8A819DFF8A4094278342042438A
:1012300001EB020080F83660DFF89019DFF88C09C6
:101240004278342042431144DFF82426DFF81C069C
:1012500003781720434302EB0300B0F81100C88560
:10126000DFF86819DFF864094278342042431144FA
:10127000DFF8FC25DFF8F40503781720434302EB81
:101280000300B0F813000886DFF84019DFF83C09C6
:101290004278342042431144DFF8D425DFF8CC05EE
:1012A00003781720434302EB0300B0F8150048868B
:1012B000DFF81819DFF8140942783420424301EBB3
:1012C00002004079042805DADFF8742B01210C2094
:1012D00005F06AF8DFF8F4084770DFF8680B00786B
:1012E000401CDFF8601B0870DFF89005DFF87C1504
:1012F000097830F81100002800F0A982DFF87C0599
:10130000DFF86815097830F81100401EDFF86C1519
:10131000DFF85825127821F81200DFF86005DFF8B1
:101320004C15097830F811000B28C0F29082DFF8D4
:101330004C05DFF83815097830F81100401EDFF849
:101340003C15DFF82825127821F812007FE2DFF83B
:101350002015DFF8180502781720424301EB020040
:10136000C07A122840F09380DFF8F4044179DFF866
:10137000F004807951EA0021DFF8F424DFF8EC046E
:1013800003781720434302EB030081811222DFF828
:10139000DC040178022006F0D3FE0120DFF8B41B44
:1013A0000870DFF8CC14DFF8C40402781720424339
:1013B00001EB02008389DFF8B4040278521CDFF8E5
:1013C000981BDFF8C00404F029FEDFF8B8240121DF
:1013D000002004F0E9FFDFF8A404DFF89014097896
:1013E00030F81100002826D0DFF89004DFF87C14D4
:1013F000097830F81100401EDFF88014DFF86C2403
:10140000127821F81200DFF87404DFF8601409780C
:1014100030F811000B280EDBDFF86004DFF84C1405
:10142000097830F81100401EDFF85014DFF83C2432
:10143000127821F81200DFF83814DFF8300402784F
:101440001720424301EB02008189DFF82424DFF8F2
:101450001C0403781720434302EB0300418004F08F
:101460003CFDDFF80C14DFF8040402781720424337
:1014700001EB02008389DFF8F4030278DFF83C1CFB
:10148000DFF8F40304F0ACFD04F02FFDDFE1DFF83A
:10149000E013DFF8D80302781720424301EB020083
:1014A000C07A132840F0B480DFF8B4034179DFF844
:1014B000B003807951EA0021DFF8B423DFF8AC03F0
:1014C00003781720434302EB03008181DFF8AC036C
:1014D000DFF89813097830F81100002826D0DFF8DB
:1014E0009C03DFF88813097830F81100401EDFF8FC
:1014F0008C13DFF87823127821F81200DFF87C03D0
:10150000DFF86813097830F811000B280EDBDFF8DC
:101510006C03DFF85813097830F81100401EDFF82B
:101520005C13DFF84823127821F81200DFF8901BD3
:10153000DFF8380302786E20424301EB0200007DA1
:10154000002827D0DFF82813DFF8200302781720BF
:10155000424301EB0200007BC0071BD5DFF8601B94
:10156000C24802786E2042431144DFF8542BBF4832
:1015700003786E20434302EB0300407D00220A54AF
:101580000021DFF83C2BB94803786E20434302EB7F
:1015900003000175B649B54802781720424301EBB4
:1015A00002004188B24AB14803781720434302EB56
:1015B00003008089814217D0AD49AC4802781720DA
:1015C000424301EB02008189A94AA8480378172009
:1015D000434302EB030041800022A4480178491CE8
:1015E000C9B2042006F0ACFD04F077FCA0499F4886
:1015F00002781720424301EB020083899B4802785E
:10160000DFF8C01A9C4804F0EBFC04F06EFC1EE10D
:101610009749964802781720424301EB0200C07AAE
:1016200014286FD18E4841798D48807951EA002184
:101630008F4A8E4803781720434302EB03008181D1
:101640008E488A49097830F8110000281CD08B4850
:101650008649097830F81100401E8849834A12787B
:1016600021F8120085488149097830F811000B28CB
:101670000ADB82487D49097830F81100401E7F4915
:101680007A4A127821F812007949784802781720AE
:10169000424301EB02004188754A744803781720E1
:1016A000434302EB03008089814217D070496F48A1
:1016B00002781720424301EB020081896C4A6B4893
:1016C00003781720434302EB030041800022674860
:1016D0000178491CC9B2042006F032FD04F0FDFB7C
:1016E0006349624802781720424301EB0200838974
:1016F0005E480278DFF8D0195F4804F071FC04F00E
:10170000F4FBA4E05A49594802781720424301EB00
:101710000200C07A14283FD10121554A534803786A
:101720001720434302EB0300417014224F48017815
:10173000022006F005FD00224C480178491CC9B280
:10174000032006F0FDFC0120DFF8081808704B4864
:101750004649097830F81100002878D047484349B5
:10176000097830F81100401E4449404A127821F8A7
:10177000120042483D49097830F811000B2866DB19
:101780003E483A49097830F81100401E3B49374A33
:10179000127821F812005AE03549344802781720AF
:1017A000424301EB0200C07A15283FD10021304AA4
:1017B0002E4803781720434302EB030041701522A3
:1017C0002A480178022006F0BBFC00222748017855
:1017D000491CC9B2032006F0B3FC0120DFF87417DE
:1017E000087026482149097830F8110000282ED0C9
:1017F00022481E49097830F81100401E1F491B4A33
:10180000127821F812001D481849097830F81100A3
:101810000B281CDB19481549097830F81100401EC7
:101820001649124A127821F8120010E004F055FB14
:101830000F490E4802781720424301EB0200C27A9A
:10184000DFF888180C4804F0CBFB04F04EFBBDE831
:10185000F183000018D6002046E5002042E5002074
:10186000A8D70020E0D6002043E5002047E500206F
:1018700030D10020FCB703080C02002080E10020DA
:101880008CE10308B0E200200100002008784A78CB
:1018900050EA82008A7850EA0210CA7850EA821030
:1018A0000A7950EA02204A7950EA82208A7950EA7D
:1018B0000230C97950EA813080B2704738B50400EF
:1018C000DFF80C080078401CDFF804180870DFF817
:1018D00004080078002826D000250EE02200D2B2AD
:1018E000DFF8F417DFF8F4072B00DBB2C05CFEF77B
:1018F00085FFDFF8EC1708706D1C2800DFF8D4179F
:101900000978C0B28842E9D30020DFF8C817087010
:10191000C8210022DFF8C447200004F0D1FD0020D8
:10192000DFF8AC170870DFF8A8070078652810DB2F
:10193000FFF728F90020DFF8981708700020DFF87B
:1019400094170870C8210022DFF89047200004F0A7
:10195000B7FDDFF88C070078002800F03281002006
:10196000DFF87C170870DFF870070078401EDFF89A
:1019700074170870DFF86C070178491CDFF86827D6
:10198000DFF8600703781720434302EB030041723E
:10199000DFF844074178DFF85027DFF8480703787D
:1019A0001720434302EB0300C172DFF83C17DFF856
:1019B000340702781720424301EB0200C07A012865
:1019C0004FD10121DFF82027DFF81807037817200F
:1019D0004343D154DFF81407FFF756FFDFF8082719
:1019E000DFF800170B7817214B4302EB03018989BD
:1019F000020092B2914200F0E480DFF8EC26DFF8BA
:101A0000E4160B7817214B4302EB03018881DFF8C2
:101A1000D816DFF8D00602781720424301EB020007
:101A20008389DFF8C416DFF8BC060278172042432A
:101A300001EB0200427ADFF8B816DFF8B80604F0CE
:101A4000EDFADFF8B0260121002004F0ADFC002201
:101A5000DFF890060178491CC9B2082006F070FB37
:101A6000AFE0DFF88416DFF87C06027817204243E7
:101A700001EB0200C07A022840F08F80DFF86C068C
:101A8000FFF702FFDFF86026DFF858160B78172102
:101A90004B4302EB030188811222DFF848060178EC
:101AA000072006F04DFB0120DFF8A8140870DFF8CE
:101AB0003816DFF8300602781720424301EB0200A7
:101AC0008389DFF820060278521CDFF88C14DFF8D7
:101AD000240604F0A3FADFF81C260121002004F0FC
:101AE00063FCDFF81406DFF8FC15097830F8110004
:101AF000002826D0DFF80006DFF8E815097830F86E
:101B00001100401EDFF8F015DFF8D825127821F813
:101B10001200DFF8E405DFF8CC15097830F8110081
:101B20000B280EDBDFF8D005DFF8B815097830F8A0
:101B30001100401EDFF8C015DFF8A825127821F843
:101B40001200DFF8A415DFF89C0502781720424345
:101B500001EB02008189DFF89025DFF88805037822
:101B60001720434302EB0300418004F0B6F9DFF88D
:101B70007815DFF8700502781720424301EB020068
:101B80008389DFF860050278DFF83015DFF86C052F
:101B900004F026FA04F0A9F913E004F09EF9DFF846
:101BA0004815DFF8400502781720424301EB020098
:101BB000C27ADFF81815DFF8440504F011FA04F0D2
:101BC00094F931BD64E500203BE5002018C80020F1
:101BD00010DE00200CD90308F8B588B005000E000F
:101BE000002400273000C0B200280CD0AA2069468B
:101BF0002200D2B28854641CBB2069462200D2B2B3
:101C00008854641C05E0AB2069462200D2B2885497
:101C1000641C012069462200D2B28854641C13203F
:101C200069462200D2B28854641CDFF8D40440888C
:101C300069462200D2B28854641CDFF8C40440888C
:101C400080B2000A69462200D2B28854641C687AC5
:101C500069462200D2B28854641CA87A642801D153
:101C6000642712E0A87A0A2801D101270DE0A87A9A
:101C7000142801D1022708E0A87A1E2801D10327E1
:101C800003E0A87A282800D10427DFF86C04697AD9
:101C900000EB4100DFF860146A7A01EB420131F891
:101CA000021C491C20F8021CDFF84C04697A00EB86
:101CB000410030F8020C42F21171884208DBDFF873
:101CC0003804697A00EB410042F2107120F8021CDE
:101CD000DFF82404697A00EB410030F8020C152883
:101CE0002CDB04F0FAF8DFF81004697A00EB41000D
:101CF00030F8023C6A7A521EDFF80814DFF8FC0361
:101D000004F06EF904F0F1F8DFF8EC03697A00EB07
:101D1000410030F8020C1F2810DB0022687A411EB7
:101D2000C9B2022006F0A8FEDFF8BC136A7A1720B9
:101D3000424301EB0200002100F80D1C684621001F
:101D4000C9B24754641CE87A69462200D2B288546A
:101D5000641CA88969462200D2B28854641CA889F0
:101D600080B2000A69462200D2B28854641CE88915
:101D700069462200D2B28854641CE88980B2000A05
:101D800069462200D2B28854641C287C694622002D
:101D9000D2B28854641CB5F8110069462200D2B250
:101DA0008854641CB5F8110080B2000A694622000C
:101DB000D2B28854641CB5F8130069462200D2B22E
:101DC0008854641CB5F8130080B2000A69462200EA
:101DD000D2B28854641CB5F8150069462200D2B20C
:101DE0008854641CB5F8150080B2000A69462200C8
:101DF000D2B28854641C10216846F6B23044C01C2C
:101E0000FEF70FFA69462200D2B28854641C000A19
:101E100069462200D2B28854641C0D206946220013
:101E2000D2B28854641C42F21073E4B2220092B21F
:101E30006946B54809F0A7FC09B0F0BD20D90308F0
:101E40002CE503082FE5002038B588B004000025F4
:101E5000C9B200293CD0AA2069462A00D2B28854CF
:101E60006D1CBB2069462A00D2B288546D1C04F058
:101E700034F82200D2B2A549A04804F0B1F804F029
:101E800034F82000C0B2012803D02000C0B20528D9
:101E900006D1052069462A00D2B288546D1C4DE057
:101EA000E4B2032C4AD1032069462A00D2B28854F6
:101EB0006D1C9348408A69462A00D2B288546D1C32
:101EC0008F48808A69462A00D2B288546D1C35E05A
:101ED000AB2069462A00D2B288546D1C03F0FDFF86
:101EE0002200D2B28949854804F07AF803F0FDFF58
:101EF0002000C0B2012803D02000C0B2052806D1BE
:101F00000A2069462A00D2B288546D1C16E0E4B259
:101F1000032C13D1042069462A00D2B288546D1CC8
:101F20007748408A69462A00D2B288546D1C7448AA
:101F3000808A69462A00D2B288546D1C42F210731E
:101F4000EDB22A0092B269466F4809F01CFC09B054
:101F500030BD000041E5002034D90308F8B58AB04F
:101F600006000C0000252000C0B200280CD0AA20DA
:101F700002A92A00D2B288546D1CBB2002A92A00F3
:101F8000D2B288546D1C05E0AB2002A92A00D2B25F
:101F900088546D1C012002A92A00D2B288546D1CFD
:101FA0000D2002A92A00D2B288546D1C707A02A9B1
:101FB0002A00D2B288546D1C4F48717A00EB410060
:101FC0004D49727A01EB420131F8021C491C20F89C
:101FD000021CF07A02A92A00D2B288546D1C082192
:101FE00000226F46380004F06BFAB08901280FD048
:101FF00035D3032814D00FD3052819D014D30728BC
:102000001ED019D3092823D01ED30A2824D026E0B5
:1020100001208DF8000022E002208DF800001EE073
:1020200001208DF801001AE002208DF8010016E071
:1020300001208DF8020012E002208DF802000EE06F
:1020400001208DF803000AE002208DF8030006E06D
:1020500001208DF8040002E002208DF8040008221F
:10206000694602A82B00DBB200EB0306300003F048
:1020700085FE0835082102A8E4B22044401DFEF781
:10208000D0F802A92A00D2B288546D1C000A02A915
:102090002A00D2B288546D1C0D2002A92A00D2B2A7
:1020A00088546D1C42F21073EDB22A0092B202A95C
:1020B000154809F068FB0BB0F0BD0000B8C8030874
:1020C000C0CD0020D8C8030870C40308F8C80308AE
:1020D00046E5002042E50020A8D70020E0D60020F9
:1020E00043E5002047E5002030D10020AAD700209A
:1020F00048D90308B0E2002080E100200C02002053
:1021000010DE002038BF030870E00020FCCE03087A
:102110002DE9FC4105000F00160000240020DFF827
:10212000F4092900C9B2084410F8010C00280ED0A7
:10213000022800F08483C0F00881042800F06F8733
:10214000C0F0EE85052801F0E98001F04BBADFF818
:10215000C8192A00D2B21820424301EB020010F83D
:10216000180C002840F0EF80DFF8980B0088318BC6
:1021700088425ED3307800285BD001203075002083
:1021800070750121DFF894292B00DBB2172043433F
:1021900002EB030020F80B1CDFF88409C18ADFF88A
:1021A0007C292B00DBB21720434302EB030020F80D
:1021B000091C3900C9B2DFF864292B00DBB21720F3
:1021C000434302EB03001738FFF706FD0124DFF855
:1021D00054290121002004F0E7F801232A00D2B29B
:1021E000DFF84419DFF8440903F018FFDFF83C2951
:1021F0000121002004F0D8F803F06FFEDFF8040B93
:1022000000883C2190FBF1F201FB12000190DFF805
:10221000F40A00883C2190FBF1F0009001232A0091
:10222000D2B2DFF80C19DFF80C0903F0D9FE03F085
:102230005CFE5FF0010805E000204146C9B2705421
:1022400018F101084046B17DC0B288427BD2DFF868
:10225000B40A00884146C9B206EB4101098B8842A5
:10226000EED34046C0B2305C0028E9D02000C0B2B6
:102270000028E5D14046C0B206EB4000008B0028A4
:10228000DAD00120307586F815800121DFF88C281E
:102290002B00DBB21720434302EB030020F80B1C9A
:1022A000DFF87C08C18ADFF874282B00DBB2172026
:1022B000434302EB030020F8091C3900C9B2DFF8E0
:1022C0005C282B00DBB21720434302EB03001738D6
:1022D000FFF782FC0120DFF84C280121002004F0E8
:1022E00063F84346DBB25B1C2A00D2B2DFF8381831
:1022F000DFF8380803F092FEDFF8302801210020D3
:1023000004F052F803F0E9FDDFF8F80900883C21F9
:1023100090FBF1F201FB12000190DFF8E809008860
:102320003C2190FBF1F000905FFA88F818F1010869
:1023300043462A00D2B2DFF8F817DFF8F80703F0B7
:102340004FFE03F0D2FD01F054B9DFF8CC172A009C
:10235000D2B21820424301EB020010F8140C0028FE
:1023600040F06B82B6F84E00B6F84810884201D2B1
:10237000012008E0B6F84800B6F84E10884201D1B6
:10238000022000E000200100C9B2012940F0F580E0
:10239000DFF870090088B6F84E10884279D3DFF86C
:1023A00064090088B6F84810884272D22000C0B292
:1023B00000286ED10321DFF864272B00DBB2172041
:1023C000434302EB030020F80B1C0021DFF84C27ED
:1023D0002B00DBB21720434302EB030020F8091C5B
:1023E000B6F84210DFF834272B00DBB21720434346
:1023F00002EB030020F8061CB6F84410DFF81C2797
:102400002B00DBB21720434302EB030020F8041C2F
:102410003900C9B2DFF804272B00DBB21720434391
:1024200002EB03001738FFF7D7FB0120DFF8F42693
:102430000121002003F0B8FF01232A00D2B2DFF807
:10244000C818DFF8E80603F0E9FDDFF8E02601210F
:10245000002003F0A9FF03F040FDDFF8A808008882
:102460003C2190FBF1F201FB12000190DFF894088F
:1024700000883C2190FBF1F0009001232A00D2B2A9
:10248000DFF88818DFF8AC0603F0AAFD03F02DFD95
:10249000D3E1E4B2002C40F0D0810321DFF87C26A8
:1024A0002B00DBB21720434302EB030020F80B1C88
:1024B0004FF41671DFF864262B00DBB2172043437C
:1024C00002EB030020F8091CB6F84210DFF84C2696
:1024D0002B00DBB21720434302EB030020F8061C5D
:1024E000B6F84410DFF834262B00DBB21720434344
:1024F00002EB030020F8041C3900C9B2DFF81C26E7
:102500002B00DBB21720434302EB03001738FFF721
:1025100063FB0120DFF80C260121002003F044FFBB
:1025200001232A00D2B2DFF83C1EDFF8000603F0D8
:1025300075FDDFF8F8250121002003F035FF03F0D9
:10254000CCFCDFF8C00700883C2190FBF1F201FBD6
:1025500012000190DFF8AC0700883C2190FBF1F0FD
:10256000009001232A00D2B2DFF8FC1DDFF8C40579
:1025700003F036FD03F0B9FC5FE1C0B202286FD171
:102580000321DFF898252B00DBB21720434302EB31
:10259000030020F80B1C4FF41671DFF880252B0088
:1025A000DBB21720434302EB030020F8091CB6F806
:1025B0004210DFF868252B00DBB21720434302EB03
:1025C000030020F8061CB6F84410DFF850252B0055
:1025D000DBB21720434302EB030020F8041C390050
:1025E000C9B2DFF838252B00DBB21720434302EBDA
:1025F00003001738FFF7F0FA0120DFF82825012142
:10260000002003F0D1FE01232A00D2B2DFF8541DCE
:10261000DFF8180503F002FDDFF810250121002086
:1026200003F0C2FE03F059FCDFF8D80600883C2115
:1026300090FBF1F201FB12000190DFF8C806008860
:102640003C2190FBF1F0009001232A00D2B2DFF888
:10265000181DDFF8E00403F0C3FC03F046FCECE0D7
:10266000DFF8A0060088B6F8481088427AD3DFF871
:1026700094060088B6F84E10884273D22000C0B28B
:1026800000286FD10321DFF894242B00DBB2172040
:10269000434302EB030020F80B1C4FF41671DFF8E4
:1026A0007C242B00DBB21720434302EB030020F80D
:1026B000091CB6F84210DFF864242B00DBB21720A7
:1026C000434302EB030020F8061CB6F84410DFF881
:1026D0004C242B00DBB21720434302EB030020F80D
:1026E000041C3900C9B2DFF834242B00DBB21720F8
:1026F000434302EB03001738FFF76EFA0120DFF8BF
:1027000024240121002003F04FFE01232A00D2B22D
:10271000DFF8501CDFF8140403F080FCDFF80C2411
:102720000121002003F040FE03F0D7FBDFF8D405C1
:1027300000883C2190FBF1F201FB12000190DFF8D0
:10274000C40500883C2190FBF1F0009001232A0091
:10275000D2B2DFF8141CDFF8DC0303F041FC03F015
:10276000C4FB6AE0E4B2002C67D10321DFF8AC239C
:102770002B00DBB21720434302EB030020F80B1CB5
:102780000021DFF898232B00DBB21720434302EB34
:10279000030020F8091CB6F84210DFF880232B0054
:1027A000DBB21720434302EB030020F8061CB6F807
:1027B0004410DA4A2B00DBB21720434302EB03003C
:1027C00020F8041C3900C9B2D44A2B00DBB2172010
:1027D000434302EB03001738FFF7FEF90120D14A0B
:1027E0000121002003F0E0FD01232A00D2B2DFF82E
:1027F0001815CE4803F012FCCC4A0121002003F04A
:10280000D3FD03F06AFBDFF8FC0400883C2190FB59
:10281000F1F201FB12000190DFF8E80400883C218E
:1028200090FBF1F0009001232A00D2B2DFF8DC1413
:10283000C04803F0D5FB03F058FB00F0DABEB64900
:102840002A00D2B21820424301EB020010F8100C0B
:10285000002840F06382B6F85000B6F84A1088426B
:1028600001D2012008E0B6F84A00B6F850108842BC
:1028700001D1022000E000200100C9B2012940F08E
:10288000E180DFF880040088B6F85010884270D3E9
:10289000DFF870040088B6F84A10884269D2200038
:1028A000C0B2002865D104219C4A2B00DBB217205E
:1028B000434302EB030020F80B1C0021974A2B0036
:1028C000DBB21720434302EB030020F8091CB6F8E3
:1028D0004210924A2B00DBB21720434302EB030065
:1028E00020F8061CB6F844108C4A2B00DBB21720E7
:1028F000434302EB030020F8041C3900C9B2874AA5
:102900002B00DBB21720434302EB03001738FFF71D
:1029100063F90120834A0121002003F045FD0223D1
:102920002A00D2B2DFF8E013804803F077FB7F4A39
:102930000121002003F038FD03F0CFFADFF8C403D3
:1029400000883C2190FBF1F201FB12000190DFF8BE
:10295000B40300883C2190FBF1F0009002232A0090
:10296000D2B2DFF8A813734803F03AFB03F0BDFAC4
:10297000D4E1E4B2002C40F0D1810421674A2B005D
:10298000DBB21720434302EB030020F80B1C4FF48B
:102990001671624A2B00DBB21720434302EB03009F
:1029A00020F8091CB6F842105C4A2B00DBB2172055
:1029B000434302EB030020F8061CB6F84410574AC4
:1029C0002B00DBB21720434302EB030020F8041C6A
:1029D0003900C9B2514A2B00DBB21720434302EB46
:1029E00003001738FFF7F8F801204E4A01210020B4
:1029F00003F0DAFC02232A00D2B2DFF868194B4850
:102A000003F00CFB494A0121002003F0CDFC03F048
:102A100064FABC4800883C2190FBF1F201FB1200F3
:102A20000190B84800883C2190FBF1F0009002230F
:102A30002A00D2B2DFF830193E4803F0D1FA03F091
:102A400054FA6BE1C0B2022876D10421334A2B003C
:102A5000DBB21720434302EB030020F80B1C4FF4BA
:102A600016712E4A2B00DBB21720434302EB030002
:102A700020F8091CB6F84210284A2B00DBB21720B8
:102A8000434302EB030020F8061CB6F84410234A27
:102A90002B00DBB21720434302EB030020F8041C99
:102AA0003900C9B21D4A2B00DBB21720434302EBA9
:102AB00003001738FFF790F801201A4A012100207F
:102AC00003F072FC02232A00D2B2DFF898181748EC
:102AD00003F0A4FA154A0121002003F065FC03F07D
:102AE000FCF9884800883C2190FBF1F201FB1200C0
:102AF0000190844800883C2190FBF1F00090022373
:102B00002A00D2B2DFF860180A4803F069FA03F02D
:102B1000ECF903E148E4002090DC0020A0D2002082
:102B200010DE00205CD9030898DD0308B0E2002025
:102B300018C903080C02002072480088B6F84A1031
:102B4000884277D36F480088B6F85010884271D217
:102B50002000C0B200286DD10421DFF8A02B2B008B
:102B6000DBB21720434302EB030020F80B1C4FF4A9
:102B70001671DFF8882B2B00DBB21720434302EBE2
:102B8000030020F8091CB6F84210DFF8702B2B0068
:102B9000DBB21720434302EB030020F8061CB6F813
:102BA0004410DFF8582B2B00DBB21720434302EB15
:102BB000030020F8041C3900C9B2DFF8402B2B00B9
:102BC000DBB21720434302EB03001738FFF704F88A
:102BD0000120DFF82C2B0121002003F0E5FB02236C
:102BE0002A00D2B2DFF87C17DFF8180B03F016FAD0
:102BF000DFF8102B0121002003F0D6FB03F06DF964
:102C0000404800883C2190FBF1F201FB120001904A
:102C10003C4800883C2190FBF1F0009002232A0000
:102C2000D2B2DFF84417DFF8E00A03F0D9F903F075
:102C30005CF973E0E4B2002C70D10421DFF8BC2A07
:102C40002B00DBB21720434302EB030020F80B1CE0
:102C50000021DFF8A82A2B00DBB21720434302EB48
:102C6000030020F8091CB6F84210DFF8902A2B0068
:102C7000DBB21720434302EB030020F8061CB6F832
:102C80004410DFF8782A2B00DBB21720434302EB15
:102C9000030020F8041C3900C9B2DFF8602A2B00B9
:102CA000DBB21720434302EB03001738FEF794FF13
:102CB0000120DFF84C2A0121002003F075FB0223DC
:102CC0002A00D2B21049DFF83C0A03F0A7F9DFF876
:102CD000342A0121002003F067FB03F0FEF80948C5
:102CE00000883C2190FBF1F201FB120001900548A5
:102CF00000883C2190FBF1F0009002232A00D2B220
:102D0000024905E002E5002070D9030894C40308D5
:102D1000DFF8F40903F064F903F0E7F800F069BCA8
:102D2000DFF8E8192A00D2B21820424301EB020072
:102D300010F80C0C002840F07181DFF8D40929004C
:102D4000C9B2084410F8010C012840F06781DFF88F
:102D5000C4092900C9B200EB410030F8020C652813
:102D600009DADFF8B4092900C9B200EB410030F8F4
:102D7000020C65284CDB002086F855000621DFF8A0
:102D80007C292B00DBB21720434302EB030020F821
:102D90000B1C0021DFF864292B00DBB21720434312
:102DA00002EB030020F8091C3900C9B2DFF84C29F6
:102DB0002B00DBB21720434302EB03001738FEF76A
:102DC0000BFF0120DFF838290121002003F0ECFA85
:102DD00001232A00D2B2DFF84419DFF8280903F0F2
:102DE0001DF9DFF820290121002003F0DDFA03F0AE
:102DF00074F8B6F96800009001232A00D2B2DFF817
:102E00002019DFF8040903F0EBF803F06EF805E190
:102E1000B6F95800B6F96810884251DB2000C0B2FC
:102E200000284DD1012086F855000621DFF8CC2876
:102E30002B00DBB21720434302EB030020F80B1CEE
:102E40004FF41671DFF8B4282B00DBB21720434390
:102E500002EB030020F8091C3900C9B2DFF89C28F6
:102E60002B00DBB21720434302EB03001738FEF7B9
:102E7000B3FE0120DFF888280121002003F094FA36
:102E800001232A00D2B2DFF89C18DFF8780803F09B
:102E9000C5F8DFF870280121002003F085FA03F05F
:102EA0001CF8B6F96800009001232A00D2B2DFF8BE
:102EB0007818DFF8540803F093F803F016F8ADE043
:102EC00096F85500012854D1B6F96200B6F9681099
:102ED00088424EDB2000C0B200284AD10621DFF82C
:102EE0001C282B00DBB21720434302EB030020F821
:102EF0000B1C4FF41671DFF804282B00DBB21720EF
:102F0000434302EB030020F8091C3900C9B2DFF883
:102F1000EC272B00DBB21720434302EB03001738EA
:102F2000FEF75AFE0120DFF8D8270121002003F028
:102F30003BFA01232A00D2B2DFF8F017DFF8C4070A
:102F400003F06CF8DFF8BC270121002003F02CFA15
:102F500002F0C3FFB6F96800009001232A00D2B244
:102F6000DFF8CC17DFF8A00703F03AF802F0BDFF56
:102F700054E0B6F96800B6F9621088424EDBE4B25C
:102F8000002C4BD1002086F855000621DFF86C2775
:102F90002B00DBB21720434302EB030020F80B1C8D
:102FA0000021DFF858272B00DBB21720434302EB48
:102FB000030020F8091C3900C9B2DFF840272B00B4
:102FC000DBB21720434302EB03001738FEF704FE81
:102FD0000120DFF82C270121002003F0E5F901236F
:102FE0002A00D2B2DFF84C17DFF8180703F016F802
:102FF000DFF810270121002003F0D6F902F06DFF61
:10300000B6F96800009001232A00D2B2DFF8281731
:10301000DFF8F40602F0E4FF02F067FFE9E2DFF810
:10302000EC162A00D2B21820424301EB020010F83D
:10303000080C002840F07181DFF8D4062900C9B2DD
:10304000084410F8010C012840F06781DFF8C4063D
:103050002900C9B200EB410030F8020C652809DAFA
:10306000DFF8B4062900C9B200EB410030F8020CC9
:1030700065284CDB002086F855000621DFF87C2609
:103080002B00DBB21720434302EB030020F80B1C9C
:103090000021DFF868262B00DBB21720434302EB48
:1030A000030020F8091C3900C9B2DFF850262B00B4
:1030B000DBB21720434302EB03001738FEF78CFD09
:1030C0000120DFF83C260121002003F06DF90223E6
:1030D0002A00D2B2DFF84416DFF8280602F09EFF7D
:1030E000DFF820260121002003F05EF902F0F5FE52
:1030F000B6F96800009001232A00D2B2DFF820164A
:10310000DFF8040602F06CFF02F0EFFE05E1B6F90D
:103110005A00B6F96810884251DB2000C0B200287E
:103120004DD1012086F856000721DFF8D0252B006D
:10313000DBB21720434302EB030020F80B1C4FF4D3
:103140001671DFF8B8252B00DBB21720434302EBE2
:10315000030020F8091C3900C9B2DFF8A0252B00B4
:10316000DBB21720434302EB03001738FEF734FDB0
:103170000120DFF88C250121002003F015F902233E
:103180002A00D2B2DFF89C15DFF8780502F046FF7E
:10319000DFF870250121002003F006F902F09DFE02
:1031A000B6F96800009002232A00D2B2DFF8781541
:1031B000DFF8540502F014FF02F097FEADE096F838
:1031C0005600012854D1B6F96400B6F96810884257
:1031D0004EDB2000C0B200284AD10721DFF81C25B1
:1031E0002B00DBB21720434302EB030020F80B1C3B
:1031F0004FF41671DFF804252B00DBB21720434390
:1032000002EB030020F8091C3900C9B2DFF8EC24F6
:103210002B00DBB21720434302EB03001738FEF705
:10322000DBFC0120DFF8D8240121002003F0BCF8EA
:1032300002232A00D2B2DFF8F414DFF8C80402F047
:10324000EDFEDFF8C0240121002003F0ADF802F00C
:1032500044FEB6F96800009002232A00D2B2DFF8DB
:10326000D014DFF8A40402F0BBFE02F03EFE54E0EE
:10327000B6F96800B6F9641088424EDBE4B2002C5F
:103280004BD1002086F856000721DFF870242B0070
:10329000DBB21720434302EB030020F80B1C002194
:1032A000DFF858242B00DBB21720434302EB030066
:1032B00020F8091C3900C9B2DFF840242B00DBB22A
:1032C0001720434302EB03001738FEF785FC01206B
:1032D000DFF82C240121002003F066F802232A00E5
:1032E000D2B2DFF85014DFF81C0402F097FEDFF8CA
:1032F00014240121002003F057F802F0EEFDB6F986
:103300006800009002232A00D2B2DFF82C14DFF804
:10331000F80302F065FE02F0E8FD6AE1DFF8EC1365
:103320002A00D2B21820424301EB020010F8040C2C
:10333000002840F05681DFF8D8032900C9B20844BC
:1033400010F8010C012840F04C81DFF8C803290077
:10335000C9B200EB410030F8020C65280EDADFF844
:10336000B80303E0A8DD0308B8C403082900C9B204
:1033700000EB410030F8020C652847DB002086F89E
:1033800055000821DFF874232B00DBB217204343DC
:1033900002EB030020F80B1C0021DFF860232B0058
:1033A000DBB21720434302EB030020F8091C39006D
:1033B000C9B2DFF848232B00DBB21720434302EBEE
:1033C00003001738FEF708FC0120CD4A0121002038
:1033D00002F0EAFF03232A00D2B2DFF84013C94803
:1033E00002F01CFEC74A0121002002F0DDFF02F0BE
:1033F00074FDB6F96800009001232A00D2B2C849D2
:10340000C14802F0EDFD02F070FDEAE0B6F95C00A3
:10341000B6F96810884248DB2000C0B2002844D1C9
:10342000012086F857000821B44A2B00DBB2172090
:10343000434302EB030020F80B1C4FF41671AF4A14
:103440002B00DBB21720434302EB030020F8091CDA
:103450003900C9B2A94A2B00DBB21720434302EB63
:1034600003001738FEF7B8FB0120A54A0121002010
:1034700002F09AFF03232A00D2B2AA49A14802F01F
:10348000CDFDA04A0121002002F08EFF02F025FDB3
:10349000B6F96800009003232A00D2B2A2499A48E4
:1034A00002F09EFD02F021FD9BE096F857000128F6
:1034B0004BD1B6F96600B6F96810884245DB2000AA
:1034C000C0B2002841D108218C4A2B00DBB2172062
:1034D000434302EB030020F80B1C4FF41671874A9C
:1034E0002B00DBB21720434302EB030020F8091C3A
:1034F0003900C9B2814A2B00DBB21720434302EBEB
:1035000003001738FEF768FB01207D4A01210020E7
:1035100002F04AFF03232A00D2B28449794802F01C
:103520007DFD784A0121002002F03EFF02F0D5FC2B
:10353000B6F96800009003232A00D2B27C49724891
:1035400002F04EFD02F0D1FC4BE0B6F96800B6F98E
:103550006610884245DBE4B2002C42D1002086F898
:1035600057000821654A2B00DBB21720434302EBCA
:10357000030020F80B1C0021604A2B00DBB217204F
:10358000434302EB030020F8091C3900C9B25B4A2F
:103590002B00DBB21720434302EB03001738FEF782
:1035A0001BFB0120564A0121002002F0FDFE0323EF
:1035B0002A00D2B25F49534802F030FD514A01213E
:1035C000002002F0F1FE02F088FCB6F968000090DD
:1035D00003232A00D2B258494B4802F001FD02F001
:1035E00084FC06E0002055492A00D2B2114401F8BB
:1035F000010C52482900C9B2084410F8010C401CC3
:103600004E492A00D2B2114401F8010C4B4829005E
:10361000C9B2084410F8010C012817D196F84600E9
:1036200000285AD196F85400002807D100204349B9
:103630002A00D2B2114401F8010C4EE003203F49A8
:103640002A00D2B2114401F8010C46E03B4829009F
:10365000C9B2084410F8010C022817D196F84600A8
:1036600001283AD196F85400002807D100203349A8
:103670002A00D2B2114401F8010C2EE003202F4998
:103680002A00D2B2114401F8010C26E02B4829008F
:10369000C9B2084410F8010C04280BD196F8540064
:1036A00001281AD1002025492A00D2B2114401F87C
:1036B000010C12E021482900C9B2084410F8010C9D
:1036C00005280AD196F85400022806D100201B498B
:1036D0002A00D2B2114401F8010C18482900C9B2DD
:1036E000084410F8010C062805DB00201349EDB250
:1036F000294401F8010CBDE8F3810000A0D20020AC
:103700005CD90308B0E200200C02002090DC00200D
:1037100050E40020E4E30020ECE300208CD3030815
:1037200038C90308B8DD030818CF0308C8DD03084B
:1037300034CF030884D9030850CF030848E400209D
:10374000FEB504001500DFF8B00C2200D2B2104420
:1037500010F8016C00200022DFF8A07CDFF8A0CC7C
:10376000A6465FFA8EFE4FF4847303FB0EFE0CEB4D
:103770000E03B4465FFA8CFC6344B3F5837393F88D
:1037800000C06E2303FB0CFC07EB0C03B3F86A309C
:10379000A5F80431DFF8647CDFF864CCA6465FFA54
:1037A0008EFE4FF4847303FB0EFE0CEB0E03B44647
:1037B0005FFA8CFC6344B3F5837393F800C06E2307
:1037C00003FB0CFC07EB0C03B3F86830A5F80231DF
:1037D0003300DBB22B4493F84230012B41F0468397
:1037E000DFF8203C2F783B4413F8013C012B41F0DB
:1037F0003D83DFF8143C2700FFB203EB470333F8A7
:10380000023C652B09DADFF8043C2700FFB203EB2A
:10381000470333F8023C652B52DB00203200D2B262
:103820002A4482F862003200D2B2521CDFF8E03B38
:103830002700FFB21720474303EB070020F80B2CAB
:103840000022DFF8CC3B2700FFB21720474303EBF1
:10385000070020F8092CC9B2DFF8B42B2300DBB233
:103860001720434302EB03001738FEF7B5F9DFF8E2
:10387000A42B0121002002F097FDF6B2761C330044
:103880002200D2B2DFF8901BDFF8900B02F0C6FBEB
:10389000DFF8882B0121002002F086FD02F01DFBDD
:1038A000B5F90201009001232200D2B2DFF8701BAB
:1038B000DFF8700B02F094FB02F017FB01F0EBBA9B
:1038C0003300DBB22B449B7C012B40F0C5853300D9
:1038D000DBB22B4493F82230012B40F0BD8533003E
:1038E000DBB205EB4303B3F972303700FFB205EBEF
:1038F0004707B7F9C270BB4200DA01203300DBB2E0
:1039000005EB4303B3F992303700FFB205EB4707ED
:10391000B7F9E270BB4200DA01220300DBB2012BEF
:1039200040F061811300DBB2012B40F05C8130007C
:10393000C0B205EB4000B0F97200B5F90221904227
:1039400009DA3000C0B205EB4000B0F99200B5F9D9
:103950000421904256DB01203200D2B22A4482F880
:1039600062003200D2B2521CDFF8A43A2700FFB244
:103970001720474303EB070020F80B2C4FF4167277
:10398000DFF88C3A2700FFB21720474303EB07000C
:1039900020F8092CC9B2DFF8782A2300DBB21720FF
:1039A000434302EB03001738FEF716F9DFF8642AE9
:1039B0000121002002F0F8FC3300DBB22200D2B279
:1039C000DFF8641ADFF8540A02F028FBDFF84C2A0B
:1039D0000121002002F0E8FC02F07FFAB5F90401B1
:1039E0000190B5F902010090F6B233002200D2B284
:1039F000DFF8381ADFF82C0A02F0F2FA02F075FA52
:103A000001F049BA3000C0B2284490F862000128A1
:103A100009D13000C0B205EB4000B0F9C200B5F9E1
:103A20000221904209DA3000C0B205EB4000B0F943
:103A3000E200B5F90421904250DB3200D2B2521CB0
:103A4000DFF8CC392700FFB21720474303EB07000C
:103A500020F80B2C4FF41672DFF8B4392700FFB2B0
:103A60001720474303EB070020F8092CC9B2DFF801
:103A7000A0292300DBB21720434302EB03001738D1
:103A8000FEF7AAF8DFF88C290121002002F08CFC57
:103A90003300DBB22200D2B2DFF89419DFF87C09E0
:103AA00002F0BCFADFF874290121002002F07CFC4E
:103AB00002F013FAB5F904010190B5F90201009082
:103AC000F6B233002200D2B2DFF86819DFF85409E9
:103AD00002F086FA02F009FA01F0DDB9B5F9020147
:103AE0003200D2B205EB4202B2F9C22090425FDB53
:103AF000B5F904013200D2B205EB4202B2F9E2207C
:103B0000904255DB00203200D2B22A4482F8620093
:103B10003200D2B2521CDFF8F8382700FFB217206B
:103B2000474303EB070020F80B2C0022DFF8E038B6
:103B30002700FFB21720474303EB070020F8092CAA
:103B4000C9B2DFF8CC282300DBB21720434302EBD5
:103B500003001738FEF740F8DFF8B82801210020ED
:103B600002F022FC3300DBB22200D2B2DFF8C81828
:103B7000DFF8A80802F052FADFF8A028012100209F
:103B800002F012FC02F0A9F9B5F904010190B5F9AF
:103B900002010090F6B233002200D2B2DFF89C1886
:103BA000DFF8800802F01CFA02F09FF901F073B907
:103BB0000122DFF85C38DFF88808067817204643D2
:103BC00003EB060000F80C2CC9B2DFF84428DFF83C
:103BD000700803781720434302EB03001738FDF702
:103BE000FBFF01F058B90300DBB2012B40F061810B
:103BF0001300DBB2002B40F05C813000C0B205EB5B
:103C00004000B0F97200B5F90221904209DAB5F925
:103C100004013200D2B205EB4202B2F99220904286
:103C200056DB01203200D2B22A4482F86200320010
:103C3000D2B2521CDFF8D8372700FFB21720474313
:103C400003EB070020F80B2C4FF41672DFF8C03797
:103C50002700FFB21720474303EB070020F8092C89
:103C6000C9B2DFF8AC272300DBB21720434302EBD5
:103C700003001738FDF7B0FFDFF898270121002077
:103C800002F092FB3300DBB22200D2B2DFF89817C9
:103C9000DFF8880702F0C2F9DFF880270121002051
:103CA00002F082FB02F019F9B5F904010190B5F9AF
:103CB00002010090F6B233002200D2B2DFF884177E
:103CC000DFF8600702F08CF902F00FF901F0E3B8B9
:103CD0003000C0B2284490F86200012809D13000B9
:103CE000C0B205EB4000B0F9C200B5F90221904224
:103CF00009DAB5F904013200D2B205EB4202B2F999
:103D0000E220904250DB3200D2B2521CDFF8003782
:103D10002700FFB21720474303EB070020F80B2CC6
:103D20004FF41672DFF8E8362700FFB2172047433A
:103D300003EB070020F8092CC9B2DFF8D4262300D2
:103D4000DBB21720434302EB03001738FDF744FFB3
:103D5000DFF8C0260121002002F026FB3300DBB291
:103D60002200D2B2DFF8C816DFF8B00602F056F92A
:103D7000DFF8A8260121002002F016FB02F0ADF8C2
:103D8000B5F904010190B5F902010090F6B23300D3
:103D90002200D2B2DFF8B016DFF8880602F020F970
:103DA00002F0A3F801F077B8B5F902013200D2B2FF
:103DB00005EB4202B2F9C22090425FDB3000C0B294
:103DC00005EB4000B0F9E200B5F90421904255DB63
:103DD00000203200D2B22A4482F862003200D2B20D
:103DE000521CDFF82C362700FFB21720474303EBA5
:103DF000070020F80B2C0022DFF814362700FFB252
:103E00001720474303EB070020F8092CC9B2DFF85D
:103E100000262300DBB21720434302EB03001738D0
:103E2000FDF7DAFEDFF8EC250121002002F0BCFAF4
:103E30003300DBB22200D2B2DFF8FC15DFF8DC057C
:103E400002F0ECF8DFF8D4250121002002F0ACFAF2
:103E500002F043F8B5F904010190B5F902010090B0
:103E6000F6B233002200D2B2DFF8E015DFF8B40575
:103E700002F0B6F802F039F801F00DB80122DFF8CF
:103E80009035DFF8BC0506781720464303EB0600A3
:103E900000F80C2CC9B2DFF87825DFF8A405037808
:103EA0001720434302EB03001738FDF795FE00F09F
:103EB000F2BF0300DBB2002B40F055811300DBB2F0
:103EC000012B40F05081B5F902013200D2B205EB6E
:103ED0004202B2F97220904209DA3000C0B205EB1A
:103EE0004000B0F99200B5F90421904256DB012060
:103EF0003200D2B22A4482F862003200D2B2521C9E
:103F0000DFF80C352700FFB21720474303EB07000B
:103F100020F80B2C4FF41672DFF8F4342700FFB2B0
:103F20001720474303EB070020F8092CC9B2DFF83C
:103F3000E0242300DBB21720434302EB03001738D1
:103F4000FDF74AFEDFF8CC240121002002F02CFA14
:103F50003300DBB22200D2B2DFF8CC14DFF8BC04AD
:103F600002F05CF8DFF8B4240121002002F01CFA12
:103F700001F0B3FFB5F904010190B5F90201009019
:103F8000F6B233002200D2B2DFF8C414DFF8940492
:103F900002F026F801F0A9FF00F07DBF3000C0B2AA
:103FA000284490F86200012809D1B5F902013200D5
:103FB000D2B205EB4202B2F9C220904209DA3000D7
:103FC000C0B205EB4000B0F9E200B5F9042190421F
:103FD00050DB3200D2B2521CDFF834342700FFB27B
:103FE0001720474303EB070020F80B2C4FF4167201
:103FF000DFF81C342700FFB21720474303EB07000C
:1040000020F8092CC9B2DFF808242300DBB21720FE
:10401000434302EB03001738FDF7DEFDDFF8F4231E
:104020000121002002F0C0F93300DBB22200D2B23D
:10403000DFF8FC13DFF8E40301F0F0FFDFF8DC2326
:104040000121002002F0B0F901F047FFB5F90401A9
:104050000190B5F902010090F6B233002200D2B20D
:10406000DFF8F013DFF8BC0301F0BAFF01F03DFF09
:1040700000F011BF3000C0B205EB4000B0F9C20043
:10408000B5F90221904257DBB5F904013200D2B2F2
:1040900005EB4202B2F9E22090424DDB00203200F3
:1040A000D2B22A4482F862003200D2B2521CD84BFB
:1040B0002700FFB21720474303EB070020F80B2C23
:1040C0000022D34B2700FFB21720474303EB070022
:1040D00020F8092CC9B2CE4A2300DBB21720434393
:1040E00002EB03001738FDF777FDCA4A01210020D3
:1040F00002F05AF93300DBB22200D2B2CE49C748EF
:1041000001F08CFFC54A0121002002F04DF901F0B9
:10411000E4FEB5F904010190B5F902010090F6B290
:1041200033002200D2B2DFF8181EBE4801F058FF5B
:1041300001F0DBFE00F0AFBE0122B54BC0480678AF
:104140001720464303EB060000F80C2CC9B2B04A16
:10415000BB4803781720434302EB03001738FDF7F1
:104160003BFD00F098BEC0B2002840F09486D2B269
:10417000002A40F09086B5F902013200D2B205EB78
:104180004202B2F97220904209DAB5F90401320014
:10419000D2B205EB4202B2F9922090424EDB0120EE
:1041A0003200D2B22A4482F862003200D2B2521CEB
:1041B000974B2700FFB21720474303EB070020F877
:1041C0000B2C4FF41672924B2700FFB21720474377
:1041D00003EB070020F8092CC9B28D4A2300DBB29B
:1041E0001720434302EB03001738FDF7F5FC894A1B
:1041F0000121002002F0D8F83300DBB22200D2B255
:104200008949864801F00AFF844A0121002002F012
:10421000CBF801F062FEB5F904010190B5F9020195
:104220000090F6B233002200D2B2DFF8181D7D48AC
:1042300001F0D6FE01F059FE00F02DBE3000C0B2F4
:10424000284490F86200012809D1B5F90201320032
:10425000D2B205EB4202B2F9C220904209DAB5F9B6
:1042600004013200D2B205EB4202B2F9E2209042E0
:1042700048DB3200D2B2521C654B2700FFB2172038
:10428000474303EB070020F80B2C4FF41672604BEA
:104290002700FFB21720474303EB070020F8092C43
:1042A000C9B25B4A2300DBB21720434302EB030091
:1042B0001738FDF791FC574A0121002002F074F8ED
:1042C0003300DBB22200D2B25949544801F0A6FEB5
:1042D000524A0121002002F067F801F0FEFDB5F915
:1042E00004010190B5F902010090F6B233002200FA
:1042F000D2B2DFF8541C4B4801F072FE01F0F5FD1C
:1043000000F0C9BD3000C0B205EB4000B0F9C200FA
:10431000B5F90221904257DB3000C0B205EB4000F6
:10432000B0F9E200B5F9042190424DDB00203200E3
:10433000D2B22A4482F862003200D2B2521C344B0C
:104340002700FFB21720474303EB070020F80B2C90
:1043500000222F4B2700FFB21720474303EB070033
:1043600020F8092CC9B22A4A2300DBB217204343A4
:1043700002EB03001738FDF72FFC264A012100202D
:1043800002F012F83300DBB22200D2B22A492348ED
:1043900001F044FE214A0121002002F005F801F05D
:1043A0009CFDB5F904010190B5F902010090F6B247
:1043B00033002200D2B2DFF8941B1A4801F010FE3D
:1043C00001F093FD00F067BD0122114B1C480678F7
:1043D0001720464303EB060000F80C2CC9B20C4A28
:1043E000174803781720434302EB03001738FDF703
:1043F000F3FB00F050BD00BF9CE30020C0CD0020C7
:10440000F089002050E40020E4E30020ECE30020E9
:10441000A0D200205CD90308D8DD0308B0E2002058
:1044200058C903080C020020E8DD0308D8AA0308D5
:10443000F8DD030824AB030808DE030870AB0308AB
:1044400063E50020BCAB030808AC030810A8030810
:1044500054AC0308A0AC03083300DBB22B449B7CB4
:10446000012B40F08E823200D2B205EB4202B2F94B
:1044700072203300DBB205EB4303B3F9C2309A423A
:1044800000DA01200200D2B2012A40F03C81300063
:10449000C0B205EB4000B0F97200B5F902219042BC
:1044A00056DB01203200D2B22A4482F86200320088
:1044B000D2B2521CDFF8983A2700FFB217204743C8
:1044C00003EB070020F80B2C4FF41672DFF8803A4C
:1044D0002700FFB21720474303EB070020F8092C01
:1044E000C9B2DFF86C2A2300DBB21720434302EB8A
:1044F00003001738FDF770FBDFF8582A0121002070
:1045000001F052FF3300DBB22200D2B2DFF8481ACA
:10451000DFF8480A01F082FDDFF8402A012100207F
:1045200001F042FF01F0D9FCB5F904010190B5F9A1
:1045300002010090F6B233002200D2B2DFF8201A56
:10454000DFF8200A01F04CFD01F0CFFC00F0A3BC25
:104550003000C0B2284490F8620001285AD13000DF
:10456000C0B205EB4000B0F9C200B5F9022190429B
:1045700050DB3200D2B2521CDFF8D4392700FFB230
:104580001720474303EB070020F80B2C4FF416725B
:10459000DFF8BC392700FFB21720474303EB0700C1
:1045A00020F8092CC9B2DFF8A8292300DBB21720B4
:1045B000434302EB03001738FDF70EFBDFF89429A5
:1045C0000121002001F0F0FE3300DBB22200D2B264
:1045D000DFF89419DFF8840901F020FDDFF87C2969
:1045E0000121002001F0E0FE01F077FCB5F90401A3
:1045F0000190B5F902010090F6B233002200D2B268
:10460000DFF86819DFF85C0901F0EAFC01F06DFCE5
:1046100000F041BCB5F902013200D2B205EB420212
:10462000B2F9C220904254DB00203200D2B22A44B8
:1046300082F862003200D2B2521CDFF8143927002F
:10464000FFB21720474303EB070020F80B2C002292
:10465000DFF8FC382700FFB21720474303EB0700C1
:1046600020F8092CC9B2DFF8E8282300DBB21720B4
:10467000434302EB03001738FDF7AEFADFF8D42806
:104680000121002001F090FE3300DBB22200D2B203
:10469000DFF8DC18DFF8C40801F0C0FCDFF8BC2844
:1046A0000121002001F080FE01F017FCB5F90401A2
:1046B0000190B5F902010090F6B233002200D2B2A7
:1046C000DFF8B018DFF89C0801F08AFC01F00DFC5F
:1046D000E1E30122DFF87838DFF89C08067817203C
:1046E000464303EB060000F80C2CC9B2DFF8602843
:1046F000DFF8840803781720434302EB03001738E0
:10470000FDF76AFAC7E3C0B2002840F0C483B5F9E8
:1047100002013200D2B205EB4202B2F9722090429D
:1047200055DB01203200D2B22A4482F86200320006
:10473000D2B2521CDFF818382700FFB217204743C7
:1047400003EB070020F80B2C4FF41672DFF800384B
:104750002700FFB21720474303EB070020F8092C7E
:10476000C9B2DFF8EC272300DBB21720434302EB8A
:1047700003001738FDF730FADFF8D82701210020B1
:1047800001F012FE3300DBB22200D2B2DFF8C8170C
:10479000DFF8C80701F042FCDFF8C0270121002044
:1047A00001F002FE01F099FBB5F904010190B5F9A1
:1047B00002010090F6B233002200D2B2DFF8BC173B
:1047C000DFF8A00701F00CFC01F08FFB63E3300081
:1047D000C0B2284490F86200012859D1B5F902010D
:1047E0003200D2B205EB4202B2F9C22090424FDB56
:1047F0003200D2B2521CDFF858372700FFB2172020
:10480000474303EB070020F80B2C4FF41672DFF838
:1048100040372700FFB21720474303EB070020F87B
:10482000092CC9B2DFF828272300DBB21720434345
:1048300002EB03001738FDF7CFF9DFF81827012145
:10484000002001F0B1FD3300DBB22200D2B2DFF86C
:104850001817DFF8080701F0E1FBDFF80027012156
:10486000002001F0A1FD01F038FBB5F90401019031
:10487000B5F902010090F6B233002200D2B2DFF89F
:104880000017DFF8E00601F0ABFB01F02EFB02E3BE
:104890003000C0B205EB4000B0F9C200B5F902210A
:1048A000904254DB00203200D2B22A4482F86200E7
:1048B0003200D2B2521CDFF898362700FFB2172020
:1048C000474303EB070020F80B2C0022DFF880366B
:1048D0002700FFB21720474303EB070020F8092CFD
:1048E000C9B2DFF86C262300DBB21720434302EB8A
:1048F00003001738FDF770F9DFF858260121002072
:1049000001F052FD3300DBB22200D2B2DFF86016B4
:10491000DFF8480601F082FBDFF840260121002085
:1049200001F042FD01F0D9FAB5F904010190B5F9A1
:1049300002010090F6B233002200D2B2DFF8441632
:10494000DFF8200601F04CFB01F0CFFAA3E20122D0
:10495000DFF8FC35DFF8200606781720464303EB26
:10496000060000F80C2CC9B2DFF8E425DFF80806D1
:1049700003781720434302EB03001738FDF72CF9A7
:1049800089E23000C0B2284490F82200012840F0AB
:1049900082823000C0B205EB4000B0F992003300D3
:1049A000DBB205EB4303B3F9E230984200DA0122AF
:1049B0001000C0B2012840F037813000C0B205EBD2
:1049C0004000B0F99200B5F90421904255DB012076
:1049D0003200D2B22A4482F862003200D2B2521CB3
:1049E000DFF86C352700FFB21720474303EB0700C1
:1049F00020F80B2C4FF41672DFF854352700FFB265
:104A00001720474303EB070020F8092CC9B2DFF851
:104A100040252300DBB21720434302EB0300173885
:104A2000FDF7DAF8DFF82C250121002001F0BCFCAD
:104A30003300DBB22200D2B2DFF81C15DFF81C0510
:104A400001F0ECFADFF814250121002001F0ACFCA4
:104A500001F043FAB5F904010190B5F902010090A3
:104A6000F6B233002200D2B2DFF81C15DFF8F404EE
:104A700001F0B6FA01F039FA0DE23000C0B2284474
:104A800090F86200012859D13000C0B205EB400017
:104A9000B0F9E200B5F9042190424FDB3200D2B206
:104AA000521CDFF8AC342700FFB21720474303EB5A
:104AB000070020F80B2C4FF41672DFF8943427000F
:104AC000FFB21720474303EB070020F8092CC9B2B7
:104AD000DFF87C242300DBB21720434302EB030002
:104AE0001738FDF779F8DFF86C240121002001F078
:104AF0005BFC3300DBB22200D2B2DFF86C14DFF8CB
:104B00005C0401F08BFADFF854240121002001F04D
:104B10004BFC01F0E2F9B5F904010190B5F902018D
:104B20000090F6B233002200D2B2DFF8D01CDFF8DA
:104B3000340401F055FA01F0D8F9ACE1B5F90401FB
:104B40003200D2B205EB4202B2F9E220904254DBCD
:104B500000203200D2B22A4482F862003200D2B27F
:104B6000521CDFF8EC332700FFB21720474303EB5A
:104B7000070020F80B2C0022DFF8D4332700FFB207
:104B80001720474303EB070020F8092CC9B2DFF8D0
:104B9000C0232300DBB21720434302EB0300173886
:104BA000FDF71AF8DFF8AC230121002001F0FCFB2F
:104BB0003300DBB22200D2B2DFF8B413DFF89C037B
:104BC00001F02CFADFF894230121002001F0ECFB26
:104BD00001F083F9B5F904010190B5F902010090E3
:104BE000F6B233002200D2B2DFF8141CDFF87403EF
:104BF00001F0F6F901F079F94DE10122D44BDFF82B
:104C0000780306781720464303EB060000F80C2CC7
:104C1000C9B2CF4AD84803781720434302EB0300B8
:104C20001738FCF7D9FF36E1D2B2002A40F03381C1
:104C3000B5F904013200D2B205EB4202B2F992207A
:104C400090424DDB01203200D2B22A4482F8620049
:104C50003200D2B2521CBE4B2700FFB2172047438E
:104C600003EB070020F80B2C4FF41672B84B27000B
:104C7000FFB21720474303EB070020F8092CC9B205
:104C8000B34A2300DBB21720434302EB030017387B
:104C9000FCF7A2FFAF4A0121002001F085FB3300A1
:104CA000DBB22200D2B2AC49AC4801F0B7F9AB4A52
:104CB0000121002001F078FB01F00FF9B5F90401A2
:104CC0000190B5F902010090F6B233002200D2B291
:104CD000DFF8301BA34801F083F901F006F9DAE0B0
:104CE0003000C0B2284490F86200012851D1B5F9D3
:104CF00004013200D2B205EB4202B2F9E220904246
:104D000047DB3200D2B2521C914B2700FFB2172072
:104D1000474303EB070020F80B2C4FF416728C4B23
:104D20002700FFB21720474303EB070020F8092CA8
:104D3000C9B2874A2300DBB21720434302EB0300CA
:104D40001738FCF749FF834A0121002001F02CFBB2
:104D50003300DBB22200D2B28349804801F05EF911
:104D60007E4A0121002001F01FFB01F0B6F8B5F9E1
:104D700004010190B5F902010090F6B2330022005F
:104D8000D2B2DFF8841A774801F02AF901F0ADF8C1
:104D900081E03000C0B205EB4000B0F9E200B5F9A7
:104DA000042190424CDB00203200D2B22A4482F827
:104DB00062003200D2B2521C654B2700FFB21720AE
:104DC000474303EB070020F80B2C0022604B270021
:104DD000FFB21720474303EB070020F8092CC9B2A4
:104DE0005B4A2300DBB21720434302EB0300173872
:104DF000FCF7F2FE574A0121002001F0D5FA3300FA
:104E0000DBB22200D2B25A49544801F007F9534AA2
:104E10000121002001F0C8FA01F05FF8B5F90401A2
:104E20000190B5F902010090F6B233002200D2B22F
:104E3000DFF8D8194B4801F0D3F801F056F82AE012
:104E40000122434B4C4806781720464303EB0600EB
:104E500000F80C2CC9B23E4A474803781720434358
:104E600002EB03001738FCF7B7FE14E00122384BC1
:104E7000414806781720464303EB060000F80C2C47
:104E8000C9B2334A3C4803781720434302EB03007E
:104E90001738FCF7A1FEDFF8480C2100C9B208441E
:104EA00010F8010C401CDFF8381C2200D2B211446B
:104EB00001F8010CDFF8280C2100C9B2084410F8F1
:104EC000010C102807DB0020DFF8141C2200D2B2EE
:104ED000114401F8010C002021E00021DFF8002C32
:104EE0002300DBB21A4402F8011C17E0DFF8F01BC4
:104EF0002200D2B2114411F8011C1029EDDADFF8BA
:104F0000E01B2200D2B2114411F8011C491CDFF849
:104F1000D02B2300DBB21A4402F8011C401C010014
:104F2000C9B210290BDADFF8B81B2200D2B2114443
:104F300011F8011C294491F832100129D6D1F7BD8E
:104F400060A80308B0A8030800A9030850A9030833
:104F5000A0D200205CD90308E8DD0308B0E20020FD
:104F60004CB303080C020020F8DD030880B30308EB
:104F700008DE030828B1030863E5002060B10308D8
:104F800098B10308D0B10308B4B3030838B50400DE
:104F90000025DFF8500B0078411CDFF8482B11701A
:104FA000C0B20A28C0F228840020DFF8381B08703D
:104FB000DFF8340B0088411CDFF82C2B1180DFF860
:104FC0002C1B097889B280B2814280F0DB830020FB
:104FD000DFF8141B0880002100E0491C0800C0B263
:104FE000DFF80C2B928880B290420CD2DFF8042BB1
:104FF0000B00DBB21720434302EB0300407901288A
:10500000EBD1491C0D00DFF8F00A0078002800F011
:10501000B983DFF8E80A0078002849D1DFF8E00A10
:105020000078401CDFF8D81A0870DFF8D40A01783D
:10503000DFF8C02ADFF8C80A03781720434302EBE1
:10504000030000F80E1C6421DFF8A82ADFF8B00A7C
:1050500003781720434302EB030000F80D1C2121C5
:10506000DFF8902ADFF8980A03781720434302EB11
:10507000030000F80C1C2100C9B2DFF8782ADFF821
:10508000800A03781720434302EB03001738FCF72C
:10509000A3FDDFF86C0A0078DFF8541A898880B223
:1050A0008842C0F06F830120DFF8501A087069E36E
:1050B0002800C0B2002800F08F81DFF8381A2A00DB
:1050C000D2B21720424301EB020010F80D0C282841
:1050D00040F03781DFF81C1A2A00D2B21720424371
:1050E00001EB020030F80B0C01283BD10121DFF865
:1050F000702B2B00DBB21820434302EB030000F8B7
:10510000181CDFF8EC09C18ADFF8542B2B00DBB246
:105110001820434302EB030020F8161CDFF8A81BFD
:105120002A00D2B21720424301EB020030F8151CCE
:1051300051F00101DFF8902B2B00DBB21720434325
:1051400002EB030020F8151C00F0C7FE2A00D2B2C3
:10515000521EDFF8401BDFF8740B00F041FF00F037
:10516000C4FEEEE0DFF88C192A00D2B217204243C9
:1051700001EB020030F80B0C032823D10121DFF8EA
:10518000E02A2B00DBB21820434302EB030000F8B7
:10519000141C3C21DFF8C82A2B00DBB21820434343
:1051A00002EB030020F8121C00F097FE2A00D2B296
:1051B000521EDFF81C1BDFF8140B00F011FF00F08B
:1051C00094FEBEE0DFF82C192A00D2B21720424329
:1051D00001EB020030F80B0C042823D10121DFF889
:1051E000802A2B00DBB21820434302EB030000F8B7
:1051F000101C3C21DFF8682A2B00DBB21820434347
:1052000002EB030020F80E1C00F067FE2A00D2B269
:10521000521EDFF8C01ADFF8B40A00F0E1FE00F019
:1052200064FE8EE0DFF8CC182A00D2B21720424389
:1052300001EB020030F80B0C062823D10121DFF826
:10524000202A2B00DBB21820434302EB030000F8B6
:105250000C1C3C21DFF8082A2B00DBB2182043434A
:1052600002EB030020F80A1C00F037FE2A00D2B23D
:10527000521EDFF8641ADFF8540A00F0B1FE00F0A5
:1052800034FE5EE0DFF86C182A00D2B217204243E9
:1052900001EB020030F80B0C072823D10121DFF8C5
:1052A000C0292B00DBB21820434302EB030000F8B7
:1052B000081C3C21DFF8A8292B00DBB2182043434F
:1052C00002EB030020F8061C00F007FE2A00D2B211
:1052D000521EDFF8081ADFF8F40900F081FE00F032
:1052E00004FE2EE0DFF80C182A00D2B21720424349
:1052F00001EB020030F80B0C082822D10121DFF865
:1053000060292B00DBB21820434302EB030000F8B6
:10531000041C3C21DFF848292B00DBB21820434352
:1053200002EB030020F8021C00F0D7FD2A00D2B2E5
:10533000521EDFF8AC19DFF8940900F051FE00F0BE
:10534000D4FD0021DFF8AC272B00DBB2172043434C
:1053500002EB030000F8121C2100C9B2DFF8942709
:105360002B00DBB21720434302EB03001738FCF796
:1053700033FC0120DFF86C1908702A00D2B2DFF884
:105380006819DFF8680900F049FEDFF8602901219B
:10539000002001F009F800F0A0FD2800C0B2009044
:1053A000DFF850172A00D2B21720424301EB020067
:1053B00010F80E3CDFF83C17EDB21720454301EB27
:1053C000050010F80D2CDFF82819DFF8000900F0AF
:1053D00007FE00F08AFDD5E1DFF818090078002803
:1053E00000F07F81DFF810090078401CDFF8081911
:1053F0000870DFF804090178DFF8F826DFF8F8080C
:1054000003781720434302EB030000F80E1CDFF87B
:10541000B818DFF8E40802781720424301EB0200D5
:1054200010F80D1CDFF8CC26DFF8CC080378172025
:10543000434302EB030000F80D1C0121DFF8B42602
:10544000DFF8B40803781720434302EB030000F8A9
:105450000C1CDFF87418DFF8A0080278172042430C
:1054600001EB020010F80D0C282840F0B580032154
:10547000DFF88026DFF8800803781720434302EB2B
:10548000030000F80C1CDFF87408DFF86C180978CA
:10549000084410F8010C012840F01181DFF8601871
:1054A000DFF8540802786E20424301EB020010F846
:1054B000020C00287DD0DFF84818DFF83C0802789D
:1054C0006E20424301EB020010F8020C800709D560
:1054D0000120DFF83018DFF820281278114401F895
:1054E000010C5AE0DFF81818DFF80C0802786E207B
:1054F000424301EB020010F8020C400709D50220DC
:10550000DFF80018DFF8F0271278114401F8010CD9
:1055100043E0DFF8EC17DFF8E00702786E20424343
:1055200001EB020010F8020C000709D50320DFF898
:10553000D417DFF8C4271278114401F8010C2CE0CD
:10554000DFF8BC17DFF8B00702786E20424301EBAA
:10555000020010F8020CC00609D50420DFF8A417D9
:10556000DFF894271278114401F8010C15E0DFF8F8
:105570009017DFF8840702786E20424301EB0200A7
:1055800010F8020C800608D50520DFF87817DFF840
:1055900068271278114401F8010C0021DFF8602718
:1055A000DFF8540703786E20434302EB030000F852
:1055B000021CDFF84C17DFF8400702786E204243E8
:1055C00001EB0200B0F16E022100C9B2DFF828073A
:1055D0000078FCF79DFD72E0DFF8EC16DFF81807A5
:1055E00002781720424301EB020010F80D0C0A2844
:1055F0003DD1DFF81417DFF8000702784FF484700C
:10560000424301EB0200B0F58470007801281FD1FD
:105610000421DFF8E024DFF8E00603781720434395
:1056200002EB030000F80C1CDFF8DC16DFF8C806FC
:1056300002784FF48470424301EB0200B0F58472AB
:105640002100C9B2DFF8B0060078FEF779F836E03D
:105650002100C9B2DFF89C24DFF89C0603781720EC
:10566000434302EB03001738FCF7B6FA27E0DFF8F4
:105670005816DFF8840602781720424301EB020037
:1056800010F80D0C1E280CD0DFF83C16DFF8680669
:1056900002781720424301EB020010F80D0C142889
:1056A0000DD12100C9B2DFF84C24DFF84C06037895
:1056B0001720434302EB03001738FCF78DFADFF89D
:1056C00038060078DFF82814898880B2884259D3D8
:1056D0000020DFF8201608700020DFF81C16087084
:1056E00050E0DFF82806007800284BD0DFF80806E5
:1056F0000078401CDFF800160870DFF8FC05017820
:10570000DFF8F023DFF8F00503781720434302EBBE
:10571000030000F80E1C6421DFF8D823DFF8D80559
:1057200003781720434302EB030000F80D1C2121EE
:10573000DFF8C023DFF8C00503781720434302EBEE
:10574000030000F80C1C2100C9B2DFF8A823DFF821
:10575000A80503781720434302EB03001738FCF732
:105760003BFADFF894050078DFF88413898880B26B
:10577000884207D30020DFF8941508700020DFF876
:1057800078150870DFF870030078002834D0DFF84F
:105790005C030078DFF858138988891C4843DFF8D8
:1057A00070150860DFF86C050088411CDFF864257F
:1057B000118080B2DFF85815096888421CD3002098
:1057C000DFF850150880DFF850050078401CDFF83E
:1057D00048150870DFF840050078142804DA012025
:1057E000DFF81015087007E00020DFF82C150870AE
:1057F0000120DFF81815087031BD0000E8B3030878
:1058000008B203081CB4030840B2030878B20308C6
:1058100038B501000024B3480078421CB14B1A701F
:10582000C0B20A28C0F25B810020AE4A1070AE48B8
:105830000088421CAC4B1A80AC4A127892B280B2FB
:10584000824280F00F810020A74A1080002200E0F1
:10585000521C1000C0B2A64B9B8880B298420BD25B
:10586000A44B1500EDB21720454303EB050040792A
:105870000128EDD1521C14009F480078002800F048
:10588000F1809E480078002830D19D480078401C67
:105890009B4A10709A480278964B994804781720D2
:1058A000444303EB040000F80E2C0022914B944873
:1058B00004781720444303EB040000F80C2CC9B211
:1058C0008C4A8F4803781720434302EB03001738B4
:1058D000FCF744FB8A4800788549898880B2884271
:1058E000C0F0C080012085490870BBE02000C0B234
:1058F00000283BD000227F4B2500EDB21720454306
:1059000003EB050000F8122CC9B27A4A2300DBB27F
:105910001720434302EB03001738FCF71FFB01205D
:10592000DFF8C01308702200D2B2DFF8BC13DFF832
:10593000BC0300F073FBDFF8B4230121002000F06A
:1059400033FD00F0CAFA2300DBB26A49E4B2172043
:10595000444301EB040010F80E2CDFF8C013DFF80D
:105960006C0300F03DFB00F0C0FA7BE0DFF884033D
:10597000007800283BD0DFF880030078401CDFF877
:1059800078231070DFF8700302785A4BDFF8680351
:1059900004781720444303EB040000F80E2C002287
:1059A000544BDFF8540304781720444303EB0400FE
:1059B00000F80C2CC9B24F4ADFF83C0303781720DB
:1059C000434302EB03001738FCF7C8FADFF828035B
:1059D00000784749898880B2884243D30020DFF8A5
:1059E000141308700020DFF8101308703AE0DFF895
:1059F0001C030078002835D0DFF8FC020078401C3A
:105A0000DFF8F4221070DFF8F0020278394BDFF88B
:105A1000E80204781720444303EB040000F80E2C3E
:105A20000022344BB44804781720444303EB0400AD
:105A300000F80C2CC9B22F4AAF4803781720434313
:105A400002EB03001738FCF789FAAB4800782849C5
:105A5000898880B2884205D30020AC4908700020B4
:105A6000A549087024480078002838D02048C0880C
:105A7000082803D01E48C088092808D11B48007890
:105A80001B498988491D4843A149086007E0174818
:105A9000007817498988891C48439D4908609D48BA
:105AA0000088411C9B4A118080B29949096888424C
:105AB00015D300209749088097480078401C9649E4
:105AC000087095480078142803DA01208949087085
:105AD00005E000209049087001208C49087031BD14
:105AE0009CE300205FE500201AE50020DE02002094
:105AF00010DE0020A0D200203BE500203CE5002085
:105B000048E500201CB504008548007800280BD02B
:105B1000022827D012D304284DD038D3062869D0C4
:105B200054D3072873D076E000207E4908800020F7
