:020000040800F2
:1000000058E8002075D0030845990308479903086C
:10001000499903084B9903084D9903080000000013
:10002000000000000000000000000000DD240208C5
:100030004F99030800000000852402085199030825
:10004000E9D70308EDD70308F1D70308F5D703086C
:10005000F9D70308FDD7030801D8030805D803081A
:1000600009D803080DD8030811D8030815D80308C8
:1000700019D803081DD8030821D8030825D8030878
:100080006599030829D803082DD8030831D8030837
:1000900035D8030839D803083DD8030841D80308E8
:1000A00045D8030849D803084DD8030851D8030898
:1000B00055D8030859D803085DD8030861D8030848
:1000C00065D8030869D803086DD8030871D80308F8
:1000D00075D8030879D803086F990308799903083C
:1000E0007DD8030881D8030885D8030889D8030878
:1000F0008DD8030891D8030895D8030899D8030828
:100100009DD80308A1D80308A5D80308A9D80308D7
:10011000ADD80308B1D80308B5D80308B9D8030887
:10012000BDD8030883990308C1D80308C5D80308BC
:10013000C9D80308675F0308CDD80308D1D80308DE
:10014000D5D80308D9D80308DDD80308E1D80308B7
:10015000E5D80308E9D80308EDD803088D9903080A
:10016000F1D80308F5D80308F9D80308FDD8030827
:1001700001D9030805D9030809D9030800000000C4
:100180000DD9030811D9030815D9030819D9030893
:100190001DD9030821D9030825D9030829D9030843
:0C01A0002DD9030831D9030835D9030814
:10020000BFF34F8FDFF80405016811F4E061DFF8F8
:1002100000050143DFF8F4040160BFF34F8F00BF16
:10022000FDE730B402004FF6FF70002400E0641CCC
:1002300023000D009BB2ADB2AB4215D223009BB29E
:10024000D35C584000231D00ADB2082DEFDAC5077E
:1002500002D480B2400805E080B205004AF20100F5
:1002600090EA55005B1CEEE780B230BC704770B579
:100270000C0000210025DFF89C140978002914D017
:1002800002293AD020D3042900F0808068D30629BF
:1002900000F0A880C0F09080082900F0CE80C0F067
:1002A000BC80092900F0D8805AE1C0B2132808D1D7
:1002B0000120DFF8601408701020DFF858148871EE
:1002C00001E000F00CFA4DE10100C9B2DFF844246E
:1002D000A2F80110DFF83C14DFF83C241278114436
:1002E000C871DFF834040078401CDFF82C14087063
:1002F0000220DFF82014087034E1DFF81814B1F898
:1003000001100200D2B251EA0221DFF80824A2F85B
:100310000110DFF80014DFF8002412781144C871CE
:10032000DFF8F003B0F80100DFF8F01349888842E5
:100330000BD1DFF8E4030078401CDFF8DC13087011
:100340000320DFF8D013087009E000F0C8F9DFF8E7
:10035000C403B0F80110DFF8C80305F0F1F801E1BB
:100360000421DFF8B0231170DFF8A813C870DFF89C
:10037000A413DFF8A42312781144C871DFF898039E
:100380000078401CDFF890130870EBE00521DFF8DF
:1003900084231170DFF87C130871DFF87813DFF81D
:1003A000782312781144C871DFF86C030078401C80
:1003B000DFF864130870D5E00621DFF858231170C8
:1003C000DFF850134871DFF84C13DFF84C23127834
:1003D0001144C871DFF840030078401CDFF838137F
:1003E0000870BFE0DFF830130978DFF8282392792E
:1003F00091420ED2DFF81C13DFF81C23127811444F
:10040000C871DFF814030078401CDFF80C13087083
:10041000A8E00721DFF8FC2211700821DFF8F422A0
:100420001170DFF8F01281F80701DFF8EC020078B4
:10043000401CDFF8E412087094E00921DFF8D422B0
:100440001170DFF8D01281F80601DFF8CC020078D5
:10045000401CB149087085E0C0B20D287DD1AD487F
:1004600090F80601AB4991F8076156EA0026A948C1
:10047000817989B2AB48FFF7D4FEA7490978491CB6
:10048000A54A117080B2864264D1A348007813282F
:100490005BD1A0484079112806D11022A149200043
:1004A00005F062F811254BE09A484079122806D1F0
:1004B00010229C49200005F057F8122540E095488D
:1004C0004079132806D110229649200005F04CF8F7
:1004D000132535E08F484079312806D11022914903
:1004E000200005F041F831252AE08A4840790328A8
:1004F00006D110228B49200005F036F803251FE0B5
:1005000084484079142806D110228649200005F03D
:100510002BF8142514E07F484079152806D11022C5
:100520008049200005F020F8152509E07948407938
:10053000212805D110227B49200005F015F821253E
:1005400000F0CDF82800C0B20EE000F0C8F8280096
:10055000C0B209E000F0C3F801E000F0C0F801E02B
:1005600000F0BDF82800C0B270BD70B50C000021CD
:10057000002500216749097800290CD003291CD0E7
:1005800005292AD0062939D007294ED0082958D064
:10059000092962D09EE0C0B20D280BD103205D492D
:1005A000087008205B4988715B480078401C5A49F4
:1005B000087001E000F093F88EE00521554A1170B3
:1005C0005449C8705349544A1278114488715248AA
:1005D0000078401C504908707EE006214D4A117099
:1005E0004C494871401C4B494B4A12781144887160
:1005F00049480078401C484908706DE04649097830
:10060000444A9279D21C91420CDA43490978491E36
:10061000404AC9B21144C8713F480078401C3E4965
:10062000087059E007213B4A11700821394A1170BE
:10063000384981F8070138480078401C364908706D
:100640004AE00921334A1170324981F806013248E3
:100650000078401C304908703EE0C0B20D2836D109
:100660002C4890F806012B4991F8076156EA0026BC
:100670002848817989B22C48FFF7D3FD80B28642A1
:1006800022D1254800780D2819D122484079002828
:1006900006D10A222349200004F066FF012509E063
:1006A0001C484079012805D10A221E49200004F087
:1006B0005BFF022500F013F82800C0B20EE000F046
:1006C0000EF82800C0B209E000F009F801E000F0DF
:1006D00006F801E000F003F82800C0B270BD10B5C4
:1006E00000200C49087000200B490870C821002226
:1006F000DFF8904C200004F0C7FF4FF48471002213
:10070000044C200004F0C0FF10BD00000CED00E020
:100710000400FA0510D300204DE4002010DD002075
:10072000C8CA030817D3002019D300202DE9F041CF
:100730000024002500260027DFF84C0C0078401C20
:10074000DFF8441C0870DFF8440C0078002826D03D
:100750005FF000080DE0DFF8381CDFF8380C424687
:10076000D2B2805CFFF783FDDFF82C1C087018F113
:1007700001084046DFF8141C0978C0B28842EAD369
:100780000020DFF8081C0870C8210022DFF8048C64
:10079000404604F079FF0020DFF8EC1B0870DFF81A
:1007A000E80B0078652810DBFFF799FF0020DFF8E1
:1007B000D81B08700020DFF8D41B0870C821002265
:1007C000DFF8D08B404604F05FFFDFF8CC0B0078F9
:1007D000002800F0D5850020DFF8BC1B0870DFF88A
:1007E000B00B8078401EDFF8B41B0870DFF8AC0B4C
:1007F0000178491CDFF8A82BDFF8A00B037817203D
:10080000434302EB03004172DFF8840BC0780128F8
:100810000BD10A21DFF8882BDFF8800B0378172033
:10082000434302EB030081724AE0DFF8640BC078B7
:1008300002280BD11421DFF8682BDFF8600B037856
:100840001720434302EB0300817239E0DFF8400BCD
:10085000C07803280BD11E21DFF8442BDFF83C0BB6
:1008600003781720434302EB0300817228E0DFF88E
:10087000200BC07804280BD12821DFF8242BDFF8C7
:100880001C0B03781720434302EB0300817217E02F
:100890001421DFF80C2BDFF8040B037817204343F7
:1008A00002EB0300817204F046FFDFF8F00A0278E1
:1008B000DFF8F01ADFF8F00A04F0C0FF04F043FF9D
:1008C000DFF8CC0A0179DFF8D82ADFF8D00A0378FC
:1008D0001720434302EB0300C172DFF8C41ADFF8AC
:1008E000BC0A02781720424301EB0200C07A31288B
:1008F0000BD0DFF8AC1ADFF8A40A027817204243C5
:1009000001EB0200C07A21283CD10121DFF8902AB6
:10091000DFF8880A037817204343D154DFF88C0AA4
:10092000DFF8781A097830F81100002800F02885DF
:10093000DFF8780ADFF8641A097830F81100401EF1
:10094000DFF8681ADFF8542A127821F81200DFF86D
:100950005C0ADFF8481A097830F811000B28C0F259
:100960000F85DFF8480ADFF8341A097830F81100EB
:10097000401EDFF8381ADFF8242A127821F8120016
:1009800000F0FEBCDFF8181ADFF8100A0278172012
:10099000424301EB0200C07A112840F07182DFF877
:1009A000F00990F80580DFF8E809807958EA002816
:1009B000DFF8EC19DFF8E40902781720424301EB75
:1009C00002008089414689B2884200F09180DFF8B8
:1009D000D019DFF8C80902781720424301EB020062
:1009E000427ADFF8CC19DFF8CC0904F045FFDFF8D4
:1009F000C4290121002005F005F9DFF8A419DFF86A
:100A00009C0902781720424301EB0200807A0A28F1
:100A100014D1DFF88C19DFF88409027817204243DB
:100A200001EB0200A0F80C800022DFF870090178C9
:100A3000491CC9B2042006F075FF59E0DFF86019BF
:100A4000DFF8580902781720424301EB0200807A50
:100A5000142814D1DFF84819DFF84009027817206C
:100A6000424301EB0200A0F80C800022DFF82C09C1
:100A70000178491CC9B2042006F054FF38E0DFF8C1
:100A80002019DFF8180902781720424301EB020011
:100A9000807A1E280CD10127DFF80419DFF8FC0842
:100AA00002781720424301EB0200A0F80C801FE0FF
:100AB000DFF8EC18DFF8E40802781720424301EB76
:100AC0000200807A282813D1DFF8D418DFF8CC0888
:100AD00002781720424301EB0200A0F80C800022AC
:100AE000DFF8B8080178491CC9B2042006F01AFFE3
:100AF000DFF8AC18DFF8A40802781720424301EBB6
:100B00000200807A1E2840F0AA80DFF88408417A2B
:100B1000DFF87C08827ADFF87808C07A52EA00228F
:100B2000DFF87C38DFF8740890F800C0172000FB6D
:100B30000CFC03EB0C00A0F81120DFF85408027B3A
:100B4000DFF84C08407B52EA0022DFF85438DFF827
:100B50004C0890F800C0172000FB0CFC03EB0C00C5
:100B6000A0F81320DFF82808827BDFF82408C07B78
:100B700052EA0022DFF82838DFF8200890F800C099
:100B8000172000FB0CFC03EB0C00A0F81520DFF88D
:100B90001028DFF8080803781720434302EB03000E
:100BA000007C10F02A000A00D2B212F02A02904211
:100BB0002ED057F00207DFF8E827DFF8E0070378C8
:100BC0001720434302EB0300007C800702D588070F
:100BD00000D40124DFF8C827DFF8C0070378172006
:100BE000434302EB0300007C000702D5080700D452
:100BF0000125DFF8AC27DFF8A4070378172043436B
:100C000002EB0300007C800602D5880600D4012692
:100C1000DFF88C27DFF8840703781720434302EBC3
:100C20000300007C10F02A0F01D057F00407DFF812
:100C30007027DFF8680703781720434302EB0300AF
:100C40000174DFF85C17DFF854070278172042437D
:100C500001EB02004078012801D157F00807DFF8C6
:100C6000900A07703800C0B2002808D00022DFF8D0
:100C70002C070178491CC9B2032006F053FEB807BF
:100C800040F1CB80DFF86C0A0078012840F0C58085
:100C9000DFF8640A47787F1C3800C0B20A2800D108
:100CA0000027DFF8540A00783900C9B2884222D1FF
:100CB000DFF8480AC288DFF8481ADFF8F80604F0BF
:100CC000DBFDDFF8F0260121002004F09BFF04F09B
:100CD00032FDDFF8280AC288DFF8781CDFF8C80682
:100CE00004F0ACFD04F02FFD40F6B8300AF042F8F5
:100CF000FFF786FA91E0DFF8001ADFF8FC09427886
:100D00003420424301EB020000210171DFF8E819B1
:100D1000DFF8E40942783420424301EB0200DFF8B7
:100D20007C160978491C4171DFF8CC19DFF8C80935
:100D300042783420424301EB020080F83440DFF86F
:100D4000B819DFF8B40942783420424301EB0200BD
:100D500080F83550DFF8A019DFF89C09427834207C
:100D6000424301EB020080F83660DFF88C19DFF8AF
:100D700088094278342042431144DFF82426DFF802
:100D80001C0603781720434302EB0300B0F8110060
:100D9000C885DFF86419DFF86009427834204243DF
:100DA0001144DFF8FC25DFF8F405037817204343EE
:100DB00002EB0300B0F813000886DFF83C19DFF8F7
:100DC00038094278342042431144DFF8D425DFF853
:100DD000CC0503781720434302EB0300B0F815005D
:100DE0004886DFF81419DFF81009427834204243AE
:100DF00001EB02004079042805DADFF85C2B0121C1
:100E00000C2004F0FFFEDFF8F0084770DFF84C0B11
:100E10000078401CDFF8441B0870DFF89005DFF80D
:100E20007C15097830F81100002800F0A982DFF85D
:100E30007C05DFF86815097830F81100401EDFF8EE
:100E40006C15DFF85825127821F81200DFF85C05E0
:100E5000DFF84815097830F811000B28C0F29082AD
:100E6000DFF84805DFF83415097830F81100401E26
:100E7000DFF83815DFF82425127821F812007FE218
:100E8000DFF81C15DFF8140502781720424301EB48
:100E90000200C07A122840F09380DFF8F404417910
:100EA000DFF8EC04807951EA0021DFF8F424DFF860
:100EB000EC0403781720434302EB030081811222E4
:100EC000DFF8D8040178022006F02CFD0120DFF8BD
:100ED000F01B0870DFF8C814DFF8C0040278172090
:100EE000424301EB02008389DFF8B0040278521C10
:100EF000DFF8D01BDFF8BC0404F0BEFCDFF8B4243C
:100F00000121002004F07EFEDFF8A004DFF88C143D
:100F1000097830F81100002826D0DFF89004DFF8B7
:100F20007C14097830F81100401EDFF88014DFF8D7
:100F30006C24127821F81200DFF87004DFF85C14DA
:100F4000097830F811000B280EDBDFF86004DFF8B9
:100F50004C14097830F81100401EDFF85014DFF807
:100F60003C24127821F81200DFF83414DFF82C0446
:100F700002781720424301EB02008189DFF8202428
:100F8000DFF8180403781720434302EB0300418085
:100F900004F0D1FBDFF80814DFF800040278172012
:100FA000424301EB02008389DFF8F0030278DFF8A7
:100FB000181BDFF8F40304F041FC04F0C4FBDFE18C
:100FC000DFF8DC13DFF8D40302781720424301EB8B
:100FD0000200C07A132840F0B480DFF8B4034179EE
:100FE000DFF8AC03807951EA0021DFF8B423DFF8A1
:100FF000AC0303781720434302EB03008181DFF841
:10100000AC03DFF89813097830F81100002826D0D7
:10101000DFF89803DFF88413097830F81100401ED8
:10102000DFF88813DFF87423127821F81200DFF854
:101030007C03DFF86813097830F811000B280EDB09
:10104000DFF86803DFF85413097830F81100401E08
:10105000DFF85813DFF84423127821F81200DFF884
:101060006C1ADFF8380302786E20424301EB02006D
:10107000007D002827D0DFF82813DFF8200302784E
:101080001720424301EB0200007BC0071BD5DFF8AD
:101090003C1AC24802786E2042431144DFF82C2AE1
:1010A000BE4803786E20434302EB0300407D0022DC
:1010B0000A540021DFF8142AB84803786E2043430D
:1010C00002EB03000175B649B44802781720424389
:1010D00001EB02004188B24AB0480378172043432D
:1010E00002EB03008089814217D0AD49AB480278FA
:1010F0001720424301EB02008189A94AA7480378DF
:101100001720434302EB030041800022A3480178EB
:10111000491CC9B2042006F005FC04F00CFBA049F0
:101120009E4802781720424301EB020083899B48C6
:101130000278DFF89C199C4804F080FB04F003FB64
:101140001EE19749954802781720424301EB0200BF
:10115000C07A14286FD18E4841798D48807951EA40
:1011600000218F4A8D4803781720434302EB030088
:1011700081818E488949097830F8110000281CD0F7
:101180008A488649097830F81100401E8749834A09
:10119000127821F8120085488049097830F811004A
:1011A0000B280ADB81487D49097830F81100401E80
:1011B0007E497A4A127821F81200794977480278F4
:1011C0001720424301EB02004188754A73480378B7
:1011D0001720434302EB03008089814217D07049F6
:1011E0006E4802781720424301EB020081896C4A65
:1011F0006A4803781720434302EB03004180002232
:1012000066480178491CC9B2042006F08BFB04F043
:1012100092FA6349614802781720424301EB0200C9
:1012200083895E480278DFF8AC185F4804F006FB5B
:1012300004F089FAA4E05A4958480278172042433A
:1012400001EB0200C07A14283FD10121544A5348CF
:1012500003781720434302EB0300417014224F48E8
:101260000178022006F05EFB00224C480178491C00
:10127000C9B2032006F056FB0120DFF844180870BD
:101280004A484649097830F81100002878D0474884
:101290004249097830F81100401E44493F4A12780B
:1012A00021F8120041483D49097830F811000B2817
:1012B00066DB3E483949097830F81100401E3B4949
:1012C000364A127821F812005AE03549334802783C
:1012D0001720424301EB0200C07A15283FD10021BC
:1012E0002F4A2E4803781720434302EB0300417036
:1012F00015222A480178022006F014FB0022274814
:101300000178491CC9B2032006F00CFB0120DFF86C
:10131000B017087025482149097830F811000028D5
:101320002ED022481D49097830F81100401E1F496F
:101330001A4A127821F812001C481849097830F826
:1013400011000B281CDB19481449097830F81100EA
:10135000401E1649114A127821F8120010E004F0DC
:10136000EAF90F490D4802781720424301EB0200C9
:10137000C27ADFF864170C4804F060FA04F0E3F96D
:10138000BDE8F08118D5002038E4002036E40020C4
:10139000A8D60020E0D5002037E4002039E4002062
:1013A00030D0002048AB03080C02002080E0002071
:1013B000F4D20308B0E100200100002008784A7848
:1013C00050EA82008A7850EA0210CA7850EA821005
:1013D0000A7950EA02204A7950EA82208A7950EA52
:1013E0000230C97950EA813080B2704710B5DFF819
:1013F000EC060078401CDFF8E4160870DFF8E00621
:101400000078002824D000240CE0DFF8D816DFF89C
:10141000D8062200D2B2805CFFF7A7F8DFF8CC161E
:101420000870641C2000DFF8B8160978C0B2884242
:10143000EBD30020DFF8A8160870C8210022DFF8DF
:10144000A846200004F020F90020DFF8901608706C
:10145000DFF888060078652810DBFFF740F90020E8
:10146000DFF8781608700020DFF874160870C821BD
:101470000022DFF87446200004F006F9DFF86C065D
:101480000078002800F032810020DFF86016087034
:10149000DFF850060078401EDFF854160870DFF8B9
:1014A00050060178491CDFF84C26DFF84406037823
:1014B0001720434302EB03004172DFF8280641780E
:1014C000DFF83026DFF8280603781720434302EBC5
:1014D0000300C172DFF81C16DFF81406027817202B
:1014E000424301EB0200C07A01284FD10121DFF80D
:1014F0000426DFF8FC05037817204343D154DFF8B6
:10150000F805FFF759FFDFF8EC25DFF8E4150B7855
:1015100017214B4302EB03018989020092B29142E9
:1015200000F0E480DFF8CC25DFF8C4150B78172134
:101530004B4302EB03018881DFF8B815DFF8B005F3
:1015400002781720424301EB02008389DFF8A415DB
:10155000DFF89C0502781720424301EB0200427A33
:10156000DFF89815DFF8980504F086F9DFF8902584
:101570000121002004F046FB0022DFF87405017809
:10158000491CC9B2082006F0CDF9AFE0DFF86415B8
:10159000DFF85C0502781720424301EB0200C07AB5
:1015A000022840F08F80DFF85005FFF705FFDFF8D5
:1015B0004425DFF83C150B7817214B4302EB030160
:1015C00088811222DFF828050178072006F0AAF9A1
:1015D0000120DFF8EC140870DFF81815DFF81005AB
:1015E00002781720424301EB02008389DFF80005EF
:1015F0000278521CDFF8CC14DFF8040504F03CF943
:10160000DFF8FC240121002004F0FCFADFF8F404E8
:10161000DFF8DC14097830F81100002826D0DFF854
:10162000E404DFF8CC14097830F81100401EDFF82C
:10163000D414DFF8BC24127821F81200DFF8C404B7
:10164000DFF8AC14097830F811000B280EDBDFF856
:10165000B404DFF89C14097830F81100401EDFF85C
:10166000A414DFF88C24127821F81200DFF8841417
:10167000DFF87C0402781720424301EB02008189E5
:10168000DFF87024DFF8680403781720434302EB87
:101690000300418004F04FF8DFF85814DFF85004DD
:1016A00002781720424301EB02008389DFF84004EF
:1016B0000278DFF81414DFF8500404F0BFF804F0E7
:1016C00042F813E004F037F8DFF82814DFF82004BC
:1016D00002781720424301EB0200C27ADFF8F813C8
:1016E000DFF8240404F0AAF804F02DF810BD00007F
:1016F00053E400202FE4002018C7002010DD002054
:10170000DCCA0308F8B588B005000E0000240027E5
:101710003000C0B200280CD0AA2069462200D2B204
:101720008854641CBB2069462200D2B28854641CD1
:1017300005E0AB2069462200D2B28854641C012027
:1017400069462200D2B28854641C132069462200E4
:10175000D2B28854641CDFF8B40340886946220082
:10176000D2B28854641CDFF8A403408880B2000A17
:1017700069462200D2B28854641C687A6946220005
:10178000D2B28854641CA87A642801D1642712E07C
:10179000A87A0A2801D101270DE0A87A142801D1DE
:1017A000022708E0A87A1E2801D1032703E0A87ABF
:1017B000282800D10427D348697A00EB4100D14999
:1017C0006A7A01EB420131F8021C491C20F8021C24
:1017D000CC48697A00EB410030F8020C42F21171FA
:1017E000884207DBC748697A00EB410042F210717A
:1017F00020F8021CC348697A00EB410030F8020C63
:10180000152827DB03F097FFBE48697A00EB4100FB
:1018100030F8023C6A7A521EBD49BB4804F00EF80B
:1018200003F091FFB748697A00EB410030F8020CF1
:101830001F280FDB0022687A411EC9B2022006F081
:101840000BFDAC496A7A1720424301EB02000021EC
:1018500000F80D1C68462100C9B24754641CE87AA0
:1018600069462200D2B28854641CA88969462200C5
:10187000D2B28854641CA88980B2000A694622004A
:10188000D2B28854641CE88969462200D2B28854D6
:10189000641CE88980B2000A69462200D2B28854EA
:1018A000641C287C69462200D2B28854641CB5F8B6
:1018B000110069462200D2B28854641CB5F81100A8
:1018C00080B2000A69462200D2B28854641CB5F87E
:1018D000130069462200D2B28854641CB5F8130084
:1018E00080B2000A69462200D2B28854641CB5F85E
:1018F000150069462200D2B28854641CB5F8150060
:1019000080B2000A69462200D2B28854641C1021B9
:101910006846F6B23044C01CFEF783FC69462200DC
:10192000D2B28854641C000A69462200D2B288549C
:10193000641C0D2069462200D2B28854641C42F215
:101940001073E4B2220092B26946724809F05BFA61
:1019500009B0F0BDF0CA030894D6030823E40020C0
:10196000F8B58AB006000C0000252000C0B200289F
:101970000CD0AA2002A92A00D2B288546D1CBB2028
:1019800002A92A00D2B288546D1C05E0AB2002A93E
:101990002A00D2B288546D1C012002A92A00D2B2BA
:1019A00088546D1C0D2002A92A00D2B288546D1CE7
:1019B000707A02A92A00D2B288546D1C5148717AFB
:1019C00000EB41004F49727A01EB420131F8021CF1
:1019D000491C20F8021CF07A02A92A00D2B28854CD
:1019E0006D1C082100226F46380003F04DFEB089BF
:1019F00001280FD035D3032814D00FD3052819D0D0
:101A000014D307281ED019D3092823D01ED30A289F
:101A100024D026E001208DF8000022E002208DF87D
:101A200000001EE001208DF801001AE002208DF870
:101A3000010016E001208DF8020012E002208DF86E
:101A400002000EE001208DF803000AE002208DF86C
:101A5000030006E001208DF8040002E002208DF86A
:101A600004000822694602A82B00DBB200EB030643
:101A7000300003F079FD0835082102A8E4B22044C3
:101A8000401DFEF7CEFB02A92A00D2B288546D1C7D
:101A9000000A02A92A00D2B288546D1C0D2002A9A6
:101AA0002A00D2B288546D1C42F21073EDB22A00A3
:101AB00092B202A9174809F0A6F90BB0F0BD0000D8
:101AC00035E4002004CB0308E0BB0308C0CC0020B1
:101AD00000BC030898B7030820BC030838E40020C2
:101AE00036E40020A8D60020E0D5002037E400200E
:101AF00039E4002030D00020AAD6002018CB0308FB
:101B0000B0E1002080E000200C02002010DD002069
:101B100088B2030870DF00202DE9FC4105000F00AA
:101B2000160000240020DFF8F4092900C9B2084497
:101B300010F8010C00280ED0022800F08483C0F0B9
:101B40000881042800F06F87C0F0EE85052801F0B9
:101B5000E98001F04BBADFF8C8192A00D2B2182088
:101B6000424301EB020010F8180C002840F0EF800F
:101B7000DFF8980B0088318B88425ED330780028DC
:101B80005BD001203075002070750121DFF89429A9
:101B90002B00DBB21720434302EB030020F80B1CA1
:101BA000DFF88409C18ADFF87C292B00DBB217201B
:101BB000434302EB030020F8091C3900C9B2DFF8E7
:101BC00064292B00DBB21720434302EB03001738D4
:101BD000FFF798FD0124DFF854290121002004F0CB
:101BE00011F801232A00D2B2DFF84419DFF84409C2
:101BF00003F042FEDFF83C290121002004F002F846
:101C000003F099FDDFF8040B00883C2190FBF1F212
:101C100001FB12000190DFF8F40A00883C2190FBE0
:101C2000F1F0009001232A00D2B2DFF80C19DFF89E
:101C30000C0903F003FE03F086FD5FF0010805E0E8
:101C400000204146C9B2705418F101084046B17DE8
:101C5000C0B288427BD2DFF8B40A00884146C9B2DC
:101C600006EB4101098B8842EED34046C0B2305C9E
:101C70000028E9D02000C0B20028E5D14046C0B21B
:101C800006EB4000008B0028DAD00120307586F882
:101C900015800121DFF88C282B00DBB2172043438D
:101CA00002EB030020F80B1CDFF87C08C18ADFF888
:101CB00074282B00DBB21720434302EB030020F80B
:101CC000091C3900C9B2DFF85C282B00DBB21720F1
:101CD000434302EB03001738FFF714FD0120DFF840
:101CE0004C280121002003F08DFF4346DBB25B1C32
:101CF0002A00D2B2DFF83818DFF8380803F0BCFD4C
:101D0000DFF830280121002003F07CFF03F013FDF1
:101D1000DFF8F80900883C2190FBF1F201FB12008A
:101D20000190DFF8E80900883C2190FBF1F0009079
:101D30005FFA88F818F1010843462A00D2B2DFF8AA
:101D4000F817DFF8F80703F079FD03F0FCFC01F069
:101D500054B9DFF8CC172A00D2B21820424301EB65
:101D6000020010F8140C002840F06B82B6F84E0008
:101D7000B6F84810884201D2012008E0B6F84800C1
:101D8000B6F84E10884201D1022000E00020010088
:101D9000C9B2012940F0F580DFF870090088B6F873
:101DA0004E10884279D3DFF864090088B6F84810ED
:101DB000884272D22000C0B200286ED10321DFF821
:101DC00064272B00DBB21720434302EB030020F80B
:101DD0000B1C0021DFF84C272B00DBB217204343FC
:101DE00002EB030020F8091CB6F84210DFF8342794
:101DF0002B00DBB21720434302EB030020F8061C44
:101E0000B6F84410DFF81C272B00DBB21720434341
:101E100002EB030020F8041C3900C9B2DFF80427E4
:101E20002B00DBB21720434302EB03001738FFF708
:101E300069FC0120DFF8F4260121002003F0E2FE16
:101E400001232A00D2B2DFF8C818DFF8E80603F051
:101E500013FDDFF8E0260121002003F0D3FE03F09C
:101E60006AFCDFF8A80800883C2190FBF1F201FB36
:101E700012000190DFF8940800883C2190FBF1F0FB
:101E8000009001232A00D2B2DFF88818DFF8AC06F0
:101E900003F0D4FC03F057FCD3E1E4B2002C40F093
:101EA000D0810321DFF87C262B00DBB217204343CF
:101EB00002EB030020F80B1C4FF41671DFF86426C8
:101EC0002B00DBB21720434302EB030020F8091C70
:101ED000B6F84210DFF84C262B00DBB21720434344
:101EE00002EB030020F8061CB6F84410DFF8342695
:101EF0002B00DBB21720434302EB030020F8041C45
:101F00003900C9B2DFF81C262B00DBB2172043438F
:101F100002EB03001738FFF7F5FB0120DFF80C2672
:101F20000121002003F06EFE01232A00D2B2DFF867
:101F30003C1EDFF8000603F09FFCDFF8F8250121C6
:101F4000002003F05FFE03F0F6FBDFF8C007008817
:101F50003C2190FBF1F201FB12000190DFF8AC078D
:101F600000883C2190FBF1F0009001232A00D2B2BE
:101F7000DFF8FC1DDFF8C40503F060FC03F0E3FBB1
:101F80005FE1C0B202286FD10321DFF898252B0052
:101F9000DBB21720434302EB030020F80B1C4FF485
:101FA0001671DFF880252B00DBB21720434302EBCC
:101FB000030020F8091CB6F84210DFF868252B0052
:101FC000DBB21720434302EB030020F8061CB6F8EF
:101FD0004410DFF850252B00DBB21720434302EBFF
:101FE000030020F8041C3900C9B2DFF838252B00A3
:101FF000DBB21720434302EB03001738FFF782FBE5
:102000000120DFF828250121002003F0FBFD01233A
:102010002A00D2B2DFF8541DDFF8180503F02CFCBB
:10202000DFF810250121002003F0ECFD03F083FB15
:10203000DFF8D80600883C2190FBF1F201FB12008A
:102040000190DFF8C80600883C2190FBF1F0009079
:1020500001232A00D2B2DFF8181DDFF8E00403F0F4
:10206000EDFB03F070FBECE0DFF8A0060088B6F8AB
:10207000481088427AD3DFF894060088B6F84E10EC
:10208000884273D22000C0B200286FD10321DFF84C
:1020900094242B00DBB21720434302EB030020F80B
:1020A0000B1C4FF41671DFF87C242B00DBB21720D9
:1020B000434302EB030020F8091CB6F84210DFF896
:1020C00064242B00DBB21720434302EB030020F80B
:1020D000061CB6F84410DFF84C242B00DBB21720A6
:1020E000434302EB030020F8041C3900C9B2DFF8B7
:1020F00034242B00DBB21720434302EB03001738D4
:10210000FFF700FB0120DFF824240121002003F069
:1021100079FD01232A00D2B2DFF8501CDFF8140445
:1021200003F0AAFBDFF80C240121002003F06AFD74
:1021300003F001FBDFF8D40500883C2190FBF1F2AD
:1021400001FB12000190DFF8C40500883C2190FBE0
:10215000F1F0009001232A00D2B2DFF8141CDFF85E
:10216000DC0303F06BFB03F0EEFA6AE0E4B2002C50
:1021700067D10321DFF8AC232B00DBB217204343E8
:1021800002EB030020F80B1C0021DFF898232B0042
:10219000DBB21720434302EB030020F8091CB6F81A
:1021A0004210DFF880232B00DBB21720434302EB01
:1021B000030020F8061CB6F84410DA4A2B00DBB204
:1021C0001720434302EB030020F8041C3900C9B276
:1021D000D44A2B00DBB21720434302EB030017382D
:1021E000FFF790FA0120D14A0121002003F00AFDF7
:1021F00001232A00D2B2DFF81815CE4803F03CFBC9
:10220000CC4A0121002003F0FDFC03F094FADFF832
:10221000FC0400883C2190FBF1F201FB12000190CC
:10222000DFF8E80400883C2190FBF1F000900123E6
:102230002A00D2B2DFF8DC14C04803F0FFFA03F042
:1022400082FA00F0DABEB6492A00D2B21820424320
:1022500001EB020010F8100C002840F06382B6F881
:102260005000B6F84A10884201D2012008E0B6F8C2
:102270004A00B6F85010884201D1022000E0002048
:102280000100C9B2012940F0E180DFF88004008834
:10229000B6F85010884270D3DFF870040088B6F8A2
:1022A0004A10884269D22000C0B2002865D10421BA
:1022B0009C4A2B00DBB21720434302EB030020F8BB
:1022C0000B1C0021974A2B00DBB21720434302EB83
:1022D000030020F8091CB6F84210924A2B00DBB22A
:1022E0001720434302EB030020F8061CB6F8441005
:1022F0008C4A2B00DBB21720434302EB030020F88B
:10230000041C3900C9B2874A2B00DBB217204343B3
:1023100002EB03001738FFF7F5F90120834A01218A
:10232000002003F06FFC02232A00D2B2DFF8E01392
:10233000804803F0A1FA7F4A0121002003F062FCEB
:1023400003F0F9F9DFF8C40300883C2190FBF1F2B7
:1023500001FB12000190DFF8B40300883C2190FBE0
:10236000F1F0009002232A00D2B2DFF8A8137348DC
:1023700003F064FA03F0E7F9D4E1E4B2002C40F092
:10238000D1810421674A2B00DBB21720434302EBC3
:10239000030020F80B1C4FF41671624A2B00DBB2CD
:1023A0001720434302EB030020F8091CB6F8421043
:1023B0005C4A2B00DBB21720434302EB030020F8FA
:1023C000061CB6F84410574A2B00DBB217204343D3
:1023D00002EB030020F8041C3900C9B2514A2B005B
:1023E000DBB21720434302EB03001738FFF78AF9EB
:1023F00001204E4A0121002003F004FC02232A00A0
:10240000D2B2DFF868194B4803F036FA494A012185
:10241000002003F0F7FB03F08EF9BC4800883C2154
:1024200090FBF1F201FB12000190B84800883C21BA
:1024300090FBF1F0009002232A00D2B2DFF83019AD
:102440003E4803F0FBF903F07EF96BE1C0B20228CD
:1024500076D10421334A2B00DBB21720434302EB31
:10246000030020F80B1C4FF416712E4A2B00DBB230
:102470001720434302EB030020F8091CB6F8421072
:10248000284A2B00DBB21720434302EB030020F85D
:10249000061CB6F84410234A2B00DBB21720434336
:1024A00002EB030020F8041C3900C9B21D4A2B00BE
:1024B000DBB21720434302EB03001738FFF722F982
:1024C00001201A4A0121002003F09CFB02232A006C
:1024D000D2B2DFF89818174803F0CEF9154A012157
:1024E000002003F08FFB03F026F9884800883C2188
:1024F00090FBF1F201FB12000190844800883C211E
:1025000090FBF1F0009002232A00D2B2DFF86018AD
:102510000A4803F093F903F016F903E148E30020B9
:1025200090DB0020A0D1002010DD00202CCB030880
:1025300024CF0308B0E1002040BC03080C020020B7
:1025400072480088B6F84A10884277D36F480088EE
:10255000B6F85010884271D22000C0B200286DD168
:102560000421DFF8A02B2B00DBB21720434302EB42
:10257000030020F80B1C4FF41671DFF8882B2B009A
:10258000DBB21720434302EB030020F8091CB6F826
:102590004210DFF8702B2B00DBB21720434302EB15
:1025A000030020F8061CB6F84410DFF8582B2B0067
:1025B000DBB21720434302EB030020F8041C390070
:1025C000C9B2DFF8402B2B00DBB21720434302EBEC
:1025D00003001738FFF796F80120DFF82C2B0121B4
:1025E000002003F00FFB02232A00D2B2DFF87C1791
:1025F000DFF8180B03F040F9DFF8102B0121002061
:1026000003F000FB03F097F8404800883C2190FB62
:10261000F1F201FB120001903C4800883C2190FB44
:10262000F1F0009002232A00D2B2DFF84417DFF85D
:10263000E00A03F003F903F086F873E0E4B2002C3B
:1026400070D10421DFF8BC2A2B00DBB217204343F2
:1026500002EB030020F80B1C0021DFF8A82A2B0056
:10266000DBB21720434302EB030020F8091CB6F845
:102670004210DFF8902A2B00DBB21720434302EB15
:10268000030020F8061CB6F84410DFF8782A2B0067
:10269000DBB21720434302EB030020F8041C39008F
:1026A000C9B2DFF8602A2B00DBB21720434302EBEC
:1026B00003001738FFF726F80120DFF84C2A012124
:1026C000002003F09FFA02232A00D2B21049DFF85B
:1026D0003C0A03F0D1F8DFF8342A0121002003F08E
:1026E00091FA03F028F8094800883C2190FBF1F2A8
:1026F00001FB12000190054800883C2190FBF1F09D
:10270000009002232A00D2B2024905E0FEE3002035
:1027100040CB0308BCB70308DFF8F40903F08EF8D8
:1027200003F011F800F069BCDFF8E8192A00D2B212
:102730001820424301EB020010F80C0C002840F076
:102740007181DFF8D4092900C9B2084410F8010CDE
:10275000012840F06781DFF8C4092900C9B200EB05
:10276000410030F8020C652809DADFF8B4092900C5
:10277000C9B200EB410030F8020C65284CDB0020A8
:1027800086F855000621DFF87C292B00DBB21720E4
:10279000434302EB030020F80B1C0021DFF86429FF
:1027A0002B00DBB21720434302EB030020F8091C87
:1027B0003900C9B2DFF84C292B00DBB217204343A4
:1027C00002EB03001738FEF79DFF0120DFF83829E0
:1027D0000121002003F016FA01232A00D2B2DFF80B
:1027E0004419DFF8280903F047F8DFF82029012110
:1027F000002003F007FA02F09EFFB6F9680000908F
:1028000001232A00D2B2DFF82019DFF8040903F00F
:1028100015F802F098FF05E1B6F95800B6F968100E
:10282000884251DB2000C0B200284DD1012086F83B
:1028300055000621DFF8CC282B00DBB217204343DC
:1028400002EB030020F80B1C4FF41671DFF8B428DC
:102850002B00DBB21720434302EB030020F8091CD6
:102860003900C9B2DFF89C282B00DBB217204343A4
:1028700002EB03001738FEF745FF0120DFF8882838
:102880000121002003F0BEF901232A00D2B2DFF8B3
:102890009C18DFF8780802F0EFFFDFF870280121BC
:1028A000002003F0AFF902F046FFB6F9680000908F
:1028B00001232A00D2B2DFF87818DFF8540802F0BA
:1028C000BDFF02F040FFADE096F85500012854D15D
:1028D000B6F96200B6F9681088424EDB2000C0B23B
:1028E00000284AD10621DFF81C282B00DBB2172074
:1028F000434302EB030020F80B1C4FF41671DFF882
:1029000004282B00DBB21720434302EB030020F81E
:10291000091C3900C9B2DFF8EC272B00DBB2172005
:10292000434302EB03001738FEF7ECFE0120DFF80B
:10293000D8270121002003F065F901232A00D2B233
:10294000DFF8F017DFF8C40702F096FFDFF8BC27C6
:102950000121002003F056F902F0EDFEB6F96800FF
:10296000009001232A00D2B2DFF8CC17DFF8A007CD
:1029700002F064FF02F0E7FE54E0B6F96800B6F931
:10298000621088424EDBE4B2002C4BD1002086F866
:1029900055000621DFF86C272B00DBB217204343DC
:1029A00002EB030020F80B1C0021DFF858272B0056
:1029B000DBB21720434302EB030020F8091C390067
:1029C000C9B2DFF840272B00DBB21720434302EBEC
:1029D00003001738FEF796FE0120DFF82C270121AF
:1029E000002003F00FF901232A00D2B2DFF84C17C0
:1029F000DFF8180702F040FFDFF810270121002060
:102A000003F000F902F097FEB6F968000090012388
:102A10002A00D2B2DFF82817DFF8F40602F00EFF22
:102A200002F091FEE9E2DFF8EC162A00D2B218209B
:102A3000424301EB020010F8080C002840F07181BD
:102A4000DFF8D4062900C9B2084410F8010C0128A7
:102A500040F06781DFF8C4062900C9B200EB4100ED
:102A600030F8020C652809DADFF8B4062900C9B28B
:102A700000EB410030F8020C65284CDB002086F8A2
:102A800055000621DFF87C262B00DBB217204343DC
:102A900002EB030020F80B1C0021DFF868262B0056
:102AA000DBB21720434302EB030020F8091C390076
:102AB000C9B2DFF850262B00DBB21720434302EBEC
:102AC00003001738FEF71EFE0120DFF83C26012127
:102AD000002003F097F802232A00D2B2DFF8441650
:102AE000DFF8280602F0C8FEDFF8202601210020CA
:102AF00003F088F802F01FFEB6F968000090012389
:102B00002A00D2B2DFF82016DFF8040602F096FEA3
:102B100002F019FE05E1B6F95A00B6F968108842CC
:102B200051DB2000C0B200284DD1012086F85600AC
:102B30000721DFF8D0252B00DBB21720434302EB3F
:102B4000030020F80B1C4FF41671DFF8B8252B009A
:102B5000DBB21720434302EB030020F8091C3900C5
:102B6000C9B2DFF8A0252B00DBB21720434302EBEC
:102B700003001738FEF7C6FD0120DFF88C25012180
:102B8000002003F03FF802232A00D2B2DFF89C15A0
:102B9000DFF8780502F070FEDFF8702501210020D3
:102BA00003F030F802F0C7FDB6F968000090022388
:102BB0002A00D2B2DFF87815DFF8540502F03EFEA5
:102BC00002F0C1FDADE096F85600012854D1B6F9E7
:102BD0006400B6F9681088424EDB2000C0B20028BD
:102BE0004AD10721DFF81C252B00DBB21720434315
:102BF00002EB030020F80B1C4FF41671DFF80425DC
:102C00002B00DBB21720434302EB030020F8091C22
:102C10003900C9B2DFF8EC242B00DBB217204343A4
:102C200002EB03001738FEF76DFD0120DFF8D82412
:102C30000121002002F0E6FF02232A00D2B2DFF8D1
:102C4000F414DFF8C80402F017FEDFF8C0240121F5
:102C5000002002F0D7FF02F06EFDB6F96800009088
:102C600002232A00D2B2DFF8D014DFF8A40402F065
:102C7000E5FD02F068FD54E0B6F96800B6F96410AD
:102C800088424EDBE4B2002C4BD1002086F856007F
:102C90000721DFF870242B00DBB21720434302EB3F
:102CA000030020F80B1C0021DFF858242B00DBB2B6
:102CB0001720434302EB030020F8091C3900C9B276
:102CC000DFF840242B00DBB21720434302EB030064
:102CD0001738FEF717FD0120DFF82C240121002012
:102CE00002F090FF02232A00D2B2DFF85014DFF87E
:102CF0001C0402F0C1FDDFF814240121002002F0C1
:102D000081FF02F018FDB6F96800009002232A0046
:102D1000D2B2DFF82C14DFF8F80302F08FFD02F0D6
:102D200012FD6AE1DFF8EC132A00D2B21820424308
:102D300001EB020010F8040C002840F05681DFF887
:102D4000D8032900C9B2084410F8010C012840F04A
:102D50004C81DFF8C8032900C9B200EB410030F80C
:102D6000020C65280EDADFF8B80303E034CF03085D
:102D7000E0B703082900C9B200EB410030F8020CAB
:102D8000652847DB002086F855000821DFF874230A
:102D90002B00DBB21720434302EB030020F80B1C8F
:102DA0000021DFF860232B00DBB21720434302EB46
:102DB000030020F8091C3900C9B2DFF848232B00B2
:102DC000DBB21720434302EB03001738FEF79AFCEF
:102DD0000120CD4A0121002002F014FF03232A0024
:102DE000D2B2DFF84013C94802F046FDC74A0121BC
:102DF000002002F007FF02F09EFCB6F96800009088
:102E000001232A00D2B2C849C14802F017FD02F0DE
:102E10009AFCEAE0B6F95C00B6F96810884248DB33
:102E20002000C0B2002844D1012086F857000821B4
:102E3000B44A2B00DBB21720434302EB030020F817
:102E40000B1C4FF41671AF4A2B00DBB21720434323
:102E500002EB030020F8091C3900C9B2A94A2B0073
:102E6000DBB21720434302EB03001738FEF74AFC9E
:102E70000120A54A0121002002F0C4FE03232A00FC
:102E8000D2B2AA49A14802F0F7FCA04A01210020D1
:102E900002F0B8FE02F04FFCB6F968000090032380
:102EA0002A00D2B2A2499A4802F0C8FC02F04BFCB8
:102EB0009BE096F8570001284BD1B6F96600B6F9A9
:102EC0006810884245DB2000C0B2002841D10821AB
:102ED0008C4A2B00DBB21720434302EB030020F89F
:102EE0000B1C4FF41671874A2B00DBB217204343AB
:102EF00002EB030020F8091C3900C9B2814A2B00FB
:102F0000DBB21720434302EB03001738FEF7FAFB4E
:102F100001207D4A0121002002F074FE03232A00D3
:102F2000D2B28449794802F0A7FC784A01210020F6
:102F300002F068FE02F0FFFBB6F968000090032380
:102F40002A00D2B27C49724802F078FC02F0FBFB06
:102F50004BE0B6F96800B6F96610884245DBE4B28A
:102F6000002C42D1002086F857000821654A2B002A
:102F7000DBB21720434302EB030020F80B1C0021B7
:102F8000604A2B00DBB21720434302EB030020F81A
:102F9000091C3900C9B25B4A2B00DBB2172043433E
:102FA00002EB03001738FEF7ADFB0120564A012162
:102FB000002002F027FE03232A00D2B25F495348C3
:102FC00002F05AFC514A0121002002F01BFE02F0DF
:102FD000B2FBB6F96800009003232A00D2B2584928
:102FE0004B4802F02BFC02F0AEFB06E000205549F6
:102FF0002A00D2B2114401F8010C52482900C9B28A
:10300000084410F8010C401C4E492A00D2B2114469
:1030100001F8010C4B482900C9B2084410F8010C12
:10302000012817D196F8460000285AD196F8540086
:10303000002807D1002043492A00D2B2114401F8E8
:10304000010C4EE003203F492A00D2B2114401F89E
:10305000010C46E03B482900C9B2084410F8010CB5
:10306000022817D196F8460001283AD196F8540064
:10307000002807D1002033492A00D2B2114401F8B8
:10308000010C2EE003202F492A00D2B2114401F88E
:10309000010C26E02B482900C9B2084410F8010CA5
:1030A00004280BD196F8540001281AD10020254994
:1030B0002A00D2B2114401F8010C12E02148290083
:1030C000C9B2084410F8010C05280AD196F854003A
:1030D000022806D100201B492A00D2B2114401F86F
:1030E000010C18482900C9B2084410F8010C062840
:1030F00005DB00201349EDB2294401F8010CBDE8BD
:10310000F3810000A0D100202CCB0308B0E1002007
:103110000C02002090DB002050E30020E4E20020BD
:10312000ECE20020C8C5030860BC030844CF0308D4
:10313000E8C1030854CF030804C2030854CB0308B2
:1031400020C2030848E30020FEB504001500DFF8A4
:10315000A40C2200D2B2104410F8016C002000220E
:10316000DFF8947CDFF894CCA6465FFA8EFEF82355
:1031700003FB0EFE0CEB0E03B4465FFA8CFC6344BB
:1031800013F8F6CC6E2303FB0CFC07EB0C03B3F82F
:103190006A30A5F8F430DFF8607CDFF860CCA64632
:1031A0005FFA8EFEF82303FB0EFE0CEB0E03B44613
:1031B0005FFA8CFC634413F8F6CC6E2303FB0CFC23
:1031C00007EB0C03B3F86830A5F8F2303300DBB23C
:1031D0002B4493F84230012B41F04683DFF8203C2A
:1031E0002F783B4413F8013C012B41F03D83DFF87D
:1031F000143C2700FFB203EB470333F8023C652B76
:1032000009DADFF8043C2700FFB203EB470333F889
:10321000023C652B52DB00203200D2B22A4482F8F5
:1032200052003200D2B2521CDFF8E03B2700FFB25E
:103230001720474303EB070020F80B2C0022DFF890
:10324000CC3B2700FFB21720474303EB070020F8D1
:10325000092CC9B2DFF8B42B2300DBB2172043439B
:1032600002EB03001738FEF74DFADFF8A42B01211B
:10327000002002F0C7FCF6B2761C33002200D2B266
:10328000DFF8901BDFF8900B02F0F6FADFF8882BDE
:103290000121002002F0B6FC02F04DFAB5F9F2006F
:1032A000009001232200D2B2DFF8701BDFF8700B10
:1032B00002F0C4FA02F047FA01F0EBBA3300DBB2D5
:1032C0002B449B7C012B40F0C5853300DBB22B44A3
:1032D00093F82230012B40F0BD853300DBB205EBC3
:1032E0004303B3F962303700FFB205EB4707B7F984
:1032F000B270BB4200DA01203300DBB205EB4303BE
:10330000B3F982303700FFB205EB4707B7F9D27047
:10331000BB4200DA01220300DBB2012B40F06181E5
:103320001300DBB2012B40F05C813000C0B205EB32
:103330004000B0F96200B5F9F220904209DA30009D
:10334000C0B205EB4000B0F98200B5F9F42090421C
:1033500056DB01203200D2B22A4482F852003200F9
:10336000D2B2521CDFF8A43A2700FFB2172047431D
:1033700003EB070020F80B2C4FF41672DFF88C3AA1
:103380002700FFB21720474303EB070020F8092C62
:10339000C9B2DFF8782A2300DBB21720434302EBDF
:1033A00003001738FEF7AEF9DFF8642A0121002088
:1033B00002F028FC3300DBB22200D2B2DFF8641A3C
:1033C000DFF8540A02F058FADFF84C2A01210020F5
:1033D00002F018FC02F0AFF9B5F9F4000190B5F96C
:1033E000F2000090F6B233002200D2B2DFF8381AB1
:1033F000DFF82C0A02F022FA02F0A5F901F049BA2E
:103400003000C0B2284490F85200012809D13000A1
:10341000C0B205EB4000B0F9B200B5F9F22090421D
:1034200009DA3000C0B205EB4000B0F9D200B5F9BE
:10343000F420904250DB3200D2B2521CDFF8CC397B
:103440002700FFB21720474303EB070020F80B2C9F
:103450004FF41672DFF8B4392700FFB21720474344
:1034600003EB070020F8092CC9B2DFF8A0292300DC
:10347000DBB21720434302EB03001738FEF742F993
:10348000DFF88C290121002002F0BCFB3300DBB205
:103490002200D2B2DFF89419DFF87C0902F0ECF9CF
:1034A000DFF874290121002002F0ACFB02F043F99F
:1034B000B5F9F4000190B5F9F2000090F6B23300CE
:1034C0002200D2B2DFF86819DFF8540902F0B6F929
:1034D00002F039F901F0DDB9B5F9F2003200D2B2EB
:1034E00005EB4202B2F9B22090425FDBB5F9F4007D
:1034F0003200D2B205EB4202B2F9D220904255DB43
:1035000000203200D2B22A4482F852003200D2B2F5
:10351000521CDFF8F8382700FFB21720474303EBAF
:10352000070020F80B2C0022DFF8E0382700FFB25C
:103530001720474303EB070020F8092CC9B2DFF836
:10354000CC282300DBB21720434302EB03001738DB
:10355000FEF7D8F8DFF8B8280121002002F052FB6E
:103560003300DBB22200D2B2DFF8C818DFF8A808B7
:1035700002F082F9DFF8A0280121002002F042FBCE
:1035800002F0D9F8B5F9F4000190B5F9F200009015
:10359000F6B233002200D2B2DFF89C18DFF88008C0
:1035A00002F04CF902F0CFF801F073B90122DFF814
:1035B0005C38DFF8880806781720464303EB0600DE
:1035C00000F80C2CC9B2DFF84428DFF87008037843
:1035D0001720434302EB03001738FEF793F801F07E
:1035E00058B90300DBB2012B40F061811300DBB25C
:1035F000002B40F05C813000C0B205EB4000B0F918
:103600006200B5F9F220904209DAB5F9F40032000F
:10361000D2B205EB4202B2F98220904256DB012081
:103620003200D2B22A4482F852003200D2B2521C86
:10363000DFF8D8372700FFB21720474303EB070016
:1036400020F80B2C4FF41672DFF8C0372700FFB2BA
:103650001720474303EB070020F8092CC9B2DFF815
:10366000AC272300DBB21720434302EB03001738DB
:10367000FEF748F8DFF898270121002002F0C2FA8F
:103680003300DBB22200D2B2DFF89817DFF88807E8
:1036900002F0F2F8DFF880270121002002F0B2FAF0
:1036A00002F049F8B5F9F4000190B5F9F200009084
:1036B000F6B233002200D2B2DFF88417DFF86007D9
:1036C00002F0BCF802F03FF801F0E3B83000C0B2FD
:1036D000284490F85200012809D13000C0B205EB0F
:1036E0004000B0F9B200B5F9F220904209DAB5F91C
:1036F000F4003200D2B205EB4202B2F9D22090427D
:1037000050DB3200D2B2521CDFF800372700FFB284
:103710001720474303EB070020F80B2C4FF41672D9
:10372000DFF8E8362700FFB21720474303EB070016
:1037300020F8092CC9B2DFF8D4262300DBB2172009
:10374000434302EB03001738FDF7DCFFDFF8C02628
:103750000121002002F056FA3300DBB22200D2B27F
:10376000DFF8C816DFF8B00602F086F8DFF8A82602
:103770000121002002F046FA01F0DDFFB5F9F40066
:103780000190B5F9F2000090F6B233002200D2B2F7
:10379000DFF8B016DFF8880602F050F801F0D3FF2A
:1037A00001F077B8B5F9F2003200D2B205EB42026F
:1037B000B2F9B22090425FDB3000C0B205EB4000AE
:1037C000B0F9D200B5F9F420904255DB0020320068
:1037D000D2B22A4482F852003200D2B2521CDFF830
:1037E0002C362700FFB21720474303EB070020F8D1
:1037F0000B2C0022DFF814362700FFB217204743B6
:1038000003EB070020F8092CC9B2DFF800262300DB
:10381000DBB21720434302EB03001738FDF772FFBA
:10382000DFF8EC250121002002F0ECF93300DBB2D7
:103830002200D2B2DFF8FC15DFF8DC0502F01CF83C
:10384000DFF8D4250121002002F0DCF901F073FF3C
:10385000B5F9F4000190B5F9F2000090F6B233002A
:103860002200D2B2DFF8E015DFF8B40501F0E6FF80
:1038700001F069FF01F00DB80122DFF89035DFF8A3
:10388000BC0506781720464303EB060000F80C2C15
:10389000C9B2DFF87825DFF8A40503781720434381
:1038A00002EB03001738FDF72DFF00F0F2BF030015
:1038B000DBB2002B40F055811300DBB2012B40F04E
:1038C0005081B5F9F2003200D2B205EB4202B2F9F2
:1038D0006220904209DA3000C0B205EB4000B0F936
:1038E0008200B5F9F420904256DB01203200D2B2BA
:1038F0002A4482F852003200D2B2521CDFF80C3552
:103900002700FFB21720474303EB070020F80B2CDA
:103910004FF41672DFF8F4342700FFB21720474344
:1039200003EB070020F8092CC9B2DFF8E0242300DC
:10393000DBB21720434302EB03001738FDF7E2FE2A
:10394000DFF8CC240121002002F05CF93300DBB267
:103950002200D2B2DFF8CC14DFF8BC0401F08CFFF7
:10396000DFF8B4240121002002F04CF901F0E3FE5D
:10397000B5F9F4000190B5F9F2000090F6B2330009
:103980002200D2B2DFF8C414DFF8940401F056FF2D
:1039900001F0D9FE00F07DBF3000C0B2284490F89D
:1039A0005200012809D1B5F9F2003200D2B205EB7C
:1039B0004202B2F9B220904209DA3000C0B205EBFF
:1039C0004000B0F9D200B5F9F420904250DB32004B
:1039D000D2B2521CDFF834342700FFB2172047431D
:1039E00003EB070020F80B2C4FF41672DFF81C34A1
:1039F0002700FFB21720474303EB070020F8092CEC
:103A0000C9B2DFF808242300DBB21720434302EBDE
:103A100003001738FDF776FEDFF8F42301210020BC
:103A200002F0F0F83300DBB22200D2B2DFF8FC1370
:103A3000DFF8E40301F020FFDFF8DC2301210020A0
:103A400002F0E0F801F077FEB5F9F4000190B5F965
:103A5000F2000090F6B233002200D2B2DFF8F01389
:103A6000DFF8BC0301F0EAFE01F06DFE00F011BFCB
:103A70003000C0B205EB4000B0F9B200B5F9F22059
:103A8000904257DBB5F9F4003200D2B205EB4202A6
:103A9000B2F9D22090424DDB00203200D2B22A444B
:103AA00082F852003200D2B2521CD84B2700FFB22B
:103AB0001720474303EB070020F80B2C0022D34BC1
:103AC0002700FFB21720474303EB070020F8092C1B
:103AD000C9B2CE4A2300DBB21720434302EB0300F6
:103AE0001738FDF70FFECA4A0121002002F08AF8BC
:103AF0003300DBB22200D2B2CE49C74801F0BCFE8F
:103B0000C54A0121002002F07DF801F014FEB5F94C
:103B1000F4000190B5F9F2000090F6B233002200F3
:103B2000D2B2DFF8181EBE4801F088FE01F00BFE8D
:103B300000F0AFBE0122B54BC048067817204643BF
:103B400003EB060000F80C2CC9B2B04ABB4803785E
:103B50001720434302EB03001738FDF7D3FD00F0B5
:103B600098BEC0B2002840F09486D2B2002A40F03D
:103B70009086B5F9F2003200D2B205EB4202B2F9FA
:103B80006220904209DAB5F9F4003200D2B205EBB6
:103B90004202B2F9822090424EDB01203200D2B2C2
:103BA0002A4482F852003200D2B2521C974B2700AE
:103BB000FFB21720474303EB070020F80B2C4FF40C
:103BC0001672924B2700FFB21720474303EB070002
:103BD00020F8092CC9B28D4A2300DBB217204343D9
:103BE00002EB03001738FDF78DFD894A0121002003
:103BF00002F008F83300DBB22200D2B289498648CD
:103C000001F03AFE844A0121002001F0FBFF01F09F
:103C100092FDB5F9F4000190B5F9F2000090F6B20A
:103C200033002200D2B2DFF8181D7D4801F006FEF5
:103C300001F089FD00F02DBE3000C0B2284490F89C
:103C40005200012809D1B5F9F2003200D2B205EBD9
:103C50004202B2F9B220904209DAB5F9F40032001A
:103C6000D2B205EB4202B2F9D220904248DB3200D8
:103C7000D2B2521C654B2700FFB21720474303EB1B
:103C8000070020F80B2C4FF41672604B2700FFB290
:103C90001720474303EB070020F8092CC9B25B4A01
:103CA0002300DBB21720434302EB03001738FDF774
:103CB00029FD574A0121002001F0A4FF3300DBB2A7
:103CC0002200D2B25949544801F0D6FD524A01218E
:103CD000002001F097FF01F02EFDB5F9F4000190EE
:103CE000B5F9F2000090F6B233002200D2B2DFF84C
:103CF000541C4B4801F0A2FD01F025FD00F0C9BDA8
:103D00003000C0B205EB4000B0F9B200B5F9F220C6
:103D1000904257DB3000C0B205EB4000B0F9D20052
:103D2000B5F9F42090424DDB00203200D2B22A4493
:103D300082F852003200D2B2521C344B2700FFB23C
:103D40001720474303EB070020F80B2C00222F4BD2
:103D50002700FFB21720474303EB070020F8092C88
:103D6000C9B22A4A2300DBB21720434302EB030007
:103D70001738FDF7C7FC264A0121002001F042FF59
:103D80003300DBB22200D2B22A49234801F074FD8D
:103D9000214A0121002001F035FF01F0CCFCB5F9EA
:103DA000F4000190B5F9F2000090F6B23300220061
:103DB000D2B2DFF8941B1A4801F040FD01F0C3FCB9
:103DC00000F067BD0122114B1C48067817204643BE
:103DD00003EB060000F80C2CC9B20C4A1748037814
:103DE0001720434302EB03001738FDF78BFC00F06C
:103DF00050BD00BF9CE20020C0CC0020F089002014
:103E000050E30020E4E20020ECE20020A0D10020FA
:103E10002CCB030864CF0308B0E1002080BC03086A
:103E20000C02002074CF0308949E030884CF03087B
:103E3000E09E030894CF03082C9F030852E400205F
:103E4000789F0308C49F03086C9C030810A0030814
:103E50005CA003083300DBB22B449B7C012B40F0B9
:103E60008E823200D2B205EB4202B2F962203300F8
:103E7000DBB205EB4303B3F9B2309A4200DA01201A
:103E80000200D2B2012A40F03C813000C0B205EB02
:103E90004000B0F96200B5F9F220904256DB0120F3
:103EA0003200D2B22A4482F852003200D2B2521CFE
:103EB000DFF8983A2700FFB21720474303EB0700CB
:103EC00020F80B2C4FF41672DFF8803A2700FFB26F
:103ED0001720474303EB070020F8092CC9B2DFF88D
:103EE0006C2A2300DBB21720434302EB0300173890
:103EF000FDF708FCDFF8582A0121002001F082FEBE
:103F00003300DBB22200D2B2DFF8481ADFF8480AE9
:103F100001F0B2FCDFF8402A0121002001F072FE1E
:103F200001F009FCB5F9F4000190B5F9F200009038
:103F3000F6B233002200D2B2DFF8201ADFF8200AEE
:103F400001F07CFC01F0FFFB00F0A3BC3000C0B22C
:103F5000284490F8520001285AD13000C0B205EB35
:103F60004000B0F9B200B5F9F220904250DB3200C7
:103F7000D2B2521CDFF8D4392700FFB217204743D2
:103F800003EB070020F80B2C4FF41672DFF8BC3956
:103F90002700FFB21720474303EB070020F8092C46
:103FA000C9B2DFF8A8292300DBB21720434302EB94
:103FB00003001738FDF7A6FBDFF894290121002044
:103FC00001F020FE3300DBB22200D2B2DFF89419F8
:103FD000DFF8840901F050FCDFF87C290121002082
:103FE00001F010FE01F0A7FBB5F9F4000190B5F95E
:103FF000F2000090F6B233002200D2B2DFF8681966
:10400000DFF85C0901F01AFC01F09DFB00F041BCF7
:10401000B5F9F2003200D2B205EB4202B2F9B22099
:10402000904254DB00203200D2B22A4482F852007F
:104030003200D2B2521CDFF814392700FFB2172029
:10404000474303EB070020F80B2C0022DFF8FC3875
:104050002700FFB21720474303EB070020F8092C85
:10406000C9B2DFF8E8282300DBB21720434302EB94
:1040700003001738FDF746FBDFF8D42801210020A4
:1040800001F0C0FD3300DBB22200D2B2DFF8DC1851
:10409000DFF8C40801F0F0FBDFF8BC2801210020A4
:1040A00001F0B0FD01F047FBB5F9F4000190B5F95E
:1040B000F2000090F6B233002200D2B2DFF8B0185E
:1040C000DFF89C0801F0BAFB01F03DFBE1E30122BF
:1040D000DFF87838DFF89C0806781720464303EBB2
:1040E000060000F80C2CC9B2DFF86028DFF884085D
:1040F00003781720434302EB03001738FDF702FB58
:10410000C7E3C0B2002840F0C483B5F9F200320022
:10411000D2B205EB4202B2F96220904255DB012097
:104120003200D2B22A4482F852003200D2B2521C7B
:10413000DFF818382700FFB21720474303EB0700CA
:1041400020F80B2C4FF41672DFF800382700FFB26E
:104150001720474303EB070020F8092CC9B2DFF80A
:10416000EC272300DBB21720434302EB0300173890
:10417000FDF7C8FADFF8D8270121002001F042FD41
:104180003300DBB22200D2B2DFF8C817DFF8C8076D
:1041900001F072FBDFF8C0270121002001F032FDA1
:1041A00001F0C9FAB5F9F4000190B5F9F2000090F8
:1041B000F6B233002200D2B2DFF8BC17DFF8A00756
:1041C00001F03CFB01F0BFFA63E33000C0B22844C9
:1041D00090F85200012859D1B5F9F2003200D2B25C
:1041E00005EB4202B2F9B22090424FDB3200D2B26C
:1041F000521CDFF858372700FFB21720474303EB64
:10420000070020F80B2C4FF41672DFF84037270018
:10421000FFB21720474303EB070020F8092CC9B26F
:10422000DFF828272300DBB21720434302EB03000B
:104230001738FDF767FADFF818270121002001F091
:10424000E1FC3300DBB22200D2B2DFF81817DFF84E
:10425000080701F011FBDFF800270121002001F021
:10426000D1FC01F068FAB5F9F4000190B5F9F2005B
:104270000090F6B233002200D2B2DFF80017DFF868
:10428000E00601F0DBFA01F05EFA02E33000C0B2B2
:1042900005EB4000B0F9B200B5F9F220904254DBD2
:1042A00000203200D2B22A4482F852003200D2B248
:1042B000521CDFF898362700FFB21720474303EB64
:1042C000070020F80B2C0022DFF880362700FFB211
:1042D0001720474303EB070020F8092CC9B2DFF889
:1042E0006C262300DBB21720434302EB0300173890
:1042F000FDF708FADFF858260121002001F082FCC2
:104300003300DBB22200D2B2DFF86016DFF84806D5
:1043100001F0B2FADFF840260121002001F072FC22
:1043200001F009FAB5F9F4000190B5F9F200009036
:10433000F6B233002200D2B2DFF84416DFF82006CE
:1043400001F07CFA01F0FFF9A3E20122DFF8FC356D
:10435000DFF8200606781720464303EB060000F836
:104360000C2CC9B2DFF8E425DFF808060378172023
:10437000434302EB03001738FDF7C4F989E230002C
:10438000C0B2284490F82200012840F08282300018
:10439000C0B205EB4000B0F982003300DBB205EBA0
:1043A0004303B3F9D230984200DA01221000C0B2C0
:1043B000012840F037813000C0B205EB4000B0F971
:1043C0008200B5F9F420904255DB01203200D2B2D0
:1043D0002A4482F852003200D2B2521CDFF86C3507
:1043E0002700FFB21720474303EB070020F80B2CF0
:1043F0004FF41672DFF854352700FFB217204743F9
:1044000003EB070020F8092CC9B2DFF84025230090
:10441000DBB21720434302EB03001738FDF772F9B4
:10442000DFF82C250121002001F0ECFB3300DBB28A
:104430002200D2B2DFF81C15DFF81C0501F01CFACF
:10444000DFF814250121002001F0DCFB01F073F9F5
:10445000B5F9F4000190B5F9F2000090F6B233001E
:104460002200D2B2DFF81C15DFF8F40401F0E6F9FF
:1044700001F069F90DE23000C0B2284490F8520012
:10448000012859D13000C0B205EB4000B0F9D2008C
:10449000B5F9F42090424FDB3200D2B2521CDFF863
:1044A000AC342700FFB21720474303EB070020F886
:1044B0000B2C4FF41672DFF894342700FFB217204C
:1044C000474303EB070020F8092CC9B2DFF87C242E
:1044D0002300DBB21720434302EB03001738FDF73C
:1044E00011F9DFF86C240121002001F08BFB33006F
:1044F000DBB22200D2B2DFF86C14DFF85C0401F00A
:10450000BBF9DFF854240121002001F07BFB01F00E
:1045100012F9B5F9F4000190B5F9F2000090F6B285
:1045200033002200D2B2DFF8CC1CDFF8340401F0F3
:1045300085F901F008F9ACE1B5F9F4003200D2B226
:1045400005EB4202B2F9D220904254DB0020320047
:10455000D2B22A4482F852003200D2B2521CDFF8A2
:10456000EC332700FFB21720474303EB070020F886
:104570000B2C0022DFF8D4332700FFB2172047436B
:1045800003EB070020F8092CC9B2DFF8C023230091
:10459000DBB21720434302EB03001738FDF7B2F8F4
:1045A000DFF8AC230121002001F02CFB3300DBB24B
:1045B0002200D2B2DFF8B413DFF89C0301F05CF9FB
:1045C000DFF894230121002001F01CFB01F0B3F877
:1045D000B5F9F4000190B5F9F2000090F6B233009D
:1045E0002200D2B2DFF8101CDFF8740301F026F9C4
:1045F00001F0A9F84DE10122D44BDFF878030678E9
:104600001720464303EB060000F80C2CC9B2CF4A32
:10461000D84803781720434302EB03001738FDF70F
:1046200071F836E1D2B2002A40F03381B5F9F400D6
:104630003200D2B205EB4202B2F9822090424DDB49
:1046400001203200D2B22A4482F852003200D2B2A3
:10465000521CBE4B2700FFB21720474303EB070055
:1046600020F80B2C4FF41672B84B2700FFB217201E
:10467000474303EB070020F8092CC9B2B34A2300D3
:10468000DBB21720434302EB03001738FDF73AF87B
:10469000AF4A0121002001F0B5FA3300DBB222005D
:1046A000D2B2AC49AC4801F0E7F8AB4A0121002096
:1046B00001F0A8FA01F03FF8B5F9F4000190B5F95E
:1046C000F2000090F6B233002200D2B2DFF82C1BC9
:1046D000A34801F0B3F801F036F8DAE03000C0B2D8
:1046E000284490F85200012851D1B5F9F400320065
:1046F000D2B205EB4202B2F9D220904247DB32003F
:10470000D2B2521C914B2700FFB21720474303EB54
:10471000070020F80B2C4FF416728C4B2700FFB2C9
:104720001720474303EB070020F8092CC9B2874A3A
:104730002300DBB21720434302EB03001738FCF7DA
:10474000E1FF834A0121002001F05CFA3300DBB273
:104750002200D2B28349804801F08EF87E4A0121BE
:10476000002001F04FFA00F0E6FFB5F9F4000190E7
:10477000B5F9F2000090F6B233002200D2B2DFF8B1
:10478000801A774801F05AF800F0DDFF81E0300030
:10479000C0B205EB4000B0F9D200B5F9F420904268
:1047A0004CDB00203200D2B22A4482F852003200A0
:1047B000D2B2521C654B2700FFB21720474303EBD0
:1047C000070020F80B2C0022604B2700FFB21720B7
:1047D000474303EB070020F8092CC9B25B4A2300CA
:1047E000DBB21720434302EB03001738FCF78AFFC4
:1047F000574A0121002001F005FA3300DBB2220004
:10480000D2B25A49544801F037F8534A01210020E6
:1048100001F0F8F900F08FFFB5F9F4000190B5F957
:10482000F2000090F6B233002200D2B2DFF8D419C1
:104830004B4801F003F800F086FF2AE00122434BC9
:104840004C4806781720464303EB060000F80C2C72
:10485000C9B23E4A474803781720434302EB03009E
:104860001738FCF74FFF14E00122384B4148067817
:104870001720464303EB060000F80C2CC9B2334A5C
:104880003C4803781720434302EB03001738FCF73A
:1048900039FFDFF8280C2100C9B2084410F8010CD8
:1048A000401CDFF8181C2200D2B2114401F8010CA0
:1048B000DFF8080C2100C9B2084410F8010C1028D8
:1048C00007DB0020DFF8F41B2200D2B2114401F80C
:1048D000010C002021E00021DFF8E02B2300DBB2F7
:1048E0001A4402F8011C17E0DFF8D01B2200D2B2F4
:1048F000114411F8011C1029EDDADFF8C01B220069
:10490000D2B2114411F8011C491CDFF8B02B23006E
:10491000DBB21A4402F8011C401C0100C9B2102984
:104920000BDADFF8981B2200D2B2114411F8011CF7
:10493000294491F832100129D6D1F7BDBC9C030857
:104940000C9D03085C9D0308AC9D0308A0D10020CA
:104950002CCB030874CF0308B0E10020C8A60308DD
:104960000C02002084CF0308FCA6030894CF0308A0
:10497000A4A4030852E40020DCA4030814A503083F
:104980004CA5030830A7030838B504000025FBF741
:10499000CDFEDFF82C0B0078411CDFF8242B1170C2
:1049A000C0B20A28C0F225840020DFF8141B08706A
:1049B000DFF8100B0088411CDFF8082B1180DFF8AE
:1049C000081B097889B280B2814280F0D883002028
:1049D000DFF8F01A0880002100E0491C0800C0B28E
:1049E000DFF8E82A928880B290420CD2DFF8E02A01
:1049F0000B00DBB21720434302EB03004079012890
:104A0000EBD10D006D1CDFF8CC0A0078002800F017
:104A1000B683DFF8C40A0078002849D1DFF8BC0A61
:104A20000078401CDFF8B41A0870DFF8B00A01788B
:104A3000DFF89C2ADFF8A40A03781720434302EB2F
:104A4000030000F80E1C6421DFF8842ADFF88C0ACA
:104A500003781720434302EB030000F80D1C2121CB
:104A6000DFF86C2ADFF8740A03781720434302EB5F
:104A7000030000F80C1C2100C9B2DFF8542ADFF84B
:104A80005C0A03781720434302EB03001738FCF756
:104A900039FEDFF8480A0078DFF8301A898880B2DA
:104AA0008842C0F06C830120DFF82C1A087066E39E
:104AB0002800C0B2002800F08F81DFF8141A2A0005
:104AC000D2B21720424301EB020010F80D0C282847
:104AD00040F03781DFF8F8192A00D2B2172042439C
:104AE00001EB020030F80B0C01283BD10121DFF86B
:104AF000F0292B00DBB21820434302EB030000F83F
:104B0000181CDFF8C809C18ADFF8D4292B00DBB2F2
:104B10001820434302EB030020F8161CDFF8C419E9
:104B20002A00D2B21720424301EB020030F8151CD4
:104B300051F00101DFF8AC292B00DBB21720434311
:104B400002EB030020F8151C00F0F5FD2A00D2B29C
:104B5000521EDFF89419DFF8940900F06FFE00F0A0
:104B6000F2FDEEE0DFF868192A00D2B217204243C6
:104B700001EB020030F80B0C032823D10121DFF8F0
:104B800060292B00DBB21820434302EB030000F83E
:104B9000141C3C21DFF848292B00DBB218204343CA
:104BA00002EB030020F8121C00F0C5FD2A00D2B26F
:104BB000521EDFF83C19DFF8340900F03FFE00F028
:104BC000C2FDBEE0DFF808192A00D2B21720424326
:104BD00001EB020030F80B0C042823D10121DFF88F
:104BE00000292B00DBB21820434302EB030000F83E
:104BF000101C3C21DFF8E8282B00DBB218204343CF
:104C000002EB030020F80E1C00F095FD2A00D2B242
:104C1000521EDFF8E018DFF8D40800F00FFE00F0B5
:104C200092FD8EE0DFF8A8182A00D2B21720424386
:104C300001EB020030F80B0C062823D10121DFF82C
:104C4000A0282B00DBB21820434302EB030000F83E
:104C50000C1C3C21DFF888282B00DBB218204343D2
:104C600002EB030020F80A1C00F065FD2A00D2B216
:104C7000521EDFF88418DFF8740800F0DFFD00F042
:104C800062FD5EE0DFF848182A00D2B217204243E6
:104C900001EB020030F80B0C072823D10121DFF8CB
:104CA00040282B00DBB21820434302EB030000F83E
:104CB000081C3C21DFF828282B00DBB218204343D6
:104CC00002EB030020F8061C00F035FD2A00D2B2EA
:104CD000521EDFF82818DFF8140800F0AFFD00F0CE
:104CE00032FD2EE0DFF8E8172A00D2B21720424347
:104CF00001EB020030F80B0C082822D10121DFF86B
:104D0000E0272B00DBB21820434302EB030000F83E
:104D1000041C3C21DFF8C8272B00DBB218204343DA
:104D200002EB030020F8021C00F005FD2A00D2B2BD
:104D3000521EDFF8CC17DFF8B40700F07FFD00F05B
:104D400002FD0021DFF888272B00DBB21720434348
:104D500002EB030000F8121C2100C9B2DFF8702733
:104D60002B00DBB21720434302EB03001738FCF79C
:104D7000C9FC0120DFF88C1708702A00D2B2DFF8D6
:104D80008817DFF8880700F077FDDFF8802701211A
:104D9000002000F037FF00F0CEFC2800C0B20090E9
:104DA000DFF82C172A00D2B21720424301EB020091
:104DB00010F80E3CDFF81817EDB21720454301EB51
:104DC000050010F80D2CDFF84817DFF8200700F079
:104DD00035FD00F0B8FCD2E1DFF838070078002894
:104DE00000F07C81DFF830070078401CDFF82817DE
:104DF0000870DFF824070178DFF8D426DFF81807F9
:104E000003781720434302EB030000F80E1CDFF881
:104E1000D416DFF8040702781720424301EB0200A2
:104E200010F80D1CDFF8A826DFF8EC060378172031
:104E3000434302EB030000F80D1C0121DFF890262C
:104E4000DFF8D40603781720434302EB030000F891
:104E50000C1CDFF89016DFF8C006027817204243DA
:104E600001EB020010F80D0C282840F0B58003215A
:104E7000DFF85C26DFF8A00603781720434302EB37
:104E8000030000F80C1CDFF89406DFF88C16097894
:104E9000084410F8010C012840F00E81DFF880165C
:104EA000DFF8740602786E20424301EB020010F82E
:104EB000020C00287DD0DFF86816DFF85C06027867
:104EC0006E20424301EB020010F8020C800709D566
:104ED0000120DFF85016DFF840261278114401F85F
:104EE000010C5AE0DFF83816DFF82C0602786E2045
:104EF000424301EB020010F8020C400709D50220E2
:104F0000DFF82016DFF810261278114401F8010CA2
:104F100043E0DFF80C16DFF8000602786E2042430B
:104F200001EB020010F8020C000709D50320DFF89E
:104F3000F415DFF8E4251278114401F8010C2CE097
:104F4000DFF8DC15DFF8D00502786E20424301EB74
:104F5000020010F8020CC00609D50420DFF8C415C1
:104F6000DFF8B4251278114401F8010C15E0DFF8E0
:104F7000B015DFF8A40502786E20424301EB020071
:104F800010F8020C800608D50520DFF89815DFF828
:104F900088251278114401F8010C0021DFF88025E2
:104FA000DFF8740503786E20434302EB030000F83A
:104FB000021CDFF86C15DFF8600502786E204243B2
:104FC00001EB0200B0F16E022100C9B2DFF8480522
:104FD0000078FCF7A1FD6FE0DFF80815DFF8380571
:104FE00002781720424301EB020010F80D0C0A284A
:104FF0003AD1DFF83415DFF820050278F820424373
:1050000001EB020010F8F80C01281ED10421DFF892
:10501000C024DFF8040503781720434302EB0300A4
:1050200000F80C1CDFF80015DFF8EC040278F8201B
:10503000424301EB0200B0F1F8022100C9B2DFF8EF
:10504000D8040078FEF780F836E02100C9B2DFF816
:105050008024DFF8C40403781720434302EB0300E5
:105060001738FCF74FFB27E0DFF87814DFF8A804C7
:1050700002781720424301EB020010F80D0C1E28A5
:105080000CD0DFF86014DFF8900402781720424358
:1050900001EB020010F80D0C14280DD12100C9B24B
:1050A000DFF82C24DFF8700403781720434302EB69
:1050B00003001738FCF726FBDFF85C040078DFF804
:1050C0000C14898880B2884259D30020DFF8441438
:1050D00008700020DFF84014087050E0DFF84C043E
:1050E000007800284BD0DFF830040078401CDFF84F
:1050F00028140870DFF820040178DFF8D423DFF8E3
:10510000180403781720434302EB030000F80E1C39
:105110006421DFF8BC23DFF8000403781720434341
:1051200002EB030000F80D1C2121DFF8A423DFF8B7
:10513000E80303781720434302EB030000F80C1C3C
:105140002100C9B2DFF88823DFF8CC0303781720E9
:10515000434302EB03001738FCF7D4FADFF8B80337
:105160000078DFF86813898880B2884207D300206E
:10517000DFF8B81308700020DFF89C130870DFF820
:1051800054030078002834D0DFF83C030078DFF8BF
:105190003C138988891C4843DFF894130860DFF8C2
:1051A00094030088411CDFF88C23118080B2DFF863
:1051B0008013096888421CD30020DFF87813088028
:1051C000DFF874030078401CDFF86C130870DFF818
:1051D00068030078142804DA0120DFF83813087017
:1051E00007E00020DFF8501308700120DFF83C13BF
:1051F000087031BD64A7030884A5030898A70308B5
:10520000BCA50308F4A5030838B505000024FCF785
:10521000EDF8AB480078411CA94A1170C0B20A28C9
:10522000C0F24A810020A6490870A6480088411CA7
:10523000A44A1180A449097889B280B2814280F0E1
:10524000FE8000209F490880002100E0491C0800E2
:10525000C0B29E4A928880B290420BD29C4A0B0008
:10526000DBB21720434302EB030040790128EDD164
:105270000C00641C97480078002800F0E0809648F5
:105280000078002831D195480078401C9349087077
:10529000924801788E4A914803781720434302EBE5
:1052A000030000F80E1C0021894A8C48037817205F
:1052B000434302EB030000F80C1C2900C9B2844AE6
:1052C000864803781720434302EB03001738FCF7A6
:1052D00047FB824800787D49898880B28842C0F0C7
:1052E000AE8001207C490870A9E02000C0B20028EF
:1052F00036D00021764A2300DBB21720434302EB6D
:10530000030000F8121C2900C9B2714A2300DBB265
:105310001720434302EB03001738FCF721FB012061
:10532000784908702200D2B27749784800F0A4FA90
:10533000764A0121002000F065FC00F0FCF9230012
:10534000DBB26349E4B21720444301EB040010F8D8
:105350000E2C7A49654800F071FA00F0F4F96EE01D
:105360006C480078002833D06B480078401C6A49AC
:10537000087069480178564A674803781720434304
:1053800002EB030000F80E1C0021514A624803782A
:105390001720434302EB030000F80C1C2900C9B29C
:1053A0004B4A5D4803781720434302EB030017384C
:1053B000FCF7D6FA584800784449898880B2884278
:1053C0003DD300205349087000205349087036E04F
:1053D00056480078002832D04F480078401C4E498B
:1053E00008704D4801783A4A4B48037817204343E8
:1053F00002EB030000F80E1C0021354A46480378F2
:105400001720434302EB030000F80C1C2900C9B22B
:105410002F4A414803781720434302EB0300173813
:10542000FCF79EFA3C4800782849898880B2884277
:1054300005D300203D4908700020374908702548F1
:105440000078002838D02148C088082803D01F4899
:10545000C088092808D11C4800781C498988491D42
:1054600048433349086007E017480078174989889E
:10547000891C48432E4908602E480088411C2D4A4B
:10548000118080B22A490968884215D30020294931
:10549000088029480078401C274908702648007871
:1054A000142803DA01201B49087005E00020224976
:1054B000087001201D49087031BD00009CE20020E9
:1054C0004EE400200EE40020DE02002010DD00206B
:1054D000A0D100202FE4002030E400203AE4002096
:1054E00090DB002030D000203CC203080C020020DA
:1054F00058C2030874C2030890C20308ACC2030870
:10550000C8C2030835E40020A4CF0308B0E100209E
:105510009CAE03084FE4002052E4002044E3002046
:10552000C0CC002048E30020F089002050E4002097
:1055300030E3002010E4002051E4002004B8030808
:105540000EB4C0B5024603A800210190009101AB42
:105550000121044878440C3006F09EF806BC5DF842
:1055600010FB00BF6D71030062B38B0708D0521EA1
:1055700011F8013B00F8013B00F024808B07F6D1C5
:10558000830740F0208000BF103A07D330B4B1E861
:105590003810103AA0E83810F9D230BC530724BFB5
:1055A000B1E80810A0E8081044BF51F8043B40F8E7
:1055B000043BD20724BF31F8022B20F8022B44BF52
:1055C0000B7803707047121F17D35B0009D151F895
:1055D000043B20F8023B1B0C121F20F8023BF6D2C2
:1055E0000BE051F8043B00F8013B1B0A20F8023B9A
:1055F0001B0C121F00F8013BF3D238BF121D521EC4
:1056000024BF11F8013B00F8013BF8D87047F0B413
:105610000246106895681318506803EB5004C007E1
:1056200021D54D441FE0F0BC02F10C00704713F887
:10563000017B05F8017B491EF9D1A0B1B60813F82A
:10564000011B06F00306032E08BF13F8016B01EBE4
:1056500006214942801C294405D011F8016B05F848
:10566000016B401EF9D1A342DDD013F8016B16F097
:10567000030104BF13F8011BC91C30090F28DAD13C
:1056800013F8010B0F30D6E762F30F2262F31F42CB
:10569000401810F0030308D0C91A1FD3DB0748BF16
:1056A00000F8012D28BF20F8022D130030B4144655
:1056B0001546103928BF20E93C00FAD8490728BF11
:1056C00020E90C0048BF40F8042D890028BF20F8CD
:1056D000022D48BF00F8012D30BC7047C91818BF13
:1056E00000F8012DCB0728BF00F8012D7047026894
:1056F000531C036011707047704780B506F0E0FFDF
:1057000001BD3EB50C0011001A00069B0025029554
:1057100002AD019500930B0092B20100200006F04B
:10572000CDFE012801D1029800E000203EBD80B5E9
:1057300006F0ADFF01BD80B507F016FA012801D0D3
:1057400006F0E6FF01BD80B507F00EFA012801D092
:1057500006F0E6FF01BD10B5040003220021012080
:1057600007F0CDFB20602068002805D00023002230
:105770000021206807F008FC2068002805D00021DF
:10578000206807F0B6FC012000E0002010BD80B5C5
:105790000168002902D0006807F044FD01BD80B512
:1057A000002300220021006807F0EEFB01BD80B558
:1057B0000021006807F09DFC01BD80B511F1010FCB
:1057C00005D15FF0FF31006807F093FC02E000684C
:1057D00007F08FFC02BD80B500210091694600688A
:1057E00007F059FC009802BD10B50400012007F035
:1057F000BEFB20602068002801D0012000E00020CE
:1058000010BD80B55FF0FF31006807F072FC01BD8C
:1058100080B5002300220021006807F0B5FB01BD20
:1058200080B506F0EEFF02BD80B507F0A2FD02BD17
:1058300080B5002801D007F0A8FD01BD0CB43EB52D
:10584000044606A801900D462046AFF300800021D3
:10585000009101AB2A46214606487844163005F0EF
:105860001BFF05462046AFF30080284603B030BC3E
:105870005DF80CFB456E03000CB430B583B00446F4
:1058800006A802900A4600250194009502AB01A9E2
:10589000084878441E3005F0FFFE01990D7000287D
:1058A0004EBF04460198041B204603B030BC5DF88F
:1058B0000CFB00BF3BFEFFFF01E000BF00BF01008B
:1058C000481E0029F9D1704710B5040002E00B20F2
:1058D000FFF7F2FF2000441E0028F8D110BDF8B5F4
:1058E00002A8DFF8DC13D1E90023C0E900236846F1
:1058F000DFF8D013D1E90023C0E9002302211020F2
:1059000000F00AF802A9002000F0ECF96946012035
:1059100000F0E8F905B000BD38B505000C0000F056
:1059200066F8DFF8A403FFF7CFFFDFF8A003C47029
:10593000DFF8980305710020DFF89013487100200C
:10594000DFF8881388710020DFF880134870E4B214
:10595000022C07DBDFF87403407850F00800DFF812
:105960006C134870032000F09DF841F29410FFF78B
:10597000ABFF032000F096F841F29410FFF7A4FF6C
:10598000032000F08FF841F29410FFF79DFF0220F2
:1059900000F088F86420FFF797FFDFF830034078C5
:1059A00050F02000C0B200F056F86420FFF78CFFE2
:1059B0000420DFF81813087000F072F96420FFF774
:1059C00083FF00F03FF86420FFF77EFF0220DFF83E
:1059D000FC128870DFF8F402807850F00400C0B246
:1059E00000F039F842F21070FFF76EFF31BD80B55C
:1059F00000224FF48071DFF8D80207F0DAFD0022B0
:105A00008021DFF8CC0207F0D4FD00224FF4805152
:105A1000DFF8BC0207F0CDFD00224FF48041DFF833
:105A2000B00207F0C6FD00224FF40041DFF8A002EB
:105A300007F0BFFD00224FF48061DFF8980207F005
:105A4000B8FD01BD80B5012000F005F840F6B83082
:105A5000FFF73AFF01BD10B5040000224FF480713A
:105A6000DFF86C0207F0A5FD2000C0B2000900F0CD
:105A700019F814F00F04200000F014F810BD10B550
:105A8000040001224FF48071914807F092FD20003C
:105A9000C0B2000900F006F814F00F04200000F076
:105AA00001F810BD10B504002000C0B2000706D5F3
:105AB00001224FF48061874807F07BFD05E000225A
:105AC0004FF48061834807F074FD2000C0B24007A6
:105AD00006D501224FF400417D4807F06AFD05E03C
:105AE00000224FF400417A4807F063FD2000C0B265
:105AF000800706D501224FF48041754807F059FD13
:105B000005E000224FF48041714807F052FDE4B2F5
:105B1000E00706D501224FF480516D4807F049FD9A
:105B200005E000224FF48051694807F042FD012250
