:020000040800F2
:10000000C8FC00200D270408E5EA0308E7EA030816
:10001000E9EA0308EBEA0308EDEA03080000000040
:1000200000000000000000000000000091790208BC
:10003000EFEA03080000000039790208F1EA03083A
:10004000F52E0408F92E0408FD2E0408012F0408DB
:10005000052F0408092F04080D2F0408112F040888
:10006000152F0408192F04081D2F0408212F040838
:10007000252F0408292F040825EB03082D2F040839
:1000800005EB0308312F0408352F0408392F040825
:100090003D2F0408412F0408452F0408492F040868
:1000A0004D2F0408512F0408552F0408592F040818
:1000B0005D2F0408612F0408652F0408692F0408C8
:1000C0006D2F0408712F0408752F0408792F040878
:1000D0007D2F0408812F04080FEB030819EB030898
:1000E000852F0408892F04088D2F0408912F0408F8
:1000F000952F0408992F04089D2F0408A12F0408A8
:10010000A52F0408A92F0408AD2F0408B12F040857
:10011000B52F0408B92F0408BD2F0408C12F040807
:10012000C52F04081BEB0308C92F0408CD2F0408B2
:10013000D12F04085BB10308D52F0408D92F040878
:10014000DD2F0408E12F0408E52F0408E92F040837
:10015000ED2F0408F12F0408F52F04082FEB0308F6
:10016000F92F0408FD2F04080130040805300408A5
:10017000093004080D3004081130040800000000A4
:10018000153004081930040839EB03081D30040841
:100190002130040825300408293004082D300408D3
:0C01A00031300408353004083930040800
:10020000BFF34F8FDFF8DC09016811F4E061DFF81C
:10021000D8090143DFF8CC090160BFF34F8F00BF5D
:10022000FDE730B402004FF6FF70002400E0641CCC
:1002300023000D009BB2ADB2AB4215D223009BB29E
:10024000D35C584000231D00ADB2082DEFDAC5077E
:1002500002D480B2400805E080B205004AF20100F5
:1002600090EA55005B1CEEE780B230BC704770B579
:100270000C0000210025DFF874190978002900F02E
:10028000AD81DFF86C190978002914D002293AD021
:1002900020D3042900F0808068D3062900F0A880CC
:1002A000C0F09080082900F0CE80C0F0BC80092901
:1002B00000F0D9808DE1C0B2132808D10120DFF809
:1002C000301908701020DFF82819887101E000F05B
:1002D00073FC80E10100C9B2DFF81429A2F8011013
:1002E000DFF80C19DFF80C2912781144C871DFF817
:1002F00004090078401CDFF8FC1808700220DFF8C1
:10030000F018087067E1DFF8E818B1F80110020092
:10031000D2B251EA0221DFF8D828A2F80110DFF8A2
:10032000D018DFF8D02812781144C871DFF8C0085F
:10033000B0F80100DFF8C018498888420BD1DFF817
:10034000B4080078401CDFF8AC1808700320DFF810
:10035000A018087009E000F02FFCDFF89408B0F84E
:100360000110DFF8980806F0FBF934E10421DFF80A
:1003700080281170DFF87818C870DFF87418DFF87B
:10038000742812781144C871DFF868080078401C9E
:10039000DFF8601808701EE10521DFF8542811709D
:1003A000DFF84C180871DFF84818DFF84828127891
:1003B0001144C871DFF83C080078401CDFF834189D
:1003C000087008E10621DFF828281170DFF82018EE
:1003D0004871DFF81C18DFF81C2812781144C87126
:1003E000DFF810080078401CDFF808180870F2E009
:1003F000DFF800180978DFF8F827927991420ED2D9
:10040000DFF8EC17DFF8EC2712781144C871DFF839
:10041000E4070078401CDFF8DC170870DBE00721F8
:10042000DFF8CC2711700821DFF8C4271170DFF83E
:10043000C01781F80701DFF8BC070078401CDFF81F
:10044000B4170870C7E00921DFF8A4271170DFF89E
:10045000A01781F80601DFF89C070078401CDFF840
:1004600094170870B7E0C0B20D2840F0AF80DFF8F5
:10047000800790F80601DFF8781791F8076156EACF
:100480000026DFF86C07817989B2DFF87407FFF77F
:10049000C8FEDFF860170978491CDFF8582711708B
:1004A00080B2864240F08F80DFF84807007813283A
:1004B00040F08480DFF838074079112807D11022F6
:1004C000DFF83C17200006F05FF9112559E0DFF84E
:1004D00020074079132807D11022DFF824172000C5
:1004E00006F052F913254CE0DFF804074079312873
:1004F00007D11022DFF80817200006F045F9312552
:100500003FE0DFF8EC064079032807D11022DFF83E
:10051000F016200006F038F9032532E0DFF8D006A7
:100520004079142807D11022DFF8D416200006F0F5
:100530002BF9142525E0DFF8B8064079152807D1F6
:100540001022DFF8BC16200006F01EF9152518E071
:10055000DFF89C064079212807D11022DFF8A01689
:10056000200006F011F921250BE0DFF88406407920
:10057000142806D11022DFF88816200006F004F9AE
:100580001425DFF86C064079162806D11022DFF812
:100590007016200006F0F8F81625DFF854064079AA
:1005A000122806D11022DFF85816200006F0ECF8C9
:1005B000122500F001FB2800C0B238E100F0FCFA7F
:1005C0002800C0B233E100F0F7FA01E000F0F4FADD
:1005D00001E000F0F1FA2800C0B228E1DFF82416AB
:1005E0000978022905D0DFF81C160978062940F0A1
:1005F0001D81D2B2002A00F08680DFF8F415097858
:10060000002902D0062913D07AE0DFF8E415DFF8DC
:10061000E42512781144C871DFF8D8050078401C31
:10062000DFF8D01508700620DFF8C4150870FBE06D
:10063000DFF8BC15DFF8BC2512781144C871DFF86B
:10064000B005C079DFF8B015498A80B2884217D169
:10065000DFF89C05007ADFF8A015898A80B288420D
:100660000ED10120DFF88415087006F03CF9DFF8A0
:100670009815DFF8980506F0B9F906F03CF92CE07A
:100680000320DFF880150870DFF884050088401C1F
:10069000DFF87C150880DFF87805008803281CDB6C
:1006A000DFF87015DFF8700506F0BEF9DFF8682591
:1006B0000021002006F07EFB06F015F9DFF850055A
:1006C0000288DFF85815DFF8440506F08FF906F0C8
:1006D00012F90120DFF81415087006F004F9DFF8AC
:1006E0001005037ADFF80805C279DFF83415DFF862
:1006F0001C0506F07BF906F0FEF800F05DFA93E0C9
:1007000000F05AFA90E0DFF8E8140978002906D0E2
:1007100005290CD0062915D009292BD082E0C0B2BA
:10072000AB2803D10520DFF8C81408707CE0C0B204
:100730000A2804D10620DFF8B814087001E000F0A0
:100740003BFA71E0DFF8A814DFF8A824127811440E
:10075000C871DFF8A0040078401CDFF89814087016
:10076000DFF890040078032803DB0920DFF8801409
:10077000087059E0DFF87814DFF878241278114413
:10078000C871DFF86C04C079DFF86C14498A80B254
:10079000884217D1DFF85804007ADFF85C14898AA0
:1007A00080B288420ED10120DFF84014087006F0B4
:1007B0009AF8DFF85414DFF8540406F017F906F03D
:1007C0009AF82CE00320DFF83C140870DFF84004AE
:1007D0000088401CDFF838140880DFF834040088F3
:1007E00003281CDBDFF82C14DFF82C0406F01CF9BE
:1007F000DFF824240021002006F0DCFA06F073F86C
:10080000DFF80C040288DFF81414DFF8000406F0A7
:10081000EDF806F070F80120DFF8D013087000F052
:10082000CBF901E000F0C8F9002000E0002070BD25
:1008300070B50C00002100250021DFF8B013097805
:10084000002900F0CD80DFF8A813097800290CD02A
:10085000032920D0052934D0062949D0072965D09D
:1008600008296FD0092979D0B5E0C0B20D280FD181
:100870000320DFF87C1308700820DFF874138871F8
:10088000DFF870030078401CDFF86813087001E09F
:1008900000F092F9A1E00521DFF854231170DFF890
:1008A0005013C870DFF84813DFF84823127811445A
:1008B0008871DFF840030078401CDFF838130870B7
:1008C0008BE00621DFF828231170DFF8241348712C
:1008D000401CDFF81C13DFF81C23127811448871C8
:1008E000DFF810030078401CDFF80813087074E08C
:1008F000DFF800130978DFF8F8229279D21C9142D0
:1009000010DADFF8F0120978491EDFF8E422C9B2E4
:100910001144C871DFF8DC020078401CDFF8D41203
:1009200008705AE00721DFF8C82211700821B04A88
:100930001170AF4981F80701AE480078401CAD49FD
:1009400008704AE00921AA4A1170A94981F80601F4
:10095000A8480078401CA74908703EE0C0B20D28A6
:1009600036D1A34890F80601A14991F8076156EAEB
:1009700000269F48817989B2AA48FFF752FC80B2CD
:10098000864222D19B4800780D2819D19848407999
:10099000002806D10A229A49200005F0F5FE01251B
:1009A00009E093484079012805D10A2294492000A2
:1009B00005F0EAFE022500F0FFF82800C0B2FAE0D8
:1009C00000F0FAF82800C0B2F5E000F0F5F801E018
:1009D00000F0F2F801E000F0EFF82800C0B2EAE021
:1009E00088490978022904D086490978062940F007
:1009F000E180D2B2002A67D07D490978002902D06F
:100A000006290ED05DE07A497A4A12781144C871FD
:100A100078480078401C77490870062074490870AF
:100A2000C6E07349734A12781144C8717048C0799E
:100A30007149498A80B2884212D16D48007A6E4964
:100A4000898A80B288420BD101206849087005F07C
:100A50004AFF6D496D4805F0C9FF05F04CFF21E0E4
:100A60000320684908706A480088401C684908806B
:100A700067480088032815DB6649674805F0D4FFFE
:100A8000654A0021002006F095F905F02CFF60482A
:100A9000028862495D4805F0A9FF05F02CFF01209E
:100AA0005249087005F01FFF5148037A5048C27937
:100AB0005B49564805F09AFF05F01DFF00F07CF8F1
:100AC00076E000F079F873E049490978002906D00A
:100AD00005290BD0062913D0092923D066E0C0B21E
:100AE000AB2802D105204249087061E0C0B20A2853
:100AF00003D106203E49087001E000F05DF857E0A0
:100B00003B493C4A12781144C8713A480078401C6D
:100B10003849087037480078032802DB0920344937
:100B2000087045E03249334A12781144C8713048A0
:100B3000C0793149498A80B2884212D12C48007A62
:100B40002D49898A80B288420BD10120274908703B
:100B500005F0C9FE2C492D4805F048FF05F0CBFEF5
:100B600021E003202749087029480088401C2849B3
:100B7000088027480088032815DB2649264805F009
:100B800053FF254A0021002006F014F905F0ABFEC2
:100B90001F48028821491D4805F028FF05F0ABFEDB
:100BA00001201249087000F007F801E000F004F895
:100BB000002000E0002070BD10B500200C49087036
:100BC00000200C49087080210022174C200006F0FC
:100BD0007DF94FF484710022054C200006F076F96F
:100BE00010BD00000CED00E00400FA059EF80020A6
:100BF0009CE60020BDF80020CCF00020181F04085F
:100C0000A3E600209FF80020141504081802002015
:100C100066F800202C1F0408E0F500201CFE0308E5
:100C200050F50308A5E6002084EA00202DE9F843EA
:100C30008CB080460024002500260027DFF8440AF7
:100C40000078401CDFF83C1A0870DFF83C0A007896
:100C5000002828D05FF000090FE04246D2B2DFF84A
:100C6000CC1DDFF8CC0D4B46DBB2C05CFFF7FFFAC2
:100C7000DFF8C01D087019F101094846DFF8081AAD
:100C80000978C0B28842E8D30020DFF8FC19087068
:100C900080210022DFF8988D404606F017F90020E9
:100CA000DFF8E0190870DFF8DC090078652810DB50
:100CB000FFF782FF0020DFF8CC1908700020DFF872
:100CC000C819087080210022DFF8648D404606F0C4
:100CD000FDF8DFF8600D0078002800F0BE860020E7
:100CE000DFF8501D0870DFF8440D8078401EDFF8F3
:100CF000701D0870DFF8680D0178491CDFF8642D5D
:100D0000DFF85C0D03781720434302EB03004172C8
:100D1000DFF8180DC07801280BD10A21DFF8442D27
:100D2000DFF83C0D03781720434302EB0300817288
:100D30004AE0DFF8F80CC07802280BD11421DFF864
:100D4000242DDFF81C0D03781720434302EB03002A
:100D5000817239E0DFF8D40CC07803280BD11E2152
:100D6000DFF8002DDFF8F80C03781720434302EB7F
:100D70000300817228E0DFF8B40CC07804280BD19E
:100D80002821DFF8E02CDFF8D80C03781720434344
:100D900002EB0300817217E01421DFF8C82CDFF8A2
:100DA000C00C03781720434302EB0300817205F067
:100DB0009AFDDFF8AC0C0278DFF8AC1CDFF8AC0C65
:100DC00005F014FE05F097FDDFF8600C0179DFF8FF
:100DD000942CDFF88C0C03781720434302EB0300BC
:100DE000C172DFF8801CDFF8780C027817204243CC
:100DF00001EB0200C07A31280BD0DFF8681CDFF865
:100E0000600C02781720424301EB0200C07A2128CF
:100E10003CD10121DFF84C2CDFF8440C037817207B
:100E20004343D154DFF8480CDFF8341C097830F81C
:100E30001100002800F01186DFF8340CDFF8201CC8
:100E4000097830F81100401EDFF8241CDFF8102C60
:100E5000127821F81200DFF8180CDFF8041C09786A
:100E600030F811000B28C0F2F885DFF8040CDFF829
:100E7000F01B097830F81100401EDFF8F41BDFF892
:100E8000E02B127821F8120000F0E7BDDFF8D41B48
:100E9000DFF8CC0B02781720424301EB0200C07A46
:100EA000112840F0AF82DFF8840B4079DFF87C1B1B
:100EB000897950EA0120DFF8BC1B0880DFF8A41B09
:100EC000DFF89C0B02781720424301EB0200808977
:100ED000DFF8A01B0988884200F0CC80DFF8841B73
:100EE000DFF87C0B02781720424301EB0200427AC4
:100EF000DFF8841BDFF8840B05F096FDDFF87C2B10
:100F00000121002005F056FFDFF8581BDFF8500BD9
:100F100002781720424301EB0200807A0A282BD185
:100F2000DFF8500B0188DFF83C2BDFF8340B037837
:100F30001720434302EB03008181DFF8380B008860
:100F4000DFF83C1BDFF8382B126801EB4201888088
:100F50000022DFF80C0B0178491CC9B2042007F00D
:100F6000C3FDDFF81C0BDFF8181B096800EB41001C
:100F7000808805F0B5F97DE0DFF8E81ADFF8E00ACF
:100F800002781720424301EB0200807A142834D102
:100F9000DFF8E00A0188DFF8CC2ADFF8C40A03781A
:100FA0001720434302EB03008181DFF8C80A008861
:100FB000DFF8CC1ADFF8C82A126801EB42018880FA
:100FC0000022DFF89C0A0178491CC9B2042007F00E
:100FD0008BFD04A810210BF085FC1022DFF8A00A7D
:100FE000DFF89C1A096800EB4100818804A806F02C
:100FF000B1FD04A805F0D0F93CE0DFF8681ADFF88D
:10100000600A02781720424301EB0200807A1E2812
:101010000ED10127DFF85C0A0188DFF8482ADFF8E3
:10102000400A03781720434302EB0300818121E04B
:10103000DFF8301ADFF8280A02781720424301EB64
:101040000200807A282815D1DFF8280A0188DFF805
:10105000142ADFF80C0A03781720434302EB03003D
:1010600081810022DFF8F8090178491CC9B2042007
:1010700007F03AFDDFF8EC19DFF8E40902781720F1
:10108000424301EB0200807A1E2840F0AA80DFF87C
:101090009C09417ADFF89409827ADFF89009C07AD6
:1010A00052EA0022DFF8BC39DFF8B40990F800C03A
:1010B000172000FB0CFC03EB0C00A0F81120DFF85C
:1010C0006C09027BDFF86409407B52EA0022DFF8FA
:1010D0009439DFF88C0990F800C0172000FB0CFC55
:1010E00003EB0C00A0F81320DFF84009827BDFF847
:1010F0003C09C07B52EA0022DFF86839DFF860095A
:1011000090F800C0172000FB0CFC03EB0C00A0F8CB
:101110001520DFF85029DFF84809037817204343EA
:1011200002EB0300007C10F02A000A00D2B212F099
:101130002A0290422ED057F00207DFF82829DFF864
:10114000200903781720434302EB0300007C80074B
:1011500002D5880700D40124DFF80829DFF8000948
:1011600003781720434302EB0300007C000702D5FD
:10117000080700D40125DFF8EC28DFF8E40803783D
:101180001720434302EB0300007C800602D588064B
:1011900000D40126DFF8CC28DFF8C4080378172034
:1011A000434302EB0300007C10F02A0F01D057F0FC
:1011B0000407DFF8B028DFF8A808037817204343B6
:1011C00002EB03000174DFF89C18DFF89408027842
:1011D0001720424301EB02004078012801D157F06B
:1011E0000807DFF8D80B07703800C0B2002808D015
:1011F0000022DFF86C080178491CC9B2032007F00F
:1012000073FCB80740F1CB80DFF8B40B00780128FD
:1012100040F0C580DFF8AC0B47787F1C3800C0B2C7
:10122000652800D10027DFF89C0B00783900C9B28F
:10123000884222D1DFF8900BC288DFF8901BDFF8DC
:101240003C0805F0F1FBDFF834280121002005F00F
:10125000B1FD05F048FBDFF8700BC288DFF8701BAA
:10126000DFF8080805F0C2FB05F045FB40F6B83092
:101270000BF03BFBFEF7C4FF91E0DFF8481BDFF803
:10128000440B42783420424301EB020000210171FB
:10129000DFF8301BDFF82C0B42783420424301EB9F
:1012A0000200DFF8BC170978491C4171DFF8141BF4
:1012B000DFF8100B42783420424301EB020080F843
:1012C0003440DFF8001BDFF8FC0A42783420424348
:1012D00001EB020080F83550DFF8E81ADFF8E40A85
:1012E00042783420424301EB020080F83660DFF898
:1012F000D41ADFF8D00A4278342042431144DFF890
:101300006427DFF85C0703781720434302EB0300F0
:10131000B0F81100C885DFF8AC1ADFF8A80A4278E7
:10132000342042431144DFF83C27DFF834070378C8
:101330001720434302EB0300B0F813000886DFF8E0
:10134000841ADFF8800A4278342042431144DFF8DF
:101350001427DFF80C0703781720434302EB030040
:10136000B0F815004886DFF85C1ADFF8580A4278B2
:101370003420424301EB02004079042805DADFF80B
:10138000542A01210C2005F015FDDFF8380A4770BA
:10139000DFF8440A0078401CDFF83C1A0870DFF8D8
:1013A000D006DFF8BC16097830F81100002800F0EC
:1013B0005483DFF8BC06DFF8A816097830F811006E
:1013C000401EDFF8AC16DFF89826127821F81200DC
:1013D000DFF89C06DFF88816097830F811000B2832
:1013E000C0F23B83DFF88806DFF87416097830F81E
:1013F0001100401EDFF87816DFF86426127821F815
:1014000012002AE3DFF85C16DFF854060278172092
:10141000424301EB0200C07A122840F0BC80DFF8A2
:101420000C064179DFF80406807951EA0021DFF8E3
:101430003426DFF82C0603781720434302EB030021
:1014400081811222DFF818060178022007F04CFB98
:101450000120DFF8EC1B0870DFF80816DFF8000643
:1014600002781720424301EB02008389DFF8F00580
:101470000278521CDFF8CC1BDFF8000605F0D4FA26
:10148000DFF8F8250121002005F094FCDFF8E005E5
:10149000DFF8CC15097830F81100002826D0DFF8E5
:1014A000D005DFF8BC15097830F81100401EDFF8D0
:1014B000C015DFF8AC25127821F81200DFF8B0056E
:1014C000DFF89C15097830F811000B280EDBDFF8E7
:1014D000A005DFF88C15097830F81100401EDFF800
:1014E0009015DFF87C25127821F81200DFF87415CA
:1014F000DFF86C0502781720424301EB0200818976
:10150000DFF86025DFF8580503781720434302EB26
:1015100003004180DFF84C15DFF8440502781720FE
:10152000424301EB02008089DFF85415DFF85025B3
:10153000126801EB42018880DFF844050068012849
:101540000FD0DFF83C05006802280AD0DFF830052C
:10155000DFF82C15096800EB4100808804F0C0FE1C
:101560007BE2DFF81C050068022840F076826846BE
:1015700010210BF0B7F91022DFF80405DFF8001591
:10158000096800EB41008188684606F0E3FA684686
:1015900004F002FF61E2DFF8CC14DFF8C404027843
:1015A0001720424301EB0200C07A16286ED108A82A
:1015B00010210BF097F9DFF874044079DFF86C1410
:1015C000897950EA0120DFF8AC140880DFF8941420
:1015D000DFF88C0402781720424301EB0200807A86
:1015E00014280AD11022DFF88C04018808A806F01C
:1015F000B1FA08A804F0D0FE17E0DFF86814DFF8AD
:10160000600402781720424301EB0200807A0A2826
:101610000BD1002405E0DFF85C04008804F060FED4
:10162000641C2000C0B20328F5DBDFF84804008802
:10163000DFF84C14DFF84824126801EB420188807F
:101640000022DFF81C040178491CC9B2042007F00D
:101650004BFA0120DFF8E8190870DFF8F82A1821A2
:10166000DFF81C040BF02AFA0020DFF84C1C08708D
:101670000020DFF8481C0870DFF8400C00780DF0FF
:1016800006FEEAE1A0F800209CF80020DFF8D41361
:10169000DFF8CC0302781720424301EB0200C07A46
:1016A000132840F0B480DFF884034179DFF87C032D
:1016B000807951EA0021DFF8AC23DFF8A403037836
:1016C0001720434302EB03008181DFF8A403DFF816
:1016D0009013097830F81100002826D0DFF8900325
:1016E000DFF87C13097830F81100401EDFF8801312
:1016F000DFF86C23127821F81200DFF87403DFF8AA
:101700006013097830F811000B280EDBDFF8600356
:10171000DFF84C13097830F81100401EDFF8501341
:10172000DFF83C23127821F81200DFF8941BDFF871
:10173000300302786E20424301EB0200007D002856
:1017400027D0DFF82013DFF8180302781720424370
:1017500001EB0200007BC0071BD5DFF8641BC0480B
:1017600002786E2042431144DFF8542BBC480378C2
:101770006E20434302EB0300407D00220A54002107
:10178000DFF83C2BB64803786E20434302EB03009E
:101790000175B449B24802781720424301EB0200B8
:1017A0004188B04AAE4803781720434302EB030058
:1017B0008089814217D0AB49A9480278172042435B
:1017C00001EB02008189A74AA5480378172043430B
:1017D00002EB030041800022A1480178491CC9B2F4
:1017E000042007F081F905F07EF89E499C480278B4
:1017F0001720424301EB0200838999480278DFF801
:10180000C41A9A4805F0F2F805F075F825E19549F3
:10181000934802781720424301EB0200C07A142853
:101820006FD1824841798148807951EA00218D4AFF
:101830008B4803781720434302EB030081818C48D7
:101840008749097830F8110000281CD0884884495D
:10185000097830F81100401E8549814A127821F834
:10186000120083487E49097830F811000B280ADB02
:101870007F487B49097830F81100401E7C49784A3E
:10188000127821F8120077497548027817204243F0
:1018900001EB02004188734A7148037817204343E3
:1018A00002EB03008089814217D06E496C480278B0
:1018B0001720424301EB020081896A4A6848037895
:1018C0001720434302EB0300418000226448017863
:1018D000491CC9B2042007F007F905F004F8614972
:1018E0005F4802781720424301EB020083895C487D
:1018F0000278DFF8D4195D4805F078F804F0FBFFB2
:10190000ABE05849564802781720424301EB0200E9
:10191000C07A142840D10121524A51480378172037
:10192000434302EB0300417014224D48017802202A
:1019300007F0DAF800224A480178491CC9B20320AE
:1019400007F0D2F80120DFF8F8160870484844493B
:10195000097830F81100002800F07F8044484049A1
:10196000097830F81100401E41493D4A127821F8AB
:1019700012003F483A49097830F811000B286CDB17
:101980003B483749097830F81100401E3849344A3D
:10199000127821F8120060E03249314802781720AD
:1019A000424301EB0200C07A152845D100212D4A9F
:1019B0002B4803781720434302EB030041701522A4
:1019C00027480178022007F08FF800222448017888
:1019D000491CC9B2032007F087F80120DFF8601620
:1019E000087023481E49097830F81100002834D0C7
:1019F0001F481B49097830F81100401E1C49184A3D
:101A0000127821F812001A481549097830F81100A7
:101A10000B2822DB16481249097830F81100401EC5
:101A200013490F4A127821F8120016E084EB0020C7
:101A300004EB00209DF8002004F055FF09490848F8
:101A400002781720424301EB0200C27ADFF87C18CB
:101A5000064804F0CBFF04F04EFF0DB0BDE8F08364
:101A6000A1F80020BCE300204CFE0308180200206F
:101A700098F4002074F80020C8290408F4F5002028
:101A800060F500200100002008784A7850EA8200C2
:101A90008A7850EA0210CA7850EA82100A7950EA2D
:101AA00002204A7950EA82208A7950EA0230C979C4
:101AB00050EA813080B2704738B50400DFF8100872
:101AC0000078401CDFF808180870DFF80808007874
:101AD000002826D000250EE02200D2B2DFF8F81749
:101AE000DFF8F8072B00DBB2C05CFEF7A1FEDFF8E1
:101AF000F01708706D1C2800DFF8D8170978C0B2FD
:101B00008842E9D30020DFF8CC170870802100223A
:101B1000DFF8C847200005F0D9F90020DFF8B0173A
:101B20000870DFF8AC070078652810DBFFF744F891
:101B30000020DFF89C1708700020DFF89817087065
:101B400080210022DFF89447200005F0BFF9DFF87C
:101B500090070078002800F030810020DFF880171F
:101B60000870DFF874070078401EDFF878170870F7
:101B7000DFF870070178491CDFF86C27DFF864078D
:101B800003781720434302EB03004172DFF8480754
:101B90004178DFF85427DFF84C07037817204343D8
:101BA00002EB0300C172DFF84017DFF83807027854
:101BB0001720424301EB0200C07A01284FD10121D6
:101BC000DFF82427DFF81C07037817204343D1549C
:101BD000DFF81807FFF756FFDFF80C27DFF80417C8
:101BE0000B7817214B4302EB03018989020092B263
:101BF000914200F0E280DFF8F026DFF8E8160B787B
:101C000017214B4302EB03018881DFF8DC16DFF874
:101C1000D40602781720424301EB02008389DFF8E3
:101C2000C816DFF8C00602781720424301EB020015
:101C3000427ADFF8BC16DFF8BC0604F0F5FEDFF8E8
:101C4000B4260121002005F0B5F80022DFF8940643
:101C50000178491CC9B2082006F046FFADE0DFF864
:101C60008816DFF8800602781720424301EB020055
:101C7000C07A022840F08D80DFF87006FFF702FF7F
:101C8000DFF86426DFF85C160B7817214B4302EB74
:101C9000030188811222DFF84C060178072006F044
:101CA00023FF0120E6490870DFF83C16DFF8340610
:101CB00002781720424301EB02008389DFF82406F3
:101CC0000278521CDF49DFF82C0604F0ADFEDFF885
:101CD00024260121002005F06DF8DFF81C06DFF84E
:101CE0000416097830F81100002826D0DFF808061D
:101CF000DFF8F015097830F81100401EDFF8F8150C
:101D0000DFF8E025127821F81200DFF8EC05DFF8A3
:101D1000D415097830F811000B280EDBDFF8D80550
:101D2000DFF8C015097830F81100401EDFF8C8153B
:101D3000DFF8B025127821F81200DFF8AC15DFF8D3
:101D4000A40502781720424301EB02008189DFF8E5
:101D50009825DFF8900503781720434302EB030032
:101D6000418004F0C0FDDFF88015DFF878050278C7
:101D70001720424301EB02008389DFF868050278EF
:101D8000DFF87815DFF8780504F030FE04F0B3FDD5
:101D900013E004F0A8FDDFF85015DFF848050278DD
:101DA0001720424301EB0200C27ADFF82015DFF86A
:101DB000500504F01BFE04F09EFD31BDC3F8002069
:101DC00095F8002074640020CCF00020401F040827
:101DD000541F0408A02D040889F80020F8B588B025
:101DE00005000E00002400273000C0B200280CD0EF
:101DF000AA2069462200D2B28854641CBB206946DE
:101E00002200D2B28854641C05E0AB20694622004F
:101E1000D2B28854641C012069462200D2B2885490
:101E2000641C132069462200D2B28854641CDFF877
:101E3000D404408869462200D2B28854641CDFF87A
:101E4000C404408880B2000A69462200D2B2885495
:101E5000641C687A69462200D2B28854641CA87A4D
:101E6000642801D1642712E0A87A0A2801D1012749
:101E70000DE0A87A142801D1022708E0A87A1E28CC
:101E800001D1032703E0A87A282800D10427DFF82E
:101E90006804697A00EB4100DFF85C146A7A01EBB0
:101EA000420131F8021C491C20F8021CDFF84804EA
:101EB000697A00EB410030F8020C42F2117188425D
:101EC00008DBDFF83404697A00EB410042F210715C
:101ED00020F8021CDFF82004697A00EB410030F89A
:101EE000020C15282CDB04F0FEFCDFF80C04697AE8
:101EF00000EB410030F8023C6A7A521EDFF8081409
:101F0000DFF8FC0304F072FD04F0F5FCDFF8E803F1
:101F1000697A00EB410030F8020C1F2810DB002228
:101F2000687A411EC9B2022007F07EFADFF8B813C2
:101F30006A7A1720424301EB0200002100F80D1CD1
:101F400068462100C9B24754641CE87A69462200F9
:101F5000D2B28854641CA88969462200D2B288543F
:101F6000641CA88980B2000A69462200D2B2885453
:101F7000641CE88969462200D2B28854641CE8894E
:101F800080B2000A69462200D2B28854641C287CC0
:101F900069462200D2B28854641CB5F81100694623
:101FA0002200D2B28854641CB5F8110080B2000A35
:101FB00069462200D2B28854641CB5F81300694601
:101FC0002200D2B28854641CB5F8130080B2000A13
:101FD00069462200D2B28854641CB5F815006946DF
:101FE0002200D2B28854641CB5F8150080B2000AF1
:101FF00069462200D2B28854641C10216846F6B2A9
:102000003044C01CFEF70DF969462200D2B2885454
:10201000641C000A69462200D2B28854641C0D2058
:1020200069462200D2B28854641C42F21073E4B2B2
:10203000220092B26946B5480DF079FD09B0F0BDB5
:102040009BF80020681F040838B588B004000025FC
:10205000C9B200293CD0AA2069462A00D2B28854CD
:102060006D1CBB2069462A00D2B288546D1C04F056
:102070003AFC2200D2B2A649A14804F0B7FC04F011
:102080003AFC2000C0B2012803D02000C0B20528CD
:1020900006D1052069462A00D2B288546D1C4DE055
:1020A000E4B2032C4AD1032069462A00D2B28854F4
:1020B0006D1C9448408A69462A00D2B288546D1C2F
:1020C0009048808A69462A00D2B288546D1C35E057
:1020D000AB2069462A00D2B288546D1C04F003FC80
:1020E0002200D2B28A49864804F080FC04F003FC46
:1020F0002000C0B2012803D02000C0B2052806D1BC
:102100000A2069462A00D2B288546D1C16E0E4B257
:10211000032C13D1042069462A00D2B288546D1CC6
:102120007848408A69462A00D2B288546D1C7548A6
:10213000808A69462A00D2B288546D1C42F210731C
:10214000EDB22A0092B2694670480DF0F0FC09B079
:1021500030BD000000000608F8B58AB006000C008B
:1021600000252000C0B200280CD0AA2002A92A0015
:10217000D2B288546D1CBB2002A92A00D2B2885466
:102180006D1C05E0AB2002A92A00D2B288546D1C58
:10219000012002A92A00D2B288546D1C0D2002A988
:1021A0002A00D2B288546D1C707A02A92A00D2B2D9
:1021B00088546D1C5048717A00EB41004E49727A88
:1021C00001EB420131F8021C491C20F8021CF07A94
:1021D00002A92A00D2B288546D1C082100226F4641
:1021E000380004F073FEB08901280FD035D30328DE
:1021F00014D00FD3052819D014D307281ED019D313
:10220000092823D01ED30A2824D026E001208DF8E7
:10221000000022E002208DF800001EE001208DF871
:1022200001001AE002208DF8010016E001208DF86F
:10223000020012E002208DF802000EE001208DF86D
:1022400003000AE002208DF8030006E001208DF86B
:10225000040002E002208DF804000822694602A86A
:102260002B00DBB200EB0306300004F08DFA0835DA
:10227000082102A8E4B22044401DFDF7D2FF02A9C4
:102280002A00D2B288546D1C000A02A92A00D2B2D8
:1022900088546D1C0D2002A92A00D2B288546D1CEE
:1022A00042F21073EDB22A0092B202A917480DF063
:1022B0003EFC0BB0F0BD0000B2F80020B0F80020EA
:1022C0004CE00020080F0408C00A0408280F040886
:1022D000A0F800209CF8002084EB002004EB0020F4
:1022E0009DF80020A1F80020BCE3002086EB002030
:1022F0007C1F0408F4F5002098F40020480F04081F
:1023000018020020CCF0002088050408ECF2002020
:10231000301504082DE9FC4105000F0016000024CB
:102320000020DFF8F4092900C9B2084410F8010CB4
:1023300000280ED0022800F08483C0F00881042811
:1023400000F06F87C0F0EE85052801F0E98001F00C
:102350004BBADFF8C8192A00D2B21820424301EB69
:10236000020010F8180C002840F0EF80DFF8980BFE
:102370000088318B88425ED3307800285BD0012002
:102380003075002070750121DFF894292B00DBB235
:102390001720434302EB030020F80B1CDFF88409ED
:1023A000C18ADFF87C292B00DBB21720434302EB04
:1023B000030020F8091C3900C9B2DFF864292B009A
:1023C000DBB21720434302EB03001738FFF706FD8B
:1023D0000124DFF854290121002004F0EBFC012343
:1023E0002A00D2B2DFF84419DFF8440904F01CFBDC
:1023F000DFF83C290121002004F0DCFC04F073FA32
:10240000DFF8040B00883C2190FBF1F201FB120085
:102410000190DFF8F40A00883C2190FBF1F0009075
:1024200001232A00D2B2DFF80C19DFF80C0904F0FE
:10243000DDFA04F060FA5FF0010805E00020414693
:10244000C9B2705418F101084046B17DC0B288424B
:102450007BD2DFF8B40A00884146C9B206EB4101DD
:10246000098B8842EED34046C0B2305C0028E9D0E8
:102470002000C0B20028E5D14046C0B206EB4000C3
:10248000008B0028DAD00120307586F815800121F4
:10249000DFF88C282B00DBB21720434302EB03004C
:1024A00020F80B1CDFF87C08C18ADFF874282B00A9
:1024B000DBB21720434302EB030020F8091C39006C
:1024C000C9B2DFF85C282B00DBB21720434302EBD4
:1024D00003001738FFF782FC0120DFF84C280121A8
:1024E000002004F067FC4346DBB25B1C2A00D2B23A
:1024F000DFF83818DFF8380804F096FADFF83028EB
:102500000121002004F056FC04F0EDF9DFF8F80991
:1025100000883C2190FBF1F201FB12000190DFF8F2
:10252000E80900883C2190FBF1F000905FFA88F800
:1025300018F1010843462A00D2B2DFF8F817DFF895
:10254000F80704F053FA04F0D6F901F054B9DFF8B3
:10255000CC172A00D2B21820424301EB020010F837
:10256000140C002840F06B82B6F84E00B6F8481004
:10257000884201D2012008E0B6F84800B6F84E10B3
:10258000884201D1022000E000200100C9B20129E7
:1025900040F0F580DFF870090088B6F84E108842E8
:1025A00079D3DFF864090088B6F84810884272D2FF
:1025B0002000C0B200286ED10321DFF864272B0071
:1025C000DBB21720434302EB030020F80B1C002171
:1025D000DFF84C272B00DBB21720434302EB03004C
:1025E00020F8091CB6F84210DFF834272B00DBB2C4
:1025F0001720434302EB030020F8061CB6F84410F2
:10260000DFF81C272B00DBB21720434302EB03004B
:1026100020F8041C3900C9B2DFF804272B00DBB214
:102620001720434302EB03001738FFF7D7FB0120C5
:10263000DFF8F4260121002004F0BCFB01232A006E
:10264000D2B2DFF8C818DFF8E80604F0EDF9DFF8D9
:10265000E0260121002004F0ADFB04F044F9DFF88E
:10266000A80800883C2190FBF1F201FB12000190C8
:10267000DFF8940800883C2190FBF1F000900123E2
:102680002A00D2B2DFF88818DFF8AC0604F0AEF901
:1026900004F031F9D3E1E4B2002C40F0D081032101
:1026A000DFF87C262B00DBB21720434302EB03004C
:1026B00020F80B1C4FF41671DFF864262B00DBB2F8
:1026C0001720434302EB030020F8091CB6F8421020
:1026D000DFF84C262B00DBB21720434302EB03004C
:1026E00020F8061CB6F84410DFF834262B00DBB2C5
:1026F0001720434302EB030020F8041C3900C9B241
:10270000DFF81C262B00DBB21720434302EB03004B
:102710001738FFF763FB0120DFF80C2601210020AA
:1027200004F048FB01232A00D2B2DFF83C1EDFF898
:10273000000604F079F9DFF8F8250121002004F003
:1027400039FB04F0D0F8DFF8C00700883C2190FB8B
:10275000F1F201FB12000190DFF8AC0700883C2188
:1027600090FBF1F0009001232A00D2B2DFF8FC1DAB
:10277000DFF8C40504F03AF904F0BDF85FE1C0B237
:1027800002286FD10321DFF898252B00DBB2172038
:10279000434302EB030020F80B1C4FF41671DFF8E3
:1027A00080252B00DBB21720434302EB030020F807
:1027B000091CB6F84210DFF868252B00DBB21720A1
:1027C000434302EB030020F8061CB6F84410DFF880
:1027D00050252B00DBB21720434302EB030020F807
:1027E000041C3900C9B2DFF838252B00DBB21720F2
:1027F000434302EB03001738FFF7F0FA0120DFF83C
:1028000028250121002004F0D5FA01232A00D2B2A4
:10281000DFF8541DDFF8180504F006F9DFF810257D
:102820000121002004F0C6FA04F05DF8DFF8D806B4
:1028300000883C2190FBF1F201FB12000190DFF8CF
:10284000C80600883C2190FBF1F0009001232A008B
:10285000D2B2DFF8181DDFF8E00404F0C7F804F086
:102860004AF8ECE0DFF8A0060088B6F84810884285
:102870007AD3DFF894060088B6F84E10884273D2F7
:102880002000C0B200286FD10321DFF894242B0070
:10289000DBB21720434302EB030020F80B1C4FF47C
:1028A0001671DFF87C242B00DBB21720434302EBC8
:1028B000030020F8091CB6F84210DFF864242B004E
:1028C000DBB21720434302EB030020F8061CB6F8E6
:1028D0004410DFF84C242B00DBB21720434302EBFB
:1028E000030020F8041C3900C9B2DFF834242B009F
:1028F000DBB21720434302EB03001738FFF76EFAF1
:102900000120DFF824240121002004F053FA0123E0
:102910002A00D2B2DFF8501CDFF8140404F084F867
:10292000DFF80C240121002004F044FA03F0DBFF5F
:10293000DFF8D40500883C2190FBF1F201FB120086
:102940000190DFF8C40500883C2190FBF1F0009075
:1029500001232A00D2B2DFF8141CDFF8DC0304F0F4
:1029600045F803F0C8FF6AE0E4B2002C67D1032108
:10297000DFF8AC232B00DBB21720434302EB03004C
:1029800020F80B1C0021DFF898232B00DBB2172066
:10299000434302EB030020F8091CB6F84210DFF8AD
:1029A00080232B00DBB21720434302EB030020F807
:1029B000061CB6F84410DA4A2B00DBB2172043435A
:1029C00002EB030020F8041C3900C9B2D44A2B00E2
:1029D000DBB21720434302EB03001738FFF7FEF981
:1029E0000120D14A0121002004F0E4F901232A004A
:1029F000D2B2DFF81815CE4804F016F8CC4A0121FF
:102A0000002004F0D7F903F06EFFDFF8FC04008823
:102A10003C2190FBF1F201FB12000190DFF8E80489
:102A200000883C2190FBF1F0009001232A00D2B2F3
:102A3000DFF8DC14C04803F0D9FF03F05CFF00F0BE
:102A4000DABEB6492A00D2B21820424301EB020096
:102A500010F8100C002840F06382B6F85000B6F869
:102A60004A10884201D2012008E0B6F84A00B6F8C0
:102A70005010884201D1022000E000200100C9B2BC
:102A8000012940F0E180DFF880040088B6F850109A
:102A9000884270D3DFF870040088B6F84A10884284
:102AA00069D22000C0B2002865D104219C4A2B00C5
:102AB000DBB21720434302EB030020F80B1C00217C
:102AC000974A2B00DBB21720434302EB030020F8A8
:102AD000091CB6F84210924A2B00DBB21720434380
:102AE00002EB030020F8061CB6F844108C4A2B00B9
:102AF000DBB21720434302EB030020F8041C39002B
:102B0000C9B2874A2B00DBB21720434302EB030014
:102B10001738FFF763F90120834A0121002004F0F0
:102B200049F902232A00D2B2DFF8E013804803F00B
:102B30007BFF7F4A0121002004F03CF903F0D3FE23
:102B4000DFF8C40300883C2190FBF1F201FB120086
:102B50000190DFF8B40300883C2190FBF1F0009075
:102B600002232A00D2B2DFF8A813734803F03EFF15
:102B700003F0C1FED4E1E4B2002C40F0D181042185
:102B8000674A2B00DBB21720434302EB030020F817
:102B90000B1C4FF41671624A2B00DBB21720434323
:102BA00002EB030020F8091CB6F842105C4A2B0027
:102BB000DBB21720434302EB030020F8061CB6F8F3
:102BC0004410574A2B00DBB21720434302EB0300AB
:102BD00020F8041C3900C9B2514A2B00DBB217207F
:102BE000434302EB03001738FFF7F8F801204E4A81
:102BF0000121002004F0DEF802232A00D2B2DFF81F
:102C000068194B4803F010FF494A0121002004F0E5
:102C1000D1F803F068FEBC4800883C2190FBF1F23B
:102C200001FB12000190B84800883C2190FBF1F0B4
:102C3000009002232A00D2B2DFF830193E4803F098
:102C4000D5FE03F058FE6BE1C0B2022876D1042114
:102C5000334A2B00DBB21720434302EB030020F87A
:102C60000B1C4FF416712E4A2B00DBB21720434386
:102C700002EB030020F8091CB6F84210284A2B008A
:102C8000DBB21720434302EB030020F8061CB6F822
:102C90004410234A2B00DBB21720434302EB03000E
:102CA00020F8041C3900C9B21D4A2B00DBB21720E2
:102CB000434302EB03001738FFF790F801201A4A4C
:102CC0000121002004F076F802232A00D2B2DFF8B6
:102CD0009818174803F0A8FE154A0121002004F0B7
:102CE00069F803F000FE884800883C2190FBF1F26F
:102CF00001FB12000190844800883C2190FBF1F018
:102D0000009002232A00D2B2DFF860180A4803F0CC
:102D10006DFE03F0F0FD03E198F70020ECEE0020DB
:102D20002CE50020CCF00020901F0408BC250408EE
:102D3000F4F50020680F040818020020724800888B
:102D4000B6F84A10884277D36F480088B6F850101A
:102D5000884271D22000C0B200286DD10421DFF872
:102D6000A02B2B00DBB21720434302EB030020F81B
:102D70000B1C4FF41671DFF8882B2B00DBB21720E9
:102D8000434302EB030020F8091CB6F84210DFF8B9
:102D9000702B2B00DBB21720434302EB030020F81B
:102DA000061CB6F84410DFF8582B2B00DBB21720B6
:102DB000434302EB030020F8041C3900C9B2DFF8DA
:102DC000402B2B00DBB21720434302EB03001738E4
:102DD000FFF704F80120DFF82C2B0121002003F07D
:102DE000E9FF02232A00D2B2DFF87C17DFF8180BC4
:102DF00003F01AFEDFF8102B0121002003F0DAFFA8
:102E000003F071FD404800883C2190FBF1F201FB8A
:102E1000120001903C4800883C2190FBF1F00090AA
:102E200002232A00D2B2DFF84417DFF8E00A03F0E9
:102E3000DDFD03F060FD73E0E4B2002C70D10421ED
:102E4000DFF8BC2A2B00DBB21720434302EB030060
:102E500020F80B1C0021DFF8A82A2B00DBB217207A
:102E6000434302EB030020F8091CB6F84210DFF8D8
:102E7000902A2B00DBB21720434302EB030020F81B
:102E8000061CB6F84410DFF8782A2B00DBB21720B6
:102E9000434302EB030020F8041C3900C9B2DFF8F9
:102EA000602A2B00DBB21720434302EB03001738E4
:102EB000FEF794FF0120DFF84C2A0121002003F0E7
:102EC00079FF02232A00D2B21049DFF83C0A03F04E
:102ED000ABFDDFF8342A0121002003F06BFF03F083
:102EE00002FD094800883C2190FBF1F201FB120031
:102EF0000190054800883C2190FBF1F000900223EE
:102F00002A00D2B2024905E056F80020A41F0408A6
:102F1000E40A0408DFF8F40903F068FD03F0EBFCB1
:102F200000F069BCDFF8E8192A00D2B21820424349
:102F300001EB020010F80C0C002840F07181DFF862
:102F4000D4092900C9B2084410F8010C012840F046
:102F50006781DFF8C4092900C9B200EB410030F8ED
:102F6000020C652809DADFF8B4092900C9B200EBC0
:102F7000410030F8020C65284CDB002086F8550033
:102F80000621DFF87C292B00DBB21720434302EB3C
:102F9000030020F80B1C0021DFF864292B00DBB2B2
:102FA0001720434302EB030020F8091C3900C9B283
:102FB000DFF84C292B00DBB21720434302EB030060
:102FC0001738FEF70BFF0120DFF838290121002018
:102FD00003F0F0FE01232A00D2B2DFF84419DFF833
:102FE000280903F021FDDFF820290121002003F04A
:102FF000E1FE03F078FCB6F96800009001232A0096
:10300000D2B2DFF82019DFF8040903F0EFFC03F077
:1030100072FC05E1B6F95800B6F96810884251DB38
:103020002000C0B200284DD1012086F855000621AD
:10303000DFF8CC282B00DBB21720434302EB030060
:1030400020F80B1C4FF41671DFF8B4282B00DBB20C
:103050001720434302EB030020F8091C3900C9B2D2
:10306000DFF89C282B00DBB21720434302EB030060
:103070001738FEF7B3FE0120DFF888280121002071
:1030800003F098FE01232A00D2B2DFF89C18DFF883
:10309000780803F0C9FCDFF870280121002003F054
:1030A00089FE03F020FCB6F96800009001232A0095
:1030B000D2B2DFF87818DFF8540803F097FC03F079
:1030C0001AFCADE096F85500012854D1B6F962001B
:1030D000B6F9681088424EDB2000C0B200284AD101
:1030E0000621DFF81C282B00DBB21720434302EB3C
:1030F000030020F80B1C4FF41671DFF804282B0096
:10310000DBB21720434302EB030020F8091C39000F
:10311000C9B2DFF8EC272B00DBB21720434302EBE8
:1031200003001738FEF75AFE0120DFF8D8270121E7
:10313000002003F03FFE01232A00D2B2DFF8F0178F
:10314000DFF8C40703F070FCDFF8BC270121002082
:1031500003F030FE03F0C7FBB6F9680000900123CE
:103160002A00D2B2DFF8CC17DFF8A00703F03EFC4C
:1031700003F0C1FB54E0B6F96800B6F9621088426A
:103180004EDBE4B2002C4BD1002086F8550006211E
:10319000DFF86C272B00DBB21720434302EB030060
:1031A00020F80B1C0021DFF858272B00DBB217207A
:1031B000434302EB030020F8091C3900C9B2DFF8D1
:1031C00040272B00DBB21720434302EB03001738E4
:1031D000FEF704FE0120DFF82C270121002003F078
:1031E000E9FD01232A00D2B2DFF84C17DFF81807F7
:1031F00003F01AFCDFF810270121002003F0DAFDAC
:1032000003F071FBB6F96800009001232A00D2B2E6
:10321000DFF82817DFF8F40603F0E8FB03F06BFB98
:10322000E9E2DFF8EC162A00D2B21820424301EBA3
:10323000020010F8080C002840F07181DFF8D40675
:103240002900C9B2084410F8010C012840F0678138
:10325000DFF8C4062900C9B200EB410030F8020CC7
:10326000652809DADFF8B4062900C9B200EB41008D
:1032700030F8020C65284CDB002086F8550006214A
:10328000DFF87C262B00DBB21720434302EB030060
:1032900020F80B1C0021DFF868262B00DBB217207A
:1032A000434302EB030020F8091C3900C9B2DFF8E0
:1032B00050262B00DBB21720434302EB03001738E4
:1032C000FEF78CFD0120DFF83C260121002003F0F1
:1032D00071FD02232A00D2B2DFF84416DFF8280677
:1032E00003F0A2FBDFF820260121002003F062FD9D
:1032F00003F0F9FAB6F96800009001232A00D2B26F
:10330000DFF82016DFF8040603F070FB03F0F3FA91
:1033100005E1B6F95A00B6F96810884251DB200081
:10332000C0B200284DD1012086F856000721DFF8F1
:10333000D0252B00DBB21720434302EB030020F81B
:103340000B1C4FF41671DFF8B8252B00DBB21720E9
:10335000434302EB030020F8091C3900C9B2DFF82F
:10336000A0252B00DBB21720434302EB03001738E4
:10337000FEF734FD0120DFF88C250121002003F049
:1033800019FD02232A00D2B2DFF89C15DFF8780578
:1033900003F04AFBDFF870250121002003F00AFD4D
:1033A00003F0A1FAB6F96800009002232A00D2B215
:1033B000DFF87815DFF8540503F018FB03F09BFAEB
:1033C000ADE096F85600012854D1B6F96400B6F97C
:1033D000681088424EDB2000C0B200284AD1072185
:1033E000DFF81C252B00DBB21720434302EB030060
:1033F00020F80B1C4FF41671DFF804252B00DBB20C
:103400001720434302EB030020F8091C3900C9B21E
:10341000DFF8EC242B00DBB21720434302EB030060
:103420001738FEF7DBFC0120DFF8D824012100204B
:1034300003F0C0FC02232A00D2B2DFF8F414DFF854
:10344000C80403F0F1FADFF8C0240121002003F0E2
:10345000B1FC03F048FAB6F96800009002232A0094
:10346000D2B2DFF8D014DFF8A40403F0BFFA03F0FF
:1034700042FA54E0B6F96800B6F9641088424EDBAF
:10348000E4B2002C4BD1002086F856000721DFF86B
:1034900070242B00DBB21720434302EB030020F81B
:1034A0000B1C0021DFF858242B00DBB2172043430C
:1034B00002EB030020F8091C3900C9B2DFF84024F0
:1034C0002B00DBB21720434302EB03001738FEF753
:1034D00085FC0120DFF82C240121002003F06AFC88
:1034E00002232A00D2B2DFF85014DFF81C0403F0E4
:1034F0009BFADFF814240121002003F05BFC03F0A9
:10350000F2F9B6F96800009002232A00D2B2DFF87F
:103510002C14DFF8F80303F069FA03F0ECF96AE120
:10352000DFF8EC132A00D2B21820424301EB02006C
:1035300010F8040C002840F05681DFF8D803290069
:10354000C9B2084410F8010C012840F04C81DFF8A2
:10355000C8032900C9B200EB410030F8020C65280D
:103560000EDADFF8B80303E0CC250408080B0408E2
:103570002900C9B200EB410030F8020C652847DB96
:10358000002086F855000821DFF874232B00DBB2F9
:103590001720434302EB030020F80B1C0021DFF847
:1035A00060232B00DBB21720434302EB030020F81B
:1035B000091C3900C9B2DFF848232B00DBB2172001
:1035C000434302EB03001738FEF708FC0120CD4A05
:1035D0000121002003F0EEFB03232A00D2B2DFF822
:1035E0004013C94803F020FAC74A0121002003F024
:1035F000E1FB03F078F9B6F96800009001232A0096
:10360000D2B2C849C14803F0F1F903F074F9EAE015
:10361000B6F95C00B6F96810884248DB2000C0B2F9
:10362000002844D1012086F857000821B44A2B0015
:10363000DBB21720434302EB030020F80B1C4FF4CE
:103640001671AF4A2B00DBB21720434302EB030095
:1036500020F8091C3900C9B2A94A2B00DBB2172097
:10366000434302EB03001738FEF7B8FB0120A54ADD
:103670000121002003F09EFB03232A00D2B2AA49B5
:10368000A14803F0D1F9A04A0121002003F092FBE8
:1036900003F029F9B6F96800009003232A00D2B29A
:1036A000A2499A4803F0A2F903F025F99BE096F8A5
:1036B000570001284BD1B6F96600B6F96810884268
:1036C00045DB2000C0B2002841D108218C4A2B00E4
:1036D000DBB21720434302EB030020F80B1C4FF42E
:1036E0001671874A2B00DBB21720434302EB03001D
:1036F00020F8091C3900C9B2814A2B00DBB217201F
:10370000434302EB03001738FEF768FB01207D4AB4
:103710000121002003F04EFB03232A00D2B284498A
:10372000794803F081F9784A0121002003F042FB37
:1037300003F0D9F8B6F96800009003232A00D2B24A
:103740007C49724803F052F903F0D5F84BE0B6F922
:103750006800B6F96610884245DBE4B2002C42D11D
:10376000002086F857000821654A2B00DBB217209D
:10377000434302EB030020F80B1C0021604A2B009E
:10378000DBB21720434302EB030020F8091C390089
:10379000C9B25B4A2B00DBB21720434302EB0300A4
:1037A0001738FEF71BFB0120564A0121002003F0C9
:1037B00001FB03232A00D2B25F49534803F034F9D6
:1037C000514A0121002003F0F5FA03F08CF8B6F914
:1037D0006800009003232A00D2B258494B4803F0F6
:1037E00005F903F088F806E0002055492A00D2B216
:1037F000114401F8010C52482900C9B2084410F8DC
:10380000010C401C4E492A00D2B2114401F8010CAF
:103810004B482900C9B2084410F8010C012817D1FF
:1038200096F8460000285AD196F85400002807D18F
:10383000002043492A00D2B2114401F8010C4EE0A5
:1038400003203F492A00D2B2114401F8010C46E09E
:103850003B482900C9B2084410F8010C022817D1CE
:1038600096F8460001283AD196F85400002807D16E
:10387000002033492A00D2B2114401F8010C2EE095
:1038800003202F492A00D2B2114401F8010C26E08E
:103890002B482900C9B2084410F8010C04280BD1A8
:1038A00096F8540001281AD1002025492A00D2B2E6
:1038B000114401F8010C12E021482900C9B2084462
:1038C00010F8010C05280AD196F85400022806D1F8
:1038D00000201B492A00D2B2114401F8010C1848FB
:1038E0002900C9B2084410F8010C062805DB0020A5
:1038F0001349EDB2294401F8010CBDE8F381000041
:103900002CE50020901F0408F4F500201802002088
:10391000ECEE0020A0F7002028F7002030F7002070
:10392000C0190408880F0408DC2504084C15040895
:10393000EC25040868150408B81F04088415040859
:1039400098F70020FEB504001500DFF8B00C220047
:10395000D2B2104410F8016C00200022DFF8A07CE5
:10396000DFF8A0CCA6465FFA8EFE4FF4847303FB0B
:103970000EFE0CEB0E03B4465FFA8CFC6344B3F509
:10398000837393F800C06E2303FB0CFC07EB0C035E
:10399000B3F86A30A5F80431DFF8647CDFF864CC52
:1039A000A6465FFA8EFE4FF4847303FB0EFE0CEB0B
:1039B0000E03B4465FFA8CFC6344B3F5837393F84B
:1039C00000C06E2303FB0CFC07EB0C03B3F868305C
:1039D000A5F802313300DBB22B4493F84230012BBF
:1039E00041F04683DFF8203C2F783B4413F8013C3C
:1039F000012B41F03D83DFF8143C2700FFB203EBBD
:103A0000470333F8023C652B09DADFF8043C270052
:103A1000FFB203EB470333F8023C652B52DB002077
:103A20003200D2B22A4482F862003200D2B2521C72
:103A3000DFF8E03B2700FFB21720474303EB070006
:103A400020F80B2C0022DFF8CC3B2700FFB2172018
:103A5000474303EB070020F8092CC9B2DFF8B42B69
:103A60002300DBB21720434302EB03001738FEF7B5
:103A7000B5F9DFF8A42B0121002003F09BF9F6B281
:103A8000761C33002200D2B2DFF8901BDFF8900BD7
:103A900002F0CAFFDFF8882B0121002003F08AF929
:103AA00002F021FFB5F90201009001232200D2B2F9
:103AB000DFF8701BDFF8700B02F098FF02F01BFFBD
:103AC00001F0EBBA3300DBB22B449B7C012B40F0BE
:103AD000C5853300DBB22B4493F82230012B40F034
:103AE000BD853300DBB205EB4303B3F97230370019
:103AF000FFB205EB4707B7F9C270BB4200DA0120FD
:103B00003300DBB205EB4303B3F992303700FFB269
:103B100005EB4707B7F9E270BB4200DA0122030068
:103B2000DBB2012B40F061811300DBB2012B40F0CE
:103B30005C813000C0B205EB4000B0F97200B5F90D
:103B40000221904209DA3000C0B205EB4000B0F922
:103B50009200B5F90421904256DB01203200D2B226
:103B60002A4482F862003200D2B2521CDFF8A43A32
:103B70002700FFB21720474303EB070020F80B2C68
:103B80004FF41672DFF88C3A2700FFB21720474334
:103B900003EB070020F8092CC9B2DFF8782A2300CC
:103BA000DBB21720434302EB03001738FEF716F988
:103BB000DFF8642A0121002003F0FCF83300DBB2B7
:103BC0002200D2B2DFF8641ADFF8540A02F02CFFA8
:103BD000DFF84C2A0121002003F0ECF802F083FE0C
:103BE000B5F904010190B5F902010090F6B2330075
:103BF0002200D2B2DFF8381ADFF82C0A02F0F6FE03
:103C000002F079FE01F049BA3000C0B2284490F8C1
:103C10006200012809D13000C0B205EB4000B0F9C4
:103C2000C200B5F90221904209DA3000C0B205EBBA
:103C30004000B0F9E200B5F90421904250DB3200B7
:103C4000D2B2521CDFF8CC392700FFB2172047430D
:103C500003EB070020F80B2C4FF41672DFF8B43991
:103C60002700FFB21720474303EB070020F8092C79
:103C7000C9B2DFF8A0292300DBB21720434302EBCF
:103C800003001738FEF7AAF8DFF88C29012100207D
:103C900003F090F83300DBB22200D2B2DFF89419BF
:103CA000DFF87C0902F0C0FEDFF874290121002052
:103CB00003F080F802F017FEB5F904010190B5F9A0
:103CC00002010090F6B233002200D2B2DFF8681988
:103CD000DFF8540902F08AFE02F00DFE01F0DDB9B2
:103CE000B5F902013200D2B205EB4202B2F9C220AC
:103CF00090425FDBB5F904013200D2B205EB42021B
:103D0000B2F9E220904255DB00203200D2B22A44C0
:103D100082F862003200D2B2521CDFF8F838270075
:103D2000FFB21720474303EB070020F80B2C0022BB
:103D3000DFF8E0382700FFB21720474303EB070006
:103D400020F8092CC9B2DFF8CC282300DBB21720F9
:103D5000434302EB03001738FEF740F8DFF8B828BA
:103D60000121002003F026F83300DBB22200D2B29A
:103D7000DFF8C818DFF8A80802F056FEDFF8A02820
:103D80000121002003F016F802F0ADFDB5F90401A1
:103D90000190B5F902010090F6B233002200D2B2D0
:103DA000DFF89C18DFF8800802F020FE02F0A3FD87
:103DB00001F073B90122DFF85C38DFF88808067873
:103DC0001720464303EB060000F80C2CC9B2DFF8BD
:103DD0004428DFF8700803781720434302EB030000
:103DE0001738FDF7FBFF01F058B90300DBB2012BD8
:103DF00040F061811300DBB2002B40F05C813000A9
:103E0000C0B205EB4000B0F97200B5F90221904252
:103E100009DAB5F904013200D2B205EB4202B2F977
:103E20009220904256DB01203200D2B22A4482F81E
:103E300062003200D2B2521CDFF8D8372700FFB23E
:103E40001720474303EB070020F80B2C4FF41672A2
:103E5000DFF8C0372700FFB21720474303EB070006
:103E600020F8092CC9B2DFF8AC272300DBB21720F9
:103E7000434302EB03001738FDF7B0FFDFF8982744
:103E80000121002002F096FF3300DBB22200D2B203
:103E9000DFF89817DFF8880702F0C6FDDFF8802703
:103EA0000121002002F086FF02F01DFDB5F904019A
:103EB0000190B5F902010090F6B233002200D2B2AF
:103EC000DFF88417DFF8600702F090FD02F013FDC1
:103ED00001F0E3B83000C0B2284490F86200012835
:103EE00009D13000C0B205EB4000B0F9C200B5F90D
:103EF0000221904209DAB5F904013200D2B205EB91
:103F00004202B2F9E220904250DB3200D2B2521C9F
:103F1000DFF800372700FFB21720474303EB070005
:103F200020F80B2C4FF41672DFF8E8362700FFB2AA
:103F30001720474303EB070020F8092CC9B2DFF82C
:103F4000D4262300DBB21720434302EB03001738CB
:103F5000FDF744FFDFF8C0260121002002F02AFF10
:103F60003300DBB22200D2B2DFF8C816DFF8B006A9
:103F700002F05AFDDFF8A8260121002002F01AFF06
:103F800002F0B1FCB5F904010190B5F9020100900D
:103F9000F6B233002200D2B2DFF8B016DFF888069E
:103FA00002F024FD02F0A7FC01F077B8B5F9020198
:103FB0003200D2B205EB4202B2F9C22090425FDB7E
:103FC0003000C0B205EB4000B0F9E200B5F90421C1
:103FD000904255DB00203200D2B22A4482F86200BF
:103FE0003200D2B2521CDFF82C362700FFB2172065
:103FF000474303EB070020F80B2C0022DFF81436B0
:104000002700FFB21720474303EB070020F8092CD5
:10401000C9B2DFF800262300DBB21720434302EBCE
:1040200003001738FDF7DAFEDFF8EC250121002048
:1040300002F0C0FE3300DBB22200D2B2DFF8FC1582
:10404000DFF8DC0502F0F0FCDFF8D42501210020C8
:1040500002F0B0FE02F047FCB5F904010190B5F999
:1040600002010090F6B233002200D2B2DFF8E01570
:10407000DFF8B40502F0BAFC02F03DFC01F00DB827
:104080000122DFF89035DFF8BC050678172046439B
:1040900003EB060000F80C2CC9B2DFF87825DFF836
:1040A000A40503781720434302EB03001738FDF7FC
:1040B00095FE00F0F2BF0300DBB2002B40F055810B
:1040C0001300DBB2012B40F05081B5F90201320040
:1040D000D2B205EB4202B2F97220904209DA300006
:1040E000C0B205EB4000B0F99200B5F9042190424E
:1040F00056DB01203200D2B22A4482F8620032003C
:10410000D2B2521CDFF80C352700FFB2172047430C
:1041100003EB070020F80B2C4FF41672DFF8F43491
:104120002700FFB21720474303EB070020F8092CB4
:10413000C9B2DFF8E0242300DBB21720434302EBCF
:1041400003001738FDF74AFEDFF8CC2401210020D8
:1041500002F030FE3300DBB22200D2B2DFF8CC1422
:10416000DFF8BC0402F060FCDFF8B4240121002079
:1041700002F020FE02F0B7FBB5F904010190B5F999
:1041800002010090F6B233002200D2B2DFF8C4146C
:10419000DFF8940402F02AFC02F0ADFB00F07DBFD2
:1041A0003000C0B2284490F86200012809D1B5F966
:1041B00002013200D2B205EB4202B2F9C2209042B3
:1041C00009DA3000C0B205EB4000B0F9E200B5F901
:1041D0000421904250DB3200D2B2521CDFF834345A
:1041E0002700FFB21720474303EB070020F80B2CF2
:1041F0004FF41672DFF81C342700FFB21720474334
:1042000003EB070020F8092CC9B2DFF808242300CB
:10421000DBB21720434302EB03001738FDF7DEFD46
:10422000DFF8F4230121002002F0C4FD3300DBB2EB
:104230002200D2B2DFF8FC13DFF8E40302F0F4FB53
:10424000DFF8DC230121002002F0B4FD02F04BFB7B
:10425000B5F904010190B5F902010090F6B23300FE
:104260002200D2B2DFF8F013DFF8BC0302F0BEFB8D
:1042700002F041FB00F011BF3000C0B205EB40007E
:10428000B0F9C200B5F90221904257DBB5F904013B
:104290003200D2B205EB4202B2F9E22090424DDB8D
:1042A00000203200D2B22A4482F862003200D2B238
:1042B000521CD84B2700FFB21720474303EB0700DF
:1042C00020F80B2C0022D34B2700FFB217204743C6
:1042D00003EB070020F8092CC9B2CE4A2300DBB259
:1042E0001720434302EB03001738FDF777FDCA4A56
:1042F0000121002002F05EFD3300DBB22200D2B2C9
:10430000CE49C74802F090FBC54A0121002002F0C7
:1043100051FD02F0E8FAB5F904010190B5F9020186
:104320000090F6B233002200D2B2DFF8181EBE4869
:1043300002F05CFB02F0DFFA00F0AFBE0122B54BE9
:10434000C04806781720464303EB060000F80C2C03
:10435000C9B2B04ABB4803781720434302EB0300BD
:104360001738FDF73BFD00F098BEC0B2002840F0C2
:104370009486D2B2002A40F09086B5F9020132004C
:10438000D2B205EB4202B2F97220904209DAB5F9D5
:1043900004013200D2B205EB4202B2F992209042FF
:1043A0004EDB01203200D2B22A4482F86200320091
:1043B000D2B2521C974B2700FFB21720474303EBA2
:1043C000070020F80B2C4FF41672924B2700FFB217
:1043D0001720474303EB070020F8092CC9B28D4A88
:1043E0002300DBB21720434302EB03001738FDF72D
:1043F000F5FC894A0121002002F0DCFC3300DBB22D
:104400002200D2B28949864802F00EFB844A01217B
:10441000002002F0CFFC02F066FAB5F90401019029
:10442000B5F902010090F6B233002200D2B2DFF8F3
:10443000181D7D4802F0DAFA02F05DFA00F02DBE98
:104440003000C0B2284490F86200012809D1B5F9C3
:1044500002013200D2B205EB4202B2F9C220904210
:1044600009DAB5F904013200D2B205EB4202B2F921
:10447000E220904248DB3200D2B2521C654B27004A
:10448000FFB21720474303EB070020F80B2C4FF433
:104490001672604B2700FFB21720474303EB07005B
:1044A00020F8092CC9B25B4A2300DBB21720434332
:1044B00002EB03001738FDF791FC574A0121002059
:1044C00002F078FC3300DBB22200D2B259495448E2
:1044D00002F0AAFA524A0121002002F06BFC02F01D
:1044E00002FAB5F904010190B5F902010090F6B2A3
:1044F00033002200D2B2DFF8541C4B4802F076FAA7
:1045000002F0F9F900F0C9BD3000C0B205EB40007F
:10451000B0F9C200B5F90221904257DB3000C0B2B9
:1045200005EB4000B0F9E200B5F9042190424DDB03
:1045300000203200D2B22A4482F862003200D2B2A5
:10454000521C344B2700FFB21720474303EB0700F0
:1045500020F80B2C00222F4B2700FFB217204743D7
:1045600003EB070020F8092CC9B22A4A2300DBB26A
:104570001720434302EB03001738FDF72FFC264AB0
:104580000121002002F016FC3300DBB22200D2B27F
:104590002A49234802F048FA214A0121002002F06A
:1045A00009FC02F0A0F9B5F904010190B5F9020186
:1045B0000090F6B233002200D2B2DFF8941B1A4802
:1045C00002F014FA02F097F900F067BD0122114BD6
:1045D0001C4806781720464303EB060000F80C2C15
:1045E000C9B20C4A174803781720434302EB030073
:1045F0001738FDF7F3FB00F050BD00BFE0F60020D8
:104600004CE00020849E0020A0F7002028F7002026
:1046100030F700202CE50020901F0408FC2504083A
:10462000F4F50020A80F0408180200200C26040846
:1046300028F103081C26040874F103082C2604083A
:10464000C0F10308C2F800200CF2030858F2030876
:1046500000EF0308A4F20308F0F203083300DBB212
:104660002B449B7C012B40F08E823200D2B205EBB2
:104670004202B2F972203300DBB205EB4303B3F917
:10468000C2309A4200DA01200200D2B2012A40F080
:104690003C813000C0B205EB4000B0F97200B5F9C2
:1046A0000221904256DB01203200D2B22A4482F825
:1046B00062003200D2B2521CDFF8983A2700FFB2F3
:1046C0001720474303EB070020F80B2C4FF416721A
:1046D000DFF8803A2700FFB21720474303EB0700BB
:1046E00020F8092CC9B2DFF86C2A2300DBB21720AE
:1046F000434302EB03001738FDF770FBDFF8582A3D
:104700000121002002F056FB3300DBB22200D2B2BE
:10471000DFF8481ADFF8480A02F086F9DFF8402A85
:104720000121002002F046FB02F0DDF8B5F904019A
:104730000190B5F902010090F6B233002200D2B226
:10474000DFF8201ADFF8200A02F050F902F0D3F85F
:1047500000F0A3BC3000C0B2284490F862000128E9
:104760005AD13000C0B205EB4000B0F9C200B5F933
:104770000221904250DB3200D2B2521CDFF8D43911
:104780002700FFB21720474303EB070020F80B2C4C
:104790004FF41672DFF8BC392700FFB217204743E9
:1047A00003EB070020F8092CC9B2DFF8A829230081
:1047B000DBB21720434302EB03001738FDF70EFB73
:1047C000DFF894290121002002F0F4FA3300DBB273
:1047D0002200D2B2DFF89419DFF8840902F024F93C
:1047E000DFF87C290121002002F0E4FA02F07BF8D6
:1047F000B5F904010190B5F902010090F6B2330059
:104800002200D2B2DFF86819DFF85C0902F0EEF896
:1048100002F071F800F041BCB5F902013200D2B2E9
:1048200005EB4202B2F9C220904254DB0020320074
:10483000D2B22A4482F862003200D2B2521CDFF8AF
:1048400014392700FFB21720474303EB070020F875
:104850000B2C0022DFF8FC382700FFB2172047435B
:1048600003EB070020F8092CC9B2DFF8E828230081
:10487000DBB21720434302EB03001738FDF7AEFA13
:10488000DFF8D4280121002002F094FA3300DBB2D3
:104890002200D2B2DFF8DC18DFF8C40802F0C4F856
:1048A000DFF8BC280121002002F084FA02F01BF896
:1048B000B5F904010190B5F902010090F6B2330098
:1048C0002200D2B2DFF8B018DFF89C0802F08EF8B0
:1048D00002F011F8E1E30122DFF87838DFF89C08F4
:1048E00006781720464303EB060000F80C2CC9B2EB
:1048F000DFF86028DFF8840803781720434302EBD1
:1049000003001738FDF76AFAC7E3C0B2002840F089
:10491000C483B5F902013200D2B205EB4202B2F90A
:104920007220904255DB01203200D2B22A4482F834
:1049300062003200D2B2521CDFF818382700FFB2F2
:104940001720474303EB070020F80B2C4FF4167297
:10495000DFF800382700FFB21720474303EB0700BA
:1049600020F8092CC9B2DFF8EC272300DBB21720AE
:10497000434302EB03001738FDF730FADFF8D8277E
:104980000121002002F016FA3300DBB22200D2B27D
:10499000DFF8C817DFF8C80702F046F8DFF8C027CD
:1049A0000121002002F006FA01F09DFFB5F9040193
:1049B0000190B5F902010090F6B233002200D2B2A4
:1049C000DFF8BC17DFF8A00702F010F801F093FF42
:1049D00063E33000C0B2284490F86200012859D146
:1049E000B5F902013200D2B205EB4202B2F9C2209F
:1049F00090424FDB3200D2B2521CDFF8583727000A
:104A0000FFB21720474303EB070020F80B2C4FF4AD
:104A10001672DFF840372700FFB21720474303EB39
:104A2000070020F8092CC9B2DFF828272300DBB2E1
:104A30001720434302EB03001738FDF7CFF9DFF8E7
:104A400018270121002002F0B5F93300DBB2220063
:104A5000D2B2DFF81817DFF8080701F0E5FFDFF83A
:104A600000270121002002F0A5F901F03CFFB5F973
:104A700004010190B5F902010090F6B23300220062
:104A8000D2B2DFF80017DFF8E00601F0AFFF01F067
:104A900032FF02E33000C0B205EB4000B0F9C200C3
:104AA000B5F90221904254DB00203200D2B22A44F0
:104AB00082F862003200D2B2521CDFF8983627002A
:104AC000FFB21720474303EB070020F80B2C00220E
:104AD000DFF880362700FFB21720474303EB0700BB
:104AE00020F8092CC9B2DFF86C262300DBB21720AE
:104AF000434302EB03001738FDF770F9DFF858263F
:104B00000121002002F056F93300DBB22200D2B2BC
:104B1000DFF86016DFF8480601F086FFDFF8402670
:104B20000121002002F046F901F0DDFEB5F9040193
:104B30000190B5F902010090F6B233002200D2B222
:104B4000DFF84416DFF8200601F050FF01F0D3FE35
:104B5000A3E20122DFF8FC35DFF8200606781720F3
:104B6000464303EB060000F80C2CC9B2DFF8E4253D
:104B7000DFF8080603781720434302EB03001738D9
:104B8000FDF72CF989E23000C0B2284490F82200E9
:104B9000012840F082823000C0B205EB4000B0F93D
:104BA00092003300DBB205EB4303B3F9E2309842E5
:104BB00000DA01221000C0B2012840F03781300035
:104BC000C0B205EB4000B0F99200B5F90421904263
:104BD00055DB01203200D2B22A4482F86200320052
:104BE000D2B2521CDFF86C352700FFB217204743C2
:104BF00003EB070020F80B2C4FF41672DFF8543546
:104C00002700FFB21720474303EB070020F8092CC9
:104C1000C9B2DFF840252300DBB21720434302EB83
:104C200003001738FDF7DAF8DFF82C250121002002
:104C300002F0C0F83300DBB22200D2B2DFF81C155C
:104C4000DFF81C0501F0F0FEDFF81425012100203B
:104C500002F0B0F801F047FEB5F904010190B5F992
:104C600002010090F6B233002200D2B2DFF81C1528
:104C7000DFF8F40401F0BAFE01F03DFE0DE2300071
:104C8000C0B2284490F86200012859D13000C0B267
:104C900005EB4000B0F9E200B5F9042190424FDB8A
:104CA0003200D2B2521CDFF8AC342700FFB217201A
:104CB000474303EB070020F80B2C4FF41672DFF884
:104CC00094342700FFB21720474303EB070020F876
:104CD000092CC9B2DFF87C242300DBB21720434340
:104CE00002EB03001738FDF779F8DFF86C24012197
:104CF000002002F05FF83300DBB22200D2B2DFF80E
:104D00006C14DFF85C0401F08FFEDFF854240121FD
:104D1000002002F04FF801F0E6FDB5F90401019022
:104D2000B5F902010090F6B233002200D2B2DFF8EA
:104D3000D01CDFF8340401F059FE01F0DCFDACE1D9
:104D4000B5F904013200D2B205EB4202B2F9E22019
:104D5000904254DB00203200D2B22A4482F8620032
:104D60003200D2B2521CDFF8EC332700FFB217201A
:104D7000474303EB070020F80B2C0022DFF8D43365
:104D80002700FFB21720474303EB070020F8092C48
:104D9000C9B2DFF8C0232300DBB21720434302EB84
:104DA00003001738FDF71AF8DFF8AC2301210020C3
:104DB00002F000F83300DBB22200D2B2DFF8B41305
:104DC000DFF89C0301F030FEDFF89423012100207E
:104DD00001F0F0FF01F087FDB5F904010190B5F98C
:104DE00002010090F6B233002200D2B2DFF8141CA8
:104DF000DFF8740301F0FAFD01F07DFD4DE10122C1
:104E0000D44BDFF8780306781720464303EB0600FF
:104E100000F80C2CC9B2CF4AD84803781720434376
:104E200002EB03001738FCF7D9FF36E1D2B2002AB3
:104E300040F03381B5F904013200D2B205EB4202F1
:104E4000B2F9922090424DDB01203200D2B22A44C6
:104E500082F862003200D2B2521CBE4B2700FFB271
:104E60001720474303EB070020F80B2C4FF4167272
:104E7000B84B2700FFB21720474303EB070020F889
:104E8000092CC9B2B34A2300DBB21720434302EB1B
:104E900003001738FCF7A2FFAF4A0121002001F000
:104EA00089FF3300DBB22200D2B2AC49AC4801F03A
:104EB000BBFDAB4A0121002001F07CFF01F013FD96
:104EC000B5F904010190B5F902010090F6B2330082
:104ED0002200D2B2DFF8301BA34801F087FD01F0B9
:104EE0000AFDDAE03000C0B2284490F862000128E0
:104EF00051D1B5F904013200D2B205EB4202B2F948
:104F0000E220904247DB3200D2B2521C914B270084
:104F1000FFB21720474303EB070020F80B2C4FF498
:104F200016728C4B2700FFB21720474303EB070094
:104F300020F8092CC9B2874A2300DBB2172043436B
:104F400002EB03001738FCF749FF834A01210020D8
:104F500001F030FF3300DBB22200D2B28349804837
:104F600001F062FD7E4A0121002001F023FF01F0E3
:104F7000BAFCB5F904010190B5F902010090F6B24E
:104F800033002200D2B2DFF8841A774801F02EFDF8
:104F900001F0B1FC81E03000C0B205EB4000B0F997
:104FA000E200B5F9042190424CDB00203200D2B27D
:104FB0002A4482F862003200D2B2521C654B2700AC
:104FC000FFB21720474303EB070020F80B2C002209
:104FD000604B2700FFB21720474303EB070020F880
:104FE000092CC9B25B4A2300DBB21720434302EB12
:104FF00003001738FCF7F2FE574A0121002001F0A8
:10500000D9FE3300DBB22200D2B25A49544801F033
:105010000BFD534A0121002001F0CCFE01F063FC9E
:10502000B5F904010190B5F902010090F6B2330020
:105030002200D2B2DFF8D8194B4801F0D7FC01F0BA
:105040005AFC2AE00122434B4C480678172046437D
:1050500003EB060000F80C2CC9B23E4A474803781F
:105060001720434302EB03001738FCF7B7FE14E0A8
:105070000122384B414806781720464303EB0600CF
:1050800000F80C2CC9B2334A3C480378172043433C
:1050900002EB03001738FCF7A1FEDFF86C0C2100CF
:1050A000C9B2084410F8010C401CDFF85C1C220057
:1050B000D2B2114401F8010CDFF84C0C2100C9B246
:1050C000084410F8010C102807DB0020DFF8381C1A
:1050D0002200D2B2114401F8010C002021E000218D
:1050E000DFF8242C2300DBB21A4402F8011C17E07D
:1050F000DFF8141C2200D2B2114411F8011C10294F
:10510000EDDADFF8041C2200D2B2114411F8011CC0
:10511000491CDFF8F42B2300DBB21A4402F8011C0F
:10512000401C0100C9B210290BDADFF8DC1B220099
:10513000D2B2114411F8011C294491F8321001290E
:10514000D6D1F7BD50EF0308A0EF0308F0EF030836
:1051500040F003082CE50020901F04080C260408EA
:10516000F4F500209CF90308180200201C2604080E
:10517000D0F903082C26040878F70308C2F80020A9
:10518000B0F70308E8F7030820F8030804FA030857
:1051900038B504000025DFF8740B0078411CDFF8F7
:1051A0006C2B1170C0B20A28C0F228840020DFF8EE
:1051B0005C1B0870DFF8580B0088411CDFF8502B8F
:1051C0001180DFF8501B097889B280B2814280F0EB
:1051D000DB830020DFF8381B0880002100E0491C39
:1051E0000800C0B2DFF8302B928880B290420CD217
:1051F000DFF8282B0B00DBB21720434302EB030040
:1052000040790128EBD1491C0D00DFF8140B007820
:10521000002800F0B983DFF80C0B0078002849D192
:10522000DFF8040B0078401CDFF8FC1A0870DFF888
:10523000F80A0178DFF8E42ADFF8EC0A037817208F
:10524000434302EB030000F80E1C6421DFF8CC2A74
:10525000DFF8D40A03781720434302EB030000F879
:105260000D1C2121DFF8B42ADFF8BC0A03781720CF
:10527000434302EB030000F80C1C2100C9B2DFF825
:105280009C2ADFF8A40A03781720434302EB0300AB
:105290001738FCF7A3FDDFF8900A0078DFF8781ADA
:1052A000898880B28842C0F06F830120DFF8741AC9
:1052B000087069E32800C0B2002800F08F81DFF891
:1052C0005C1A2A00D2B21720424301EB020010F808
:1052D0000D0C282840F03781DFF8401A2A00D2B29E
:1052E0001720424301EB020030F80B0C01283BD1A0
:1052F0000121DFF8E02B2B00DBB21820434302EB47
:10530000030000F8181CDFF8100AC18ADFF8C42B6C
:105310002B00DBB21820434302EB030020F8161CDD
:10532000DFF8201C2A00D2B21720424301EB020012
:1053300030F8151C51F00101DFF8082C2B00DBB20E
:105340001720434302EB030020F8151C01F0CBFAB1
:105350002A00D2B2521EDFF8B41BDFF8EC0B01F0CA
:1053600045FB01F0C8FAEEE0DFF8B0192A00D2B22E
:105370001720424301EB020030F80B0C032823D125
:105380000121DFF8502B2B00DBB21820434302EB46
:10539000030000F8141C3C21DFF8382B2B00DBB293
:1053A0001820434302EB030020F8121C01F09BFA83
:1053B0002A00D2B2521EDFF8941BDFF88C0B01F0EA
:1053C00015FB01F098FABEE0DFF850192A00D2B2BE
:1053D0001720424301EB020030F80B0C042823D1C4
:1053E0000121DFF8F02A2B00DBB21820434302EB47
:1053F000030000F8101C3C21DFF8D82A2B00DBB298
:105400001820434302EB030020F80E1C01F06BFA56
:105410002A00D2B2521EDFF8381BDFF82C0B01F045
:10542000E5FA01F068FA8EE0DFF8F0182A00D2B24F
:105430001720424301EB020030F80B0C062823D161
:105440000121DFF8902A2B00DBB21820434302EB46
:10545000030000F80C1C3C21DFF8782A2B00DBB29B
:105460001820434302EB030020F80A1C01F03BFA2A
:105470002A00D2B2521EDFF8DC1ADFF8CC0A01F0A3
:10548000B5FA01F038FA5EE0DFF890182A00D2B2DF
:105490001720424301EB020030F80B0C072823D100
:1054A0000121DFF8302A2B00DBB21820434302EB46
:1054B000030000F8081C3C21DFF8182A2B00DBB29F
:1054C0001820434302EB030020F8061C01F00BFAFE
:1054D0002A00D2B2521EDFF8801ADFF86C0A01F0FF
:1054E00085FA01F008FA2EE0DFF830182A00D2B26F
:1054F0001720424301EB020030F80B0C082822D1A0
:105500000121DFF8D0292B00DBB21820434302EB46
:10551000030000F8041C3C21DFF8B8292B00DBB2A3
:105520001820434302EB030020F8021C01F0DBF9D2
:105530002A00D2B2521EDFF8241ADFF80C0A01F05A
:1055400055FA01F0D8F90021DFF8D0272B00DBB2A3
:105550001720434302EB030000F8121C2100C9B2DC
:10556000DFF8B8272B00DBB21720434302EB030020
:105570001738FCF733FC0120DFF8E41908702A0023
:10558000D2B2DFF8E019DFF8E00901F04DFADFF8F8
:10559000D8290121002001F00DFC01F0A4F9280018
:1055A000C0B20090DFF874172A00D2B2172042432D
:1055B00001EB020010F80E3CDFF86017EDB2172087
:1055C000454301EB050010F80D2CDFF8A019DFF8BA
:1055D000780901F00BFA01F08EF9D5E1DFF89009B6
:1055E0000078002800F07F81DFF888090078401CEF
:1055F000DFF880190870DFF87C090178DFF81C27D4
:10560000DFF8700903781720434302EB030000F82A
:105610000E1CDFF83019DFF85C09027817204243CE
:1056200001EB020010F80D1CDFF8F026DFF844094A
:1056300003781720434302EB030000F80D1C0121FF
:10564000DFF8D826DFF82C0903781720434302EB54
:10565000030000F80C1CDFF8EC18DFF818090278DA
:105660001720424301EB020010F80D0C282840F0EF
:10567000B5800321DFF8A426DFF8F80803781720A7
:10568000434302EB030000F80C1CDFF8EC08DFF8E2
:10569000E4180978084410F8010C012840F0118141
:1056A000DFF8D818DFF8CC0802786E20424301EB0F
:1056B000020010F8020C00287DD0DFF8C018DFF8D7
:1056C000B40802786E20424301EB020010F8020C8D
:1056D000800709D50120DFF8A818DFF8982812788C
:1056E000114401F8010C5AE0DFF89018DFF8840843
:1056F00002786E20424301EB020010F8020C4007D2
:1057000009D50220DFF87818DFF8682812781144EC
:1057100001F8010C43E0DFF86418DFF8580802785C
:105720006E20424301EB020010F8020C000709D57D
:105730000320DFF84C18DFF83C281278114401F8F8
:10574000010C2CE0DFF83418DFF8280802786E200E
:10575000424301EB020010F8020CC00609D50420F8
:10576000DFF81C18DFF80C281278114401F8010C3E
:1057700015E0DFF80818DFF8FC0702786E204243D6
:1057800001EB020010F8020C800608D50520DFF8B6
:10579000F017DFF8E0271278114401F8010C00211E
:1057A000DFF8D827DFF8CC0703786E20434302EBFD
:1057B000030000F8021CDFF8C417DFF8B80702780E
:1057C0006E20424301EB0200B0F16E022100C9B22B
:1057D000DFF8A0070078FCF79DFD72E0DFF86417A2
:1057E000DFF8900702781720424301EB020010F81F
:1057F0000D0C0A283DD1DFF83819DFF87807027858
:105800004FF48470424301EB0200B0F584700078DD
:1058100001281FD10421DFF80425DFF85807037899
:105820001720434302EB030000F80C1CDFF80019BB
:10583000DFF8400702784FF48470424301EB020026
:10584000B0F584722100C9B2DFF828070078FEF7AE
:1058500079F836E02100C9B2DFF8C024DFF8140778
:1058600003781720434302EB03001738FCF7B6FA1E
:1058700027E0DFF8D016DFF8FC0602781720424355
:1058800001EB020010F80D0C1E280CD0DFF8B41646
:10589000DFF8E00602781720424301EB020010F81F
:1058A0000D0C14280DD12100C9B2DFF87024DFF8E7
:1058B000C40603781720434302EB03001738FCF7B4
:1058C0008DFADFF8B0060078DFF84C14898880B2D2
:1058D000884259D30020DFF8981608700020DFF8BE
:1058E0009416087050E0DFF89C0A007800284BD02E
:1058F000DFF880060078401CDFF878160870DFF8C3
:1059000074060178DFF81424DFF86806037817209E
:10591000434302EB030000F80E1C6421DFF8FC2374
:10592000DFF8500603781720434302EB030000F82A
:105930000D1C2121DFF8E423DFF838060378172057
:10594000434302EB030000F80C1C2100C9B2DFF84E
:10595000CC23DFF8200603781720434302EB030033
:105960001738FCF73BFADFF80C060078DFF8A813CD
:10597000898880B2884207D30020DFF8081A0870AF
:105980000020DFF8F0150870DFF894030078002895
:1059900034D0DFF880030078DFF87C138988891C15
:1059A0004843DFF8E4190860DFF8E0090088411C8B
:1059B000DFF8D829118080B2DFF8CC190968884255
:1059C0001CD30020DFF8C4190880DFF8C409007870
:1059D000401CDFF8BC190870DFF8B40900781428FF
:1059E00004DA0120DFF88815087007E00020DFF8EE
:1059F000A01908700120DFF88C19087031BD000073
:105A000038FA030858F803086CFA030890F80308FA
:105A1000C8F8030838B501000024BC480078421CCF
:105A2000BA4B1A70C0B20A28C0F26C810020B74A83
:105A30001070B7480088421CB54B1A80B54A1278DE
:105A400092B280B2824280F014810020B04A10806D
:105A5000002200E0521C1000C0B2AF4B9B8880B205
:105A600098420BD2AD4B1500EDB21720454303EB26
:105A7000050040790128EDD1521C1400A848007897
:105A8000002800F0F680A7480078002830D1A6480A
:105A90000078401CA44A1070A34802789F4BA2488B
:105AA00004781720444303EB040000F80E2C002276
:105AB0009A4B9D4804781720444303EB040000F8F8
:105AC0000C2CC9B2954A984803781720434302EB3F
:105AD00003001738FCF740FB934800788E4989880B
:105AE00080B28842C0F0C58001208E490870C0E0B5
:105AF0002000C0B200283BD00022884B2500EDB228
:105B00001720454303EB050000F8122CC9B2834A65
:105B10002300DBB21720434302EB03001738FCF7E6
:105B20001BFB0120DFF8381408702200D2B2DFF826
