:020000040800F2
:1000000028C30020597F0308295903082B590308E6
:100010002D5903082F590308315903080000000027
:100020000000000000000000000000009D29020800
:100030003359030800000000452902083559030818
:10004000498603084D860308518603085586030830
:10005000598603085D8603086186030865860308E0
:10006000698603086D860308718603087586030890
:10007000798603087D860308818603088586030840
:10008000898603088D8603089186030895860308F0
:10009000998603089D860308A1860308A5860308A0
:1000A000A9860308AD860308B1860308B586030850
:1000B000B9860308BD860308C1860308C586030800
:1000C000C9860308CD860308D1860308D5860308B0
:1000D000D9860308DD86030849590308E186030829
:1000E000E5860308E9860308ED860308F186030820
:1000F000F5860308F9860308FD86030801870308CF
:1001000005870308098703080D870308118703087B
:1001100015870308198703081D870308218703082B
:1001200025870308298703082D87030831870308DB
:10013000358703089F1A0308398703083D8703089A
:100140004187030845870308498703084D8703084B
:100150005187030855870308598703085359030833
:100160005D870308618703086587030869870308BB
:100170006D87030871870308758703080000000076
:10018000798703087D87030881870308858703082B
:10019000898703088D8703089187030895870308DB
:0C01A000998703089D870308A1870308C6
:10020000BFF34F8FDFF83C0C016811F4E061DFF8B9
:100210002C090143DFF82C0C0160BFF34F8F00BFA6
:10022000FDE780B5AAB000200090DFF8140900684F
:1002300050F08050DFF808190860DFF80409006802
:1002400010F080500090009800200090DFF8F40833
:10025000006850F44040DFF8EC180860DFF8E4086C
:10026000006810F4404000900098012006905FF470
:10027000A02007900020099002200C905FF48000DD
:100280000D9008200E904FF4B4700F900220109043
:100290000720119006A803F0D7FE04F0B3F80F2052
:1002A000019002200290002003904FF4A05004908F
:1002B0004FF480500590052101A804F0EDF82020AE
:1002C0001E904FF4807028901EA804F02BFA042092
:1002D00012900120149012A803F0B6FE002805D059
:1002E0004FF4BF71DFF8600B03F008FE04F09CF9D7
:1002F0004FF47A71B0FBF1F004F0FFFB042004F03E
:1003000000FC00220F215FF0FF3004F0E0FB2BB077
:1003100000BD80B5DFF8080BDFF8081B0860062079
:10032000DFF8001B486040F6C410DFF8F81A886058
:10033000DFF8F00A04F006FC002805D04FF4CC7179
:10034000DFF8040B03F0DAFD01BD00002DE9F843EE
:100350000F001600DDF82080099DDDF828900B9C29
:1003600004F037FCDFF8EC1ADFF8E00A04F0B4FC24
:1003700004F037FC04F02DFC4246DFF8DC1ADFF80D
:10038000CC0A04F0A9FC04F02CFC04F022FCEDB231
:100390002A00DFF8C81ADFF8B40A04F09DFC04F064
:1003A00020FC04F016FC4A46DFF8B41ADFF89C0A79
:1003B00004F092FC04F015FC04F00BFCA4B2220043
:1003C000DFF8A01ADFF8840A04F086FC04F009FCC8
:1003D00004F0FFFB3A00DFF8901ADFF8700A04F02F
:1003E0007BFC04F0FEFB04F0F4FB3200DFF87C1A27
:1003F000DFF8580A04F070FC04F0F3FB0020300032
:1004000005F042FA0400002C0DD104F0E2FBDFF805
:10041000601ADFF8380A04F05FFC04F0E2FB200009
:1004200005F0E1FA82E3200005F0AFFA0600DFF8FC
:10043000441A380005F094FB002840F07483DFF87C
:10044000380A0078002807D00020DFF82C1A08703E
:10045000200005F0C8FA69E30021300005F058FAE1
:10046000D0A105F07DFB00280DD004F0B2FBDFF831
:100470000C1ADFF8D80904F02FFC04F0B2FB2000BE
:1004800005F0B1FA52E3C7A1300005F029FADFF810
:10049000F01905F065FB00280ED100220021032091
:1004A00001F0C8FA04F095FBDFF8D819DFF89C09D1
:1004B00004F012FC04F095FBBAA1300005F010FA2C
:1004C000DFF8C41905F04CFB00280DD1DFF8BC099A
:1004D0000078002800F02783DFF8B0090078401E7C
:1004E000DFF8A81908701EE3AEA1300005F0F8F996
:1004F000DFF89C1905F034FB002840F0AC81AAA17C
:10050000300005F0F3F951EC100B05F08BFB451EA4
:10051000691CDFF880292B00DBB21720434302EB74
:1005200003004172DFF87019300005F0DFF951EC7B
:10053000100B05F077FB0700DFF86019300005F0BD
:10054000D5F951EC100B05F06DFBDFF848292B00B5
:10055000DBB217214B4302EB030188720221DFF863
:1005600034292B00DBB21720434302EB0300C17296
:10057000DFF820192A00D2B21720424301EB020013
:10058000807A0A280AD0DFF80C192A00D2B2172084
:10059000424301EB0200807A28283CD13800C0B2E7
:1005A000002838D03900C9B2DFF8E8282B00DBB2C8
:1005B0001720434302EB03008181DFF8E418300089
:1005C00005F094F953EC102B0020DFF8D81805F053
:1005D0004BFB0BD14FF6FF71DFF8B8282B00DBB2D5
:1005E0001720434302EB0300C18109E00021DFF83B
:1005F000A4282B00DBB21720434302EB0300C18188
:100600000121DFF890282B00DBB21720434302EBD7
:100610000300417110E13800C0B2002800F0C6802C
:10062000DFF870182A00D2B21720424301EB020013
:10063000807A1E2848D1DFF86818300005F056F996
:1006400053EC102B0020DFF85C1805F00DFB18D1DF
:100650003800C0B24100491EDFF838282B00DBB259
:100660001720434302EB030081814FF6FF71DFF84F
:1006700024282B00DBB21720434302EB0300C18187
:1006800017E03800C0B280B24100DFF808282B0024
:10069000DBB21720434302EB030081814FF6FF7169
:1006A000DFF8F0272B00DBB21720434302EB0300F7
:1006B000C1810121DFF8DC272B00DBB21720434387
:1006C00002EB03004171B7E0DFF8D417300005F00A
:1006D0000DF953EC102B00205FF0804105F0C4FAB7
:1006E00018D13800C0B280B24100DFF8A8272B0033
:1006F000DBB21720434302EB030081814FF6FF7109
:10070000DFF890272B00DBB21720434302EB0300F6
:10071000C1813CE0DFF88817300005F0E7F853ECC2
:10072000102B0020DFF87C1705F09EFA18D1380056
:10073000C0B24100491EDFF85C272B00DBB2172056
:10074000434302EB030081814FF6FF71DFF844273A
:100750002B00DBB21720434302EB0300C18116E0FC
:100760003800C0B280B24100DFF828272B00DBB28E
:100770001720434302EB030081810021DFF8142797
:100780002B00DBB21720434302EB0300C1810121A0
:10079000DFF800272B00DBB21720434302EB0300F6
:1007A000417149E0434D440041445200DFF8E416F2
:1007B0002A00D2B21720424301EB0200807A1E28A1
:1007C0003AD13800C0B2002836D1DFF8D416300054
:1007D00005F08CF853EC102B0020DFF8C81605F05C
:1007E00043FA09D10421DFF8AC262B00DBB2172035
:1007F000434302EB0300C172DFF8A416300005F09A
:1008000075F853EC102B0020002105F02DFA09D1CA
:100810000521DFF880262B00DBB21720434302EBD3
:100820000300C1720121DFF86C262B00DBB2172018
:10083000434302EB0300417104F0CBF9FFB23B00EC
:10084000EDB22A00DFF86016DFF8000604F044FA83
:1008500004F0C7F967E1B6A1300005F041F8DFF810
:100860004C1605F07DF9002820D1B2A1300005F02A
:100870003DF851EC100B05F0D5F905004FF4FA7076
:10088000DFF8DC1A086000222900C9B2062001F056
:10089000D1F804F09EF9EDB22A00DFF8C81ADFF8AB
:1008A000AC0504F019FA04F09CF93CE1A0A1300079
:1008B00005F016F8DFF8B01A05F052F9002855D106
:1008C000DFF8A80A0078002830D10120DFF89C1A50
:1008D000087098A1300005F009F851EC100B05F0F4
:1008E000A1F9DFF8881A4870DFF8B415300004F079
:1008F000FDFF51EC100B05F095F9DFF8701A486018
:10090000DFF86C2A0021002005F064FBDFF85C0AA8
:100910004278DFF8601ADFF8600A05F0E3FBDFF8E1
:10092000582A0021002005F055FB14E0DFF8402A8A
:100930000021002005F04EFBDFF8300A4278DFF896
:100940003C1ADFF8340A05F0CDFBDFF82C2A002131
:10095000002005F03FFB04F03CF9DFF8241ADFF833
:10096000EC0404F0B9F904F03CF9DCE070A13000CB
:1009700004F0B6FFDFF80C1A05F0F2F8002855D1A4
:10098000DFF8040A0078002830D10120DFF8F819D8
:10099000087068A1300004F0A9FF51EC100B05F0BD
:1009A00041F9DFF8E4194870DFF8F414300004F07E
:1009B0009DFF51EC100B05F035F9DFF8CC194860BC
:1009C000DFF8AC290021002005F004FBDFF8B809AE
:1009D0004278DFF8B819DFF8A00905F083FBDFF8EB
:1009E00098290021002005F0F5FA14E0DFF88029AD
:1009F0000021002005F0EEFADFF88C094278DFF8DC
:100A00009019DFF8740905F06DFBDFF86C290021FF
:100A1000002005F0DFFA04F0DCF8DFF87819DFF8E1
:100A20002C0404F059F904F0DCF87CE040A130001B
:100A300004F056FFDFF8601905F092F8002854D151
:100A4000DFF85809007800282FD10120DFF84C1971
:100A5000087038A1300004F049FF51EC100B05F08C
:100A6000E1F8DFF838194870DFF83419300004F085
:100A700037FF020030A1DFF82C0905F033FBDFF867
:100A8000F0280021002005F0A5FADFF810094278CF
:100A9000DFF81419DFF8E00805F024FBDFF8D828A8
:100AA0000021002005F096FA14E0DFF8C4280021A8
:100AB000002005F08FFADFF8E4084278DFF8EC1840
:100AC000DFF8B40805F00EFBDFF8AC2800210020A9
:100AD00005F080FA04F07DF8DFF8D418DFF86C0335
:100AE00004F0FAF804F07DF81DE011A1300004F0E4
:100AF000F7FEDFF8C01805F033F8002813D10DA178
:100B0000300004F0F3FE51EC100B05F08BF8DFF829
:100B1000A818087004F05DF8DFF8A018CB4804F0BE
:100B2000DBF804F05EF8200004F05DFFBDE8F1831F
:100B3000434D440041445200257300000400FA056F
:100B4000403802400070004010B4002200220DE046
:100B500030231400E4B2035507E00B00D340DB0759
:100B6000F6D531231400E4B20355521C1300DBB256
:100B7000102BF2DB10BC704710B4002200220DE0F5
:100B800030231400E4B2035507E00B00D340DB0729
:100B9000F6D531231400E4B20355521C1300DBB226
:100BA000082BF2DB10BC704770B40300002000205B
:100BB0001000C0B200283BD000250CE033202C00F0
:100BC000E4B2185506E080B20028F7D130202C009E
:100BD000E4B218556D1C28001400C0B2E4B2A04263
:100BE0001BD2080080B20326EDB26C00A640304054
:100BF000EDB26C0020410400A4B2012C04D13120DC
:100C00002C00E4B21855E5E70400A4B2022CDAD1B6
:100C100032202C00E4B21855DCE7082004E0302133
:100C20000200D2B29954401C0100C9B21029F6DB6F
:100C300070BC704730B400230024D2B2002A62D0C6
:100C4000002204E030241500EDB24455521C14007B
:100C5000E4B2102CF6DB11F005021400A4B2012C52
:100C600004D131221C00E4B2025506E092B2042AFB
:100C700003D132221C00E4B202559B1C11F0500239
:100C80001400A4B2102C04D131221C00E4B202558D
:100C900006E092B2402A03D132221C00E4B202558F
:100CA0009B1C11F4A0621400A4B2B4F5807F04D19F
:100CB00031221C00E4B2025507E092B2B2F5806F17
:100CC00003D132221C00E4B202559B1C11F4805265
:100CD00092B2B2F5805F03D131221C00E4B202551A
:100CE0005B1C11F440410A0092B2B2F5804F03D16F
:100CF0003121DBB2C15406E089B2B1F5004F02D117
:100D00003221DBB2C15430BC704718B591B003F04A
:100D100060FFDFF8AC164D4803F0DEFF03F061FF23
:100D2000002302AA4A49002005F0BBFB010009B2DA
:100D3000002901D000B271E0DFF8880605F028FC38
:100D400007A805F049FCDFF88006089007A9DFF83E
:100D5000740605F049FC0421DFF8680605F04FFC35
:100D60000121DFF8600605F051FC4FF46161DFF806
:100D7000540605F052FCDFF85416DFF8480605F07B
:100D800053FC00200190002000900723DFF840264C
:100D9000DFF84016DFF82C0605F05DFC0120DFF8D7
:100DA000C81B087003F015FF002102A806F00EF81A
:100DB0000200DFF82416254803F08EFF03F011FF30
:100DC000DFF8200B0078401CDFF8181B08700123A7
:100DD00040F25B7202A9DFF8EC0505F06FFC04003D
:100DE000200000B200280BD1002301222149DFF8A6
:100DF000D40505F09FFD0400200000B20028FFD1BB
:100E0000200000B2002803D0DFF8B80505F014FE7A
:100E10000120DFF8541B0870200000B212B010BD92
:100E20000030004090BD002080B5DFF8BC1ADFF82C
:100E3000BC0A05F0E7FF002803D00120DFF82C1BD7
:100E4000087001BD0CED00E0E0540308A80100208B
:100E5000087C03088C690308A0800308AC800308A1
:100E6000187C0308C86E0308287C0308387C030834
:100E70007074030870BC0020770200208C77030890
:100E8000CC830308B8800308D48303081ABF00206A
:100E9000DC83030898AD0020E4830308EC83030897
:100EA000F48303080000F03FA0770308FC830308E5
:100EB0002DE9F8438AB006000F004FF47A71002242
:100EC000DFF8AC4A200005F0B5FF03F082FEDFF842
:100ED000F014DFF8A00A03F0FFFE03F082FE002307
:100EE00005AADFF8941A002005F0DBFA04002000C0
:100EF00000B200280CD003F06CFEDFF8801ADFF897
:100F0000740A03F0E9FE03F06CFE200000B220E258
:100F10000621012005F03AF90400002C0BD103F062
:100F200058FEDFF85C1ADFF84C0A03F0D5FE03F038
:100F300058FEC8200DE203F04CFE002105A805F084
:100F400045FF0200DFF83C1ADFF8280A03F0C4FE70
:100F500003F047FE502205A9200005F097F905008F
:100F6000280000B200280AD003F033FEDFF8181A78
:100F7000DFF8000A03F0B0FE03F033FEDAE103F01D
:100F800028FEDFF8081ADFF8EC0903F0A5FE03F0ED
:100F900028FE3000C0B2002811D1DFF8F4094089E2
:100FA0000090DFF8EC090389DFF8E4094288DFF8F4
:100FB000E419DFF8BC0905F095F8049017E030005B
:100FC000C0B2012813D13800C0B20190DFF8C009C7
:100FD00040890090DFF8B8090389DFF8B409428836
:100FE000DFF8B419DFF8880905F07CF804900020D8
:100FF000DFF87819087003F0ECFDDFF87429DFF8EA
:101000009C19DFF8700903F067FE03F0EAFD002089
:1010100000900023049ADFF85819200005F06EF9BB
:101020000500280000B2002840F0848103F0D1FDC3
:10103000DFF86C19DFF83C0903F04EFE03F0D1FD38
:1010400041F20A00009004AB40F2E732DFF82019C9
:10105000200005F09AF90500280000B200282CD1E4
:10106000049800280DD0049ADFF80419DFF87C8872
:10107000404605F013FF0498DFF828190860FFF7D1
:10108000D3FE0020DFF8E818049A8854B2A1DFF8F4
:10109000E00804F065FD0028D2D1DFF8D008007820
:1010A000002817D103F095FDDFF8FC18DFF8C4081D
:1010B00003F012FE03F095FD3CE103F08AFD2A00E7
:1010C00012B2DFF8E818DFF8AC0803F005FE03F011
:1010D00088FDE2E703F07DFDDFF8D418DFF894081F
:1010E00003F0FAFD03F07DFD0020009004AB40F218
:1010F000E732DFF87C18200005F047F905002800EA
:1011000000B200280CD003F064FD2A0012B2DFF810
:10111000A418DFF8600803F0DFFD03F062FD09E1C9
:101120000020DFF84C18049A8854DFF88C18DFF898
:10113000400805F067FE00280CD003F04AFDDFF8F8
:101140003028DFF87818DFF82C0803F0C5FD03F02D
:1011500048FDEFE03000C0B2012819D10120DFF8CE
:1011600060183A00D2B2114401F8010C0020DFF8F7
:1011700054183A00D2B2114401F8010C38008E49DB
:101180000978C0B288420BD100208B49087007E073
:101190003000C0B2002803D10120DFF82C180870FD
:1011A0003000C0B200280ED1DFF82018DFF8C007E9
:1011B00005F028FE020069A1DFF8140804F092FF90
:1011C0005FF0000823E03000C0B201280CD1DFF846
:1011D0000418DFF89C0705F015FE02005FA1DFF898
:1011E000F00704F07FFFEBE703F0F3FC2A0012B2F4
:1011F000DFF8E417DFF87C0703F06EFD03F0F1FC85
:1012000098E040F2E930804508D218F10108DFF893
:10121000C00710F808007D28F3D1FFE718F1010896
:1012200040F2E93080450CD303F0D3FCDFF8AC1773
:10123000DFF8400703F050FD03F0D3FC280000B2B4
:1012400087E04FF47A710022DFF82497484605F0D2
:10125000F1FDDFF87C374246DFF88417DFF810072E
:1012600004F040FF0020DFF8080704F00DFB804683
:101270003000C0B2002852D1DFF86827DFF86817C5
:10128000404605F06EFEDFF864170870002110E09C
:101290000120DFF830270B00DBB2D0542822DFF822
:1012A00050370E00F6B21720464303EB0600827259
:1012B000491C0800DFF834271278C0B29042E7D307
:1012C0000022DFF82017DFF82C0706F087F900224C
:1012D000DFF81417DFF81C0706F038FA03F079FC82
:1012E000DFF8000780780390DFF8F8064078029076
:1012F000DFF8F00600780190DFF8EC0680780090C7
:10130000DFF8E4064378DFF8E006C278DFF8E81695
:10131000DFF8600603F0E0FC03F063FC07E0F6B2E0
:10132000012E04D13900C9B2404605F06BFE40469B
:1013300004F059FB200005F08EF803F04AFCDFF8BA
:10134000BC16DFF8300603F0C7FC03F04AFC2800A7
:1013500000B20BB0BDE8F0830D0A00002573000059
:1013600010BE0020487C030804840308DCBD002074
:10137000B4770308587C030898BC0020687C0308F5
:10138000787C0308C4800308E4BD0020D0800308F3
:10139000887C0308987C03080C8403082CBC00207C
:1013A000148403082EBC0020A87C0308B87C030822
:1013B000C87C0308DC80030802BF0020C87703084C
:1013C000AC690308108200204D030008D87C030894
:1013D0001C840308E87C0308E4650308F0B5ADF558
:1013E0003B7D06000D004FF4FA7100223EAC200058
:1013F00005F020FDC82100220CAC200005F01AFDEC
:1014000003F0E7FBDFF8F815DFF8680503F064FC8C
:1014100003F0E7FB002307AADFF85C15002005F0C6
:1014200040F80400200000B200280CD003F0D1FBEB
:10143000DFF84815DFF83C0503F04EFC03F0D1FB64
:10144000200000B230E20621012004F09FFE0400DB
:10145000002C0BD103F0BDFBDFF82415DFF81405D9
:1014600003F03AFC03F0BDFBC8201DE203F0B1FB22
:10147000002107A805F0AAFC0200DFF80815DFF834
:10148000F40403F029FC03F0ACFB502207A9200070
:1014900004F0FCFE0700380000B200280AD003F078
:1014A00098FBDFF8E414DFF8CC0403F015FC03F03C
:1014B00098FBECE12800C0B2002845D1DFF84415C4
:1014C000DFF8400502783020424301EB0200C18D75
:1014D0004FF47A7041430491DFF82815DFF82405B2
:1014E00002783020424301EB0200818D4FF47A7084
:1014F00041430391DFF80C15DFF80805027830202E
:10150000424301EB0200418D4FF47A704143029156
:101510000196DFF87C0440890090DFF874040389A9
:10152000DFF86C044288DFF8E0143EA804F0DAFD2E
:1015300003F04FFB3EAADFF8D414DFF8380403F0C1
:10154000CBFB03F04EFB35E12800C0B2012816D1D9
:10155000DFF8BC04006806F0CBFACDE90201DFF841
:10156000B40400880090DFF828044389DFF82004E1
:101570000289DFF8A4143EA804F0B4FD1AE12800A3
:10158000C0B2032840F09580DFF804044088009042
:10159000DFF8FC034389DFF8F8030289DFF87C14E5
:1015A0003EA804F09FFDDFF878143EA806F0C4FAC8
:1015B000DFF8701406F0C0FADFF84814DFF84404CE
:1015C00002783020424301EB0200806906F090FA75
:1015D000CDE90401DFF82C14DFF82804027830206C
:1015E000424301EB0200008A0290DFF81814DFF892
:1015F000140402783020424301EB0200C06806F078
:1016000077FACDE90001DFF8FC13DFF8F803027880
:101610003020424301EB0200806806F069FA0200C4
:101620000B00DFF804140CA804F05CFD0CA806F015
:1016300093FA02000CA93EA806F0A9FAC8210022DC
:101640000CAF380005F0F6FBDFF8E0133EA806F01B
:1016500073FA701C0190701C0090731C761C320091
:10166000DFF8CC130CA804F03DFD0CA806F074FACA
:1016700002000CA93EA806F08AFADFF81C1C06F04E
:101680005BFADFF8181C3EA806F056FADFF8101CCB
:1016900006F052FA92A13EA806F04EFA03F099FA2B
:1016A0003EAADFF8001CB34803F016FB03F099FADA
:1016B00080E02800C0B2042846D1F61E0196B44846
:1016C00040890090B2480389B1484288DFF8D81BAE
:1016D0003EA804F007FDCB49CA48027830204243B7
:1016E00001EB0200036AC749C64802783020424332
:1016F00001EB0200426ADFF8B41B0CA804F0F2FC14
:101700000CA806F029FA02000CA93EA806F03FFA40
:10171000DFF8841B06F010FADFF8801B3EA806F005
:101720000BFADFF87C1B06F007FA6DA13EA806F065
:1017300003FA03F04EFA3EAADFF8741B8D4803F05B
:10174000CBFA03F04EFA35E02800C0B2062831D1BA
:10175000AC49AC4802783020424301EB02004069BA
:101760000290F61F01968A48408800908848438975
:1017700087480289DFF83C1B3EA804F0B3FCDFF881
:10178000181B3EA806F0D8F9DFF8101B06F0D4F9B4
:10179000DFF80C1B3EA806F0CFF951A106F0CCF9FA
:1017A00003F017FA3EAADFF8101B724803F094FA10
:1017B00003F017FA3EA806F0CFF90690002000903B
:1017C0000023069A3EA9200004F098FD0700380087
:1017D00000B2002817D003F0FCF9DFF8E01A6548E2
:1017E00003F07AFA03F0FDF9EDB22A00DFF8D01A1F
:1017F000DFF8D00A04F076FCDFF8C82A00210020C8
:1018000004F0E8FB43E003F0E4F9DFF8BC1A5948C0
:1018100003F062FA03F0E5F941F20A00009006AB2A
:1018200040F2F3123EA9200004F0AFFD070038009B
:1018300000B200283BD100203EA9069A885428A176
:101840003EA804F08DF90028E6D103F0C2F9DFF8D4
:101850007C1A484803F040FA03F0C3F92A00D2B2D8
:10186000DFF86C1ADFF85C0A04F03CFCDFF8542A5D
:101870000021002004F0AEFB03F0ABF9EDB22A002A
:10188000DFF8501A3B4803F027FA03F0AAF92000CA
:1018900004F0E1FD03F09DF95849364803F01CFAC5
:1018A00003F09FF9380000B20DF53B7DF0BD2A0032
:1018B000D2B2DFF8241ADFF80C0A04F013FCDFF8C8
:1018C000042A0021002004F085FB03F082F93EAADF
:1018D000DFF8081A274803F0FFF903F082F9B4E7AC
:1018E0000D0A000003BF0020F87C0308BC8C002018
:1018F00010B504002068DFF8E819884216D1DFF837
:10190000E4090078DFF8E019DFF8E029127888545C
:10191000DFF8D8090078401CDFF8D01908700122E0
:10192000DFF8C019DFF8C80906F0EEF92068DFF823
:10193000C419884216D1DFF8C0090078DFF8BC1955
:10194000DFF8BC2912788854DFF8B4090078401C0D
:10195000DFF8AC1908700122DFF89C19DFF8A40940
:1019600006F0D2F910BD0000F8BE00201BBF002019
:10197000A4940020A8010020087D0308086603083D
:10198000E46E0308CC69030888740308A074030894
:10199000ACB800200452030878500308006F030815
:1019A000EC6903082CBE00202C6603080C6A0308AF
:1019B0001C6F0308386F0308DC770308E88003080E
:1019C0001CBE002014BE0020FDBE0020248403089D
:1019D0008C9800202C840308546F03082C6A030899
:1019E0003484030884BC002030BE0020FEBE0020EA
:1019F00028AC0020BCBB00206C610308706F03089A
:101A0000AC69030848A30020384E03088C6F030814
:101A10000CBE002074020020005103085C5603082D
:101A20003C84030844840308B87403084C84030806
:101A3000187D0308F8B50E001400DFF8CC184D78B7
:101A40006D1C2900C9B2142900D10025DFF8B8188F
:101A500009782A00D2B2914222D1DFF8B008C288B8
:101A6000DFF8AC18DFF8AC0804F03CFBDFF8A42882
:101A70000121002004F0AEFA03F0ABF8DFF88C0887
:101A8000C288DFF89418DFF8940803F025F903F012
:101A9000A8F840F6B83006F065FCFEF7B1FBFAE3B3
:101AA000DFF86428DFF860184B7844214B4302EBE1
:101AB00003014871DFF85018DFF84C0842784420E1
:101AC000424301EB02004079022846D1DFF8381882
:101AD000DFF8340842784420424301EB02000672EA
:101AE000DFF82418DFF8200842784420424301EB55
:101AF0000200DFF82C183200D2B231F81210A0F830
:101B00004210DFF80418DFF800084278442042430E
:101B100001EB0200DFF80C183200D2B231F81210DB
:101B2000A0F84410DFF8E017DFF8DC074278442023
:101B3000424301EB0200DFF8F017F6B231F816105D
:101B4000A0F8461003F045F8DFF8E017DFF8CC07FF
:101B500003F0C2F803F045F894E3DFF8AC17DFF8C0
:101B6000A80742784420424301EB02004079032851
:101B70000AD103F02EF8DFF8B817DFF8A00703F05A
:101B8000ABF803F02EF87DE3DFF87C17DFF8780779
:101B900042784420424301EB02004079042840F09F
:101BA000C480DFF86417DFF86007427844204243BE
:101BB0001144DFF880273300DBB21720434302EBE8
:101BC0000300407A0872DFF84017DFF83C074278DC
:101BD000442042431144DFF85C273300DBB2172076
:101BE000434302EB0300807A4872DFF81C17DFF8EA
:101BF00018074278442042431144DFF83C27DFF8BD
:101C000034373700FFB21720474303EB0700437A0E
:101C10001720434302EB030030F80B0C8881DFF8F8
:101C2000E816DFF8E4064278442042431144DFF826
:101C300004273300DBB21720434302EB0300808903
:101C40004881DFF8C416DFF8C006427844204243DA
:101C500001EB0200C47302F0BCFFDFF8E016DFF80E
:101C6000BC0603F039F802F0BCFF02F0B2FFDFF867
:101C7000C4163200D2B21720424301EB0200427A6E
:101C8000DFF8BC16DFF8940603F026F802F0A9FF8F
:101C900002F09FFFDFF89C163200D2B217204243B9
:101CA00001EB0200827ADFF89C16DFF8700603F081
:101CB00013F802F096FF02F08CFFDFF87C16DFF8D5
:101CC00074263300DBB21720434302EB0300427A51
:101CD0001720424301EB020030F80B2CDFF86816A6
:101CE000DFF8380602F0F8FF02F07BFF02F071FF28
:101CF000DFF84016F6B21720464301EB0600828952
:101D0000DFF84816DFF8140602F0E6FF02F069FF7C
:101D100002F05FFFE4B22200DFF83416DFF8FC05C2
:101D200002F0DAFF02F05DFFACE2DFF8DC15DFF86D
:101D3000D80542784420424301EB0200407905284F
:101D400040F0C880DFF8C015DFF8BC0542784420B9
:101D5000424301EB02000672DFF8AC15DFF8A8057C
:101D60004278442042431144DFF8C8253300DBB2F7
:101D70001720434302EB030010F80D0C4872DFF804
:101D80008815DFF884054278442042431144DFF887
:101D9000A4253300DBB21720434302EB030010F805
:101DA000070C8873DFF86015DFF85C054278442083
:101DB00042431144DFF87C253300DBB21720434354
:101DC00002EB030030F80B0C4881E4B2002C2BD05E
:101DD00002F0FFFEDFF87C15DFF8400502F07CFF23
:101DE00002F0FFFEDFF82015DFF81C0542784420E2
:101DF000424301EB02000021C182DFF80C15DFF83D
:101E0000080542784420424301EB0200002101838F
:101E1000DFF8F414DFF8F00442784420424301EB89
:101E200002000021418338E0DFF8DC14DFF8D80439
:101E30004278442042431144DFF8F8243300DBB2F7
:101E40001720434302EB030030F8060CC882DFF88A
:101E5000B814DFF8B4044278442042431144DFF858
:101E6000D4243300DBB21720434302EB030030F8E5
:101E7000040C0883DFF89014DFF88C0442784420C7
:101E800042431144DFF8AC243300DBB21720434354
:101E900002EB030030F8020C4883DFF86C14DFF823
:101EA00068044278442042431144DFF88824F6B2A3
:101EB0001720464302EB060010F8160C487402F097
:101EC00088FEDFF89414DFF8540402F005FF02F0F6
:101ED00088FED7E1DFF83014DFF82C044278442084
:101EE000424301EB02004079062840F09980DFF878
:101EF0001814DFF8140442784420424301EB020036
:101F00000672DFF80414DFF80004427844204243EC
:101F10001144DFF820243300DBB21720434302EBE7
:101F2000030010F80D0C4872DFF8DC13DFF8D8035B
:101F30004278442042431144DFF8F8233300DBB2F7
:101F40001720434302EB030010F8070C8873DFF8F7
:101F5000B813DFF8B4034278442042431144DFF859
:101F6000D4233300DBB21720434302EB030030F8E5
:101F70000B0C4881DFF89013DFF88C034278442083
:101F800042431144DFF8AC233300DBB21720434354
:101F900002EB030030F8060CC882DFF86C13DFF8A0
:101FA00068034278442042431144DFF88823330019
:101FB000DBB21720434302EB030030F8040C088324
:101FC000DFF84413DFF840034278442042431144D1
:101FD000DFF860233300DBB21720434302EB03003A
:101FE00030F8020C4883C849C7484278442042432D
:101FF0001144DFF840233300DBB21720434302EBE8
:10200000030010F8160C487402F0E3FDF6B232003B
:10201000DFF84813C14802F05FFE02F0E2FD31E153
:10202000B949B94842784420424301EB0200407963
:10203000072848D1B449B44842784420424301EBD0
:1020400002000672B049B04842784420424311442D
:10205000B84A3300DBB21720434302EB030010F809
:102060000D0C4872A849A8484278442042431144C4
:10207000B04A3300DBB21720434302EB030010F8F1
:10208000130CC874A049A04842784420424311442C
:10209000A84AF6B21720464302EB060010F8120CCD
:1020A00008759949984842784420424301EB020060
:1020B000E4B2448102F08DFDA949984802F00CFE7B
:1020C00002F08FFDDEE090498F4842784420424381
:1020D00001EB02004079082853D18B498A484278A5
:1020E0004420424311449F4A9E4803783020434392
:1020F00002EB030040790872834983484278442008
:1021000042431144974A974803783020434302EBF7
:102110000300806808627C497B484278442042433F
:102120001144904A8F4803783020434302EB030068
:10213000C06848627449744842784420424311445C
:10214000884A884803783020434302EB0300008A22
:1021500008856D496C484278442042431144814AC5
:10216000804803783020434302EB03008069086312
:1021700002F02FFD7C49694802F0AEFD02F031FD0E
:1021800080E06149604842784420424301EB02000C
:102190004079092846D15C495B4842784420424353
:1021A0001144704A6F4803783020434302EB030028
:1021B00040790872544954484278442042431144BB
:1021C000684A684803783020434302EB0300406AC2
:1021D000C8634D494C484278442042431144614A07
:1021E000604803783020434302EB0300006A8863B1
:1021F000454945484278442042431144594A594888
:1022000003783020434302EB030090F8280081F864
:10221000400002F0DEFC5549404802F05DFD02F04E
:10222000E0FC2FE03849384842784420424301EB33
:10223000020040790A2825D13349334842784420A6
:1022400042431144474A474803783020434302EB56
:102250000300407908722C492B48427844204243BD
:102260001144404A3F4803783020434302EB0300C7
:102270004069C86202F0ADFC3C49284802F02CFDE0
:1022800002F0AFFC20484570DFF8B00D0078401C2C
:10229000DFF8A81D0870F1BDF4800308A86F0308DB
:1022A000F0770308C46F0308A056030804780308F6
:1022B000E06F03088C540308FC6F030850660308A2
:1022C0001878030898BC00204C6A030818700308AB
:1022D00040780308547803082C7803080081030829
:1022E0000044004068B3002030B400200FBF00203D
:1022F0008CBA00200014014010B10020D8B1002099
:102300000ABF0020CCBA002068870020ACB80020AB
:1023100068780308ACBC00207C780308A801002082
:10232000BCBD0020C4BD0020B4BD00206C6A030801
:102330009461030828AC002098AD00207C5D030860
:10234000D074030834700308445B0308507003081A
:102350000C8103086C70030874660308A85D030809
:10236000BC61030848A30020986603088C6A030830
:1023700078B599B0002618E00220DFF8C41C086088
:102380000120DFF8C81B08700120DFF8C41B0870AB
:1023900002F01FFCDFF8A80C0268DFF8B81BDFF8BA
:1023A000B80B02F099FC02F01CFCDFF8940C0068FA
:1023B00000283DD10120DFF8881C0860FEF7A5FC4D
:1023C00000B20028D8D00020DFF8741C086002F0AA
:1023D00000FCDFF86C0C0268DFF8801BDFF8780B7C
:1023E00002F07AFC02F0FDFB4FF4FA6005F0BAFF50
:1023F000DFF86C0B0078401CDFF8641B0870DFF816
:10240000600B00780628D0DB02F0E3FBDFF8500B0E
:102410000278DFF8301CDFF8400B02F05DFC02F0C0
:10242000E0FB4FF4FA6005F09DFFFDF7E9FEBCE725
:102430006421DFF8140C04F00EFB0100080000B268
:1024400000281CD009B2DC2919D0DFF8FC0B04F0FD
:10245000F3FA0020DFF8E81B086002F0BAFBDFF8AF
:10246000E00B0268DFF8E41BDFF8EC0A02F034FC52
:1024700002F0B7FB4FF4FA6002F0A7FB95E70024E7
:10248000002006F046F8B04200D00600DFF8BC0A93
:102490000078012840F02385DFF8A00B00780028A1
:1024A00000F01D85DFF8A80B0078002840F01785A4
:1024B0000120DFF89C1B0870DFF8981BDFF8940BF5
:1024C00002784420424301EB02004079002800F0EA
:1024D000D784DFF8801BDFF87C0B0278442042436E
:1024E00001EB020040790B2880F2CA844FF47A7124
:1024F0000022DFF8644B200004F09CFCDFF8541B42
:10250000DFF8500B02784420424301EB020040798F
:1025100001282FD1DFF8440B0288DFF8441BDFF8D5
:10252000380B03F0DFFDDFF83C0B0078401CDFF8D0
:10253000341B0870DFF82C0B007805280CDB02F048
:1025400048FBDFF8200B0278DFF81C1BDFF8080AD5
:1025500002F0C2FB02F045FBDFF8080B007806280A
:10256000C0F273844FF4FA6005F0FCFEFDF748FEFC
:1025700000F06BBCDFF8DC1ADFF8D80A02784420E0
:10258000424301EB0200407902283DD1DFF8C41A32
:10259000DFF8C00A02784420424301EB0200B0F8A1
:1025A00044000390DFF8AC1ADFF8A80A0278442050
:1025B000424301EB0200B0F842000290DFF8941AA7
:1025C000DFF8900A02784420424301EB0200B0F8A1
:1025D00046000190DFF87C1ADFF8780A0278442080
:1025E000424301EB0200007A401C0090DFF87C0AB5
:1025F0000388DFF87C0A0268DFF8781ADFF8580AE7
:1026000003F070FD00F021BCDFF8481ADFF8440A3F
:1026100002784420424301EB02004079032814D1A0
:10262000DFF8540A80880290DFF8440A00680190BD
:10263000DFF8480A009000230222DFF8441ADFF88E
:10264000180A03F04FFD00F000BCDFF8081ADFF8AD
:10265000040A02784420424301EB02004079042836
:1026600040F0BA80DFF8EC19DFF8E809027844207E
:10267000424301EB0200407A1E2827D1DFF8D4192B
:10268000DFF8D00902784420424301EB0200808940
:1026900000281BD10021DFF8BC29DFF8B809037836
:1026A0004420434302EB0300C07B142800D10125E2
:1026B000DFF8A029DFF89C0903784420434302EBAC
:1026C0000300C07B152867D1002565E0DFF8841979
:1026D000DFF8800902784420424301EB020045897B
:1026E0000121DFF87029DFF86C09037844204343A7
:1026F00002EB03008089401E81400D40DFF8541931
:10270000DFF8500902784420424301EB0200407A8E
:102710000A280BD0DFF83C19DFF83809027844208A
:10272000424301EB0200407A28280FD1DFF8241938
:10273000DFF8200902784420424301EB020081893E
:10274000280080B2002827D0012525E0DFF80419F1
:10275000DFF8000902784420424301EB020080893F
:10276000401C022190FBF1F1280080B2002813D018
:10277000DFF8E028DFF8DC0803784420434302EB6D
:1027800003008089022290FBF2F302FB1300002871
:1027900001D0012500E00225280080B2019089B215
:1027A0000091DFF8B018DFF8AC080278442042430B
:1027B00001EB0200437ADFF89C18DFF898080278F2
:1027C0004420424301EB0200027ADFF8201BDFF8CD
:1027D000880803F087FC38E3DFF87818DFF874081E
:1027E00002784420424301EB02004079052840F082
:1027F000EA801421002208AC200004F01BFB102109
:10280000002211AC200004F015FB102100220DACB9
:10281000200004F00FFBDFF83C18DFF838080278DE
:102820004420424301EB0200407A0A280BD0DFF833
:102830002418DFF8200802784420424301EB02000C
:10284000407A28280DD1DFF80C18DFF80808027844
:102850004420424301EB0200418908A8FEF774F9C5
:1028600041E0DFF8F017DFF8EC070278442042433C
:1028700001EB0200407A14280ED10822DFF8D417A9
:10288000DFF8D00703784420434301EB030041897C
:1028900008A8FEF789F926E0DFF8B817DFF8B407D3
:1028A00002784420424301EB0200407A1E280ED1F8
:1028B0000822DFF8A017DFF89C0703784420434381
:1028C00001EB0300418908A8FEF7B4F90BE00020F2
:1028D00005E0302108AA0300DBB2D154401C0100FE
:1028E000C9B21029F5DBDFF86C17DFF8680702784A
:1028F0004420424301EB0200817B11A8FEF73CF922
:10290000DFF85017DFF84C0702784420424301EB10
:102910000200407A002805D1DFF8D4190DA803F091
:10292000E1FB03E0C9A10DA803F0DCFBDFF82417ED
:10293000DFF8200702784420424301EB0200407C8C
:1029400006900DA80590DFF80C17DFF8080702784D
:102950004420424301EB0200408B0490DFF8F41660
:10296000DFF8F00602784420424301EB0200008BBE
:102970000390DFF8E016DFF8DC06027844204243DB
:1029800001EB0200C08A029011A8019008A80090F3
:10299000DFF8C016DFF8BC0602784420424301EBA2
:1029A0000200437ADFF8AC16DFF8A806027844206C
:1029B000424301EB0200027ADFF83819DFF898068B
:1029C00003F090FB41E2DFF88C16DFF8880602780E
:1029D0004420424301EB02004079062840F0EA809F
:1029E0001421002208AC200004F024FA1021002257
:1029F00011AC200004F01EFA102100220DAC2000C2
:102A000004F018FADFF84C16DFF848060278442084
:102A1000424301EB0200407A0A280BD0DFF834165B
:102A2000DFF8300602784420424301EB0200407A8E
:102A300028280DD1DFF81C16DFF81806027844208C
:102A4000424301EB0200418908A8FEF77DF841E00E
:102A5000DFF80016DFF8FC0502784420424301EB62
:102A60000200407A14280ED10822DFF8E815DFF8BA
:102A7000E40503784420434301EB0300418908A89F
:102A8000FEF792F826E0DFF8CC15DFF8C8050278EB
:102A90004420424301EB0200407A1E280ED1082256
:102AA000DFF8B015DFF8AC0503784420434301EBB1
:102AB0000300418908A8FEF7BDF80BE0002005E0FF
:102AC000302108AA0300DBB2D154401C0100C9B276
:102AD0001029F5DBDFF87C15DFF878050278442053
:102AE000424301EB0200817B11A8FEF745F8DFF8B5
:102AF0006415DFF8600502784420424301EB0200D0
:102B0000407A002805D1DFF8E8170DA803F0EAFAAB
:102B100003E04EA10DA803F0E5FADFF83815DFF861
:102B2000340502784420424301EB0200407C0690C9
:102B30000DA80590DFF81C15DFF818050278442071
:102B4000424301EB0200408B0490DFF80815DFF8E8
:102B5000040502784420424301EB0200008B0390FD
:102B6000DFF8F014DFF8EC0402784420424301EB74
:102B70000200C08A029011A8019008A80090DFF816
:102B8000D414DFF8D00402784420424301EB020061
:102B9000437ADFF8C014DFF8BC04027844204243D3
:102BA00001EB0200027ADFF85017DFF8AC0403F003
:102BB00099FA4AE1DFF89C14DFF89804027844207F
:102BC000424301EB02004079072840F08E8010213B
:102BD000002215AC200004F02DF9DFF87814DFF89E
:102BE000740402784420424301EB0200807C0028F8
:102BF0002ED0C3A115A803F075FADFF85814DFF83A
:102C0000540402784420424301EB0200C17CDFF807
:102C1000EC26DFF84034DFF83C04047844204443D9
:102C200003EB0400037A1720434302EB0300002266
:102C300000F8132CDFF81C24DFF818040378442074
:102C4000434302EB0300857B2DE000BF4F4B0000A8
:102C5000BDA115A803F046FADFF8F813DFF8F40376
:102C600002784420424301EB0200017DDFF88C260C
:102C7000DFF8E033DFF8DC0304784420444303EB5F
:102C80000400037A1720434302EB0300002200F8FC
:102C9000122CDFF8C023DFF8BC0303784420434341
:102CA00002EB03004589280080B2029089B20191AD
:102CB00015A80090DFF89C13DFF8980302784420F1
:102CC000424301EB0200437ADFF88813DFF8840304
:102CD00002784420424301EB0200027ADFF820161A
:102CE000DFF8740303F0FEF9AFE0DFF86813DFF8F4
:102CF000640302784420424301EB02004079082833
:102D00003DD1DFF85013DFF84C03027844204243F2
:102D100001EB0200006B04F0EBFECDE90601CD49AA
:102D2000CC4802784420424301EB0200008D04901D
:102D3000C849C84802784420424301EB0200406A77
:102D400004F0D6FECDE90201C249C248027844200F
:102D5000424301EB0200006A04F0CAFECDE9000123
:102D6000BC49BC4802784420424301EB0200027A8D
:102D7000521CDFF82C1BB84803F0B4F965E0B549E4
:102D8000B44802784420424301EB0200407909280C
:102D900029D1B049AF4802784420424301EB0200F8
:102DA00090F840000190AB49AA4802784420424381
:102DB00001EB0200C06B0090A649A64802784420AF
:102DC000424301EB0200836BA249A24802784420EF
:102DD000424301EB0200027A521CDFF8C81A9E48F7
:102DE00003F080F931E09B499A480278442042433D
:102DF00001EB020040790A2816D1964995480278DD
:102E00004420424301EB0200C36A92499148027890
:102E10004420424301EB0200027A521CDFF8881A78
:102E20008D4803F05FF910E001F0D3FE894989482D
:102E300002784420424301EB02004279DFF86C1A29
:102E4000454801F049FF01F0CCFE01F0C2FE824A84
:102E5000DFF85C1A404801F03FFF01F0C2FE7E48F7
:102E600004F07AFE002102910121019101210091DB
:102E70000300794ADFF83C1A734803F0D4FC0400DD
:102E8000200000B200281FD100207149087071484D
:102E90000078401C6F4908706E480078142802DBE7
:102EA00000206C49087001F094FE6A480278DFF84F
:102EB000441B294801F010FF01F093FE5F480078A1
:102EC000401E5E4908700AE001F083FE220012B243
:102ED000DFF8241B204801F0FFFE01F082FE24B23F
:102EE000002C3FF462AA584803F0A6FD0020544984
:102EF00008604FF4FA6001F068FEFFF756BA000070
:102F0000494E000080B5002005F0A6FADFF8EC0A73
:102F10000078002806D100220421DFF8E40A05F039
:102F20001AFC0CE0DFF8D40A0078401EDFF8CC1A57
:102F3000087001220421DFF8C80A05F00CFC6420A7
:102F400001F043FEDFE700004F555400F9BE0020BA
:102F500004BF002088700308A8010020D45D030886
:102F600014BF002080B536480068022860D142486E
:102F7000C088062803D04048C088072858D1DFF809
:102F8000840A0078401CDFF87C1A0870DFF8780AA1
:102F9000007800280ED0DFF8740A0078002809D0E5
:102FA0000020DFF8601A0870DFF85C0A0178012061
:102FB000FDF77EFFDFF84C0A0078052830DBDFF8EC
:102FC0004C0A0078002823D0DFF8440ADFF8441ABE
:102FD0000978084410F8010C01280CD1DFF8340AF4
:102FE00001780120FDF764FFDFF8280A0078401C13
:102FF000DFF8201A0870DFF8200A0078DFF8141ACA
:103000000978884208D20120DFF8081A087003E026
:1030100001210020FDF74CFF0020DFF8E8190870BF
:10302000DFF8F809007850F00400DFF8F0190870B4
:103030004FF47A7001F0C9FD95E7000013BF00203E
:1030400004BE0020AC6A030810820020E46103087B
:1030500012BF002068870020BC900020740200206E
:10306000A47003081ABF0020005E0308DEBE002023
:1030700018BE002034540308ACB800209078030830
:103080006C53030880B548E0DFF89009007810F031
:10309000030003283ED10020DFF8801908704AF6AB
:1030A000AA20DFF87C190968086033E0DFF87409AA
:1030B0000078002813D0DFF87009007800280ED1BE
:1030C0000120DFF8641908700020DFF85C1908702F
:1030D000DFF850090078401EDFF848190870DFF863
:1030E0004C09C088072804D0DFF84009C0880628AA
:1030F000CAD1DFF82809007810F00700072809D1A5
:103100000020DFF8181908704AF6AA20DFF8101915
:1031100009680860642001F058FDDFF814090078A0
:103120000028C3D0DFF8000900780028BED1DFF8FE
:1031300000090278DFF8FC18DFF8FC0802F0D2FF83
:10314000DFF8F4280021002002F044FF0120DFF81E
:10315000D8180870DFF8E418DFF8E00802783020AB
:10316000424301EB02000079012840F08A80DFF839
:10317000CC18DFF8C80802783020424301EB020087
:103180004079042821DADFF8B418DFF8B0080278B3
:103190003020424301EB020090F8300001280CD1AE
:1031A0000321DFF89828DFF89408037830204343A0
:1031B00002EB03004079FEF711F90022DFF87C08EA
:1031C00001780820FEF736FC74E0DFF87018DFF8AD
:1031D0006C0802783020424301EB02004079082855
:1031E00021DADFF85818DFF854080278302042431B
:1031F00001EB020090F8300001280CD10421DFF827
:103200003C28DFF8380803783020434302EB030002
:103210004079FEF7E3F80022DFF820080178092062
:10322000FEF708FC46E0DFF81418DFF81008027813
:103230003020424301EB0200407910283ADADFF8EF
:10324000FC17DFF8F80702783020424301EB020058
:1032500090F8300001280CD10621DFF8E027DFF8D4
:10326000DC0703783020434302EB03004079FEF78C
:10327000B5F80022DFF8C40701780A20FEF7DAFB70
:1032800018E0DFF8B817DFF8B407027830204243BF
:1032900001EB0200007900280CD10021DFF89C2707
:1032A000DFF8980743783020434302EB030040796E
:1032B000FEF794F80020DFF870170870DFF87C073D
:1032C0000078401CDFF874170870DFF8700700788A
:1032D0000A2803DB0020DFF864170870DFF85007C6
:1032E0000078401EDFF848170870F8E6E456030837
:1032F00018810308644F0308D44E030828AC00204B
:103300002C55030838B539E00020DFF83417087071
:10331000DFF830070078002809D0DFF82C270021DB
:10332000002002F057FE0020DFF818170870002078
:10333000DFF818170870DFF818070068002812D0A7
:10334000DFF80C070068401EDFF804170860DFF89C
:1033500000070068002806D110210022DFF8F4469B
:10336000200003F067FDDFF8B406007850F002009B
:10337000DFF8A81608700A2001F027FC05F01BFAF8
:1033800005F0FDFADFF8D0060068022816D1DFF854
:10339000CC060088401CDFF8C4160880DFF8BC06A5
:1033A000008841F27171884208DB0020DFF8AC161A
:1033B0000880002200210120FEF73CFBDFF8A00678
:1033C0000078411CDFF898261170C0B21328C0F2B3
:1033D00073810020DFF888160870DFF888060088FF
:1033E000411CDFF88026118080B20528C0F254818C
:1033F0000020DFF870160880DFF86C060088401C9B
:10340000DFF864160880DFF82406C088062805D097
:10341000DFF81806C088072840F03E8100213EE012
:103420000022DFF848360C00E4B21820444303EBD6
:103430000400027532E00022DFF830360C00E4B2FE
:103440001820444303EB04000274DFF820260B002D
:10345000DBB21820434302EB0300007D00281DD09F
:10346000DFF808260B00DBB21820434302EB030011
:10347000C08A0028D4D0DFF8F4250B00DBB2182076
:10348000434302EB0300C08A421EDFF8E0350C0024
:10349000E4B21820444303EB0400C282491C080034
:1034A000C0B2042880F2F880DFF8C0250B00DBB240
:1034B00018204343D05C002826D0DFF8B0250B004D
:1034C000DBB21820434302EB03004088002813D0EE
:1034D000DFF898250B00DBB21820434302EB030012
:1034E0004088421EDFF884350C00E4B218204443C3
:1034F00003EB0400428007E00022DFF870350C0087
:10350000E4B2182044431A55DFF860250B00DBB203
:103510001820434302EB03000079002828D0DFF88D
:103520004C250B00DBB21820434302EB0300C0889C
:10353000002813D0DFF834250B00DBB218204343FA
:1035400002EB0300C088421EDFF820350C00E4B215
:103550001820444303EB0400C28009E00022DFF896
:103560000C350C00E4B21820444303EB0400027154
:10357000DFF8F8240B00DBB21820434302EB030012
:10358000007A002828D0DFF8E4240B00DBB21820F2
:10359000434302EB03004089002813D0DFF8CC241A
:1035A0000B00DBB21820434302EB03004089421EAC
:1035B000DFF8B8340C00E4B21820444303EB0400F5
:1035C000428109E00022DFF8A4340C00E4B21820A4
:1035D000444303EB04000272DFF890240B00DBB2DB
:1035E0001820434302EB0300007B002828D0DFF8BB
:1035F0007C240B00DBB21820434302EB0300C0899C
:10360000002813D0DFF864240B00DBB218204343FA
:1036100002EB0300C089421EDFF850340C00E4B214
:103620001820444303EB0400C28109E00022DFF8C4
:103630003C340C00E4B21820444303EB0400027352
:10364000DFF828240B00DBB21820434302EB030011
:10365000007C00283FF4F9AEDFF810240B00DBB249
:103660001820434302EB0300408A00283FF4E3AEF6
:10367000DFF8F8230B00DBB21820434302EB030012
:10368000408A421EDFF8E4330C00E4B218204443C1
:1036900003EB04004282D8E6DFF8CC0300883C2824
:1036A0000ADB0020DFF8C0130880DFF86808006834
:1036B000401CDFF860180860DFF87003C088062837
:1036C00005D0DFF86803C08807287FF434AEDFF840
:1036D0007C030078401CDFF874130870DFF86C037B
:1036E00000783228FFF627AEDFF82C080078002893
:1036F0000BD0DFF824080078401EDFF81C18087093
:103700000120DFF84013087011E60022DFF80C18E2
:10371000DFF80C0803F0E9FF0022DFF80818DFF8F3
:10372000000804F08CF8DFF8F40701783C22DFF899
:10373000EC07407802FB0101DFF8EC070180DFF8BD
:10374000DC0780780090DFF8D4074378DFF8CC07F7
:103750000278DFF8D817B84802F0C4FCB64A002156
:10376000002002F037FCDFF8C0070088022842DAA8
:10377000DFF8BC070078002841D101F02AFADFF811
:10378000A8070288DFF8AC17DFF8AC0701F0A4FA4D
:1037900001F027FA0020DFF8A41708700020DFF8F6
:1037A000A017088000241BE014210122DFF89437C1
:1037B0002500EDB26C2045431D44280003F03AFB80
:1037C000012093492200D2B288542821DFF87827BB
:1037D0002300DBB21720434302EB03008172641C19
:1037E00020008D490978C0B28842DDD30120DFF87E
:1037F0004017087003E00020DFF834170870DFF886
:103800002807008840F2D12188420BDBDFF82C0723
:103810000078002806D10120DFF82017087000206A
:103820007A490870DFF800070088DFF81417098864
:103830000A318842FFF668AD8148007800287FF49D
:1038400067AD01207E490870DFF8DC060088DFF8EC
:10385000F016088001F0BDF9DFF8CC060288DFF829
:10386000EC16DFF8D40601F037FA01F0BAF90021BE
:103870000800694A1278C0B29042BFF449AD0120F5
:10388000634A0B00DBB2D0542822DFF8BC360C00B0
:10389000E4B21720444303EB04008272491CE7E7BB
:1038A0007855030874590308BC660308E8740308D4
:1038B000A478030870BC002080B51DE0DFF89006F6
:1038C00000780028FAD1DFF88C060078401CDFF879
:1038D00084160870DFF87C060078022803DB0020DD
:1038E000DFF8701608704D48007850F001004B4921
:1038F0000870012001F069F94C48C08801280AD0FD
:10390000DCD3032829D017D3052844D032D3072885
:103910005FD04DD3D2E7DFF83C060078002803D112
:10392000002007F031FF06E0DFF8280600780128C4
:1039300001D108F001FFC1E7DFF818060078002880
:1039400003D1012007F020FF06E0DFF80806007829
:10395000012801D108F0F0FEB0E7DFF8F8050078A3
:10396000002806D0DFF8EC050078012801D108F026
:10397000E3FEA3E7DFF8DC050078002803D101208F
:1039800007F002FF06E0DFF8CC050078012801D13E
:1039900008F0D2FE92E7DFF8BC050078002806D0D8
:1039A000DFF8B0050078012801D108F0C5FE85E7F1
:1039B000DFF8A0050078002803D1002007F0E4FE1E
:1039C00006E0DFF890050078012801D108F0B4FE88
:1039D00074E7DFF880050078002803D1012007F0A4
:1039E000D3FE06E0DFF86C050078012801D108F06D
:1039F000A3FE63E7007503081875030809BF0020DC
:103A0000000C024006BF002002BF0020FDBE0020C7
:103A100014BE002078020020FEBE002007BF002058
:103A200090BD0020FCBE0020FABE0020ACB80020F3
:103A3000FBBE0020B878030898BC002048A30020F3
:103A4000FFBE002018BF0020B477030816BF002077
:103A500010BE002074BD002004BE0020E0BE002087
:103A600015BF0020DCBE0020DABE0020ECB700202D
:103A70001FB509F009FBFCF7D4FB01F08BF85FF4EC
:103A8000E13009F023FB01F0A4F87AA1DFF8A804E3
:103A900001F022F901F0A5F801F09BF8DFF8B81465
:103AA000DFF8940401F018F901F09BF801F091F8A7
:103AB00000230222DFF8A414DFF87C0401F00CF9E3
:103AC00001F08FF801F085F8DFF88C14DFF8680456
:103AD00001F002F901F085F801F07BF8DFF88014BD
:103AE000DFF8540401F0F8F801F07BF801F071F808
:103AF000DFF87034DFF87024DFF87014DFF8380472
:103B000001F0EAF801F06DF801F063F8DFF86014F5
:103B1000DFF8240401F0E0F801F063F801F059F84F
:103B200054A1DFF8140401F0D7F801F05AF800208E
:103B300004F026FC012004F023FC022004F020FC09
:103B4000002004F07BFC012004F078FC022004F04B
:103B500075FC0021002004F08CFC00200090DFF8B0
:103B60001404006850F04000DFF808140860DFF823
:103B70000404006810F0400000900098DFF8F8039B
:103B8000DFF8F8130860DFF8F40309F049FB0024BC
:103B90001BE001A9DFF8E40309F065FB0198DFF8F9
:103BA000E01308550198000ADFF8D4132144487047
:103BB0000198000CDFF8C813214488700198000EAA
:103BC000DFF8BC132144C870241D202CE1D309F078
:103BD0007DFB09F035FC09F057FC09F0E1FCFCF72E
:103BE00098FB00220121DFF89C0304F0B4FDDFF80C
:103BF0009803006880000AD5022004F011FCDFF869
:103C00008803006850F08070DFF87C13086009F0CA
:103C10005FFD09F0DDFD02F04AF80122DFF86C13C8
:103C2000DFF86C0304F070F80122DFF86813DFF8A6
:103C3000680304F069F8DFF864034088DFF8601374
:103C40000880DFF85C030288DFF85813DFF85803B8
:103C500002F048FADFF84403C088012804D0DFF8F6
:103C60003C03C088062807D11E20DFF840130870E7
:103C700006E000BF0D0A00001420DFF830130870C2
:103C800000230222DFF82813DFF8280302F02AFAC3
:103C9000C84A0021002002F09DF9C048C388C048EE
:103CA0000288C549C54802F01DFAC44A0121002016
:103CB00002F090F94FF47A7004F054FB01220121D4
:103CC000B04804F048FD4FF47A7004F04BFB4CF61A
:103CD000CC40BB4909680860BA4809F0C1FD00B290
:103CE000002807D000F075FFB749934800F0F4FFB3
:103CF00000F077FF2022A249B24809F0CCFD00B2C3
:103D0000002807D000F065FFB0498B4800F0E4FFC1
:103D100000F067FF09F004FE00B2002807D000F0B1
:103D200058FFAB49844800F0D7FF00F05AFFA94C78
:103D3000A949200009F0C5FEA849200009F0DAFED3
:103D4000A749200009F0EFFEA649200009F0FFFE78
:103D500002A9A5480AF0F5FB02A9200009F093FE8C
:103D6000200009F008FF00B2002809D000F031FF60
:103D700014F110029D49704800F0AEFF00F031FFD1
:103D80009B480AF049FC9A48046000209849486121
:103D9000974998480AF056FC00B2002807D000F076
:103DA00018FF9549644800F097FF00F01AFF91480A
:103DB0000AF096FC00B2002807D000F00AFF8F49F5
:103DC0005D4800F089FF00F00CFF8D480BF092FB7E
:103DD0008B4804608A498B480BF098FB00B200289E
:103DE00007D000F0F6FE8849534800F075FF00F058
:103DF000F8FE84480BF0B3FB00B2002807D000F0B7
:103E0000E8FE82494C4800F067FF00F0EAFE01201E
:103E1000009040F6B83300227D497E4800F0BFFE96
:103E2000002807D100F0D5FE7B49434800F054FF3D
:103E300000F0D7FE012000904FF4FA73002277497A
:103E4000774800F0ACFE002807D100F0C2FE7249AE
:103E5000394800F041FF00F0C4FE022000904FF40A
:103E60007A7300226F49704800F099FE002807D14C
:103E700000F0AFFE6849304800F02EFF00F0B1FEC0
:103E8000012000904FF47A7300226849684800F0DE
:103E900086FE002807D100F09CFE5F49264800F00E
:103EA0001BFF00F09EFE012000904FF47A73002269
:103EB0006049614800F073FE002807D100F089FED8
:103EC00055491D4800F008FF00F08BFE02200090CD
:103ED0004FF47A7300225949594800F060FE0028D7
:103EE00007D100F076FE4C49134800F0F5FE00F0D3
:103EF00078FE00F050FE002004B010BD80B50A002E
:103F0000010050480BF0BCFD4FF47A7004F02AFA1F
:103F100001BD000018BE002017BF002084BC002097
:103F2000BCBB002030BE0020D6BE00203075030888
:103F300000BF002048750308A801002001BF002031
:103F4000D8BE0020C8A8002028AC0020745B03085D
:103F500019BF002011BF00200C620308E0660308AF
:103F60002C5E03083081030824810308CC78030801
:103F7000E0780308343802400008065084BD002071
:103F80009CBB0020001002407438024068B300203F
:103F90008CBA002010B10020CCBA0020ACB80020B0
:103FA00074020020F478030870BC0020790200201D
:103FB0000879030898BC00201C790308ACBC0020D9
:103FC00090BD002018A00020CC6A0308607503088B
:103FD000346203080476002054840308287D030813
:103FE000A8580308007703089078030804670308BB
:103FF00048BB002020B7002028670308EC6A0308AC
:1040000034BD002014BC00200C6B0308C0700308F2
:10401000712300085C840308DC700308052F000886
:1040200064840308652F00083C81030805330008F9
:1040300048810308B9380008548103088530000816
:1040400060810308387D030838B50400002020781B
:10405000C0076ED5DFF88003006810F00C0004285C
:104060000BD0DFF87403006810F00C0008280ED1A4
:10407000DFF868030068400209D5DFF864030068D0
:10408000800356D56068002853D10120A3E1606801
:10409000B0F5803F08D1DFF84803006850F4803065
:1040A000DFF83C13086024E06068B0F5A02F10D161
:1040B000DFF82C03006850F48020DFF82413086038
:1040C000DFF81C03006850F48030DFF81413086038
:1040D0000FE0DFF80C03006830F48030DFF80013E5
:1040E0000860DFF8FC02006830F48020DFF8F0128E
:1040F0000860606800280ED00BF0D6FC0500DFF8E1
:10410000E0020068800314D40BF0CEFC401B65284D
:10411000F5D303205FE10BF0C7FC0500B048006851
:10412000800306D50BF0C0FC401B6528F6D30320A6
:1041300051E12078800725D5A748006810F00C0FC2
:1041400009D0A548006810F00C00082831D1A34818
:10415000006840022DD4A2480068800704D5E068BA
:10416000012801D0012036E19D4800685FF0F85138
:10417000B1FA81F130F0F800226912FA01F1084336
:10418000974908602078000758D56069002844D016
:104190000120944908600BF087FC050092480068F4
:1041A00080074BD40BF080FC401B0328F6D3032080
:1041B00011E1E06800281FD001208C4908600BF055
:1041C00073FC050086480068800706D40BF06CFC81
:1041D000401B0328F6D30320FDE0814800685FF010
:1041E000F851B1FA81F130F0F800226912FA01F1C8
:1041F00008437B490860C5E700207C4908600BF054
:1042000053FC0500764800688007BBD50BF04CFCDA
:10421000401B0328F6D30320DDE00020714908602D
:104220000BF042FC050070480068800706D50BF0D3
:104230003BFC401B0328F6D30320CCE0207840074A
:104240006AD5002000906A48006850F080506849A4
:1042500008606748006810F080500090009865483A
:10426000006850F48070634908600BF01DFC050085
:1042700060480068C00506D40BF016FC401B0328FC
:10428000F6D30320A7E0A068012806D15A480068A9
:1042900050F00100584908601BE0A06805280CD1C7
:1042A0005548006850F004005349086052480068BF
:1042B00050F00100504908600BE04F48006840088A
:1042C00040004D4908604C48006830F004004A49FD
:1042D0000860A06800280FD00BF0E6FB05004648F8
:1042E0000068800718D40BF0DFFB401B41F28931D6
:1042F0008842F4D303206EE00BF0D6FB05003E4865
:104300000068800708D50BF0CFFB401B41F28931D4
:104310008842F4D303205EE0A06900285AD02E48DA
:10432000006810F00C00082852D0A06902283ED185
:104330000020324908600BF0B7FB050028480068F0
:10434000800106D50BF0B0FB401B0328F6D30320F9
:1043500041E02B48B0FA80F14FF44040B0FA80F2CF
:10436000F020B0FA80F3E569206A0543606A10FA2C
:1043700001F12943A06A4008401E10FA02F21143DD
:10438000E06A10FA03F319431448016001201B4945
:1043900008600BF089FB040011480068800119D403
:1043A0000BF082FB001B0328F6D3032013E0002050
:1043B000124908600BF078FB04000948006880018E
:1043C00008D50BF071FB001B0328F6D3032002E095
:1043D000012000E0002032BD0838024004380240CD
:1043E00000380240800E47427438024000004742C5
:1043F0004038024000700040703802406000474280
:104400000000FE031CB50020002000902148006839
:1044100050F080501F4908601E48006810F080501E
:104420000090009801204FF40041B1FA81F1184A40
:1044300012EB810210600BF037FB04001348006898
:10444000C00308D40BF030FB001B40F2E931884276
:10445000F4D3032019E001204FF48041B1FA81F137
:104460000B4A12EB810210600BF01EFB04000748A0
:104470000068800308D40BF017FB001B40F2E93101
:104480008842F4D3032000E0002016BD04700040F1
:1044900000000E424038024070B504000D000020BC
:1044A0007348006810F00F00A84209D270480570E8
:1044B0006F48006810F00F00A84201D00120B2E060
:1044C0002078800707D56B48016831F0F001A068BB
:1044D0000143684801602078C00769D560680128F9
:1044E00005D165480068800313D401209BE0606813
:1044F000022802D06068032805D15F480068800167
:1045000007D401208FE05C480068800701D40120B7
:1045100089E0584801688908890060680143554866
:1045200001600BF0C1FA0600606801280ED1514805
:10453000006810F00C0004283AD00BF0B5FA801B8C
:1045400041F289318842F2D303206CE0606802288E
:104550000ED14848006810F00C00082828D00BF055
:10456000A3FA801B41F289318842F2D303205AE03A
:10457000606803280ED13F48006810F00C000C283A
:1045800016D00BF091FA801B41F289318842F2D3A8
:10459000032048E03748006810F00C0F08D00BF0FB
:1045A00083FA801B41F289318842F3D303203AE039
:1045B0002F48006810F00F00854209D22C48057082
:1045C0002B48006810F00F00A84201D001202AE01B
:1045D0002078400707D52748016831F4E051E068AA
:1045E0000143244801602078000708D5214800686D
:1045F00030F46040216950EAC1001E49086000F0B3
:1046000041F81C4909681D4A11F0F0015FF0706320
:10461000B3FA83F3D940515CC840194908600F20B0
:104620000BF048FA002070BD15480068704780B54F
:10463000FFF7FAFF0F490968104A11F4E0515FF4DF
:104640006013B3FA83F3D940515CC84002BD80B512
:10465000FFF7EAFF07490968084A11F460415FF46F
:10466000E023B3FA83F3D940515CC84002BD000097
:10467000003C02400838024000380240B87E03087F
:104680004001002000200020002000202048006879
:1046900010F00C00002804D0042804D0082804D00E
:1046A00034E01C4833E01C4831E01C48006810F03E
:1046B0003F001A49096849020DD518490A68164988
:1046C000B1FBF0F147F6C07002401548B0FA80F037
:1046D000C24051430CE011490A680E49B1FBF0F1A8
:1046E00047F6C07002400E48B0FA80F0C240514315
:1046F0000A48006810F440304FF44042B2FA82F2A7
:10470000D040401C4000B1FBF0F000E00148704791
:10471000083802400024F40000127A0004380240F5
:104720000000FE0338B5040000200020207810F0BF
:10473000030F54D00020DFF8901208600BF0B4F99A
:104740000500DFF878020068000106D50BF0ACF92F
:10475000401B0328F5D303202EE12078C00710D595
:10476000DFF86802B0FA80F00E21B1FA81F16268D8
:1047700012FA00F0A26812FA01F10843DFF84412BD
:1047800008602078800719D58E48006810F0E04056
:104790000E21B1FA81F1C8406168E268120652EA5E
:1047A000811252EA00728748026089480068400915
:1047B0004001E169491E084385490860012082499A
:1047C00008600BF071F905007C480068000106D410
:1047D0000BF06AF9401B0328F6D30320ECE02078A5
:1047E00010F00C0F71D000207A4908600BF05CF9D2
:1047F000050072480068800006D50BF055F9401B93
:104800000328F6D30320D7E02078400725D5724847
:10481000006810F0E0400E21B1FA81F1C8406B4908
:10482000B1FA81F1F022B2FA82F20E23B3FA83F3E5
:10483000256915FA01F1656915FA02F211439840EC
:104840000843654908606248006830F4F850216AFE
:10485000491E50EA01205E4908602078000723D5F0
:104860005D48006810F07060F021B1FA81F1C84035
:104870005649B1FA81F1F022B2FA82F20E23B3FA6C
:1048800083F3256915FA01F190400843A16911FAF3
:1048900003F31843504908604D48016831F4403132
:1048A000606A01434A48016001204A4908600BF0F0
:1048B000FBF8050041480068800006D40BF0F4F8CE
:1048C000401B0328F6D3032076E0207880066BD5C2
:1048D000002000904148006850F080503F49086037
:1048E0003E48006810F08050009000983C480068F6
:1048F00050F480703A4908600BF0D6F8050038484B
:104900000068C00506D40BF0CFF8401B0328F6D38F
:10491000032051E03348006810F44070002824D090
:10492000A16A11F4407188421FD02E48006830F40B
:10493000407001212C4A116000212B4A1160294945
:10494000086028480068C0070FD50BF0ADF80500D7
:1049500024480068800708D40BF0A6F8401B41F2F9
:1049600089318842F4D3032026E0A06A10F4407015
:10497000B0F5407F0AD11248016831F4F811A26AFB
:104980001A48024011430E48016005E00C480068D7
:1049900030F4F8100A49086012480068A16A090555
:1049A000090D08430F4908602078C00603D594F824
:1049B0002C000F490860002032BD00000038024082
:1049C0000838024084380240680047420000FE0375
:1049D0008C3802407000474288380240403802401C
:1049E0000070004070380240400E4742FFFCFF0F4D
:1049F000E011474210F007004A490A684FF6FF01EC
:104A00000A40494951EA00210A434648026070477A
:104A100044480068C0F302207047010049B20029F1
:104A200008D4012210F01F018A40404940B24009D9
:104A300041F820207047020052B2002A04D4090134
:104A40003B4A40B2115407E009013A4A40B210F023
:104A50000F00104400F8041C704710B410F0070059
:104A6000D0F10703052B01D3042301E0D0F10703A4
:104A7000041D072C01D2002000E0C01E012414FAFE
:104A800003F35B1E19408140012313FA00F0401E1E
:104A90001040084310BC704780B5411EB1F1807FC3
:104AA00001D301200EE0401E234908600F215FF072
:104AB000FF30FFF7C0FF0020204908600720204991
:104AC0000860002002BD80B5FFF794FF01BD70B5FE
:104AD00004000D0016000020FFF79AFF32002900A5
:104AE000FFF7BBFF0100200040B2FFF7A4FF70BD3D
:104AF00080B540B2FFF791FF01BD80B5FFF7CCFF55
:104B000002BD042806D10E48006850F004000C498C
:104B1000086005E00A48006830F0040008490860B1
:104B2000704700000CED00E00000FA0500E100E035
:104B300000E400E018ED00E014E000E018E000E020
:104B400010E000E038B50400002C01D1012020E085
:104B50004CF6CC402168086045F255502168086049
:104B6000606821684860A068216888600AF09CFF3E
:104B700005002068C068002806D00AF095FF401B99
:104B80003128F6D3032004E04AF6AA202168086001
:104B9000002032BD704780B50BF0A2F801BD3EB5D4
:104BA0000C0011001A00069B0025029502AD01952C
:104BB00000930B0092B2010020000AF08FFF012841
:104BC00001D1029800E000203EBD80B50BF06FF8E7
:104BD00001BD80B50BF0D8FA012801D00BF0A8F880
:104BE00001BD80B50BF0D0FA012801D00BF0A8F878
:104BF00001BD10B504000322002101200BF08FFC41
:104C000020602068002805D00023002200212068B1
:104C10000BF0CAFC2068002805D0002120680BF0AA
:104C200078FD012000E0002010BD80B5016800295A
:104C300002D000680BF006FE01BD80B50023002203
:104C4000002100680BF0B0FC01BD80B500210068B8
:104C50000BF05FFD01BD80B511F1010F05D15FF0D3
:104C6000FF3100680BF055FD02E000680BF051FDCC
:104C700002BD80B500210091694600680BF01BFD64
:104C8000009802BD10B5040001200BF080FC2060EC
:104C90002068002801D0012000E0002010BD80B570
:104CA0005FF0FF3100680BF034FD01BD80B50023DB
:104CB0000022002100680BF077FC01BD80B50BF0ED
:104CC000B0F802BD80B50BF064FE02BD80B50028CF
:104CD00001D00BF06AFE01BD0CB43EB5044606A837
:104CE00001900D462046AFF300800021009101ABFA
:104CF0002A4621460648784416300BF063FE0546E6
:104D00002046AFF30080284603B030BC5DF80CFBB2
:104D1000A129030070B505000E00701CDFF808170C
:104D2000096888470400002C01D1002007E000201A
:104D3000A0553200290020000CF056FD200070BD67
:104D40000100C9B230390A2902D2C0B2303811E0AC
:104D50000100C9B26139062902D2C0B2573809E050
:104D60000100C9B24139062902D2C0B2373801E088
:104D70005FF0FF3070472DE9F04105000C00287806
:104D8000002808D06878002805D0A878002802D02C
:104D9000E878002801D1002024E02878FFF7D0FF30
:104DA00006006878FFF7CCFF0700A878FFF7C8FF78
:104DB0008046E878FFF7C4FF16F1010F08D017F11D
:104DC000010F05D018F1010F02D010F1010F01D130
:104DD000002007E03F0257EA063757EA0817074363
:104DE00027600120BDE8F08138B504000D00022DD8
:104DF00007D32078302804D160782E2801D00020F5
:104E00001AE0032D0BD3022217A120000CF024FD81
:104E1000002804D1A0782E2801D000200CE0280022
:104E2000451E002807D0615D10A00CF029FD002868
:104E3000F5D0002000E0012032BD10B504001420A0
:104E4000DFF8241A09688847002801D1002008E00B
:104E50000460002141600021816000210161002186
:104E6000C16010BD000000002D3000007858000027
:104E700070B505000C001600002C02D15FF0FF3069
:104E800008E0200002F068FE020033002100280044
:104E900000F001F870BD2DE9F04104000E0017008C
:104EA0001D000020002C03D0002E01D0002D02D1C7
:104EB0005FF0FF303AE03A003100200000F08EF859
:104EC000002802D05FF0FF3030E0E06821698842BE
:104ED00010D320694000112802D32069410000E06E
:104EE0001021200000F024F810F1010F02D15FF032
:104EF000FF301BE0D4F80C8039003000FFF70AFFC8
:104F0000616841F82800606850F82800002802D144
:104F10005FF0FF300AE0200000F00AFD2860A06882
:104F200040F82850E068401CE0600020BDE8F081B7
:104F3000F8B507000C00002000207868002802D196
:104F4000B868002807D17868002802D0B86800281F
:104F500001D0002C02D15FF0FF303DE0A000DFF86F
:104F6000C814096888470500002D02D15FF0FF30A2
:104F700032E0A000DFF8B014096888470600002E70
:104F800007D12800DFF8E418096888475FF0FF3090
:104F900022E07868002811D0B86800280ED0F868A0
:104FA00000280BD0F86882007968280001F076FFAD
:104FB000F8688200B968300001F070FF7868DFF8A7
:104FC000AC1809688847B868DFF8A01809688847EE
:104FD0007D60BE603C610020F2BD0000F8B50400B9
:104FE0000D001600002700E07F1C200000F08AFC66
:104FF000874213D2606850F8270002F0ADFDB0423E
:10500000F2D132002900606850F827000CF024FC2F
:105010000028E9D1A06850F8270000E00020F2BD88
:1050200038B5040000250CE0606850F82500DFF872
:105030003C1809688847A06850F8250000F0D3FCA8
:105040006D1CE0688542EFD36068DFF820180968BE
:105050008847A068DFF81418096888472000DFF83F
:105060000C180968884731BD10B504001020DFF81E
:10507000F81709688847002801D1002006E004607D
:10508000002141600021C1600021816010BD38B560
:1050900004000D00A068E168884210D3E068400079
:1050A000112802D3E068410000E01021200000F048
:1050B00013F810F1010F02D15FF0FF300BE0200078
:1050C00000F05AFC28606068A16840F82150A06890
:1050D000401CA060002032BD70B506000C0000200E
:1050E000002C02D15FF0FF301EE0A000DFF8381383
:1050F000096888470500002D02D15FF0FF3013E0FA
:105100007068002808D0B068002805D0B068820018
:105110007168280001F0C2FE7068DFF85017096856
:1051200088477560F460002070BD38B50400002524
:1051300005E0606850F8250000F055FC6D1CA06883
:105140008542F6D36068DFF8241709688847200095
:10515000DFF818170968884731BD10B50400102022
:10516000DFF8041709688847002801D1002004E00F
:105170000021016002214160846010BD016809784E
:10518000222902D05FF0FF3023E00168491C016052
:105190000DE0016809785C2906D10168491C0160AD
:1051A0000168097800290DD00168491C0160016877
:1051B0000978222909D0016809780029E9D15FF02E
:1051C000FF3006E05FF0FF3003E00168491C01603A
:1051D000002070472DE9FC4104000D0000202E68DE
:1051E0002068471C69463800FFF7C5FD002802D13A
:1051F0005FF0FF3008E00098802807D200983070F8
:10520000F81C2E6020600020BDE8F6810098B0F503
:10521000006F0ED20098800910F01F0050F0C000FF
:105220003070009810F03F0050F080007070761CD5
:10523000E6E70098B0F55840B0F5006F15D3009838
:10524000000B10F00F0050F0E00030700098800963
:1052500010F03F0050F080007070009810F03F0098
:1052600050F08000B070B61CCAE70098B0F5584006
:10527000B0F5806F44D2DDF80080381D411C007805
:105280005C2803D14F1C0878752802D05FF0FF30EE
:10529000BAE701A93800FFF76EFD002805D0019894
:1052A000B0F55C40B0F5806F02D35FF0FF30ABE744
:1052B000DFF8C40510EA882001998905890D0843A3
:1052C00010F5803000900098800C10F0070050F02E
:1052D000F00030700098000B10F03F0050F080009C
:1052E00070700098800910F03F0050F08000B0709E
:1052F000009810F03F0050F08000F070F61C7FE73F
:105300005FF0FF3080E77CB505000E000195701C52
:1053100000210021002100910021434909688847AC
:105320000400002C06D12000DFF8401509688847EA
:10533000002076BD009405E00098401C0090019884
:10534000401C019001980078002852D00198401B21
:10535000B0424ED2019800785C2840D10198401CA0
:10536000019001980078222810D02F2816D05C28B0
:1053700010D0622816D0662818D06E281AD072284D
:105380001CD074281ED0752820D027E02220009938
:105390000870D1E75C2000990870CDE72F200099B4
:1053A0000870C9E7082000990870C5E70C2000992B
:1053B0000870C1E70A2000990870BDE70D20009928
:1053C0000870B9E7092000990870B5E7694601A897
:1053D000FFF700FF10F1010FAED1A4E7A3E701989A
:1053E0000078202804DB0198007800990870A3E772
:1053F00099E7002000990870009E361B761C30004B
:105400000949096888470500002D8CD03200210029
:10541000280001F043FD2000DFF850140968884798
:10542000280086E7000000002401002038B50400B1
:10543000256800202000FFF7A1FE002801D00020F1
:1054400005E02168491B891E681CFFF75CFF32BD1F
:1054500038B504000D0040F60100854204D3002059
:1054600038E02068401C2060206800780CF013FAB7
:105470000028F6D12068007822381AD00B3820D0C6
:10548000C01E09281DD92B380DD00B3815D008386F
:105490001BD0801F11D0C01F1BD16D1C2900200004
:1054A00000F019F816E06D1C2900200000F0D3F878
:1054B00010E0200000F05CF90CE0200000F06DF935
:1054C00008E0200000F08EF904E0200000F0B8F9B8
:1054D00000E0002032BD2DE9F84307008846002097
:1054E00000200020002000F09FFA0600002E01D1CD
:1054F0000020AEE0386800787B2804D0300000F04F
:1055000072FA0020A5E0300000F03FFA81463868CA
:10551000401C386002E03868401C38603868007809
:105520000CF0B9F90028F6D1386800787D2804D14C
:105530003868401C386030008BE0386800780028FC
:105540006AD03800FFF772FF0400002C07D130004A
:1055500000F049FA00207CE03868401C3860386868
:1055600000780CF098F90028F6D1386800783A28CD
:1055700016D13868401C386041463800FFF768FF94
:105580000500002D15D02A0021004846FFF770FCC9
:1055900010F1010F16D02000B4490968884720E0B7
:1055A0002000B24909688847300000F01CFA00204A
:1055B0004FE02000AD4909688847300000F013FA39
:1055C000002046E02000A94909688847280000F02B
:1055D0000AFA300000F007FA00203AE03868401C70
:1055E0003860386800780CF056F90028F6D1386831
:1055F00000782C280CD13868401C38603868007856
:105600000CF049F9002898D03868401C3860F5E75C
:1056100002E03868401C3860386800780CF03BF9CC
:105620000028F6D1386800787D2809D1484600F076
:1056300069F901004846FFF77BFC10F1010F04D126
:10564000300000F0D0F9002003E03868401C3860DA
:105650003000BDE8F2832DE9F04106000F00002084
:105660000020002000F0FFF90500002D01D10020EE
:105670007CE0306800785B2804D0280000F0B3F9A3
:10568000002073E0280000F08BF980463068401C51
:10569000306002E03068401C3060306800780CF008
:1056A000FAF80028F6D1306800785D2804D1306817
:1056B000401C3060280059E030680078002838D05D
:1056C00039003000FFF7C4FE0400002C0ED021008A
:1056D0004046FFF7DCFC10F1010F0FD1200000F075
:1056E00082F9280000F07FF900203FE0280000F058
:1056F0007AF900203AE03068401C30603068007869
:105700000CF0C9F80028F6D1306800782C280CD1AC
:105710003068401C3060306800780CF0BCF800281D
:10572000CAD03068401C3060F5E702E03068401CA9
:105730003060306800780CF0AEF80028F6D13068A0
:1057400000785D2809D1404600F010F9010040467C
:10575000FFF7C2FC10F1010F04D1280000F043F95B
:10576000002003E03068401C30602800BDE8F08174
:1057700010B50021FFF75AFE0400002C01D10020D3
:105780000AE02000FFF7E9FC002805D12000374996
:10579000096888470020FFE710BD70B504000425A4
:1057A00005262A002168DFF8D4000CF055F80028FF
:1057B00006D1206828442060012000F0A3F90FE002
:1057C00032002168DFF8B8000CF046F8002806D156
:1057D000206830442060002000F094F900E00020B0
:1057E00070BD000010B52DED028B82B004009FED5E
:1057F000200B0CF064F800210160694620680CF071
:105800006CF8B0EE408AF0EE608A0CF058F8006850
:10581000002807D100992068091A2068FFF7E4FAE8
:10582000002801D1002007E000982060B0EE480A6F
:10583000F0EE680A00F036F902B0BDEC028B10BD44
:1058400038B5040004252A002168DFF838000CF080
:1058500003F8002805D120682844206000F068F98A
:1058600000E0002032BD00002401002028010020BB
:10587000000000000000000000FC0F00E4840308AA
:10588000EC840308F484030801B50098002801D1D2
:10589000002012E000980078EF280AD100984078A4
:1058A000BB2806D100988078BF2802D10098C01C80
:1058B000009000216846FFF7CBFD02BD38B505001A
:1058C0000C00002D01D0002C01D1002007E02000A9
:1058D00002F042F9020021002800FFF77FFB32BDF1
:1058E00080B5FFF7EBFF00F066F802BD80B5FFF76B
:1058F000E5FF00F06BF801BD80B5FFF7DFFF00F0BA
:105900004FF802BD002801D0C06800E000207047B9
:1059100038B504000D00002C04D02000FFF7F2FF82
:10592000854201D3002002E0606850F8250032BDB6
:105930000068704738B504000D00002C04D020002A
:1059400000F014F8854201D3002002E0606850F8AE
:10595000250032BD80B5FFF7EDFF00F02CF802BD49
:1059600080B5FFF7E7FF00F031F801BD002801D056
:10597000806800E00020704700687047002801D070
:10598000406801E05FF0FF30704710B50400200070
:10599000FFF7F4FF042801D1A06800E0002010BD4B
:1059A00010B504002000FFF7E9FF052801D1A06829
:1059B00000E0002010BD10B504002000FFF7DEFF5E
:1059C000022801D1A06800E0002010BD10B504003D
:1059D0002000FFF7D3FF032802D194ED020B01E072
:1059E0009FED5B0B10BD10B504002000FFF7C6FF54
:1059F000022808D0042802D005280AD00DE0A068AB
:105A0000FFF70EFB09E0A068DFF84C110968884732
:105A100003E0A068FFF789FBFFE72000DFF83811FB
:105A20000968884710BD000010B51020DFF82C1160
:105A3000096888470400002C01D1002012E00020F2
:105A40002060042060602000FFF7F7F9A060A068E4
:105A5000002806D12000DFF80011096888470020DF
:105A600000E0200010BD10B51020DFF8F01009682C
:105A700088470400002C01D1002012E000202060A3
:105A8000052060602000FFF7EFFAA060A068002802
:105A900006D12000DFF8C01009688847002000E028
:105AA000200010BD80B52DED028BB0EE408AF0EEE7
:105AB000608A002051EC180B48004015401C00285B
:105AC00001D0002100E00903002907D1B0EE480A07
:105AD000F0EE680A0BF005FF002801D000200EE070
:105AE0001020DFF8781009688847002801D10020CD
:105AF00005E0002101600321416080ED028BBDECD7
:105B0000028B02BD10B504001020DFF850100968A8
:105B10008847002801D1002009E00021016006210A
:105B20004160002C01D0012100E00021816010BD06
