:020000040800F2
:10000000480600207D6C0008E3630008E5630008F3
:10001000ED630008F5630008FD63000800000000C0
:10002000000000000000000000000000056400085F
:100030000764000800000000096400080B64000861
:10004000A16C0008A56C0008A96C0008AD6C000844
:10005000B16C0008B56C0008B96C0008BD6C0008F4
:10006000C16C0008C56C0008C96C0008CD6C0008A4
:10007000D16C0008D56C0008D96C0008DD6C000854
:10008000E16C0008E56C0008E96C0008ED6C000804
:10009000F16C0008F56C0008F96C0008FD6C0008B4
:1000A000016D0008056D0008096D00080D6D000860
:1000B000116D0008156D0008196D00081D6D000810
:1000C000216D0008256D0008296D00082D6D0008C0
:1000D000316D00082164000855640008356D000882
:1000E000396D00083D6D0008416D0008456D000840
:1000F000496D00084D6D0008516D0008556D0008F0
:10010000596D00085D6D0008616D0008656D00089F
:10011000696D00086D6D0008716D0008756D00084F
:10012000796D00087D6D0008816D0008856D0008FF
:100130004FF4E07210440268914203D343681A44BA
:10014000914202D380680028F5D17047DFF85C0740
:10015000016891B94FF4803181604FF48051416062
:100160004FF0FF31C16001610421DFF84427416194
:10017000C2F8BC11DFF83C1701600120704701F1A3
:10018000080313F0070305D001F10803C3F10803C6
:1001900003F007031944D21A8161C26042F00103DF
:1001A0004B60114428234B60DFF800170969C161D7
:1001B00070472DE9F84F064601F1080010F00700DE
:1001C00008BF884607D001F10800C0F1080000F020
:1001D000070001EB000802F1080010F0070006D04C
:1001E00002F10800C0F1080000F0070002441546C3
:1001F000A5EB0800A0EB030908EB030B43F0030099
:10020000C8F80400AB4528BF01F00CFA2879C007F4
:1002100058BF01F007FAB9F1100F38BF01F002FA28
:10022000B069854209D1F0684844F060C6F818B05A
:1002300040F00100CBF8040070E1706985420BD1F9
:10024000B0684844B060C6F814B040F00101CBF883
:1002500004104BF8000061E1686800F00301012917
:1002600040F0AF80C008C0000190C00820283BD2F9
:10027000D5F808A0EF680090BD4208BF01F0D2F9A0
:10028000554508BF01F0CEF968680099C008C00064
:10029000B0EBC10F18BF01F0C5F9009806EBC00024
:1002A00000F128018A4508D031698A45C0F0848070
:1002B000DAF80C10A94240F07F80574506D1009A29
:1002C0003068012191408843306077E028308742D0
:1002D00005D0306987426FD3B868A8426CD1CAF89C
:1002E0000C70C7F808A069E0EF68D5F818A0AF4215
:1002F0000CD0A8683169884223D3C168A94204BFE1
:10030000B968A9421DD1C760B8601CE005F11400AE
:10031000076837B905F110000768A7B101E0084682
:10032000076807F114010A68002A02BF07F11001EB
:100330000A68002AF3D13169884202D300210160A2
:1003400001E001F06FF9BAF1000F37D0E86906EB70
:1003500080004FF49871084401688D4208D107600D
:10036000A7B9EA697068012191408843706025E06F
:100370003069824508D3DAF81000A84214BFCAF8E1
:100380001470CAF8107001E001F04CF9B7B130698F
:10039000874211D3C7F818A0296929B1814226BF25
:1003A00039618F6101F03EF9686938B1316988427D
:1003B00002D37861876101E001F034F901980544C6
:1003C000814468684008400068604FEAD90549F0F8
:1003D0000100CBF804004BF80990202D23D206EB46
:1003E000C50000F12807BA46B9F1100F38BF01F077
:1003F00019F9306820FA05F1C90704D40121A94090
:100400000843306006E0B868316988422CBF8246F4
:1004100001F008F9C7F808B0CAF80CB0CBF808A08A
:10042000CBF80C707AE05FEA192108BF002023D0D6
:10043000B1F5803F28BF1F201ED2A1F58070000CAF
:1004400000F008008140A1F58052120C02F0040275
:100450009140A1F580431B0CC0F10E0003F0020394
:10046000801AC01A994000EBD130C11D29FA01F25F
:1004700002F0010101EB400006EB80014FF498729D
:100480001144CBF81C000022CBF81420CBF810202C
:10049000726822FA00F3DB0707D4012303FA00F0A5
:1004A00010437060C1F800B01DE009681F281DBF2F
:1004B0004008C0F1190009FA00F0484600E0114672
:1004C0004A68D208D2004A4514D0C20F01EB82021A
:1004D00002F1100340001A68002AF0D1306983420B
:1004E0001AD3C3F800B0CBF81810CBF80CB0CBF887
:1004F00008B013E032698868914228BF90420BD35C
:10050000C0F80CB0C1F808B0CBF80800CBF80C105C
:100510000020CBF8180001E001F084F808F1080091
:10052000BDE8E68F2DE9FA4D0546DFF88003006847
:1005300082B008B9FFF70AFEDFF8700302998068FD
:1005400041182F31401E21EA00000299814280F0BB
:10055000A9814FF4D8716E18B16839B1326880182A
:10056000824280F09F818142C0F09C8101F062F85C
:1005700000281EBF0446D0F8008014F1010F00F0DF
:1005800091813068716840448142306038BF0146D3
:100590007160A86980BB286908B1844200D22C61CF
:1005A0000020F0613461C6F8148005F12801BF48CD
:1005B000006868624FF0FF3028620020C9608960DF
:1005C00001F108024A610A61801C10312028F5D32C
:1005D000B748854203D1A8F1280221462AE055F800
:1005E000040CC00805EBC000A0F1080104EB0800F2
:1005F000401AA0F128021DE04FF4E07029180846C7
:1006000000E08068D0B1026843681A449442F8D18F
:10061000027B120712D4AA6903689A420ED3476874
:100620003B449A420AD208EB07014160E868A96995
:1006300008EB00022846FFF7A2FD1DE1286984426D
:10064000084638BF2C6104EB080100E0806880B1E7
:1006500002688A42FAD1017B09070AD40460416822
:10066000414441602146029B284604B0BDE8F04D5C
:100670009FE5AF6939462846FFF75AFD4FF0000B5A
:100680000168406808440190273810F0070101997B
:100690000EBF0020C0F1080000F0070008442F380A
:1006A00007F11001884234BF00970090009804F1D0
:1006B000080100F1180A11F00701A8F1280005D07F
:1006C00004F10801C1F1080101F00701401A2144B9
:1006D000A961E86040F001024A60084428224260B3
:1006E00072480069E8610098083010F0070018BFF0
:1006F00000F098FF00991B2048604FF4E0712944F6
:10070000B1E80C5000980830A0E80C503461C6F8ED
:100710001480C6F81CB000980830B061019801E060
:100720000AF1040A0721CAF804100BF1010B0AF1BF
:1007300008018142F4D3BBF1020FB8BF00F072FF91
:100740000098B84200F09880C01B3918C4084A6865
:10075000520852004A6040F0010179603850202C64
:1007600020D205EBC40101F12806B046102838BF9D
:1007700000F058FF286820FA04F1C90704D40121C9
:10078000A1400843286006E0B068296988422CBF70
:10079000804600F047FFB760C8F80C70C7F80880C3
:1007A000FE6069E0010A23D0B1F5803F28BF1F2118
:1007B0001ED2A1F58072120C02F008029140A1F540
:1007C00080531B0C03F004039940A1F58044240CD2
:1007D000C2F10E0204F00204D21A121BA14002EB75
:1007E000D131CA1D20FA02F303F0010202EB4101EC
:1007F00005EB81024FF498731A44F96100237B6181
:100800003B616B6823FA01F4E40705D401208840BA
:100810001843686017601CE012681F291DBF490853
:10082000C1F1190100FA01F1014600E01A465368CE
:10083000DB08DB00834210D0CB0F02EB830303F114
:10084000100449002368002BF0D12869844211D399
:100850002760BA61FF60BF600EE0296990688A4234
:1008600028BF884206D3C7609760B860FA6000204E
:10087000B86101E000F0D6FEE8680299814211D229
:10088000401AE860A969029A0A44AA6140F001008E
:100890005060029840F00300486004B001F1080085
:1008A000BDE8F08D002004B0BDE8F08D34150020C7
:1008B000780F00206859883C2DE9F84F044600263F
:1008C00089465FEA1920C9F1000B08BF002123D037
:1008D000B0F5803F28BF1F211ED2A0F58071090C02
:1008E00001F008018840A0F58052120C02F00402C9
:1008F0009040A0F580431B0CC1F10E0103F00203F0
:10090000891AC91A984001EBD030C11D29FA01F2A9
:1009100002F0010101EB400104EB8100D0F830014D
:1009200018B31F290FBF4A464A08C2F1190209FA33
:1009300002F2002300E052004568ED08ED00A5EB4F
:1009400009055D4503D25FEA050B06460BD04569F4
:10095000D70F00EB8700002D00691CBF85422B4696
:100960000028E8D11846B8BBC6BB0120884040002B
:10097000414208436168084000F05D8141420840FF
:10098000401E010B01F01001C840420902F00802AC
:10099000D040830803F00403D840450805F0020561
:1009A0005118E8405918C0F3400729443944F84029
:1009B000401804EB8000D0F830010DE00846416893
:1009C000C908C900A1EB090159453CBF8B46064641
:1009D00001690029F2D140690028F0D1002E00F011
:1009E0002A81A068A0EB0900834580F0248120695A
:1009F0008642C0F01E817068C00809EB0B08C00079
:100A0000404518BF00F00EFE06EB0905AE4280F02F
:100A10001081F768D6F818A0B7420CD0B0682169E9
:100A2000884223D3C168B14204BFB968B1421DD125
:100A3000C760B8601CE006F11400076837B906F11A
:100A400010000768A7B101E00846076807F1140124
:100A50000A68002A02BF07F110010A68002AF3D1D0
:100A60002169884202D30021016001E000F0DAFD33
:100A7000BAF1000F39D0F06904EB80004FF498719F
:100A8000084401688E4209D10760380014D1F26928
:100A90006068012191408843606026E020698245BA
:100AA00008D3DAF81000B04214BFCAF81470CAF8BC
:100AB000107001E000F0B6FDBFB12069874212D38B
:100AC000C7F818A0306930B12169884226BF386163
:100AD000876100F0A7FD706938B12169884202D3AF
:100AE0007861876101E000F09DFDBBF1100F09D234
:100AF00048F00300706006EB0800416841F0010116
:100B0000416095E049F0030070604BF001006860BF
:100B10004FEADB0045F80BB020281DD204EBC001E2
:100B200001F12807216821FA00F2D207BB4605D45B
:100B3000012202FA00F00843206006E0B86821694B
:100B400088422CBF834600F06DFDBD60CBF80C5091
:100B5000C5F808B0EF606BE05FEA1B2023D0B0F56A
:100B6000803F28BF1F201ED2A0F58071090C01F024
:100B700008018840A0F58052120C02F00402904057
:100B8000A0F580431B0CC1F10E0103F00203891A8A
:100B9000C91A984001EBD030C11D2BFA01F202F0C6
:100BA000010101EB400004EB80014FF49872114405
:100BB000E86100226A612A61626822FA00F3DB07B9
:100BC00006D4012303FA00F0104360600D601CE0BE
:100BD00009681F281DBF4008C0F119000BFA00F07A
:100BE000584600E011464A68D208D2005A4510D053
:100BF000C20F01EB820202F1100340001A68002AC2
:100C0000F0D12069834211D31D60A961ED60AD6010
:100C10000EE022698868914228BF904206D3C560E1
:100C20008D60A860E9600020A86101E000F0FAFC96
:100C300008E100F0F7FC02E12DE9F84F0446884690
:100C4000606841420840401E010B01F01001C8409D
:100C5000420902F00802D040830803F00403D840A0
:100C6000450805F002055118E8405918C0F3400640
:100C700029447118F040401804EB8000D0F830018E
:100C80004168C908C9000646A1EB080A09E0084600
:100C90004168C908C900A1EB080151453CBF8A461B
:100CA000064601690029F2D140690028F0D1206987
:100CB0008642C0F0C2807068C00808EB0A09C00014
:100CC000484518BF00F0AEFC06EB080B5E4580F00F
:100CD000B480F768B569B7420CD0B0682169884222
:100CE00023D3C168B14204BFB968B1421DD1C76006
:100CF000B8601CE006F11400076837B906F110006F
:100D00000768A7B101E00846076807F114010A68FF
:100D1000002A02BF07F110010A68002AF3D12169F5
:100D2000884202D30021016001E000F07BFC002D2D
:100D300035D0F06904EB80004FF4987108440168E5
:100D40008E4209D10760380011D1F2696068012133
:100D500091408843606022E02069854205D328697C
:100D6000B04214BF6F612F6101E000F05BFCB7B1CE
:100D70002069874211D3BD61306930B12169884251
:100D800026BF3861876100F04DFC706938B1216978
:100D9000884202D37861876101E000F043FCBAF138
:100DA000100F09D249F00300706006EB090041689A
:100DB00041F0010141603FE048F0030070604AF0FB
:100DC0000100CBF804004BF80AA0D4F808804FEAE1
:100DD000D805202D28BF00F025FCB8F1000F27D042
:100DE000D4F81490009504EBC50000F128052F46B7
:100DF000B8F1100F38BF00F015FC2068009920FAF8
:100E000001F2D10705D4009A0121914008432060E6
:100E100006E0A868216988422CBF074600F002FC62
:100E2000C5F80890C7F80C90C9F80870C9F80C50BC
:100E3000C4F808A0C4F814B004E000F0F3FB0020EC
:100E4000BDE8F28F06F10800BDE8F28F2DE9F04F02
:100E500083B00546C046C046F52DDFF8C04780F098
:100E600002810B2D31BF102705F10B00C708FF00D1
:100E70002068FE08F04010F0030F42D0C04300F09D
:100E80000100861904EBC60000F12808F700D8F825
:100E900008506868C008C000B84218BF00F0C2FB24
:100EA000D5F80890454508BF00F0BCFB4D4508BF8C
:100EB00000F0B8FB6868C008C000B84218BF00F076
:100EC000B1FBC84505D120680121B14088432060AD
:100ED0000DE02069814508D3D9F80C00A84204D15F
:100EE000C8F80890C9F80C8001E000F09BFB47F0BF
:100EF00003006860E8190835416841F0010141606C
:100F0000F9E0A168B94280F0C080002800F0A2801A
:100F1000012505FA06F149004A42B0401143084054
:100F200041420840401E010B01F01001C840420937
:100F300002F00802D040830803F00403D8404608BA
:100F400006F002065118F0405918C0F34008711815
:100F5000414420FA08F000EB010804EBC80000F15E
:100F600028094FEAC80AD9F808607068C008C000AC
:100F7000504518BF00F056FBD6F808B04E4508BFE4
:100F800000F050FB5E4508BF00F04CFB7068C008E5
:100F9000C000504518BF00F045FBD94505D1206879
:100FA00005FA08F1884320600DE02069834508D3E5
:100FB000DBF80C00B04204D1C9F808B0CBF80C90B3
:100FC00001E000F02FFB47F003007060AAEB070878
:100FD000F019019048F0010001994860019840F82B
:100FE0000880A7684FEAD70ABAF1200F28BF00F09F
:100FF00019FB47B3CDF800A004EBCA00D4F8149055
:1010000000F1280AD346102F38BF00F00BFB2068F0
:10101000009920FA01F2D10705D4009905FA01F1EF
:101020000843206007E0DAF80800216988422CBFF5
:10103000834600F0F7FACAF80890CBF80C90C9F88C
:1010400008B0C9F80CA0C4F8088006F1080501989A
:10105000606150E06068C0B339462046FFF7ECFDA0
:10106000050012D047E015F1400F28BF4FF0FF37C1
:101070000BD205F10B00C7086068FF0028B13946A4
:101080002046FFF719FC050035D1A068B8421CD3F3
:10109000C11B626910290AD3D0196061A16041F0B7
:1010A00001034360415047F0030050600AE0002113
:1010B000A160616140F0030151601044416841F05A
:1010C0000101416002F1080515E0E06887420DD298
:1010D000C01BA169E060CA19A26140F00100506024
:1010E00001F1080547F00300486004E03946204656
:1010F000FFF718FA0546C046C046284603B0BDE8CB
:10110000F08F00B970472DE9F047A0F10804C04600
:10111000C046DFF8085528698442C0F079826168CA
:1011200001F00302012A00F07382CA084FEAC208E4
:10113000CA0704EB080937D4226811F0030F00F046
:10114000698251420C4484429044C0F061826969D2
:101150008C4200F0D980D608202E70D2D4F80CA092
:10116000A768544508BF00F05DFABC4208BF00F014
:1011700059FA6068C008C000B0EBC60F18BF00F095
:1011800051FA05EBC60000F128018F4205D029690C
:101190008F4251D3F968A1424ED1BA453DD128685A
:1011A0000121B140884328604C4580F03182D9F854
:1011B0000400C10740F12C82810700F17D81A969FB
:1011C000894540F0B680E868AC614044E86040F092
:1011D0000101616069698C4202D100216961A960E5
:1011E000E969814280F01682DFF83404006808B9AA
:1011F000FEF7ACFFA969002900F00C82E8682928F5
:1012000024BF2846FEF794FFE869E968884280F029
:1012100001824FF0FF30E861FCE12830824506D0C2
:101220002869824508D3DAF80800A04204D1C7F83B
:101230000CA0CAF80870B7E700F0F4F9B4E7E76863
:10124000A669A7420BD0A168814222D3C868A042F8
:1012500004BFB868A0421CD1CF60B9601BE004F1A4
:1012600014010F6837B904F110010F689FB101E054
:1012700011460F6807F114021368002B02BF07F133
:1012800010021368002BF3D1814202D300200860C2
:1012900001E000F0C7F9002E86D0E06905EB800080
:1012A0004FF49871084401688C4209D107603800F6
:1012B00011D1E2696868012191408843686073E751
:1012C0002869864205D33069A04214BF776137612F
:1012D00001E000F0A7F9002F3FF466AF28698742CC
:1012E000AAD3BE61216929B1814226BF39618F61CC
:1012F00000F098F9606900283FF456AF29698842E8
:101300009AD3786187614FE799F8040000F00300F1
:1013100003287FF449AFC5F80880D9F804004008D5
:101320004000C9F8040048F00100606044F80880FB
:1013300070E16969894508D1A8686C614044A8607A
:1013400040F001016160205064E1C008C0004FEA34
:10135000D00ABAF1200F804437D2D9F80C70D9F8EE
:101360000860B94508BF00F05DF9B14508BF00F05D
:1013700059F9D9F80400C008C000B0EBCA0F18BF73
:1013800000F050F905EBCA0000F128018E4207D0A9
:1013900029698E42C0F08380F168494540F07F8022
:1013A000B74206D12868012101FA0AF18843286072
:1013B00077E02830874205D0286987426FD3B86824
:1013C00048456CD1F760BE606BE0D9F80C70D9F875
:1013D00018604F450DD0D9F808002969884223D3F9
:1013E000C168494504BFB96849451DD1C760B860A7
:1013F0001CE009F11400076837B909F1100007680B
:10140000A7B101E00846076807F114010A68002A3D
:1014100002BF07F110010A68002AF3D12969884246
:1014200002D30021016001E000F0FCF8002E38D06A
:10143000D9F81C0005EB80004FF49871084401684E
:1014400089450AD10760380012D1D9F81C20686894
:10145000012191408843686023E02869864205D3D2
:101460003069484514BF7761376101E000F0DAF870
:10147000BFB12869874212D3BE61D9F8101029B1D3
:10148000814226BF39618F6100F0CCF8D9F8140091
:1014900038B12969884202D37861876101E000F0A0
:1014A000C1F848F00100606044F80880686984422F
:1014B0000BD1C5F80880ADE040084000C9F8040031
:1014C00048F00100606044F808804FEAD807202FF8
:1014D00022D205EBC70000F128094E46B8F1100FE3
:1014E00038BF00F09FF8286820FA07F1C90704D434
:1014F0000121B9400843286007E0D9F808002969AC
:1015000088422CBF064600F08DF8C9F80840F46008
:10151000A660C4F80C907DE05FEA182008BF0021A7
:1015200023D0B0F5803F28BF1F211ED2A0F58071C7
:10153000090C01F008018840A0F58052120C02F05D
:1015400004029040A0F580431B0CC1F10E0103F092
:101550000203891AC91A984001EBD030C11D28FA3C
:1015600001F202F0010101EB400105EB81004FF4B3
:1015700098721044002262612261E1616A6822FA75
:1015800001F3DB0706D4012303FA01F1114369607B
:1015900004601CE000681F291DBF4908C1F1190142
:1015A00008FA01F1414600E010464268D208D20034
:1015B000424510D0CA0F00EB820202F1100349002D
:1015C0001A68002AF0D129698B4211D31C60A061EE
:1015D000E460A4600EE02A698168904228BF9142CD
:1015E00006D3CC608460E060A1600020A06101E0CF
:1015F00000F018F8286A401E28620BD1D5F8C801FF
:1016000000E080680028FCD14FF0FF30286201E044
:1016100000F008F8C046C046BDE8F087780F00200B
:1016200034150020012000F01BB80268531C036031
:10163000117070470749086808B1002070470648D4
:10164000C008C00008600549C908C900091A01603E
:10165000704700BFA81500204F0600204808002052
:1016600080B500F007F8024A11001820ABBEFBE776
:101670002600020080B500F033F802000023DB43AF
:101680001068984204D011000220ABBE0020106008
:101690005068984204D0111D0220ABBE002050605B
:1016A00001BD000010B584B0040000F019F8A100DD
:1016B000421810680021C94388420DD107A000904C
:1016C000002C01D1002000E00420019003200290B2
:1016D00069460120ABBE106004B010BD3A747400BE
:1016E00000487047400100202DE9F04F82460FF27C
:1016F0004860A5B015461E46D0E90023CDE9122367
:10170000002004910D900DF150086FF0004900E0A9
:101710003D440020ADF8020012AB4FF0FF322946E5
:101720000DF1020001F0A5F80746012F04DA287830
:10173000471EBF41FF43FF0FBDF8020025280CBF25
:10174000A7F1010BBB46BBF1010F0EDB2C4614F8D1
:10175000011B0498D0470028049000F0F3800D98F6
:10176000401CBBF1010B0D90F1D1BDF80200252802
:1017700007D100200790089009900A900B900C90D8
:1017800005E00028C4D10D98DEE240F0010015F814
:10179000011F2029F9D023290DD02B2904D02D2970
:1017A00006D030290AD00CE040F0020080B2EEE70B
:1017B00040F00400FAE740F00800F7E740F01000BE
:1017C000F4E72A290ED13168316051F8042B3160D9
:1017D000002A0F9204D5514240F004000F9180B2CC
:1017E0006D1C11E000210F9109E00F99494505D0CA
:1017F00001EB810302EB430130390F916D1C2A7814
:10180000A2F130010A29F0D329782E2903D04FF014
:10181000FF310E911DE015F8011F2A2907D131680B
:1018200031606D1C51F8042B31600E9211E00021E3
:101830000E9109E00E99494505D001EB810302EBB9
:10184000430130390E916D1C2A78A2F130010A292A
:10185000F0D3ADF840000FF2E840297801F01AF813
:1018600008B115F8010B8DF842009DF84200682878
:1018700002BF29786829622005D06C2804BF287827
:101880006C2803D171208DF842006D1C14A80690BD
:1018900015F8017BB7F125002AD01C3800F0DB8059
:1018A000001F022840F2D780133800F0FC8009386E
:1018B00000F0D180801E00F06781401E00F03D8165
:1018C000401E022840F2C780001F00F03681401FF2
:1018D00000F09280401E00F0E680401E35D0C01E11
:1018E0000BD0801E00F0DF80C01E00F0DC806EE1B7
:1018F00025208DF85000012073E19DF842006C28EE
:101900003068306014D050F8044B306005940E9F5E
:10191000002F04D5204600F0C9FF074606E03A46EE
:101920000021204600F0DEFF00B1071B089759E1B7
:1019300050F8042B306002A9504600F03FFA00280E
:1019400040F150814FF0FF30FEE1316831600022FC
:1019500051F8040B31600021CDE9020114A8059073
:10196000DDE902019142069F08BF90424FF03C0C16
:1019700001D10E9AC2B100F00F033033DBB23A2B23
:10198000A8BF2733ACF101020009BB54944640EADA
:10199000017009090022914208BF904204D0059AC3
:1019A00007EB0C039A42E6D307EB0C000590CCF151
:1019B0003C010E980891814209DA401A0A904FF6CC
:1019C000EF71BDF840000840ADF840000AE1002882
:1019D00040F108819DF8400000F01400102840F00C
:1019E00001810F98079A801A0A9A801A401A0128D2
:1019F000C0F2F8800A90F5E09DF8420062281AD003
:101A0000682806D06A280CD06C281CD0712808D011
:101A100019E03068306050F8041B30600D98088081
:101A2000E0E03068306050F8042B30600D98C1174A
:101A3000C2E90001D6E03068306050F8041B306025
:101A40000D980870CEE03068306050F8041B3060AC
:101A50000D980860C6E03068C01D20F007023260B3
:101A6000D2E9000108323260CDE90201002902D535
:101A700007982D210AE0BDF84000810702D507989C
:101A80002B2103E0C00705D50798202108F8001096
:101A9000401C079014A8079908440590394602A8ED
:101AA00000F098FB9EE09DF842006C280DD0712854
:101AB00018BF6A2809D13068C01D20F007023260C3
:101AC000D2E900010832326005E03168316051F836
:101AD000040B31600021CDE902019DF84200682825
:101AE00003D1DDE9020180B20BE0622803D1DDE918
:101AF0000201C0B205E0742818BF7A2804D1DDE9DC
:101B000002010021CDE902019DF84000000732D515
:101B1000DDE902230020834208BF82422BD047F038
:101B20002000782827D10798302108F80010401CA1
:101B3000411C079108F800701DE09DF842003146F5
:101B400000F005F9CDE90201DDE9022300218B4215
:101B500002DA07982D210AE0BDF84000810702D57E
:101B600007982B2103E0C00705D50798202108F826
:101B70000010401C079014A80799084405903946A6
:101B800002A800F0A1FA2DE09DF842006C2809D0CF
:101B9000012007903068306050F8041B30608DF8E9
:101BA00050101FE03068306001AA50F8041B30600C
:101BB000ADF804100020ADF8060002A94FF0FF3088
:101BC0000E90504600F0FAF800280BD5BAE6252012
:101BD0008DF8500001200790380003D088F801707C
:101BE000022007900F980799401A0A99401A0899FD
:101BF000401A0B99401A0999401A0C99471A9DF8F6
:101C00004000400710D42020012F8DF800000BDB8E
:101C10003C4601236A4602A9504600F005FE002812
:101C20007FF490AE641EF4D1DDF81CB0BBF1000F60
:101C300014AC0DD014F8011B0498D0470028049070
:101C40003FF480AE0D98401CBBF1010B0D90F1D11B
:101C500030208DF800000A9C012C0ADB01236A4623
:101C600002A9504600F0E0FD00287FF46BAE641E30
:101C7000F4D1DDF820B0059CBBF1000F0DD014F8B5
:101C8000011B0498D047002804903FF45BAE0D98E8
:101C9000401CBBF1010B0D90F1D130208DF80000FC
:101CA0000B9C012C0ADB01236A4602A9504600F076
:101CB000BBFD00287FF446AE641EF4D10598089958
:101CC000DDF824B04418BBF1000F0DD014F8011B4F
:101CD0000498D047002804903FF434AE0D98401C7F
:101CE000BBF1010B0D90F1D130208DF800000C9C60
:101CF000012C0ADB01236A4602A9504600F094FD3C
:101D000000287FF41FAE641EF4D19DF84000400708
:101D10007FF5FFAC2020012F8DF80000FFF6F9AC15
:101D200001236A4602A9504600F07EFD00287FF498
:101D300009AE7F1EF4D1ECE40000000000000000BA
:101D4000686A6C747A4C000025B0BDE8F08F622898
:101D500026D068281DD06A2808D06C2827D0712882
:101D600004D0742823D07A280CD020E00868C01D45
:101D700020F007000860D0E9002308300860194609
:101D8000104670470A680A6052F8040B0A60002186
:101D900070470A680A6052F8040B0A6000B20BE050
:101DA0000A680A6052F8040B0A6040B204E00A684C
:101DB0000A6052F8040B0A60C11770472DE9F44F0E
:101DC0000D4694B0D5F830A0BAF1000F804648BF58
:101DD0006FF0004A00F0B2FD696B401801900FF6F9
:101DE0007820D0E90023CDE9022395F83800400798
:101DF00002D40198412805D240200DF1100901902C
:101E0000002609E0FFF722F85FEA0009F8D14FF059
:101E1000FF3056E1AAEB040ABAF1010FC0F2CE80FE
:101E20001498018802AA0DF1010000F08CFD002831
:101E3000044600F1DE801498008810B9641E00F199
:101E4000D880A245C0F2BA806869019922189142EF
:101E500080F0A2806E634042296A401AA969401A44
:101E6000696A401AE969401AA96A461A95F8380061
:101E7000400710D42020012E8DF800000BDB3746E0
:101E800001236A462946404600F0CEFC002840F077
:101E9000B0807F1EF4D1D5F814B0BBF1000F4F46CF
:101EA0000DD017F8011BA868C0470028A86000F0F3
:101EB000A080E86A401CBBF1010BE862F1D1302040
:101EC0008DF800002F6A012F0ADB01236A4629469C
:101ED000404600F0A9FC002840F08B807F1EF4D122
:101EE000D5F818B0EF68BBF1000F0CD017F8011B44
:101EF000A868C0470028A8607BD0E86A401CBBF1F6
:101F0000010BE862F2D130208DF800006F6A012FDA
:101F100009DB01236A462946404600F085FC00287B
:101F200067D17F1EF5D1E868A969D5F81CB04718BC
:101F3000BBF1000F0CD017F8011BA868C0470028A0
:101F4000A86056D0E86A401CBBF1010BE862F2D1F0
:101F500030208DF80000AF6A012F09DB01236A46AB
:101F60002946404600F060FC002842D17F1EF5D192
:101F700095F8380040070DD52020012E8DF800007F
:101F800008DB01236A462946404600F04DFC80BB31
:101F9000761EF6D100266E61224668690DF10101B8
:101FA000484400F0DDFC6869201868611498801CC2
:101FB0001490801E008800287FF42CAF686B69693C
:101FC000401A296A401AA969401A696A401AE969DF
:101FD000401AA96AA0EB010A95F83800400710D40E
:101FE000BAF1010F0DDB5446A8682021C047A86054
:101FF00010B94FF0FF365DE0E86A401C641EE862ED
:10200000F2D16B694A462946404600F00DFC002893
:10201000EFD12C6A012C0ADBA8683021C0470028C8
:10202000A860E6D0E86A401C641EE862F4D1AB699F
:10203000EA682946404600F0F7FB0028D9D16C6ACF
:10204000012C0ADBA8683021C0470028A860D0D046
:10205000E86A401C641EE862F4D1E868A969EB698B
:1020600042182946404600F0DFFB0028C1D1AC6A87
:10207000012C0ADBA8683021C0470028A860B8D02E
:10208000E86A401C641EE862F4D195F83800400705
:102090000ED5BAF1010F0BDBA8682021C04700283C
:1020A000A860A6D0E86A401CBAF1010AE862F3D140
:1020B0006E616E6304A881451CBF4846FFF721F896
:1020C000304615B0BDE8F08F2DE9F34305460846CC
:1020D0002F696F2808BF082405D041F02001782916
:1020E00014BF0A2410243C26D5E90023642818BF15
:1020F00069289046994606D100218B4203DAD8F12F
:10210000000869EB49090020814508BF80450CD1D2
:10211000286B50B9082C38D195F83800000734D511
:1021200030203B2687F83B002FE0701E00900646CB
:10213000404649462246E31700F04EFC02F13000CB
:10214000C0B23A2803DB9DF8041051390818B8557D
:10215000494640462246E31700F03EFC8046894649
:102160000020814508BF804503D0E868B91988423E
:10217000DBD3082C09D195F83800000705D5B85DE8
:10218000302802D0761E3020B855B919E960C6F162
:102190003C00296BA861884208DA081A28624FF6C9
:1021A000EF71288F08402887BDE8F38300290ED5FA
:1021B00095F8381001F01401102908D1696B6A698B
:1021C000891A2A6A891A0E1A012EA8BF2E62BDE842
:1021D000F38300002DE9F24F04468EB0D4E90001EC
:1021E000CDE9020104AF9DF8380040F0200BBBF1AF
:1021F000610F0AD0206B002848BF062004D408BF16
:10220000BBF1670F01D1012020636168C1F30A505F
:1022100040F2FF7290421CD1080304BF20680028DE
:1022200009D10320A0619DF8380061381A2835D300
:102230000FF2386108E00320A0619DF83800613892
:102240001A2828D30FF21C61E068032200F088FBF3
:10225000BDE1012815DA204600F035FC012810DB2D
:1022600000250020BBF1610F1FD1E16830220A7008
:102270008A1CE2609DF83820612A0CBF782258221F
:102280000FE0626840F2FE3161F31E52451A62604F
:102290004FF0FF30E6E70FF2C851D5E70FF2C85113
:1022A000D2E74A706169891C616110B90026002576
:1022B00084E1BBF1610F40F09880206BD4E900AB62
:1022C00000284CBF2126461CDDE902010022002324
:1022D00000F01CFC36B23ABF8BF00040CDE902A002
:1022E000CDE902AB06F101082D1FB8F1010F8DF801
:1022F00010200DF1110736DBDDE902010022002379
:1023000000F01CFC2FD21C2102A800F02FFCDDE9FC
:10231000020100F0B1FCA8F10708B8F1010F8146F5
:1023200009DB00F0D5FC02460B46DDE9020100F0B6
:10233000E7FCCDE90201F81D072105E009F00F02D5
:1023400000F8012D4FEA2919B9F1010F01DB491EEF
:10235000F4D5491E5CBF002200F8012DF9D5C71D38
:10236000B8F1010FC8DA0DF11100391AB142B8BF46
:102370000E4636B230000DF111072FD4884206DA2E
:1023800004A9014449780829A8BF0F2100DA0021D7
:1023900004AA024400E0761E12F80139401E8B4266
:1023A000F9D00F2904D104A901444A78521C4A707B
:1023B000002802D504AF761C2D1D36B2701E0DD438
:1023C00039180A783032D2B23A2A03DB9DF8383015
:1023D0003A3B9A18401E01F80129F2D5206B0028DB
:1023E00040F1EC80701E2063E8E0DDE9020100228C
:1023F000002300F08BFB3CBF81F00041CDE90201DE
:102400002DB247F2975068434B49DFF8309190FB6B
:10241000F1F52DB2C5F1070ABAF1010F90461CDBA8
:10242000DDE902675FEACA7007D542464B4630468F
:10243000394600F025FD06460F46404649464246CD
:102440004B464FEA6A0A00F01BFDBAF1000F8046C6
:102450008946E7D1CDE9026724E0CAF1000A0026E7
:10246000374F14E05FEACA7007D542464B46304604
:10247000394600F005FD06460F46404649464246AD
:102480004B4600F0FDFC4FEA6A0A80468946BAF1E5
:10249000000FE7D1DDE9020132463B4600F0C2FD04
:1024A000CDE90201BBF1660F216BDFF898900CBFFC
:1024B00005F10A0006204618142EA8BF1326302066
:1024C0008DF810000DF11107012E3DDBDDE9020151
:1024D00000F0E8FB07F1080104220A23B0FBF3F344
:1024E00003EB8307A0EB4700303001F8010C0A2012
:1024F000B3FBF0F000EB8007A3EB47033033521E31
:1025000001F8023DE9D1083E012E01F10807DBDBAD
:10251000DDE9020100F0C6FB00F0E4FB02460B46D9
:10252000DDE9020100F0ECFB00224B4600F0A8FCC4
:10253000CDE90201CAE700BFA086010000002440E7
:102540000000F03F84D797410DF11100381A0DF1CA
:10255000110702E0401E6D1E7F1C39783029F9D02A
:10256000BBF1660F08BF691C04D0BBF1650F0CBF3F
:1025700001210021226B8E1836B2B042B8BF064648
:1025800036B231001AD4814204DA785C3528A8BF0B
:10259000392000DA30207A18521E00E0761E12F838
:1025A0000139491E8342F9D0392802D1785C401C98
:1025B0007854002902D57F1E761C6D1C2DB29DF823
:1025C0003810009533B23A46204600F003F80FB0B9
:1025D000BDE8F08F2DE9F04786B006468A46904662
:1025E0001D4600F068FE012D406A376B90F80090A0
:1025F00002DA01250FF278284AF02000BDF93840B0
:10260000662808BF641C12D0672878D114F1040F23
:102610007BDBBC4279DA96F83800641C000702D4F0
:10262000BD42B8BF2F4624B23F1B48BF002724B28B
:10263000F068B169012C23DA4A1C30234354012F7E
:1026400003DA96F83800000703D5F06800F8029026
:10265000521CE742B8BF7C4224B260427062E71964
:10266000AF42B261B8BF3D46F068B3692DB2F561C3
:102670002A464146184400F073F9781BB062BCE06A
:1026800022469542084416DA2A46414600F068F987
:10269000B1696918601B012FB161706203DA96F8A5
:1026A0003800000705D5F06800F80190F069401C7B
:1026B000F061B762A1E0414600F052F9B06920181C
:1026C0002D1B012F03DA96F83810090703D5F1689E
:1026D00001F80090401CB0612DB2AF42B8BF3D463A
:1026E000F068B3692DB22A4608EB0401184400F0E3
:1026F00037F9B0692818B061781B70627DE0BAF1D3
:10270000610F14D14FF0700A16E0BD4204DA96F85A
:102710003810090758BF2F467F1E48BF0027BAF15F
:10272000670F14BF4FF0450A4FF0650A04E0BAF195
:10273000410F08BF4FF0500AB169F368481CB061FF
:10274000012F18F8012B5A5403DA96F838100907AC
:1027500017D5F168431CB36101F80090012F10DB1D
:102760006D1E2DB2AF42B8BF3D46F0682DB22A466D
:102770004146184400F0F4F8B0692818B061781B9D
:102780007062F068B1690144200081F800A004D4AF
:102790002B20487001F1020804E02D224A7001F15B
:1027A00002086442002502AF08E00A22684600F0F1
:1027B0009BFD019807F8010B6D1C009C21B20129BB
:1027C000F3DA022D06DA4AF02000652804BF302033
:1027D00008F8010B4DB9302008F8010B07E06D1E19
:1027E00002A8405D303008F8010B012DF7DAF068DF
:1027F000B1690844A8EB0000F06196F8380000F0D9
:10280000140010280DD17069B1690818716A081890
:10281000F1690818B16A0818716B8842BCBF081AC0
:10282000306206B0BDE8F087F8B504460D4616469E
:102830001F46002077B116F8011BA868A047A860C2
:1028400030B1E86A401CE86200207F1EF3D1F2BD7F
:102850004FF0FF30F2BD000000000000000000005B
:102860006E616E004E414E00696E6600494E460034
:102870003000F8B504460D4616461F4600F03CFDF4
:102880003B4632462946204601B0BDE8F04000F004
:102890004ABD00000278C9B28A421AB11CBF10F8C2
:1028A000012FF9E718BF00207047000000F1010375
:1028B000810704D010F8011B89B18107FAD10268A1
:1028C000B2F10131914311F0803F04BF50F8042F61
:1028D000F6E710F8011B11B110F8011BFBE7C01A55
:1028E00070470000C9B2830706D0521E22D310F8E9
:1028F000013B9942F7D11FE0083A13D302F10402D9
:1029000041EA012141EA014150F8043B121F21BF75
:102910004B40A3F1013C2CEA030C1CF0803FF3D0A8
:10292000C9B2001F083210F8013B521E28BF91EABD
:10293000030FF8D818BF0120401E704780B500F083
:10294000DBFC012002BD70B504460D46164600F0C2
:10295000D3FC324629462046BDE8704000F0D6BC84
:1029600062B38B0708D0521E11F8013B00F8013BFF
:1029700000F024808B07F6D1830740F0208000BF51
:10298000103A07D330B4B1E83810103AA0E8381044
:10299000F9D230BC530724BFB1E80810A0E80810F2
:1029A00044BF51F8043B40F8043BD20724BF31F840
:1029B000022B20F8022B44BF0B7803707047083AB3
:1029C00007D3B1E80810083A40F8043B40F804CBBC
:1029D000F7D25307E4E700001B4213D1094236D176
:1029E0002AB18446B0FBF2F002FB10C2704700F03F
:1029F000BDBCFCD30022002370470B000200002165
:102A000000207047904271EB030CF6D370B5B1FA19
:102A100081F4B3FA83F52C1BA340C4F1200532FAEC
:102A200005F63343A2405FF00046E64002E05B0853
:102A30005FEA3202841A71EB030524BF204629465F
:102A40007641F4D302000B003000002170BD012A52
:102A5000CFD970B5140C20D0B1FA81F4B2FA82F556
:102A6000C4F120046419B4F12006D6D3B2405FF05B
:102A70000044F440002502E052085FEA3303C61A1E
:102A800071EB020E24BF3046714664416D41F3D3B1
:102A900002000B002000290070BD0C46B1FBF2F1D2
:102AA00002FB11452D0445EA1045B5FBF2F402FB8B
:102AB000145580B240EA0545B5FBF2F002FB105216
:102AC00040EA044070BD30B4436803F00042012185
:102AD000C3F313034360002B04BF0368002B08D12A
:102AE0000DE00368DD0F45EA440444605B000360C9
:102AF000491E4468E302F4D5C4F3130343604368FA
:102B00001A434260084630BC704700004FF4001C76
:102B10001CEB410F94BF1CEB430F09E041EA030C8F
:102B200050EA4C0C52EA0C0C03D2994208BF904276
:102B3000704714BF8B428242704700004FF4001C64
:102B40001CEB410F94BF1CEB430F09E041EA030C5F
:102B500050EA4C0C52EA0C0C03D28B4208BF824262
:102B6000704714BF994290427047000070B5044608
:102B70000D466068C0F30A5040F2FF71884207D1E9
:102B80006068000304BF2068002817D0022070BDD1
:102B900020B92046FFF797FF012866DA012D0FDBE9
:102BA00040F2FF71091A8D420AD36068002847BFBE
:102BB00000202F4900202F49C4E90001012070BDE9
:102BC0004142A942616806DA6FF31E51401941EA99
:102BD0000050606040E0401E63684519012205F125
:102BE000350062F31F53352801F00041636003D3C1
:102BF00061600020206070BD002015F11F0F04DA15
:102C0000206823600022203562606A4212D0401E94
:102C100025688041C2F12003C0439D4045EAD07041
:102C200025686668D54006FA03F32B432360636882
:102C3000D340636062680A43B0F1004F626003D81A
:102C40000DD12078C0070AD52068401C206020687C
:102C500028B96068401C60604FF0FF3070BD60684C
:102C6000884204BF20680028F6D1002070BD00BF54
:102C70000000F0FF0000F07FF446400D40EAC12064
:102C8000490006D200F014F8004248BF6FF000403F
:102C9000604700F00DF84FF0004188428CBF0846B5
:102CA00040426047400D40EAC120490080F00D805D
:102CB00040F00040490DA1F58061491C05D4D1F1D7
:102CC0001F0154BFC840C01770474FF00000704745
:102CD000010040F10980F446404200F005F851F04F
:102CE00000416047010000BF09D0B0FA80F1884080
:102CF000C91CC1F58461090501EBD021400570476D
:102D0000F0B44FF0004591EA030F44BF6B4000F070
:102D10002FBB00BF841A71EB030604D26E40001B68
:102D2000B141121973414FF4001C1CEB410F34BF29
:102D30007CEB430684E00C0DA4EB1356362E7DDCB1
:102D4000012E43DC45EAC32343EA525312BFD202A9
:102D500092025B08240545EAC12141EA5051D2EBB9
:102D6000C020994125D407D1B0FA80F610FA06F1B7
:102D700064D00020203608E0B1FA81F6B140C6F1F7
:102D8000200220FA02F21143B0404FEAF474B4EB8F
:102D9000465434F001064FEA74040AD8D6F50016FA
:102DA000760D04F00044F04061FA06F25040F14024
:102DB0004840C00A40EA415021F0004128BF5FEA84
:102DC000500550F1000044EBD12137E045EAC32320
:102DD000DB0A45EAC121C90AB6F120050EDD42EA47
:102DE0000242120CC5F1200603FA06F6EB4042EA55
:102DF00006056D42984161F100010DE062FA06F5A9
:102E0000F240554063FA06FC82EA0C02F3405A4055
:102E10006D42904161EB030111F4801F05D1641EE6
:102E2000620502D06D004041494121F48011430800
:102E300075F1004350F1000041EB0451F0BC7047C4
:102E40001CEB410F15D223F0004352EA43060BD08E
:102E50004FEA4C0CBCEB410F04D80C0D661E342E0F
:102E6000B7DDEBE7801A994150EA410608BF00211F
:102E7000E4E708BF1CEB430F28BF6FF00001DDE75C
:102E8000B0B581EA030C0CF0004C40F2FF7515EA76
:102E900011541DBF15EA1357AC42AF4239E0E41993
:102EA00023EA455343F48013C90241F0004141EA4B
:102EB000505EC7021100A7FB020200284FF000007D
:102EC000EEFB01204FF00001E3FB072118BF42F0A9
:102ED0000102401800214941E3FB0E01A4F5806482
:102EE0000F0302D252004041494154F101046CDD0C
:102EF000470872F1004250F1000051EB0451A1F576
:102F000080115CBF41EA0C01B0BD4CEA05510020C4
:102F1000B0BD05EA1357AC4214BFAF4241E050EADE
:102F2000410E1CBF52EA430E02E061460020B0BDD4
:102F300024423C441BD15FEA070EF6D0090302BFCE
:102F400001460020AEF1140EB1FA81F7AEEB070492
:102F500001FA07FE0C37C7F1200100FA07F7C84055
:102F60004EEA000E23EA455343F48013A2E733F000
:102F70000043B3FA83F704BFB2FA82FE77440B3FF3
:102F8000E41BB7F1200E2FBF02FA0EF3BB40C7F1CE
:102F9000200E22FA0EFE38BF43EA0E03BA40641C2C
:102FA00082E750EA410E14BF52EA430E6FF000016F
:102FB0004FF4001717EB430F8ABF194617EB410F69
:102FC000B5E74CEA05510020B0BDD4F10104B4F1DD
:102FD00020070FDAC4F12007520828BF42F001028F
:102FE00010FA07F501FA07F7E1BF2A43E04038433A
:102FF000E1400FE0352C98DCC7F1200452EA400292
:1030000020FA07F218BF42F0010231FA07F0A1409E
:103010000A43002172F1004250F1000051EB0C0113
:10302000B0BD00002DE9F04140F2FF7581EA030CCC
:103030000CF0004C15EA11541DBF15EA1357AC42B1
:10304000AF42E9E0BC41C1F31301C3F31303801A9B
:10305000994143F4801304D2641E40004941801812
:103060005941C90241EA5051B1FBF3F603FB161175
:10307000A2FB0675D7EBC020A94102D2761E8018AC
:103080005941C90241EA5051B1FBF3FE03FB1E1145
:10309000A2FB0E75D7EBC020A94103D2AEF1010E01
:1030A00080185941890241EA9051760546EA8E2EF0
:1030B000B1FBF3F603FB1611A2FB0675D7EB8020DC
:1030C000A94102D2761E80185941C90241EA5051E5
:1030D0004EEA060EB1FBF3F603FB1611A2FB0675D2
:1030E000D7EBC020A94102D2761E80185941C902EF
:1030F00041EA5051B1FBF3F703FB1711A2FB07356F
:10310000D3EBC020A94167F100070CBF004247F094
:10311000010766F3D5274FEA1E31B80814F580641D
:1031200014DDBD0775F1004250EB0E5051EB045118
:1031300011F5801F5CBF41EA0C01BDE8F0814CF045
:103140007F6141F0E0410020BDE8F081BD076D08DE
:1031500040EA0E5041F48011D4F10104B4F120068C
:103160000ADAC4F120060200E04001FA06F3E14069
:103170001843B24015430EE0342C14DCC6F1200491
:1031800045EA40056D0820FA06F2154321FA06F0DB
:10319000A1400D43002175F1004250F1000051EBB8
:1031A0000C01BDE8F08100205FEA0C01BDE8F08170
:1031B000CFB992185B41B3FA83F704BFB2FA82F633
:1031C000BF190B3FB7F120062FBF02FA06F3BB4031
:1031D000C7F1200622FA06F638BF3343BA401CB1C5
:1031E000E419641E2FE77F4231F00041B1FA81F407
:1031F00004BFB0FA80F6A4190B3CB4F120062FBF2F
:1032000000FA06F1A140C4F1200620FA06F638BF04
:103210003143A0403C1B16E7AC421ABF05EA1357E6
:10322000AF4214E050EA41061CBF52EA4306BFE732
:1032300050EA4107304661461CBF41EA0551BDE8EE
:10324000F08152EA430C08BFC143BDE8F081002081
:103250004FF4001616EB410F98BF16EB430F08BF53
:1032600016EB410F24BFC14305E016EB430F0CBF23
:1032700061464CEA0551BDE8F081000080B5134875
:1032800000F0E0F80FF24C020FF2440101604262DC
:1032900041600FF24402826381600FF24402C16018
:1032A0000161416181618162C16201634163C26305
:1032B0000164416401BD10B5044800F0C3F8044640
:1032C000206808B9FFF7DAFF204610BDBC010020D6
:1032D000000000002E00000066616C7365000000B5
:1032E000747275650000000091FBF2F303FB12118C
:1032F000C0E900317047000080B5DFF80C0000F035
:10330000A1F8806902BD00005001002030B430B93E
:103310000FF24800D0E90045C2E900451BE001700A
:10332000012030BC704730B431B90FF23800D0E919
:103330000045C3E900450EE01AB930BC6FF001004A
:10334000704708B10A7802800978481E804130BC75
:10335000C043C00F7047002030BC70470000000021
:1033600000000000000000000000000070470000A6
:10337000841A71EB030603D2001BB1411219734189
:103380004FF4001C1CEB410F34BF7CEB430443E0C3
:103390000C0DA4EB1356352E50DC45EAC323DB0A93
:1033A00045EAC121C912B6F120050DDD63FA05F623
:1033B000EB4086EA0305124218BF45F00105C0182C
:1033C00051F100010CD213E062FA06F5F2405540CB
:1033D000F3415A40B340F3405A408018594107D353
:1033E00049085FEA30005FEA350528BF45F001056E
:1033F00001F58011420875F1004250F1000041EBE7
:103400000451F0BC4FF4001C1CEB410F38BF704757
:103410000020090D090570471CEB410F10D252EA3C
:1034200043060BD0BCEB410F05D80C0DAB43661E19
:10343000342EB5DD02E0AB4380185941F0BC704733
:10344000F0BC70477047000010B504003ED0607CAF
:1034500018B92074204600F0DEFA0220607420467D
:1034600000F076F980BB204600F0CDF960BB206803
:103470004168C908C9004160DFF8CC02A16819B1F0
:1034800041684908490041600168A26821F46071FF
:1034900011430160606810F1010F04D1012000F0B8
:1034A000A3FB88B1401E21688A681209120142EA12
:1034B00010428A6080B22168CA68120C40EA024059
:1034C000C86000F03EF918B104206074012010BDFE
:1034D000E07301206073A0736074002010BD2DE9BB
:1034E000F04104000D4618BF002D37D0207C012884
:1034F00008BF022037D0012020743C2602206074CF
:103500004FF46167287832B96978714307FB00107E
:10351000A9780D180AE000F0B0F9804600F00AF929
:10352000704307FB080600F002F9851900F01DF84A
:1035300090B92068416821F005014160204600F003
:1035400048F910F1010F0BD0A84209D2DFF8FC11A5
:10355000091800F0BDF818B100F0EEF8012002E003
:10356000012000F0EAF8BDE8F081294620461EE17E
:103570002DE9F84304000D4618BF002D914645D0B3
:1035800020684068400741D4204600F0FFF8074615
:103590004FF46160B7FBF0F04FF4616101FB107113
:1035A0003C223C23B1FBF2F203FB121118286A7093
:1035B000A9702DD31821B0FBF1F801FB1800287079
:1035C000204600F006F910F1010F03D0874238BF02
:1035D000C61B01D34FF0FF36DFF8700100FB1877F0
:1035E0003946FFF7C3FF88B916F1010F08D0B919A2
:1035F00000F06EF850B94146204600F046F908E068
:103600004FF0FF3100F064F80028F4D0012010E002
:103610002870B9F1000F0BD0287800F023F928703A
:10362000687800F01FF96870A87800F01BF9A8709E
:103630000020BDE8F28370B504000D4618BF002DD0
:1036400040D0207C012801D1022070BD01202074CF
:1036500002206074E87822B9E07368786073A87813
:1036600007E000F00AF9E07300F064F8607300F01E
:103670005EF8A073A27B617BE07B00F05AF92073B7
:103680002870204600F082F805464FF46160B5FBD3
:10369000F0F0192818D318212C4EB0FBF1F006FBDE
:1036A0001055FFF762FF58B9204600F092F810F16C
:1036B000010F09D0A84207D2311800F009F818B15B
:1036C00000F03AF8012070BD012000F036F870BD1E
:1036D000204686E070B506000FF2A82082B00C46A6
:1036E0000068009018BF002C154605D000226946DE
:1036F0003046FFF73DFF08B1012076BD307B2070DA
:10370000F07BE070717B6170B17BA17055B100F00E
:10371000A9F8E070607800F0A5F86070A07800F07B
:10372000A1F8A070002076BD784308FB0606A878B3
:10373000A3E006466878A0E00420607400202074AE
:103740007047204676E000002C6C0040805101005C
:1037500038B5040001D1012032BD00F011F800F0AD
:10376000BDFA054620684068000707D400F0B6FAA5
:10377000401BB0F57A7FF5D9032032BD002032BD61
:103780002068416821F00801416070470068816944
:10379000C269836989B29BB2994204D0C06980B280
:1037A00040EA0340704792B242EA0140704770B568
:1037B00004460D4600F027F8002638B92068290C89
:1037C0008161A9B2C161FFF7BCFF00B1012630469B
:1037D00070BD0068016A406A89B280B240EA014067
:1037E000704770B504460D4600F00DF8002638B954
:1037F0002068290C0162A9B24162FFF7A2FF00B163
:103800000126304670BD38B5044600F067FA05461B
:1038100020684168890607D400F060FA401BB0F5C3
:103820007A7FF5D9032032BD416841F01001416033
:10383000002032BD38B504462068416821F01001EF
:10384000416000F04BFA054620684068800607D4C6
:1038500000F044FA401BB0F57A7FF5D9032032BD61
:10386000002032BD002101E0491C0A38C0B20A28FC
:10387000FAD240EA0110C0B2704701090A2200F0F2
:103880000F0002FB0100C0B27047F8B50446E07BB0
:10389000637BA27B002604E01D2A01D15B1C012270
:1038A000761C8E423CD2012B18BF032B08D0052B6F
:1038B00018BF072B04D0082B1CBF0A2B0C2B07D1D9
:1038C0001F2A2BD30C2BE9D101230122401CE7E74F
:1038D000042B18BF062B03D0092B18BF0B2B02D1CA
:1038E0001E2ADBD21AE0022BDAD11C2A16D3D3D13E
:1038F00003252842D2D187B26425B7FBF5F54FF0F6
:10390000640C0CFB15754DB94FF4C875B7FBF5F594
:103910004FF4C87C0CFB1575002DBFD1521CBFE7BE
:10392000A273E0736373D2B2D9B200F002F82073CD
:10393000F1BD10B517234B430924B3FBF4F300F595
:10394000FA60D2188218032903D2401E00F00CF846
:1039500002E000F009F8801E0721B0FBF1F1C1EB95
:10396000C101401AC0B210BD02EB90016422091DD2
:10397000B0FBF2F2891A4FF4C872B0FBF2F04018B3
:10398000704700000000000080B55648016841F013
:1039900001010160016801F0010100910099416895
:1039A00041F080514160406800F0805000900098E4
:1039B000032000F0A6F9002200216FF00B0000F0B8
:1039C000ADF9002200216FF00A0000F0A7F90022F3
:1039D00000216FF0090000F0A1F9002200216FF032
:1039E000040000F09BF9002200216FF0030000F0BA
:1039F00095F9002200216FF0010000F08FF90022FC
:103A000000214FF0FF3000F089F93748016821F0BC
:103A1000E061016001BD00683449884200D0704710
:103A200080B500F0D1F93248016841F000610160D1
:103A30000068304900F000600090009801200860A4
:103A400001BD30B585B000682B4A264990424FF43D
:103A5000806510D14868294C40F4002048604868CF
:103A600000F40020009001A90098019500F033F8BF
:103A70004FF4006024E0224A224C90420FD10868A3
:103A800040F480400860086800F48040009001A97C
:103A900000984FF4007000F01DF8019511E01A4AEB
:103AA000904215D1486840F400304860486800F4FE
:103AB0000030009001A90098042000F00BF80820C5
:103AC000019000200290039001A9204600F084F9A3
:103AD00005B030BD019002200290032004902046E2
:103AE00000F07AB91810024004000140002800409C
:103AF0001C1002403C044242004C004000100140B7
:103B00000038014000080140004400402DE9F04128
:103B1000044682B02078664DC00750D5A8690026BB
:103B2000C00009D4A86940F08050A8610126A869A6
:103B300000F08050009000985E4F3868C00510D4A7
:103B4000386840F48070386000F0C8F88046386803
:103B5000C00506D400F0C2F8A0EB08006528F6D333
:103B600020E0E86910F440701EBF616801F4407104
:103B7000884219D05049E86901220A6020F4407057
:103B800000220A60E861C0070ED500F0A7F80746DA
:103B9000E869800708D400F0A1F8C01B41F2893120
:103BA0008842F5D303201DE0E869616820F4407085
:103BB0000843E8611EB1A86920F08050A861207810
:103BC000800705D52868A16820F440400843286094
:103BD0002078C00605D52868616920F48000084374
:103BE00028600020BDE8F68130B585B0054601A803
:103BF0000FF2D401314C1022FEF7C2FE0FF2D800B2
:103C00000088ADF800000020012D26D0022D44D000
:103C1000042D18BF082D1DD0102D47D161682268D2
:103C2000D20143D501A8C1F38342C903805C09D501
:103C30006168234AC1F340411DF80110B2FBF1F164
:103C4000484301E01F494843616849022ED44000BF
:103C5000032129E000F0A8FB28E0216A40F20232AB
:103C60000A40B2F5817F08BF4FF400401ED001F436
:103C70004072B2F5007F05D1616A890716D549F611
:103C8000404013E001F44071B1F5407F0ED121684E
:103C900089030BD54FF2244008E000F0B7FB6168C0
:103CA000C1F38131491C4900B0FBF1F005B030BDD2
:103CB00004100240007000404004424200100240E4
:103CC00000127A0000093D000203040506070809F6
:103CD0000A0B0C0D0E0F1010010200000148406885
:103CE000704700BF500000200901002806D52E4A69
:103CF00000F00F00104400F8041C70472B4A1154C8
:103D000070472B490A684FF6FF0300021A4000F47F
:103D1000E0601043274A10430860704738B5244BD1
:103D20001B68C3F30223C3F10704052C28BF042436
:103D30001D1D072D34BF0023DB1E012505FA04F4E9
:103D4000641E2140994005FA03F35B1E1A4011439B
:103D5000BDE83440C8E7012100F01F029140164A37
:103D6000FFE7400942F82010704710B5401EB0F13F
:103D7000807F01D3012010BD104C60600F214FF0F7
:103D8000FF30FFF7B1FF0020A06007202060002077
:103D900010BD0A49042808680CBF40F0040020F058
:103DA000040008607047000018ED00E000E400E047
:103DB0000CED00E00000FA0500E100E010E000E09A
:103DC00000F000B8704700000249FFE701200860DA
:103DD0007047000020000E422DE9F8474FF0000E1A
:103DE0000022644BDFF89081DFF890914FF00F0ACA
:103DF000012707FA02F60F683740B74240F0AA8061
:103E00004C685CB3012C1AD0022C1FD0032C31D08B
:103E1000112C17D0122C1DD0594DAC421CBF594D3E
:103E2000AC421BD0584DAC421CBF584DAC4215D0D3
:103E3000574DAC421CBF574DAC420FD01CE0D1F8DF
:103E40000CE019E0CC6804F1040E15E0CC6804F134
:103E5000080E11E0CC6804F10C0E0DE08C6814B96A
:103E60004FF0040E08E0012C4FF0080E14BF46611D
:103E7000066101E04FF0000EFF2F02D88446940047
:103E800004E0A2F1080400F1040CA400DCF80050E6
:103E90000AFA04F6B5430EFA04F42C43CCF80040B9
:103EA0004C68E40056D5D9F8004044F00104C9F844
:103EB00000404FEA920CD9F8005005F0010400943C
:103EC000009C58F82C50940004F00C040AFA04F6F4
:103ED000B543314EB04208BF002618D02F4EB04235
:103EE00008BF012613D02E4EB04208BF02260ED0C6
:103EF0002C4EB04208BF032609D02B4EB04208BF5B
:103F0000042604D0294EB0420CBF0526062606FA28
:103F100004F42C4348F82C40FD434C68E4031C682F
:103F20004CBF3C432C401C604C68A4035C684CBFF5
:103F30003C432C405C604C68E4029C684CBF3C43B2
:103F40002C409C604C68A40247BFDC682743DF68B4
:103F50002F40DF60521C102AFFF44AAFBDE8F18702
:103F60008068084018BF0120C0B2704702B9090438
:103F70000161704700040140080001401810024030
:103F8000000011100000121000002110000022108B
:103F9000000031100000321000080140000C014008
:103FA000001001400014014000180140001C0140B5
:103FB0002DE9F8430446DFF868542078C00747D558
:103FC000686800F00C00042807D0686800F00C0056
:103FD00008280AD16868C00307D52868800337D548
:103FE0006068002834D1012049E16068B0F5803F65
:103FF00009D008B928680AE0B0F5A02F286806D1D2
:1040000040F480202860286840F4803005E020F4E7
:1040100080302860286820F480202860606858B1CB
:10402000FFF75CFE07462868800311D4FFF756FEB1
:10403000C01B6528F7D31FE1FFF750FE074628682D
:10404000800305D5FFF74AFEC01B6528F7D313E1AF
:104050002078DFF8D863800718D5686810F00C0F57
:1040600007D0686800F00C00082825D16868C003F4
:1040700022D42868800702D520690128B3D1286896
:10408000616920F0F80040EAC1002860207800074C
:104090003ED5A169DFF89803002965D001210160B0
:1040A000FFF71CFE0746686A800722D4FFF716FE5A
:1040B000C01B0328F7D3DFE0206968B1012030601E
:1040C000FFF70CFE074628688007D8D4FFF706FEE6
:1040D000C01B0328F7D3CFE03060FFF7FFFD074692
:1040E00028688007D2D5FFF7F9FDC01B0328F7D356
:1040F000C2E0DFF830030068C0084FF47A71B0FB0B
:10410000F1F0009000BF0098411E00280091F9D105
:10411000207840076FD5E869C0004FF000080AD446
:10412000E86940F08050E8614FF00108E86900F06C
:10413000805000900098DFF8FC92D9F80000C0058C
:104140001FD4D9F8000040F48070C9F80000FFF7D0
:10415000C5FD0746D9F80000C00512D4FFF7BEFD23
:10416000C01B6528F6D387E00160FFF7B7FD07465F
:10417000686A8007CCD5FFF7B1FDC01B0328F7D3D1
:104180007AE0E068012808D008B9286A09E0052823
:10419000286A06D140F004002862286A40F0010035
:1041A00005E0400840002862286A20F004002862E8
:1041B00041F28939E06858B1FFF790FD0746286A57
:1041C000800711D4FFF78AFDC01B4845F7D353E0A1
:1041D000FFF784FD0746286A800705D5FFF77EFDB7
:1041E000C01B4845F7D347E0B8F1000F03D0E8699A
:1041F00020F08050E861E06900283FD0696801F054
:104200000C0108293FF4EFAE02282AD100F039F85A
:1042100007462868800105D5FFF760FDC01B03280D
:10422000F7D329E0206AB0F5803F05D16868A1681E
:1042300020F40030084368606868216A20F4741034
:104240000843616A08436860012000F01BF80746D4
:104250002868800112D4FFF741FDC01B0328F7D363
:104260000AE000F00EF807462868800106D5FFF73F
:1042700035FDC01B0328F7D3032000E00020BDE874
:10428000F28300203066FFF729BD2DE9F8436A4E1E
:1042900004463068884600F00700404502D200F02E
:1042A00079F852D120785E4F800705D57868A168EB
:1042B00020F0F000084378602078C0073DD56068A2
:1042C000012802D13968890303E00228396802D144
:1042D000890102D439E0890737D57968890840EA2D
:1042E0008100786041F28939FFF7F8FC0546606883
:1042F00001280AD1786800F00C0004281DD0FFF7CF
:10430000EDFC401B4845F5D315E002280AD178683A
:1043100000F00C00082810D0FFF7E0FC401B4845D7
:10432000F5D308E0786810F00C0F06D0FFF7D6FC44
:10433000401B4845F6D303202AE0306800F0070010
:10434000804504D200F026F801D0012020E020783A
:10435000400705D57868E16820F4E060084378609C
:104360002078000706D57868216920F4605040EA7B
:10437000C100786000F018F87A683049C2F303127F
:10438000895CC84027490860002000F069F80020D7
:10439000BDE8F2833068C00848EAC0003060306889
:1043A00000F007004045704710B586B001A80FF235
:1043B0009C011022FEF7E4FA0FF2A00020490088C9
:1043C000ADF800000A68184802F00C03082B10D161
:1043D00001ABC2F38344D2031B5D08D50968C1F366
:1043E000404158431DF80110B0FBF1F001E01548C1
:1043F000584306B010BD0B48006870470948104A82
:10440000006812681049C2F3022206E005480C4A0F
:10441000006812680C49C2F3C222895CC840704728
:10442000001002405C00002000127A0000004242AE
:10443000800442420070004000200240C46A00082C
:104440000410024000093D00986C000802030405B6
:10445000060708090A0B0C0D0E0F101001020000D0
:1044600038B50D4D297804464FF47A70B0FBF1F061
:104470000A490968B1FBF0F0FFF777FC50B9102C3E
:1044800008D2002221464FF0FF30FFF747FCAC6016
:10449000002032BD012032BD500000205C00002011
:1044A00038B5050001D1012032BD05F1380460782E
:1044B00008B900F013F800F015F800F007F821F043
:1044C0002A01FFE7416100F017F832BD2868016951
:1044D00021F49041016128684169704720702846A5
:1044E000FFF7AFBA242060702868C16821F400513A
:1044F000C160284600F0A5B92868C16841F40051A0
:10450000C1600020606020206070A07000207047B3
:104510002DE9F843044604F138070D467878202841
:104520001646984641D10DB1300001D101203DE041
:104530003878012839D00120387000207860212097
:104540007870FFF7CBFBA6848146E68403E0216800
:1045500015F8010B4860E08CC0B1E08C401EE0848F
:1045600000F026F80DD100F02AF8B8B928882168A3
:10457000C0F3080048602069002814BF6D1CAD1C02
:10458000E9E700F01CF80028E1D007E0CDF8008052
:104590004B460022402100F014F808B1032005E04A
:1045A000202078700020387000E00220BDE8F283FF
:1045B0004B46A068CDF80080B0F5805F70470022C0
:1045C00080212046B3E0C160206841694908490064
:1045D00041617047416921F040014161606B704762
:1045E00038B5044623681868D9685A6910F00F0571
:1045F00007D182065DD58A065BD52046BDE83240EC
:10460000D6E0D50702D411F4907F52D0C30705D568
:10461000CB0503D5E36B43F00103E363430705D503
:10462000D30703D5E36B43F00203E363830705D5A8
:10463000D30703D5E36B43F00403E363030705D516
:10464000D20703D5E26B42F00802E263E26B002A74
:104650006CD0800604D5880644BF204600F0A8F838
:1046600020684069E16B090701D440061BD520464C
:1046700000F088F82068416949060FD5FFF7AAFFC6
:1046800060B10FF221114163606B00F04DF9002819
:104690004CD0606B416BBDE8344008472046BDE814
:1046A000324000F0CFB9204600F0CCF90020E063A2
:1046B00031BD02062AD50A0628D594F839002128EA
:1046C00034D1A068B0F5805F206A0BD10088C0F3B8
:1046D0000800586020690028206A0CBF801C401C1C
:1046E000206203E0411C216200785860E08C401E8B
:1046F000E08480B2D0B92068C16821F08001C16037
:104700002068C16841F04001C16031BD40060DD54F
:1047100048060BD5D86820F04000D860202084F8E7
:1047200039002046BDE8324000F08DB931BD2DE999
:10473000F041069E04460D4690461F4620680068DC
:104740002840A8420CBF01200020404517D116F197
:10475000010FF3D026B1FFF7C1FAC01B8642EDD29C
:104760002068C16821F4D071FFF72DFF04F13800F3
:1047700020214170817000210170032000E00020A1
:10478000BDE8F0810168CA6822F49072CA600168CD
:104790004A69520852004A61202180F83A10704755
:1047A00000000000406A0021C185C18400F04AB9C0
:1047B00080B590F83A10222941D18168B1F5805F27
:1047C00012D10269816A002A0268526805D1C2F3D7
:1047D00008020A80816A891C04E002F0FF020A8054
:1047E000816A491C81620FE001690029816A04D154
:1047F0004A1C82620268526805E04A1C82620268B2
:10480000526802F07F020A70C18D491EC18589B2CB
:1048100099B90168CA6822F02002CA600168CA68B2
:1048200022F48072CA6001684A69520852004A61E3
:10483000202180F83A1000F007F9002002BD022084
:1048400002BD2DE9F0470446642520680169E2684D
:1048500021F44051114301611926C168304A1140C9
:10486000A26811432269114362691143C160416921
:10487000A26921F44071114341612A4988420ED155
:10488000FFF7C4FD0746FFF7C1FD8046FFF7BEFDF9
:104890008146FFF7BBFD8246FFF7B8FD0DE0FFF74D
:1048A000ADFD0746FFF7AAFD8046FFF7A7FD81464D
:1048B000FFF7A4FD8246FFF7A1FD06FB08F3616840
:1048C0008900B3FBF1F306FB07F206FB09F7B7FB20
:1048D000F1F7B7FBF5F705FB17331B013233B2FBDA
:1048E000F1F2B3FBF5F3B2FBF5F203F0F00303EBE7
:1048F0000212704306FB0AF3B0FBF1F0B3FBF1F3D5
:10490000B0FBF5F005FB103000013230B0FBF5F0E4
:10491000216800F00F0080188860BDE8F087000073
:10492000F3E9FFFF00380140F8B590F8212000249A
:10493000022A00F1340103D004204860012462E01F
:104940000268DFF8CC70136823F00E0313604FF495
:104950008055026813685B085B0013604FF4803277
:104960000368BB424FF4807619D3DFF8A070BB42D6
:1049700008BF012210D0DFF89C70BB4208BF102294
:104980000AD0DFF89470BB4208BF324604D0DFF88B
:104990008C60B34208BF2A46DFF8843029E0DFF894
:1049A0008470BB421ED0DFF88070BB421CD0DFF8A1
:1049B0007C70BB421AD0DFF87860B3420EBF2A4643
:1049C000DFF87050AB4212D0DFF86C50AB4208BF3A
:1049D0004FF480120BD0DFF86450AB4207D14FF098
:1049E000807204E0012202E0102200E03246DFF88B
:1049F00050301A60012280F8212080F82040096898
:104A00000A0018BF88472046F2BD00000804024093
:104A1000810002401C040240300402404404024071
:104A200004040240080002401C0002403000024022
:104A300044000240580002406C00024080000240E6
:104A40000400024070477047704700002DE9FC47A2
:104A50008146884E4FF48A703418204600F034FAAC
:104A6000002853D006F217173879797941EA0028DF
:104A7000B6F81302C01E80B231184FF48A728D1836
:104A800000218DF80210A0F1030A524639460DF1BB
:104A90000200FDF765FF51460DF1020000F020FA1B
:104AA000ADF8000029889DF80100C9B288421FBFF7
:104AB0009DF800006988C9B288420ED00FF2C81074
:104AC00000680190204600F0FAF90023012201A9B4
:104AD00046F2100000F049FB18E03878C0F30110EE
:104AE000012804D10FF2A41000F086FB09E07878C9
:104AF000421F92B206F21D114046C847304600F0F0
:104B000044F9204600F0DBF900F074F8BDE8F387C3
:104B100038B5594D0446286858B90FF200230FF2F2
:104B2000AC110FF288109C2200F066FB2868002868
:104B3000FDD0296849682046884700F0E0FB4F4CCB
:104B40000546207818B300F02AFCD4F8021000F0D3
:104B500029FC1DBB60784A4D50B9012000F081FB53
:104B6000012000F08EFB002000F09FFB012009E0F7
:104B7000002000F076FB002000F083FB012000F015
:104B800094FB0020287060700020207006E02DB19A
:104B90000120207000F003FCC4F8020000F004FCC7
:104BA000D4F80610884205D1BDE832400FF28810D3
:104BB00000F08CBB31BD80B52F4800688068FFF7DE
:104BC00045FF0120FCF742F9BDE80240FCF799BA25
:104BD00010B500F0EFFB274C204600F0C3F84FF46F
:104BE0000670204400F0ACFC0A21244800F0C4FC0C
:104BF000BDE8104080B500F0D7FB204900F56160AA
:104C0000C1F8060001BD70B500F0C9FB00F0C3FC9F
:104C10001C4E184D00F0C3FB3168044600F0C2FB87
:104C2000B0F5FA7F0CDB4FF48270284400F00AFDE7
:104C300030B10FF2141000F0DFFA284600F0A5F8AA
:104C40007168204600F0AEFBB0F5FA7F10DB4FF440
:104C50002770284400F0F6FC50B10FF2FC0000F081
:104C6000CBFA4FF406702844BDE8704000F078BCE1
:104C700070BD0000480C0020881500206815002039
:104C80008C15002074150020010000006672616719
:104C90006D656E74207061636B6574206E6F742037
:104CA000737570706F727465640000006173736572
:104CB0007274696F6E206661696C6564206174202E
:104CC00025733A256420257300000000433A5C55A3
:104CD000736572735C62656C6B5C4465736B746F57
:104CE000705C50726F6A6563745C48414C5F5354EA
:104CF0004D333246315F536D617274706C75675C11
:104D0000736D617274706C75675C736D61727470D1
:104D10006C75675F696D706C2E6300006375725F00
:104D2000736D617274706C75675F66756E635F201A
:104D3000213D204E554C4C00414C4956452074694C
:104D40006D656F7574000000736D5F6E6D735F72DB
:104D5000657365740000000076393837315F72651D
:104D60007365740010B504464FF482704FF480727E
:104D7000211D204400F048FC204600F006F84FF4C6
:104D80008A702044BDE8104099E000218170C17014
:104D900001704FF48273011D4FF48072184400F0CB
:104DA00033BC000070B504460D464FF48270217884
:104DB0002618092959D8DFE801F00509162E383DD3
:104DC0003F455156E22D73D101204DE0E22D06D131
:104DD0004FF48072211D304600F016FC45E000F0D3
:104DE00068F842D136E00320207094F8170100F0F3
:104DF000F00141EA151084F81701A80894F817117A
:104E000060F3051101F03F0084F8171140EA8510A6
:104E100084F8170129E0052D2CDB681FA070042001
:104E20002070A078F52820DB24E000F042F81CD1A7
:104E3000052019E0062017E0A07800280CBF082004
:104E4000072007E0E078A178401CE070C0B28842FB
:104E50000BD1082020700020E07006E000F029F857
:104E600003D1092000E0002020702946304600F0E0
:104E7000F3FB18B12046BDE8704086E72078B8B94A
:104E80004FF48A70204400F01AF80CE0304600F02D
:104E9000FBFBB4F81312214481F81401B4F8130297
:104EA000401CA4F81302304600F0B8FB0028EDD0F7
:104EB00070BDE078401CE070C0B20228704700214D
:104EC000A0F8FF1001717047B0F8FF100B2905DB47
:104ED0000079C01D814201D1012070470020704738
:104EE00030B54FF6FF731A4661B910E010F8015B58
:104EF0000FF23C0455406D0005F4FF75645B84EAD5
:104F0000222292B20C46611E002CEFD15A4010466C
:104F100030BD38B504460D46FFF7E2FFADF800009E
:104F200061199DF800200A709DF801204A7031BD7A
:104F30000000891112239B322446AD573665BF7499
:104F4000488CC19D5AAFD3BE6CCAE5DB7EE9F7F849
:104F50008110080193331A22A5562C47B7753E6479
:104F6000C99C408DDBBF52AEEDDA64CBFFF976E829
:104F700002218B30100299132667AF763444BD5559
:104F80004AADC3BC588ED19F6EEBE7FA7CC8F5D909
:104F900083310A2091121803A7772E66B5543C4539
:104FA000CBBD42ACD99E508FEFFB66EAFDD874C9E9
:104FB00004428D5316619F702004A9153227BB3619
:104FC0004CCEC5DF5EEDD7FC6888E1997AABF3BAC9
:104FD00085520C4397711E60A1142805B3373A26F9
:104FE000CDDE44CFDFFD56ECE9986089FBBB72AAA9
:104FF00006638F7214409D512225AB343006B917D9
:105000004EEFC7FE5CCCD5DD6AA9E3B8788AF19B88
:1050100087730E6295501C41A3352A24B1163807B8
:10502000CFFF46EEDDDC54CDEBB962A8F99A708B68
:10503000088481951AA793B62CC2A5D33EE1B7F098
:105040004008C919522BDB3A644EED5F766DFF7C48
:10505000899400859BB712A6ADD224C3BFF136E078
:10506000C1184809D33B5A2AE55E6C4FF77D7E6C28
:105070000AA583B4188691972EE3A7F23CC0B5D158
:105080004229CB38500AD91B666FEF7E744CFD5D08
:105090008BB502A499961087AFF326E2BDD034C138
:1050A000C3394A28D11A580BE77F6E6EF55C7C4DE8
:1050B0000CC685D71EE597F42880A1913AA3B3B218
:1050C000444ACD5B5669DF78600CE91D722FFB3EC8
:1050D0008DD604C79FF516E4A9902081BBB332A2F8
:1050E000C55A4C4BD7795E68E11C680DF33F7A2EA8
:1050F0000EE787F61CC495D52AA1A3B03882B193D8
:10510000466BCF7A5448DD59622DEB3C700EF91F87
:105110008FF706E69DD414C5ABB122A0B9923083B7
:10512000C77B4E6AD5585C49E33D6A2CF11E780F67
:1051300010B52C4C204600F0B9FA3D20A4F84A01E5
:1051400010BD80B5010007D0FF2905DC25490B38CB
:10515000A1F84A01012002BD0FF28C0000F04CF8CA
:10516000002002BD0023002200212DE9F043044667
:10517000DFF870904FF4A270C3B01E0009EB000777
:105180000D46904608BFFE8800F01FF80096434683
:105190002A462146484600F095FA324601A948467B
:1051A00000F0AFFABDF8032101A9022000F095FB41
:1051B000022000F0AFFB012000F0CCF800F0EFF887
:1051C0003860BE8043B0BDE8F08310B5054C204682
:1051D00000F076FA20B12046BDE8104000F0FABA9F
:1051E00010BD000050110020696E76616C6964206A
:1051F0006D74753A202564000EB418B5074C01464D
:1052000003AA204600F0A4FB00F00AF802A100F077
:1052100008F811BC5DF810FB0D0A000048080020DA
:105220002146012000F06ABB10B5044600F073FB74
:10523000FFF7F6FFBDE81040012000F06BBB000057
:1052400010B53F4C0122042100F02CF80122082166
:1052500000F028F8002000F014F8BDE8104001200C
:1052600023E00028364B14BF00220122042105E070
:105270000028334B14BF0022012208211846FEF7F4
:1052800075BE10B52E4C30B10122022100F00AF893
:105290003C2000F05FF82046BDE8104000220221CB
:1052A000FEF764BE2046FEF761BE10B5244C30B157
:1052B00001220121FFF7F6FF3C2000F04BF82046C9
:1052C000BDE8104000220121FEF750BE10B5044693
:1052D0000FF29400FFF7A8FF2046FFF7A5FF17A0E5
:1052E000FFF7A2FFBFF34F8F1648174A016801F47A
:1052F000E06111430160BFF34F8F00BFFDE7012163
:105300001248FEF72DBE10B50128114C09D1FFF748
:10531000B8FF0020FFF7C9FF0120FFF7A2FF01201F
:1053200009E00020FFF7ADFF0120FFF7BEFF0020DE
:10533000FFF797FF0020207010BD00000D0A00004D
:10534000001001400CED00E00400FA05000C0140E3
:105350008C15002010B5040004E000F00FFB00F0F5
:1053600007F8641EF9D110BD7265626F6F7400009A
:105370004FF4205000BF401E0028FBD170470C485E
:105380004168491C41600188491C89B2B1F57A7FA6
:1053900003D18268521C002182600180704704485A
:1053A00040687047401A70470148806870470000A5
:1053B0005C15002010B500F007F8324C002020707A
:1053C00000F07EFB606010BD2F4800210160704737
:1053D0002C4800783BE02DE9F8432A4D2F78B8425D
:1053E00008BF002A06460C4698460AD1384600F007
:1053F0002EF84246BDE8F84301460FF29400FFF74D
:10540000FBBE00F024F88146384600F020F8014643
:1054100043464A460FF29000FFF7EEFE68680069C7
:105420008047012E2E7009D0042E04D0052E07D1FE
:1054300000F072FB04E000F0ABFB01E000F0DCFBED
:105440006860204669680968BDE8F44308471FB5ED
:10545000044668460FF2D8011022FDF791FA5DF874
:10546000240004B010BD80B5412808D358220FF2A3
:1054700070010FF24C0000F071FCC046C0460348BA
:1054800002BD000084150020A4150020C4140020D3
:105490006368616E67653A2073616D65207374613E
:1054A0007465202D202573006368616E67653A205E
:1054B0002573202D2D3E202573202D2025730000DF
:1054C00072657175697265645F73697A65203C3DC8
:1054D0002053544154455F4255465F53495A450055
:1054E000433A5C55736572735C62656C6B5C4465D2
:1054F000736B746F705C50726F6A6563745C484163
:105500004C5F53544D333246315F536D617274704A
:105510006C75675C736D617274706C75675C736DCC
:10552000617274706C75675F737461742E630000D0
:105530000C6C0008146C00081C6C0008206C00083F
:1055400010B504468122E11C04F1840000F05CF8EF
:10555000204600F005F804F19400BDE8104005E095
:105560000021817000F8841B00F054B80021A0F8DD
:105570008110417070470000002200F001BC000063
:1055800010B51E4C30212046FFF7F6FF1C48606125
:105590001C48E06210BD38B500241821174861434B
:1055A00045182868A0B1E868401CE860E9682869E7
:1055B00088420DD2A8686969401E8041C00FA8606A
:1055C000A8688847686800281ABF0020E86028603B
:1055D000641C022CE1D331BD70B51D46144618235E
:1055E000064A584316180846B1607169884700207A
:1055F000F060346175600120306070BD04150020DA
:105600006352000871520008002343600360826007
:10561000C1607047002141600160704701684068C7
:1056200081420CBF012000207047416882680068F9
:10563000491C91FBF2F302FB131181420CBF0120C4
:1056400000207047816842680068101A0818B0FB93
:10565000F1F201FB1200704738B504460D46FFF722
:10566000E4FF08B1012032BDE0686168455460681C
:1056700000F003F86060002032BDA168401CB0FB60
:10568000F1F201FB1200704710B50446FFF7C6FFA8
:1056900008B1002010BD2168E068405CA268491C88
:1056A000B1FBF2F302FB1311216010BD0021017068
:1056B0004FF49A73011D40F22D121844FFF7A4BF56
:1056C000007870472DE9F04104464FF49A7026188F
:1056D0000D4690461F463046FFF7A0FF10B93046F2
:1056E000FFF798FF658005E018F8011B3046FFF7CB
:1056F000B3FF7F1EB8B20028F6D101202070BDE8AC
:10570000F0812DE9F84307460C4638780FF2FC0883
:1057100038B96A2241460FF2401000F01FFBC04624
:10572000C0463878002853D04FF49A703E1830465F
:10573000FFF788FF05463878012807D00E2241463A
:105740000FF2A40000F00AFBC046C046E220207021
:105750000120A4F801000020E070681D20710025E0
:1057600000206071A0710FF210197888000AE071B2
:10577000788820722079471FFFB210E03046FFF78B
:105780004DFF30B178224146484600F0E7FAC04666
:10579000C0463046FFF778FF61196D1C4872EDB2C4
:1057A000BD42EBDB07F10901A4F8FF10204689B2E6
:1057B000FFF7AFFBB4F8FF00801CA4F8FF00E42162
:1057C00080B22154B4F8FF00401CA4F8FF0001206F
:1057D000BDE8F28310B504464FF49A702044FFF7F9
:1057E00019FF0020207010BD706275662D3E627535
:1057F000665F73746174203D3D206B4E4D535F5363
:10580000696E676C655061636B657400433A5C5503
:10581000736572735C62656C6B5C4465736B746F0B
:10582000705C50726F6A6563745C48414C5F53549E
:105830004D333246315F536D617274706C75675CC5
:10584000636F6D6D5F6C6962735C4E4D535F707218
:105850006F746F2E63000000706275662D3E627576
:10586000665F7374617420213D206B4E4D535F451C
:105870006D7074790000000021636972715F697353
:105880005F656D7074792826706275662D3E72654D
:105890006D61696E5F7175652900000080B500F06B
:1058A00015F8244809E080B5694600220A608DF8A1
:1058B00000004FF47A7301221F48FEF729FE01BD54
:1058C000704780B500F002F81C48F6E78DF800003C
:1058D0004FF47A73012269467047F8B50C460FF20F
:1058E000600101EB8000154650F8046C002702E0CF
:1058F000E05DB0477F1CAF42FAD3F1BD38B5044636
:105900000D462846FCF7D2FF024629462046BDE850
:105910003840E2E7704738B50446064D06E014F813
:10592000010BFFF7D3FF2846FEF7F2FD2078002891
:10593000F5D131BD0013002040130020C01200201B
:105940009D580008A7580008C1580008C35800080F
:1059500016B504460A46009401AB694606487844E9
:105960001630FBF7C1FE009A0021117000285CBFC1
:105970000098001B16BD00BFB3BCFFFF704738B5D1
:105980002D4D2E4C0122211D2846FDF7F1FD01224F
:1059900021462846FDF79EFE2948A278817A914249
:1059A00002BFC17A2279914219D1017B6279914279
:1059B00002BF407BA179884211D122480FF28805AD
:1059C0000068012818BF002809D1FFF79CFCA079C6
:1059D00063792279A1780090284600F0EBF931BD77
:1059E000F8B50446154D2078134F0FF28406E87081
:1059F0000122607868702946A0782870E078A87045
:105A00003846FDF718FE18B13721304600F019FB73
:105A100020792871012260796871291DA079A87107
:105A20003846FDF75CFD28B13046BDE8F4403F2123
:105A300000F007BBF1BD0000801300207C150020A2
:105A40009413002094150020645D20253032782CBA
:105A500020685D20253032782C206D5D2025303285
:105A6000782C20735D2025303278200D0A0000004C
:105A7000433A5C55736572735C62656C6B5C44653C
:105A8000736B746F705C50726F6A6563745C4841CD
:105A90004C5F53544D333246315F536D61727470B5
:105AA0006C75675C736D617274706C75675C736D37
:105AB000617274706C75675F69742E63000000001A
:105AC0000C4870470C490020087070470A4801785C
:105AD000491C0170C9B2C82900D0704780B5074879
