:020000040800F2
:1000000088050020655100087551000877510008E7
:10001000795100087B5100087D5100080000000064
:100020000000000000000000000000007F510008F8
:100030008151000800000000835100085925000884
:100040009151000895510008995100089D510008F0
:10005000A1510008A551000865300008893000084A
:10006000A9510008AD510008B1510008B551000870
:10007000B9510008BD510008C1510008C551000820
:10008000C9510008CD510008D1510008D5510008D0
:10009000D9510008DD510008E1510008E551000880
:1000A000E9510008ED510008F1510008F551000830
:1000B000F9510008FD5100080152000805520008DE
:1000C000095200080D52000811520008155200088C
:1000D000195200082D3100086D3100089F310008C9
:1000E0001D52000821520008255200082DE9F04F4A
:1000F00082460FF24860A5B015461E46D0E900239F
:10010000CDE91223002004910D900DF150086FF0FD
:10011000004900E03D440020ADF8020012AB4FF072
:10012000FF3229460DF1020001F0A5F80746012F24
:1001300004DA2878471EBF41FF43FF0FBDF80200D5
:1001400025280CBFA7F1010BBB46BBF1010F0EDB4D
:100150002C4614F8011B0498D0470028049000F0A6
:10016000F3800D98401CBBF1010B0D90F1D1BDF84F
:100170000200252807D100200790089009900A90D6
:100180000B900C9005E00028C4D10D98DEE240F001
:10019000010015F8011F2029F9D023290DD02B29A2
:1001A00004D02D2906D030290AD00CE040F00200FE
:1001B00080B2EEE740F00400FAE740F00800F7E70D
:1001C00040F01000F4E72A290ED13168316051F86F
:1001D000042B3160002A0F9204D5514240F00400F4
:1001E0000F9180B26D1C11E000210F9109E00F9971
:1001F000494505D001EB810302EB430130390F91F2
:100200006D1C2A78A2F130010A29F0D329782E2911
:1002100003D04FF0FF310E911DE015F8011F2A2980
:1002200007D1316831606D1C51F8042B31600E929A
:1002300011E000210E9109E00E99494505D001EB2E
:10024000810302EB430130390E916D1C2A78A2F133
:1002500030010A29F0D3ADF840000FF2E8402978C8
:1002600001F01EF808B115F8010B8DF842009DF859
:100270004200682802BF29786829622005D06C28CE
:1002800004BF28786C2803D171208DF842006D1CC2
:1002900014A8069015F8017BB7F125002AD01C3868
:1002A00000F0DB80001F022840F2D780133800F0F6
:1002B000FC80093800F0D180801E00F06781401E6C
:1002C00000F03D81401E022840F2C780001F00F070
:1002D0003681401F00F09280401E00F0E680401EF4
:1002E00035D0C01E0BD0801E00F0DF80C01E00F095
:1002F000DC806EE125208DF85000012073E19DF82F
:1003000042006C283068306014D050F8044B3060E4
:1003100005940E9F002F04D5204600F0CDFF074620
:1003200006E03A460021204600F0E2FF00B1071B3C
:10033000089759E150F8042B306002A9504600F0AC
:100340003FFA002840F150814FF0FF30FEE1316864
:100350003160002251F8040B31600021CDE9020127
:1003600014A80590DDE902019142069F08BF904262
:100370004FF03C0C01D10E9AC2B100F00F033033A4
:10038000DBB23A2BA8BF2733ACF101020009BB5402
:10039000944640EA017009090022914208BF904248
:1003A00004D0059A07EB0C039A42E6D307EB0C0046
:1003B0000590CCF13C010E980891814209DA401A6F
:1003C0000A904FF6EF71BDF840000840ADF84000CC
:1003D0000AE1002840F108819DF8400000F0140077
:1003E000102840F001810F98079A801A0A9A801A03
:1003F000401A0128C0F2F8800A90F5E09DF842000A
:1004000062281AD0682806D06A280CD06C281CD024
:10041000712808D019E03068306050F8041B306053
:100420000D980880E0E03068306050F8042B3060B0
:100430000D98C117C2E90001D6E03068306050F86D
:10044000041B30600D980870CEE03068306050F8C2
:10045000041B30600D980860C6E03068C01D20F0B5
:1004600007023260D2E9000108323260CDE90201B0
:10047000002902D507982D210AE0BDF84000810728
:1004800002D507982B2103E0C00705D50798202146
:1004900008F80010401C079014A80799084405901C
:1004A000394602A800F098FB9EE09DF842006C28B7
:1004B0000DD0712818BF6A2809D13068C01D20F0FE
:1004C00007023260D2E900010832326005E031688B
:1004D000316051F8040B31600021CDE902019DF833
:1004E0004200682803D1DDE9020180B20BE06228F6
:1004F00003D1DDE90201C0B205E0742818BF7A28F3
:1005000004D1DDE902010021CDE902019DF840009E
:10051000000732D5DDE902230020834208BF824272
:100520002BD047F02000782827D10798302108F8F1
:100530000010401C411C079108F800701DE09DF858
:100540004200314600F005F9CDE90201DDE9022360
:1005500000218B4202DA07982D210AE0BDF8400005
:10056000810702D507982B2103E0C00705D507981E
:10057000202108F80010401C079014A8079908448F
:100580000590394602A800F0A1FA2DE09DF842003E
:100590006C2809D0012007903068306050F8041BA7
:1005A00030608DF850101FE03068306001AA50F8BC
:1005B000041B3060ADF804100020ADF8060002A95D
:1005C0004FF0FF300E90504600F0FAF800280BD59F
:1005D000BAE625208DF8500001200790380003D09E
:1005E00088F80170022007900F980799401A0A991D
:1005F000401A0899401A0B99401A0999401A0C9907
:10060000471A9DF84000400710D42020012F8DF894
:1006100000000BDB3C4601236A4602A9504600F06D
:1006200005FE00287FF490AE641EF4D1DDF81CB006
:10063000BBF1000F14AC0DD014F8011B0498D04787
:10064000002804903FF480AE0D98401CBBF1010BD4
:100650000D90F1D130208DF800000A9C012C0ADBAE
:1006600001236A4602A9504600F0E0FD00287FF40D
:100670006BAE641EF4D1DDF820B0059CBBF1000F19
:100680000DD014F8011B0498D047002804903FF4C3
:100690005BAE0D98401CBBF1010B0D90F1D13020E9
:1006A0008DF800000B9C012C0ADB01236A4602A98D
:1006B000504600F0BBFD00287FF446AE641EF4D126
:1006C00005980899DDF824B04418BBF1000F0DD04F
:1006D00014F8011B0498D047002804903FF434AE6E
:1006E0000D98401CBBF1010B0D90F1D130208DF81D
:1006F00000000C9C012C0ADB01236A4602A950462B
:1007000000F094FD00287FF41FAE641EF4D19DF824
:10071000400040077FF5FFAC2020012F8DF800003E
:10072000FFF6F9AC01236A4602A9504600F07EFDAF
:1007300000287FF409AE7F1EF4D1ECE40000000035
:1007400000000000686A6C747A4C000025B0BDE8B7
:10075000F08F622826D068281DD06A2808D06C281F
:1007600027D0712804D0742823D07A280CD020E018
:100770000868C01D20F007000860D0E90023083099
:1007800008601946104670470A680A6052F8040B60
:100790000A60002170470A680A6052F8040B0A6078
:1007A00000B20BE00A680A6052F8040B0A6040B21B
:1007B00004E00A680A6052F8040B0A60C117704727
:1007C0002DE9F44F0D4694B0D5F830A0BAF1000FE2
:1007D000804648BF6FF0004A00F0B6FD696B4018D4
:1007E00001900FF67820D0E90023CDE9022395F897
:1007F0003800400702D40198412805D240200DF16D
:1008000010090190002609E000F0A4FD5FEA00094C
:10081000F8D14FF0FF3056E1AAEB040ABAF1010F0C
:10082000C0F2CE801498018802AA0DF1010000F0F8
:10083000E9FD0028044600F1DE801498008810B914
:10084000641E00F1D880A245C0F2BA80686901999F
:100850002218914280F0A2806E634042296A401AB9
:10086000A969401A696A401AE969401AA96A461AD0
:1008700095F83800400710D42020012E8DF8000094
:100880000BDB374601236A462946404600F0CEFC82
:10089000002840F0B0807F1EF4D1D5F814B0BBF131
:1008A000000F4F460DD017F8011BA868C04700285D
:1008B000A86000F0A080E86A401CBBF1010BE86270
:1008C000F1D130208DF800002F6A012F0ADB0123BF
:1008D0006A462946404600F0A9FC002840F08B807B
:1008E0007F1EF4D1D5F818B0EF68BBF1000F0CD023
:1008F00017F8011BA868C0470028A8607BD0E86AE9
:10090000401CBBF1010BE862F2D130208DF80000F1
:100910006F6A012F09DB01236A462946404600F031
:1009200085FC002867D17F1EF5D1E868A969D5F854
:100930001CB04718BBF1000F0CD017F8011BA868BA
:10094000C0470028A86056D0E86A401CBBF1010BE4
:10095000E862F2D130208DF80000AF6A012F09DB88
:1009600001236A462946404600F060FC002842D137
:100970007F1EF5D195F8380040070DD52020012EB7
:100980008DF8000008DB01236A462946404600F046
:100990004DFC80BB761EF6D100266E61224668694A
:1009A0000DF10101484400F03BFD686920186861C1
:1009B0001498801C1490801E008800287FF42CAFAF
:1009C000686B6969401A296A401AA969401A696AFC
:1009D000401AE969401AA96AA0EB010A95F83800A3
:1009E000400710D4BAF1010F0DDB5446A86820214E
:1009F000C047A86010B94FF0FF365DE0E86A401CC0
:100A0000641EE862F2D16B694A462946404600F00E
:100A10000DFC0028EFD12C6A012C0ADBA8683021DC
:100A2000C0470028A860E6D0E86A401C641EE8625F
:100A3000F4D1AB69EA682946404600F0F7FB00288C
:100A4000D9D16C6A012C0ADBA8683021C047002884
:100A5000A860D0D0E86A401C641EE862F4D1E8685F
:100A6000A969EB6942182946404600F0DFFB0028DF
:100A7000C1D1AC6A012C0ADBA8683021C04700282C
:100A8000A860B8D0E86A401C641EE862F4D195F80A
:100A9000380040070ED5BAF1010F0BDBA868202102
:100AA000C0470028A860A6D0E86A401CBAF1010A35
:100AB000E862F3D16E616E6304A881451CBF4846AD
:100AC00000F0EAFC304615B0BDE8F08F2DE9F343A5
:100AD000054608462F696F2808BF082405D041F055
:100AE0002001782914BF0A2410243C26D5E90023CC
:100AF000642818BF69289046994606D100218B4288
:100B000003DAD8F1000869EB49090020814508BFE4
:100B100080450CD1286B50B9082C38D195F8380095
:100B2000000734D530203B2687F83B002FE0701EAD
:100B300000900646404649462246E31700F0ECFC8A
:100B400002F13000C0B23A2803DB9DF8041051399D
:100B50000818B855494640462246E31700F0DCFC29
:100B6000804689460020814508BF804503D0E8685B
:100B7000B9198842DBD3082C09D195F83800000751
:100B800005D5B85D302802D0761E3020B855B91989
:100B9000E960C6F13C00296BA861884208DA081AAE
:100BA00028624FF6EF71288F08402887BDE8F3834D
:100BB00000290ED595F8381001F01401102908D13C
:100BC000696B6A69891A2A6A891A0E1A012EA8BFE6
:100BD0002E62BDE8F38300002DE9F24F04468EB08B
:100BE000D4E90001CDE9020104AF9DF8380040F0DE
:100BF000200BBBF1610F0AD0206B002848BF0620F4
:100C000004D408BFBBF1670F01D1012020636168E4
:100C1000C1F30A5040F2FF7290421CD1080304BF96
:100C20002068002809D10320A0619DF838006138B0
:100C30001A2835D30FF2386108E00320A0619DF82F
:100C4000380061381A2828D30FF21C61E0680322AB
:100C500000F0E6FBBDE1012815DA204600F0D3FCE8
:100C6000012810DB00250020BBF1610F1FD1E168D6
:100C700030220A708A1CE2609DF83820612A0CBF7D
:100C8000782258220FE0626840F2FE3161F31E5272
:100C9000451A62604FF0FF30E6E70FF2C851D5E722
:100CA0000FF2C851D2E74A706169891C616110B9BD
:100CB0000026002584E1BBF1610F40F09880206B95
:100CC000D4E900AB00284CBF2126461CDDE9020117
:100CD0000022002300F0BAFC36B23ABF8BF000408D
:100CE000CDE902A0CDE902AB06F101082D1FB8F154
:100CF000010F8DF810200DF1110736DBDDE902013F
:100D00000022002300F0BAFC2FD21C2102A800F020
:100D1000CDFCDDE9020100F04FFDA8F10708B8F1B4
:100D2000010F814609DB00F073FD02460B46DDE949
:100D3000020100F085FDCDE90201F81D072105E063
:100D400009F00F0200F8012D4FEA2919B9F1010F3E
:100D500001DB491EF4D5491E5CBF002200F8012DBD
:100D6000F9D5C71DB8F1010FC8DA0DF11100391A14
:100D7000B142B8BF0E4636B230000DF111072FD484
:100D8000884206DA04A9014449780829A8BF0F213E
:100D900000DA002104AA024400E0761E12F80139AC
:100DA000401E8B42F9D00F2904D104A901444A788E
:100DB000521C4A70002802D504AF761C2D1D36B295
:100DC000701E0DD439180A783032D2B23A2A03DBB9
:100DD0009DF838303A3B9A18401E01F80129F2D5A7
:100DE000206B002840F1EC80701E2063E8E0DDE914
:100DF00002010022002300F029FC3CBF81F00041E9
:100E0000CDE902012DB247F2975068434B49DFF814
:100E1000309190FBF1F52DB2C5F1070ABAF1010F3F
:100E200090461CDBDDE902675FEACA7007D54246DF
:100E30004B463046394600F0C3FD06460F46404655
:100E4000494642464B464FEA6A0A00F0B9FDBAF1FC
:100E5000000F80468946E7D1CDE9026724E0CAF158
:100E6000000A0026374F14E05FEACA7007D54246F1
:100E70004B463046394600F0A3FD06460F46404635
:100E8000494642464B4600F09BFD4FEA6A0A8046BF
:100E90008946BAF1000FE7D1DDE9020132463B464F
:100EA00000F060FECDE90201BBF1660F216BDFF8B7
:100EB00098900CBF05F10A0006204618142EA8BF12
:100EC000132630208DF810000DF11107012E3DDBA7
:100ED000DDE9020100F086FC07F1080104220A2383
:100EE000B0FBF3F303EB8307A0EB4700303001F8CE
:100EF000010C0A20B3FBF0F000EB8007A3EB4703E3
:100F00003033521E01F8023DE9D1083E012E01F1B5
:100F10000807DBDBDDE9020100F064FC00F082FC85
:100F200002460B46DDE9020100F08AFC00224B4636
:100F300000F046FDCDE90201CAE700BFA08601002E
:100F4000000024400000F03F84D797410DF11100CC
:100F5000381A0DF1110702E0401E6D1E7F1C397812
:100F60003029F9D0BBF1660F08BF691C04D0BBF172
:100F7000650F0CBF01210021226B8E1836B2B042E2
:100F8000B8BF064636B231001AD4814204DA785C22
:100F90003528A8BF392000DA30207A18521E00E028
:100FA000761E12F80139491E8342F9D0392802D140
:100FB000785C401C7854002902D57F1E761C6D1C7D
:100FC0002DB29DF83810009533B23A46204600F015
:100FD00003F80FB0BDE8F08F2DE9F04786B0064664
:100FE0008A4690461D4600F006FF012D406A376B89
:100FF00090F8009002DA01250FF278284AF02000DC
:10100000BDF93840662808BF641C12D0672878D123
:1010100014F1040F7BDBBC4279DA96F83800641CCB
:10102000000702D4BD42B8BF2F4624B23F1B48BFC1
:10103000002724B2F068B169012C23DA4A1C30235E
:101040004354012F03DA96F83800000703D5F068FF
:1010500000F80290521CE742B8BF7C4224B26042C2
:101060007062E719AF42B261B8BF3D46F068B3693C
:101070002DB2F5612A464146184400F0D1F9781B9B
:10108000B062BCE022469542084416DA2A46414640
:1010900000F0C6F9B1696918601B012FB161706277
:1010A00003DA96F83800000705D5F06800F80190DB
:1010B000F069401CF061B762A1E0414600F0B0F970
:1010C000B06920182D1B012F03DA96F83810090794
:1010D00003D5F16801F80090401CB0612DB2AF4219
:1010E000B8BF3D46F068B3692DB22A4608EB04014B
:1010F000184400F095F9B0692818B061781B706247
:101100007DE0BAF1610F14D14FF0700A16E0BD42D4
:1011100004DA96F83810090758BF2F467F1E48BFDB
:101120000027BAF1670F14BF4FF0450A4FF0650A68
:1011300004E0BAF1410F08BF4FF0500AB169F368FB
:10114000481CB061012F18F8012B5A5403DA96F8A5
:101150003810090717D5F168431CB36101F80090F6
:10116000012F10DB6D1E2DB2AF42B8BF3D46F068B7
:101170002DB22A464146184400F052F9B0692818A9
:10118000B061781B7062F068B1690144200081F899
:1011900000A004D42B20487001F1020804E02D22A5
:1011A0004A7001F102086442002502AF08E00A22F9
:1011B000684600F039FE019807F8010B6D1C009C91
:1011C00021B20129F3DA022D06DA4AF0200065285F
:1011D00004BF302008F8010B4DB9302008F8010B8E
:1011E00007E06D1E02A8405D303008F8010B012DAC
:1011F000F7DAF068B1690844A8EB0000F06196F8EE
:10120000380000F0140010280DD17069B169081879
:10121000716A0818F1690818B16A0818716B884278
:10122000BCBF081A306206B0BDE8F087F8B50446C6
:101230000D4616461F46002077B116F8011BA86818
:10124000A047A86030B1E86A401CE86200207F1E19
:10125000F3D1F2BD4FF0FF30F2BD000000000000FE
:10126000000000006E616E004E414E00696E660027
:10127000494E46003000F8B504460D4616461F4656
:1012800000F0E3FD3B4632462946204601B0BDE86A
:10129000F04000F0F0BD0268531C0360117070470D
:1012A0000278C9B28A421AB11CBF10F8012FF9E7BF
:1012B00018BF00207047000000F10103810704D02F
:1012C00010F8011B89B18107FAD10268B2F101312E
:1012D000914311F0803F04BF50F8042FF6E710F857
:1012E000011B11B110F8011BFBE7C01A7047000089
:1012F000C9B2830706D0521E22D310F8013B99428F
:10130000F7D11FE0083A13D302F1040241EA0121A8
:1013100041EA014150F8043B121F21BF4B40A3F1A9
:10132000013C2CEA030C1CF0803FF3D0C9B2001F33
:10133000083210F8013B521E28BF91EA030FF8D87B
:1013400018BF0120401E704780B500F07EFD0120CF
:1013500002BD000070B5054605F10F00C408C04687
:10136000C046E400A54232D2082C04D2082402E090
:10137000083000F091F82248026811000CD1011DDC
:101380000A6802B31368A34238BF111DF8D310E0F6
:101390001D68A5420DD2191D0B68002BF8D11268EB
:1013A000011D00E0191D0B6893420CD01D68A54279
:1013B000F8D361B10D682A68A2F10803A3420AD2EA
:1013C0006A680A600FE000F079FD0028D0D1C046BD
:1013D000C046002070BD2B190B60121B6E685E604A
:1013E0000B681A602C60096800291DBF4A68002A32
:1013F000091D00210160C046C04605F1080070BD0E
:101400006015002070B504460D46164600F01DFD1F
:10141000324629462046BDE8704000F01FBD00005E
:1014200062B38B0708D0521E11F8013B00F8013B54
:1014300000F024808B07F6D1830740F0208000BFA6
:10144000103A07D330B4B1E83810103AA0E8381099
:10145000F9D230BC530724BFB1E80810A0E8081047
:1014600044BF51F8043B40F8043BD20724BF31F895
:10147000022B20F8022B44BF0B7803707047083A08
:1014800007D3B1E80810083A40F8043B40F804CB11
:10149000F7D25307E4E7000000B9704738B5A0F170
:1014A00008042068082833D310F0070F30D1C04655
:1014B000C0461848416809B18C4203D2616044605B
:1014C00017E019464B680BB1A342FAD30B68CD184D
:1014D000AC421BD3A54204D12268D2180A600C4644
:1014E00007E04A681AB1236823449A420ED3626027
:1014F0004C60616851B12268A3188B4206D1002369
:10150000036008688018206048686060C046C04674
:1015100031BD0000601500201B4213D1094236D1B5
:101520002AB18446B0FBF2F002FB10C2704700F013
:10153000DBBCFCD30022002370470B00020000211B
:1015400000207047904271EB030CF6D370B5B1FAEE
:1015500081F4B3FA83F52C1BA340C4F1200532FAC1
:1015600005F63343A2405FF00046E64002E05B0828
:101570005FEA3202841A71EB030524BF2046294634
:101580007641F4D302000B003000002170BD012A27
:10159000CFD970B5140C20D0B1FA81F4B2FA82F52B
:1015A000C4F120046419B4F12006D6D3B2405FF030
:1015B0000044F440002502E052085FEA3303C61AF3
:1015C00071EB020E24BF3046714664416D41F3D386
:1015D00002000B002000290070BD0C46B1FBF2F1A7
:1015E00002FB11452D0445EA1045B5FBF2F402FB60
:1015F000145580B240EA0545B5FBF2F002FB1052EB
:1016000040EA044070BD30B4436803F00042012159
:10161000C3F313034360002B04BF0368002B08D1FE
:101620000DE00368DD0F45EA440444605B0003609D
:10163000491E4468E302F4D5C4F3130343604368CE
:101640001A434260084630BC704700004FF4001C4B
:101650001CEB410F94BF1CEB430F09E041EA030C64
:1016600050EA4C0C52EA0C0C03D2994208BF90424B
:10167000704714BF8B428242704700004FF4001C39
:101680001CEB410F94BF1CEB430F09E041EA030C34
:1016900050EA4C0C52EA0C0C03D28B4208BF824237
:1016A000704714BF994290427047000070B50446DD
:1016B0000D466068C0F30A5040F2FF71884207D1BE
:1016C0006068000304BF2068002817D0022070BDA6
:1016D00020B92046FFF797FF012866DA012D0FDBBE
:1016E00040F2FF71091A8D420AD36068002847BF93
:1016F00000202F4900202F49C4E90001012070BDBE
:101700004142A942616806DA6FF31E51401941EA6D
:101710000050606040E0401E63684519012205F1F9
:10172000350062F31F53352801F00041636003D395
:1017300061600020206070BD002015F11F0F04DAE9
:10174000206823600022203562606A4212D0401E69
:1017500025688041C2F12003C0439D4045EAD07016
:1017600025686668D54006FA03F32B432360636857
:10177000D340636062680A43B0F1004F626003D8EF
:101780000DD12078C0070AD52068401C2060206851
:1017900028B96068401C60604FF0FF3070BD606821
:1017A000884204BF20680028F6D1002070BD00BF29
:1017B0000000F0FF0000F07FF446400D40EAC12039
:1017C000490006D200F014F8004248BF6FF0004014
:1017D000604700F00DF84FF0004188428CBF08468A
:1017E00040426047400D40EAC120490080F00D8032
:1017F00040F00040490DA1F58061491C05D4D1F1AC
:101800001F0154BFC840C01770474FF00000704719
:10181000010040F10980F446404200F005F851F023
:1018200000416047010000BF09D0B0FA80F1884054
:10183000C91CC1F58461090501EBD0214005704741
:10184000F0B44FF0004591EA030F44BF6B4000F045
:101850004DBB00BF841A71EB030604D26E40001B1F
:10186000B141121973414FF4001C1CEB410F34BFFE
:101870007CEB430684E00C0DA4EB1356362E7DDC86
:10188000012E43DC45EAC32343EA525312BFD2027E
:1018900092025B08240545EAC12141EA5051D2EB8E
:1018A000C020994125D407D1B0FA80F610FA06F18C
:1018B00064D00020203608E0B1FA81F6B140C6F1CC
:1018C000200220FA02F21143B0404FEAF474B4EB64
:1018D000465434F001064FEA74040AD8D6F50016CF
:1018E000760D04F00044F04061FA06F25040F140F9
:1018F0004840C00A40EA415021F0004128BF5FEA59
:10190000500550F1000044EBD12137E045EAC323F4
:10191000DB0A45EAC121C90AB6F120050EDD42EA1B
:101920000242120CC5F1200603FA06F6EB4042EA29
:1019300006056D42984161F100010DE062FA06F57D
:10194000F240554063FA06FC82EA0C02F3405A402A
:101950006D42904161EB030111F4801F05D1641EBB
:10196000620502D06D004041494121F480114308D5
:1019700075F1004350F1000041EB0451F0BC704799
:101980001CEB410F15D223F0004352EA43060BD063
:101990004FEA4C0CBCEB410F04D80C0D661E342EE4
:1019A000B7DDEBE7801A994150EA410608BF0021F4
:1019B000E4E708BF1CEB430F28BF6FF00001DDE731
:1019C000B0B581EA030C0CF0004C40F2FF7515EA4B
:1019D00011541DBF15EA1357AC42AF4239E0E41968
:1019E00023EA455343F48013C90241F0004141EA20
:1019F000505EC7021100A7FB020200284FF0000052
:101A0000EEFB01204FF00001E3FB072118BF42F07D
:101A10000102401800214941E3FB0E01A4F5806456
:101A20000F0302D252004041494154F101046CDDE0
:101A3000470872F1004250F1000051EB0451A1F54A
:101A400080115CBF41EA0C01B0BD4CEA0551002099
:101A5000B0BD05EA1357AC4214BFAF4241E050EAB3
:101A6000410E1CBF52EA430E02E061460020B0BDA9
:101A700024423C441BD15FEA070EF6D0090302BFA3
:101A800001460020AEF1140EB1FA81F7AEEB070467
:101A900001FA07FE0C37C7F1200100FA07F7C8402A
:101AA0004EEA000E23EA455343F48013A2E733F0D5
:101AB0000043B3FA83F704BFB2FA82FE77440B3FC8
:101AC000E41BB7F1200E2FBF02FA0EF3BB40C7F1A3
:101AD000200E22FA0EFE38BF43EA0E03BA40641C01
:101AE00082E750EA410E14BF52EA430E6FF0000144
:101AF0004FF4001717EB430F8ABF194617EB410F3E
:101B0000B5E74CEA05510020B0BDD4F10104B4F1B1
:101B100020070FDAC4F12007520828BF42F0010263
:101B200010FA07F501FA07F7E1BF2A43E04038430E
:101B3000E1400FE0352C98DCC7F1200452EA400266
:101B400020FA07F218BF42F0010231FA07F0A14073
:101B50000A43002172F1004250F1000051EB0C01E8
:101B6000B0BD00002DE9F04140F2FF7581EA030CA1
:101B70000CF0004C15EA11541DBF15EA1357AC4286
:101B8000AF42E9E0BC41C1F31301C3F31303801A70
:101B9000994143F4801304D2641E400049418018E7
:101BA0005941C90241EA5051B1FBF3F603FB16114A
:101BB000A2FB0675D7EBC020A94102D2761E801881
:101BC0005941C90241EA5051B1FBF3FE03FB1E111A
:101BD000A2FB0E75D7EBC020A94103D2AEF1010ED6
:101BE00080185941890241EA9051760546EA8E2EC5
:101BF000B1FBF3F603FB1611A2FB0675D7EB8020B1
:101C0000A94102D2761E80185941C90241EA5051B9
:101C10004EEA060EB1FBF3F603FB1611A2FB0675A6
:101C2000D7EBC020A94102D2761E80185941C902C3
:101C300041EA5051B1FBF3F703FB1711A2FB073543
:101C4000D3EBC020A94167F100070CBF004247F069
:101C5000010766F3D5274FEA1E31B80814F58064F2
:101C600014DDBD0775F1004250EB0E5051EB0451ED
:101C700011F5801F5CBF41EA0C01BDE8F0814CF01A
:101C80007F6141F0E0410020BDE8F081BD076D08B3
:101C900040EA0E5041F48011D4F10104B4F1200661
:101CA0000ADAC4F120060200E04001FA06F3E1403E
:101CB0001843B24015430EE0342C14DCC6F1200466
:101CC00045EA40056D0820FA06F2154321FA06F0B0
:101CD000A1400D43002175F1004250F1000051EB8D
:101CE0000C01BDE8F08100205FEA0C01BDE8F08145
:101CF000CFB992185B41B3FA83F704BFB2FA82F608
:101D0000BF190B3FB7F120062FBF02FA06F3BB4005
:101D1000C7F1200622FA06F638BF3343BA401CB199
:101D2000E419641E2FE77F4231F00041B1FA81F4DB
:101D300004BFB0FA80F6A4190B3CB4F120062FBF03
:101D400000FA06F1A140C4F1200620FA06F638BFD9
:101D50003143A0403C1B16E7AC421ABF05EA1357BB
:101D6000AF4214E050EA41061CBF52EA4306BFE707
:101D700050EA4107304661461CBF41EA0551BDE8C3
:101D8000F08152EA430C08BFC143BDE8F081002056
:101D90004FF4001616EB410F98BF16EB430F08BF28
:101DA00016EB410F24BFC14305E016EB430F0CBFF8
:101DB00061464CEA0551BDE8F081000080B513484A
:101DC00000F0FEF80FF24C020FF244010160426293
:101DD00041600FF24402826381600FF24402C160ED
:101DE0000161416181618162C16201634163C263DA
:101DF0000164416401BD10B5044800F0E1F80446F7
:101E0000206808B9FFF7DAFF204610BD8C000020DB
:101E1000000000002E00000066616C736500000089
:101E2000747275650000000091FBF2F303FB121160
:101E3000C0E900317047000010B50446DFF8180013
:101E400000F0BEF850F8240010BD80B5DFF808009F
:101E500000F0B6F8806902BD1C01002030B430B932
:101E60000FF24800D0E90045C2E900451BE00170CF
:101E7000012030BC704730B431B90FF23800D0E9DE
:101E80000045C3E900450EE01AB930BC6FF001000F
:101E9000704708B10A7802800978481E804130BC3A
:101EA000C043C00F7047002030BC704700000000E6
:101EB0000000000000000000000000000749086862
:101EC00008B1002070470648C008C00008600549F6
:101ED000C908C900091A0160704700BF74150020C5
:101EE0008F0500208807002070470000841A71EBDE
:101EF000030603D2001BB141121973414FF4001CB9
:101F00001CEB410F34BF7CEB430443E00C0DA4EB0E
:101F10001356352E50DC45EAC323DB0A45EAC121BE
:101F2000C912B6F120050DDD63FA05F6EB4086EA2D
:101F30000305124218BF45F00105C01851F1000118
:101F40000CD213E062FA06F5F2405540F3415A40D4
:101F5000B340F3405A408018594107D349085FEA1B
:101F600030005FEA350528BF45F0010501F5801115
:101F7000420875F1004250F1000041EB0451F0BC01
:101F80004FF4001C1CEB410F38BF70470020090DB7
:101F9000090570471CEB410F10D252EA43060BD0E3
:101FA000BCEB410F05D80C0DAB43661E342EB5DDDE
:101FB00002E0AB4380185941F0BC7047F0BC704759
:101FC000704700002DE9F04100F0B2F9DFF870052C
:101FD000DFF87045DFF87055DFF87065DFF8707571
:101FE00000F007FB0220E070002210202071042185
:101FF00000206071A071607041F294180820607038
:10200000284600F067FC00224FF48051304600F073
:1020100061FC01224FF40061304600F05BFC0122BC
:102020004FF48061304600F055FC4FF48051384643
:1020300000F04CFC782000F0DCFA4FF48051384678
:1020400000F046FC782000F0D4FA404600F0D1FAC7
:1020500000220421284600F03DFC00224FF480516C
:10206000304600F037FC01224FF40061304600F0AA
:1020700031FC01224FF48061304600F02BFC4FF41C
:102080008051384600F022FC782000F0B2FA4FF47C
:102090008051384600F01CFC782000F0AAFA404637
:1020A00000F0A7FA00220421284600F013FC0022C9
:1020B0004FF48051304600F00DFC01224FF40061D6
:1020C000304600F007FC01224FF48061304600F0FA
:1020D00001FC4FF48051384600F0F8FB782000F006
:1020E00088FA4FF48051384600F0F2FB782000F077
:1020F00080FA404600F07DFA00220421284600F0D4
:10210000E9FB00224FF48051304600F0E3FB01224E
:102110004FF40061304600F0DDFB00224FF4806197
:10212000304600F0D7FB4FF48051384600F0CEFB2C
:10213000782000F05EFA4FF48051384600F0C8FB7A
:10214000782000F056FA642000F053FA607840F0EE
:10215000200000F03AF9642000F04BFA04202070CF
:102160000C2000F032F9642000F043FA012000F066
:102170002CF940F6B83000F03CFA642000F039FA4F
:102180000220A0704FF40061384600F0A1FB00204F
:1021900000F02BF9062000F028F942F2107000F050
:1021A00028FA4FF40061384600F092FB042000F05A
:1021B0001CF9002000F019F94FF40061384600F0D6
:1021C00085FB012000F011F90F2000F00EF94FF40B
:1021D0000061384600F07AFB012000F006F901208A
:1021E00000F003F94FF40061384600F06FFB012066
:1021F00000F0FBF8012000F0F8F84FF400613846D9
:1022000000F064FB012000F0F0F8012000F0EDF890
:102210004FF40061384600F059FB012000F0E5F86A
:10222000012000F0E2F84FF40061384600F04EFB68
:10223000012000F0DAF8012000F0D7F84FF4006137
:10224000384600F043FB012000F0CFF8012000F0F9
:10225000CCF84FF40061384600F038FB012000F064
:10226000C4F80F2000F0C1F84FF40061384600F0C8
:102270002FFB042000F0B9F8082000F0B6F84FF466
:102280000061384600F022FB012000F0AEF80F207C
:1022900000F0ABF84FF40061384600F017FB012066
:1022A00000F0A3F80F2000F0A0F84FF400613846CA
:1022B00000F00CFB012000F098F80F2000F095F8DA
:1022C0004FF40061384600F001FB012000F08DF86A
:1022D0000F2000F08AF84FF40061384600F0F6FA5B
:1022E000012000F082F80F2000F07FF84FF4006129
:1022F000384600F0EBFA012000F077F80F2000F0EC
:1023000074F84FF40061384600F0E0FA012000F064
:102310006CF80F2000F069F84FF40061384600F0C7
:10232000D5FA012000F061F8BDE8F0410F205CE033
:1023300070B582B00121342000F06AFB03208DF8D3
:10234000020010208DF803004FF41840ADF8000093
:102350006946DFF8FC41DFF8F451DFF8EC61204614
:1023600000F04EFA4FF4E050ADF800006946284600
:1023700000F046FA0420ADF800006946304600F04F
:102380003FFA4FF40041204600F0A0FA4FF40061FC
:10239000204600F09DFA4FF48051204600F098FA54
:1023A0004FF48061284600F093FA4FF4006128460C
:1023B00000F08EFA4FF48051284600F089FA04218B
:1023C000304600F085FA02B070BD10B504464FF4F7
:1023D0000061DFF87C0100F07BFA200900F005F8CD
:1023E00004F00F00BDE81040FFE730B504462107B8
:1023F0004CBF0122002281B05348544D042100F00B
:1024000069FA60074CBF012200224FF48051284630
:1024100000F060FAA0074CBF012200224FF40061D7
:10242000284600F057FAE0074CBF012200224FF483
:102430008061284600F04EFA454C4FF4805120460A
:1024400000F044FA782000F0D4F84FF48051204690
:1024500000F03EFA01B0BDE83040782000F0C9B885
:102460002DE9F0480FF2EC05364E2B68DFF8E0B0AE
:10247000707182B014460093F378994228BF00210E
:10248000B1711DF80110081840F08000C0B2FFF7CC
:102490009CFF0FE04FF40061584600F017FA38092E
:1024A000FFF7A3FF07F00F00FFF79FFF7079401CB5
:1024B0007071641C207800283FD07079317988428F
:1024C00012D3002070712A68B0790092401CF27813
:1024D000C1B2914228BF0020B071C0B21DF8000007
:1024E00040F08000FFF771FF27780A2F14D12B6886
:1024F000B07971790093401CF378C2B29A4228BF38
:102500000020B071C0B21DF80000401840F08000FB
:10251000C0B2FFF75AFFCCE70D2FBBD12A68B079C4
:102520000092F278904228BF00200021B0717171B2
:102530001DF8000040F08000EBE702B0BDE8F08835
:10254000A086010058150020001401400010014031
:10255000000801400040145410B5A24CA068401C73
:10256000A060E068401CE0602088010004D10920E0
:10257000208000F08FFA01E0401E2080608801007A
:1025800004D16320608000F0EEFA01E0401E60801C
:10259000A088010006D140F2E730A080BDE81040DD
:1025A00000F02FBB401EA08010BD8E488068704791
:1025B0008C49CA68CB689B1A8342FBD370470000E2
:1025C000B0B100F00301002904D000BF00BF491ED4
:1025D0000029FAD1800800280AD000BF00BF00BF40
:1025E00000BF00BF00BF00BF00BF401E0028F4D1E5
:1025F000704710B5040004D00B20FFF7E1FF641E04
:10260000FAD110BD00B581B04FF4407000F0FCFB72
:1026100006208DF8000002208DF8010000208DF8C2
:10262000020001208DF80300684600F0F2FB07204D
:102630008DF8000003208DF8010000208DF80200C5
:1026400001208DF80300684600F0E3FB25208DF89B
:10265000000004208DF8010000208DF80200012008
:102660008DF80300684600F0D4FB26208DF80000AA
:1026700005208DF8010000208DF8020001208DF862
:102680000300684600F0C5FB27208DF800000620F7
:102690008DF8010000208DF8020001208DF8030064
:1026A000684600F0B6FB00214FF0006000F0DFFB51
:1026B00001B000BD70B582B001211D2000F0A8F965
:1026C00001214B484B4D4C4C4C4E00F008F9012079
:1026D0008DF80200694610208DF803004FF4407019
:1026E000ADF80000284600F08BF84FF480702861A8
:1026F00069464FF40070286101208DF802004820DF
:102700008DF803003820ADF80000284600F078F876
:1027100001208DF80200694648208DF8030007204B
:10272000ADF80000204600F06BF801208DF80200A3
:10273000694610208DF80300C020ADF80000304637
:1027400000F05EF801208DF80200694610208DF837
:1027500003000320ADF80000284600F051F84020A7
:1027600070616946802070610120686102206861A3
:1027700001208DF8020010208DF803000820ADF82C
:102780000000204600F03CF80820606102B070BDF7
:1027900010B5154C204600F0FAF820684FF47A7115
:1027A000B0FBF1F0401EB0F1807F08D20F494860C5
:1027B000F02081F8130D002088600720086000F0E9
:1027C0006BFBFFF777FFFFF7FDFB00F011FCFFF756
:1027D00019FF00F004FD00F029FEBDE8104000F0F4
:1027E000B1BE0000000000204415002010E000E011
:1027F00000023000000C01400010014000080140C0
:102800002DE9F041CC78002204F00F03E40644BF28
:102810008C7823430C88E5B225B3D0F800C001259D
:102820005FF00F0605FA02F707EA0408B84514D16D
:102830004FEA820E06FA0EF82CEA080C03FA0EFE96
:102840004EEA0C0C91F803E0BEF1280F08BF476177
:1028500003D0BEF1480F08BF0761521C082AE1D31C
:10286000C0F800C0FF2C28DDD0F804C000220125EC
:102870005FF00F0602F1080705FA07F707EA0408F8
:10288000B84515D14FEA820E06FA0EF82CEA080C6C
:1028900003FA0EFE4EEA0C0C91F803E0BEF1280F8D
:1028A00008BF476191F803E0BEF1480F08BF076118
:1028B000521C082ADED3C0F804C0BDE8F08180684D
:1028C0000022084218BF012210467047016170477C
:1028D00041617047002A14BF01614161704770B4C3
:1028E0001F4A00284CBF9469146800F44016B6F5DE
:1028F000401FC0F3034583B206D1156825F070650B
:1029000024F0706415600CE0C60203D5032606FAB5
:1029100005F503E0450D2D0103FA05F5AC4344F040
:10292000706421B1410D090103FA01F10C43002843
:102930004CBF9461146070BC704730B4094B8A007E
:1029400021F0030102F00C025C580F259540AC43C6
:102950005C5090405C582043585030BC7047000099
:102960000400014008000140414900220A7001288A
:102970000A7002D0042801D10520087070473C4934
:102980000A681043086070473A4908607047374941
:102990000A6802F00C02082A0FD10A680B68C2F319
:1029A0008342921CDB0358BF334B04D50B689B0357
:1029B0004CBF314B314B5A4300E0304A02600B6848
:1029C0002F4AD0F800C0C3F30313D35C2CFA03FCE6
:1029D000C0F804C00B68D0F804C0C3F30223D35C72
:1029E0002CFA03FCC0F808C00B68D0F804C0C3F38D
:1029F000C223D35C2CFA03FCC0F80CC00968C3687E
:102A0000C1F381311144097CB3FBF1F101617047DD
:102A10001C4A0029116814BF084321EA0000106015
:102A20007047194A0029116814BF084321EA0000C1
:102A30001060704715490860704741090A4A01292A
:102A400008BF116803D002290CBF116A516A00F057
:102A50001F00C14001F0010070470D48016841F0BE
:102A600080710160704700000010024004100240B5
:102A7000201002403C04424200093D0000127A004E
:102A800074000020181002401C1002404004424212
:102A90002410024070B500F0FFFEDFF8B402018898
:102AA00011B10188491E01800121DFF8A852DFF829
:102AB000A862DFF8A8422846FFF701FF38B9A08ACC
:102AC000411C0328A182B4BF0020012001E00020A6
:102AD000A082307002212846FFF7F1FE38B9E08A63
:102AE000411C0328E182B4BF0020012001E0002046
:102AF000E08270702188DFF8680229B12188491EC0
:102B000021804021016001E040214160618829B1BC
:102B10006188491E61808021016001E0802141605F
:102B2000A18831B1A188491EA1800121C0F80014FB
:102B300002E00121C0F80414E18831B1E188491EA6
:102B4000E1800221C0F8001402E00221C0F8041460
:102B5000208928B12089401E20810820286170BD6D
:102B60000820686170BD7D48018C11B1018C491E3F
:102B700001847C490A7813001CBF521E0A70418CE4
:102B800011B1418C491E4184017F012938D1816AEC
:102B9000754A1388002904D1B3F57A7F05DD012138
:102BA00003E0B3F5617FB8BF00218162C9B271B1A2
:102BB000142181800021818441776C490978F9B919
:102BC000118840F2A46291421ADA142117E0417F81
:102BD00009B1002113E06549097871B914214180D8
:102BE000818C4A1C8284624AD28A914208D3002195
:102BF000818401214177002101E00021818441800D
:102C000070475C48016881F40071016070472DE9EC
:102C1000F04F8DB00FF2D41200210020FFF720FCFE
:102C20000FF2D81201210020FFF71AFC684600219C
:102C30000022002300264EC04D48484E428843A142
:102C4000684601F04DF86A4601210A20FFF708FCAA
:102C50000120002400253077474FDFF82081DFF87E
:102C6000F890DFF81CA12CE0022808BFF177F1846E
:102C700098F80000012809D10020424988F8000096
:102C80000870B07F10B901208AF800009AF800009F
:102C900008B100F068FE04A800F076F904A8B0E8D6
:102CA0000E50A7E80E50B0E80E10A7E80E1001F085
:102CB000CDF9243F00F024FA18B900F02BFA01F006
:102CC00071FAFFF772FC8346BBEB040008D49AF854
:102CD00000000BF10A0408B901F0FEFA01F004FA51
:102CE000BBEB0500E6D499F80000F08C411C1E28CF
:102CF0000BF16405BBDBF07F0021020002D1012053
:102D0000F077B4E70128AFD10220F077AFE712489F
:102D10000078704710484078704710B501F02EFADF
:102D200028B9194C01F032FA2080208810BD42F2F7
:102D30000F7010BD10B5144C03E000BF01F026FA6F
:102D4000208001F01BFA0028F8D010BD2564000097
:102D5000240000200010014078150020C01400203D
:102D6000100801407D150020241400209C14002030
:102D70002C1500200C0C0140EC1400201400002045
:102D800020000020100000207A15002000B581B03E
:102D9000FFF7FEFC0FF22C0200210020FFF760FB82
:102DA0000FF2340201210020FFF75AFB4FF4FA60C2
:102DB000FFF7FEFB00F052FBFFF729FF002001B0F8
:102DC00000BD00004461776F6F6E203230313730C4
:102DD0003932372000000000576174657220496E57
:102DE00074616B65202020200000000044575F576D
:102DF000617465725F496E74616B650032303137A2
:102E00002E30392E323200001C4908431C4908601C
:102E1000704770B40378C4781A460121ECB1184B9E
:102E20001B68447803F4E063C3F5E0631B0AC3F155
:102E30000405AC4085780F26DE4006EA05032343EF
:102E4000104C1B01A354007800F01F0291400E4A61
:102E5000400942F8201070BC704703F01F0001FACF
:102E600000F00A49520941F8220070BC7047084A34
:102E70001140084307490860704700000000FA0548
:102E80000CED00E000E400E000E100E080E100E0A3
:102E900080FFFF1F08ED00E0F0B58FB0042001F0C7
:102EA0003EFC4AF2A554A0421FD000F02EF8344850
:102EB00075214161012101610221C160012181600F
:102EC0004160016005A9ECC8ECC16CC86CC105A9E2
:102ED00084B068462422FEF7B3FA0FBC00F03FF836
:102EE0002146042001F00FFC0AE07B20FFF7A5FD3E
:102EF00010B97A20FFF7A1FD01F04CFC01F042FC73
:102F00000FB0BDE8F040FFF7A8BD00B581B00121CA
:102F10004FF0C050FFF785FD012001F04BFC01F0A0
:102F2000E7FB0120FFF720FD4120FFF786FD002889
:102F3000FAD04FF48070FFF722FD0120FFF724FD47
:102F400001F028FC01F01EFC01F01CFC47F6FF70AC
:102F500001F008FC01B05DF804EB01F013BC0FB404
:102F600010B501F00FFC02A8064C01F029FC20600E
:102F7000206801F0E9FB01F005FC10BC5DF814FBD2
:102F8000EC1400207015002070B58AB0044601F0E2
:102F9000D5FB694601F047FC68466EC86EC42EC872
:102FA0002EC40AB070BD00B589B001F0C7FB6946F8
:102FB00001F039FC059A04990398643A48BF00224D
:102FC000490141EA4221084380B209B000BD00B581
:102FD00089B001F0B3FB694601F025FC0298C0EB13
:102FE0000011019800EB810080B209B000BD000023
:102FF00000B583B001210420FFF70AFD0320ADF8DE
:10300000080002A948208DF80B002F48FFF7F8FBB5
:1030100001210120FFF7FCFC00210020FFF78DFCBF
:1030200001210020FFF789FC0120009000208DF88D
:10303000040010208DF8050001208DF80600684678
:1030400001F04EFC0220009000208DF804001020BA
:103050008DF8050001208DF80600684601F040FC5F
:1030600003B000BD00B581B0012001F06DFC48B196
:1030700016480168491C01B0016001205DF804EBAD
:1030800001F06DBC01B000BD00B581B0022001F0BF
:103090005BFC48B10E480168491C01B00160022088
:1030A0005DF804EB01F05BBC01B000BD08480068AE
:1030B000704707490020086070470448006870475F
:1030C0000249002008607047000801406C1500208C
:1030D000681500209548D0F80014D0F80404814207
:1030E0000CBF0120002070479049D1F80424885C6F
:1030F000521CB2F5806F08BF0022C1F8042470474B
:103100008B48D0F80014D0F8040481420CBF012091
:10311000002070478649D1F80424885C521CB2F51F
:10312000806F08BF0022C1F80424704730B57E4C80
:1031300040F2255581B02946204601F09AFC98B10D
:103140002946204601F0B4FC204601F087FC77496F
:10315000D1F800248854501CC1F80004B0F5806FE9
:1031600004BF0020C1F8000401B030BD30B5714C7F
:1031700040F2255581B02946204601F07AFC60B125
:103180002946204601F094FC204601F067FC01B07E
:10319000BDE83040C0B201F0F2BC01B030BD30B586
:1031A000654C40F2255581B02946204601F061FC6E
:1031B00098B12946204601F07BFC204601F04EFCE8
:1031C0005B49D1F800248854501CC1F80004B0F5C4
:1031D000806F04BF0020C1F8000401B030BD70B59D
:1031E00086B001214FF48040FFF712FC01214FF41B
:1031F0000030FFF716FC01214FF48020FFF711FC8F
:1032000001210C20FFF704FC4FF40070ADF8000022
:1032100002208DF8020018208DF803006946474C03
:103220002046FFF7EDFA02208DF802004FF480658A
:1032300004208DF80300ADF8005069462046FFF7E2
:10324000DFFA0420ADF80000694602208DF8020084
:1032500040F2255618208DF803002046FFF7D0FADB
:103260000820ADF80000694602208DF80200042015
:103270008DF803002046FFF7C3FA02208DF8020004
:1032800018208DF80300ADF8005069462C4C264DEF
:103290002046FFF7B5FA4FF40060ADF8000069462C
:1032A00002208DF8020004208DF803002046FFF76D
:1032B000A7FA00200290ADF80C00ADF810004FF412
:1032C00016540C20ADF80E00019401223146284618
:1032D00001F0A8FB01A9284601F04AFB012128467C
:1032E00001F096FB4FF4964001900122114D3146BA
:1032F000284601F097FB01A9284601F039FB01217E
:10330000284601F085FB019401220B4C31462046F2
:1033100001F088FB01A9204601F02AFB012120468B
:1033200001F076FB06B070BD003801408807002030
:10333000900B00200044004000480040000801407D
:10334000000C014030B581B004460D4609E020462E
:1033500001F080FB8021204601F084FB0028F9D099
:103360006D1C29780800F2D101B030BD00B581B0E4
:1033700002220621684600F01BFABDF80000C828AA
:10338000A4BF0020ADF80000BDF8000001B000BDF2
:1033900000B581B002220621684600F009FABDF8A6
:1033A0000000C828A4BF0020ADF80000BDF8000050
:1033B000401CADF80200BDF80200C928A4BF0020DF
:1033C000ADF80200022206210DF1020000F036F9EC
:1033D00001B000BD30B587B0494CC8256846002112
:1033E000002200230EC00EC021881822684600F07B
:1033F000DFF9BDF8000000281CBFBDF8050000285B
:103400000DD09DF8170050B19DF8020040F001006A
:103410008DF8020018222188684600F00FF9A41CDC
:103420006D1EDBD107B030BD0000000034484FF402
:1034300080710180018818314180001D5FF04201D8
:1034400030F8022C183202800288183242804288FA
:1034500018328280801D491EF2D17047F0B5294C88
:1034600087B018221021204600F0A2F9208841F2EE
:103470002715A8422AD00120608025803220E080D4
:1034800000210A20A08000226420208100234FF424
:1034900016706081002641F27070A0816846184F56
:1034A0000EC00EC0ADF80060182237F8021B684647
:1034B00000F0C4F8761CC82EF4DB258018221021F9
:1034C000204600F0BBF80FF2400201E00FF260026C
:1034D00000210020FEF7C4FF0FF24002012100206E
:1034E000FEF7BEFF4FF47A70FFF762F807B0F0BD49
:1034F000044841F2271101801822102100F09EB8E3
:10350000980F00202C150020454550524F4D204467
:10351000454641554C54202000000000205761745E
:1035200065722057656967687420202000000000DC
:10353000454550524F4D204F4B2020202020202029
:103540000000000030B587B001211C20FFF760FAB1
:1035500001214FF48040FFF764FA4FF46040ADF86A
:10356000000018208DF8030003208DF80200694642
:10357000DFF81443DFF814532046FFF741F94FF406
:103580008050ADF80000694610208DF803002046F9
:10359000FFF736F94020ADF80000694610208DF89D
:1035A00003002846FFF72CF940212846FFF78EF943
:1035B0004FF480512046FFF789F90020ADF8040050
:1035C0004FF48270ADF8060000200290ADF80C00B8
:1035D0004FF40070ADF80E000820ADF81000002088
:1035E000ADF812000720ADF8140001A9DFF8A052D1
:1035F000284601F0EBFA0121284601F003FB4FF4C5
:1036000080512046FFF764F90221284601F008FBAB
:103610000028F9D00621284601F0FEFA01212846AB
:1036200001F0FEFA0028F9D0284601F0F7FA4FF42D
:1036300080512046FFF74AF907B030BD2DE9F0432D
:1036400006460F46DFF8408281B014464FF48051A1
:103650004046FFF73DF9DFF838920221484601F075
:10366000DFFA0028F9D00621484601F0D5FA0121F9
:10367000484601F0D5FA0028F9D0484601F0CEFAC4
:103680004FF480514046FFF721F94FF480514046F6
:10369000FFF71EF90221484601F0C2FA0028F9D0CE
:1036A0000221484601F0B8FA0121484601F0B8FA73
:1036B0000028F9D0484601F0B1FA3D0402214846FD
:1036C00001F0AEFA0028F9D0290E484601F0A4FA1C
:1036D0000121484601F0A4FA0028F9D0484601F03B
:1036E0009DFA0221484601F09BFA0028F9D0F9B270
:1036F000484601F091FA0121484601F091FA00286C
:10370000F9D0484601F08AFABCB13778641E02212C
:10371000484601F085FA0028F9D03946484601F0BC
:103720007BFA0121484601F07BFA0028F9D048468F
:1037300001F074FA761C002CE7D14FF4805140461A
:10374000FFF7C4F84FF480514046FFF7C1F802215B
:10375000484601F065FA0028F9D00521484601F0F5
:103760005BFA0121484601F05BFA0028F9D048468F
:1037700001F054FA0221484601F052FA0028F9D02B
:103780000021484601F048FA0121484601F048FA74
:103790000028F9D048463F4E01F040FA30704FF40F
:1037A00080514046FFF792F8307801B0BDE8F083D1
:1037B0002DE9F04304460D46DFF8CC9081B0164663
:1037C0004FF480514846FFF783F8DFF8C4800221A8
:1037D000404601F025FA0028F9D00321404601F0C7
:1037E0001BFA0121404601F01BFA0028F9D040469F
:1037F00001F014FA2F040221404601F011FA0028CA
:10380000F9D0390E404601F007FA0121404601F097
:1038100007FA0028F9D0404601F000FA022140469C
:1038200001F0FEF90028F9D0E9B2404601F0F4F9C0
:103830000121404601F0F4F90028F9D0404601F09A
:10384000EDF9300017D0761E0221404601F0E8F96C
:103850000028F9D00021404601F0DEF90121404660
:1038600001F0DEF90028F9D0404601F0D7F9002E2A
:1038700004F8010BE7D1484601B0BDE8F0434FF42E
:103880008051FFF723B80000000C014000100140F8
:10389000003800407C15002030B5DFF8945381B02B
:1038A00020212846FFF70BF8DFF8884378B9207904
:1038B00050B9207B411C6428217305DB0020207255
:1038C0002073012020710CE00120207209E0207A91
:1038D000012804D1002020722078401C2070002094
:1038E000207310212846FEF7EAFF78B9607950B9B5
:1038F000607B411C6428617305DB0020607260738B
:10390000012060710CE00120607209E0607A0128FA
:1039100004D1002060726078401C607000206073E9
:1039200008212846FEF7CBFF88B9A07958B9A07BBB
:10393000411C6428A17306DB0020A072A073012043
:10394000A07101B030BD0120A07201B030BDA07ADD
:10395000012804D10020A072A078401CA070002093
:10396000A07301B030BD30B5B24C99B0A08A002828
:1039700040F03981207C01286DD12021AC48FEF730
:103980009EFF012804BF607C002815D14FF496707B
:10399000FEF70EFE01206074002020712070607818
:1039A000002804BF6079002825D0E07C401CE0742A
:1039B0000020607060712AE0207960B1607C01288D
:1039C00009D10020207120746074A074E074142068
:1039D000A08219B030BD20780028E0D0607C01289A
:1039E000DDD10020207002202074002060740520AA
:1039F000A08219B030BDA078002804BFA0790028AB
:103A000005D0E07C401EE0740020A070A071E07C36
:103A1000022815DA0120E0746846E27C0FF21C21CE
:103A200000F05EF96A4600210020FEF719FD00F063
:103A3000DDF88148E17C30F811200FF20821CAE05E
:103A4000E07C0C28E8DB00202074E074A074207176
:103A5000207019B030BD207C022840F0C480744D25
:103A600020212846FEF72BFF012804BF607C002898
:103A700008D10220A08201206074002020712070F3
:103A800019B030BD2078E8B1607C01281AD100203F
:103A900020702071607401202074FFF729FD02203E
:103AA000A082002060706071A070A071E07C401C5A
:103AB000E074E07C0C28C0F2968000202074E07452
:103AC00019B030BD10212846FEF7F9FE012803D1B8
:103AD0000020607160733EE0607940B30020607048
:103AE000E08A411C0328E18235DB0020E082E17C92
:103AF000E27C514830F8111004EB4202D28A323293
:103B0000914205DAE17C30F81120323220F81120A0
:103B1000E17CE27C30F8111004EB4202D28A91423F
:103B200019D3E17CE27C04EB4202D28A11E0607896
:103B300088B100206070E17CE27C3F4830F81110D1
:103B400004EB4202D28A914205D2E17C30F8112086
:103B5000521C20F8112008212846FEF7B0FE01284B
:103B600003D10020A071A07324E0A07998B10020B7
:103B7000A070E08A411C0328E1821BDB0020E08268
:103B8000E17C2D4830F81110322913DBE17C30F84C
:103B90001120323A0CE0A07860B10020A070E17CE6
:103BA000254830F8111029B1E17C30F81120521E5F
:103BB00020F81120E27C0FF2A001684600F090F896
:103BC0006A4600210020FEF74BFC1B48E17C30F8E0
:103BD00011200FF29801684600F082F86A46012130
:103BE0000020FEF73DFC19B030BD00001148C07C3C
:103BF000401E0A2816D8DFE800F006090C12120F42
:103C00001212121212000FF278020DE00FF280026F
:103C10000AE00FF28C0207E00FF2A40204E00FF2B8
:103C2000900201E00FF2A80200210320FEF718BC69
:103C3000000C0140100000202C15002025303264BB
:103C40003E000000202056616C7565203A2025302A
:103C50003364202000000000205365742056616CFE
:103C600075653A25303264202020000020205661FE
:103C70006C7565203A202530336420202000000038
:103C800041646472657373202020202020000000AE
:103C90005761746572446966662020202000000028
:103CA00057617465724469666654202020000000E4
:103CB0004E6F742075736520202020202020000086
:103CC00052655F456E7465725F54202020000000CD
:103CD0002323232323232323232323202000000023
:103CE0000CB41CB5044604A801900A46009401AB2C
:103CF0006946074878441830FCF7F8F9009A002123
:103D0000117000285CBF0098001B16BC5DF80CFB0E
:103D100087D5FFFF70B5DFF8A4438EB00020A4F86C
:103D20003801FFF7D7F9002840F01381FFF7DCF9DD
:103D30000A2840F00681002084F8340104F13400A0
:103D40000FF2A83100F073FF002800F0D980407A0C
:103D500084F8350194F835013038A4F83801B4F806
:103D60003801642880F2CC80B4F83801D44984F852
:103D7000360194F83F0084F8370194F836014988F9
:103D8000884211D194F83701412803D1CD4901204F
:103D9000087609E094F83701422805D094F83701F5
:103DA000432808BFFFF716FB0F2204F1430104F17B
:103DB0002400FDF735FB94F8240030384FF47A7175
:103DC00048436061642294F825006169303802FB41
:103DD0000010606194F826006169303800EB8002C1
:103DE00001EB4200606194F82700616930384018A7
:103DF000606194F82800303800EB800148002061B1
:103E000094F82900216930384018206194F82A007C
:103E1000303800EB80014800E06094F82B00E16846
:103E200030384018E06094F82C00303800EB800106
:103E30004800A06094F82D00A16830384018A060B8
:103E400094F82E00303800EB80014800606094F850
:103E50002F00616830384018606094F830003038C6
:103E600000EB80014800206094F831002168303870
:103E7000401820606069B0F5FC6F41DD20690128C1
:103E80003EDB20690D283BDAE068012838DBE0687A
:103E90002028BCBFA068192832DA60683D28BCBF62
:103EA00020683D282CDA6069A0F26C706061864859
:103EB00000F086FCC4F83C01204600F081FCC4F808
:103EC0004001D4F83C01D4F84011401A48BF4042A8
:103ED0003D2815DBFFF719F86ECC05A86EC02ECC77
:103EE0002EC005A984B068462422FDF7A9FA0FBCAC
:103EF000FFF735F84AF2A551042000F004FC243CF9
:103F00000FF2F41104F1340000F091FE80B16D481D
:103F10008178038801F0F001817018226B4931F833
:103F20001310FFF78BFB6A48016881F48071016010
:103F300004F134000EB0BDE870404FF4807100F021
:103F40008DBE94F834114A1C214484F8342181F840
:103F500034000EB070BD0FB410B55E4C8AB04FF493
:103F60008071204600F07AFEBDF84100BDF8303087
:103F70000FF290110990BDF845000890BDF83F0080
:103F80000790BDF83D000690BDF83B000590BDF8D8
:103F900039000490BDF837000390BDF83500029059
:103FA000BDF8330001909DF83200009044484288EB
:103FB0002046FFF795FE21464748FFF7C3F90AB0B0
:103FC00010BC5DF814FB0FB42DE9F0433C48DFF85A
:103FD0000481448841488BB090F80090FFF766F860
:103FE0000646FFF76AF807463D4805884FF480719A
:103FF000404600F033FE002009900895BFB2BDF89E
:1040000057000FF23C110790B6B2BDF85100049072
:10401000069705964B46BDF84F0003902246BDF823
:104020004D000290BDF84B0001909DF84A000090B1
:104030004046FFF755FE41462748FFF783F90BB08E
:10404000BDE8F0035DF814FB0000000070B51D4CE6
:1040500082B0207E01282ED10020207660830021AE
:10406000002207C407C4183C0025184E36F8021B6E
:1040700018222046FFF79CFBA078C00701D5658376
:1040800003E06D1CADB2C82DF0DB608B50B184B085
:10409000214668461822FDF7D3F90FBCFFF75BFFF6
:1040A00002B070BD84B00F4968461822FDF7B8F918
:1040B0000FBCFFF788FF02B070BD00002811002080
:1040C0002C15002010150020EC140020980F002063
:1040D0000C0C01406C120020003801409C140020A0
:1040E0009E1400208414002014E6000055726470B1
:1040F0003A3130303A00000073756363657366755A
:104100006C6C790024547275703D573A6125643A9D
:104110006225643A6325643A6425643A6525643A05
:104120006625643A6725643A6825643A6925643AE5
:104130006A25643A6B25643A6C25643A450A0D0099
:1041400024547275703D533A6125643A6225643A8D
:104150006325643A6425643A6525643A6625643AC1
:104160006725643A6825643A6925643A6A25643AA1
:104170006B25643A6C25643A450A0D005548416C3C
:10418000806C81420CBF01200020704751498A6C2D
:1041900001EB4200521C808B142A08BF00228A6463
:1041A000C0B27047F0B54B4CA27CE77C257D666CB5
:1041B0000021042A81B000F28580DFE802F0030DBF
:1041C00017213700022840F07F80012066642575A2
:1041D000E774A07401B0F0BD30380A2820D2022064
:1041E00066642575E774A07401B0F0BD30380A2804
:1041F00016D2032066642575E774A07401B0F0BD83
:1042000030380A280CD20420A074052104F10800DB
:1042100000F024FD002766642575E77401B0F0BD49
:1042200066642575E774A17401B0F0BDE2197F1CC6
:10423000FFB2052F107247DB207AA0F130020A2A64
:1042400003D2303842F210714143607AA0F130025B
:104250000A2A04D230384FF47A7202FB0011A07A95
:10426000A0F130020A2A03D23038642202FB001186
:10427000E07AA0F130020A2A04D2303800EB800242
:1042800001EB4201207BA0F130020A2A3CBF30380A
:104290004118B1F5803F15D2E08A228B824202D0CC
:1042A000208300250EE06D1CEDB2022D0ADB04EB2D
:1042B0004600761C142E818308BF00260020208330
:1042C000E08200250027A77466642575E77401B0B5
:1042D000F0BD000038140020F0B5CE4C87B0E08B64
:1042E00010B1E08B401E8EE1C94800886083CA4847
:1042F0000088A083207E062800F28681DFE810F087
:10430000070019004B00B900840109014701002092
:104310006086FEF7CEFEFEF7D3FE0020BB49608428
:10432000A084A0850880FEF705FD0120207607B057
:10433000F0BD608E411C0A286186C0F265810020B4
:104340006086FEF7B3FE0546A06BB44FA5632E1A38
:104350003000B98848BF404288420ADAE08DFA88C6
:10436000401C81B2914205D3022100202176208693
:1043700000E00020E08502A8E28D0FF2A821FFF7FF
:10438000AFFC02AA00210020FEF76AF833462A4655
:104390000FF2A421F1E0FEF7C0FC6084208E401CE7
:1043A0002086FEF783FE02460FF2A02102A8FFF747
:1043B00097FC02AA00210020FEF752F8112102A862
:1043C00000F04CFCFEF7A6FC0546FEF7A0FC0346F9
:1043D000208EA28C00956421B0FBF1F080B2019098
:1043E00002A80FF27C21FFF77BFC02AA012100202A
:1043F000FEF736F8608C42F20F71884200F00481BB
:10440000FEF785FC012804D0FEF784FC012840F06B
:10441000FB807E49814F4FF47A700880FEF749FE99
:10442000FEF74EFE608CA08400210320207600223F
:10443000002007C407C4183CFEF798FF20842080A2
:10444000FEF7B1FDA4F80500FEF7C1FDA4F80700D2
:10445000608CA4F803007888E07500F06FF9606361
:10446000608BA4F80F0007B0788920853889E08434
:10447000F0BD208D01001CBF401E2085208DE38CE7
:10448000A28C0FF2F811009002A8FFF729FC02AAF3
:1044900000210020FDF7E4FFFEF70FFE0546FEF7C2
:1044A00005FE00950346A28B0FF2E41102A8FFF768
:1044B00017FC02AA01210020FDF7D2FFFEF72DFC18
:1044C00042F20F71884260840ED05449A084498919
:1044D0002185B4F80310814202D00620207603E043
:1044E0004A494FF47A700880FEF711FC58B9FEF77C
:1044F00011FC40B9454908800520207607B047489F
:1045000080896085F0BD41494FF47A70088007B01A
:10451000F0BD608D010020D0401E6085FEF7FDFBE0
:1045200042F20F718842608419D0B4F80310A0845D
:10453000814212D1FEF7EBFB012803D0FEF7EAFB24
:1045400001280CD13149354F4FF47A7008803889F1
:10455000E08478892085032000E0062020760FF291
:10456000441102A8FFF7BCFB02AA00210020FDF7BE
:1045700077FF638DA28C0FF2401102A8FFF7B0FB0A
:1045800002AA01210020FDF76BFF07B0F0BDFEF786
:104590008DFDA4F80B00FEF790FDA4F80D000FF2BE
:1045A0002C11A08BA4F815000120A07002A8FFF721
:1045B00097FB02AA00210020FDF752FFB4F8150076
:1045C000B4F80D30B4F80B200FF21411009002A8CB
:1045D000FFF786FB02AA01210020FDF741FF1048EA
:1045E000218C30F8111018222046FFF727F8FEF72B
:1045F000CFFE002020760021002207C407C4FEF76A
:1046000099FB183CC820E08307B0F0BDC01400201F
:104610002414002084140020261400202C150020CF
:10462000980F0020576174657220656D7074793A37
:10463000253034640000000043313A253034642CC6
:104640004469663A2530346400000000436F7720E7
:1046500057616974203A202530346420000000003E
:10466000523A253033642C313A253031642C323AB9
:10467000253031642C25303264000000494E3A2543
:104680003034642C253033642C2530336400000032
:1046900057253034642C50253033642C502530336A
:1046A0006420000052455F454E5445525F574149D2
:1046B0005420202000000000433A253034642C2090
:1046C000523A253034642020000000005341564502
:1046D00020444154412020202020202000000000C0
:1046E000253034642C253034642C253034640000AB
:1046F00000B581B00120FEF79DF901B05DF804EB33
:104700000020FEF797B981B0002200920A4A009279
:10471000009A801800900098016001B0704781B045
:1047200000210091044900910099401800900098E0
:10473000008801B070470000006C00401B48818871
:10474000008841EA0040704717490A8842F0100289
:104750000A80020C8A8208834FF6EF7208881040A4
:104760000880704710490A8842F010020A80020C43
:1047700002F00F028A8008814FF6EF72088810401D
:10478000088070470A4808490A88920601D4401EEA
:10479000FAD17047044801884FF6F7721140018042
:1047A00001880907FCD570470428004018280040FC
:1047B000400D0300014908607047000020000E42D0
:1047C00070B40269454E416906EB8206A1F14604C8
:1047D00056F8046C40F26D1505FB0464C5686D1E47
:1047E000A1F145032C195D1003EB9573032A04EB2B
:1047F000A30307DB4A1001EB92729210B1EB820126
:1048000008BF5B1C426801688068C2EB021403EBBE
:10481000430200EBC20001EB840170BC4FF4616203
:1048200002FB00107047F0B53C22B0FBF2F2C2EB85
:104830000213A0EB83003C23B2FBF3F4C4EB04139C
:10484000A2EB83021823B4FBF3F303EB4305A4EBC1
:10485000C50403F2DB2540F2B556B5FBF6F640F28F
:10486000B55707FB16573C2F28BF761CA5EB060C47
:1048700040F26D1EBCFBFEFC0EFB1C55AD1BA7F1F0
:104880003C06B6F5997F38BF6D1C0CF144060D2728
:104890004FF4B77CDFF844E00BE07F1E0EEB870C93
:1048A000032F5CF804CC04D316F0030F08BF0CF1FF
:1048B000010C6545F1D31B1DCD6108608C60A5EB33
:1048C0000C00401CC8600F610720B3FBF0F0C0EB88
:1048D000C000181A4E614A608861F0BD4000002097
:1048E00030B401688279CB431F4932B30A46146859
:1048F0002340136053680468A34353600379CC18C2
:10490000236805682B43236093680468A34393607E
:10491000D3680468A343D36043790568102B08D19A
:10492000916829439160D16800680843D06030BC29
:104930007047CC182068284303E000790C182068E1
:104940001840206030BC7047074A13685269002144
:10495000034002421CBF002B012108467047034957
:10496000086070470000000000040140140401408A
:1049700030B5044685B00D46208A4CF6FF710840DC
:10498000E988084320824EF6F311A0890840A988DF
:1049900008432989084369890843A0814FF6FF41EC
:1049A000A08A0840A9890843A0826846FDF7EFFF66
:1049B0001648296884420CBF039802981922504374
:1049C000A28912044CBF49008900B0FBF1F16420B8
:1049D000B1FBF0F000010209642303FB1211A2896C
:1049E000120409D5C9003231B1FBF3F101F007011E
:1049F0000843208105B030BD09013231B1FBF3F12C
:104A000001F00F010843208105B030BD003801409E
:104A10000029818912BF41F400514DF6FF72114007
:104A2000818170470B065B0F4FF0010C01F01F01F5
:104A3000012B0CFA01F108BF0C3003D0022B0CBF84
:104A400010301430002A026814BF114322EA010119
:104A500001607047C1F30801818070478088C0F30E
:104A60000800704700880022084218BF0122104643
:104A7000704730B40A46130600215B0F012402F090
:104A80001F05012B04FA05F508BF838903D0022B0B
:104A90000CBF038A838A120A008804FA02F22B40B0
:104AA0001040002B30BC1CBF002801210846704775
:104AB0000122090A02FA01F189B2C9430180704753
:104AC0002DE9F04182B0054600263E4C3BA70FF28F
:104AD000F0086A464146284600F0C4F8F8B10025BF
:104AE0001EB902463946204613E0012E04D1024683
:104AF000394604F10A000CE0022E04D10246394680
:104B000004F1140005E0032E05D10246394604F1F4
:104B10001E00FFF7E5F8761CF6B2052ED9DB0A2158
:104B200004F1580000F09AF80025002604F11E0751
:104B300001E0761C7F1C04F11E00FCF7BDFB8642E1
:104B40000BD23878A0F130010A29F2D261196D1C1C
:104B5000EDB20A2D81F85800EBDB0A22002104F1A6
:104B6000580000F041F9A4F852006078542804BFBE
:104B7000B4F85200A4F8500002B0BDE8F08130B59E
:104B8000114CE1780A2881B007D1152905DB61189D
:104B90000871201DFFF794FF01E0172907DB64214E
:104BA000201D00F04BF90025E57001B030BD621802
:104BB0004D1C1071E57001B030BD00002573000080
:104BC0002C000000D41300206C13002002880B88F6
:104BD00002F441521A434B881A438B881A43CB88FC
:104BE0001A430B891A434B891A438B891A43CB8981
:104BF0001A4302804FF2FF73828B1A408283098A24
:104C0000018270470029018812BF41F040014FF630
:104C1000BF72114001807047818170478089704761
:104C200000890022084218BF01221046704770B563
:104C30000C462578290006D170BD11F8013F167881
:104C4000B34206D0401C2946FCF72AFB28B1014696
:104C5000224612F8013F002BEFD170BD002200F078
:104C6000F1B8000070B50500144608BF25680E466F
:104C7000284600F000F90544287820B90FF22000FA
:104C80002060002070BD3146284600F006F9284417
:104C9000017811B1002100F8011B2060284670BD89
:104CA000000000002DE9F04F85B004461E000D46BF
:104CB00090461CBF00203060A14601E009F10109C7
:104CC00099F8000000F0FBF80028F7D199F80000EF
:104CD0002D2816BF2B2819F8017B2B27B8F1000FC0
:104CE00055D4B8F1010F52D0B8F1250F4FDAB8F111
:104CF000010F0DDBB8F1100F04BF99F80000302848
:104D000002BF99F8010040F02000782814D10EE08D
:104D100099F80000302818BF4FF00A080CD199F814
:104D2000010040F02000782804D14FF0100809F16C
:104D3000020901E04FF00808CDF8109001E009F1F8
:104D4000010999F800003028F9D00FF2A00B4FF0BC
:104D5000000ACDF80C908DF808B00AE09DF8081014
:104D6000CDF804A0401AC0B2009008FB0A0A09F16D
:104D7000010999F8000000F0ACF801464246584697
:104D8000FCF7B6FA0028E9D10498484503D105B1EB
:104D90002C60002025E00FF27C01039811F8081028
:104DA000A9EB0000401A14D4012808DA0098BAEBE5
:104DB000000004D30199B0FBF8F0884209D000F05C
:104DC00093F8222101600EB1012030604FF0FF3ACC
:104DD00003E02D2F08BFCAF1000A0DB1C5F80090FD
:104DE000504605B0BDE8F08F00235BE73031323329
:104DF0003435363738396162636465666768696A75
:104E00006B6C6D6E6F707172737475767778797A7A
:104E10000000000000002115110E0D0C0B0B0A0AFA
:104E20000909090909080808080808080707070701
:104E3000070707070707070707000000002200F021
:104E400059B8000000B500BF1300964694461039CB
:104E500028BFA0E80C50FAD85FEA417C28BF0CC0FC
:104E600048BF40F8042BC90728BF20F8022B48BFD1
:104E700000F8012B00BD70B4024604E014F8016B89
:104E8000B34204D1521C13781C0003D00C46257881
:104E9000002DF3D170BC101A704770B4024600E0C8
:104EA000521C13781C0007D00C462578002DF7D033
:104EB00014F8016BB342F8D170BC101A704710B5EA
:104EC00004460120FCF7B8FF2046BDE8104000F082
:104ED00040B810B504460120FCF7AEFF2046BDE8FF
:104EE000104000F040B800000148FDF769B800002C
:104EF00088000020401810F0030308D0C91A1FD3FF
:104F0000DB0748BF00F8012D28BF20F8022D130051
:104F100030B414461546103928BF20E93C00FAD8B1
:104F2000490728BF20E90C0048BF40F8042D89003C
:104F300028BF20F8022D48BF00F8012D30BC704773
:104F4000C91818BF00F8012DCB0728BF00F8012DA4
:104F50007047A0F10901052901D3202801D10120C2
:104F6000704700207047A0F141011A2938BF203056
:104F7000704700003548364A82B0016841F00101AF
:104F80000160416811404160324A0168114001608E
:104F9000016821F480210160416821F4FE01416033
:104FA0004FF41F018160002101910091016841F4DB
:104FB00080310160016801F4003100910199491CC0
:104FC0000191009919B90199B1F5A06FF2D1016869
:104FD000490C01F0010100910099012930D11E49CD
:104FE0000A6842F010020A600A68920892000A6099
:104FF0000A6842F002020A6041684160416841600B
:10500000416841F480614160416821F47C11416054
:10501000416841F4E8114160016841F0807101602C
:1050200001688901FCD541688908890041604168AF
:1050300041F002014160416801F00C010829FAD1F8
:105040004FF000600549086002B070470010024050
:105050000000FFF8FFFFF6FE0020024008ED00E030
:1050600019E050F8041BCB0744BFA9F101035918FC
:10507000121F0023042A41F8043BF9D25FEA827C24
:105080000B4604D54FF0000CA1F800C09B1CD107C3
:1050900044BF0021197050F8042B002AE1D1704759
:1050A00030B5016842688468014401EB5203D207BD
:1050B00048BF4C44994201D10C3030BD11F9012B4D
:1050C00011F8015B002A04F8015B02D5521CF9D1EA
:1050D000F0E7521EF4D5EDE710B5074979441831D1
:1050E000064C7C44163404E00A68081D11448847C5
:1050F0000146A142F8D110BD0800000024000000C4
:1051000061FFFFFFF80D000088070020000000008D
:1051100091FFFFFF14010000DC00000000000020F0
:1051200000F00BF8002801D0FFF7D6FF0020C046A2
:10513000C046FDF72BFE00F002F80120704700F09A
:1051400001B800000746384600F002F8FBE700000F
:1051500080B5C046C046024A11001820ABBEFBE72E
:10516000260002000148804701480047754F0008AB
:10517000855100087047FEE7FEE7FEE7FEE770474F
:1051800070477047C046C046C046C046FFF7C8FFDC
:10519000FFF7FEBFFFF7FEBFFFF7FEBFFFF7FEBF43
:1051A000FFF7FEBFFFF7FEBFFFF7FEBFFFF7FEBF33
:1051B000FFF7FEBFFFF7FEBFFFF7FEBFFFF7FEBF23
:1051C000FFF7FEBFFFF7FEBFFFF7FEBFFFF7FEBF13
:1051D000FFF7FEBFFFF7FEBFFFF7FEBFFFF7FEBF03
:1051E000FFF7FEBFFFF7FEBFFFF7FEBFFFF7FEBFF3
:1051F000FFF7FEBFFFF7FEBFFFF7FEBFFFF7FEBFE3
:10520000FFF7FEBFFFF7FEBFFFF7FEBFFFF7FEBFD2
:10521000FFF7FEBFFFF7FEBFFFF7FEBFFFF7FEBFC2
:10522000FFF7FEBFFFF7FEBF050A006400E803DEDC
:105230000013FF000F270F270F270F270F270F2718
:105240000F270F270F27F800001FFD00003BFD0070
:10525000005AFD000078FD000097FD0000B5FD003C
:1052600000D4FD0000F3FD000D110100003001002D
:10527000004E0100006D01FA000F0102030401025B
:1052800003040607080902040608E000F8FFDC0032
:06529000FAFF8100D100CD
:040000050800518519
:00000001FF
