:020000040800F2
:10000000981700203167000841670008436700081F
:1000100045670008476700084967000800000000BE
:100020000000000000000000000000004B67000816
:100030004D670008000000004F670008B92B00085A
:1000400063670008676700086B6700086F67000850
:100050007367000877670008414C0008654C00088A
:100060007B6700087F6700088367000887670008D0
:100070008B6700088F670008936700089767000880
:100080009B6700089F670008A3670008A767000830
:10009000AB670008AF670008B3670008B7670008E0
:1000A000BB670008BF670008C3670008C767000890
:1000B000CB670008CF670008D3670008D767000840
:1000C000DB670008DF670008E3670008E7670008F0
:1000D000EB67000879290008B9290008EB29000816
:1000E000EF670008F3670008F76700082DE9F84F8D
:1000F00074A7A2B0D7E90045CDE900452C9EDFF8F2
:10010000307C04918DF843605FF000016FA40D9185
:1001100012944FF0FF368246904699460FE0C34650
:100120002C461BF8011B0498D0470028049000F0CF
:10013000B2800D98401C641E0D90F2D1A84498F82E
:100140000000252807D100210791089109910A9103
:100150000B910C910DE06A463146404601F01CF8C7
:10016000050001D10D98B5E0D9D50125E6E741F0AC
:10017000010118F8010F2028F9D023280CD02B28D2
:1001800004D02D2805D0302809D086E041F00201A6
:10019000EFE741F00401ECE741F00801E9E741F045
:1001A0001001E6E700200F900AE00F98B84205DA48
:1001B00000EB800302EB4302303A0F9208F1010892
:1001C00098F80020A2F130000A28EED398F8000039
:1001D0002E2818BF0E9629D118F8010F2A280BD106
:1001E000D9F80000C9F8000008F1010850F8042B04
:1001F000C9F800000E9219E02D280CBF18F8010B69
:10020000002000220E920BE040B90E9ABA4205DAA5
:1002100002EB820403EB4403303B0E9308F1010828
:1002200098F80030A3F130020A2AEDD3ADF840105F
:10023000129898F8001000F0B9FF08B118F8010BF7
:100240008DF842009DF84200682804BF98F800101D
:10025000682903D162208DF8420008E06C2804BFB1
:1002600098F800006C2804D171218DF8421008F133
:10027000010813A806904A4618F8013B02A9504607
:1002800000F068F838B913AA02A9504600F0CAF97C
:1002900000287FF554AF30461CE02A2882D1D9F8D7
:1002A0000020C9F8002052F8040BC9F800200028EB
:1002B0000F9003D540420F9041F0040108F101086E
:1002C00084E700000000000000000000686A6C7411
:1002D0007A4C000023B0BDE8F08F622820D0682857
:1002E00011D06A2803D06C2827D0712825D108683E
:1002F000C01D20F007000860D0E900230830086026
:10030000194610467047002A0A680A60106803D030
:10031000121D0A6000B217E0121D0A6080B217E0D9
:10032000002A0A680A60106803D0121D0A6040B2F1
:100330000AE0121D0A60C0B20AE0002A0A680A60D8
:10034000106803D0121D0A60C1177047121D0A60A1
:10035000002170477CB50D4611461C462E69B4F14C
:10036000250200F04D811C3A00F08680121F022AFF
:1003700040F282800E3A00F00781521F5AD0093AAB
:100380007AD0921E16D0521E35D0521E022A73D930
:10039000121F30D0521F00F09A80521E4AD0521EB7
:1003A00000F0E480D21E00F0FD80921E42D0D21EEA
:1003B00040D02BE195F83A206C2A09D06869421C9C
:1003C0006A610A680A6052F8043B0A60335427E104
:1003D0000A680A6052F8043B0A6000210093019108
:1003E0004FF0FF322A6329466A4600F096F900284A
:1003F00040F1168101E195F83A000122FFF76DFF07
:10040000C5E900010023994204DA6869411C696169
:100410002D210DE0288F810704D56869411C696191
:100420002B2105E0C00722D56869411C69612021A4
:1004300031541CE095F83A000022FFF74EFFC5E961
:10044000000195F83800010711D5D5E900230020F7
:10045000834208BF82420AD044F02000782806D1A7
:10046000686930213154401C411C69613454214673
:1004700068693044E86083E00868C01D20F0070028
:100480000860D0E9002308300860C5E90023D5E9F9
:100490000001C80F04D06869411C69612D210DE07D
:1004A000288F810704D56869411C69612B2105E00B
:1004B000C00704D56869411C69612021315468690D
:1004C0003044E8602146284600F032FAA8E005F101
:1004D0003A02507820B14FF0FF340FF6243070E02C
:1004E0001078622808D0682824D06A2812D06C2896
:1004F0002ED071280ED02BE00A680A6052F8040B47
:100500000A6020B94FF0FF340FF60C3059E0E96A69
:10051000017085E00A680A6052F8040B0A6020B98D
:100520004FF0FF340FF6F0204BE0EA6AD317C0E932
:10053000002375E00A680A6052F8040B0A6020B9CB
:100540004FF0FF340FF6D0203BE0E96A018067E00E
:100550000A680A6052F8040B0A6020B94FF0FF34B1
:100560000FF6B4202DE0E96A016059E00A680A60DC
:1005700052F8040B0A600021C5E90001EE60782101
:10058000284600F029F94BE06C2285F83A200B68E8
:100590000B6053F8042B0B6052BB4FF0FF340FF687
:1005A000AC200EE095F83A206C2AF0D0086808607C
:1005B00050F8044B0860EC603CB94FF0FF340FF684
:1005C000702000F00DFE201A76BD2E6B002E04D593
:1005D000204600F025FE044608E032460021204671
:1005E00000F03EFE002814BF041B3446AC6117E047
:1005F000294600F092F8002812D54FF0FF3076BD62
:100600006869411C69612521315409E06969481C08
:10061000686125227254210002D0411C6961345462
:10062000002076BD2DE9F0410E460546716B7069DC
:10063000B46A091A306A091AB069091A706A091A83
:10064000F069091A96F838000C1B410790460DD442
:10065000002C0BDD2746B0682021A8470028B06099
:1006600057D0F06A401C7F1EF062F4D17369424695
:100670003146284600F0ACFC00284AD1376A002FEA
:100680000ADDB0683021A8470028B06041D0F06A88
:10069000401C7F1EF062F4D1B369F26831462846EF
:1006A00000F096FCA8BB776A002F09DDB068302106
:1006B000A847B06068B3F06A401C7F1EF062F5D1B5
:1006C000F068B169F36942183146284600F080FCB1
:1006D000F8B9B76A002F09DDB0683021A847B060CB
:1006E000B8B1F06A401C7F1EF062F5D196F8380070
:1006F00041070BD5002C09DDB0682021A847B06068
:1007000038B1F06A401C641EF062F5D10020BDE8EB
:10071000F0814FF0FF30BDE8F0812DE9F8470D463C
:10072000A3B02F6B002F8146904648BF6FF0004763
:1007300000F0C2FD696B40180FF62C118128D1E939
:100740000023CDE9012328BF4FF0FF303ED2002423
:10075000002F2FDDD8F8001001AA684600F01EFD1A
:100760000646002E35D4D8F8000008B9761E30D4DD
:10077000B7421FDB6869301881280AD300206863FC
:1007800003AA29464846FFF74DFF040012D4002073
:10079000686103A8D5F814A032466946504400F0B9
:1007A00091FDB244C5F814A058F8040B002818BFF6
:1007B000BF1BCDD12CB903AA29464846FFF732FF0B
:1007C000044614B9002068616863204624B0BDE87F
:1007D000F0874FF0FF34F8E72DE9FC4707468A46DB
:1007E0003E69BAF16F0F08BF082405D04AF0200116
:1007F000782914BF0A2410243C25D7E90023BAF134
:10080000640F18BFBAF1690F9046994606D10021CE
:100810008B4203DAD8F1000869EB490900208145D1
:1008200008BF80451FD1386BE8B9082C4CD197F828
:100830003800010748D530203B2586F83B0043E0CF
:1008400000280ED597F8380000F01400102808D1C1
:100850007A6B7869121A386A121A511A0029C8BFBD
:100860003962BDE8F3878DF800A04046494622462C
:10087000E31700F07BFD3032D0B26D1E3A280195AF
:1008800004DB9DF80000A0F151018A187255404622
:1008900049462246E31700F069FD8046894600205C
:1008A000814508BF804503D0F86871198842DCD3C0
:1008B000082C09D197F83800010705D5715D30295A
:1008C00002D06D1E30207055C5F13C01B961701920
:1008D000F860386B8142B3DA411A39624FF6EF7033
:1008E000398F01403987BDE8F3872DE9D0430646AB
:1008F0000F4614464FF00008DFF8389412E0E00786
:1009000007D542464B463046394600F047FE06467C
:100910000F464046494642464B4600F03FFE6410B3
:1009200080468946002CEAD130463946BDE8D0835E
:100930002DE9F34F054641F020048DB0D5E900893B
:10094000612C02AE09D0286B002848BF062003D4D2
:1009500008BF672C01D101202863D5E90023580086
:100960004015401C0ED119030CD00320A8619DF83E
:10097000380061381A2802D20FF2F46111E00FF248
:10098000F4610EE058004015401C0FD119030DD141
:100990000320A8619DF8380061381A2814D30FF29B
:1009A000DC61E868032200F08DFCD3E1194621F0F8
:1009B0000043B3F5801F10460DD20027BB4208BF8D
:1009C000BA42019703D111E00FF2AC61E9E701AA45
:1009D00000F0B6FE0AE0DFF8607307EB1352DFF8B1
:1009E0005C3301921940DFF858331943C5E900011F
:1009F000612C0ED1E86830210170811CE9609DF8FE
:100A0000381061290CBF7821582141706869801C19
:100A10006861D5E900AB2BF0004300202AF000020A
:100A2000834204BF8242002300F05A81612C40F0CF
:100A3000A980286B00284CBF2120401C0090404614
:100A4000009F7F1C49460022002300F0B1FED946DA
:100A500001988DF8082038BF89F00049001F0190E7
:100A6000002FD0460DF1090040F3498140F2FF719B
:100A7000DFF8D0B20C9106464046494600220023DA
:100A800000F0AEFE80F03A814800400D00F11C02FB
:100A900010D0002A0EDD0C98824205DB09F00040E0
:100AA00040EA0B01002013E0A448084040EA02514C
:100AB00040460DE029F00043002028F00002834268
:100AC00008BF82420FBF40461C22404600F0A0FEF5
:100AD0008046894600F03AFFFF1F002F044609DDDB
:100AE00000F052FF02460B464046494600F05EFFCA
:100AF00080468946F01D072104E004F00F0200F84B
:100B0000012D2411002C01DD491EF6D5491E5CBFC4
:100B1000002200F8012DF9D5ECE00020194602AAC8
:100B20000A4400E05B1E12F80149491E8442F9D0D4
:100B30000F2804D10DF10900425C521C42540029D7
:100B400004D50198001D02AE5B1C0190591E12D401
:100B50009DF838007218147804F130085FFA88F4B0
:100B6000392CC4BFA0F13A04A044491E02F80189FF
:100B7000F1D58DF83800286B002840F1B080591E5F
:100B80002963ACE0404649460022002300F010FEF5
:100B9000019938BF89F0004947F2975041436A4AAA
:100BA00091FBF2F20192D2F1070204DD4046494680
:100BB000FFF79BFE0AE0524200206449FFF795FED2
:100BC00002460B464046494600F062FF8046662CCE
:100BD000286BDFF87CB106BF019F0A3706273F1854
:100BE000142FC8BF142730208DF8080089460DF156
:100BF000090000E03046002F34DD064640464946F5
:100C000001F06AF801460A4606F1080304200A26A4
:100C1000B2FBF6F606EB860EA2EB4E02303203F87C
:100C2000012C0A22B6FBF2F202EB820EA6EB4E0674
:100C30003036401E03F8026DE9D1083F002F03F162
:100C40000806D7DD084601F05BF802460B46404631
:100C5000494600F0ABFE00225B4600F09FFC804658
:100C60008946CBE70DF10901401A0DF1090604E0B0
:100C70000199491E401E0191761C31783029F7D028
:100C8000662C02D10199491C03E0652C0CBF01219F
:100C900000212B6BCB189842B8BF431E002B1ED4EB
:100CA000834204DAF05C3528A8BF392000DA30200E
:100CB0001946721E02EB010800E05B1E18F801994C
:100CC000491E8145F9D0392802D1705C401C70540E
:100CD000002904D50198401C16465B1C0190019820
:100CE00000B200901BB29DF838103246284600F042
:100CF00035F82FE0C61D002F3FF7BEAE30460DF190
:100D00000901401A009903468842C8BF0B46002BD0
:100D10000DF109063FF52FAF8342BFF6FEAE0DF190
:100D20000900C05C07287FF7F8AE0F20F6E6000048
:100D3000CBCCCC0C0000244002FCFFFFFFFF0F8057
:100D40000000E03F0000F07FA08601000000F03FBF
:100D500084D797410FB0BDE8F08F00002DE9F84728
:100D600083B006468A461746984600F019FAB8F14D
:100D7000000F406A356B90F8009002DC4FF00108DC
:100D8000BFA7BDF930404AF02000662808BF641CA8
:100D900015D0672840F0848014F1040FC0F28680DB
:100DA000AC4280F2838096F83800641C010702D4BC
:100DB000A845B8BF454620B22D1A48BF00250FFAF6
:100DC00084FAF068B169BAF1000F25DC4A1C3023BF
:100DD0004354002D03DC96F83800010703D5F06872
:100DE00000F80290521C15EB0A0FB8BF6C4220B2FB
:100DF000441941424445B8BFA046B26171620FFA3E
:100E000088F5F561F068B3692A463946184400F060
:100E100059FA641BB462C4E022B29045084417DA60
:100E20004246394600F04EFAB0694044B061AAEB40
:100E30000801002D716203DC96F838100A0705D509
:100E4000F16801F80090F069401CF061B562A8E01B
:100E5000394600F037FAB069002D5044A8EB040879
:100E600003DC96F838100A0703D5F16801F8009002
:100E7000401CB0610FFA88F08542F068B369B8BFD2
:100E8000A8460FFA88F207EB0A01184400F01AFA94
:100E9000B0690FFA88F10844B061681A706280E0A6
:100EA000BAF1610F14D14FF0700A16E0A84504DAC8
:100EB00096F838100A0758BF45466D1E48BF0025F2
:100EC000BAF1670F14BF4FF0450A4FF0650A04E00E
:100ED000BAF1410F08BF4FF0500AB169F368481CDE
:100EE000B061002D17F8012B5A5403DC96F8381026
:100EF0000A071BD5F168431CB36101F80090002D6F
:100F000014DDA8F101080FFA88F08542F068B8BF37
:100F1000A8460FFA88F23946184400F0D3F9B069B0
:100F20000FFA88F108446D1AB0617562F068B16912
:100F30000844002C80F800A003D42B214170811CB0
:100F400003E02D2141706442811C00206A460AE0C2
:100F500023460A2493FBF4F404EB8405A3EB450336
:100F600002F8013B401C24B2002CF1DC012806DC15
:100F70004AF02002652A04BF302201F8012B48B94B
:100F8000302001F8010B07E0401E1DF80020303230
:100F900001F8012B0028F7DCF068B2691044091A47
:100FA000F16196F8380000F0140010280DD1716935
:100FB000B0694118706A4118F0694118B06A411867
:100FC000706B8142BCBF411A316204B0BDE8F0874A
:100FD000F8B505460E4617461C46002074B117F8B2
:100FE000011BB068A847B06030B1F06A401CF062E5
:100FF0000020641EF3D1F2BD4FF0FF30F2BD0000BF
:101000007072696E74665F733A20256E206469732E
:10101000616C6C6F776564007072696E74663A20FB
:1010200062616420256E20617267756D656E740063
:101030007072696E74665F733A2062616420257312
:1010400020617267756D656E740000007072696E64
:1010500074665F733A2062616420256C732061724C
:1010600067756D656E7400000000000000000000F0
:101070006E616E004E414E00696E6600494E46003C
:101080003000F0B40246106895681318506803EBFE
:101090005004C00721D54D441FE0F0BC02F10C0004
:1010A000704713F8017B05F8017B491EF9D1A0B107
:1010B000B60813F8011B06F00306032E08BF13F849
:1010C000016B01EB06214942801C294405D011F82F
:1010D000016B05F8016B401EF9D1A342DDD013F876
:1010E000016B16F0030104BF13F8011BC91C300982
:1010F0000F28DAD113F8010B0F30D6E7613807E07B
:1011000005E0A0F161011A2901D2012070474138A0
:101110001A288041C00F7047A0F10901052901D3A9
:10112000202801D10120704700207047A0F1410123
:101130001A2938BF203070471A48704730B45368B6
:10114000D418042B09DA41B1057804F8015B10F8D2
:10115000015B15B15B1C491EF3E7536030BC70475F
:1011600038B514461D4661B1FFF7E8FF61686A6B48
:10117000204690476FF00102811A02D0491E03D029
:1011800005E06FF0010032BD4FF0FF3032BD0021AD
:10119000616032BDDA6B1047024BE1E7014BF9E7C2
:1011A00001487047C40100208C0100200278C9B2B8
:1011B0008A421AB11CBF10F8012FF9E718BF0020AE
:1011C0007047B1F5807F02D34FF0FF307047017058
:1011D000012070470078401E8041C043C00F704717
:1011E00080B500B906A005490B681BB12222002179
:1011F000984701E000F091FD222002BD8C130020F1
:10120000636F6E73747261696E742068616E646C72
:1012100065723A20626164206D6573736167650071
:1012200000F10103810704D010F8011B89B1810787
:10123000FAD10268B2F10131914311F0803F04BF4D
:1012400050F8042FF6E710F8011B11B110F8011B3C
:10125000FBE7C01A70470268531C036011707047A7
:10126000C9B2830706D0521E22D310F8013B99421F
:10127000F7D11FE0083A13D302F1040241EA012139
:1012800041EA014150F8043B121F21BF4B40A3F13A
:10129000013C2CEA030C1CF0803FF3D0C9B2001FC4
:1012A000083210F8013B521E28BF91EA030FF8D80C
:1012B00018BF0120401E704780B5FFF73DFF006C4E
:1012C00002BD000062B38B0708D0521E11F8013B2B
:1012D00000F8013B00F024808B07F6D1830740F033
:1012E000208000BF103A07D330B4B1E83810103A6C
:1012F000A0E83810F9D230BC530724BFB1E8081079
:10130000A0E8081044BF51F8043B40F8043BD20762
:1013100024BF31F8022B20F8022B44BF0B78037056
:101320007047121F17D35B0009D151F8043B20F816
:10133000023B1B0C121F20F8023BF6D20BE051F8C7
:10134000043B00F8013B1B0A20F8023B1B0C121F58
:1013500000F8013BF3D238BF121D521E24BF11F812
:10136000013B00F8013BF8D870470000B3BBD9B18E
:10137000B2F5803F7DD2022A1ED98C46B1FBF2F134
:1013800002FB11C31B0443EA1043B3FBF2FC02FB54
:101390001C3380B240EA0343B3FBF2F002FB10328D
:1013A00040EA0C4000237047022A05D98446B0FB6E
:1013B000F2F002FB10C270474AB105D100F0010201
:1013C00049085FEA3000704700220023704700F0B0
:1013D000A7BC0B000200002100207047904271EB77
:1013E000030CF6D3B3F5803F2FD2F0B5B3FA83F7F1
:1013F000B1FA81F4A7F10F0E3D1B5340CEF1200648
:1014000002FA0EF2F3415340B5F10F0746D80F3CF4
:101410002C444140C4F12006A040F1414140B1FBC1
:10142000F3F603FB1611A2FB0645001BA94102D2ED
:10143000761E8018594180EA010221FA0EF362FA01
:101440000EF200215A403046F0BD30B4B1FBF3FC3F
:1014500003FB1C11A2FB0C45001BA94103D2ACF1FC
:10146000010C8018594130BC02460B4660460021F1
:101470007047B2F1807F65D3F0B5B2FA82F7B1FA66
:1014800081F4C7F10F063D1B22FA06F307F1110E96
:10149000F24120355A40B5F10F07B8D94140C4F1A7
:1014A0002006A040F1414140B1FBF3FC03FB1C11BD
:1014B000A2FB0C45001BA94103D2BCF1010C801812
:1014C00059410F2F12D30F3FC90341EA5041B1FBDD
:1014D000F3F603FB1611A2FB0645D4EBC030A9417D
:1014E00002D2761E8018594146EACC3C07B34140EF
:1014F000C7F12006B840F1414140B1FBF3F603FBD0
:101500001611A2FB0645001BA94102D2761E8018C7
:10151000594180EA010221FA0EF3C7F1200462FA70
:101520000EF20CFA07F05A402CFA04F13043F0BDE9
:1015300080EA010221FA0EF3002162FA0EF26046FF
:101540005A40F0BD8C46B1FBF2F102FB11C31B0205
:1015500043EA1063B3FBF2FC02FB1C331B024CEAB0
:10156000002043EA1063B3FBF2FC02FB1C331B02B6
:101570004CEA002043EA1063B3FBF2FC02FB1C338D
:101580001B024CEA002043EA1063B3FBF2FC02FBAF
:101590001C324CEA0020002370470000B0B581EAFD
:1015A000030C0CF0004C40F2FF7515EA11541DBFFE
:1015B00015EA1357AC42AF4239E0E41923EA455328
:1015C00043F48013C90241F0004141EA505EC70272
:1015D0001100A7FB020200284FF00000EEFB0120E3
:1015E0004FF00001E3FB072118BF42F00102401851
:1015F00000214941E3FB0E01A4F580640F0302D2F0
:1016000052004041494154F101046CDD470872F138
:10161000004250F1000051EB0451A1F580115CBF74
:1016200041EA0C01B0BD4CEA05510020B0BD05EA0D
:101630001357AC4214BFAF4241E050EA410E1CBF09
:1016400052EA430E02E061460020B0BD24423C4411
:101650001BD15FEA070EF6D0090302BF0146002046
:10166000AEF1140EB1FA81F7AEEB070401FA07FEF2
:101670000C37C7F1200100FA07F7C8404EEA000E08
:1016800023EA455343F48013A2E733F00043B3FA4F
:1016900083F704BFB2FA82FE77440B3FE41BB7F135
:1016A000200E2FBF02FA0EF3BB40C7F1200E22FA24
:1016B0000EFE38BF43EA0E03BA40641C82E750EACC
:1016C000410E14BF52EA430E6FF000014FF40017B1
:1016D00017EB430F8ABF194617EB410FB5E74CEAEA
:1016E00005510020B0BDD4F10104B4F120070FDA98
:1016F000C4F12007520828BF42F0010210FA07F592
:1017000001FA07F7E1BF2A43E0403843E1400FE028
:10171000352C98DCC7F1200452EA400220FA07F287
:1017200018BF42F0010231FA07F0A1400A4300213C
:1017300072F1004250F1000051EB0C01B0BD00000D
:1017400010B5144600F002F8226010BDC1F30A5330
:1017500043B14A0012F5001F28D2A3F2FE32A1EBDA
:101760000251704750EA410C20D001F0004C31EAA0
:101770000C01B1FA81F204BFB0FA80F3D2180B3A2F
:10178000B2F120032CBF00FA03F1914041EA0C01B1
:101790003EBFC2F1200C20FA0CF319439040524294
:1017A00040F2FD33D21A01EB03517047002270471B
:1017B0004FF4001C1CEB410F94BF1CEB430F09E0DE
:1017C00041EA030C50EA4C0C52EA0C0C03D2994249
:1017D00008BF9042704714BF8B428242704700009E
:1017E0004FF4001C1CEB410F94BF1CEB430F09E0AE
:1017F00041EA030C50EA4C0C52EA0C0C03D28B4227
:1018000008BF8242704714BF99429042704700005F
:10181000124254D440F2FF7C1CEA11530FD06345AE
:1018200031D09B1863453CBF01EB0251704701F07A
:10183000004141EA0C510020AFF30080704750EAAC
:10184000410320D001F0004C91EA0C011CD0B1FA08
:1018500081F30B3B9A420DD9D21A994051EA0C01FF
:10186000C3F1200C20FA0CFC61449840531C40F258
:10187000FF7CD7E7914041EA0C01C2F1200C20FA2D
:101880000CF3194390407047B0FA80F31533202BC6
:10189000E0D3202AEED3203A203B9A4209D9D21A2B
:1018A00000FA03F141EA0C010020531C40F2FF7CD6
:1018B000B8E700FA02F141EA0C01002070475242F9
:1018C00040F2FF7C1CEA11530DD06345DBD0B2EB34
:1018D000030C3CBFA1EB025170470CF1010221EA5D
:1018E000035141F4801150EA410CCCD001F0004C7E
:1018F000352A27DC30B481EA0C01B2F1200309DA81
:10190000C2F12003044601FA03F5D0402843D14038
:101910009C400CE0C3F12002450020FA03F418BFFC
:1019200044F0010421FA03F091400C43002174F1CA
:10193000004550F1000051EB0C01244230BC7FF413
:101940007BAF70476146002076E70000C1F30A5381
:1019500040F2FE329B1A14DDD3F120034FEAE1720C
:1019600008DDC90241EA505141F00040D8408018DA
:101970005040704703F2E13010B1D24382F0004092
:101980007047002070470000C11768B14840401AF6
:10199000B0FA80F29040D21CC907C2F5846241EAD5
:1019A000025202EBD02140057047000070B44FF0A6
:1019B000004591EA030F40F1BD816B40841A71EB41
:1019C000030603D2001BB141121973414FF4001CEE
:1019D0001CEB410F34BF7CEB430442E00C0DA4EB45
:1019E0001356352E4FDC45EAC323DB0A45EAC121F5
:1019F000C912B6F120050DDD63FA05F6EB4086EA63
:101A00000305124218BF45F00105C01851F100014D
:101A10000CD213E062FA06F5F2405540F3415A4009
:101A2000B340F3405A408018594107D349085FEA50
:101A300030005FEA350528BF45F0010501F580114A
:101A4000420875F1004250F1000041EB04514E0094
:101A500016F5001F70BC38BF70470020090D09053E
:101A600070471CEB410F10D252EA43060BD0BCEB7F
:101A7000410F05D80C0DAB43661E342EB6DD02E0D7
:101A8000AB438018594170BC704770BC7047000070
:101A9000F0B540F2FF7581EA030C0CF0004C15EA3A
:101AA00011541DBF15EA1357AC42AF42E5E0BC41EB
:101AB000C1F31301C3F31303801A994143F4801354
:101AC00004D2641E4000494180185941C90241EACC
:101AD0005051B1FBF3F603FB1611A2FB0675D7EBD1
:101AE000C020A94102D2761E80185941C90241EA9C
:101AF0005051B1FBF3FE03FB1E11A2FB0E75D7EB99
:101B0000C020A94103D2AEF1010E801859418902CB
:101B100041EA9051760546EA8E2EB1FBF3F603FBBF
:101B20001611A2FB0675D7EB8020A94102D2761EC2
:101B300080185941C90241EA50514EEA060EB1FBE4
:101B4000F3F603FB1611A2FB0675D7EBC020A941E3
:101B500002D2761E80185941C90241EA5051B1FBA8
:101B6000F3F703FB1711A2FB0735D3EBC020A94104
:101B700067F100070CBF004247F0010766F3D52765
:101B80004FEA1E31B80814F5806412DDBD0775F107
:101B9000004250EB0E5051EB045111F5801F5CBF19
:101BA00041EA0C01F0BD4CF07F6141F0E0410020C2
:101BB000F0BDBD076D0840EA0E5041F48011D4F12C
:101BC0000104B4F120060ADAC4F120060200E04064
:101BD00001FA06F3E1401843B24015430EE0342CFD
:101BE00013DCC6F1200445EA40056D0820FA06F230
:101BF000154321FA06F0A1400D43002175F1004282
:101C000050F1000051EB0C01F0BD00205FEA0C0127
:101C1000F0BDCFB992185B41B3FA83F704BFB2FAB3
:101C200082F6BF190B3FB7F120062FBF02FA06F369
:101C3000BB40C7F1200622FA06F638BF3343BA404C
:101C40001CB1E419641E33E77F4231F00041B1FA60
:101C500081F404BFB0FA80F6A4190B3CB4F120065D
:101C60002FBF00FA06F1A140C4F1200620FA06F6C3
:101C700038BF3143A0403C1B1AE7AC421ABF05EA0B
:101C80001357AF4212E050EA41061CBF52EA430626
:101C9000BFE750EA4107304661461CBF41EA0551A3
:101CA000F0BD52EA430C08BFC143F0BD00204FF421
:101CB000001616EB410F98BF16EB430F08BF16EB4B
:101CC000410F24BFC14305E016EB430F0CBF614633
:101CD0004CEA0551F0BD0000400D491840EA812052
:101CE0000CD2490DA1F58061491C40F0004005DB94
:101CF000D1F11F0154BFC840C01770470020704782
:101D0000014648B1B0FA80F18840C91CC1F5846130
:101D1000090501EBD02140057047012000F0BEB855
:101D20007047000070B44FF0004591EA030F7FF553
:101D300045AE6B40841A71EB030604D26E40001B63
:101D4000B141121973414FF4001C1CEB410F34BF19
:101D50007CEB430682E00C0DA4EB1356362E7BDCA5
:101D6000012E45EAC32341DC43EA525312BFD2029B
:101D700092025B08240545EAC12141EA5051D2EBA9
:101D8000C020994125D407D1B0FA80F610FA06F1A7
:101D900062D00020203608E0B1FA81F6B140C6F1E9
:101DA000200220FA02F21143B0404FEAF474B4EB7F
:101DB000465434F001064FEA74040AD8D6F50016EA
:101DC000760D04F00044F04061FA06F25040F14014
:101DD0004840C00A40EA415021F0004128BF5FEA74
:101DE000500550F1000044EBD12135E0DB0A45EA13
:101DF000C121C90AB6F120050EDD42EA0242120CE9
:101E0000C5F1200603FA06F6EB4042EA06056D42EC
:101E1000984161F100010DE062FA06F5F24055408B
:101E200063FA06FC82EA0C02F3405A406D4290418C
:101E300061EB030111F4801F05D1641E620502D01D
:101E40006D004041494121F48011430875F1004380
:101E500050F1000041EB045170BC70471CEB410F86
:101E600015D223F0004352EA43060BD04FEA4C0C44
:101E7000BCEB410F04D80C0D661E342EB7DDEBE72A
:101E8000801A994150EA410608BF0021E4E708BFE3
:101E90001CEB430F28BF6FF00001DDE780B5AFF307
:101EA0000080024A11001820ABBEFBE726000200AA
:101EB0002DE9F041DFF83C098AB00021002200231F
:101EC00000241EC00EC00FF6A4110FF6B01791E843
:101ED0003C0006A880E83C0097E800510FF6A812E5
:101EE00092E8380003AE684686E8005180E8380082
:101EF000DFF8045906A9284600F04AFE16A4214638
:101F0000284600F045FE4FF4FA7000F0C1FE03A928
:101F1000284600F03DFE2146284600F039FE4FF4E9
:101F2000FA7000F0B5FE6946284600F031FE214601
:101F3000284600F02DFE4FF4FA7000F0A9FEDFF8FD
:101F4000BC484FF4807565600A2000F0A1FE256052
:101F50000AB0BDE8F08100000D0A0000F0B5DFF81E
:101F6000A0488FB00020608700F0D8FC002840F027
:101F7000CC8100F0DEFC0A2840F0BF8194F83800E4
:101F8000204490F843000D2840F0BF810FF6041163
:101F900004F1440000F0F9FF0028C4F84C0100F0FF
:101FA000A181C4F85001002520E000BFD4F8500101
:101FB0000178572904BF4278412A0BD181785429EE
:101FC00004BFC278452A05D10A30C4F8500101F097
:101FD00081F8A084D4F8500101782C2902D1E28F35
:101FE000521CE287401CC4F850016D1CD4F84C010F
:101FF000E9B2405C0D2800F08C80E08F0028D5D03D
:10200000012814D1D4F850010178522904BF427834
:10201000462ADFD18178492904BFC278442AD9D120
:10202000401DC4F8500101F055F8E084D2E70228C1
:102030002FD1D4F850010178542904BF4278492A9D
:10204000C8D181784D2904BFC278452AC2D1401D2C
:10205000C4F850010178A1F1300284F828204178B9
:10206000A1F1300284F829208178A1F1300284F8AE
:102070002A20C178A1F1300284F82B200179A1F146
:10208000300284F82C204079A0F1300184F82D1022
:10209000A0E703282FD1D4F850010178442904BFC8
:1020A0004278412A96D18178542904BFC278452AC2
:1020B00090D1401DC4F850010178A1F1300284F89C
:1020C0002E204178A1F1300284F82F208178A1F1EF
:1020D000300284F83020C178A1F1300284F8312038
:1020E0000179A1F1300284F832204079A0F1300169
:1020F00084F833106EE704287FF46CAFD4F85001F5
:10210000EDB2411C19350020C4F85011A4F840501C
:10211000E0875FF00005B4F8400068B1D4F84C11D6
:10212000481900F0D7FF04F5AA7148556D1CB4F8A2
:102130004000EDB28542F1DBB4F84010D4F84C0118
:1021400000F06EFB0246A28778A104F1340000F093
:10215000EFFFD4F8500194F834100278914202BF96
:1021600094F835104278914240F0BC8094F83610D3
:102170008078814201BFA08CDFF888164A8890429F
:1021800040F0B080DFF88056E08CB5F8031088424C
:1021900040F0A880DFF85C1691F85D00012802D1BC
:1021A00000F0B5F805E091F85D0010B9012281F862
:1021B0005D2094F8280000EB80014900A160A1682F
:1021C00094F829004118A16094F82A0000EB8001DE
:1021D00049006160616894F82B004118616094F8CF
:1021E0002C0000EB800149002160216894F82D004B
:1021F000411821604FF4FA606061606994F82E1014
:1022000001EB810200EB42006061616994F82F00EC
:102210004118616194F8300000EB800149002161B0
:10222000216994F831004118216194F8320000EBE3
:1022300080014900E160E16894F833004118E160F1
:1022400040F2E3716069884242DB216900293FDD89
:1022500020690C283CDCE168002939DDE068202891
:10226000BCBFA168192933DA60683C28DCBF21684B
:102270003C292DDC6069A0F26C706061DFF88C0590
:1022800000F076FFC4F84401204600F071FFC4F866
:102290004801D4F84411D4F84801081A48BF404214
:1022A0003C2815DD01F041F8CECC05A8CEC04ECCBF
:1022B0004EC005A984B068462422FFF713F80FBC6E
:1022C00001F05DF84AF2A551042001F0C8F8243C61
:1022D0001C21284601F0DEF8DFF83405016881F49E
:1022E000807101604FF4807104F1440001F0D6F870
:1022F000002084F838000FB0F0BD94F838104A1C64
:1023000084F8382004F1440250540FB0F0BDDFF8D7
:10231000E4048178038801F0F00181701C22DFF869
:10232000F41431F8131001F027B9000025780000EB
:102330000FB430B5DFF8BC448DB03E2104F11C0071
:1023400001F0ACF888A104F11C0000F0F1FEBDF82A
:102350005A10DDF84500BDF85720BDF840300B910C
:102360000A92BDF85110BDF84F2009910892BDF8AE
:102370004D10BDF84B2007910692BDF8491005910C
:10238000C1B204910104000C0290090E0391DFF820
:10239000880401889DF842000191009004F11F001B
:1023A000DFF860144A880FF2F84100F0C1FE002007
:1023B0005FF0000104F11C02525C2C2A02BF401C99
:1023C00082B20E2A3FD0491C04F11C02525C2C2A16
:1023D00002BF401C82B20E2A35D0491C3E29E9D3E7
:1023E0000025002104F11C02107800281EBF491CA2
:1023F0005078002857D0491C921CC8B23E28F3D30D
:10240000E8B2411F89B204F1210000F009FA024646
:1024100004F11C00EDB2B1A1284400F089FEDFF800
:10242000D85304F11C01284600F0B2FBACA12846A9
:1024300000F0AEFB01F0AAF9002084F85C000DB0BA
:1024400030BC5DF814FB00222144521CD5B26D1E35
:10245000C87FD3B2C5F13E05AB4281F8200017D248
:10246000521CD5B26D1ED3B2C5F13E05AB420FD2A0
:10247000521CD5B26D1ED3B2C5F13E05AB4207D298
:10248000521CD5B26D1ED3B2C5F13E05AB42DCD3B2
:102490002E22CA772C22002881F82120A0D13020BA
:1024A00081F820009CE70D46AAE72DE9F047044695
:1024B000DFF840A386B03E210AF11C0000F0EEFFD9
:1024C00029A10AF11C0000F033FE00F082FF07464C
:1024D000CC48B4F80290B0F80280A58801F01BFA4D
:1024E00080B204904B46F8B203904246B8053F03D1
:1024F000000E3F0C0290019700950AF11F000FF2A9
:10250000D03100F015FE002600210AF11C021078DF
:1025100000B90E465078491C00B90E46491C921C61
:10252000C8B23E28F3D3F0B2411F89B20AF12100AC
:1025300000F076F902460AF11C00F6B2ABA1304475
:1025400000F0F6FDAC4E0AF11C01304600F020FB15
:1025500063A1304600F01CFB204606B0BDE8F04702
:10256000042100F097BF000041543D000FB430B586
:10257000A04C8DB03E2104F11C0000F08FFF9CA107
:1025800004F11C0000F0D4FDBDF85A10BDF857202E
:10259000DDF84500BDF840300B910A92BDF85110AE
:1025A000BDF84F2009910892BDF84D10BDF84B20A1
:1025B00007910692BDF849100591C1B2049101043A
:1025C000000C0290090EBDF84300039101909DF8A4
:1025D00042108C484288009104F11F000FF20C3128
:1025E00000F0A6FD0020002104F11C02525C2C2A00
:1025F00002BF401C82B20E2A3ED0491C04F11C02CC
:10260000525C2C2A02BF401C82B20E2A34D0491CD4
:102610003E29E9D30025002104F11C02107800288E
:102620001EBF491C5078002856D0491C921CC8B2C5
:102630003E28F3D3E8B2411F89B204F1210000F033
:10264000EFF8024604F11C00EDB224A1284400F08A
:102650006FFD694D04F11C01284600F099FA20A194
:10266000284600F095FA01F091F8002084F85C000B
:102670000DB030BC5DF814FB00222144521CD5B2D1
:102680006D1EC87FD3B2C5F13E05AB4281F8200074
:1026900017D2521CD5B26D1ED3B2C5F13E05AB4266
:1026A0000FD2521CD5B26D1ED3B2C5F13E05AB425E
:1026B00007D2521CD5B26D1ED3B2C5F13E05AB4256
:1026C000DCD32E22CA772C22002881F82120A1D128
:1026D000302081F820009DE70D46ABE7257800000B
:1026E0000D0A00002DE9F047424D84B095F85C00DA
:1026F000012877D10026A5F8626095F85D100129C0
:102700003AD195F85E0048B93E49488800EB80020E
:1027100052000121A5F8602085F85E1001F024F830
:1027200004463C4830F814101C22284600F07AFF7A
:10273000B5F860005CB9002854D184B029466846D9
:102740001C22FEF7CFFD0FBCFFF710FF0AE00028A8
:1027500048D184B0294668461C22FEF7C3FD0FBC51
:10276000FFF7E6FD2748418801EB81025200A5F8FA
:10277000602004B0BDE8F087DFF89880DFF884A01F
:102780004746C8244FF47A7939881C22284600F03D
:1027900049FFA878C10722D5300006D1BAF8020057
:1027A00009FB00F000F074FA012684B0294668465F
:1027B0001C22FEF797FD0FBCFFF7BAFDA87800F0CA
:1027C000F000A8701C22288838F81010284600F065
:1027D000D3FE0020A5F86200012085F85C00BF1C34
:1027E000641ED1D104B0BDE8F08700002C2578002C
:1027F00041543D0010000020003801401008014005
:10280000300E0020341300202C010020E81200209C
:102810000C0C0140E80F002060010020FFF79EBB78
:1028200030B402460023002408001CD011F003003D
:1028300005D0A5B2641C555DEB18401EF9D189087E
:1028400011D0A0B2641C105CC318A0B2641C105C50
:10285000C318A0B2641C105CC318A0B2641C105C46
:10286000C318491EEDD130BC98B2704741542B4675
:102870005245513D310000000000000041542B47FB
:1028800049443D313233000041542B4641524D3DC5
:102890003336333757415445525F41434B3A00007A
:1028A000573D322C25642C25642C25642C25642C62
:1028B00025642C25642C25642C25642C25642C256A
:1028C000642C25642C25642C25642C2564000000D0
:1028D000573D332C25642C25642C25642C25642C31
:1028E00025642C25642C256400000000573D312C04
:1028F00025642C25642C25642C25642C25642C252A
:10290000642C25642C25642C25642C25642C2564DA
:102910002C25642C25642C25640000009648D0F8F2
:102920000014D0F80404814201D101207047002036
:1029300070479149D1F80424885C521CB2F5806F2D
:1029400008BF0022C1F8042470478C48D0F8001456
:10295000D0F80404814201D1012070470020704763
:102960008649D1F80424885C521CB2F5806F08BFF8
:102970000022C1F80424704730B57E4C40F2255542
:1029800081B02946204601F08CF898B129462046AE
:1029900001F0A5F8204601F079F87749D1F8002434
:1029A0008854521CC1F80024B2F5806F04BF002087
:1029B000C1F8000401B030BD30B5714C40F225556E
:1029C00081B02946204601F06CF860B129462046C6
:1029D00001F085F8204601F059F801B0BDE830401B
:1029E000C0B201F0E1B801B030BD30B5654C40F285
:1029F000255581B02946204601F053F898B1294663
:102A0000204601F06CF8204601F040F85B49D1F80F
:102A100000248854521CC1F80024B2F5806F04BF12
:102A20000020C1F8000401B030BD70B586B00121AE
:102A30004FF4804001F041F901214FF4003001F0E2
:102A400045F901214FF4802001F040F901210C20CB
:102A500001F033F94FF40070ADF8000002211820A6
:102A60008DF802108DF803006946474C204601F0AE
:102A700069F9022004218DF802008DF803104FF44B
:102A80008065ADF800506946204601F05BF90420EE
:102A9000ADF80000022118208DF802108DF8030017
:102AA0006946204601F04EF90820ADF800000221E9
:102AB00004208DF802108DF803006946204601F0CD
:102AC00041F9022018218DF802008DF80310ADF8AD
:102AD000005069462D4C274D204601F033F94FF444
:102AE0000060ADF80000022104208DF802108DF87E
:102AF00003006946204601F025F900200290ADF858
:102B00000C00ADF810004FF416540C20ADF80E0078
:102B100040F22556019401223146284600F098FFE4
:102B200001A9284600F036FF0121284600F084FF65
:102B30004FF4964001900122114D3146284600F095
:102B400087FF01A9284600F025FF0121284600F053
:102B500073FF019401220B4C3146204600F078FFB0
:102B600001A9204600F016FF0121204600F064FF75
:102B700006B070BD0038014020060020280A002061
:102B8000004400400048004000080140000C0140A3
:102B900030B581B004460D4609E0204600F072FFD2
:102BA0008021204600F076FF0028F9D06D1C29789E
:102BB0000029F2D101B030BD10B5DFF87443A06830
:102BC000401CA060E068401CE060208820B909201B
:102BD000208001F0BBF901E0401E2080608820B910
:102BE0006320608001F038FA01E0401E6080A08818
:102BF00030B940F2E730A080BDE8104001F051BA92
:102C0000401EA08010BD10B5DFF82843204601F01B
:102C100006F820684FF47A71B0FBF1F0401EB0F175
:102C2000807F08D2C4494860F02081F8130D00204D
:102C300088600720086010BDBD4880687047BC49A7
:102C4000CA68CB689B1A8342FBD37047B0B100F0CF
:102C50000301002904D000BF00BF491E0029FAD19A
:102C6000800800280AD000BF00BF00BF00BF00BF1F
:102C700000BF00BF00BF401E0028F4D1704710B550
:102C8000040004D00B20FFF7E1FF641EFAD110BD51
:102C900030B581B0054645B16D1E4FF47A740B20F6
:102CA000FFF7D4FF641EFAD1F5E701B030BD00B5DF
:102CB00081B04FF4407001F011FB022006218DF825
:102CC00001008DF80010012000218DF803008DF81F
:102CD0000210684601F007FB07208DF80000032171
:102CE0008DF8011000208DF8020001218DF80310ED
:102CF000684601F0F8FA25208DF8000004218DF8CF
:102D0000011000208DF8020001218DF803106846A3
:102D100001F0E9FA26208DF8000005218DF8011058
:102D200000208DF8020001218DF80310684601F0A3
:102D3000DAFA27208DF8000006218DF80110002016
:102D40008DF8020001218DF80310684601F0CBFADE
:102D500000214FF0006001F0F3FA01B000BDF0B5C2
:102D600081B00121012000F09FFF012140F23D20B0
:102D700000F0A3FF01217148714C724E724F01F0B7
:102D800051F801208DF8020010214FF440708DF8A9
:102D90000310ADF800006946204600F0D3FF4FF461
:102DA000807525614FF400702061482101208DF865
:102DB00002008DF803103820ADF800006946204667
:102DC00000F0C0FF01208DF80200482107208DF897
:102DD0000310ADF800006946304600F0B3FF012053
:102DE0008DF802001021C0208DF80310ADF800000E
:102DF0006946384600F0A6FF01208DF80200102138
:102E000003208DF80310ADF800006946204600F05D
:102E100099FF012010218DF802008DF80310ADF804
:102E200000506946384600F08DFF10200021ADF8B3
:102E300000008DF803103846694600F083FF3D61BD
:102E4000402078611021802078610120606102209B
:102E500060618DF8031001208DF80200694608209A
:102E6000ADF80000304600F06DFF0820706100F002
:102E700002F801B0F0BD10B5344C90B0204601F01E
:102E800073FA334833490590069100200790099062
:102E90000A9001214FF4807008910B904FF48061EB
:102EA00020200C910D904FF4005100200E910F90B6
:102EB00005A9204601F0D0FA0121204601F0E7FAE9
:102EC00001218DF804108DF8051000204FF46021C9
:102ED00002910090012103908DF8101069461E4C5C
:102EE000204601F0FBFA052301220421204601F0CF
:102EF00042FB0121204601F018FB0121204601F090
:102F00000BFB204601F01AFB204601F01CFB0028B9
:102F1000FAD1204601F01CFB204601F01EFB0028E0
:102F2000FAD10121204601F01DFB10B010BD0000B8
:102F3000000000205013002010E000E000023000EC
:102F4000000C014000100140000801400800024050
:102F50004C240140901300200024014000B581B0B2
:102F6000FFF751FE00F098F9FFF7F9FE01F04EFB74
:102F700001F02CFEFFF79BFEFFF757FD00F028FC49
:102F800001B05DF804EB00F08DBA70B50D788DB925
:102F900070BD11F8013F1678B34206D0401C294697
:102FA000FEF704F940B10146224612F8013F002B1A
:102FB000EFD170BD0C46F2E770BD00002DE9FC4F6B
:102FC00083B00E4617460BB100221A608046444675
:102FD00000E0641C207801F06BFE0028F9D1207815
:102FE0002D2816BF2B2814F801BB4FF02B0B002FF8
:102FF000019603D4012F01D0252F04DB002E47D0EA
:10300000C6F8008044E0002F0ADD102F04BF2078AE
:10301000302802BF617841F0200178290ED10AE002
:103020002078302818BF0A2708D1607840F02000A7
:10303000782802D11027A41C00E00827029400E0A1
:10304000641C20783028FBD04FF0000924A02646CD
:10305000CA468DF8000007E09DF80050451BCA469F
:10306000EDB207FB0959641C207801F02BFE00BF6C
:103070001BA301463A461846FEF7F2F80028EBD1AA
:103080000299A142484605D1019808B1C0F80080D4
:1030900000201CE01CA1A61BC95D761A002E0FD4CF
:1030A00005DC451B03D3B5FBF7F1514508D0AFF361
:1030B0000080049808B1012101604FF0FF3003E067
:1030C000BBF12D0F08BF4042019901B10C6005B062
:1030D000BDE8F08FFFE700230A2200216EE7000021
:1030E000303132333435363738396162636465667E
:1030F0006768696A6B6C6D6E6F70717273747576E8
:103100007778797A0000000000002115110E0D0C6F
:103110000B0B0A0A09090909090808080808080820
:103120000707070707070707070707070700000044
:103130000CB430B583B0044606A802900A460025B8
:103140000194009502AB01A9084878441E30FCF7B1
:10315000CDFF01990D7000284EBF04460198041B55
:10316000204603B030BC5DF80CFB00BFEBE0FFFF76
:10317000F0B40569474A416902EB8507A1F14603AE
:1031800057F8042C40F26D1606FB0323C268A1F128
:103190004504521E6610D31804EB9674032D03EBFE
:1031A000A40307DB4A1001EB92729210B1EB82018B
:1031B00008BF5B1C42680168C2EB021401EB84018A
:1031C000846803EB430204EBC2044FF4616000FB2C
:1031D0000411F0BC08467047F0B53C22B0FBF2F495
:1031E000C4EB0412A0EB82003C22B4FBF2F5C5EB69
:1031F0000512A4EB82041822B5FBF2F606EB460298
:10320000A5EBC20506F2DB2240F2B553B2FBF3FC9C
:103210009E460EFB1C2EBEF13C0F28BF0CF1010C8C
:10322000A2EB0C0340F26D17B3FBF7F740F26D13FE
:1032300003FB1722AEF13C03A2EB0C02B3F5997F1E
:1032400038BF521C44370D234FF4B77CDFF844E0FD
:103250000BE05B1E0EEB830C032B5CF804CC04D359
:1032600017F0030F08BF0CF1010C6245F1D3361DB6
:10327000CA610860A2EB0C020720B6FBF0F0C0EBBD
:10328000C000361A4C608D60521C8E614F61CA605E
:103290000B61F0BDA8000020F0B593B0042000F051
:1032A000EAF84AF2A554A0422CD000F03EF8644D52
:1032B00077206861032028611120E8600320A8605E
:1032C0001D2068600120286009A8CECDCEC04ECD5B
:1032D0004EC009A9B1E8CC106846243DA0E8CC1046
:1032E000CCC9CCC000F03BFB6846FFF741FF6862E9
:1032F000686A00F016FB00F032FB2146042000F063
:10330000AEF80EE07B2000F0EDFC10B97A2000F062
:10331000E9FC00F02CFB0121012000F0F3FA00F0A1
:103320001EFB00F0F0FC13B0F0BD00B581B0012130
:103330004FF0C05000F0CAFC012001F0CDFC00F0BD
:1033400083F8012000F058FC412000F0CBFC00285D
:10335000FAD04FF4807000F05AFC012000F05CFCC1
:1033600000F005FB00F0FBFA00F0F9FA47F6FF70F9
:1033700000F0E5FA01B05DF804EB00F0F0BA0FB42C
:1033800010B500F0ECFA02A82D4CFFF7F1FE6062D8
:10339000606A00F0C6FA00F0E2FA10BC5DF814FBB7
:1033A00070B58AB0044600F0B6FA2649884204D1C6
:1033B000002000F0B6FA00F0D2FA00F0ACFA69464C
:1033C000FFF70AFF68466EC86EC42EC82EC40AB046
:1033D00070BD00B589B000F09EFA1A49884204D148
:1033E000002000F09EFA00F0BAFA00F094FA694664
:1033F000FFF7F2FE059A04990398643A48BF002249
:10340000090241EA0241084309B000BD00B589B094
:1034100000F081FA0B49884204D1002000F081FAC3
:1034200000F09DFA00F077FA6946FFF7D5FE0298A2
:10343000C0EB0011019800EB810080B209B000BD23
:10344000E81200207F51010000B581B0012000F09A
:1034500046FC01B05DF804EB002000F040BC81B0F8
:10346000002200920A4B0093009A80180090009866
:10347000016001B0704781B000210091044A0092C0
:103480000099401800900098008801B07047000033
:10349000006C0040002201F025BC0000002201F079
:1034A00051BC000030B587B001211C2000F005FCA4
:1034B00001214FF4804000F009FC4FF46040ADF86A
:1034C0000000182103208DF803108DF802006946D2
:1034D000DFF88442DFF88452204600F033FC4FF4DA
:1034E00080501021ADF800008DF803102046694689
:1034F00000F028FC40201021ADF800008DF80310EA
:103500002846694600F01EFC4021284600F07FFC5A
:103510004FF48051204600F07AFC00204FF4827175
:10352000ADF80400ADF806100290ADF80C004FF4B1
:1035300000710820ADF80E10ADF810000021072032
:10354000ADF81210ADF8140001A9854D284601F020
:1035500013FC0121284601F02BFC4FF4805120463A
:1035600000F057FC062000F0A5F84FF480512046EB
:1035700000F04DFC07B030BD2DE9F04105460E4688
:10358000754F14464FF48051384600F042FC062037
:1035900000F090F84FF48051384600F038FC4FF4BA
:1035A0008051384600F035FCDFF8B48102214046F6
:1035B00001F00EFC0028F9D00221404601F004FC85
:1035C0000121404601F004FC0028F9D0404601F0FA
:1035D000FDFB3004000E00F06DF8F0B200F06AF868
:1035E000200017D02E78641E0221404601F0F0FB27
:1035F0000028F9D03146404601F0E6FB0121404663
:1036000001F0E6FB0028F9D0404601F0DFFB6D1C1D
:10361000002CE7D14FF48051384600F0F8FBBDE8AC
:10362000F04161E02DE9F04105460E464A4F14464F
:103630004FF48051384600F0ECFBDFF82481022182
:10364000404601F0C5FB0028F9D00321404601F0B7
:10365000BBFB0121404601F0BBFB0028F9D04046EE
:1036600001F0B4FB3004000E00F024F8F0B200F0DA
:1036700021F8200017D0641E0221404601F0A8FB6B
:103680000028F9D00021404601F09EFB0121404670
:1036900001F09EFB0028F9D0404601F097FB002C7A
:1036A00005F8010BE7D13846BDE8F0414FF48051F1
:1036B00000F0ADBB30B581B00446294D022128464B
:1036C00001F086FB0028F9D02146284601F07CFB5A
:1036D0000121284601F07CFB0028F9D0284601F0A2
:1036E00075FBC0B201B030BD70B51B4C4FF48051BA
:1036F000204600F08EFB1A4D0221284601F068FB9F
:103700000028F9D00521284601F05EFB012128465A
:1037100001F05EFB0028F9D0284601F057FB02219A
:10372000284601F055FB0028F9D00021284601F079
:103730004BFB0121284601F04BFB0028F9D028461D
:10374000084E01F043FB30704FF48051204600F0EA
:103750005EFB307870BD0000000C0140001001409D
:10376000003800409613002000B581B002220621E7
:103770006846FFF757FFBDF80010C829A4BF002016
:10378000ADF80000BDF8000001B000BD00B581B08B
:10379000022206216846FFF745FFBDF80010C82940
:1037A000A4BF0020ADF80000BDF80010491CADF822
:1037B0000210BDF80200C828C4BF0021ADF80210F5
:1037C000022206210DF10200FFF7D6FE01B000BD76
:1037D0003B484FF48071018001881C3141800221F7
:1037E000821E32F811301C3320F81130491C32F897
:1037F00011301C3320F81130491C32F811201C32D2
:1038000020F81120491CC829EADB7047000000009D
:103810002C48012130B5418087B03221C18000227F
:103820000A21818000236421018100254FF4167153
:103830004181002441F270718181684600212EC0CF
:103840000EC01F4DADF800401C2235F8021B684623
:10385000FFF792FE641CA0B2C828F3DB07B030BDAE
:1038600070B5184C1C2210212046FFF7DBFE208883
:103870001AA541F22716B0420AD02680FFF7C8FFEA
:1038800026801C2210212046FFF776FE0EA200E0C3
:1038900017A20021002001F01DF92A460121002075
:1038A00001F018F9BDE870404FF47A70FFF7C7B91E
:1038B000044841F2271101801C221021FFF75CBE51
:1038C000E80F002034130020454550524F4D20444E
:1038D000454641554C54202000000000205761749B
:1038E0006572205765696768742020200000000019
:1038F000454550524F4D204F4B2020202020202066
:10390000000000001F4A0029118814BF084321EA63
:103910000000108070471D498888098840EA0140EE
:10392000704719490A8842F010020A80030C8B8202
:1039300008834FF6EF700A8802400A8070471249E8
:103940000A8842F01002030C0A8003F00F038B80F8
:1039500008814FF6EF700A8802400A8070470C48D1
:1039600009490A88930601D4401EFAD170470649D6
:103970000A884FF6F77002400A8008880207FCD5D3
:10398000704700000028004004280040182800402C
:10399000400D030030B5044685B00D46218A4CF633
:1039A000FF700140E888014321824EF6F310A1899F
:1039B0000140A88801432889014368890143A18106
:1039C0004FF6FF40A18A0140A8890143A1826846C1
:1039D00000F025F917492A688C420CBF0399029917
:1039E00019204143A08903044CBF52009200B1FB4F
:1039F000F2F16422B1FBF2F212011309642000FB20
:103A00001311A08903040AD5C90032316420B1FB27
:103A1000F0F000F007000243228105B030BD09013B
:103A200032316420B1FBF0F000F00F00024322813C
:103A300005B030BD0038014021B1818941F4005109
:103A40008181704782894DF6FF710A4082817047FB
:103A50000B065B0F4FF0010C01F01F01012B81B031
:103A60000CFA01F108BF0C3003D0022B0CBF103050
:103A70001430002A026814BF114322EA01010160D8
:103A800001B07047C1F30801818070478088C0F39E
:103A9000080070470246002012880A4218BF012021
:103AA000704730B402460C060020640F012501F077
:103AB0001F03012C05FA03F308BF948903D0022CDD
:103AC0000CBF148A948A090A128805FA01F123406E
:103AD000114030BC002B1CBF00290120704701227F
:103AE000090A02FA01F189B2C94301807047000056
:103AF0002DE9F04182B0064600243D4D3AA70FF271
:103B0000EC086A464146304601F06AF902001BD0D3
:103B1000002614B93946284610E0012C03D1394655
:103B200005F10A000AE0022C03D1394605F1140020
:103B300004E0032C04D1394605F11E00FFF7F8FA22
:103B4000641CE4B2052CDCDB0A2105F15800FFF708
:103B5000A5FC00245FF0000605F11E0705F11E001C
:103B6000FDF75EFB86420FD23878A0F130010A29BA
:103B700007D205F15801E2B2641C8854E0B20A2869
:103B800002DA761C7F1CE9E705F15800FFF7A2FA7C
:103B9000A5F852006878542804BFB5F85210A5F86B
:103BA000501002B0BDE8F08130B5124CE5780A281B
:103BB00081B007D1152D05DB61190871201DFFF7B4
:103BC00097FF01E0172D07DB6421201DFFF762FC42
:103BD0000025E57001B030BD61196D1C0871E570FC
:103BE00001B030BD00000000257300002C00000073
:103BF000841200201C120020484900220A7001286B
:103C00000A7002D0042801D105200870704743498A
:103C10000A681043086070474149086070473E4A8F
:103C2000116801F00C01082913D11168D2F800C005
:103C3000C1F383439B1C5FEACC3158BF394906D599
:103C4000D2F800C05FEA8C314CBF364936494B434D
:103C500000E0354B036035491368D0F800C0C3F36A
:103C60000313CB5C2CFA03FCC0F804C01368D0F833
:103C700004C0C3F30223CB5C2CFA03FCC0F808C0D9
:103C80001368D0F804C0C3F3C223CB5C2CFA03FC46
:103C9000C0F80CC01268C368C2F381321144097CB9
:103CA000B3FBF1F101617047214A0029116814BF8B
:103CB000084321EA0000106070471E4A002911687D
:103CC00014BF084321EA0000106070471A4A002917
:103CD000116814BF084321EA0000106070471749BB
:103CE00008607047014640090A4A012808BF106869
:103CF00003D002280CBF106A506A01F01F01C840AF
:103D000000F0010070470E48016841F080710160C9
:103D100070470000001002400410024020100240D2
:103D20003C04424200093D0000127A00DC00002001
:103D300014100240181002401C100240400442427D
:103D4000241002402DE9F041CA78002402F00F034C
:103D5000D20644BF8A7813430A88D5B21DB30568DA
:103D600001260F2706FA04FC0CEA020EE64516D1DE
:103D70004FEA840E07FA0EF825EA080503FA0EFE4C
:103D80004EEA050591F803E0BEF1280F08BFC0F820
:103D900014C004D0BEF1480F08BFC0F810C0641CA6
:103DA000082CDFD30560B2F5807F27DB456800244F
:103DB00001260F2704F1080C06FA0CFC0CEA020E8F
:103DC000E64517D14FEA840E07FA0EF825EA0805F2
:103DD00003FA0EFE4EEA050591F803E0BEF1280F46
:103DE00008BFC0F814C091F803E0BEF1480F08BF47
:103DF000C0F810C0641C082CDCD34560BDE8F0811D
:103E00000246002092680A4218BF012070470161F3
:103E100070474161704781B0002A14BF0161416160
:103E200001B0704770B481B01F4A00284CBF93693D
:103E3000136800F44016B6F5401FC0F3034485B282
:103E400006D1146824F0706423F0706314600DE0F0
:103E5000C60204D5032606FA04F4A34304E0440D85
:103E6000260105FA06F6B34343F0706319B1440D19
:103E700021018D402B4300284CBF9361136001B09A
:103E800070BC704730B4094B8A0021F0030102F086
:103E90000C025C580F259540AC435C5090405D5837
:103EA0002843585030BC70470400014008000140CE
:103EB00030B581B00FF2E0320021002000F00AFEA0
:103EC0000FF2E8320121002000F004FE4FF4FA6006
:103ED000FEF7B5FEFFF7C4FCFDF7EAFFDFF8381385
:103EE000DFF838430B68002013F1010F00F0218048
:103EF00051F8025BC2B2401CA5540A6812F1010FCE
:103F000017D0C3B2401CE25451F8022F12F1010F36
:103F10000FD0C3B2401CE25451F8022F12F1010F2E
:103F200007D0C3B2401CE25451F8022F12F1010F26
:103F3000DED1204601F080F901F0A6F9C4F80A00AC
:103F400001B0DFF8DC02C4F80A0030BD70B501F042
:103F5000CFF9DFF8D012088810B10A88531E0B8001
:103F60000121DFF8C452DFF8C462DFF8C4422846FA
:103F7000FFF746FF38B9A08B411C0228A183D4BFAC
:103F80000020012001E00020A0833070022128469B
:103F9000FFF736FF38B9E08B411C0228E183D4BF1C
:103FA0000020012001E00020E0837070307868B9C3
:103FB000322121802188616149F64041606988424F
:103FC00004D39C4801214180FEF76FFA707848B90C
:103FD000A16944F62060814204D3964802224280BF
:103FE000FEF763FA2088944928B12288531E238063
:103FF0004020086002E0606140204860608828B18D
:104000006288501E60808020086002E0A0618020ED
:104010004860A08830B1A288501EA0800120C1F85D
:10402000000402E00120C1F80404E08830B1E28815
:10403000501EE0800220C1F8000402E00220C1F816
:104040000404208928B12189481E20810820286184
:1040500070BD0820686170BD78480168B1F5807F47
:104060002CBF0021491E016075490A88B2F5807F86
:10407000A8BF002203DA734B187800B1521E0A80E1
:104080007149088810B10A88531E0B806F4A107856
:1040900008B1401E1070488810B14A88501E4880F0
:1040A00070476B48016881F400710160704700003F
:1040B00010B584B082A20021002000F00BFD00BFEB
:1040C00083A20121002000F005FD684600210022A6
:1040D0000023002480E81E005E494A884DA1FFF7B6
:1040E00027F86A4601210A2000F0F4FC04B010BD54
:1040F0002DE9F04F89B0FFF7DBFF574C574EDFF843
:104100002CA1DFF85C81DFF85CB101202070002772
:1041100000F0BDFD00F0C2FDB94642F20F7507E0A8
:10412000514805805148008801F008FBABF81A009F
:10413000FEF782FD617860600029F9D1C11B09D4C6
:1041400098F8001000F10A0711B901F03BFB00BF1D
:10415000FEF764FB6068B0EB090113D400F1640959
:104160009AF8000000F02CF86846FFF719F9684645
:10417000B0E80E50A6E80E50B0E80E10A6E80E10FB
:10418000B6F12406FEF7AEFAFEF7DFFB0028C7D132
:10419000FEF7E6FB01F020FEC4E7244800787047F4
:1041A000224840787047000010B5314C03E000BF52
:1041B00001F003FE208001F0F5FD0028F8D010BDCD
:1041C0002C494888421C1E2882B00DDB487800220A
:1041D00010B90120487007E0012802D10220487080
:1041E00002E0022808BF4A704A8023480278012A68
:1041F00008D10023037021480370087810B9184AC9
:1042000001211170164A107810B102B001F0D8B82F
:1042100002B070472564000000FC0008480100203F
:104220009A99394088000020001001409213002024
:10423000101300206C1300201008014074010020AE
:10424000700000206E0000208413002097130020CF
:104250000C0C01403413002074130020E8120020DD
:10426000840000202C010020600100209013002019
:104270009413002088130020780000207400002090
:1042800000B581B0FEF76AFEFFF712FEFFF730FFC0
:10429000002001B000BD00004461776F6F6E2032D6
:1042A00030313730393237200000000057617465F3
:1042B0007220496E74616B65202020200000000090
:1042C00044575F57617465725F496E74616B650036
:1042D000323031372E30392E323200001B491C4A21
:1042E00008431060704770B40378C1781C460122FF
:1042F000E1B1174B1B68457803F4E063C3F5E06355
:104300001B0AC3F104018D4081780F26DE40314045
:104310000D43104B2D011D5501780F4B01F01F006F
:104320008240490943F8212070BC704703F01F0305
:104330000A4802FA03F3640940F8243070BC70475D
:10434000074A114008430749086070470000FA0512
:104350000CED00E000E400E000E100E080E100E0BE
:1043600080FFFF1F08ED00E002684FF6FE710A4073
:1043700002600021016041608160C1604A49884259
:1043800005D14A48016841F00F0101607047484A71
:10439000904205D14548016841F0F0010160704745
:1043A000444A904205D14148016841F4706101607E
:1043B0007047414A904205D13C48016841F4704140
:1043C000016070473D4A904205D13848016841F488
:1043D0007021016070473A4A904205D13348016824
:1043E00041F4700101607047364A904205D12F4870
:1043F000016841F0706101607047334A904205D115
:104400002A48D0F8001441F00F0122E02F4A9042D0
:1044100005D12648D0F8001441F0F00119E02C4AEB
:10442000904205D12148D0F8001441F4706110E0A9
:10443000284A904205D11D48D0F8001441F470413B
:1044400007E0254A904206D11848D0F8001441F4FC
:104450007021C0F80014704703688A686FF30E1368
:1044600013430A6A13430A6913434A6913438A6967
:104470001343CA6913434A6A13438A6A13430360A6
:10448000CA6842600A6882604968C160704721B1A9
:10449000026842F001020260704703684FF6FE7145
:1044A0000B40036070470000080002400400024017
:1044B0001C0002403000024044000240580002400C
:1044C0006C00024080000240080402401C040240CC
:1044D0003004024044040240580402404368494A00
:1044E00013400A6813430A7943EA02234360464AA9
:1044F00083681340CA6813438A6813434A7943EABE
:1045000042038360C26A097C4B1E22F47002DBB254
:1045100042EA0352C26270470029816812BF41F02B
:10452000010149084900816070470029816814BF72
:1045300041F4807121F4807181607047816841F09D
:104540000801816070478068C00800F00100704772
:10455000816841F00401816070478068800800F044
:10456000010070470029816814BF41F4A00121F4C3
:10457000A0018160704770B407240A2981B00BDB69
:10458000A1F10A0505EB4505C668AC4026EA04041E
:10459000AB402343C36008E001EB41050669AC4032
:1045A00026EA0404AB40234303611F24072A0CDAE4
:1045B000521E02EB8202436B944023EA04049140B2
:1045C0002143416301B070BC70470C2A0CDCD21F40
:1045D00002EB8202036B944023EA040491402143DE
:1045E000016301B070BC70470D3A02EB8202C36AEE
:1045F000944023EA040491402143C16201B070BC9D
:1046000070470000FFFEF0FFFDF7F1FF10B502213B
:10461000102000F0C9F8DFF89C454FF400612046F7
:10462000FFF7F7FB042000F016FA002000F013FA61
:104630004FF400612046FFF7EAFB012000F00BFA7F
:104640000F2000F008FA4FF400612046FFF7DFFB6F
:10465000012000F000FA012000F0FDF94FF40061A4
:104660002046FFF7D4FB012000F0F5F9012000F00F
:10467000F2F94FF400612046FFF7C9FB012000F07A
:10468000EAF9012000F0E7F94FF400612046FFF756
:10469000BEFB012000F0DFF9012000F0DCF94FF44F
:1046A00000612046FFF7B3FB012000F0D4F90120A0
:1046B00000F0D1F94FF400612046FFF7A8FB01207C
:1046C00000F0C9F9012000F0C6F94FF4006120465E
:1046D000FFF79DFB012000F0BEF90F2000F0BBF9B1
:1046E0004FF400612046FFF794FB042000F0B3F97B
:1046F000082000F0B0F94FF400612046FFF787FB77
:10470000012000F0A8F90F2000F0A5F94FF4006196
:104710002046FFF77CFB012000F09DF90F2000F000
:104720009AF94FF400612046FFF771FB012000F079
:1047300092F90F2000F08FF94FF400612046FFF747
:1047400066FB012000F087F90F2000F084F94FF498
:1047500000612046FFF75BFB012000F07CF90F2091
:1047600000F079F94FF400612046FFF750FB01207B
:1047700000F071F90F2000F06EF94FF4006120464F
:10478000FFF745FB012000F066F90F2000F063F908
:104790004FF400612046FFF73AFB012000F05BF97F
:1047A000BDE810400F2056E12DE9F04105460E46C8
:1047B00000F0F4F8DFF80004DFF80044DFF8F473E9
:1047C000FEF75DFA00206071A071012E2571C8BF4F
:1047D00008206070E6700022DFF8E45304212846C8
:1047E000FFF719FBDFF8DC6300224FF480513046FD
:1047F000FFF711FB01224FF400613046FFF70BFB7E
:1048000001224FF480613046FFF705FB4FF48051E1
:104810003846FFF7FCFA7820FEF731FA4FF4805162
:104820003846FFF7F6FA7820FEF729FA41F2941895
:104830004046FEF724FA002204212846FFF7EBFA4F
:1048400000224FF480513046FFF7E5FA01224FF481
:1048500000613046FFF7DFFA01224FF480613046F5
:10486000FFF7D9FA4FF480513846FFF7D0FA782095
:10487000FEF705FA4FF480513846FFF7CAFA782060
:10488000FEF7FDF94046FEF7FAF90022042128461A
:10489000FFF7C1FA00224FF480513046FFF7BBFA10
:1048A00001224FF400613046FFF7B5FA01224FF4C0
:1048B00080613046FFF7AFFA4FF480513846FFF77A
:1048C000A6FA7820FEF7DBF94FF480513846FFF75F
:1048D000A0FA7820FEF7D3F94046FEF7D0F900227F
:1048E00004212846FFF797FA00224FF48051304602
:1048F000FFF791FA01224FF400613046FFF78BFA7F
:1049000000224FF480613046FFF785FA4FF4805162
:104910003846FFF77CFA7820FEF7B1F94FF4805162
:104920003846FFF776FA7820FEF7A9F96420FEF7FB
:10493000A6F9607840F0200000F07DF86420FEF7D2
:104940009EF9042020700C2000F075F86420FEF71A
:1049500096F94FF400613846FFF75BFA002000F04B
:104960007AF8012000F077F840F6B830FEF787F9C2
:104970006420FEF784F90220A0704FF400613846ED
:10498000FFF747FA002000F066F8062000F063F811
:10499000BDE8F04142F21070FEF771B970B582B017
:1049A00001213420FFF789F910204FF41841032228
:1049B0008DF80300ADF800108DF802206946DFF88D
:1049C000F441DFF80052DFF8F8612046FFF7BAF94A
:1049D0004FF4E050ADF8000069462846FFF7B2F901
:1049E0000420ADF8000069463046FFF7ABF94FF4FC
:1049F00000412046FFF70BFA4FF400612046FFF715
:104A000008FA4FF480512046FFF703FA4FF4806113
:104A10002846FFF7FEF94FF400612846FFF7F9F941
:104A20004FF480512846FFF7F4F904213046FFF790
:104A3000F0F902B070BD10B504464FF40061DFF824
:104A40007401FFF7E6F9200900F005F804F00F0003
:104A5000BDE81040FFE730B5044621074CBF0122F6
:104A6000002281B0DFF85801DFF858510421FFF728
:104A7000D2F960074CBF012200224FF48051284632
:104A8000FFF7C9F9A0074CBF012200224FF40061D3
:104A90002846FFF7C0F9E0074CBF012200224FF47F
:104AA00080612846FFF7B7F9DFF808414FF48051DD
:104AB0002046FFF7ACF97820FEF7E1F84FF480517B
:104AC0002046FFF7A6F901B0BDE830407820FEF798
:104AD000D6B800002DE9F0440FF2EC04374D2368FE
:104AE000DFF8D0A0687182B016460093EB78994247
:104AF00028BF0021A9711DF80110081840F080009E
:104B0000C0B2FFF798FF22E04FF400615046FFF774
:104B10007EF93809FFF79FFF07F00F00FFF79BFFB3
:104B20006879401C687111E00D2FEDD12268A879D9
:104B30000092EA78904228BF00200021A871697194
:104B40001DF8000040F08000FFF775FF761C3078FC
:104B500060B369792879814212D300206871226894
:104B6000A8790092401CEA78C1B2914228BF002087
:104B7000A871C0B21DF8000040F08000FFF75BFF95
:104B800037780A2FD0D12368A97968790093491C16
:104B9000EB78CAB29A4228BF0021A971C9B21DF8A8
:104BA0000110081840F08000C0B2CDE702B0BDE8A7
:104BB000F084000000080140A0860100641300207A
:104BC00000140140001001400040145400B583B0AF
:104BD00001210420FFF771F8482003228DF80B0013
:104BE000ADF8082002A92F48FFF7ACF801210120F9
:104BF000FFF763F800210020FFF744F901210020AE
:104C0000FFF740F90120009000218DF804101020DA
:104C10008DF8050001218DF80610684601F02EF987
:104C20000220009000218DF8041010208DF805005E
:104C300001218DF80610684601F020F903B000BD8F
:104C400000B581B0012001F04CF948B11648016867
:104C5000491C01B0016001205DF804EB01F04CB982
:104C600001B000BD00B581B0022001F03AF948B1B1
:104C70000E480168491C01B0016002205DF804EB98
:104C800001F03AB901B000BD084800687047074913
:104C900000200860704704480068704702490020FF
:104CA0000860704700080140801300207C1300203A
:104CB00010B50446FCF740FA01462046096ABDE8F3
:104CC0001040084710B50446FCF736FA0146204666
:104CD000896ABDE810400847014908607047000034
:104CE00020000E42401810F0030308D0C91A1FD349
:104CF000DB0748BF00F8012D28BF20F8022D130064
:104D000030B414461546103928BF20E93C00FAD8C3
:104D1000490728BF20E90C0048BF40F8042D89004E
:104D200028BF20F8022D48BF00F8012D30BC704785
:104D3000C91818BF00F8012DCB0728BF00F8012DB6
:104D40007047000000B500BF130096469446103926
:104D500028BFA0E80C50FAD85FEA417C28BF0CC0FD
:104D600048BF40F8042BC90728BF20F8022B48BFD2
:104D700000F8012B00BD000003880A8803F44153AA
:104D800013434A8813438A881343CA8813430A8902
:104D900013434A8913438A891343CA8913430380FF
:104DA0004FF2FF72838B13408383098A018270471D
:104DB00021B1028842F040020280704703884FF61A
:104DC000BF710B40038070478181704780897047B5
:104DD0000246002012890A4218BF012070470000D5
:104DE00070B50400154608BF2C680E46204601F039
:104DF0008BF80444207810B907A1296070BD3146B2
:104E0000204601F092F82118087810B1002201F82C
:104E1000012B2960204670BD00000000000000004A
:104E20007CB51D4621F000431446B3F5801F20F0E9
:104E3000000209D20026B34208BFB24200960ED04B
:104E40006A46FCF77DFC0AE0DFF8C06306EB13520C
:104E50000092DFF8BC33DFF8BC231140194322462F
:104E60002B46FCF79BFB0B465A00009C520DA418E6
:104E70003AB1002C05DD40F2FF72944200DB4EE0B7
:104E800048E021F00043002420F00002A3420EBFBE
:104E9000A242009AFCF7BCFC7CBD7CB51D4621F00B
:104EA00000431446B3F5801F20F0000209D200260B
:104EB000B34208BFB24200960ED06A46FCF740FCEF
:104EC0000AE0DFF8486306EB13520092DFF8403344
:104ED000DFF840231140194322462B46FCF7D8FD4A
:104EE0000B465A00009C520DA4183AB1002C05DD67
:104EF00040F2FF72944200DB11E00BE021F000432E
:104F0000002420F00002A3420EBFA242009AFCF748
:104F10007FFC7CBD6FF31E5343EA04517CBDBE4B46
:104F200001F0004040EA030100207CBD2DE9F84C6F
:104F3000002A82468B461F4600F0BA802BF00045BF
:104F400000202AF00004854208BF844200F0B080AF
:104F50004FEA4B004015401C08BF5FEA0B3100F0E0
:104F6000A7800020002AAD4911D55242B4A60825D9
:104F70001446002C18BF002D4FD0E20744BFD6E9DD
:104F80000023FCF70BFB640808366D1EF1E777DDA4
:104F9000ABA608241546EA0744BFD6E90023FCF770
:104FA000FDFA6D100836641E002D01DD002CF2D1D3
:104FB00002460B4650465946FFF732FF8B46824663
:104FC0002BF0004300202AF00002834208BF8242F7
:104FD0002C4655D04FEA4B004015401C08BF5FEAF5
:104FE0000B314DD0002C4BDD504659468C4A8D4B31
:104FF000FFF716FF21F00045002220F00003954244
:1050000008BF93423AD04A005215521C01D10B03FB
:1050100034D0641E002CE9DC30E002460B465046DA
:105020005946FFF73AFF8B4682462BF0004300209B
:105030002AF00002834208BF824221D04FEA4B008F
:105040004015401C08BF5FEA0B3119D0C4B150466F
:105050005946754A754BFFF7E3FE21F000450022E3
:1050600020F00003954208BF934207D04A00521532
:10507000521C01D10B0301D0641EEAD182468B463B
:105080002BF0004300202AF00002834208BF824236
:1050900007D04FEA4B004015401C08BF5FEA0B31B8
:1050A00006D1AFF300801FB1386840F001003860CE
:1050B00050465946BDE8F48C2DE9F94987B01F00E8
:1050C0001CBF0020386004920C46079D07A800F022
:1050D0003DFFC11020F0080001F0010101280591F9
:1050E0002FD10220009001AB07992246284600F0FC
:1050F000BFFF040002D1002000211DE00298FCF750
:1051000043FC022C18DB0DF10C08661EDFF820B101
:1051100002460B4600205946FCF740FA044658F870
:10512000040B0D46FCF730FC22462B46FCF7FAFD3B
:10513000761E02460B46EDD1049A019C3B46A2180E
:105140004DE002284ED1009001AB07992246284637
:1051500001F072F8040002D10020002119E0029849
:10516000FCF712FC022C14DB0DF10C08661EDFF8B4
:10517000C4B000225B46FCF711FA044658F8040B51
:105180000D46FCF701FC22462B46FCF7CBFD761EB4
:10519000EFD1019B0C466200520D03EB020511D0CA
:1051A000002D0FDD40F2FF72954206DB1A4B01F035
:1051B000004040EA030100200FE06FF31E5444EA70
:1051C00005510AE021F00045002620F00004B54218
:1051D0000EBFB4421A46FCF71BFB049A3B46FFF78E
:1051E000A5FE0CE0032802D100200B4907E00428AB
:1051F00007BF4FF0FF306FF0004100200021059AFB
:105200000AB181F0004109B0BDE8F08902FCFFFF5E
:105210000000E03FFFFF0F800000F07F0000F03F44
:105220003CBF737FDD4F1575436FAC642806C80A19
:1052300065CDCD410000B0410023002200213BE7B5
:105240000000000000002440000000000000594061
:10525000000000000088C3400000000084D7974190
:105260000080E03779C34143176E05B5B5B8934662
:10527000F5F93FE9034F384D321D30F94877825A2E
:105280003CBF737FDD4F157501F000428B1AA3F10F
:105290006051B1F5801F0ADBB1F17F6F1FD242EA86
:1052A000C102C10071F1004142EB507070470B1513
:1052B000C3F10903212B10D2890241EA90518002E7
:1052C0000128494141F0004121FA03F0C3F12003D4
:1052D000994071F1004150417047100070476FF0E4
:1052E000000013EB103F5CBF000E42EAC050704755
:1052F00030B5DFF8885381B020212846FEF780FDC5
:10530000DFF87C4378B9207950B9207B411C6428B0
:10531000217305DB002020722073012020710CE036
:105320000120207209E0207A012804D10021217295
:105330002078401C20700021217310212846FEF7A0
:105340005FFD78B9607950B9607B411C6428617356
:1053500005DB002060726073012060710CE00120A9
:10536000607209E0607A012804D1002161726078DE
:10537000401C60700021617308212846FEF740FD43
:1053800088B9A07958B9A07B411C6428A17306DBB9
:105390000020A072A0730120A07101B030BD0120D7
:1053A000A07201B030BDA07A012804D10021A17201
:1053B000A078401CA0700021A17301B030BD000096
:1053C00070B5AF4C9AB0A08A002840F03481227C9E
:1053D000012A6CD12021A948FEF712FD012804BF43
:1053E000607C002815D14FF49670FDF728FC012051
:1053F00060740020207120706178002904BF6079FA
:10540000002825D0E17C491CE174002060706071A7
:105410002AE0207960B1617C012909D10020207146
:1054200020746074A074E0741420A0821AB070BD5F
:1054300020780028E0D0617C0129DDD10020207097
:1054400002202074002060740520A0821AB070BD74
:10545000A178002904BFA079002805D0E17C481E6E
:10546000E0740020A070A071E07C012814DC012110
:10547000E174684694F8132083A1FDF759FE6A464B
:1054800000210020FFF726FB00F0D8F87D48E17CE2
:1054900030F811207EA1C6E0E07C0D28E9DD002176
:1054A0002174E174A174217121701AB070BD207C47
:1054B000022840F0C080714E20213046FEF7A0FC4B
:1054C000012804BF607C002808D10221A1820120AC
:1054D00060740020207120701AB070BD2078E8B18F
:1054E000617C01291AD10020207020716074012094
:1054F0002074FEF7DDF90220A08200206070607148
:10550000A070A071E07C401CE074E07C0D2840F3AA
:10551000928000212174E1741AB070BD10213046D0
:10552000FEF76EFC0128574D03D1002060716073B7
:105530003CE0607930B300216170E08A411C0228B0
:10554000E18233DD0020E08204F11602E07CE17CA0
:1055500035F8100032F811103231884205DAE07C5B
:1055600035F81010323125F81010E07CE17C35F868
:10557000100032F81110884218D3E07CE17C32F838
:10558000111011E0607888B10021617004F11602F9
:10559000E07CE17C35F8100032F81110884205D229
:1055A000E07C35F81010491C25F810100821304611
:1055B000FEF726FC012803D10020A071A07323E090
:1055C000A07998B10021A170E08A411C0228E182F3
:1055D0001ADD0020E082E07C35F81010322913DB60
:1055E000E07C35F81010A1F132020BE0A07858B140
:1055F0000021A170E17C35F8110028B1E07C35F87C
:1056000010104A1E25F8102094F8132025A1684692
:10561000FDF78EFD6A4600210020FFF75BFAE07C73
:1056200035F8102024A16846FDF782FD6A46012165
:105630000020FFF74FFA1AB070BD00001048C17C7F
:10564000491E0B2914D8DFE801F006090B0F0F0DD6
:105650000F0F0F0F0F1100BF1CA20AE01FA208E0DE
:1056600022A206E029A204E024A202E02BA200E08C
:105670002EA200210320FFF72DBA0000000C0140EC
:105680007400002034130020253032643E000000F6
:10569000202056616C7565203A2025303364202027
:1056A00000000000205365742056616C75653A2532
:1056B0003032642020200000202056616C75652067
:1056C0003A202530336420202000000041646472B9
:1056D000657373202020202020000000576174652E
:1056E00072446966662020202000000057617465BE
:1056F0007244696666542020200000004E6F7420BA
:1057000075736520202020202020000052655F4511
:105710006E7465725F54202020000000436F77573D
:1057200061697420202020202020000023232323CF
:1057300023232323232323202000000070B42049A7
:105740000B888008984228BF4FF6387034D20A8FF1
:10575000824228BF4FF496602ED2012201238C1C76
:105760002688B04238BF521C66885B1CB04238BFE6
:10577000521CA6885B1CB04238BF521CE6885B1CDA
:10578000B04238BF521C5B1C0834DDB21D2DE7DB74
:10579000D3B231F81330521ED2B231F81210322483
:1057A000C01A04FB02F56043CB1A963D90FBF3F060
:1057B000281A44BFC043401C70BC80B2704700BF71
:1057C000F00000202DE9F043DFF81C4583B0608E27
:1057D00028B1618E481E608603B0BDE8F083DFF813
:1057E00004050188E185DFF804150888208694F80F
:1057F0002C00062800F27082DFE810F007001A0083
:105800003600A4006E02B9012402FFF740FAFFF748
:1058100045FA0020DFF8C8142087A4F84000C880AB
:10582000FEF7C2FC012084F82C0003B0BDE8F08331
:10583000FEF7B6FC68B9DFF8A804502141808180EA
:105840008188DFF8AC0442688918416003B0BDE884
:10585000F083FEF7A5FC002800F03E82022084F8C9
:105860002C0003B0BDE8F083B4F84200401CA4F85B
:105870004200FFF709FA02460FF2844104F14C009E
:10588000FDF756FC04F14C0200210020FFF722F93D
:10589000112104F14C00FDF701FEFEF781FC0546E5
:1058A000FEF77BFCB4F8421000956422B1FBF2F2E3
:1058B00092B201920346228F0FF2584104F14C003C
:1058C000FDF736FC04F14C0201210020FFF702F93C
:1058D000A08E42F20F71884200F0FE81DFF80024B2
:1058E000DFF810544FF6FF71D180FFF7D0F9FFF7C2
:1058F000D5F9A08E2087032084F82C00FDF734FF13
:10590000E0862080FDF765FDC4F80500FDF77EFD0B
:10591000A4F80900A08EA4F8030068886076208EA1
:10592000A4F81100FDF7F7FF6064E08DA4F8110002
:1059300003B06889A08728896087A08EA4F8030037
:10594000BDE8F083A08F08B1401EA087FFF79CF947
:1059500000F080FDD4F826100FF2D4350FF2E438B1
:1059600000F086FD00F0F0FD0746A08F638F228FC8
:105970000090294604F14C00FDF7DAFB04F14C02DB
:1059800000210020FFF7A6F8FFF785F90646FFF78C
:105990007BF903460096BAB2414604F14C00FDF78C
:1059A000C7FB04F14C0201210020FFF793F8FEF73A
:1059B000F7FB10B1CF48018BA164A06C70B9FEF762
:1059C000EFFB58B9C648502141808180C9490A8BF4
:1059D000A2648188C64842688918416042F20F7209
:1059E000A08E904200F0AE80BD4F20874FF6FF7131
:1059F000F980B4F80310814200F09680FEF7D0FBE6
:105A0000B0F1000F40F06881FEF7CAFB002840F0BB
:105A10006381A06C00283DD1FFF736F900F01AFD34
:105A2000D4F8261000F024FD00F08EFD0646A08F6D
:105A3000638F228F0090294604F14C00FDF778FB1C
:105A400004F14C0200210020FFF744F8FFF723F98E
:105A50008146FFF719F90346CDF80090B2B24146EE
:105A600004F14C00FDF764FB04F14C02012100201D
:105A7000FFF730F850207880B8809E48018B9C4812
:105A8000A164B98842688918416094F82D00401CCF
:105A900084F82D0094F82D000A28B5DD40F6B831C1
:105AA000E187062084F82C00002084F82D00ABE765
:105AB000A06C002838D1FFF7E7F800F0CBFCD4F851
:105AC000261000F0D5FC00F03FFD0646A08F638F46
:105AD000228F0090294604F14C00FDF729FB04F1C8
