:020000040800F2
:10000000B80D00205D930008C5910008C791000855
:10001000C9910008CB910008CD91000800000000B4
:10002000000000000000000000000000CF91000868
:10003000D191000800000000D3910008D59100087C
:10004000879300088B9300088F9300089393000810
:10005000979300089B9300089F930008A3930008C0
:10006000A7930008AB930008AF930008B393000870
:10007000B7930008E3910008BB930008E9910008DA
:10008000BF930008C3930008C7930008CB930008F0
:10009000CF930008D3930008D7930008DB930008A0
:1000A000DF930008EF910008E3930008E79300084E
:1000B000F5910008FB910008EB930008EF9300080E
:1000C000F3930008F7930008FB930008FF930008E0
:1000D00003940008019200080794000807920008A2
:1000E0000B9400080F94000813940008179400085C
:1000F0001B9400081F94000823940008279400080C
:100100002B9400082F9400080D92000833940008E7
:10011000379400083B9400083F940008439400087B
:10012000479400084B9400084F940008539400082B
:100130002DE9F8415D485E4C5E4D5F4EDFF87C81F5
:1001400085B0016841F0100101604EF21F0702689E
:1001500002F0100204920499016841F0200101604C
:10016000026802F0200204920499016841F004013F
:100170000160026802F004020492012204990168FD
:1001800041F0080101603946006800F00800049061
:100190000498204602F0C3F80122FF21284602F00D
:1001A000BEF800222021204602F0B9F800224FF4C8
:1001B000FD71304602F0B3F800224FF41941284691
:1001C00002F0ADF800220421404602F0A8F8012216
:1001D0004FF40071304602F0A2F800970120019020
:1001E00000210220029103906946204601F05CFF45
:1001F00049F6FF1001210090019100200221029098
:1002000003912846694601F04FFF2020012100900C
:10021000019100200321029003912046694601F0DC
:1002200043FF012000210090019102906946304671
:1002300001F03AFF40F2FA300121009001910020D4
:100240000221029003913046694601F02DFF4FF2E2
:10025000040000210090019102913046694601F0AE
:1002600023FF4FF4707000210090019102916946C4
:10027000204601F019FF4FF4E050009000210120CA
:10028000019102906946204601F00EFF04200121F1
:10029000009001910020022102900391404669469E
:1002A00001F002FF06B0BDE8F08100001810024026
:1002B0000010014000080140000C01400014014002
:1002C0002DE9F84300240546100005F14206DFF849
:1002D000289BDFF8288B40F07585DFF8247BB988F0
:1002E0002878032940F09E80002814BF00220122B4
:1002F0004FF40051404602F012F86878002814BF0D
:10030000002201224FF48041404602F008F8A8780C
:10031000002814BF012200224FF40041404601F0A2
:10032000FEFFE878002814BF002201220821404681
:1003300001F0F5FF2879002819BF002201210122D0
:100340000121404601F0EBFF6879002814BF00222C
:1003500001220221404601F0E2FFA879002814BFE3
:10036000012200220421404601F0D9FFE87900284B
:1003700019BF0022012101220121484601F0CFFFCF
:10038000287A002814BF002201220221484601F0E9
:10039000C6FF687A002814BF0022012204214846C3
:1003A00001F0BDFFA87A002814BF01220022082115
:1003B000484601F0B4FFE87A002814BF0022012269
:1003C0001021484601F0ABFF287B002814BF002213
:1003D00001222021484601F0A2FF687B002814BFBB
:1003E000002201224021484601F099FFA87B012804
:1003F00003D100228021484605E0E87B012804D192
:1004000000221021404601F08AFFA87B20B901227A
:100410008021484601F083FFE87B002841F0BF853A
:1004200001F0B8BD05294DD1002814BF00220122DA
:100430004FF40051404601F072FF6878002814BF65
:10044000002201224FF48041404601F068FFA87865
:10045000002814BF002201224FF40041404601F061
:100460005EFFE878002814BF0022012208214046E0
:1004700001F055FF2879002819BF0022012101222F
:100480000121404601F04BFF6879002814BF00228B
:1004900001220221404601F042FFA879002814BF42
:1004A000002201220421404601F039FFE87920B101
:1004B00000220121484601F070BD01220121484679
:1004C00001F06BBD022940F0D381B98D002900F005
:1004D000E680012803D100224FF4005105E068783E
:1004E000012805D100224FF48041404601F017FF5A
:1004F000287828B901224FF40051404601F00FFF3F
:10050000687828B901224FF48041404601F007FF86
:10051000A878012803D100224FF4004104E0E878D4
:10052000012804D100220821404601F0F8FEA878F5
:1005300028B901224FF40041404601F0F0FEE8786E
:1005400020B901220821404601F0E9FE287901285E
:1005500002D10022012104E06879012804D100229F
:100560000221404601F0DBFE287920B90122012159
:10057000404601F0D4FE687920B9012202214046AC
:1005800001F0CDFEA879012803D1002204214046C4
:1005900005E0E879012804D100220121484601F054
:1005A000BEFEA87920B901220421404601F0B7FE21
:1005B000E87920B901220121484601F0B0FE287AED
:1005C000012802D10022022104E0687A012804D126
:1005D00000220421484601F0A2FE287A20B9012217
:1005E0000221484601F09BFE687A20B901220421CD
:1005F000484601F094FEA87A012802D10022082181
:1006000004E0E87A012804D100221021484601F0D4
:1006100086FEA87A20B901220821484601F07FFE13
:10062000E87A20B901221021484601F078FE287BA3
:10063000012802D10022202104E0687B012804D196
:1006400000224021484601F06AFE287B20B90122A1
:100650002021484601F063FE687B20B90122402139
:10066000484601F05CFEA87B012803D100228021CE
:10067000484605E0E87B012804D1002210214046CD
:1006800001F04DFEA87B20B901228021484601F0EF
:1006900046FEE87B002841F0828401F07BBC012803
:1006A00003D100224FF4804105E06878012805D18C
:1006B00000224FF40051404601F031FE287828B95D
:1006C00001224FF48041404601F029FE687828B9A4
:1006D00001224FF40051404601F021FEA878012884
:1006E00002D10022082105E0E878012805D1002286
:1006F0004FF40041404601F012FEA87820B90122D3
:100700000821404601F00BFEE87828B901224FF499
:100710000041404601F003FE2879012802D1002261
:10072000022104E06879012804D100220121404619
:1007300001F0F5FD287920B901220221404601F09F
:10074000EEFD687920B901220121404601F0E7FD64
:10075000A879012803D100220121484605E0E87963
:10076000012804D100220421404601F0D8FDA879D7
:1007700020B901220121484601F0D1FDE87920B9D4
:1007800001220421404601F0CAFD287A012802D145
:100790000022042104E0687A012804D10022022109
:1007A000484601F0BCFD287A20B9012204214846C0
:1007B00001F0B5FD687A20B901220221484601F016
:1007C000AEFDA87A012802D10022102104E0E87AC7
:1007D000012804D100220821484601F0A0FDA87A92
:1007E00020B901221021484601F099FDE87A20B98C
:1007F00001220821484601F092FD287B012802D100
:100800000022402104E0687B012804D1002220213D
:10081000484601F084FD287B20B90122402148464A
:1008200001F07DFD687B20B901222021484601F0BE
:1008300076FDA87B012803D100221021404605E067
:10084000E87B012804D100228021484601F067FDA1
:10085000A87B20B901221021404601F060FDE87B11
:10086000002841F09C8301228021484601F095BB7D
:10087000062940F01182B98D002900F00581012878
:1008800005D1288F18B100224FF4005107E0697894
:10089000012907D1688F28B100224FF480414046DA
:1008A00001F03DFD287828B901224FF4005140465F
:1008B00001F035FD687828B901224FF480414046A7
:1008C00001F02DFDA978012905D1A88F18B10022CA
:1008D0004FF4004106E0E978012906D1E88F20B104
:1008E00000220821404601F01AFDA87828B901220B
:1008F0004FF40041404601F012FDE87820B9012292
:100900000821404601F00BFD2979012904D1B5F8F1
:10091000400008B1002206E06979012906D130883B
:1009200020B100220221404601F0F9FC287920B9CB
:1009300001220121404601F0F2FC687920B9012230
:100940000221404601F0EBFCA979012905D170880C
:1009500018B100220421404606E0E979012905D1B9
:10096000B08818B10022484601F0D9FCA87920B916
:1009700001220421404601F0D2FCE87920B901228D
:100980000121484601F0CBFC297A012904D13089A4
:1009900010B10022022106E0697A012906D170898E
:1009A00020B100220421484601F0B9FC287A20B980
:1009B00001220221484601F0B2FC687A20B90122E6
:1009C0000421484601F0ABFCA97A012904D17089C1
:1009D00010B10022082106E0E97A012906D1B08988
:1009E00020B100221021484601F099FCA87A20B9D4
:1009F00001220821484601F092FCE87A20B9012240
:100A00001021484601F08BFC297B012904D1F08993
:100A100010B10022202106E0697B012906D1308A2D
:100A200020B100224021484601F079FC287B20B902
:100A300001222021484601F072FC687B20B9012286
:100A40004021484601F06BFCA97B012905D1708A41
:100A500018B100228021484607E0E97B012906D130
:100A6000B08A20B100221021404601F058FCA87B3A
:100A700020B901228021484601F051FCE87B002882
:100A800041F08D8201F086BA012805D1288F18B176
:100A900000224FF4804107E06978012907D1688F6F
:100AA00028B100224FF40051404601F038FC28786C
:100AB00028B901224FF48041404601F030FC6878AB
:100AC00028B901224FF40051404601F028FCA978D2
:100AD000012904D1A88F10B10022082107E0E9788C
:100AE000012907D1E88F28B100224FF40041404688
:100AF00001F015FCA87820B901220821404601F038
:100B00000EFCE87828B901224FF40041404601F07C
:100B100006FC2979012905D1B5F8400010B1002261
:100B2000022105E06979012905D1308818B1002238
:100B3000404601F0F4FB287920B901220221404609
:100B400001F0EDFB687920B901220121404601F056
:100B5000E6FBA979012904D1708810B1002248462A
:100B600007E0E979012906D1B08820B100220421EB
:100B7000404601F0D4FBA87920B901220121484662
:100B800001F0CDFBE87920B901220421404601F0B3
:100B9000C6FB297A012904D1F08810B10022042172
:100BA00006E0697A012906D1308920B100220221AC
:100BB000484601F0B4FB287A20B9012204214846B6
:100BC00001F0ADFB687A20B901220221484601F00C
:100BD000A6FBA97A012904D1708910B10022102145
:100BE00006E0E97A012906D1B08920B10022082166
:100BF000484601F094FBA87A20B90122102148460A
:100C000001F08DFBE87A20B901220821484601F065
:100C100086FB297B012904D1F08910B100224021F3
:100C200006E0697B012906D1308A20B1002220210B
:100C3000484601F074FB287B20B901224021484638
:100C400001F06DFB687B20B901222021484601F0AC
:100C500066FBA97B012905D1708A18B100221021F9
:100C6000404607E0E97B012906D1B08A20B1002285
:100C70008021484601F053FBA87B20B901221021B6
:100C8000404601F04CFBE87B002841F088810122BE
:100C90008021484601F081B9002814BF00220122BA
:100CA0004FF40051404601F03AFB6878002814BF29
:100CB000002201224FF48041404601F030FBA87829
:100CC000002814BF002201224FF40041404601F0E9
:100CD00026FBE878002814BF0022012208214046A4
:100CE00001F01DFB2879002819BF002201210122F3
:100CF0000121404601F013FB6879002814BF00224F
:100D000001220221404601F00AFBA879002814BF05
:100D1000002201220421404601F001FBE87900286D
:100D200019BF0022012101220121484601F0F7FAF2
:100D3000B988042901F03381287A002814BF0022E1
:100D400001220221484601F0EAFA687A002814BF1D
:100D5000002201220421484601F0E1FAA87A002885
:100D600014BF002201220821484601F0D8FAE87A8F
:100D7000002814BF002201221021484601F0CFFABA
:100D8000287B002814BF002201222021484601F0C0
:100D9000C6FA687B002814BF002201224021484681
:100DA00001F0BDFAA87B002814BF00220122802197
:100DB000484601F0B4FAE87B002801F0EB800022FD
:100DC00001F0E9B8012A41F0EA800D4FB988288F77
:100DD000032940F05E81A8B12978012912D1401E73
:100DE000288780B298B928704FF40051404601F02E
:100DF00096FA01240BE000BF0008014000100140FA
:100E0000200700204FF40051404601F088FA688F17
:100E100078B1697801290CD1401E688780B270B919
:100E2000687001224FF48041404601F078FA0124B5
:100E300005E001224FF48041404601F070FAA88F8E
:100E400078B1A97801290CD1401EA88780B270B969
:100E5000A87000224FF40041404601F060FA0124DE
:100E600005E000224FF40041404601F058FAE88FB7
:100E700070B1E97801290BD1401EE88780B260B9D2
:100E8000E87001220821404601F049FA012404E0FB
:100E900001220821404601F042FAB5F8400070B145
:100EA000297901290BD1401EA5F8400080B258B91C
:100EB00028710122404601F032FA012404E00122A7
:100EC0000121404601F02BFA308870B1697901297F
:100ED0000BD1401E308080B260B9687101220221BE
:100EE000404601F01CFA012404E0012202214046A0
:100EF00001F015FA708870B1A97901290BD1401E53
:100F0000708080B260B9A87100220421404601F0CF
:100F100006FA012404E000220421404601F0FFF912
:100F2000B08868B1E97901290AD1401EB08080B249
:100F300058B9E8710122484601F0F1F9012404E0B2
:100F400001220121484601F0EAF9F08870B1297ABE
:100F500001290BD1401EF08080B260B928720122B5
:100F60000221484601F0DBF9012404E001220221BC
:100F7000484601F0D4F9308970B1697A01290BD162
:100F8000401E308180B260B9687201220421484657
:100F900001F0C5F9012404E001220421484601F0D2
:100FA000BEF9708970B1A97A01290BD1401E7081F8
:100FB00080B260B9A87200220821484601F0AFF95A
:100FC000012404E000220821484601F0A8F9B08974
:100FD00070B1E97A01290BD1401EB08180B260B9AD
:100FE000E87201221021484601F099F9012404E039
:100FF00001221021484601F092F9F08970B1297B55
:1010000001290BD1401EF08180B260B92873012202
:101010002021484601F083F9012404E00122202127
:10102000484601F07CF9308A70B1697B01290BD107
:10103000401E308280B260B9687301224021484668
:1010400001F06DF9012404E001224021484601F03D
:1010500066F9708A70B1A97B01290BD1401E70829C
:1010600080B260B9A87301228021484601F057F987
:10107000012404E001228021484601F050F9B08AA1
:10108000002800F08787E97B012900F0768700F0CF
:1010900081BF052940F0B38070B1297801290BD1B7
:1010A000401E288780B260B928704FF40051404636
:1010B00001F035F9012404E04FF40051404601F0FD
:1010C0002EF9688F78B1697801290CD1401E6887A4
:1010D00080B270B9687001224FF48041404601F03F
:1010E0001EF9012405E001224FF48041404601F041
:1010F00016F9A88F78B1A97801290CD1401EA887CC
:1011000080B270B9A87001224FF40041404601F04E
:1011100006F9012405E001224FF40041404601F0A8
:10112000FEF8E88F70B1E97801290BD1401EE887FD
:1011300080B260B9E87001220821404601F0EFF862
:10114000012404E001220821404601F0E8F8B5F846
:10115000400070B1297901290BD1401EA5F840004B
:1011600080B258B928710122404601F0D8F8012414
:1011700004E001220121404601F0D1F8308870B12D
:10118000697901290BD1401E308080B260B9687145
:1011900001220221404601F0C2F8012404E00122AC
:1011A0000221404601F0BBF8708870B1A97901298D
:1011B0000BD1401E708080B260B9A8710122042159
:1011C000404601F0ACF8012404E00122042140462D
:1011D00001F0A5F8B08868B1E97901290AD1401E6B
:1011E000B08080B2002840F0DA86E87101224846DB
:1011F00000F0CCBE01220121484600F0CEBE0229FB
:1012000040F0BF82B98D002900F0588170B12A7872
:10121000012A0BD1401E288780B268B928704FF48C
:101220000051404601F07BF8012405E001224FF413
:101230000051404601F073F8688F78B16978012950
:101240000CD1401E688780B270B9687001224FF4DB
:101250008041404601F063F8012405E001224FF48B
:101260008041404601F05BF8A88F78B1A978012948
:101270000CD1401EA88780B270B9A87001224FF42B
:101280000041404601F04BF8012405E001224FF4F3
:101290000041404601F043F8E88F70B1E978012938
:1012A0000BD1401EE88780B260B9E87001220821A6
:1012B000404601F034F8012404E0012208214046B0
:1012C00001F02DF8B5F8400070B1297901290BD152
:1012D000401EA5F8400080B258B92871012240464E
:1012E00001F01DF8012404E001220121404601F033
:1012F00016F8308870B1697901290BD1401E308011
:1013000080B260B9687101220221404601F007F8FD
:10131000012404E001220221404601F000F8708817
:1013200070B1A97901290BD1401E708080B260B9DB
:10133000A87101220421404600F0F1FF012404E0DD
:1013400001220421404600F0EAFFB08868B1E97943
:1013500001290AD1401EB08080B258B9E87101223B
:10136000484600F0DCFF012404E001220121484648
:1013700000F0D5FFF08870B1297A01290BD1401E09
:10138000F08080B260B9287201220221484600F044
:10139000C6FF012404E001220221484600F0BFFFFD
:1013A000308970B1697A01290BD1401E308180B239
:1013B00060B9687201220421484600F0B0FF0124A0
:1013C00004E001220421484600F0A9FF708970B1B1
:1013D000A97A01290BD1401E708180B260B9A87230
:1013E00001220821484600F09AFF012404E001226E
:1013F0000821484600F093FFB08970B1E97A0129CD
:101400000BD1401EB08180B260B9E8720122102178
:10141000484600F084FF012404E0012210214846E0
:1014200000F07DFFF08970B1297B01290BD1401EAE
:10143000F08180B260B9287301222021484600F073
:101440006EFF012404E001222021484600F067FFDE
:10145000308A70B1697B01290BD1401E308280B285
:1014600060B9687301224021484600F058FF01240A
:1014700004E001224021484600F051FF708A70B11B
:10148000A97B01290BD1401E708280B260B9A8737C
:1014900001228021484600F042FF012404E001229D
:1014A0008021484600F03BFFB08A002800F072859A
:1014B000E97B012900F0618500F06CBD70B12978ED
:1014C00001290BD1401E288780B260B928704FF4E3
:1014D0008041404600F023FF012404E04FF48041A6
:1014E000404600F01CFF688F78B1697801290CD163
:1014F000401E688780B270B9687001224FF40051B5
:10150000404600F00CFF012405E001224FF4005199
:10151000404600F004FFA88F70B1A97801290BD1D3
:10152000401EA88780B260B9A870012208214046F9
:1015300000F0F5FE012404E001220821404600F0FD
:10154000EEFEE88F78B1E97801290CD1401EE887DA
:1015500080B270B9E87001224FF40041404600F0BB
:10156000DEFE012405E001224FF40041404600F078
:10157000D6FEB5F8400078B1297901290CD1401E7A
:10158000A5F8400080B260B92871012202214046CE
:1015900000F0C5FE012404E001220221404600F0D3
:1015A000BEFE308868B1697901290AD1401E3080B9
:1015B00080B258B968710122404600F0B0FE0124A3
:1015C00004E001220121404600F0A9FE708868B1C4
:1015D000A97901290AD1401E708080B258B9A8713A
:1015E0000122484600F09BFE012404E00122012173
:1015F000484600F094FEB08870B1E97901290BD11A
:10160000401EB08080B260B9E871012204214046DA
:1016100000F085FE012404E001220421404600F090
:101620007EFEF08870B1297A01290BD1401EF0802E
:1016300080B260B9287201220421484600F06FFE92
:10164000012404E001220421484600F068FE3089AC
:1016500070B1697A01290BD1401E308180B260B926
:10166000687201220221484600F059FE012404E07C
:1016700001220221484600F052FE708970B1A97A19
:1016800001290BD1401E708180B260B9A87201227D
:101690001021484600F043FE012404E001221021FD
:1016A000484600F03CFEB08970B1E97A01290BD1BF
:1016B000401EB08180B260B9E8720122082148461C
:1016C00000F02DFE012404E001220821484600F02C
:1016D00026FEF08970B1297B01290BD1401EF081D3
:1016E00080B260B9287301224021484600F017FEFD
:1016F000012404E001224021484600F010FE308A17
:1017000070B1697B01290BD1401E308280B260B973
:10171000687301222021484600F001FE012404E004
:1017200001222021484600F0FAFD708A70B1A97BA1
:1017300001290BD1401E708280B260B9A8730122CA
:101740001021404600F0EBFD012404E001221021AD
:10175000404600F0E4FDB08A70B1E97B01290BD16D
:10176000401EB08280B2002840F01984E873012244
:101770008021484600F00ABC01228021484600F042
:101780000CBC062940F0A382B98D002900F04E81DF
:1017900068B12A78012A0AD1401E288780B260B930
:1017A0004FF40051404600F0BAFD012405E001224B
:1017B0004FF40051404600F0B2FD688F70B1697877
:1017C00001290BD1401E688780B268B901224FF40D
:1017D0008041404600F0A3FD012405E001224FF4C2
:1017E0008041404600F09BFDA88F70B1A978012987
:1017F0000BD1401EA88780B268B901224FF4004186
:10180000404600F08CFD012405E001224FF4004128
:10181000404600F084FDE88F68B1E97801290AD1DB
:10182000401EE88780B258B901220821404600F0E6
:1018300076FD012404E001220821404600F06FFDFE
:10184000B5F8400068B1297901290AD1401EA5F8F0
:10185000400080B250B90122404600F060FD0124F2
:1018600004E001220121404600F059FD308868B1B2
:10187000697901290AD1401E308080B258B901220D
:101880000221404600F04BFD012404E00122022128
:10189000404600F044FD708868B1A97901290AD159
:1018A000401E708080B258B901220421404600F0E9
:1018B00036FD012404E001220421404600F02FFD02
:1018C000B08860B1E979012909D1401EB08080B2A9
:1018D00050B90122484600F022FD012404E0012213
:1018E0000121484600F01BFDF08868B1297A0129E2
:1018F0000AD1401EF08080B258B901220221484628
:1019000000F00DFD012404E001220221484600F010
:1019100006FD308968B1697A01290AD1401E3081FB
:1019200080B258B901220421484600F0F8FC012495
:1019300004E001220421484600F0F1FC708968B1FE
:10194000A97A01290AD1401E708180B258B90122BA
:101950000821484600F0E3FC012404E001220821AC
:10196000484600F0DCFCB08968B1E97A01290AD167
:10197000401EB08180B258B901221021484600F0C3
:10198000CEFC012404E001221021484600F0C7FCEF
:10199000F08968B1297B01290AD1401EF08180B20B
:1019A00058B901222021484600F0B9FC012404E086
:1019B00001222021484600F0B2FC308A68B1697BE0
:1019C00001290AD1401E308280B258B9012240213B
:1019D000484600F0A4FC012404E0012240214846CE
:1019E00000F09DFC708A68B1A97B01290AD1401ED4
:1019F000708280B258B901228021484600F08FFCE5
:101A0000012404E001228021484600F088FCB08ACD
:101A1000002800F0BF82E97B012940F0BB82401E14
:101A2000B08280B2002840F0BA82ACE268B1297876
:101A300001290AD1401E288780B258B94FF480414D
:101A4000404600F06CFC012404E04FF48041404625
:101A500000F065FC688F70B1697801290BD1401ED8
:101A6000688780B268B901224FF40051404600F007
:101A700056FC012405E001224FF40051404600F0DD
:101A80004EFCA88F68B1A97801290AD1401EA88709
:101A900080B258B901220821404600F040FC0124E0
:101AA00004E001220821404600F039FCE88F70B1C3
:101AB000E97801290BD1401EE88780B268B901227C
:101AC0004FF40041404600F02AFC012405E00122C9
:101AD0004FF40041404600F022FCB5F8400070B1E0
:101AE000297901290BD1401EA5F8400080B258B9D0
:101AF00001220221404600F012FC012404E00122F0
:101B00000221404600F00BFC308860B16979012960
:101B100009D1401E308080B250B90122404600F009
:101B2000FEFB012404E001220121404600F0F7FB06
:101B3000708860B1A979012909D1401E708080B2F6
:101B400050B90122484600F0EAFB012404E00122DA
:101B50000121484600F0E3FBB08868B1E97901292A
:101B60000AD1401EB08080B258B9012204214046FB
:101B700000F0D5FB012404E001220421404600F0DE
:101B8000CEFBF08868B1297A01290AD1401EF08085
:101B900080B258B901220421484600F0C0FB01245C
:101BA00004E001220421484600F0B9FB308968B105
:101BB000697A01290AD1401E308180B258B90122C8
:101BC0000221484600F0ABFB012404E0012202217F
:101BD000484600F0A4FB708968B1A97A01290AD1AE
:101BE000401E708180B258B901221021484600F091
:101BF00096FB012404E001221021484600F08FFBEF
:101C0000B08968B1E97A01290AD1401EB08180B259
:101C100058B901220821484600F081FB012404E064
:101C200001220821484600F07AFBF08968B1297B3F
:101C300001290AD1401EF08180B258B90122402109
:101C4000484600F06CFB012404E001224021484694
:101C500000F065FB308A68B1697B01290AD1401E1A
:101C6000308280B258B901222021484600F057FB4B
:101C7000012404E001222021484600F050FB708A34
:101C800068B1A97B01290AD1401E708280B258B97F
:101C900001221021404600F042FB012404E0012211
:101CA0001021404600F03BFBB08A60B1E97B01297E
:101CB00009D1401EB08280B2002840F0708101221C
:101CC0008021484662E101228021484665E170B1E9
:101CD000297801290BD1401E288780B260B928706D
:101CE0004FF40051404600F01AFB012404E04FF489
:101CF0000051404600F013FB688F78B169780129E4
:101D00000CD1401E688780B270B9687001224FF410
:101D10008041404600F003FB012405E001224FF41E
:101D20008041404600F0FBFAA88F78B1A9780129DC
:101D30000CD1401EA88780B270B9A87001224FF460
:101D40000041404600F0EBFA012405E001224FF487
:101D50000041404600F0E3FAE88F70B1E9780129CC
:101D60000BD1401EE88780B260B9E87001220821DB
:101D7000404600F0D4FA012404E001220821404644
:101D800000F0CDFAB5F8400070B1297901290BD1E6
:101D9000401EA5F8400080B258B928710122404683
:101DA00000F0BDFA012404E001220121404600F0C8
:101DB000B6FA308870B1697901290BD1401E3080A4
:101DC00080B260B9687101220221404600F0A7FA92
:101DD000012404E001220221404600F0A0FA7088AC
:101DE00070B1A97901290BD1401E708080B260B911
:101DF000A87101220421404600F091FA012404E078
:101E000001220421404600F08AFAB08868B1E979DD
:101E100001290AD1401EB08080B258B9E871012270
:101E2000484600F07CFA012404E0012201214846E2
:101E300000F075FAB888042800F0B180F08870B11D
:101E4000297A01290BD1401EF08080B260B9287236
:101E500001220221484600F062FA012404E0012236
:101E60000221484600F05BFA308970B1697A012995
:101E70000BD1401E308180B260B96872012204210A
:101E8000484600F04CFA012404E0012204214846AF
:101E900000F045FA708970B1A97A01290BD1401E72
:101EA000708180B260B9A87201220821484600F012
:101EB00036FA012404E001220821484600F02FFAF6
:101EC000B08970B1E97A01290BD1401EB08180B28E
:101ED00060B9E87201221021484600F020FA01247E
:101EE00004E001221021484600F019FAF08970B18F
:101EF000297B01290BD1401EF08180B260B9287383
:101F000001222021484600F00AFA012404E00122BF
:101F10002021484600F003FA308A70B1697B01291C
:101F20000BD1401E308280B260B96873012240211B
:101F3000484600F0F4F9012404E00122402148461B
:101F400000F0EDF9708A70B1A97B01290BD1401E18
:101F5000708280B260B9A87301228021484600F0E7
:101F6000DEF9012404E001228021484600F0D7F97F
:101F7000B08A78B1E97B01290CD1B08A401EB082C9
:101F800080B260B9E87301221021404600F0C7F921
:101F9000012404E001221021404600F0C0F920464F
:101FA000BDE8F283F8B53D4D0446688D40B14FF46D
:101FB00000513B4800F0ACF9401E8041C00F00E0EA
:101FC00001206073688D012808DD4FF4004134481A
:101FD00000F09EF9401E8041C00F00E001206077B4
:101FE00004F12506688D2F4F022807DD8021384631
:101FF00000F08EF9401E8041C00F00E001203072D9
:102000004FF48051264D284600F082F960714FF45C
:102010008041284600F07CF960754021384600F088
:1020200077F930704FF48071384600F071F93074F0
:102030004FF40071384600F06BF930760022231D12
:102040005878002804BF197800290AD15860012067
:1020500018709040617801436170217808432070C6
:1020600016E0002804BF1978012903D15868401CE4
:1020700058600DE0012804BF1878012808D1617864
:1020800090408143617021780843207000201870CF
:10209000521C0833082AD3DBF1BD000020070020C2
:1020A000000C0140001001402DE9F84F834600204C
:1020B00086466FF01F089D4A9D4BDFF878924FF0DF
:1020C0000F0A01240F6804FA0EF63740B74240F0B9
:1020D000A4804C683CB3012C1AD0022C1DD0032CD8
:1020E0002ED0112C16D0122C1AD0934DAC421CBFFE
:1020F000924DAC4217D0924DAC421CBF914DAC42B8
:1021000011D0914DAC421CBF904DAC420BD018E0A9
:10211000C86816E0C868001D13E0C868083010E001
:10212000C8680C300DE0886808B9042009E001286F
:1021300019BF0820CBF814600820CBF8106000E02D
:102140000020B7F5807F39BFDC464FEA8E040BF1E3
:10215000040C44460AFA04F6DCF80050B54300FAD1
:1021600004F42C43CCF800404C68E40055D5D9F871
:10217000004044F00104C9F800404FEA9E0CD9F831
:10218000005005F001050095009C53F82C6008F004
:102190000C040AFA04F526EA05056D4EB34508BF9E
:1021A000002618D06B4EB34508BF012613D06A4EE7
:1021B000B34508BF02260ED0684EB34508BF0326BC
:1021C00009D0674EB34508BF042604D0654EB34519
:1021D0000CBF0526062606FA04F42C4343F82C40CF
:1021E0004C68E40314684CBF3C43BC4314604C6827
:1021F000A40354684CBF3C43BC4354604C68E402A5
:1022000094684CBF3C43BC4394604C68A402D468BF
:102210004CBF274324EA0707D7600EF1010EBEF139
:102220000F0F08F104087FF64CAFBDE8F18F2DE9E0
:10223000F84F00226FF01F033C4CDFF8F4804FF0A2
:102240000F094FF0010B82461CE0464FBA4514BF00
:102250000627052707FA0EF7BE4211D158F82C6061
:1022600026EA050548F82C50256805402560656874
:1022700005406560A5680540A560E5682840E06008
:10228000521C1B1D31FA02F040D00BFA02F008403C
:10229000F6D0B0F5807F39BFD4464FEA820E0AF1FE
:1022A000040C9E4609FA0EF6DCF80050284FB543A0
:1022B000042606FA0EF63543CCF80050C043DAF88F
:1022C0000C500540CAF80C504FEA920C950058F893
:1022D0002C6005F00C0E09FA0EF52E40BA4508BF29
:1022E0000027B7D01B4FBA4508BF0127B2D01A4FFD
:1022F000BA4508BF0227ADD0184FBA4508BF03271B
:10230000A8D0174FBA45A0D10427A3E7BDE8F18FA5
:1023100080680140481E8041C043C00F704781B0B3
:1023200002B90904016101B07047000000040140D6
:1023300008000140181002400000111000001210A7
:1023400000002110000022100000311000003210A7
:1023500000080140000C0140001001400014014041
:1023600000180140001C014038B5DFF8204CDFF8B0
:10237000205C00206084E88228764C210520687665
:10238000002068832075A882DFF8080C01F010F99E
:102390008821DFF8040C01F00BF900206075A075AE
:1023A0006421DFF8F80B01F003F96421DFF8F00B8A
:1023B00001F0FEF86421DFF8EC0B01F0F9F80020E1
:1023C000E0752083E0761121284601F0F1F8112113
:1023D000204601F0EDF8002068774421DFF8C85B63
:1023E000284601F0E5F8012068736877012105F1BE
:1023F0002C0041700170297329770020E0611121C0
:1024000004F15C0001F0D4F8112104F1700001F036
:10241000CFF8002084F82000E08431BD7CB5DFF8DF
:102420008C4BDFF8745BA088DFF8606B03281DD14C
:10243000317E042910D114217171307100220C21D8
:10244000284601F016FB0022DFF8481B2846FDF75E
:1024500037FF608D08BB2CE0052940F09E801521D8
:1024600030717171608D00285ED169E0052840F0FF
:102470009480307E042844D11420707100220320FF
:1024800030710C21284601F0F4FA0022DFF8041B19
:102490002846FDF715FF608D58B14FF6FF720021F9
:1024A000284601F0E6FA0022DFF8E81A2846FDF790
:1024B00007FF608D02280BDB4FF6FF7204212846D0
:1024C00001F0D7FA0022DFF8CC1A2846FDF7F8FE13
:1024D000608D02280BDD4FF6FF720821284601F0BF
:1024E000C8FA0022DFF8AC1A2846FDF7E9FE2846B4
:1024F00001F059FA0120707530750220B076042081
:1025000046E0052849D11520707100220320307162
:102510000C21284601F0ADFA0022DFF8781A28468F
:10252000FDF7CEFE608D58B14FF6FF7201212846AF
:1025300001F09FFA0022DFF85C1A2846FDF7C0FE82
:10254000608D02280BDB4FF6FF720521284601F053
:1025500090FA0022DFF83C1A2846FDF7B1FE608DA4
:1025600002280BDD4FF6FF720921284601F081FA9F
:102570000022DFF8201A2846FDF7A2FE284601F0C7
:1025800012FA09207075012030750220B0760520FE
:1025900070760120B0770220F07773BD2DE9F84303
:1025A000DFF8084A208E002857D000212186002716
:1025B000DFF8E059DFF8E0894FF6FF790126608EF9
:1025C00006FA07F1084209D04A46F9B2404601F03E
:1025D00050FA002229464046FDF772FE7F1CF8B2F1
:1025E0001028ECDBA088032818BF05282DD1E18E28
:1025F000DFF8B4393225084668431861228FDFF8C6
:102600008C79104668439861608F45431D62A58EA2
:102610007D7531B1597841F00201002559705D7323
:102620001E7332B1002259785A7741F0080159706F
:102630001E7740B10021587840F02000587003F117
:1026400025000170C671002018700020E0862087E8
:102650006087BDE8F14301F089BCBDE8F1832DE955
:10266000FE4F01F0A1FCFFF77FFE00F0B7FBFDF786
:102670005FFD01F0ABFC01F0C9FC01F0DFFC01F0F3
:10268000D7FE01F0BBFF01F09FFE01F003FFDFF872
:10269000140B01688A0003D5DFF80C1B01200860C9
:1026A00001F010FC01F042FCDFF8E048DFF8FC88A4
:1026B000DFF8DC6801202075B8F82C00A08401F058
:1026C0004FFEB8F80400307704280BD1DFF8DC7A2D
:1026D000012202213846FFF722FE0122042138465A
:1026E000FFF71DFE01F0D1FF0122DFF8B018DFF87F
:1026F000C00A02F051FA0122DFF8B81ADFF8B80A6E
:1027000002F04AFADFF8B40A02F06DFCDFF8B00A12
:1027100002F069FCDFF8AC0A02F065FCB8F80600CC
:102720000FF2A06100901123012204F15C0002F07D
:102730002DFE0020607704F15C02002102F0E2F837
:10274000FFF72CFFB8F8040001281CBF0228062858
:102750000DD101224FF40041DFF8500AFFF7DFFDF1
:1027600000224FF40071DFF8600AFFF7D8FDDFF8B0
:102770005C1ADFF85C7A0A68DFF8585ADFF81898B4
:10278000DFF820A84CF6CC40106007F1D40001908F
:1027900007F1D0000090FAE2132840F0B382002045
:1027A000A076AEE207F108001FFA8BF25146805C7A
:1027B00002F0C2FE20760BF1010BB9781FFA8BF004
:1027C0008842EFD30020B870E084642107F108004C
:1027D00000F0EEFE0020E07628E0E07E042825DD13
:1027E00002F094FFE08CDFF8C8B9401C0021E084BF
:1027F000E176E175DBF83C0001070AD5584601F0A7
:10280000CAFC01F01BFCDFF894170122584602F0C5
:10281000C3F9B8F82E0020B1E18C40F25920814272
:102820000ADADFF87C07642100F0C2FEB07F0028DE
:1028300050D04FF0000B3EE0484601F0B4F8A8F845
:1028400032003222607DA8F834000120A8F8300060
:10285000DFF854070169B1FBF2F2A8F83620322202
:102860008169B1FBF2F2A8F838203221006AB0FB8E
:10287000F1F1A8F83A1001F079FB0A2002F062FFAA
:10288000BFF34F8FDFF85019DFF850090A6802F4E0
:10289000E06202430A60BFF34F8F00BFFDE7DFF83D
:1028A00040091FFA8BF207F16C01805C01F0C8FC53
:1028B000F8700BF1010BB17F1FFA8BF08842EED359
:1028C0000020B0776421DFF8180900F071FE0020C5
:1028D000F0770BE0F07F042808DD01F0FEFC00211A
:1028E000F1836421DFF8F80800F062FE207F18B160
:1028F00003F00AF800212177217E002900F00682EA
:10290000B8F80800012818BF002840F0FD8101290F
:1029100020D194F82000012808D16079152818BF2B
:10292000142803D1002084F8200001E011206071F8
:10293000B8F80400052808BF032002D0062808BF05
:1029400002202071484601F02EF8E0800220A07697
:1029500001206076207E212821D194F820000128D2
:1029600008D16079152818BF142803D1002084F8F5
:10297000200001E021206071B8F80400052808BF9C
:10298000032002D0062808BF02202071484601F02B
:102990000AF8E0800220A0762120607684E10228F7
:1029A00040F09D809AF80400707112239AF8050097
:1029B000411EF1809AF807209AF8080042EA0022A6
:1029C00032816371B8F80400052808BF032002D0E3
:1029D000062808BF02202071C9B2484601F049F814
:1029E000DFF8B01500224846FDF76AFC484600F0C3
:1029F000DAFFE080B8F8040004286AD1F0880228E1
:102A000002D0032865D131E03089A8B129780129A5
:102A10000BD0012028700020A8704FF4C8706063AC
:102A2000002060643220E06401E00020A87064238C
:102A300001220121012014E0A87801280BD00121F6
:102A4000A970002028704FF4C870E0630020606512
:102A50003220E06401E0002028706423012200217C
:102A6000012001F0C3FBF188032916D13089A0B100
:102A7000697801290BD0012068700020E8704FF4BC
:102A8000C870A0630020A0643220E06401E0002050
:102A9000E87064230122012118E0F188032904BFB2
:102AA0003089002815D1E97801290BD00120E87080
:102AB000002068704FF4C8702064002060653220E8
:102AC000E06400E06870642301220021022001F02C
:102AD0008DFB012020750220A0766076E4E00328BB
:102AE00040F0E7809AF8040070719AF80500411EE2
:102AF000F1809AF807209AF8080042EA0022328111
:102B00009AF80A009AF80B3040EA0320A6F80B0066
:102B10009AF80C309AF80DC043EA0C23652BA8BF35
:102B2000642301DA03B90123A6F80D308BB2022B1E
:102B300007D1009B1880B6F80D0038704008E0649B
:102B400008E0032B06D1009B5880B6F80D00787082
:102B50004008206513206071C9B2B8F804002071E4
:102B6000484600F086FFDFF82C1400224846FDF7A7
:102B7000A7FB484600F017FFE080012020750220E7
:102B8000A07603206076F188022946D1308920B3EF
:102B9000297801290CD0012028700020A8704FF45A
:102BA000C870B6F80B10484360630020606401E011
:102BB0000020A87004F15C003A780FF6AC1102F026
:102BC000E5FB04F170020121002001F09BFE00985A
:102BD00002883B78012101201DE0A87801280CD053
:102BE0000121A970002028704FF4C870B6F80B10AE
:102BF0004843E0630020606501E00020287004F194
:102C00005C003A780FF6701102F0C0FB0098028861
:102C10003B780021012001F0E9FAF18803291FD156
:102C20003089E8B1697801290CD001206870002052
:102C3000E8704FF4C870B6F80B104843A06300204A
:102C4000A06401E00020E87004F15C007A780FF6DF
:102C50003C1102F09BFB00987B784288012120E028
:102C6000032904BF308900281ED1E97801290CD03E
:102C70000120E870002068704FF4C870B6F80B109F
:102C8000484320640020606500E068707A780FF6A1
:102C90000C1104F15C0002F079FB00987B7842880B
:102CA0000021022001F0A2FA0120A0770220E077A3
:102CB00028E004287FF470AD9AF8040070711423A2
:102CC0009AF80500411EF1809AF807209AF808004A
:102CD00042EA002232816371C9B2B8F8040020715F
:102CE000484600F0C6FEAB4900224846FDF7E8FA28
:102CF000484600F058FEE080012020750220A076B2
:102D000004206076FFF78AFB00202076F87848B12F
:102D100097F86C10012903D10120A0770220E077F9
:102D20000020F870387940B3002139710822DFF8AB
:102D300064B20199584600F07BFC9BF8080001281A
:102D400017D100218BF808105846494600F0C9FCFD
:102D50009AF80400707100229AF80500411E4FF69F
:102D6000FF70F180308159464846FDF7A9FA0120ED
:102D700020750120A0770220E077B8F8041004291C
:102D800005D1787918B10021797100F07AF8DFF86F
:102D90003C1409684AF6AA200860E27D002A3FF444
:102DA0001CADBA7007F10800DFF8F4B1594603F022
:102DB0001FF90020E0756421584600F0F9FB4FF040
:102DC000000BFAE456657220253031642E2530322E
:102DD00064204944202530326400000000B58FB0E3
:102DE0000920059000210122079109920B924FF4CE
:102DF0008030069002220D904FF4E0110C920E915B
:102E000005A803F03DF90F21022000910190002157
:102E10004FF4C0600291039004900221684603F0D1
:102E2000C4FA03F078FB4FF47A71B0FBF1F003F0D1
:102E3000EBFB042003F0F9FB002200214FF0FF30F0
:102E400003F0ABFB0FB000BD30B40168DFF8D8264B
:102E5000914207D14D49514BCA7D1C78504DAC541D
:102E6000521CCA750068DFF8C416884207D148486A
:102E7000D04A817F1378DA4C6354491C817730BC87
:102E800070472DE9F84F414884B000F12C0A00F159
:102E9000300400F1340900F1440800F14C0500F160
:102EA0003C0600F15407CB490391022001F1020BCB
:102EB000029003980178012926D1D8F80000D9F8AA
:102EC0000020824208BF28681BD0401CC8F80000C0
:102ED00003F0CEFBCDE90001D9F8000003F0C8FBF8
:102EE00002460B46DDE9000103F0D0FBCDE900010D
:102EF000286803F0BDFBDDE9002303F0EBFC03F0E1
:102F0000BBFDAAF800002AE09BF80000012826D1AA
:102F100038683168814202D1322020801FE0401C95
:102F2000386003F0A5FBCDE90001306803F0A0FB99
:102F300002460B46DDE9000103F0A8FB0022DFF8A2
:102F4000F03503F0C7FC03F097FD208080B22968BC
:102F5000C1F13202824224BFC1F1320121800398C3
:102F6000411C03913F1D0299361D2D1DA41C491EB5
:102F700008F1040809F104090AF1020A0BF1010B36
:102F8000029196D105B0BDE8F08F00001804002032
:102F90002009002090060020080300209C04002047
:102FA0000005002064050020DC060020200700202A
:102FB000401E042800D9704738B5DFE800F0032828
:102FC00049BCC400DFF86C05408D012807D1DFF84B
:102FD0006805817A8A0740F1E480022236E00228FF
:102FE00009D1DFF85405817A01F00A010A2940F07D
:102FF000D88002222AE0032801BFDFF83C05817A4D
:1030000001F02A012A2940F0CC8002221EE0DFF8DC
:103010002405408D012806D1DFF81C05817A8A0736
:1030200000F1BF8011E0022805D1DFF80C05817A9C
:1030300011F00A0F07E0032840F0B380DFF8F8042E
:10304000817A11F02A0F40F0AC800322427531BD25
:10305000DFF8E054DFF8E444688DE8B1AB88032B77
:103060000BD14FF6FF720121204600F002FD002235
:10307000DFF8CC142046FDF723F9A88805280BD1EA
:103080004FF6FF720121204600F0F3FC0022DFF82A
:10309000B0142046FDF714F9688D02281DDBA988BD
:1030A00003290BD14FF6FF720521204600F0E1FC09
:1030B0000022DFF88C142046FDF702F9A8880528C5
:1030C0000BD14FF6FF720521204600F0D2FC002202
:1030D000DFF86C142046FDF7F3F8688D03281DDB3C
:1030E000A98803290BD14FF6FF720921204600F071
:1030F000C0FC0022DFF848142046FDF7E1F8A8885C
:1031000005280BD14FF6FF720921204600F0B1FCD3
:103110000022DFF82C142046FDF7D2F82046DFF815
:10312000185400F040FCE8800520A875042068755C
:103130000120287531BDDFF80014887D002830D1CA
:1031400005224A7531BDDFF8F453DFF8EC43284619
:1031500000F029FCE080DFF8DC038088032818BF3A
:1031600005281ED1012084F820004FF6FF7215209B
:1031700060710C2103202071284600F07AFC0022A7
:10318000DFF8BC132846FDF79BF8284600F00BFC3F
:10319000E08000206075012020750220A0760520C7
:1031A000607631BD24100240E00442420008014034
:1031B000E0080020C8050020A0080020E00700204B
:1031C00020080020A0070020000C014088090020F2
:1031D00030020020AC0900200CED00E00400FA05EC
:1031E0002C060020F0B5054685B02868DFF8484376
:1031F000DFF85063B0F1804F4BD1307D18B9608C4F
:10320000401C60843DE00A283BD0142821D1707E08
:10321000B17E014306D10120B0760020607702F034
:10322000A5FA02E008B1401E7076607F401C60770E
:10323000C0B20A2825DD0020607704F15C0200217D
:1032400001F060FB04F170020121002001F05AFB43
:1032500017E01E2815D1B7488088032818BF042816
:1032600003D0052818BF062807D10122B449B34866
:10327000FDF726F808B101202075A07D08B1401E99
:10328000A075307D401C3075C0B26428A4BF0020FA
:1032900030752868AC49884240F02681717D0E293E
:1032A00000F21A81DFE811F00F0012001801180176
:1032B00018011801740080004B00180118010F005C
:1032C000C000C400FF0002F08AFA05E19949307F8E
:1032D0008A8890421CD09D4B1878C8B9032A18BF21
:1032E000052A02D100F012FE03E0062A03D100F005
:1032F00011FE00F03BFEBFF34F8F954995480A68D9
:1033000002F4E06202430A60BFF34F8F00BFFDE7A3
:10331000A08C898D884200F0DF808C4908780028D5
:1033200040F0DA80BFF34F8F89498A480A6802F477
:10333000E06202430A60BFF34F8F00BFFDE77D48A4
:103340008088032818BF052840F0C680824F384681
:10335000FEF728FE387828B1784800F024FBE0809A
:103360007878A07232213869B0FBF1F1A4F80B1023
:103370003221386AB0FBF1F1A4F80D103221386B1C
:10338000B0FBF1F1A4F80F10607DFFF711FEA3E090
:10339000F07E192803DC217D012940F09D8000206A
:1033A000F0760220207597E0207D022840F094807E
:1033B0001121684600F0FCF8002020756077634911
:1033C0000878002840F0888000235C4AD05C08B967
:1033D000302707E002F1380737F81300002814BF40
:1033E000312753270DF803705B1CD05C08B93027D8
:1033F00007E002F1380737F81300002814BF31271F
:1034000053270DF803705B1C102BDFDB684690E838
:103410008C1004F17001002081E88C1004F170021E
:10342000012101F06FFA57E0207F401C207753E024
:10343000607E88B3A17E4A1EA27669BB01281DD199
:10344000204601F0DCFF002060763A48808803289F
:1034500018BF052820D140490878E8B1800744BF4B
:10346000002008610878020744BF00220A62820631
:1034700044BF00220A63002008700DE0212818BF15
:10348000022804D003281CBF0428052804D12046A4
:1034900001F0B5FF00206076E07E401CE076F07F12
:1034A000401CF07718E0A07F012808D101224FF4DA
:1034B00000612A48FEF733FF0020A0770CE058B9DE
:1034C000E07F48B1401EE077C0B228B900224FF437
:1034D00000612248FEF723FF707D401C7075C0B26A
:1034E0001428A4BF0020707528681D49884219D18E
:1034F000104DA88801281CBF0228062812D103F00D
:10350000D9FA208D03F07EFBC0B258B10B4800F011
:103510004AFAA988012902D100F002FA01E000F07C
:1035200072F9208505B0F0BD004800400038014028
:103530000000494020070020180400200803002054
:103540009006002020090020000400404C000020CC
:103550000CED00E00400FA05DC0600200008014044
:10356000002C0140704700004C494748543A312034
:103570004F4E2025303364004C494748543A31209F
:103580004F46462025303364000000004C49474830
:10359000543A32204F4E2025303364004C4947487E
:1035A000543A32204F464620253033640000000054
:1035B000002203F09DBBF0B4024610689568131812
:1035C000506803EB5004C00721D54D441FE0F0BC08
:1035D00002F10C00704713F8017B05F8017B491ECE
:1035E000F9D1A0B1B60813F8011B06F00306032EAB
:1035F00008BF13F8016B01EB06214942801C2944E6
:1036000005D011F8016B05F8016B401EF9D1A342FA
:10361000DDD013F8016B16F0030104BF13F8011B92
:10362000C91C30090F28DAD113F8010B0F30D6E787
:1036300078B40025082A034651D18878012400284F
:103640001FBF4A78002A0978002948D0120242EAAE
:103650000042DFF8680880880A43D243022818BF76
:10366000062822F07F4220D10026032096FBF0F1AD
:1036700001EB4101711A22FA06F0C9B200F0010013
:1036800021B970B1B01C04FA00F009E0022904D19C
:1036900038B1B01E04FA00F002E010B104FA06F0EE
:1036A0000543761C182EE0DB2A465A6003F1090513
:1036B000182258682978204051B160B995F8200047
:1036C000401C85F82000002129700120187202E0BA
:1036D00008B10120287064006D1C521EE9D171BC34
:1036E0007047F8B40A46DFF8D4178B88022B18BF4E
:1036F000062B5AD100F1290402F1200302F138050A
:1037000001F10A0708204FF0FF362178A1B14FF0F0
:10371000000C84F800C05178012921D001211170DA
:1037200082F801C039882980A5F802C001211174EE
:1037300082F811C019702FE0617841B14FF0000C90
:1037400084F801C082F800C082F801C00CE0A178C2
:1037500011B34FF0000C84F802C0117801290ED18A
:1037600082F801C082F800C0A5F800C0A5F802C028
:1037700082F810C082F811C083F800C00CE082F813
:1037800000C001215170A5F800C07988698082F8D5
:1037900010C0012151741E703F1D2D1DE41C921C90
:1037A0005B1C401EB1D1F1BC7047012B18BF042B2C
:1037B000F9D100F129030820197871B100241C7097
:1037C00002F128011478012C03D1002515700D7029
:1037D00013E0012414700C700FE0997869B1002493
:1037E0009C7002F12801147A012C03D10025157276
:1037F0000D7202E0012414720C72DB1C521C401E7C
:10380000DAD1F1BC7047DFF8B42692880021022A91
:1038100018BF062A81B040D1C20748BF4FF480418B
:10382000820748BF41F40041420748BF41F480513C
:10383000020748BF41F40051C20648BF41F480610D
:10384000820648BF41F40061420648BF41F48071DE
:10385000020648BF41F40071C20548BF41F0400173
:10386000820548BF41F08001420548BF41F0100188
:10387000020548BF41F02001C20448BF41F00401E5
:10388000820448BF41F00801420448BF41F00101F1
:10389000000442D541F002013FE0C20748BF4FF4A7
:1038A0000041820748BF41F48041420748BF41F4CC
:1038B0000051020748BF41F48051C20648BF41F49D
:1038C0000061820648BF41F48061420648BF41F46E
:1038D0000071020648BF41F48071C20548BF41F043
:1038E0008001820548BF41F04001420548BF41F0D8
:1038F0002001020548BF41F01001C20448BF41F059
:103900000801820448BF41F00401420448BF41F06D
:103910000201000448BF41F00101084601B07047B0
:103920000021C20748BF4FF40041820748BF41F45D
:103930000051420748BF41F40061020748BF41F40B
:103940000071C20648BF41F08001820648BF41F0C5
:103950002001420648BF41F00801020648BF41F07D
:103960000201C20548BF41F48041820548BF41F4CD
:103970008051420548BF41F48061020548BF41F4CF
:103980008071C20448BF41F04001820448BF41F049
:103990001001420448BF41F00401000448BF41F057
:1039A000010108467047DFF81435B3F804C001463A
:1039B00000220878BCF1050F1BD100B10122487824
:1039C00008B142F00202887808B142F01002C878CB
:1039D00008B142F02002087908B142F480724879B7
:1039E00008B142F40072C879002840D042F48052F5
:1039F0003DE000B10122487808B142F00202887827
:103A000008B142F00402C87808B142F0080208790F
:103A100008B142F01002487908B142F020028879DA
:103A200008B142F04002C87908B142F08002087A39
:103A300008B142F48072487A08B142F40072887A80
:103A400008B142F48062C87A08B142F40062087B8F
:103A500008B142F48052487B08B142F40052887B9E
:103A600008B142F48042C87B08B142F400421046DB
:103A700070477CB50546DFF84804DFF84034017034
:103A80000C469888022818BF062861D1100046D03D
:103A900004EBD47629197608B4EB460020D011F84F
:103AA000010C01283FD001262E5503EB44000026CF
:103AB00001F8016C4FF6FF764189B24218BF8A4285
:103AC00003D105EB4400018705E005EB44010A87BB
:103AD000428100F04BFA05EB44010020C88673BD1B
:103AE000487801282AD001262E5503EB44000026F1
:103AF0004E704FF6FF764189B24218BF8A4203D119
:103B000005EB4400018705E005EB44010A8742818B
:103B100000F02CFA05EB44010020488773BD4908EA
:103B2000B4EB41000AD000202919285501F8010CF6
:103B3000002105EB44000187C18673BD00202919CF
:103B400028554870002105EB44000187418773BD6B
:103B5000032840F0D180100000F09E8089B9012038
:103B600028704FF6FF740020A870A242588918BF31
:103B700082420FBF28872A875A8100F0F7F9002078
:103B800092E0012C0FD10120A8704FF6FF740020A5
:103B90002870A242D88914BF8242A88700F0D7803B
:103BA000AA87DA81D1E0042C13D1012028714FF6C5
:103BB000FF740020A871A242588A18BF82420FBF2A
:103BC000A5F84000A5F840205A8200F0CFF9002067
:103BD00075E0052C0FD10120A8714FF6FF7400206D
:103BE0002871A242D88A18BF824268D005F14200EB
:103BF0004280DA8258E1082C19D1012028724FF650
:103C0000FF740020A872A242588B18BF824203D1D1
:103C100005F14201C88005E005F14200C2805A83E7
:103C200000F0A4F905F142010020488173BD092C80
:103C300019D10120A8724FF6FF7400202872A24209
:103C4000D88B18BF824203D105F14201488105E0BB
:103C500005F142004281DA8300F088F905F1420162
:103C60000020C88073BD0C2C40F0278101202873F0
:103C7000A8734FF6FF74598CA24218BF8A4204D130
:103C800005F14200C181D98C34E005F14200C281C6
:103C90005A844282DA8407E1002918BF012C05D139
:103CA00000202870A8702887A88773BD042C18BF2F
:103CB000052C08D100202871A871A5F8400005F155
:103CC0004201488073BD082C18BF092C08D1002080
:103CD0002872A872002105F14200C180418173BDA4
:103CE0000C2C40F0EA8000202873002105F14200EE
:103CF000C181A973418273BD052840F0C0801000C6
:103D000000F0928089B9012028704FF6FF740020DE
:103D10006870A242588918BF82420FBF28872A873D
:103D20005A8100F023F9002086E0012C12D10120F5
:103D300068704FF6FF7400202870A242988914BF63
:103D40008242688703D06A879A8100F00FF90020C9
:103D5000288773BD042C11D10120A8704FF6FF7481
:103D60000020E870A242D88918BF82420FBFA887FE
:103D7000AA87DA8100F0FAF8002067E0052C0DD15F
:103D80000120E8704FF6FF740020A870A242188A44
:103D900018BF82425AD0EA871A8285E0082C13D1D4
:103DA000012028714FF6FF7400206871A242588AE2
:103DB00018BF82420FBFA5F84000A5F840205A82E4
:103DC00000F0D4F800204CE0092C15D101206871D6
:103DD0004FF6FF7400202871A242988A18BF8242D1
:103DE0000FBFA5F84200A5F842209A8200F0BEF865
:103DF0000020A5F8400073BD0C2C5ED10120A871F5
:103E0000E8714FF6FF74D98AA24218BF8A4204D1E2
:103E100005F142004180198B2FE005F142004280FC
:103E20005A848280DA843FE0002918BF012C05D132
:103E30000020287068702887688773BD042C18BF1D
:103E4000052C05D10020A870E870A887E88773BD0D
:103E5000082C18BF092C07D1002028716871A5F81B
:103E60004000A5F8420073BD0C2C26D10020A8719B
:103E7000002105F142004180E971818073BD10008D
:103E800016D0012028554FF6FF7603EB4400B242CE
:103E9000418918BF8A4203D105EB4400018773BDF5
:103EA00005EB44010A874281BDE8734000F05EB82B
:103EB0000020285505EB4401088773BD200700202A
:103EC0007709002080B502F087FFBDE8014002F0CD
:103ED000E7BF10B5304C3E212046FFF769FB40F6A6
:103EE0001650608004F10A010120A0802081E0804A
:103EF000032204200A804A808A80CA800831401E3A
:103F0000F8D1022060850020E06210BD2349042022
:103F1000032203E0214904204FF496720A804A806C
:103F20008A80CA800831401EF8D17047F8B51A4E11
:103F30003146002003F0A8F831880024002541F222
:103F40001917B94205D0FFF7C4FF378000F00EF80B
:103F50000AE006EB4500811C681C80B203F094F86F
:103F60006D1C1E2DF5DB01242046F2BD70B541F21B
:103F70001911002003F0AEF80024094D094E36F85F
:103F8000021B25F8021B601C80B203F0A3F8641C1E
:103F90001E2CF4DB70BD0000200700202A07002043
:103FA000620700202207002080B50748016841F021
:103FB00010010160032002F0E3FA002003F062F92F
:103FC00003F080F9002002BD0020024080B50E48B9
:103FD000016841F0010101600022006800F0010069
:103FE0000090002100980D2002F0D7FA0D2002F079
:103FF000FDFA002200210F2002F0CFFABDE80240B6
:104000000F2002F0F3BA00BF1410024080B5BA4886
:10401000BA4901604FF4E131416000218160C16023
:1040200001610C21416100218161C16100F004FD49
:1040300018B1BDE804404B2118E001BD80B5B0487F
:10404000B04901604FF41651416000218160C160A8
:1040500001610C21416100218161C16100F0ECFC32
:1040600018B1BDE804405E2100E001BDADA0FFF73E
:1040700079BA000030B5044685B020689F4988426F
:1040800040D1A148A14D016841F4804101604FF445
:104090000071006800F480400490022204980091AE
:1040A00003200390019269462846FDF7FDFF4FF477
:1040B0008060002100900191029128466946FDF739
:1040C000F3FF934D934800F128018020E8602960B8
:1040D00020200021A8616960A96029616961E96106
:1040E000284603F03DF920B15FF089018DA0FFF76C
:1040F00039FA65636C6200220421252002F04DFA32
:10410000252044E07F49884243D17F48824D416861
:1041100041F4802141604FF48061406800F48020C8
:1041200004900222049800910320039001926946B2
:104130002846FDF7B9FF4FF400600021009001917F
:10414000029128466946FDF7AFFF714D71486864DA
:104150000020A864E8648020286500206865A865C0
:104160002020E8650020286605F1440003F0F8F8F7
:1041700018B1B7216BA0FFF7F5F905F144006063B2
:10418000AC6600220321272002F007FA272002F064
:104190002DFA05B030BD10B5044658492068884254
:1041A0000ED15948026822F4804202604FF4C06187
:1041B0005648FEF73CF8606B03F018F9252010E034
:1041C0005049884211D15048416821F48021416012
:1041D0004FF440615048FEF72AF8606B03F006F98F
:1041E0002720BDE8104002F006BA10BD30B585B0FA
:1041F000AB248DF802008DF80310100A8DF804002E
:1042000008258DF805208DF806308DF800408DF8D2
:10421000015005210DF1020001F0D8F88DF80700DA
:1042200042F21073000A8DF808000A220D208DF862
:1042300009006946304800F02EFC05B030BD000092
:1042400070B5364C0D462178052942D8DFE801F0DB
:1042500003070C171B22AB283BD1012002E0C01E34
:1042600020710220207036E0217D2279914204D213
:10427000621D5054491C21752DE003212170042139
:104280002170207402E005212170E073207D401C24
:10429000207520E00D281CD1E07B267C217946EAA0
:1042A0000026601D01F092F8217D491C864221758F
:1042B0000FD12279C9B2D01C814207D1611D284695
:1042C00001F086FE00F009F8012070BD00F005F84D
:1042D00001E000F002F8002070BD10B50F4C002086
:1042E000207564210E4803F075FA2046BDE81040A1
:1042F0001121FFF75DB90000A0080020003801403F
:10430000E00800200048004018100240000801406A
:104310009003002030000240000C014060090020A2
:10432000C8050020443A5C776F726B5C31383132DB
:1043300031325C494F545F4D43555F325F31383005
:10434000303931305C494F545F57495245524553DB
:10435000535C5372635C75736172742E630000006A
:10436000904810B5904C20604FF4E170606086B0CA
:104370000020A0600920E060002020616061A06151
:10438000204600F021FE20B15FF043018DA0FFF731
:10439000E9F84FF48050029002A9204600F0DDFEBB
:1043A00018B1492187A0FFF7DDF8002000900190A7
:1043B0006946204603F012FA18B1502181A0FFF798
:1043C000D1F806B010BD00004FF0804010B5774C1A
:1043D00020604FF4E160606086B00020A060632040
:1043E000E06000202061A061204600F0EDFD20B1DA
:1043F0005FF0620173A0FFF7B5F84FF480500290B0
:1044000002A9204600F0A9FE18B168216DA0FFF7AF
:10441000A9F80020009001906946204603F0DEF9DB
:1044200018B16F2167A0FFF79DF806B010BD00001E
:104430005F4810B55F4C20604FF4E160606086B06B
:104440000020A0600920E06000202061A0612046DB
:1044500000F0BAFD18B181215AA0FFF783F84FF49C
:104460008050029002A9204600F077FE18B1872103
:1044700054A0FFF777F8002000900190694620468D
:1044800003F0ACF918B18E214EA0FFF76BF806B01F
:1044900010BD0000484810B5484C2060B420606052
:1044A00086B00020A0600920E06000202061A061AB
:1044B000204600F089FD20B15FF0A00141A0FFF788
:1044C00051F84FF48050029002A9204600F045FEBA
:1044D00018B1A6213BA0FFF745F8002000900190FD
:1044E0006946204603F07AF918B1AD2135A0FFF7EF
:1044F00039F806B010BD80B500682A49884210D14D
:104500002F48016841F4006101600022006800F456
:104510000060009000210098192002F03EF8192058
:104520003AE0B0F1804F10D12548416841F00101D7
:1045300041600022406800F00100009000210098D6
:104540001C2002F02AF81C2026E01949884210D1CC
:104550001B48416841F0020141600022406800F0C0
:1045600002000090022100981D2002F016F81D2084
:1045700012E01149884213D11148416841F0080105
:1045800041600022406800F008000090052100987A
:10459000322002F002F83220BDE8024002F026B8D4
:1045A00001BD0000002C0140A0070020E007002012
:1045B0000004004020080020000C0040600800209B
:1045C00018100240443A5C776F726B5C31383132BC
:1045D00031325C494F545F4D43555F325F31383063
:1045E000303931305C494F545F5749524552455339
:1045F000535C5372635C74696D2E630080B5094827
:10460000094901600221416040F6C411816003F054
:104610000BF930B1BDE804405FF03A0103A0FEF7AA
:10462000A1BF01BD8809002000300040443A5C77FA
:104630006F726B5C3138313231325C494F545F4DAF
:1046400043555F325F313830303931305C494F5437
:104650005F57495245524553535C5372635C6977C7
:1046600064672E6300000000002804D000BF00BF74
:10467000401E0028FAD1704710B5040004D00B206A
:10468000FFF7F2FF641EFAD110BDE0B50FF29431CE
:104690000FF2983584B0D1E9002302A8D5E900676C
:1046A000C0E90023CDE900670221102000F00AF8DC
:1046B00002A9002000F092F96946012000F08EF96D
:1046C00004B0E0BD70B505460E4600F04AF8BE489D
:1046D000BE4CFFF7D1FF00206071A071012EC8BF52
:1046E00008206070E6702571032000F06EF841F23A
:1046F00094152846FFF7C0FF032000F066F828460F
:10470000FFF7BAFF032000F060F82846FFF7B4FF78
:10471000022000F05AF86420FFF7AEFF607840F006
:10472000200000F040F86420FFF7A6FF042020706E
:1047300000F040F96420FFF79FFF012000F033F8FC
:1047400040F6B830FFF798FF6420FFF795FF02208E
:10475000A070062000F027F8BDE8704042F210700B
:104760008AE710B50022042199489A4CFDF7D7FD3D
:10477000002208212046FDF7D2FD0022102120460C
:10478000FDF7CDFD002220212046FDF7C8FD0022C7
:1047900040212046FDF7C3FD2046BDE81040002221
:1047A0008021FDF7BCBD10B50446002202E010B523
:1047B0000446012204218648FDF7B1FD200900F0DE
:1047C00004F804F00F00BDE8104038B50446200797
:1047D000804D4CBF0122002280212846FDF79FFD1D
:1047E00060074CBF0122002240212846FDF797FDBB
:1047F000A0074CBF0122002220212846FDF78FFD93
:10480000E0074CBF0122002210212846FDF787FD5A
:10481000012208212846FDF782FD7820FFF72CFFB2
:10482000002208212846FDF77AFD78240B20FFF7A7
:104830001BFF641EFAD131BD0000000038B5634A89
:104840007CA3D5781C680094A94228BF00219171EF
:1048500050711DF80110081840F08000C0B2FFF739
:10486000A2FF31BDF8B51646FFF7E8FF71A7574D17
:1048700018E0FFF79CFF6879401C687111E00D2873
:10488000F7D1A8793A680092EA78904228BF0020D0
:1048900000216971A8711DF8000040F08000FFF749
:1048A00082FF761C307860B369792879814212D30F
:1048B000002068713A68A8790092401CEA78C1B279
:1048C000914228BF0020A871C0B21DF8000040F03E
:1048D0008000FFF768FF30780A28D0D168793B68FC
:1048E000A9790093491CEB78CAB29A4228BF0021EB
:1048F000A971C9B21DF80110081840F08000C0B2BB
:10490000CDE7E3BDF8B5344B304C1D781746227A1D
:1049100015434ED101232372FFF790FF45A618E0FF
:10492000FFF745FF6079401C607111E00D28F7D159
:104930003268A0790092E278904228BF00200021DE
:10494000A07161711DF8000040F08000FFF72BFF9F
:104950007F1C387860B361792079814212D30020BE
:1049600060713268A0790092401CE278C1B2914235
:1049700028BF0020A071C0B21DF8000040F08000E8
:10498000FFF711FF38780A28D0D13368A179607910
:104990000093491CE378CAB29A4228BF0021A17152
:1049A000C9B21DF80110081840F08000C0B2CDE770
:1049B0002072F1BD0549087840F00400FFE7087057
:1049C00040F00800EFE60000A086010094090020F6
:1049D00000140140000C01404C00002010B5C00044
:1049E00000F038000C4640F04000FFF7DCFE207875
:1049F000FFF7DDFE6078FFF7DAFEA078FFF7D7FE5D
:104A0000E078FFF7D4FE2079FFF7D1FE6079FFF759
:104A1000CEFEA079FFF7CBFEE079FFE7BDE81040BE
:104A2000C5E600001F1111111111111F1F1F1F1FBB
:104A30001F1F1F1F0040145438B5040001D101206E
:104A400032BD04F13805687820B90021297020466C
:104A5000FFF710FB242068702068C16821F4005122
:104A6000C160204600F03BFA2068016921F49041C2
:104A700001612068416921F02A01FFE74161206856
:104A8000C16841F40051C160002068602020687056
:104A9000A870002032BD2DE9F843054605F138061F
:104AA0000F4670782028914650D1002F14BFB9F1DD
:104AB000000F01204BD03078012847D00121317000
:104AC00021200021716070701C4602F0CFFEA5F815
:104AD00024908046A5F8269002E017F8011B41605B
:104AE000E88CA8B1E98C481EE884A868B0F5805F1E
:104AF0002FD1286801680A063BD414F1010FF8D0C1
:104B0000A4B102F0B3FEA0EB08008442F1D20DE0A4
:104B1000286801684A0636D414F1010FF8D02CB188
:104B200002F0A4FEA0EB08008442F1D22868C1681C
:104B300021F4D071C1602868416949084900416188
:104B400020207070B0700020307022E00220BDE89C
:104B5000F283286801680A06BFD414F1010FF8D067
:104B6000002CE3D002F082FEA0EB08008442F0D2D9
:104B7000DCE73988C1F3080141602869002814BFC7
:104B80007F1CBF1CACE72021717000203070BDE895
:104B9000F2830320BDE8F28338B5044604F13805FA
:104BA0001346A87820283ED109B1180001D1012070
:104BB00032BD2878012836D001222A70A162A3854F
:104BC000002068602220A870626B0FF2B91090621A
:104BD000626B0FF2E910D062626B0FF2E9101063A2
:104BE0000020626B50630A462068011D606B02F072
:104BF0003AFC002000902068016800914268009211
:104C0000002200992A70C26842F48072C260206853
:104C1000416941F0010141612068416941F0400171
:104C20004161002032BD022032BD38B504462568FE
:104C30002968EA686B6911F00F0007D1880660D512
:104C400090065ED52046BDE83240FDE0D80702D48C
:104C500012F4907F55D0C80705D5D00503D5E06B79
:104C600040F00100E063480705D5D80703D5E06BA5
:104C700040F00200E063880705D5D80703D5E06B54
:104C800040F00400E063080705D5D80703D5E06BC2
:104C900040F00800E063E06B002871D0890604D57D
:104CA000900644BF204600F0CFF820684069E16BD1
:104CB0000A0701D440061ED5204600F0B1F820684E
:104CC00041694A0612D5416921F040014161606B9A
:104CD00060B10FF269114163606B02F00EFC0028B5
:104CE0004ED0606B416BBDE8344008472046BDE8BC
:104CF000324002F0C1BD204602F0BEFD0020E0635C
:104D000031BD08062CD510062AD594F83900212883
:104D100036D1A168206AB1F5805F0DD10188C1F359
:104D200008016960206918B9216A881C206207E0BF
:104D3000206A411C216203E0411C21620078686006
:104D4000E08C401EE08480B2D0B92068C16821F0B8
:104D50008001C1602068C16841F04001C16031BD7F
:104D600048060DD550060BD5E86820F04000E860F5
:104D7000202184F839102046BDE8324002F07DBD84
:104D800031BD0000416A00680268930613D4002018
:104D9000C8850868C26822F48072C26008684269E7
:104DA0005208520042610868426922F040024261A2
:104DB000202081F83A000846FEF746B8406A02F023
:104DC0005DBD000018B4406A0268536900F1390102
:104DD0000C78212C09D11B0607D50023C384D36886
:104DE00023F0C003D36020220A70026853694C7814
:104DF000222C0ED15B060CD50023C385D36823F487
:104E00009073D360026853695B085B005361202292
:104E10004A70C16B41F01001C16312BC02F02CBD9D
:104E20000168CA6822F49072CA6001684A6952082F
:104E300052004A61202180F83A107047406A0021F0
:104E4000C185C18402F018BD80B590F83A102229BE
:104E500043D18268B2F5805F14D1826A016941B999
:104E600003685968C1F308011180826A911C81624C
:104E700018E001684B6803F0FF031380816A4A1C45
:104E800082620FE001690029816A04D14A1C8262B2
:104E90000268536805E04A1C82620268536803F0A6
:104EA0007F030B70C18D491EC18589B299B9016814
:104EB000CA6822F02002CA600168CA6822F48072BF
:104EC000CA6001684A69520852004A61202180F88C
:104ED0003A10FDF7B9FF002002BD022002BD2DE906
:104EE000F0470446642521680A69E06822F44052CC
:104EF00002430A611926CA6831480240A068024389
:104F00002069024360690243CA604A69A06922F4C9
:104F1000407202432B484A6181420ED101F006FBE8
:104F2000074601F003FB804601F000FB814601F0DB
:104F3000FDFA824601F0FAFA0DE001F0EFFA0746B9
:104F400001F0ECFA804601F0E9FA814601F0E6FA58
:104F5000824601F0E3FA06FB09F9616889007743AC
:104F6000B7FBF1F206FB08F7B7FBF1F3B9FBF1F77A
:104F7000B7FBF5F705FB17331B013233B3FBF5F332
:104F8000B2FBF5F203F0F00303EB021306FB0AF7A2
:104F90004643B7FBF1F2B6FBF1F06421B0FBF1F050
:104FA00005FB10252D0132356420B5FBF0F021689A
:104FB00000F00F00C3188B60BDE8F0870000000010
:104FC000F3E9FFFF0038014038B5040001D10120AA
:104FD00032BD04F13C05687820B9002129702046D3
:104FE000FFF789FA0AE00068C16841F00101C16079
:104FF000026842F0010202600020704702206870DF
:10500000211D206800F041F901206870002032BDA8
:1050100010B50446206801698A0716D5C1688A0759
:1050200013D56FF00202026101212177806910F02F
:10503000030F204602D002F022FC04E002F020FC24
:10504000204602F01EFC00202077206801694A07F4
:1050500016D5C1684A0713D56FF004020261022118
:105060002177806910F4407F204602D002F007FCCF
:1050700004E002F005FC204602F003FC002020774B
:10508000206801690A0716D5C1680A0713D56FF0B1
:105090000802026104212177C06910F0030F204645
:1050A00002D002F0ECFB04E002F0EAFB204602F042
:1050B000E8FB0020207720680169CA0616D5C16880
:1050C000CA0613D56FF01002026108212177C0696A
:1050D00010F4407F204602D002F0D1FB04E002F041
:1050E000CFFB204602F0CDFB00202077206801692D
:1050F000CA0708D5C168CA0705D56FF00102026169
:105100002046FEF76FF8206801690A0608D5C168D5
:105110000A0605D56FF080020261204602F0B2FB5C
:10512000206801694A0608D5C1684A0605D56FF0AE
:1051300040020261204602F0A6FB206801698A064F
:105140000AD5C1688A0607D56FF0200202612046A1
:10515000BDE8104002F098BB10BD70B5054605F1E2
:105160003C042078012801D1022070BD0122227068
:10517000022060702A68DFF894019368034093600E
:10518000086800285FD0102864D0202869D0302813
:105190006ED040284BD0502831D060283BD07028AA
:1051A0000BD0B0F5805F03D0B0F5005F16D066E09D
:1051B00028688168C908C90060E0C8684A682B6827
:1051C00089689E6826F47F4631430A4342EA0022FA
:1051D0009A602868816841F077014FE0C8684A68A2
:1051E0002B6889689E6826F47F4631430A4342EA69
:1051F00000229A602868816841F480413EE0CA68D4
:105200004968286800F08EF82868816821F07001EC
:1052100041F0570132E0CA684968286800F094F804
:105220002868816821F0700141F0670126E0CA68B2
:105230004968286800F076F82868816821F07001D4
:1052400041F047011AE02868816821F0700141F0BF
:10525000070113E02868816821F0700141F017010F
:105260000CE02868816821F0700141F0270105E019
:105270002868816821F0700141F0370181600120C8
:1052800060700020207070BD000018B4204B0468CE
:1052900098421CBF1F4A90420BD0B0F1804F1CBFF8
:1052A0001D4A904205D01D4A90421CBF1C4A9042A4
:1052B00010D14A6824F07004144398421CBF154A68
:1052C00090420AD0B0F1804F1FBF134A9042134A58
:1052D000904202D0124A904203D1CA6824F440742A
:1052E00014434A6924F080041443046098428A6895
:1052F000C2620A68826219BF064A90420969016364
:105300000121416111BC7047000000008800FFFFCF
:10531000002C01400034014000040040000800401F
:10532000000C004010B4036A046A6408640004625C
:1053300023F00A03846924F0F00444EA021484612F
:105340001943016210BC7047036A23F01003036223
:105350008369D0F820C023F4704343EA02332CF071
:10536000A00C83614CEA011CC0F820C07047B1F565
:10537000807F02D34FF0FF307047017001207047EB
:105380000078401E8041C043C00F70470CB430B558
:1053900083B0044606A802900A46002501940095B1
:1053A00002AB01A9084878441E3002F06FFA019957
:1053B0000D7000284EBF04460198041B204603B020
:1053C00030BC5DF80CFB00BFAF0C000038B40346E6
:1053D0000A004FF6FF7010D04AF201041A785040CC
:1053E00008224510C00746BF84EA050080B2A8B273
:1053F000521EF6D15B1C491EF0D132BC7047CC4B1B
:1054000060B5198900260A46012A99B007D1AA2158
:10541000BB258DF800108DF80150022604E019B963
:10542000AB218DF80010012601250DF80650761CE1
:10543000F5B213210DF80510761C5988F5B2761CCB
:105440000DF80510F5B2090A0DF80510761CD9887B
:10545000F5B2761C0DF80510751C99880529F6B271
:1054600008BF032102D0062908BF02210DF806104B
:10547000EBB241790DF803106D1CC188EBB26D1CC5
:105480000DF80310EBB2C188090A0DF803106D1C6A
:10549000E9B200230DF801306D1CEBB200210DF8CC
:1054A00003106D1C817AEBB26D1C0DF80310EBB28A
:1054B000B0F80B100DF803106D1CB0F80B10EBB228
:1054C000090A0DF803106D1CB0F80D10EBB26D1C3D
:1054D0000DF80310EBB2B0F80D10090A0DF8031027
:1054E0006D1CB0F80F10EBB26D1C0DF80310E9B293
:1054F000B0F80F00000A0DF8010010210DEB0200BA
:10550000C01CFFF763FF6D1CE9B26D1C0DF80100B4
:10551000E9B2000A0DF801006D1CE9B20D200DF88A
:1055200001006D1C42F21073EAB269468148FFF730
:10553000B2FA19B060BD0000F8B57D4A0D46118978
:105540000026012918BF002940F0DE807A4C21781E
:10555000092900F2D780DFE801F005101A2F395B26
:105560006E7A848D132840F0CD80012020701020A9
:10557000A071132071494870C6E07049A4F8010079
:105580000A78A318521CD8710A70022012E0B4F8ED
:10559000011041EA0021A4F8011068490B78E518D0
:1055A000E871B4F801005288904240F0AB805B1C77
:1055B0000B7003202070A7E0D288904240F0A280B8
:1055C00004212170E0705D490A7839E003280CD18C
:1055D000918805290ED105232370207157490B7836
:1055E000E6185B1CF0710B7004E0022804BF918880
:1055F000062905D09288904218BF642840F0828026
:10560000052121702071E31D4C490A78985419E056
:10561000212818BF012808D0022818BF132804D059
:1056200003281CBF042805286CD106212170607155
:1056300042490A7804E04149A3790A789A4204D29F
:10564000A318D871521C0A705EE00721217008214E
:10565000217004F58371487038480278521C02703A
:1056600052E084F806010921217034480178491C70
:10567000017049E00D2845D104F583700178477821
:1056800047EA0127A179E01DFFF7A0FE2B490A7820
:10569000521C87420A7035D1D2B2132A2ED16079BA
:1056A000012808BF012625D0022806D11022E11DBD
:1056B000284600F08DFC02261CE0032806D11022AB
:1056C000E11D284600F084FC032613E0042806D1DF
:1056D0001022E11D284600F07BFC04260AE0132876
:1056E00008BF132606D0212808BF212602D005288E
:1056F00008BF052600F00AF83046F2BD00F006F8B3
:105700000020F2BD00F002F80020F2BD10B50A4CF6
:105710000A490020207008706421094802F05AF8F4
:105720002046BDE810404FF48471FDF741BF0000F2
:1057300020070020E0080020280100207509002033
:105740009C04002038B5044602F090F814F1010FD3
:10575000054602D004490878041902F087F8401B76
:10576000A042FAD331BD00BF900000201CB5DFF885
:10577000DC048088012804D1DFF8D4440FF24C51B6
:1057800021E0022804D1DFF8C8440FF254511AE096
:10579000032804D1DFF8B8440FF2585113E004286D
:1057A00004D1DFF8AC440FF260510CE0052804D1BD
:1057B000DFF89C440FF2645105E006280ED1DFF8B3
:1057C00090440FF26C512046FFF7E0FD224602B0F4
:1057D000BDE8104000210020FFF794B813BD38B594
:1057E000DFF870544FF480612846FCF791FDDFF834
:1057F0006844B8B9207990B9207B411C6428217392
:105800000DDB002020722073012020712074DFF84E
:105810004C14DFF84C2408700221117014E00120B0
:10582000207211E0207A01280CD10021217201217F
:105830002078DFF82824401C207011700220DFF847
:1058400020241070002121734FF400612846FCF7DA
:105850005FFDB0B9607988B9607B411C64286173D1
:105860000CDB0020607260730120DFF8F013DFF8BA
:10587000F023607108700221117014E00120607241
:1058800011E0607A01280CD1002161720121607859
:10589000DFF8CC23401C6070DFF8C00301700220E9
:1058A0001070002161734FF480512846FCF730FDE1
:1058B000B0B9A07988B9A07B411C6428A1730CDB26
:1058C0000020A072A0730120DFF89013DFF890236E
:1058D000A07108700221117031BD0120A07231BD8C
:1058E000A07A01280CD10021A1720121A078DFF853
:1058F0007023401CA070DFF8640301700220107058
:105900000021A17331BD0000F8B5DFF84C43A08A37
:1059100010B1A18A481E3CE0227C012A74D14FF4C8
:105920008061DFF83003FCF7F3FC012804BF607CE2
:10593000002815D14FF49670FFF704FF0120607422
:105940000020207120706178002904BF6079002850
:1059500021D0A17C491CA17400206070607126E0F8
:10596000207948B1617C012906D100202071207482
:105970006074A07414200CE020780028E3D0617CCF
:105980000129E0D1002020700220207400206074E2
:105990000520A082F1BDA178002904BFA0790028CC
:1059A00005D0A17C481EA0740020A070A071A07C2E
:1059B00002281EDA0121A1740020AA49A44D087012
:1059C0002846A27C0FF29031FFF7E0FC00F0F8F8D7
:1059D0002A4600210020FEF745FF9C48A17C30F8B4
:1059E0001120A14D0FF278312846FFF7CFFC2A464F
:1059F000E1E0A07C1828DFDB002121740020A074E6
:105A000060742071207035E0217C022940F0D7803D
:105A1000904E4FF480613046FCF77AFC012804BFB9
:105A2000607C002807D10221A1820120607400203F
:105A300020712070F1BD207848B3617C012926D106
:105A4000002020702071607401202074FEF78EFA0F
:105A50000220A082002060706071A070A071A07C04
:105A6000401CA074A07C1828C0F2A98000212174D9
:105A70000020A0747B490870FFF778FE0FF2C42164
:105A80007948FFF783FC794901200870F1BD4FF494
:105A900000613046FCF73CFC01286C4D03D100202E
:105AA000607160732DE0A17C6079491EC9B2D0B1EC
:105AB00000226270E08A421C0228E28221DD00207E
:105AC000E08205EB410004EB410142880F8B0A376D
:105AD000BA42BCBF0A32428042880B8B9A4210D332
