:020000040800F2
:10000000B00D002011800008797E00087B7E00087A
:100010007D7E00087F7E0008817E000800000000D1
:10002000000000000000000000000000837E0008C7
:10003000857E000800000000877E0008897E000899
:100040003B8000083F80000843800008478000088C
:100050004B8000084F80000853800008578000083C
:100060005B8000085F8000086380000867800008EC
:100070006B800008977E00086F8000089D7E000856
:1000800073800008778000087B8000087F8000086C
:1000900083800008878000088B8000088F8000081C
:1000A00093800008A37E0008978000089B800008CA
:1000B000A97E0008AF7E00089F800008A38000088A
:1000C000A7800008AB800008AF800008B38000085C
:1000D000B7800008B57E0008BB800008BB7E000822
:1000E000BF800008C3800008C7800008CB800008DC
:1000F000CF800008D3800008D7800008DB8000088C
:10010000DF800008E3800008C17E0008E780000867
:10011000EB800008EF800008F3800008F7800008FB
:10012000FB800008FF8000080381000807810008A9
:1001300038B5DFF8004CDFF8005C00206084E8820E
:1001400028764C2105206876002068832075A882D7
:10015000DFF8E80B01F0D2F88821DFF8E40B01F0BA
:10016000CDF800206075A0756421DFF8D80B01F090
:10017000C5F86421DFF8D00B01F0C0F86421DFF886
:10018000CC0B01F0BBF80020E0752083E076112154
:10019000284601F0B3F81121204601F0AFF8002005
:1001A00068774421DFF8A85B284601F0A7F8012012
:1001B00068736877012105F12C0041700170297383
:1001C00029770020E061112104F1580001F096F830
:1001D000112104F16C0001F091F8002084F8200056
:1001E000A08431BD7CB5DFF86C4BDFF8545BA08890
:1001F000DFF8406B03281DD1317E042910D1142172
:100200007171307100220C21284601F0B2FA0022EF
:10021000DFF8281B284601F09BFD608D08BB2CE011
:10022000052940F09E80152130717171608D002884
:100230005ED169E0052840F09480307E042844D1E6
:10024000142070710022032030710C21284601F027
:1002500090FA0022DFF8E41A284601F079FD608D5B
:1002600058B14FF6FF720021284601F082FA0022B1
:10027000DFF8C81A284601F06BFD608D02280BDB01
:100280004FF6FF720421284601F073FA0022DFF8CE
:10029000AC1A284601F05CFD608D02280BDD4FF69C
:1002A000FF720821284601F064FA0022DFF88C1A58
:1002B000284601F04DFD284601F0F5F90120707542
:1002C00030750220B076042046E0052849D115207B
:1002D00070710022032030710C21284601F049FA88
:1002E0000022DFF8581A284601F032FD608D58B11F
:1002F0004FF6FF720121284601F03BFA0022DFF899
:100300003C1A284601F024FD608D02280BDB4FF6D5
:10031000FF720521284601F02CFA0022DFF81C1A92
:10032000284601F015FD608D02280BDD4FF6FF72A7
:100330000921284601F01DFA0022DFF8001A28469C
:1003400001F006FD284601F0AEF909207075012084
:1003500030750220B076052070760120B07702203B
:10036000F07773BD2DE9F843DFF8E849208E0028C7
:1003700057D0002121860027DFF8C059DFF8C08957
:100380004FF6FF790126608E06FA07F1084209D080
:100390004A46F9B2404601F0ECF9002229464046AF
:1003A00001F0D6FC7F1CF8B21028ECDBA0880328F3
:1003B00018BF05282DD1E18EDFF894393225084683
:1003C00068431861228FDFF86C79104668439861A2
:1003D000608F45431D62A58E7D7531B1597841F01E
:1003E0000201002559705D731E7332B100225978E5
:1003F0005A7741F0080159701E7740B100215878B2
:1004000040F02000587003F125000170C6710020F3
:1004100018700020E08620876087BDE8F14302F075
:1004200063BBBDE8F1832DE9FE4F02F079FBFFF7D6
:100430007FFE00F0A7FB01F0C3FB02F083FB02F09C
:10044000A1FB02F0B7FB02F0AFFD02F093FE02F059
:1004500077FD02F0DBFDDFF8F40A01688A0003D5BE
:10046000DFF8EC1A0120086002F0FAFA02F01CFB37
:1004700002F032FDDFF8DC88DFF8BC58B8F8040081
:10048000287704280BD1DFF8CC6A012202213046FC
:1004900002F0E1FF01220421304602F0DCFF03F00C
:1004A00010F80122DFF89C18DFF8AC0ADFF8846846
:1004B00003F08EFA0122DFF8A41ADFF8A40A03F091
:1004C00087FADFF8A00A03F0AAFCDFF89C0A03F021
:1004D000A6FCDFF8980A03F0A2FCB8F806000FF2B9
:1004E0008C6100900F23012206F1580003F06AFE90
:1004F0000020707706F15802002103F01FF9FFF782
:1005000031FFB8F80400012818BF02280DD10122DC
:100510004FF40041DFF83C0A02F09DFF00224FF447
:100520000071DFF84C0A02F096FFDFF8481ADFF896
:10053000487ADFF8484ADFF80898DFF810A8012069
:1005400030754CF6CC400A68106007F1D400019079
:1005500007F1D0000090EEE2132840F0A7820020BF
:10056000B076A2E207F108001FFA8BF25146805CD8
:1005700003F0FAFE30760BF1010BB9781FFA8BF01D
:100580008842EFD30020B870B084642107F10800DE
:1005900000F0B4FE0020F07628E0F07E042825DD8F
:1005A00003F0B9FFB08CDFF8B0B9401C0021B08473
:1005B000F176F175DBF83C0001070AD5584602F0E8
:1005C000A6FB02F0F7FADFF87C170122584603F089
:1005D000FFF9B8F82E0020B1B18C40F259208142C9
:1005E0000ADADFF86407642100F088FEA87F00289B
:1005F00050D04FF0000B3EE0484601F054F8A8F808
:1006000032003222707DA8F834000120A8F83000B2
:10061000DFF83C070169B1FBF2F2A8F8362032227C
:100620008169B1FBF2F2A8F838203221006AB0FBF0
:10063000F1F1A8F83A1002F057FA0A2003F086FF09
:10064000BFF34F8FDFF83819DFF8240C0A6802F483
:10065000E06202430A60BFF34F8F00BFFDE7DFF89F
:10066000140C1FFA8BF207F16C01805C02F0A4FB02
:10067000F8700BF1010BA97F1FFA8BF08842EED3C3
:100680000020A8776421DFF8EC0B00F037FE002093
:10069000E8770BE0E87F042808DD02F0DAFB0021B0
:1006A000E9836421DFF8CC0B00F028FE307F18B11D
:1006B00004F026F800213177317E002900F0FA811C
:1006C000B8F80800012818BF002840F0F18101297E
:1006D0001CD196F82000012808D17079152818BF80
:1006E000142803D1002086F8200001E01120707149
:1006F000B8F80400052808BF03203071484600F010
:10070000D2FFF0800220B07601207076307E212862
:100710001DD196F82000012808D17079152818BF3E
:10072000142803D1002086F8200001E021207071F8
:10073000B8F80400052808BF03203071484600F0CF
:10074000B2FFF0800220B0762120707680E102288E
:1007500040F099809AF80400687112239AF8050015
:10076000411EE9809AF807209AF8080042EA002220
:100770002A817371C9B2B8F80400052808BF0320A4
:100780003071484600F0F5FFDFF8B015002248460A
:1007900001F0DEFA484600F086FFF080B8F8040069
:1007A00004286AD1E888022802D0032865D131E004
:1007B0002889A8B1217801290BD0012020700020C0
:1007C000A0704FF4C8703063002030643220B064F1
:1007D00001E00020A070642301220121012014E027
:1007E000A07801280BD00121A170002020704FF4C7
:1007F000C870B063002030653220B06401E0002092
:100800002070642301220021012002F0ABFAE98864
:10081000032916D12889A0B1617801290BD00120C4
:1008200060700020E0704FF4C87070630020706446
:100830003220B06401E00020E07064230122012135
:1008400018E0E988032904BF2889002815D1E17838
:1008500001290BD00120E070002060704FF4C870B7
:10086000F063002030653220B06400E060706423E3
:1008700001220021022002F075FA012030750220C9
:10088000B0767076E4E0032840F0E7809AF8040040
:1008900068719AF80500411EE9809AF807209AF8D5
:1008A000080042EA00222A819AF80A009AF80B30DE
:1008B00040EA0320A5F80B009AF80C309AF80DC016
:1008C00043EA0C23652BA8BF642301DA03B9012393
:1008D000A5F80D308BB2022B07D1009B1880B5F81C
:1008E0000D0038704008B06408E0032B06D1009B6F
:1008F0005880B5F80D0078704008F06413207071CE
:10090000C9B2B8F804003071484600F032FFDFF891
:100910002C140022484601F01BFA484600F0C3FEA2
:10092000F080012030750220B07603207076E988CF
:10093000022946D1288920B3217801290CD0012031
:1009400020700020A0704FF4C870B5F80B10484319
:1009500030630020306401E00020A07006F15800F0
:100960003A780FF6501103F02DFC06F16C020121CC
:10097000002002F0E3FE009802883B78012101206C
:100980001DE0A07801280CD00121A170002020706A
:100990004FF4C870B5F80B104843B06300203065C1
:1009A00001E00020207006F158003A780FF614118B
:1009B00003F008FC009802883B780021012002F037
:1009C000D1F9E98803291FD12889E8B16178012983
:1009D0000CD0012060700020E0704FF4C870B5F8B2
:1009E0000B10484370630020706401E00020E07049
:1009F00006F158007A780FF6E00103F0E3FB009867
:100A00007B784288012120E0032904BF288900283F
:100A10001ED1E17801290CD00120E0700020607027
:100A20004FF4C870B5F80B104843F06300203065F0
:100A300000E060707A780FF6B00106F1580003F01C
:100A4000C1FB00987B7842880021022002F08AF9DD
:100A50000120B0770220F07728E004287FF47CADF5
:100A60009AF80400687114239AF80500411EE98081
:100A70009AF807209AF8080042EA00222A81737146
:100A8000C9B2B8F804003071484600F072FEAB49B4
:100A90000022484601F05CF9484600F004FEF08070
:100AA000012030750220B07604207076FFF79AFBA3
:100AB00000203076F87848B197F86C10012903D1FE
:100AC0000120B0770220F0770020F870387940B329
:100AD000002139710822DFF864B20199584600F00C
:100AE0004DFC9BF80800012817D100218BF8081055
:100AF0005846494600F09BFC9AF8040068710022B1
:100B00009AF80500411E4FF6FF70E980288159468A
:100B1000484601F01DF9012030750120B077022010
:100B2000F077B8F80410042905D1787918B10021BC
:100B3000797100F07BF8DFF83C1409684AF6AA20C6
:100B40000860F27D002A3FF428ADBA7007F1080072
:100B5000DFF8F4B1594604F0A5F80020F0756421DF
:100B6000584600F0CBFB4FF0000B06E556657220AF
:100B7000253031642E25303264204944202530321E
:100B80006400000000B58FB009200590002101220B
:100B9000079109920B924FF48030069002220D903B
:100BA0004FF4E0110C920E9105A804F0C3F80F2148
:100BB00002200091019000214FF4C0600291039047
:100BC00004900221684604F04AFA04F0FEFA4FF459
:100BD0007A71B0FBF1F004F071FB042004F07FFBAC
:100BE000002200214FF0FF3004F031FB0FB000BDB8
:100BF00030B40168DFF88026914207D14D49514B4E
:100C0000CA7D1C78504DAC54521CCA750068DFF880
:100C10006C16884208D14848D04A817F1378DFF8A3
:100C200054466354491C817730BC70472DE9F84F16
:100C3000404884B000F1280A00F12C0400F130098A
:100C400000F1400800F1480500F1380600F15007B6
:100C5000CA490391022001F1020B02900398017826
:100C6000012926D1D8F80000D9F80020824208BF17
:100C700028681BD0401CC8F8000004F053FBCDE9E5
:100C80000001D9F8000004F04DFB02460B46DDE9F7
:100C9000000104F055FBCDE90001286804F042FB97
:100CA000DDE9002304F070FC04F040FDAAF8000028
:100CB0002AE09BF80000012826D13868316881427B
:100CC00002D1322020801FE0401C386004F02AFB53
:100CD000CDE90001306804F025FB02460B46DDE952
:100CE000000104F02DFB0022DFF8943504F04CFCE9
:100CF00004F01CFD208080B22968C1F132028242DA
:100D000024BFC1F1320121800398411C03913F1D92
:100D10000299361D2D1DA41C491E08F1040809F175
:100D200004090AF1020A0BF1010B029196D105B0F8
:100D3000BDE8F08F180400201C0900208C0600205C
:100D40000803002098040020FC0400206005002017
:100D5000D80600201C070020401E042800D9704738
:100D600038B5DFE800F0032849BCC400DFF81405FB
:100D7000408D012807D1DFF81005817A8A0740F1FC
:100D8000E480022236E0022809D1DFF8FC04817AEF
:100D900001F00A010A2940F0D88002222AE0032843
:100DA00001BFDFF8E404817A01F02A012A2940F02A
:100DB000CC8002221EE0DFF8CC04408D012806D151
:100DC000DFF8C404817A8A0700F1BF8011E00228AD
:100DD00005D1DFF8B404817A11F00A0F07E0032887
:100DE00040F0B380DFF8A004817A11F02A0F40F0C0
:100DF000AC800322427531BDDFF88854DFF88C44A3
:100E0000688DE8B1AB88032B0BD14FF6FF7201213F
:100E1000204600F0AEFC0022DFF87414204600F0FB
:100E200097FFA88805280BD14FF6FF7201212046B5
:100E300000F09FFC0022DFF85814204600F088FFE5
:100E4000688D02281DDBA98803290BD14FF6FF729C
:100E50000521204600F08DFC0022DFF834142046E6
:100E600000F076FFA88805280BD14FF6FF72052108
:100E7000204600F07EFC0022DFF81414204600F02B
:100E800067FF688D03281DDBA98803290BD14FF666
:100E9000FF720921204600F06CFC0022DFF8F013FD
:100EA000204600F055FFA88805280BD14FF6FF72A9
:100EB0000921204600F05DFC0022DFF8D413204613
:100EC00000F046FF2046DFF8C05300F0ECFBE8805E
:100ED0000520A875042068750120287531BDDFF84C
:100EE000A813887D002830D105224A7531BDDFF86E
:100EF0009C53DFF89443284600F0D5FBE080DFF8F0
:100F000084038088032818BF05281ED1012084F897
:100F100020004FF6FF72152060710C210320207114
:100F2000284600F026FC0022DFF86413284600F073
:100F30000FFF284600F0B7FBE0800020607501201D
:100F400020750220A0760520607631BD2410024075
:100F5000E004424200080140DC080020C4050020F3
:100F60009C080020DC0700201C0800209C070020B3
:100F7000000C01403C09002030020020A80900209C
:100F80000CED00E0F0B5054685B02868BE4CC14EBA
:100F9000B0F1804F48D1307D18B9608C401C60841E
:100FA0003AE00A2838D0142821D1707EB17E01435E
:100FB00006D10120B0760020607703F0DBFA02E072
:100FC00008B1401E7076607F401C6077C0B20A286E
:100FD00022DD0020607704F15802002102F0AEFB10
:100FE00004F16C020121002002F0A8FB14E01E288D
:100FF00012D1A448808803281CBF0428052807D1E3
:101000000122A349A14800F0A3FE08B101202075E8
:10101000A07D08B1401EA075307D401C3075C0B267
:101020006428A4BF0020307528689B49884240F09E
:101030000081717D0E2900F2F480DFE801F0080BD9
:10104000F2F2F2F24C5823F2F2089A9ED90003F021
:10105000C3FAE6E08B49307F8A88904200F0E18055
:101060008E4A1078002840F0DC80BFF34F8F8C4907
:101070007F480A6802F4E06202430A60BFF34F8FC0
:1010800000BFFDE77F488088032818BF052840F08F
:10109000C880844F384601F061FC387828B17B481D
:1010A00000F001FBE0807878A07232213869B0FB53
:1010B000F1F1A4F80B103221386AB0FBF1F1A4F879
:1010C0000D103221386BB0FBF1F1A4F80F10607DE8
:1010D000FFF742FEA5E0F07E192803DC217D0129FF
:1010E00040F09F800020F0760220207599E0207D5E
:1010F000022840F096801121684600F0FFF8002099
:101100002075607765490878002840F08A800023C0
:101110005E4AD05C00280CBF302731270DF80370E1
:101120005B1CD05C00280CBF302731270DF8037002
:101130005B1CD05C00280CBF302731270DF80370F2
:101140005B1CD05C00280CBF302731270DF80370E2
:101150005B1C102BDDDB684690E88C1004F16C0101
:10116000002081E88C1004F16C02012102F0E6FA03
:1011700057E0207F401C207753E0607E88B3A17E3B
:101180004A1EA27669BB01281DD1204603F053F800
:10119000002060763B488088032818BF052820D1AE
:1011A00040490878E8B1800744BF0020086108780A
:1011B000020744BF00220A62820644BF00220A637B
:1011C000002008700DE0212818BF022804D0032851
:1011D0001CBF0428052804D1204603F02CF8002069
:1011E0006076E07E401CE076F07F401CF07718E0EF
:1011F000A07F012808D101224FF400612A4802F0A3
:101200002AF90020A0770CE058B9E07F48B1401ED1
:10121000E077C0B228B900224FF40061224802F002
:101220001AF9707D401C7075C0B21428A4BF00204C
:10123000707528681D49884218D1124DA888012868
:1012400018BF022812D104F08FFAE08C04F034FBAE
:10125000C0B258B10D4800F026FAA988012902D180
:1012600000F0DEF901E000F04FF9E08405B0F0BDD8
:101270000400FA052806002000480040003801401C
:10128000000049401C07002018040020080300202B
:101290008C0600201C090020000400404C000020A7
:1012A0000CED00E0D806002000080140002C0140B1
:1012B000704700004C494748543A31204F4E202592
:1012C000303364004C494748543A31204F46462059
:1012D00025303364000000004C494748543A32201E
:1012E0004F4E2025303364004C494748543A322051
:1012F0004F4646202530336400000000002204F0F1
:1013000051BBF0B40246106895681318506803EB9F
:101310005004C00721D54D441FE0F0BC02F10C0081
:10132000704713F8017B05F8017B491EF9D1A0B184
:10133000B60813F8011B06F00306032E08BF13F8C6
:10134000016B01EB06214942801C294405D011F8AC
:10135000016B05F8016B401EF9D1A342DDD013F8F3
:10136000016B16F0030104BF13F8011BC91C3009FF
:101370000F28DAD113F8010B0F30D6E770B400252F
:10138000082A034651D18878012400281FBF4A78D3
:10139000002A0978002948D0120242EA00420A4392
:1013A000DFF81418888DD24322F07F4218B3898861
:1013B000022920D10026032096FBF0F101EB410128
:1013C000711A22FA06F0C9B200F0010021B970B119
:1013D000B01C04FA00F009E0022904D138B1B01EB3
:1013E00004FA00F002E010B104FA06F00543761C9E
:1013F000182EE0DB2A465A6003F1090518225868C6
:101400002978204051B160B995F82000401C85F83A
:101410002000002129700120187202E008B101208B
:10142000287064006D1C521EE9D170BC704778B4FE
:101430000A46DFF884178988022937D100F1290587
:1014400002F1200308204FF0FF34297869B100260B
:101450002E705178012916D0012616700121002620
:10146000567011745674197019E0697821B100260C
:101470006E701670567008E0A97881B10026AE70C3
:101480001178012905D156701670167456741E70A5
:1014900005E0167001215170167451741C70ED1C1A
:1014A000921C5B1C401ED0D171BC7047012918BF33
:1014B0000429F9D100F129030820197871B1002419
:1014C0001C7002F128011478012C03D1002515703D
:1014D0000D7013E0012414700C700FE0997869B15D
:1014E00000249C7002F12801147A012C03D10025FC
:1014F00015720D7202E0012414720C72DB1C521C76
:10150000401EDAD171BC7047DFF8AC369A8D0021ED
:10151000002A43D09B88022B40D1C20748BF4FF41A
:101520008041820748BF41F40041420748BF41F46F
:101530008051020748BF41F40051C20648BF41F440
:101540008061820648BF41F40061420648BF41F411
:101550008071020648BF41F40071C20548BF41F0E6
:101560004001820548BF41F08001420548BF41F07B
:101570001001020548BF41F02001C20448BF41F0FC
:101580000401820448BF41F00801420448BF41F011
:101590000101000442D541F002013FE0C20748BF0B
:1015A0004FF40041820748BF41F48041420748BFE1
:1015B00041F40051020748BF41F48051C20648BFC0
:1015C00041F40061820648BF41F48061420648BF91
:1015D00041F40071020648BF41F48071C20548BF62
:1015E00041F08001820548BF41F04001420548BFFB
:1015F00041F02001020548BF41F01001C20448BF7C
:1016000041F00801820448BF41F00401420448BF90
:1016100041F00201000448BF41F001010846704753
:101620000021C20748BF4FF40041820748BF41F480
:101630000051420748BF41F40061020748BF41F42E
:101640000071C20648BF41F08001820648BF41F0E8
:101650002001420648BF41F00801020648BF41F0A0
:101660000201C20548BF41F48041820548BF41F4F0
:101670008051420548BF41F48061020548BF41F4F2
:101680008071C20448BF41F04001820448BF41F06C
:101690001001420448BF41F00401000448BF41F07A
:1016A000010108467047DFF81035B3F804C0014661
:1016B00000220878BCF1050F1BD100B10122487847
:1016C00008B142F00202887808B142F01002C878EE
:1016D00008B142F02002087908B142F480724879DA
:1016E00008B142F40072C879002840D042F4805218
:1016F0003DE000B10122487808B142F0020288784A
:1017000008B142F00402C87808B142F00802087932
:1017100008B142F01002487908B142F020028879FD
:1017200008B142F04002C87908B142F08002087A5C
:1017300008B142F48072487A08B142F40072887AA3
:1017400008B142F48062C87A08B142F40062087BB2
:1017500008B142F48052487B08B142F40052887BC1
:1017600008B142F48042C87B08B142F400421046FE
:1017700070477CB50546DFF84404DFF83C3401705F
:101780000C469888022861D1100046D004EBD4762C
:1017900029197608B4EB460020D011F8010C012875
:1017A0003FD001262E5503EB4400002601F8016CC2
:1017B0004FF6FF764189B24218BF8A4203D105EB4A
:1017C0004400018705E005EB44010A87428101F0EE
:1017D0008BF905EB44010020C88673BD48780128C9
:1017E0002AD001262E5503EB440000264E704FF6FA
:1017F000FF764189B24218BF8A4203D105EB44000B
:10180000018705E005EB44010A87428101F06CF98C
:1018100005EB44010020488773BD4908B4EB410043
:101820000AD000202919285501F8010C002105EBE8
:1018300044000187C18673BD0020291928554870CE
:10184000002105EB44000187418773BD032840F068
:10185000D180100000F09E8089B9012028704FF6D9
:10186000FF740020A870A242588918BF82420FBF9F
:1018700028872A875A8101F037F9002092E0012C4D
:101880000FD10120A8704FF6FF7400202870A242EB
:10189000D88914BF8242A88700F0D780AA87DA814E
:1018A000D1E0042C13D1012028714FF6FF740020E1
:1018B000A871A242588A18BF82420FBFA5F8400003
:1018C000A5F840205A8201F00FF9002075E0052CA0
:1018D0000FD10120A8714FF6FF7400202871A24299
:1018E000D88A18BF824268D005F142004280DA826D
:1018F00058E1082C19D1012028724FF6FF740020FE
:10190000A872A242588B18BF824203D105F142014E
:10191000C88005E005F14200C2805A8301F0E4F876
:1019200005F142010020488173BD092C19D1012025
:10193000A8724FF6FF7400202872A242D88B18BFFD
:10194000824203D105F14201488105E005F14200E0
:101950004281DA8301F0C8F805F142010020C88015
:1019600073BD0C2C40F0278101202873A8734FF61B
:10197000FF74598CA24218BF8A4204D105F142007B
:10198000C181D98C34E005F14200C2815A8442827F
:10199000DA8407E1002918BF012C05D10020287046
:1019A000A8702887A88773BD042C18BF052C08D100
:1019B00000202871A871A5F8400005F14201488077
:1019C00073BD082C18BF092C08D100202872A872FA
:1019D000002105F14200C180418173BD0C2C40F013
:1019E000EA8000202873002105F14200C181A9731B
:1019F000418273BD052840F0C080100000F0928045
:101A000089B9012028704FF6FF7400206870A24247
:101A1000588918BF82420FBF28872A875A8101F050
:101A200063F8002086E0012C12D1012068704FF687
:101A3000FF7400202870A242988914BF82426887F0
:101A400003D06A879A8101F04FF80020288773BD80
:101A5000042C11D10120A8704FF6FF740020E8700B
:101A6000A242D88918BF82420FBFA887AA87DA810D
:101A700001F03AF8002067E0052C0DD10120E87054
:101A80004FF6FF740020A870A242188A18BF824245
:101A90005AD0EA871A8285E0082C13D101202871D8
:101AA0004FF6FF7400206871A242588A18BF824224
:101AB0000FBFA5F84000A5F840205A8201F014F8A5
:101AC00000204CE0092C15D1012068714FF6FF74FD
:101AD00000202871A242988A18BF82420FBFA5F841
:101AE0004200A5F842209A8200F0FEFF0020A5F8EF
:101AF000400073BD0C2C5ED10120A871E8714FF637
:101B0000FF74D98AA24218BF8A4204D105F142006B
:101B10004180198B2FE005F1420042805A84828077
:101B2000DA843FE0002918BF012C05D1002028707D
:101B300068702887688773BD042C18BF052C05D1F1
:101B40000020A870E870A887E88773BD082C18BF2C
:101B5000092C07D1002028716871A5F84000A5F86C
:101B6000420073BD0C2C26D10020A871002105F184
:101B700042004180E971818073BD100016D00120C0
:101B800028554FF6FF7603EB4400B242418918BF57
:101B90008A4203D105EB4400018773BD05EB440184
:101BA0000A874281BDE8734000F09EBF002028559F
:101BB00005EB4401088773BD1C0700207F09002046
:101BC0002DE9F8415D485E4C5E4D5F4EDFF87C814B
:101BD00085B0016841F0100101604EF21F070268F4
:101BE00002F0100204920499016841F020010160A2
:101BF000026802F0200204920499016841F0040195
:101C00000160026802F00402049201220499016852
:101C100041F0080101603946006800F008000490B6
:101C20000498204601F017FC0122FF21284601F00C
:101C300012FC00222021204601F00DFC00224FF46E
:101C4000FD71304601F007FC00224FF4194128468F
:101C500001F001FC00220421404601F0FCFB0122BE
:101C60004FF40071304601F0F6FB0097012001901F
:101C700000210220029103906946204601F0B0FA4B
:101C800049F6FF10012100900191002002210290ED
:101C900003912846694601F0A3FA20200121009013
:101CA000019100200321029003912046694601F032
:101CB00097FA012000210090019102906946304678
:101CC00001F08EFA40F2FA300121009001910020DB
:101CD0000221029003913046694601F081FA4FF2E9
:101CE000040000210090019102913046694601F004
:101CF00077FA4FF4707000210090019102916946CB
:101D0000204601F06DFA4FF4E050009000210120D0
:101D1000019102906946204601F062FA04200121F7
:101D200000900191002002210290039140466946F3
:101D300001F056FA06B0BDE8F0810000181002402C
:101D40000010014000080140000C01400014014057
:101D50002DE9F843054600241000DFF8F48BDFF886
:101D6000F49B40F07382DFF8F06BB1882878032988
:101D700040F09E80002814BF002201224FF4005141
:101D8000484601F068FB6878002814BF0022012251
:101D90004FF48041484601F05EFBA878002814BF4C
:101DA000012200224FF40041484601F054FBE8783C
:101DB000002814BF002201220821484601F04BFBF5
:101DC0002879002819BF002201210122012148465B
:101DD00001F041FB6879002814BF00220122022192
:101DE000484601F038FBA879002814BF01220022E0
:101DF0000421484601F02FFBE879002819BF002292
:101E0000012101220121404601F025FB287A00280A
:101E100014BF002201220221404601F01CFB687A17
:101E2000002814BF002201220421404601F013FBC8
:101E3000A87A002814BF012200220821404601F0A0
:101E40000AFBE87A002814BF002201221021404634
:101E500001F001FB287B002814BF00220122202171
:101E6000404601F0F8FA687B002814BF00220122E6
:101E70004021404601F0EFFAA87B012803D100225F
:101E80008021404605E0E87B012804D10022102192
:101E9000484601F0E0FAA87B20B9012280214046A3
:101EA00001F0D9FAE87B002840F04E8500F047BDEC
:101EB00005294DD1002814BF002201224FF4005102
:101EC000484601F0C8FA6878002814BF00220122B1
:101ED0004FF48041484601F0BEFAA878002814BFAC
:101EE000002201224FF40041484601F0B4FAE8789C
:101EF000002814BF002201220821484601F0ABFA55
:101F00002879002819BF0022012101220121484619
:101F100001F0A1FA6879002814BF002201220221F1
:101F2000484601F098FAA879002814BF002201223F
:101F30000421484601F08FFAE87920B100220121FE
:101F4000404600F0FFBC01220121404600F0FABCEF
:101F5000022940F0E680012803D100224FF400510D
:101F600005E06878012805D100224FF480414846F9
:101F700001F071FA287828B901224FF4005148463F
:101F800001F069FA687828B901224FF48041484687
:101F900001F061FAA878012803D100224FF4004132
:101FA00004E0E878012804D100220821484601F025
:101FB00052FAA87828B901224FF40041484601F0AE
:101FC0004AFAE87820B901220821484601F043FA8C
:101FD0002879012802D10022012104E06879012832
:101FE00004D100220221484601F035FA287920B9AF
:101FF00001220121484601F02EFA687920B9012218
:102000000221484601F027FAA879012803D10022CD
:102010000421484605E0E879012804D10022012185
:10202000404601F018FAA87920B901220421484657
:1020300001F011FAE87920B901220121404601F0AE
:102040000AFA287A012802D10022022104E0687AE3
:10205000012804D100220421404601F0FCF9287A2D
:1020600020B901220221404601F0F5F9687A20B931
:1020700001220421404601F0EEF9A87A012802D19C
:102080000022082104E0E87A012804D1002210216E
:10209000404601F0E0F9A87A20B901220821404623
:1020A00001F0D9F9E87A20B901221021404601F067
:1020B000D2F9287B012802D10022202104E0687B8C
:1020C000012804D100224021404601F0C4F9287BB8
:1020D00020B901222021404601F0BDF9687B20B9DA
:1020E00001224021404601F0B6F9A87B012803D126
:1020F00000228021404605E0E87B012804D100222F
:102100001021484601F0A7F9A87B20B901228021BF
:10211000404601F0A0F9E87B002840F0158400F06B
:102120000EBC002814BF002201224FF40051484683
:1021300001F091F96878002814BF002201224FF4C1
:102140008041484601F087F9A878002814BF002292
:1021500001224FF40041484601F07DF9E87800285B
:1021600014BF002201220821484601F074F92879A1
:10217000002819BF0022012101220121484601F057
:102180006AF96879002814BF00220122022148461A
:1021900001F061F9A879002814BF0022012204216E
:1021A000484601F058F9E879002819BF00220121BA
:1021B00001220121404601F04EF9B188042900F0C6
:1021C000C383287A002814BF00220122022140463E
:1021D00001F041F9687A002814BF0022012204218D
:1021E000404601F038F9A87A002814BF00220122E5
:1021F0000821404601F02FF9E87A002814BF002298
:1022000001221021404601F026F9287B002814BF46
:10221000002201222021404601F01DF9687B0028A0
:1022200014BF002201224021404601F014F9A87B8E
:10223000002814BF002201228021404601F00BF942
:10224000E87B002800F07B83002279E3012A40F03C
:102250007B83DFF80467B188288F032905F14207E3
:1022600040F0568170B1297801290BD1401E288792
:1022700080B260B928704FF40051484601F0EBF885
:10228000012404E04FF40051484601F0E4F8688F5F
:1022900078B1697801290CD1401E688780B270B985
:1022A000687001224FF48041484601F0D4F80124BF
:1022B00005E001224FF48041484601F0CCF8A88F98
:1022C00078B1A97801290CD1401EA88780B270B9D5
:1022D000A87000224FF40041484601F0BCF80124E8
:1022E00005E000224FF40041484601F0B4F8E88FC1
:1022F00070B1E97801290BD1401EE88780B260B93E
:10230000E87001220821484601F0A5F8012404E004
:1023100001220821484601F09EF8B5F8400070B14E
:10232000297901290BD1401EA5F8400080B258B987
:1023300028710122484601F08EF8012404E00122B0
:102340000121484601F087F8388870B16979012980
:102350000BD1401E388080B260B968710122022121
:10236000484601F078F8012404E0012202214846A1
:1023700001F071F8788870B1A97901290BD1401E5C
:10238000788080B260B9A87100220421484601F02B
:1023900062F8012404E000220421484601F05BF8C1
:1023A000B88868B1E97901290AD1401EB88080B2A5
:1023B00058B9E8710122404601F04DF8012404E0CB
:1023C00001220121404601F046F8F88870B1297ACF
:1023D00001290BD1401EF88080B260B92872012219
:1023E0000221404601F037F8012404E001220221D5
:1023F000404601F030F8388970B1697A01290BD173
:10240000401E388180B260B96872012204214046C2
:1024100001F021F8012404E001220421404601F0EA
:102420001AF8788970B1A97A01290BD1401E7881F8
:1024300080B260B9A87200220821404601F00BF872
:10244000012404E000220821404601F004F8B88984
:1024500070B1E97A01290BD1401EB88180B260B910
:10246000E87201221021404600F0F5FF012404E04B
:1024700001221021404600F0EEFFF88970B1297B5F
:1024800001290BD1401EF88180B260B92873012266
:102490002021404600F0DFFF012404E0012220213A
:1024A000404600F0D8FF388A70B1697B01290BD112
:1024B000401E388280B260B96873012240214046D4
:1024C00000F0C9FF012404E001224021404600F051
:1024D000C2FF788A70B1A97B01290BD1401E788296
:1024E00080B260B9A87301228021404600F0B3FF9A
:1024F000012404E001228021404600F0ACFFB88AAC
:10250000002800F01C82E97B012900F00B8216E212
:10251000052940F0B18070B1297801290BD1401E06
:10252000288780B260B928704FF40051484600F007
:1025300092FF012404E04FF40051484600F08BFF65
:10254000688F78B1697801290CD1401E688780B204
:1025500070B9687001224FF48041484600F07BFF5B
:10256000012405E001224FF48041484600F073FF4A
:10257000A88F78B1A97801290CD1401EA88780B214
:1025800070B9A87001224FF40041484600F063FF83
:10259000012405E001224FF40041484600F05BFFB2
:1025A000E88F70B1E97801290BD1401EE88780B22D
:1025B00060B9E87001220821484600F04CFF012470
:1025C00004E001220821484600F045FFB5F840002C
:1025D00070B1297901290BD1401EA5F8400080B2C5
:1025E00058B928710122484600F035FF012404E063
:1025F00001220121484600F02EFF388870B1697928
:1026000001290BD1401E388080B260B96871012267
:102610000221484600F01FFF012404E001220221AC
:10262000484600F018FF788870B1A97901290BD1CC
:10263000401E788080B260B9A8710122042148460A
:1026400000F009FF012404E001220421484600F0C3
:1026500002FFB88860B1E979012909D1401EB8802C
:1026600080B2002840F07081E8710122404662E1AA
:1026700001220121404665E170B1297801290BD181
:10268000401E288780B260B928704FF40051484638
:1026900000F0E1FE012404E04FF40051484600F050
:1026A000DAFE688F78B1697801290CD1401E6887FD
:1026B00080B270B9687001224FF48041484600F042
:1026C000CAFE012405E001224FF48041484600F093
:1026D000C2FEA88F78B1A97801290CD1401EA88725
:1026E00080B270B9A87001224FF40041484600F052
:1026F000B2FE012405E001224FF40041484600F0FB
:10270000AAFEE88F70B1E97801290BD1401EE88755
:1027100080B260B9E87001220821484600F09BFEB3
:10272000012404E001220821484600F094FEB5F897
:10273000400070B1297901290BD1401EA5F8400055
:1027400080B258B928710122484600F084FE012465
:1027500004E001220121484600F07DFE388870B176
:10276000697901290BD1401E388080B260B9687147
:1027700001220221484600F06EFE012404E00122FD
:102780000221484600F067FE788870B1A9790129D6
:102790000BD1401E788080B260B9A871012204215B
:1027A000484600F058FE012404E001220421484676
:1027B00000F051FEB88868B1E97901290AD1401EBC
:1027C000B88080B258B9E8710122404600F043FE5B
:1027D000012404E001220121404600F03CFEB088C3
:1027E000042800F0B180F88870B1297A01290BD152
:1027F000401EF88080B260B9287201220221404652
:1028000000F029FE012404E001220221404600F0EC
:1028100022FE388970B1697A01290BD1401E3881B6
:1028200080B260B9687201220421404600F013FEB4
:10283000012404E001220421404600F00CFE7889C6
:1028400070B1A97A01290BD1401E788180B260B99C
:10285000A87201220821404600F0FDFD012404E099
:1028600001220821404600F0F6FDB88970B1E97AEE
:1028700001290BD1401EB88180B260B9E8720122F3
:102880001021404600F0E7FD012404E00122102160
:10289000404600F0E0FDF88970B1297B01290BD199
:1028A000401EF88180B260B9287301222021404681
:1028B00000F0D1FD012404E001222021404600F077
:1028C000CAFD388A70B1697B01290BD1401E38825C
:1028D00080B260B9687301224021404600F0BBFD20
:1028E000012404E001224021404600F0B4FD788A32
:1028F00070B1A97B01290BD1401E788280B260B9EA
:10290000A87301228021404600F0A5FD012404E0C7
:1029100001228021404600F09EFDB88A78B1E97B13
:1029200001290CD1B88A401EB88280B260B9E87320
:1029300001221021484600F08EFD012404E001220E
:102940001021484600F087FD2046BDE8F2830000D4
:1029500000080140001001401C070020F8B53D4D63
:102960000446688D40B14FF400513B4800F06CFDC7
:10297000401E8041C00F00E001206073688D012877
:1029800008DD4FF40041344800F05EFD401E8041F8
:10299000C00F00E00120607704F12506688D2F4FFD
:1029A000022807DD8021384600F04EFD401E8041A0
:1029B000C00F00E0012030724FF48051264D2846B0
:1029C00000F042FD60714FF48041284600F03CFD6C
:1029D00060754021384600F037FD30704FF480714B
:1029E000384600F031FD30744FF40071384600F085
:1029F0002BFD30760022231D5878002804BF19785B
:102A000000290AD158600120187090406178014374
:102A1000617021780843207016E0002804BF1978FF
:102A2000012903D15868401C58600DE0012804BFFB
:102A30001878012808D1617890408143617021782D
:102A40000843207000201870521C0833082AD3DB7A
:102A5000F1BD00001C070020000C014000100140E7
:102A600080B503F013F8BDE8014003F073B810B56A
:102A7000284C3E212046FEF741FC40F6165060806F
:102A800004F10A010120A0802081E08003220420BB
:102A90000A804A808A80CA800831401EF8D102200C
:102AA00060850020E06210BDF8B51A4E3146002066
:102AB00003F044F931880024002541F21917B94286
:102AC00005D0FFF7D4FF378000F00EF80AE006EBE0
:102AD0004500811C681C80B203F030F96D1C1E2D6E
:102AE000F5DB01242046F2BD70B541F2191100203A
:102AF00003F04AF90024084D084E36F8021B25F869
:102B0000021B601C80B203F03FF9641C1E2CF4DB36
:102B100070BD00001C0700205E0700201E0700207B
:102B200080B50748016841F010010160032002F000
:102B300081FB002003F000FA03F01EFA002002BD22
:102B40000020024080B50E48016841F0010101609B
:102B50000022006800F001000090002100980D2084
:102B600002F075FB0D2002F09BFB002200210F20DC
:102B700002F06DFBBDE802400F2002F091BB00BFE8
:102B80001410024080B5BA48BA4901604FF4E131EF
:102B9000416000218160C16001610C21416100211F
:102BA0008161C16100F064FE18B1BDE804404B21B1
:102BB00018E001BD80B5B048B04901604FF416512E
:102BC000416000218160C16001610C2141610021EF
:102BD0008161C16100F04CFE18B1BDE804405E2186
:102BE00000E001BDADA0FEF763BB000030B50446B8
:102BF00085B020689F49884240D1A148A14D016815
:102C000041F4804101604FF40071006800F480409D
:102C100004900222049800910320039001926946D7
:102C2000284600F0DDFA4FF4806000210090019109
:102C300002912846694600F0D3FA934D934800F17B
:102C400028018020E860296020200021A8616960B7
:102C5000A96029616961E961284603F0DBF920B1C7
:102C60005FF089018DA0FEF723FB65636C62002293
:102C70000421252002F0EBFA252044E07F49884218
:102C800043D17F48824D416841F4802141604FF437
:102C90008061406800F48020049002220498009132
:102CA0000320039001926946284600F099FA4FF4F8
:102CB000006000210090019102912846694600F0D1
:102CC0008FFA714D714868640020A864E864802020
:102CD000286500206865A8652020E8650020286632
:102CE00005F1440003F096F918B1B7216BA0FEF787
:102CF000DFFA05F144006063AC660022032127205F
:102D000002F0A5FA272002F0CBFA05B030BD10B5CD
:102D100004465849206888420ED15948026822F476
:102D2000804202604FF4C061564800F01CFB606BAB
:102D300003F0B6F9252010E05049884211D15048DF
:102D4000416821F4802141604FF44061504800F017
:102D50000AFB606B03F0A4F92720BDE8104002F0E5
:102D6000A4BA10BD30B585B0AB248DF802008DF843
:102D70000310100A8DF8040008258DF805208DF841
:102D800006308DF800408DF8015005210DF102004C
:102D900001F038FA8DF8070042F21073000A8DF83E
:102DA00008000A220D208DF809006946304800F01D
:102DB0008EFD05B030BD000070B5364C0D46217853
:102DC000052942D8DFE801F003070C171B22AB28C6
:102DD0003BD1012002E0C01E20710220207036E0AD
:102DE000217D2279914204D2621D5054491C2175E3
:102DF0002DE00321217004212170207402E00521BF
:102E00002170E073207D401C207520E00D281CD12E
:102E1000E07B267C217946EA0026601D01F0F2F96C
:102E2000217D491C864221750FD12279C9B2D01C5F
:102E3000814207D1611D284601F024FF00F009F806
:102E4000012070BD00F005F801E000F002F800205C
:102E500070BD10B50F4C0020207564210E4803F0A2
:102E600013FB2046BDE810401121FEF747BA0000D1
:102E70009C08002000380140DC0800200048004089
:102E8000181002400008014090030020300002406A
:102E9000000C014068090020C4050020443A5C771A
:102EA0006F726B5C3138313231315C494F545F4D58
:102EB00043555F325F313830303931305C494F54DF
:102EC0005F57495245524553535C5372635C757367
:102ED0006172742E63000000904810B5904C206021
:102EE0004FF4E170606086B00020A0600920E060CF
:102EF000002020616061A061204600F081FF20B1C8
:102F00005FF043018DA0FEF7D3F94FF4805002909B
:102F100002A9204601F03DF818B1492187A0FEF72B
:102F2000C7F90020009001906946204603F0B0FAEE
:102F300018B1502181A0FEF7BBF906B010BD00000A
:102F40004FF0804010B5774C20604FF4E160606036
:102F500086B00020A0606320E06000202061A061B6
:102F6000204600F04DFF20B15FF0620173A0FEF734
:102F70009FF94FF48050029002A9204601F009F811
:102F800018B168216DA0FEF793F900200090019020
:102F90006946204603F07CFA18B16F2167A0FEF75E
:102FA00087F906B010BD00005F4810B55F4C206087
:102FB0004FF4E160606086B00020A0600920E0600E
:102FC00000202061A061204600F01AFF18B1812185
:102FD0005AA0FEF76DF94FF48050029002A92046E6
:102FE00000F0D7FF18B1872154A0FEF761F9002047
:102FF000009001906946204603F04AFA18B18E21EC
:103000004EA0FEF755F906B010BD0000484810B5B7
:10301000484C2060B420606086B00020A060092089
:10302000E06000202061A061204600F0E9FE20B1B0
:103030005FF0A00141A0FEF73BF94FF480500290F1
:1030400002A9204600F0A5FF18B1A6213BA0FEF77B
:103050002FF90020009001906946204603F018FAED
:1030600018B1AD2135A0FEF723F906B010BD80B52B
:1030700000682A49884210D12F48016841F4006154
:1030800001600022006800F40060009000210098B8
:10309000192002F0DCF819203AE0B0F1804F10D18D
:1030A0002548416841F0010141600022406800F07C
:1030B00001000090002100981C2002F0C8F81C209C
:1030C00026E01949884210D11B48416841F00201AD
:1030D00041600022406800F0020000900221009848
:1030E0001D2002F0B4F81D2012E01149884213D1CE
:1030F0001148416841F0080141600022406800F039
:103100000800009005210098322002F0A0F832203B
:10311000BDE8024002F0C4B801BD0000002C01402F
:103120009C070020DC070020000400401C08002051
:10313000000C00405C08002018100240443A5C7704
:103140006F726B5C3138313231315C494F545F4DB5
:1031500043555F325F313830303931305C494F543C
:103160005F57495245524553535C5372635C7469CF
:103170006D2E630080B50948094901600221416054
:1031800040F6C411816003F0A9F930B1BDE80440F4
:103190005FF03A0103A0FEF78BB801BD3C090020A7
:1031A00000300040443A5C776F726B5C31383132EA
:1031B00031315C494F545F4D43555F325F31383098
:1031C000303931305C494F545F574952455245536D
:1031D000535C5372635C697764672E630000000080
:1031E0002DE9F84F8346002086466FF01F089D4A60
:1031F0009D4BDFF878924FF00F0A01240F6804FA14
:103200000EF63740B74240F0A4804C683CB3012C26
:103210001AD0022C1DD0032C2ED0112C16D0122C1B
:103220001AD0934DAC421CBF924DAC4217D0924D78
:10323000AC421CBF914DAC4211D0914DAC421CBF71
:10324000904DAC420BD018E0C86816E0C868001D6D
:1032500013E0C868083010E0C8680C300DE08868DA
:1032600008B9042009E0012819BF0820CBF8146030
:103270000820CBF8106000E00020B7F5807F39BF50
:10328000DC464FEA8E040BF1040C44460AFA04F6BD
:10329000DCF80050B54300FA04F42C43CCF80040AD
:1032A0004C68E40055D5D9F8004044F00104C9F851
:1032B00000404FEA9E0CD9F8005005F0010500953A
:1032C000009C53F82C6008F00C040AFA04F526EA76
:1032D00005056D4EB34508BF002618D06B4EB345AB
:1032E00008BF012613D06A4EB34508BF02260ED090
:1032F000684EB34508BF032609D0674EB34508BFE3
:10330000042604D0654EB3450CBF0526062606FAF2
:1033100004F42C4343F82C404C68E40314684CBF7D
:103320003C43BC4314604C68A40354684CBF3C430A
:10333000BC4354604C68E40294684CBF3C43BC43BB
:1033400094604C68A402D4684CBF274324EA070762
:10335000D7600EF1010EBEF10F0F08F104087FF6E1
:103360004CAFBDE8F18F2DE9F84F00226FF01F033D
:103370003C4CDFF8F4804FF00F094FF0010B824610
:103380001CE0464FBA4514BF0627052707FA0EF77B
:10339000BE4211D158F82C6026EA050548F82C5099
:1033A000256805402560656805406560A56805409D
:1033B000A560E5682840E060521C1B1D31FA02F050
:1033C00040D00BFA02F00840F6D0B0F5807F39BF4C
:1033D000D4464FEA820E0AF1040C9E4609FA0EF614
:1033E000DCF80050284FB543042606FA0EF63543A4
:1033F000CCF80050C043DAF80C500540CAF80C5025
:103400004FEA920C950058F82C6005F00C0E09FA62
:103410000EF52E40BA4508BF0027B7D01B4FBA455E
:1034200008BF0127B2D01A4FBA4508BF0227ADD056
:10343000184FBA4508BF0327A8D0174FBA45A0D1E7
:103440000427A3E7BDE8F18F80680140481E804152
:10345000C043C00F704781B002B90904016101B0D7
:1034600070470000000401400800014018100240AD
:1034700000001110000012100000211000002210A6
:10348000000031100000321000080140000C014023
:10349000001001400014014000180140001C0140D0
:1034A000002804D000BF00BF401E0028FAD170479A
:1034B00010B5040004D00B20FFF7F2FF641EFAD110
:1034C00010BDE0B50FF294310FF2983584B0D1E918
:1034D000002302A8D5E90067C0E90023CDE9006711
:1034E0000221102000F00AF802A9002000F092F951
:1034F0006946012000F08EF904B0E0BD70B50546C4
:103500000E4600F04AF8BE48BE4CFFF7D1FF00203F
:103510006071A071012EC8BF08206070E67025712F
:10352000032000F06EF841F294152846FFF7C0FF23
:10353000032000F066F82846FFF7BAFF032000F0EA
:1035400060F82846FFF7B4FF022000F05AF8642024
:10355000FFF7AEFF607840F0200000F040F86420F4
:10356000FFF7A6FF0420207000F040F96420FFF769
:103570009FFF012000F033F840F6B830FFF798FFC6
:103580006420FFF795FF0220A070062000F027F8C6
:10359000BDE8704042F210708AE710B500220421A5
:1035A00099489A4CFFF757FF002208212046FFF761
:1035B00052FF002210212046FFF74DFF002220215C
:1035C0002046FFF748FF002240212046FFF743FF37
:1035D0002046BDE8104000228021FFF73CBF10B517
:1035E0000446002202E010B5044601220421864868
:1035F000FFF731FF200900F004F804F00F00BDE8E8
:10360000104038B504462007804D4CBF01220022EF
:1036100080212846FFF71FFF60074CBF01220022D0
:1036200040212846FFF717FFA0074CBF01220022C8
:1036300020212846FFF70FFFE0074CBF01220022A0
:1036400010212846FFF707FF012208212846FFF72F
:1036500002FF7820FFF72CFF002208212846FFF701
:10366000FAFE78240B20FFF71BFF641EFAD131BD50
:103670000000000038B5634A7CA3D5781C6800942C
:10368000A94228BF0021917150711DF8011008183E
:1036900040F08000C0B2FFF7A2FF31BDF8B516467A
:1036A000FFF7E8FF71A7574D18E0FFF79CFF687917
:1036B000401C687111E00D28F7D1A8793A68009292
:1036C000EA78904228BF002000216971A8711DF896
:1036D000000040F08000FFF782FF761C307860B376
:1036E00069792879814212D3002068713A68A879F3
:1036F0000092401CEA78C1B2914228BF0020A87114
:10370000C0B21DF8000040F08000FFF768FF30787D
:103710000A28D0D168793B68A9790093491CEB78D5
:10372000CAB29A4228BF0021A971C9B21DF801107E
:10373000081840F08000C0B2CDE7E3BDF8B5344BC7
:10374000304C1D781746227A15434ED1012323723F
:10375000FFF790FF45A618E0FFF745FF6079401C92
:10376000607111E00D28F7D13268A0790092E278FB
:10377000904228BF00200021A07161711DF8000057
:1037800040F08000FFF72BFF7F1C387860B3617931
:103790002079814212D3002060713268A0790092B2
:1037A000401CE278C1B2914228BF0020A071C0B293
:1037B0001DF8000040F08000FFF711FF38780A285C
:1037C000D0D13368A17960790093491CE378CAB2FB
:1037D0009A4228BF0021A171C9B21DF80110081832
:1037E00040F08000C0B2CDE72072F1BD05490878F5
:1037F00040F00400FFE7087040F00800EFE600002A
:10380000A08601009009002000140140000C014036
:103810004C00002010B5C00000F038000C4640F00D
:103820004000FFF7DCFE2078FFF7DDFE6078FFF751
:10383000DAFEA078FFF7D7FEE078FFF7D4FE207914
:10384000FFF7D1FE6079FFF7CEFEA079FFF7CBFE40
:10385000E079FFE7BDE81040C5E600001F11111137
:103860001111111F1F1F1F1F1F1F1F1F0040145466
:1038700038B5040001D1012032BD04F13805687863
:1038800020B9002129702046FFF7B0F92420687084
:103890002068C16821F40051C160204600F03BFA65
:1038A0002068016921F4904101612068416921F09B
:1038B0002A01FFE741612068C16841F40051C160FD
:1038C0000020686020206870A870002032BD2DE9BB
:1038D000F843054605F138060F46707820289146D2
:1038E00050D1002F14BFB9F1000F01204BD0307818
:1038F000012847D0012131702120002171607070B2
:103900001C4602F00DFEA5F824908046A5F82690EE
:1039100002E017F8011B4160E88CA8B1E98C481E51
:10392000E884A868B0F5805F2FD1286801680A068E
:103930003BD414F1010FF8D0A4B102F0F1FDA0EBDB
:1039400008008442F1D20DE0286801684A0636D4A6
:1039500014F1010FF8D02CB102F0E2FDA0EB080049
:103960008442F1D22868C16821F4D071C16028680E
:10397000416949084900416120207070B070002001
:10398000307022E00220BDE8F283286801680A0650
:10399000BFD414F1010FF8D0002CE3D002F0C0FD29
:1039A000A0EB08008442F0D2DCE73988C1F30801BB
:1039B00041602869002814BF7F1CBF1CACE7202190
:1039C000717000203070BDE8F2830320BDE8F283FF
:1039D00038B5044604F138051346A87820283ED1AE
:1039E00009B1180001D1012032BD2878012836D054
:1039F00001222A70A162A385002068602220A8709D
:103A0000626B0FF2B9109062626B0FF2E910D06234
:103A1000626B0FF2E91010630020626B50630A467C
:103A20002068011D606B02F078FB00200090206888
:103A30000168009142680092002200992A70C268D1
:103A400042F48072C2602068416941F00101416125
:103A50002068416941F040014161002032BD0220EF
:103A600032BD38B5044625682968EA686B6911F0EB
:103A70000F0007D1880660D590065ED52046BDE8C8
:103A80003240FDE0D80702D412F4907F55D0C80729
:103A900005D5D00503D5E06B40F00100E063480791
:103AA00005D5D80703D5E06B40F00200E063880736
:103AB00005D5D80703D5E06B40F00400E0630807A4
:103AC00005D5D80703D5E06B40F00800E063E06B54
:103AD000002871D0890604D5900644BF204600F026
:103AE000CFF820684069E16B0A0701D440061ED573
:103AF000204600F0B1F8206841694A0612D54169B4
:103B000021F040014161606B60B10FF269114163C6
:103B1000606B02F04CFB00284ED0606B416BBDE83F
:103B2000344008472046BDE8324002F0FFBC204642
:103B300002F0FCFC0020E06331BD08062CD5100625
:103B40002AD594F83900212836D1A168206AB1F528
:103B5000805F0DD10188C1F308016960206918B93F
:103B6000216A881C206207E0206A411C216203E070
:103B7000411C216200786860E08C401EE08480B2C5
:103B8000D0B92068C16821F08001C1602068C16897
:103B900041F04001C16031BD48060DD550060BD53E
:103BA000E86820F04000E860202184F839102046C1
:103BB000BDE8324002F0BBBC31BD0000416A006884
:103BC0000268930613D40020C8850868C26822F4EE
:103BD0008072C260086842695208520042610868F7
:103BE000426922F040024261202081F83A000846F2
:103BF000FCF7FEBF406A02F09BBC000018B4406AAC
:103C00000268536900F139010C78212C09D11B0697
:103C100007D50023C384D36823F0C003D3602022D8
:103C20000A70026853694C78222C0ED15B060CD5C1
:103C30000023C385D36823F49073D360026853696B
:103C40005B085B00536120224A70C16B41F0100198
:103C5000C16312BC02F06ABC0168CA6822F49072A7
:103C6000CA6001684A69520852004A61202180F8FE
:103C70003A107047406A0021C185C18402F056BCE9
:103C800080B590F83A10222943D18268B2F5805F5E
:103C900014D1826A016941B903685968C1F3080106
:103CA0001180826A911C816218E001684B6803F000
:103CB000FF031380816A4A1C82620FE001690029B8
:103CC000816A04D14A1C82620268536805E04A1C7A
:103CD00082620268536803F07F030B70C18D491E36
:103CE000C18589B299B90168CA6822F02002CA6008
:103CF0000168CA6822F48072CA6001684A69520881
:103D000052004A61202180F83A10FCF771FF002030
:103D100002BD022002BD2DE9F0470446642521685A
:103D20000A69E06822F4405202430A611926CA680F
:103D300031480240A068024320690243606902439F
:103D4000CA604A69A06922F4407202432B484A6162
:103D500081420ED101F044FA074601F041FA804653
:103D600001F03EFA814601F03BFA824601F038FA52
:103D70000DE001F02DFA074601F02AFA804601F025
:103D800027FA814601F024FA824601F021FA06FB67
:103D900009F9616889007743B7FBF1F206FB08F780
:103DA000B7FBF1F3B9FBF1F7B7FBF5F705FB1733F9
:103DB0001B013233B3FBF5F3B2FBF5F203F0F00372
:103DC00003EB021306FB0AF74643B7FBF1F2B6FB1F
:103DD000F1F06421B0FBF1F005FB10252D01323527
:103DE0006420B5FBF0F0216800F00F00C3188B6071
:103DF000BDE8F08700000000F3E9FFFF0038014054
:103E000038B5040001D1012032BD04F13C056878C9
:103E100020B9002129702046FFF729F90AE000683F
:103E2000C16841F00101C160026842F00102026014
:103E30000020704702206870211D206800F041F9C1
:103E400001206870002032BD10B504462068016969
:103E50008A0716D5C1688A0713D56FF0020202617E
:103E600001212177806910F0030F204602D002F073
:103E700060FB04E002F05EFB204602F05CFB0020E9
:103E80002077206801694A0716D5C1684A0713D50B
:103E90006FF00402026102212177806910F4407FF3
:103EA000204602D002F045FB04E002F043FB20462E
:103EB00002F041FB00202077206801690A0716D52F
:103EC000C1680A0713D56FF0080202610421217747
:103ED000C06910F0030F204602D002F02AFB04E074
:103EE00002F028FB204602F026FB00202077206805
:103EF0000169CA0616D5C168CA0613D56FF010024B
:103F0000026108212177C06910F4407F204602D069
:103F100002F00FFB04E002F00DFB204602F00BFB69
:103F20000020207720680169CA0708D5C168CA0740
:103F300005D56FF0010202612046FDF723F82068E5
:103F400001690A0608D5C1680A0605D56FF0800226
:103F50000261204602F0F0FA206801694A0608D59D
:103F6000C1684A0605D56FF040020261204602F0A2
:103F7000E4FA206801698A060AD5C1688A0607D56D
:103F80006FF0200202612046BDE8104002F0D6BA70
:103F900010BD70B5054605F13C042078012801D11B
:103FA000022070BD01222270022060702A68DFF8B2
:103FB0009401936803409360086800285FD010283C
:103FC00064D0202869D030286ED040284BD05028AB
:103FD00031D060283BD070280BD0B0F5805F03D083
:103FE000B0F5005F16D066E028688168C908C9008E
:103FF00060E0C8684A682B6889689E6826F47F4636
:1040000031430A4342EA00229A602868816841F0FD
:1040100077014FE0C8684A682B6889689E6826F473
:104020007F4631430A4342EA00229A602868816849
:1040300041F480413EE0CA684968286800F08EF883
:104040002868816821F0700141F0570132E0CA68A8
:104050004968286800F094F82868816821F07001A8
:1040600041F0670126E0CA684968286800F076F8E0
:104070002868816821F0700141F047011AE0286842
:10408000816821F0700141F0070113E02868816820
:1040900021F0700141F017010CE02868816821F0DF
:1040A000700141F0270105E02868816821F0700166
:1040B00041F037018160012060700020207070BDE8
:1040C000000018B4204B046898421CBF1F4A90425D
:1040D0000BD0B0F1804F1CBF1D4A904205D01D4A45
:1040E00090421CBF1C4A904210D14A6824F07004D0
:1040F000144398421CBF154A90420AD0B0F1804F39
:104100001FBF134A9042134A904202D0124A904273
:1041100003D1CA6824F4407414434A6924F080042B
:104120001443046098428A68C2620A68826219BFB6
:10413000064A9042096901630121416111BC70473F
:10414000000000008800FFFF002C01400034014007
:104150000004004000080040000C004010B4036A56
:10416000046A64086400046223F00A03846924F08A
:10417000F00444EA021484611943016210BC7047E0
:10418000036A23F0100303628369D0F820C023F48C
:10419000704343EA02332CF0A00C83614CEA011C0B
:1041A000C0F820C07047B1F5807F02D34FF0FF30D8
:1041B00070470170012070470078401E8041C04365
:1041C000C00F70470CB430B583B0044606A8029007
:1041D0000A4600250194009502AB01A908487844DD
:1041E0001E3002F0ADF901990D7000284EBF044653
:1041F0000198041B204603B030BC5DF80CFB00BFE7
:104200002B0B000038B403460A004FF6FF7010D0A5
:104210004AF201041A78504008224510C00746BFF0
:1042200084EA050080B2A8B2521EF6D15B1C491E7A
:10423000F0D132BC7047C04B60B5198900250A46E1
:10424000012A99B007D1BB258DF80150AA218DF81C
:104250000010022504E019B9AB218DF800100125EA
:1042600001260DF805606D1CEEB213210DF8061045
:104270006D1C5988EEB26D1C0DF80610EEB2090ADD
:104280000DF806106D1CD988EEB26D1C0DF80610E5
:104290006E1C9988EDB2052908BF03210DF80510A1
:1042A000F3B241790DF80310761CC188F3B2761C85
:1042B0000DF80310F3B2C188090A0DF80310761C3B
:1042C000F1B200230DF80130761CF3B200210DF895
:1042D0000310761C817AF3B2761C0DF80310F3B24A
:1042E000B0F80B100DF80310761CB0F80B10F3B2F9
:1042F000090A0DF80310761CB0F80D10F3B2761C05
:104300000DF80310F3B2B0F80D10090A0DF8031000
:10431000761CB0F80F10F3B2761C0DF80310F1B252
:10432000B0F80F00000A0DF8010010210DEB02009B
:10433000C01CFFF767FF761CF1B2761C0DF8010078
:10434000F1B2000A0DF80100761CF1B20D200DF853
:104350000100761C42F21073F2B269467748FFF70B
:10436000B6FA19B060BD0000F8B5734A0D46118960
:104370000026012918BF002940F0CB80704C21781D
:10438000092900F2C480DFE801F005101A2F39492D
:104390005C68727B132840F0BA80012020701020E6
:1043A000A071132067494870B3E06649A4F8010082
:1043B0000A78A318521CD8710A70022012E0B4F8CF
:1043C000011041EA0021A4F801105E490B78E518BC
:1043D000E871B4F801005288904240F098805B1C6C
:1043E0000B700320207094E0D288904240F08F80C0
:1043F00004212170E07053490A7827E0918803284E
:1044000008BF052904D0884218BF642840F07F8087
:104410000521217020714B490A7817E0212818BF27
:10442000012808D0022818BF132804D003281CBF75
:10443000042805286BD106212170607141490A7852
:1044400004E04049A3790A789A4204D2A318521C86
:10445000D8710A705DE0072121700821217004F5F0
:104460008371487037480278521C027051E084F81A
:1044700006010921217033480178491C017048E088
:104480000D2844D104F583700178477847EA012765
:10449000A179E01DFFF7B6FE2A490A78521C87422F
:1044A0000A7034D1D2B2132A2ED16079012808BF04
:1044B000012625D0022806D11022E11D284600F051
:1044C000E1FB02261CE0032806D11022E11D28464C
:1044D00000F0D8FB032613E0042806D11022E11DCA
:1044E000284600F0CFFB04260AE0132808BF132655
:1044F00006D0212808BF212602D0052808BF05269E
:1045000000F009F83046F2BD00F005F801E000F0D7
:1045100002F80020F2BD10B5094C0A4900202070B5
:1045200008706421084801F0AFFF2046BDE8104044
:104530004FF48471FCF7E2BE1C070020DC08002069
:10454000280100207D0900209804002038B5044689
:1045500001F0E6FF14F1010F054602D00449087886
:10456000041901F0DDFF401BA042FAD331BD00BFAA
:10457000900000201CB5DFF8A8048088012804D131
:10458000DFF8A0440FF2C0411AE0022804D1DFF89E
:1045900094440FF2C84113E0032804D1DFF88444A7
:1045A0000FF2CC410CE0042804D1DFF878440FF27C
:1045B000D44105E005280ED1DFF868440FF2D84158
:1045C0002046FFF7FFFD224602B0BDE81040002163
:1045D0000020FFF7B3B813BD38B5DFF84C544FF4E3
:1045E00080612846FEF730FFDFF84044B8B92079F3
:1045F00090B9207B411C642821730DDB00202072C0
:104600002073012020712074DFF82414DFF82424A3
:1046100008700221117014E00120207211E0207A4C
:1046200001280CD10021217201212078DFF800241B
:10463000401C207011700220DFF8F8231070002158
:1046400021734FF400612846FEF7FEFEB0B9607991
:1046500088B9607B411C642861730CDB00206072A8
:1046600060730120DFF8C813DFF8C8236071087099
:104670000221117014E00120607211E0607A0128BB
:104680000CD10021617201216078DFF8A823401C61
:104690006070DFF89C0301700220107000216173CC
:1046A0004FF480512846FEF7CFFEB0B9A07988B903
:1046B000A07B411C6428A1730CDB0020A072A073B6
:1046C0000120DFF86C13DFF86C23A0710870022161
:1046D000117031BD0120A07231BDA07A01280CD12A
:1046E0000021A1720121A078DFF84823401CA070AE
:1046F000DFF83C030170022010700021A17331BD6E
:10470000F8B5DFF82843A08A10B1A18A481E3CE022
:10471000227C012A74D14FF48061DFF80C03FEF78C
:1047200093FE012804BF607C002815D14FF49670D9
:10473000FFF70CFF01206074002020712070617869
:10474000002904BF6079002821D0A17C491CA174F4
:1047500000206070607126E0207948B1617C0129F9
:1047600006D10020207120746074A07414200CE025
:1047700020780028E3D0617C0129E0D1002020705E
:1047800002202074002060740520A082F1BDA17871
:10479000002904BFA079002805D0A17C481EA07480
:1047A0000020A070A071A07C02281EDA0121A17453
:1047B0000020A1499B4D08702846A27C0FF20031D1
:1047C000FFF700FD00F0E6F82A4600210020FEF782
:1047D00065FF9348A17C30F81120984D0FF2E82135
:1047E0002846FFF7EFFC2A46CDE0A07C1828DFDB47
:1047F000002121740020A07460742071207035E0C5
:10480000217C022940F0C580874E4FF480613046FC
:10481000FEF71AFE012804BF607C002807D10221A0
:10482000A18201206074002020712070F1BD2078E9
:1048300040B3617C012925D1002020702071607473
:1048400001202074FEF750F90220A0820020607041
:104850006071A070A071A07C401CA074A07C18287E
:10486000C0F29780002121740020A0747249087062
:10487000FFF780FE8DA17148FFF7A4FC704901206D
:104880000870F1BD4FF400613046FEF7DDFD0128F0
:10489000634D03D10020607160732DE0A17C6079CD
:1048A000491EC9B2D0B100226270E08A421C0228BF
:1048B000E28221DD0020E08205EB410004EB4101B2
:1048C00042880F8B0A37BA42BCBF0A324280428804
:1048D0000B8B9A4210D3098B41800DE0607858B160
:1048E0000022627005EB410004EB410142880B8B12
:1048F0009A423CBF521C42804FF480513046FEF732
:10490000A3FD012803D10020A071A07323E0A079AA
:1049100098B10021A170E08A411C0228E1821ADDD1
:104920000020E082A07C35F810100A2913DBA07C5F
:1049300035F81010A1F10A020BE0A07858B100215F
:10494000A170A17C35F8110028B1A07C35F81010B9
:104950004A1E25F810203849324E00200870304693
:1049600094F812205DA1FFF72DFC324600210020B3
:10497000FEF794FEA07C35F81020304E5CA1304646
:10498000FFF720FC3246BDE8F84001210020FEF789
:1049900085BEF1BD2548817C491E16293CD8DFE83B
:1049A00001F00C0F11131517191B1D1F21232527AB
:1049B000292B2D2F31333537390000BF51A12CE081
:1049C00054A12AE057A128E05AA126E05DA124E0E5
:1049D00060A122E063A120E066A11EE069A11CE0C5
:1049E0006CA11AE06FA118E072A116E075A114E0A5
:1049F00078A112E07BA110E07EA10EE081A10CE085
:104A000084A10AE087A108E08AA106E08DA104E064
:104A100090A102E093A100E096A10A48FFF7D2BB63
:104A20001C07002070040020001001403C00002002
:104A300036040020370400203504002084040020C0
:104A40002C04002073040020494F5420524620318A
:104A5000364348202020202000000000494F5420E9
:104A6000524620384348202020202020000000000B
:104A7000494F542052462050454E44494E4720202D
:104A800000000000494F5420524620434849434B00
:104A90002020202020200000494F54205246205042
:104AA000454E4420384348200000000020202020AC
:104AB0002020202020202020202020200000000076
:104AC000253032643E000000202056616C75652060
:104AD0003A20253033642020000000002053657404
:104AE0002056616C75653A25303264202020000024
:104AF000202056616C7565203A20253033642020D3
:104B0000200000004661726D20436F646520202004
:104B10002000000044657669636520547970652043
:104B200020000000524620416464726573732020A7
:104B3000200000005246205479706520202020205B
:104B4000200000004F757431205365636F6E642040
:104B5000200000004F757432205365636F6E64202F
:104B6000200000004F757433205365636F6E64201E
:104B7000200000004F757434205365636F6E64200D
:104B8000200000004F757435205365636F6E6420FC
:104B9000200000004F757436205365636F6E6420EB
:104BA000200000004F757437205365636F6E6420DA
:104BB000200000004F757438205365636F6E6420C9
:104BC000200000004F757439205365636F6E6420B8
:104BD000200000004F75743130205365636F6E64A0
:104BE000200000004F75743131205365636F6E648F
:104BF000200000004F75743132205365636F6E647E
:104C0000200000004F75743133205365636F6E646C
:104C1000200000004F75743134205365636F6E645B
:104C2000200000004F75743135205365636F6E644A
:104C3000200000004F75743136205365636F6E6439
:104C4000200000004D6F76696E6720436F756E74AB
:104C50002020000038434820526576657273652035
:104C600000000000526573657420456E61626C65DA
:104C70002000000023232323232323232323232073
:104C80002000000062B38B0708D0521E11F8013BD0
:104C900000F8013B00F024808B07F6D1830740F039
:104CA000208000BF103A07D330B4B1E83810103A72
:104CB000A0E83810F9D230BC530724BFB1E808107F
:104CC000A0E8081044BF51F8043B40F8043BD20769
:104CD00024BF31F8022B20F8022B44BF0B7803705D
:104CE0007047121F17D35B0009D151F8043B20F81D
:104CF000023B1B0C121F20F8023BF6D20BE051F8CE
:104D0000043B00F8013B1B0A20F8023B1B0C121F5E
:104D100000F8013BF3D238BF121D521E24BF11F818
:104D2000013B00F8013BF8D870470268531C036050
:104D3000117070472DE9FC410546DFF8B86428780A
:104D4000C10740F1DD80706800F00C00042807D036
:104D5000706800F00C0008280DD17068C1030AD5F6
:104D60003168880340F1CC806868002840F0C88032
:104D70000120BDE8F6816868B0F5803F0FD038B9F2
:104D8000316821F480313160306820F4802009E0FE
:104D9000B0F5A02F316807D141F48021316030682F
:104DA00040F48030306006E021F4803131603268B8
:104DB00022F480223260686870B101F0B1FB0446D1
:104DC0003168880300F19C8001F0AAFB001B652874
:104DD000F6D30320BDE8F68101F0A2FB044630685B
:104DE000810340F18D8001F09BFB001B6528F6D309
:104DF000EFE701F095FB001B022840F2AE80E8E7E8
:104E00002869DFF8FC1370B101220A6001F088FB09
:104E100004463068810700F1DA8001F081FB001B55
:104E20000228F6D9D5E7086001F07AFB044630681D
:104E3000810740F1848001F073FB001B0228F6D942
:104E4000C7E7086001F06CFB0446706A810740F117
:104E5000978001F065FB001B0228F6D9B9E708B975
:104E6000306A09E00528306A06D140F0040030625B
:104E7000306A40F0010005E0400840003062306ACE
:104E800020F004003062E86870B101F049FB074689
:104E900041F28938306A810700F1A98001F040FBB6
:104EA000C01B4045F6D394E701F03AFB074641F2B8
:104EB0008938306A810740F19A8001F031FBC01BCC
:104EC0004045F6D385E701F02BFBC01B022840F2DA
:104ED000A4807EE701F024FB401B022840F2B8804A
:104EE00077E70020206601F01BFB04463068810153
:104EF00040F1B28001F014FB001B0228F6D968E7EC
:104F0000287881071BD5706810F00C0F09D07068E5
:104F100000F00C0008287FF473AF7068C1033FF500
:104F20006FAF3168880703D5286901287FF420AF67
:104F30003168686921F0F80141EAC00131602978DF
:104F400008071DD5A869DFF8BC1200283FF479AF27
:104F500001220A6001F0E4FA0446706A81077FF5D5
:104F600048AFDFF894120868C0084FF47A72B0FBBB
:104F7000F2F2009200BF0098411E00280091F9D182
:104F80002878410738D5F0690024C10009D4F069B8
:104F900040F08050F0610124F06900F080500090F2
:104FA0000098DFF864723968C80518D4386840F48E
:104FB0008070386001F0B4FA80463968C8050ED4B4
:104FC00001F0AEFAA0EB08006528F6D301E73068DF
:104FD000696920F0F80040EAC1003060AFE7E86896
:104FE00001287FF43CAF306A40F001004AE71CB171
:104FF000F06920F08050F061E86968B3716801F0F1
:105000000C0108293FF4B4AE02287D4C7FF469AF4F
:105010000020206601F084FA0746306881013FF5E0
:1050200052AF286AB0F5803F05D17168A86821F4B5
:105030000031014371607168286A21F474110143E1
:10504000686A014371600120206601F069FA054633
:10505000306881017FF53EAF0020BDE8F6812DE983
:10506000F0416A4F05463868884600F00700404521
:1050700009D23968C90848EAC1013960386800F0C6
:105080000700404576D129785A4C880705D56168D4
:10509000A86821F0F001014361602878C1075AD562
:1050A0006868012802D121688A0303E0022803D13D
:1050B00021688A0103D45DE0226891075AD56168AE
:1050C000890840EA8100606001F02AFA06466868B3
:1050D00001280ED1606800F00C0004283BD001F0DC
:1050E0001FFA801B41F289318842F3D30320BDE8C7
:1050F000F081022841D1606800F00C0008282AD015
:1051000001F00EFA801B41F289318842F3D3EDE7BA
:105110002878410705D56168E86821F4E06101431A
:1051200061602878010706D56068296920F460501D
:1051300040EAC100606000F02DF862683449C2F3B3
:105140000312895C2C4AC8401060002000F0F4FE75
:105150000020BDE8F081386800F007008045D7D214
:105160003968C90848EAC1013960386800F00700A9
:105170004045CDD00120BDE8F081606810F00C0FF3
:10518000E9D001F0CDF9801B41F289318842F4D396
:10519000ACE700001F490A6802F00C00082812D191
:1051A0001FA3C2F38340D203185C09D50A681349D0
:1051B0001FA34843C2F34041595CB0FBF1F0704774
:1051C0001549484370470D4870470B4800687047C1
:1051D0000948104A006813681049C3F3022206E028
:1051E00005480C4A006813680C49C3F3C222895C65
:1051F000C8407047001002409C00002000127A0056
:105200000000424280044242007000400020024000
:10521000447F00080410024000093D002C80000873
:1052200002030405060708090A0B0C0D0E0F1010E7
:1052300001020000314A13684FF6FF0100020B40E3
:1052400000F4E06018432E4908431060704738B4FA
:105250002A4B1C68C4F30223C3F10704052C28BFA2
:1052600004241D1D072D34BF0023DB1E012505FA74
:1052700004F4641E2140994005FA03F35B1E1A40B2
:1052800011430901020007D51E4A00F00F00104427
:1052900000F8041C31BC70471B4B195431BC7047DB
:1052A000012200F01F01194B03E0012200F01F0151
:1052B000174B8A40400943F820207047401EB0F148
:1052C000807F01D3012070471249134A4860F020C3
:1052D000107000228A6007200860002070470428B0
:1052E0000C4904D1086840F00400086070470A685F
:1052F00022F004020A607047000000000CED00E09C
:105300000000FA0518ED00E000E400E000E100E034
:1053100080E100E010E000E023ED00E000F000B8E4
:1053200070470000014648B1B0FA80F18840C91CBE
:10533000C1F58461090501EBD021400570470000EB
:10534000F0B540F2FF7581EA030C0CF0004C15EA51
:1053500011541DBF15EA1357AC42AF42E5E0BC4102
:10536000C1F31301C3F31303801A994143F480136B
:1053700004D2641E4000494180185941C90241EAE3
:105380005051B1FBF3F603FB1611A2FB0675D7EBE8
:10539000C020A94102D2761E80185941C90241EAB3
:1053A0005051B1FBF3FE03FB1E11A2FB0E75D7EBB0
:1053B000C020A94103D2AEF1010E801859418902E3
:1053C00041EA9051760546EA8E2EB1FBF3F603FBD7
:1053D0001611A2FB0675D7EB8020A94102D2761EDA
:1053E00080185941C90241EA50514EEA060EB1FBFC
:1053F000F3F603FB1611A2FB0675D7EBC020A941FB
:1054000002D2761E80185941C90241EA5051B1FBBF
:10541000F3F703FB1711A2FB0735D3EBC020A9411B
:1054200067F100070CBF004247F0010766F3D5277C
:105430004FEA1E31B80814F5806412DDBD0775F11E
:10544000004250EB0E5051EB045111F5801F5CBF30
:1054500041EA0C01F0BD4CF07F6141F0E0410020D9
:10546000F0BDBD076D0840EA0E5041F48011D4F143
:105470000104B4F120060ADAC4F120060200E0407B
:1054800001FA06F3E1401843B24015430EE0342C14
:1054900013DCC6F1200445EA40056D0820FA06F247
:1054A000154321FA06F0A1400D43002175F1004299
:1054B00050F1000051EB0C01F0BD00205FEA0C013F
:1054C000F0BDCFB992185B41B3FA83F704BFB2FACB
:1054D00082F6BF190B3FB7F120062FBF02FA06F381
:1054E000BB40C7F1200622FA06F638BF3343BA4064
:1054F0001CB1E419641E33E77F4231F00041B1FA78
:1055000081F404BFB0FA80F6A4190B3CB4F1200674
:105510002FBF00FA06F1A140C4F1200620FA06F6DA
:1055200038BF3143A0403C1B1AE7AC421ABF05EA22
:105530001357AF4212E050EA41061CBF52EA43063D
:10554000BFE750EA4107304661461CBF41EA0551BA
:10555000F0BD52EA430C08BFC143F0BD00204FF438
:10556000001616EB410F98BF16EB430F08BF16EB62
:10557000410F24BFC14305E016EB430F0CBF61464A
:105580004CEA0551F0BD0000B0B581EA030C0CF007
:10559000004C40F2FF7515EA11541DBF15EA135770
:1055A000AC42AF4239E0E41923EA455343F4801397
:1055B000C90241F0004141EA505EC7021100A7FB59
:1055C000020200284FF00000EEFB01204FF0000126
:1055D000E3FB072118BF42F00102401800214941B6
:1055E000E3FB0E01A4F580640F0302D25200404198
:1055F000494154F101046CDD470872F1004250F159
:10560000000051EB0451A1F580115CBF41EA0C018F
:10561000B0BD4CEA05510020B0BD05EA1357AC42BD
:1056200014BFAF4241E050EA410E1CBF52EA430EA4
:1056300002E061460020B0BD24423C441BD15FEA39
:10564000070EF6D0090302BF01460020AEF1140E8A
:10565000B1FA81F7AEEB070401FA07FE0C37C7F188
:10566000200100FA07F7C8404EEA000E23EA45532E
:1056700043F48013A2E733F00043B3FA83F704BF87
:10568000B2FA82FE77440B3FE41BB7F1200E2FBF26
:1056900002FA0EF3BB40C7F1200E22FA0EFE38BF0D
:1056A00043EA0E03BA40641C82E750EA410E14BF7D
:1056B00052EA430E6FF000014FF4001717EB430F4F
:1056C0008ABF194617EB410FB5E74CEA0551002098
:1056D000B0BDD4F10104B4F120070FDAC4F1200702
:1056E000520828BF42F0010210FA07F501FA07F745
:1056F000E1BF2A43E0403843E1400FE0352C98DC1D
:10570000C7F1200452EA400220FA07F218BF42F023
:10571000010231FA07F0A1400A43002172F1004270
:1057200050F1000051EB0C01B0BD0000C1F30A5371
:1057300040F2FE329B1A14DDD3F120034FEAE172EE
:1057400008DDC90241EA505141F00040D8408018BC
:105750005040704703F2E13010B1D24382F0004074
:10576000704700207047000038B53B4C2078052872
:1057700067D8DFE800F0030D151C333BA078012843
:105780005FD100210120A170A1602070E07058E07D
:10579000002220213148FDF75EFE0222227050E0F7
:1057A000012220212D48FDF756FE03201CE02C4D40
:1057B000002202212846FDF74EFE04202070E078EA
:1057C00000283ED00021E17028460121FDF73CFE73
:1057D000E060E16860788140A16017E00122022169
:1057E0001F48FDF738FE052020702AE01C4D0121DE
:1057F0002846FDF729FEE060E2686078A1688240F3
:1058000011431828A16004DA03212170401C607044
:1058100017E0002202212846FDF71DFE00206070DF
:105820001049A06820F07F40A0600A68824206D03C
:1058300008600D4900F01CF80C4901200870002197
:105840002170A088401C81B2C82902DB0121002000
:10585000A170A08031BD000080090020001001402F
:10586000000C0140A40900200403002034020020A1
:10587000F8B48DF80000020A000C8DF801208DF8B4
:1058800002006A460320012300240C70157803FAF5
:1058900004F6354206D00E78C4F1070703FA07F77D
:1058A0003E430E70641C082CF1DB521C491C401E48
:1058B000EAD1F1BC7047000070B5374D297800245B
:1058C00004295CD8DFE801F0030D162F3800A97811
:1058D000012955D1A880AC7001206C702870E87047
:1058E0004EE000224FF480712C48FDF7B4FD0222F7
:1058F0002A7045E02A4E00224FF480513046FDF7D1
:10590000AAFD03202870E878002839D02879EC70A7
:10591000C1074CBF002201224FF480713046FDF7D1
:105920009AFD68781BE001224FF480511C48FDF776
:1059300092FD0420287023E00122A856A988184E61
:105940008240114214BF002201224FF48071304680
:10595000FDF781FD6878102804DA02212970401CC7
:1059600068700DE000224FF480513046FDF773FD62
:1059700001224FF480710948FDF76DFD6C702C70A9
:10598000E888401C81B2C82903DB01210020A970EE
:105990000124E880204670BD20010020000C014059
:1059A0000008014000B500BF130096469446103928
:1059B00028BFA0E80C50FAD85FEA417C28BF0CC091
:1059C00048BF40F8042BC90728BF20F8022B48BF66
:1059D00000F8012B00BD00002DE9F84F584E044699
:1059E000307E01280F469046994608BF02204BD0D2
:1059F000012131764CF2503A504600F055F8010042
:105A000040D1012C1CBF022C0424384600254D4FE8
:105A100000900020F0614046796841F00101796012
:105A20002A01494601F058FD009901EB4501088023
:105A300000F076FD83463868C1070BD500F070FD95
:105A4000A0EB0B005045F6D9032012E000F054F80B
:105A500001200EE03868810644BF20213960386893
:105A6000C106F3D43869C107F0D439684807EDD4CA
:105A700000207968490849007960010002D16D1C55
:105A8000A542C6DB00213176BDE8F28F2E49CA68F7
:105A90000020130607D52D4B2D4A0B600A60C968FC
:105AA0000A0648BF0120704770B5044600F038FD73
:105AB0000646244D2868C1070CD514F1010FF9D012
:105AC00024B100F02DFD801B8442F3D2032070BD71
:105AD000002070BD2868810644BF20212960286805
