:020000040800F2
:10000000B00D002071790008D9770008DB7700086F
:10001000DD770008DF770008E177000800000000C6
:10002000000000000000000000000000E37700086E
:10003000E577000800000000E7770008E97700088E
:100040009B7900089F790008A3790008A779000828
:10005000AB790008AF790008B3790008B7790008D8
:10006000BB790008BF790008C3790008C779000888
:10007000CB790008F7770008CF790008FD770008F2
:10008000D3790008D7790008DB790008DF79000808
:10009000E3790008E7790008EB790008EF790008B8
:1000A000F379000803780008F7790008FB79000865
:1000B000097800080F780008FF790008037A000823
:1000C000077A00080B7A00080F7A0008137A0008F4
:1000D000177A0008157800081B7A00081B780008BA
:1000E0001F7A0008237A0008277A00082B7A000874
:1000F0002F7A0008337A0008377A00083B7A000824
:100100003F7A0008437A000821780008477A0008FF
:100110004B7A00084F7A0008537A0008577A000893
:100120005B7A00085F7A0008637A0008677A000843
:1001300070B5DFF8DC4BDFF8DC5BDFF8DC6B002050
:10014000A08528706870A8704C210520A07600203A
:10015000E0763075E8702083DFF8C00B01F028F8F6
:10016000882106F1200001F023F800207075B07599
:100170006421DFF8AC0B01F01BF86421DFF8A40B5D
:1001800001F016F86421DFF8A00B01F011F800204F
:100190006077F0753076B0761121204601F008F8CE
:1001A0001121304601F004F8002028714421DFF8C5
:1001B0007C5B284600F0FCFF012068736877012112
:1001C00005F12C0041700170297329770020F07629
:1001D000B077B083112106F1A80000F0E9FF1121EA
:1001E00006F1BC0000F0E4FF0020F077208670BD2F
:1001F00038B5DFF83C4BDFF8205BA08803281FD11F
:10020000E97D042912D114216971287100220C2181
:1002100005F1200001F0E1F80022DFF8001B05F1F4
:10022000200001F0C9FB608D18BB30E0052940F0CB
:10023000B080152128716971608D002869D176E040
:10024000052840F0A680E87D04284DD1142068716F
:100250000022032028710C2105F1200001F0BDF8D7
:100260000022DFF8B81A05F1200001F0A5FB608D2F
:1002700068B14FF6FF72002105F1200001F0ADF8E2
:100280000022DFF8981A05F1200001F095FB608D3F
:1002900002280DDB4FF6FF72042105F1200001F06A
:1002A0009CF80022DFF8741A05F1200001F084FBAD
:1002B000608D02280DDD4FF6FF72082105F1200048
:1002C00001F08BF80022DFF8541A05F1200001F04C
:1002D00073FB05F1200001F01AF8012068752875FC
:1002E0000220687604204FE0052852D1152068715D
:1002F0000022032028710C2105F1200001F06DF887
:100300000022DFF8181A05F1200001F055FB608D7E
:1003100068B14FF6FF72012105F1200001F05DF890
:100320000022DFF8F81905F1200001F045FB608D8F
:1003300002280DDB4FF6FF72052105F1200001F0C8
:100340004CF80022DFF8D41905F1200001F034FB4D
:10035000608D02280DDD4FF6FF72092105F12000A6
:1003600001F03BF80022DFF8B41905F1200001F09C
:1003700023FB05F1200000F0CAFF09206875012069
:1003800028750220687605202876012068770220EB
:10039000A87731BD2DE9FE4F02F096F9FFF7C8FEB0
:1003A00000F0E4FA01F040FA02F0A0F902F0BEF920
:1003B00002F0D4F902F0A0FB02F084FC02F068FB2A
:1003C00002F034FB02F0CAFBDFF8680901688A001A
:1003D00003D5DFF864190120086002F0A9FC02F0DF
:1003E000C9FCDFF84C99DFF82859B9F804002877E0
:1003F00004280BD1DFF8446901220221304602F0C3
:10040000BFFD01220421304602F0BAFD02F0EDFDED
:100410000122DFF80C19DFF82809DFF8FC68DFF8A3
:1004200024A9DFF8044903F067F80122DFF818195E
:10043000DFF8180903F060F8DFF8140903F083FA15
:10044000DFF8100903F07FFADFF80C0903F07BFAFC
:10045000B9F806000FF2FC41009006F1A8070D2341
:100460000122384603F038FC002030773A4600215C
:1004700002F0F8FEDFF8E418DFF8E47801203075C8
:100480004CF6CC400A68106007F1D40001904FF49C
:10049000C87807F1D000009041E2132840F0F881BD
:1004A00000203083F4E107F108001FFA8BF22146A7
:1004B000805C03F0E3FCF0750BF1010BB9781FFAD7
:1004C0008BF08842EFD30020B8702886642107F1B2
:1004D000080000F06DFE0020B0760CE0B07E04282D
:1004E00009DD03F09CFD0021B17669776421DFF816
:1004F000340800F05DFEA87FF0B14FF0000A0BE079
:10050000DFF840081FFA8AF207F16C01805C02F004
:10051000FDF9F8700AF1010AA97F1FFA8AF08842F2
:10052000EED30020A8776421DFF818A8504600F029
:100530003FFE0020E8770AE0E87F042807DD02F0AC
:1005400032FA0021E9835046642100F031FEF07E4A
:1005500018B103F045FE0021F176F17D002900F08D
:100560009B81B9F80800012818BF002840F092814B
:1005700001291BD1F07F012807D17079152818BFF8
:10058000142802D10020F07701E011207071B9F831
:100590000400052808BF0320307106F1200000F098
:1005A000B6FEF0800220707601203076F07D2128A2
:1005B0001CD1F07F012807D17079152818BF1428A5
:1005C00002D10020F07701E021207071B9F8040019
:1005D000052808BF0320307106F1200000F097FEC7
:1005E000F08002207076212030764DE1022840F024
:1005F00090802079687112236079411EE980E27948
:10060000207A42EA00222A817371C9B2B9F8040043
:10061000052808BF0320307106F1200000F0DDFE40
:10062000DFF8F816002206F1200001F0C5F906F106
:10063000200000F06CFEF080B9F80400042862D1BC
:10064000E888022802D003285DD12DE0288998B1DE
:10065000297D012909D001202875C5F834800020A2
:10066000A87568643220E86401E00020A87564235E
:1006700001220121012012E0A87D012809D00020DB
:100680002875686501213220A975C5F83C80E864A9
:1006900001E000202875642301220021012002F0DE
:1006A0000AF9E988032914D1288990B1697D0129C3
:1006B00009D001206875C5F838800020E875A86465
:1006C0003220E86401E00020E87564230122012162
:1006D00016E0E988032904BF2889002813D1E97DA1
:1006E000012909D00120E875C5F84080002068750F
:1006F00068653220E86400E0687564230122002107
:10070000022002F0D8F80120307502207076307691
:10071000BAE003287FF4C1AE207968716079411E88
:10072000E980E279207A42EA00222A81A07AE37AFB
:1007300040EA0320A5F80B00237B94F80DC043EAA0
:100740000C23652BA8BF642301DA03B90123A5F8A4
:100750000D308BB2022B07D1009B1880B5F80D002D
:1007600038704008E86408E0032B06D1009B5880ED
:10077000B5F80D0078704008286513207071C9B273
:10078000B9F80400307106F1200000F026FEDFF811
:100790008C15002206F1200001F00EF906F1200070
:1007A00000F0B5FDF0800120307502207076032046
:1007B0003076E988022930D12889B0B1297D012914
:1007C0000BD0012028750020A875B5F80B0008FB98
:1007D00000F068630020686401E00020A875012132
:1007E000009802883B78012015E0A87D01280BD0F5
:1007F000002028750121B5F80B00A97508FB00F051
:10080000E8630020686501E0002028750021009859
:1008100002883B78012002F04EF8E988032917D1BD
:100820002889A8B1697D01290BD0012068750020B5
:10083000E875B5F80B0008FB00F0A8630020A86479
:1008400001E00020E875012100987B78428818E0DB
:10085000032904BF2889002816D1E97D01290BD07E
:100860000120E87500206875B5F80B0008FB00F062
:1008700028640020686500E0687500987B784288ED
:100880000021022002F017F8012070770220B077D3
:10089000FFF7AEFC0020F075F87848B197F86C10BF
:1008A000012903D1012070770220B0770020F87071
:1008B000387940B3002139710822DFF860B401991A
:1008C000584600F087FC9BF80800012817D100214A
:1008D0008BF80810584606F1200100F0ABFC207997
:1008E000687100226079411E4FF6FF70E98028810F
:1008F000594606F1200001F05FF801203075012013
:1009000070770220B077B9F80410042907D195F860
:10091000200020B1002185F8201000F07AF8DFF8DF
:100920003C1409684AF6AA2008606A7F002A3FF44E
:10093000D5ADBA7007F10800DFF8E8B3594603F007
:100940000BFF002068776421584600F031FC4FF01F
:10095000000BB3E556657220253031642E25303208
:1009600064204944202530326400000000B58FB077
:100970000920059000210122079109920B924FF462
:100980008030069002220D904FF4E0110C920E91EF
:1009900005A803F025FF0F210220009101900021FE
:1009A0004FF4C0600291039004900221684604F065
:1009B000ACF804F060F94FF47A71B0FBF1F004F098
:1009C000CFF9042004F0DDF9002200214FF0FF30C0
:1009D00004F093F90FB000BD30B40168DFF81827B8
:1009E000914207D1CA49CE4B4A7F1C78CD4DAC54B9
:1009F000521C4A770068DFF80417884207D1C448C0
:100A0000D14A817F1378CF4C6354491C817730BC25
:100A100070472DE9F84FBE4884B000F1140100F191
:100A2000160B00F1240A00F1280400F1340900F14A
:100A3000440800F14C0500F13C0600F15407022087
:100A40000391029003980178012926D1D8F800007B
:100A5000D9F80020824208BF28681BD0401CC8F883
:100A6000000004F0AFF9CDE90001D9F8000004F06E
:100A7000A9F902460B46DDE9000104F0B1F9CDE920
:100A80000001286804F09EF9DDE9002304F0CCFAA7
:100A900004F09CFBAAF800002AE09BF80000012863
:100AA00026D138683168814202D1322020801FE08F
:100AB000401C386004F086F9CDE90001306804F08C
:100AC00081F902460B46DDE9000104F089F90022B4
:100AD000DFF82C3604F0A8FA04F078FB208080B20E
:100AE0002968C1F13202824224BFC1F13201218062
:100AF0000398411C03913F1D0299361D2D1DA41C16
:100B0000491E08F1040809F104090AF1020A0BF16F
:100B1000010B029196D105B0BDE8F08F401E04286C
:100B200000D9704738B5DFE800F0032441BDC400A8
:100B30007F48408D012806D17748817A8A0740F1A5
:100B4000E580022230E0022808D17348817A01F062
:100B50000A010A2940F0DA80022225E0032801BFB9
:100B60006D48817A01F02A012A2940F0CF800222C3
:100B70001AE06F48408D012805D16748817A8A07BD
:100B800000F1C4800FE0022804D16348817A11F09B
:100B90000A0F06E0032840F0B9805F48817A11F01F
:100BA0002A0F40F0B3800322427531BD604C5A4D8C
:100BB000608D08B3A388032B0DD14FF6FF7201217E
:100BC00005F1200000F009FC0022DFF8381505F1DE
:100BD000200000F0F1FEA08805280DD14FF6FF722D
:100BE000012105F1200000F0F8FB0022DFF81415C8
:100BF00005F1200000F0E0FE608D022821DBA188D5
:100C000003290DD14FF6FF72052105F1200000F0F8
:100C1000E4FB0022DFF8EC1405F1200000F0CCFE2C
:100C2000A08805280DD14FF6FF72052105F120009F
:100C300000F0D3FB0022DFF8CC1405F1200000F017
:100C4000BBFE608D032821DBA18803290DD14FF65F
:100C5000FF72092105F1200000F0BFFB0022DFF840
:100C6000A41405F1200000F0A7FEA08805280DD1EE
:100C70004FF6FF72092105F1200000F0AEFB0022C3
:100C8000DFF8801405F1200000F096FE05F1200049
:100C900000F03DFBE8800520A87504206875012060
:100CA000287531BD1C49887D00282FD105224A7541
:100CB00031BD194C04F1200000F029FBE0801C48F4
:100CC0008088032818BF052820D10120E0774FF63F
:100CD000FF72152060710C210320207104F12000A7
:100CE00000F07BFB0022DFF81C1404F1200000F070
:100CF00063FE04F1200000F00AFBE0800020607534
:100D000001202075022060760520207631BD00008C
:100D10004C0600206F09002000030020A8060020D8
:100D200058040020BC04002020050020F406002008
:100D30003807002024100240E0044242000801402D
:100D4000F8080020E805002084050020B8080020ED
:100D5000F807002038080020B80700208409002088
:100D600028020020F0B5044685B02068DFF89853CB
:100D7000B0F1804F4CD1287E18B9A88D401CA885B1
:100D80003EE00A283CD01428DFF8806321D1A87EF9
:100D9000E97E014306D10120E8760020307703F098
:100DA00059F902E008B1401EA876307F401C307728
:100DB000C0B20A2824DD0020307706F1A802002105
:100DC00002F050FA06F1BC020121002002F04AFABA
:100DD00016E01E2814D1DFF83803808803281CBFD2
:100DE0000428052808D10122C64906F1200000F098
:100DF000E3FD08B101203075B07D08B1401EB0752B
:100E0000287E401C2876C0B26428A4BF0020287623
:100E10002068C049884240F01481697E0E2900F2A2
:100E20000881DFE811F00F0012000601060106013B
:100E30000601550063002A00060106010F00AB0001
:100E4000B000EC0003F038F9F3E0B149287F8A885C
:100E5000904200F0EE80B04A1078002840F0E9801F
:100E6000BFF34F8FAD49AE480A6802F4E062024317
:100E70000A60BFF34F8F00BFFDE7A54880880328B5
:100E800018BF052840F0D580A64EA04F304601F08F
:100E900099FB307830B107F1200000F038FAF88083
:100EA0007078B87232213069B0FBF1F1A7F80B10FD
:100EB0003221306AB0FBF1F1A7F80D103221306B0E
:100EC000B0FBF1F1A7F80F10787DFFF727FEB0E037
:100ED00095498E48CA781A2A03DA037D012B40F01F
:100EE000A8800022CA7002210175A2E0874E307DE1
:100EF000022840F09E801121684600F059F9002038
:100F00003075307784490878002840F092800022BC
:100F100006F12000805C00280CBF302331230DF83F
:100F20000230521C06F12000805C00280CBF3023E8
:100F300031230DF80230521C06F12000805C00289D
:100F40000CBF302331230DF80230521C06F1200073
:100F5000805C00280CBF302331230DF80230521C76
:100F6000102AD5DB06F1BC02684690E8CA0082E888
:100F7000CA000121002002F075F95AE06348C17EE1
:100F8000491CC17655E0614E307E88B3717E4A1EA1
:100F9000727669BB01281DD1304602F0D6FE0020D2
:100FA00030765B488088032818BF052820D15D492A
:100FB0000878E8B1800744BF00200861087802077C
:100FC00044BF00220A62820644BF00220A63002056
:100FD00008700DE0212818BF022804D003281CBF88
:100FE0000428052804D1304602F0AFFE00203076F8
:100FF000B07E401CB076E87F401CE87719E0434E95
:10100000707F012808D101224FF40061474801F0A8
:10101000B7FF002070770CE058B9B07F48B1401E90
:10102000B077C0B228B900224FF400613F4801F008
:10103000A7FF687E401C6876C0B21428A4BF0020B9
:10104000687620683A49884254D1314CA0880128FA
:1010500014BF022804F0D8F8A08804284AD1287DBB
:10106000324C01280AD1A98C08460529D8BF052091
:10107000E98DC0B2884211D3012210E0A87D012879
:1010800011D1298D2C29084602DD322918BF2D20C7
:10109000E98DC0B2884238BF012200D3002202216C
:1010A000204601F06DFF687D01280AD1E98C0846D1
:1010B0000529D8BF0520E98DC0B288420AD3012294
:1010C00009E0E87D01280AD1698DE88D814238BFA9
:1010D000012200D300220421204601F051FFE88DB7
:1010E000401CE88580B2322804DB0020E88501201E
:1010F00085F8200005B0F0BD0048004000380140F0
:1011000000004940A80600204C06002000030020F3
:1011100038070020000400404C0000200CED00E0E7
:101120000400FA05F40600206F09002000080140C1
:10113000002C01407047F0B40246106895681318FF
:10114000506803EB5004C00721D54D441FE0F0BCAC
:1011500002F10C00704713F8017B05F8017B491E72
:10116000F9D1A0B1B60813F8011B06F00306032E4F
:1011700008BF13F8016B01EB06214942801C29448A
:1011800005D011F8016B05F8016B401EF9D1A3429F
:10119000DDD013F8016B16F0030104BF13F8011B37
:1011A000C91C30090F28DAD113F8010B0F30D6E72C
:1011B000002204F0D1B8B1F5807F02D34FF0FF30A8
:1011C00070470170012070470078401E8041C04385
:1011D000C00F7047082A00D0704730B48B780124C4
:1011E000002B1CBF4A78002A22D0097801B31202D2
:1011F00042EA03420A43D24322F07F42426000F1B6
:101200000905182341682A78214052B161B995F83F
:101210002010491C85F8201000222A70012101723B
:1012200002E009B10121297064006D1C5B1EE9D147
:1012300030BC704778B40A46DFF8E4158988022983
:1012400037D100F1290502F1200308204FF0FF34C7
:10125000297869B100262E705178012916D001260F
:10126000167001210026567011745674197019E019
:10127000697821B100266E701670567008E0A97862
:1012800081B10026AE701178012905D15670167013
:10129000167456741E7005E0167001215170167494
:1012A00051741C70ED1C921C5B1C401ED0D171BC93
:1012B0007047012918BF0429F9D100F1290308203A
:1012C000197871B100241C7002F128011478012CE6
:1012D00003D1002515700D7013E0012414700C70FB
:1012E0000FE0997869B100249C7002F12801147A0A
:1012F000012C03D1002515720D7202E00124147235
:101300000C72DB1C521C401EDAD171BC7047DFF836
:101310001035B3F804C0014600220878BCF1050F6F
:101320001BD100B10122487808B142F0020288784E
:1013300008B142F01002C87808B142F020020879E2
:1013400008B142F48072487908B142F40072C87959
:10135000002840D042F480523DE000B1012248789C
:1013600008B142F00202887808B142F00402C8785D
:1013700008B142F00802087908B142F01002487939
:1013800008B142F02002887908B142F04002C879E1
:1013900008B142F08002087A08B142F48072487ABB
:1013A00008B142F40072887A08B142F48062C87AC7
:1013B00008B142F40062087B08B142F48052487BD5
:1013C00008B142F40052887B08B142F48042C87BE5
:1013D00008B142F40042104670477CB50546DFF87C
:1013E0004404DFF83C3401700C469888022861D12F
:1013F000100046D004EBD47629197608B4EB4600E9
:1014000020D011F8010C01283FD001262E5503EB06
:101410004400002601F8016C4FF6FF764189B24284
:1014200018BF8A4203D105EB4400018705E005EBB4
:1014300044010A87428101F0BDFC05EB4401002014
:10144000C88673BD487801282AD001262E5503EBA3
:10145000440000264E704FF6FF764189B24218BF15
:101460008A4203D105EB4400018705E005EB440106
:101470000A87428101F09EFC05EB44010020488769
:1014800073BD4908B4EB41000AD000202919285542
:1014900001F8010C002105EB44000187C18673BDF2
:1014A0000020291928554870002105EB44000187C8
:1014B000418773BD032840F0D180100000F09E806A
:1014C00089B9012028704FF6FF740020A870A2424D
:1014D000588918BF82420FBF28872A875A8101F096
:1014E00069FC002092E0012C0FD10120A8704FF67A
:1014F000FF7400202870A242D88914BF8242A887B6
:1015000000F0D780AA87DA81D1E0042C13D1012022
:1015100028714FF6FF740020A871A242588A18BFA4
:1015200082420FBFA5F84000A5F840205A8201F082
:1015300041FC002075E0052C0FD10120A8714FF669
:10154000FF7400202871A242D88A18BF824268D056
:1015500005F142004280DA8258E1082C19D10120BD
:1015600028724FF6FF740020A872A242588B18BF51
:10157000824203D105F14201C88005E005F1420035
:10158000C2805A8301F016FC05F142010020488117
:1015900073BD092C19D10120A8724FF6FF740020E9
:1015A0002872A242D88B18BF824203D105F14201B2
:1015B000488105E005F142004281DA8301F0FAFB3F
:1015C00005F142010020C88073BD0C2C40F027813A
:1015D00001202873A8734FF6FF74598CA24218BFDC
:1015E0008A4204D105F14200C181D98C34E005F171
:1015F0004200C2815A844282DA8407E1002918BF7E
:10160000012C05D100202870A8702887A88773BDF9
:10161000042C18BF052C08D100202871A871A5F84A
:10162000400005F14201488073BD082C18BF092C09
:1016300008D100202872A872002105F14200C18063
:10164000418173BD0C2C40F0EA80002028730021FA
:1016500005F14200C181A973418273BD052840F0A4
:10166000C080100000F0928089B9012028704FF6E8
:10167000FF7400206870A242588918BF82420FBFD1
:1016800028872A875A8101F095FB002086E0012CEB
:1016900012D1012068704FF6FF7400202870A2421A
:1016A000988914BF8242688703D06A879A8101F0C3
:1016B00081FB0020288773BD042C11D10120A87064
:1016C0004FF6FF740020E870A242D88918BF82420A
:1016D0000FBFA887AA87DA8101F06CFB002067E0C2
:1016E000052C0DD10120E8704FF6FF740020A87082
:1016F000A242188A18BF82425AD0EA871A8285E02D
:10170000082C13D1012028714FF6FF740020687156
:10171000A242588A18BF82420FBFA5F84000A5F820
:1017200040205A8201F046FB00204CE0092C15D1E4
:10173000012068714FF6FF7400202871A242988A38
:1017400018BF82420FBFA5F84200A5F842209A8236
:1017500001F030FB0020A5F8400073BD0C2C5ED1D9
:101760000120A871E8714FF6FF74D98AA24218BF10
:101770008A4204D105F142004180198B2FE005F126
:10178000420042805A848280DA843FE0002918BFF8
:10179000012C05D10020287068702887688773BDE8
:1017A000042C18BF052C05D10020A870E870A8876C
:1017B000E88773BD082C18BF092C07D100202871B9
:1017C0006871A5F84000A5F8420073BD0C2C26D125
:1017D0000020A871002105F142004180E97181805B
:1017E00073BD100016D0012028554FF6FF7603EB8D
:1017F0004400B242418918BF8A4203D105EB44003C
:10180000018773BD05EB44010A874281BDE873403F
:1018100001F0D0BA0020285505EB4401088773BDBC
:1018200038070020AC0900202DE9F8415D485E4CE6
:101830005E4D5F4EDFF87C8185B0016841F010019C
:1018400001604EF21F07026802F010020492049930
:10185000016841F020010160026802F02002049258
:101860000499016841F004010160026802F0040279
:10187000049201220499016841F00801016039468F
:10188000006800F0080004900498204601F078FBFE
:101890000122FF21284601F073FB0022202120466F
:1018A00001F06EFB00224FF4FD71304601F068FB41
:1018B00000224FF41941284601F062FB0022042166
:1018C000404601F05DFB01224FF40071304601F00B
:1018D00057FB009701200190002102200291039004
:1018E0006946204601F082FA49F6FF100121009076
:1018F000019100200221029003912846694601F0DF
:1019000075FA20200121009001910020032102900E
:1019100003912046694601F069FA012000210090F8
:10192000019102906946304601F060FA40F2FA30C7
:101930000121009001910020022102900391304684
:10194000694601F053FA4FF2040000210090019122
:1019500002913046694601F049FA4FF47070002157
:101960000090019102916946204601F03FFA4FF440
:10197000E05000900021012001910290694620462C
:1019800001F034FA0420012100900191002002218D
:10199000029003914046694601F028FA06B0BDE87E
:1019A000F0810000181002400010014000080140C2
:1019B000000C0140001401402DE9F84305460024C5
:1019C0001000DFF8F48BDFF8F49B40F07382DFF84F
:1019D000F06BB1882878032940F09E80002814BF5E
:1019E000002201224FF40051484601F0C9FA6878FC
:1019F000002814BF002201224FF48041484601F024
:101A0000BFFAA878002814BF012200224FF4004139
:101A1000484601F0B5FAE878002814BF00220122F8
:101A20000821484601F0ACFA2879002819BF0022A5
:101A3000012101220121484601F0A2FA687900281B
:101A400014BF002201220221484601F099FAA87928
:101A5000002814BF012200220421484601F090FA18
:101A6000E879002819BF0022012101220121404606
:101A700001F086FA287A002814BF002201220221F0
:101A8000404601F07DFA687A002814BF0022012246
:101A90000421404601F074FAA87A002814BF0122FC
:101AA00000220821404601F06BFAE87A002814BFB2
:101AB000002201221021404601F062FA287B002812
:101AC00014BF002201222021404601F059FA687B10
:101AD000002814BF002201224021404601F050FAA4
:101AE000A87B012803D100228021404605E0E87B45
:101AF000012804D100221021484601F041FAA87BB8
:101B000020B901228021404601F03AFAE87B002802
:101B100040F04E8500F047BD05294DD1002814BF87
:101B2000002201224FF40051484601F029FA68785A
:101B3000002814BF002201224FF48041484601F0E2
:101B40001FFAA878002814BF002201224FF4004198
:101B5000484601F015FAE878002814BF0022012257
:101B60000821484601F00CFA2879002819BF002204
:101B7000012101220121484601F002FA687900287A
:101B800014BF002201220221484601F0F9F9A87988
:101B9000002814BF002201220421484601F0F0F978
:101BA000E87920B100220121404600F0FFBC01226B
:101BB0000121404600F0FABC022940F0E6800128ED
:101BC00003D100224FF4005105E06878012805D1C7
:101BD00000224FF48041484601F0D2F9287828B914
:101BE00001224FF40051484601F0CAF9687828B93B
:101BF00001224FF48041484601F0C2F9A87801283B
:101C000003D100224FF4004104E0E878012804D118
:101C100000220821484601F0B3F9A87828B901222A
:101C20004FF40041484601F0ABF9E87820B90122B1
:101C30000821484601F0A4F92879012802D10022A0
:101C4000012104E06879012804D1002202214846DC
:101C500001F096F9287920B901220121484601F0C6
:101C60008FF9687920B901220221484601F088F9EC
:101C7000A879012803D100220421484605E0E8792B
:101C8000012804D100220121404601F079F9A87908
:101C900020B901220421484601F072F9E87920B9FF
:101CA00001220121404601F06BF9287A012802D176
:101CB0000022022104E0687A012804D100220421D4
:101CC000404601F05DF9287A20B901220221404600
:101CD00001F056F9687A20B901220421404601F04A
:101CE0004FF9A87A012802D10022082104E0E87AFD
:101CF000012804D100221021404601F041F9A87AC0
:101D000020B901220821404601F03AF9E87A20B9C9
:101D100001221021404601F033F9287B012802D12D
:101D20000022202104E0687B012804D10022402108
:101D3000404601F025F9287B20B9012220214046A8
:101D400001F01EF9687B20B901224021404601F0D4
:101D500017F9A87B012803D100228021404605E025
:101D6000E87B012804D100221021484601F008F93F
:101D7000A87B20B901228021404601F001F9E87BCF
:101D8000002840F0158400F00EBC002814BF00228B
:101D900001224FF40051484601F0F2F8687800281B
:101DA00014BF002201224FF48041484601F0E8F8B8
:101DB000A878002814BF002201224FF400414846B1
:101DC00001F0DEF8E878002814BF00220122082183
:101DD000484601F0D5F82879002819BF00220121D2
:101DE00001220121484601F0CBF86879002814BF90
:101DF000002201220221484601F0C2F8A8790028F9
:101E000014BF002201220421484601F0B9F8E87904
:101E1000002819BF0022012101220121404601F0C2
:101E2000AFF8B188042900F0C383287A002814BFD2
:101E3000002201220221404601F0A2F8687A00281F
:101E400014BF002201220421404601F099F8A87A2B
:101E5000002814BF002201220821404601F090F81A
:101E6000E87A002814BF002201221021404601F028
:101E700087F8287B002814BF002201222021404639
:101E800001F07EF8687B002814BF00220122402167
:101E9000404601F075F8A87B002814BF00220122FB
:101EA0008021404601F06CF8E87B002800F07B833D
:101EB000002279E3012A40F07B83DFF80467B188D0
:101EC000288F032905F1420740F0568170B1297827
:101ED00001290BD1401E288780B260B928704FF4C9
:101EE0000051484601F04CF8012404E04FF4005141
:101EF000484601F045F8688F78B1697801290CD11E
:101F0000401E688780B270B9687001224FF480412A
:101F1000484601F035F8012405E001224FF48041E4
:101F2000484601F02DF8A88F78B1A97801290CD185
:101F3000401EA88780B270B9A87000224FF40041FB
:101F4000484601F01DF8012405E000224FF400414D
:101F5000484601F015F8E88F70B1E97801290BD1F6
:101F6000401EE88780B260B9E87001220821484627
:101F700001F006F8012404E001220821484600F09F
:101F8000FFFFB5F8400070B1297901290BD1401E3F
:101F9000A5F8400080B258B928710122484600F0E7
:101FA000EFFF012404E001220121484600F0E8FF90
:101FB000388870B1697901290BD1401E388080B210
:101FC00060B9687101220221484600F0D9FF01245E
:101FD00004E001220221484600F0D2FF788870B167
:101FE000A97901290BD1401E788080B260B9A8710F
:101FF00000220421484600F0C3FF012404E000222F
:102000000421484600F0BCFFB88868B1E97901298D
:102010000AD1401EB88080B258B9E871012240460A
:1020200000F0AEFF012404E001220121404600F04F
:10203000A7FFF88870B1297A01290BD1401EF880DA
:1020400080B260B9287201220221404600F098FF58
:10205000012404E001220221404600F091FF38896A
:1020600070B1697A01290BD1401E388180B260B904
:10207000687201220421404600F082FF012404E03E
:1020800001220421404600F07BFF788970B1A97AD3
:1020900001290BD1401E788180B260B9A87200225C
:1020A0000821404600F06CFF012404E000220821D2
:1020B000404600F065FFB88970B1E97A01290BD17B
:1020C000401EB88180B260B9E872012210214046FA
:1020D00000F056FF012404E001221021404600F0E8
:1020E0004FFFF88970B1297B01290BD1401EF8817F
:1020F00080B260B9287301222021404600F040FFE1
:10210000012404E001222021404600F039FF388AF2
:1021100070B1697B01290BD1401E388280B260B951
:10212000687301224021404600F02AFF012404E0A8
:1021300001224021404600F023FF788A70B1A97B3C
:1021400001290BD1401E788280B260B9A8730122A8
:102150008021404600F014FF012404E00122802188
:10216000404600F00DFFB88A002800F01C82E97B91
:10217000012900F00B8216E2052940F0B18070B110
:10218000297801290BD1401E288780B260B92870B8
:102190004FF40051484600F0F3FE012404E04FF4F0
:1021A0000051484600F0ECFE688F78B1697801294B
:1021B0000CD1401E688780B270B9687001224FF45C
:1021C0008041484600F0DCFE012405E001224FF486
:1021D0008041484600F0D4FEA88F78B1A978012943
:1021E0000CD1401EA88780B270B9A87001224FF4AC
:1021F0000041484600F0C4FE012405E001224FF4EE
:102200000041484600F0BCFEE88F70B1E978012932
:102210000BD1401EE88780B260B9E8700122082126
:10222000484600F0ADFE012404E0012208214846A2
:1022300000F0A6FEB5F8400070B1297901290BD154
:10224000401EA5F8400080B258B9287101224846C6
:1022500000F096FE012404E001220121484600F02E
:102260008FFE388870B1697901290BD1401E388002
:1022700080B260B9687101220221484600F080FEF8
:10228000012404E001220221484600F079FE78880A
:1022900070B1A97901290BD1401E788080B260B954
:1022A000A87101220421484600F06AFE012404E0DE
:1022B00001220421484600F063FEB88860B1E97944
:1022C000012909D1401EB88080B2002840F07081F9
:1022D000E8710122404662E101220121404665E1A8
:1022E00070B1297801290BD1401E288780B260B9CE
:1022F00028704FF40051484600F042FE012404E0EB
:102300004FF40051484600F03BFE688F78B1697881
:1023100001290CD1401E688780B270B96870012213
:102320004FF48041484600F02BFE012405E00122D5
:102330004FF48041484600F023FEA88F78B1A97879
:1023400001290CD1401EA88780B270B9A870012263
:102350004FF40041484600F013FE012405E001223D
:102360004FF40041484600F00BFEE88F70B1E97869
:1023700001290BD1401EE88780B260B9E8700122C4
:102380000821484600F0FCFD012404E00122082158
:10239000484600F0F5FDB5F8400070B129790129F3
:1023A0000BD1401EA5F8400080B258B92871012217
:1023B000484600F0E5FD012404E0012201214846E1
:1023C00000F0DEFD388870B1697901290BD1401E1B
:1023D000388080B260B9687101220221484600F05D
:1023E000CFFD012404E001220221484600F0C8FD8F
:1023F000788870B1A97901290BD1401E788080B20C
:1024000060B9A87101220421484600F0B9FD0124F9
:1024100004E001220421484600F0B2FDB88868B10A
:10242000E97901290AD1401EB88080B258B9E87113
:102430000122404600F0A4FD012404E00122012114
:10244000404600F09DFDB088042800F0B180F88877
:1024500070B1297A01290BD1401EF88080B260B991
:10246000287201220221404600F08AFD012404E086
:1024700001220221404600F083FD388970B1697A5B
:1024800001290BD1401E388180B260B968720122E7
:102490000421404600F074FD012404E001220421DF
:1024A000404600F06DFD788970B1A97A01290BD101
:1024B000401E788180B260B9A8720122082140468E
:1024C00000F05EFD012404E001220821404600F0F6
:1024D00057FDB88970B1E97A01290BD1401EB88146
:1024E00080B260B9E87201221021404600F048FD38
:1024F000012404E001221021404600F041FDF8894A
:1025000070B1297B01290BD1401EF88180B260B9DE
:10251000287301222021404600F032FD012404E00E
:1025200001222021404600F02BFD388A70B1697BE2
:1025300001290BD1401E388280B260B96873012234
:102540004021404600F01CFD012404E0012240210E
:10255000404600F015FD788A70B1A97B01290BD1A6
:10256000401E788280B260B9A87301228021404663
:1025700000F006FD012404E001228021404600F025
:10258000FFFCB88A78B1E97B01290CD1B88A401EDA
:10259000B88280B260B9E87301221021484600F089
:1025A000EFFC012404E001221021484600F0E8FC81
:1025B0002046BDE8F2830000000801400010014001
:1025C00038070020F8B53D4D0446688D40B14FF402
:1025D00000513B4800F0CDFC401E8041C00F00E0A0
:1025E00001206073688D012808DD4FF400413448F4
:1025F00000F0BFFC401E8041C00F00E0012060776A
:1026000004F12506688D2F4F022807DD802138460A
:1026100000F0AFFC401E8041C00F00E0012030728E
:102620004FF48051264D284600F0A3FC60714FF412
:102630008041284600F09DFC60754021384600F03E
:1026400098FC30704FF48071384600F092FC307482
:102650004FF40071384600F08CFC30760022231DC8
:102660005878002804BF197800290AD15860012041
:1026700018709040617801436170217808432070A0
:1026800016E0002804BF1978012903D15868401CBE
:1026900058600DE0012804BF1878012808D161783E
:1026A00090408143617021780843207000201870A9
:1026B000521C0833082AD3DBF1BD00003807002084
:1026C000000C01400010014080B50748016841F04E
:1026D00010010160032002F003FB002002F056FE0F
:1026E00002F074FE002002BD0020024080B50E48BA
:1026F000016841F0010101600022006800F0010062
:102700000090002100980D2002F0F7FA0D2002F051
:102710001DFB002200210F2002F0EFFABDE802406D
:102720000F2002F013BB00BF1410024080B5A54873
:10273000A54901604FF4E131416000218160C16031
:1027400001610C21416100218161C16100F024FE21
:1027500018B1BDE804404B2118E001BD80B59B488D
:102760009B4901604FF41651416000218160C160B6
:1027700001610C21416100218161C16100F00CFE09
:1027800018B1BDE804405E2100E001BD98A0FEF74D
:10279000D1BC000030B5044685B020688A49884223
:1027A00040D18C488C4D016841F4804101604FF468
:1027B0000071006800F480400490022204980091A7
:1027C0000320039001926946284600F00FFB4FF466
:1027D000806000210090019102912846694600F036
:1027E00005FB7E4D7E4800F128018020E8602960CD
:1027F00020200021A8616960A96029616961E961FF
:10280000284602F031FE20B15FF0890178A0FEF782
:1028100091FC65636C6200220421252002F06DFAB0
:10282000252044E06A49884243D16A486D4D416899
:1028300041F4802141604FF48061406800F48020C1
:1028400004900222049800910320039001926946AB
:10285000284600F0CBFA4FF400600021009001916F
:1028600002912846694600F0C1FA5C4D5C486864F4
:102870000020A864E8648020286500206865A865B9
:102880002020E8650020286605F1440002F0ECFDF8
:1028900018B1B72156A0FEF74DFC05F14400606366
:1028A000AC6600220321272002F027FA272002F03D
:1028B0004DFA05B030BD30B585B0AB248DF80200BF
:1028C0008DF80310100A8DF8040008258DF80520F6
:1028D0008DF806308DF800408DF8015005210DF17E
:1028E000020001F019FA8DF8070042F21073000A95
:1028F0008DF808000A220D208DF80900694631483C
:1029000000F079FD05B030BD0000000070B5364C18
:102910000D462178052942D8DFE801F003070C179E
:102920001B22AB283BD1012002E0C01E20710220F7
:10293000207036E0217D2279914204D2621D5054EC
:10294000491C21752DE00321217004212170207480
:1029500002E005212170E073207D401C207520E0FD
:102960000D281CD1E07B267C217946EA0026601DDB
:1029700001F0D2F9217D491C864221750FD12279BF
:10298000C9B2D01C814207D1611D284601F0D4FE96
:1029900000F009F8012070BD00F005F801E000F03A
:1029A00002F8002070BD10B50F4C00202075642186
:1029B0000E4802F055FF2046BDE810401121FEF7F9
:1029C000F7BB0000B808002000380140F8080020DC
:1029D000004800401810024000080140D0030020C9
:1029E00030000240000C01405809002084050020FE
:1029F000443A5C776F726B5C3138313132305C490C
:102A00004F545F4D43555F325F313830303931308C
:102A10005C494F545F57495245524553535C53727A
:102A2000635C75736172742E630000008F4810B58B
:102A30008F4C20601220606086B00020A0600920CA
:102A4000E060002020616061A061204600F06CFF22
:102A500018B143218DA0FEF76DFB4FF4805002901A
:102A600002A9204601F029F818B1492187A0FEF7F4
:102A700061FB0020009001906946204602F0F4FEC0
:102A800018B1502181A0FEF755FB06B010BD000023
:102A90004FF0804010B5774C20604FF4E1606060EB
:102AA00086B00020A0606320E06000202061A0616B
:102AB000204600F039FF20B15FF0620173A0FEF7FD
:102AC00039FB4FF48050029002A9204600F0F5FF38
:102AD00018B168216DA0FEF72DFB00200090019039
:102AE0006946204602F0C0FE18B16F2167A0FEF7CC
:102AF00021FB06B010BD00005F4810B55F4C2060A0
:102B00004FF4E160606086B00020A0600920E060C2
:102B100000202061A061204600F006FF18B181214D
:102B20005AA0FEF707FB4FF48050029002A92046FE
:102B300000F0C3FF18B1872154A0FEF7FBFA002074
:102B4000009001906946204602F08EFE18B18E2159
:102B50004EA0FEF7EFFA06B010BD0000484810B5D1
:102B6000484C2060B420606086B00020A06009203E
:102B7000E06000202061A061204600F0D5FE20B179
:102B80005FF0A00141A0FEF7D5FA4FF4805002900B
:102B900002A9204600F091FF18B1A6213BA0FEF744
:102BA000C9FA0020009001906946204602F05CFEC0
:102BB00018B1AD2135A0FEF7BDFA06B010BD80B545
:102BC00000682A49884210D12F48016841F4006109
:102BD00001600022006800F400600090002100986D
:102BE000192002F08AF819203AE0B0F1804F10D194
:102BF0002548416841F0010141600022406800F031
:102C000001000090002100981C2002F076F81C20A2
:102C100026E01949884210D11B48416841F0020161
:102C200041600022406800F00200009002210098FC
:102C30001D2002F062F81D2012E01149884213D1D4
:102C40001148416841F0080141600022406800F0ED
:102C50000800009005210098322002F04EF8322042
:102C6000BDE8024002F072B801BD0000002C014036
:102C7000B8070020F80700200004004038080020B2
:102C8000000C00407808002018100240443A5C779D
:102C90006F726B5C3138313132305C494F545F4D6B
:102CA00043555F325F313830303931305C494F54F1
:102CB0005F57495245524553535C5372635C746984
:102CC0006D2E630080B50948094901600221416009
:102CD00040F6C411816002F0EDFD30B1BDE8044062
:102CE0005FF03A0103A0FEF725BA01BD8409002078
:102CF00000300040443A5C776F726B5C31383131A0
:102D000032305C494F545F4D43555F325F3138304C
:102D1000303931305C494F545F5749524552455321
:102D2000535C5372635C697764672E630000000034
:102D300080B502F03BFEBDE8014002F09BBE10B53D
:102D4000274C3E212046FEF733FA40F616506080AD
:102D500004F10A010120A0802081E08003220420E8
:102D60000A804A808A80CA800831401EF8D1022039
:102D7000608510BDF8B51A4E3146002002F06EFF96
:102D800031880024002541F21917B94205D0FFF718
:102D9000D6FF378000F00EF80AE006EB4500811CF4
:102DA000681C80B202F05AFF6D1C1E2DF5DB012459
:102DB0002046F2BD70B541F21911002002F074FFF7
:102DC0000024084D084E36F8021B25F8021B601C33
:102DD00080B202F069FF641C1E2CF4DB70BD0000A1
:102DE000380700207A0700203A0700202DE9F84F25
:102DF0008346002086466FF01F08644A644BDFF864
:102E000094914FF00F0A01240F6804FA0EF6374030
:102E1000B74240F0A4804C683CB3012C1AD0022C7D
:102E20001DD0032C2ED0112C16D0122C1AD05A4D96
:102E3000AC421CBF594DAC4217D0594DAC421CBFDF
:102E4000584DAC4211D0584DAC421CBF574DAC420E
:102E50000BD018E0C86816E0C868001D13E0C86809
:102E6000083010E0C8680C300DE0886808B904200C
:102E700009E0012819BF0820CBF814600820CBF81E
:102E8000106000E00020B7F5807F39BFDC464FEAD4
:102E90008E040BF1040C44460AFA04F6DCF80050E8
:102EA000B54300FA04F42C43CCF800404C68E4002D
:102EB00055D5D9F8004044F00104C9F800404FEA64
:102EC0009E0CD9F8005005F001050095009C53F8C0
:102ED0002C6008F00C040AFA04F526EA0505344EC5
:102EE000B34508BF002618D0324EB34508BF0126AF
:102EF00013D0314EB34508BF02260ED02F4EB34536
:102F000008BF032609D02E4EB34508BF042604D0BF
:102F10002C4EB3450CBF0526062606FA04F42C43B6
:102F200043F82C404C68E40314684CBF3C43BC435A
:102F300014604C68A40354684CBF3C43BC435460C9
:102F40004C68E40294684CBF3C43BC4394604C68BA
:102F5000A402D4684CBF274324EA0707D7600EF1C8
:102F6000010EBEF10F0F08F104087FF64CAFBDE86B
:102F7000F18F80680140481E8041C043C00F7047F8
:102F800081B002B90904016101B070470004014039
:102F9000080001401810024000001110000012103B
:102FA000000021100000221000003110000032103B
:102FB00000080140000C01400010014000140140D5
:102FC00000180140001C0140002804D000BF00BFD1
:102FD000401E0028FAD1704710B5040004D00B2021
:102FE000FFF7F2FF641EFAD110BDE0B50FF2943185
:102FF0000FF2983584B0D1E9002302A8D5E9006723
:10300000C0E90023CDE900670221102000F00AF892
:1030100002A9002000F092F96946012000F08EF923
:1030200004B0E0BD70B505460E4600F04AF8BE4853
:10303000BE4CFFF7D1FF00206071A071012EC8BF08
:1030400008206070E6702571032000F06EF841F2F0
:1030500094152846FFF7C0FF032000F066F82846C5
:10306000FFF7BAFF032000F060F82846FFF7B4FF2F
:10307000022000F05AF86420FFF7AEFF607840F0BD
:10308000200000F040F86420FFF7A6FF0420207025
:1030900000F040F96420FFF79FFF012000F033F8B3
:1030A00040F6B830FFF798FF6420FFF795FF022045
:1030B000A070062000F027F8BDE8704042F21070C2
:1030C0008AE710B50022042199489A4CFFF758FF6F
:1030D000002208212046FFF753FF0022102120463E
:1030E000FFF74EFF002220212046FFF749FF002274
:1030F00040212046FFF744FF2046BDE81040002253
:103100008021FFF73DBF10B50446002202E010B554
:103110000446012204218648FFF732FF200900F00F
:1031200004F804F00F00BDE8104038B5044620074D
:10313000804D4CBF0122002280212846FFF720FF4E
:1031400060074CBF0122002240212846FFF718FFEC
:10315000A0074CBF0122002220212846FFF710FFC4
:10316000E0074CBF0122002210212846FFF708FF8C
:10317000012208212846FFF703FF7820FFF72CFFE4
:10318000002208212846FFF7FBFE78240B20FFF7DA
:103190001BFF641EFAD131BD0000000038B5634A40
:1031A0007CA3D5781C680094A94228BF00219171A6
:1031B00050711DF80110081840F08000C0B2FFF7F0
:1031C000A2FF31BDF8B51646FFF7E8FF71A7574DCE
:1031D00018E0FFF79CFF6879401C687111E00D282A
:1031E000F7D1A8793A680092EA78904228BF002087
:1031F00000216971A8711DF8000040F08000FFF700
:1032000082FF761C307860B369792879814212D3C5
:10321000002068713A68A8790092401CEA78C1B22F
:10322000914228BF0020A871C0B21DF8000040F0F4
:103230008000FFF768FF30780A28D0D168793B68B2
:10324000A9790093491CEB78CAB29A4228BF0021A1
:10325000A971C9B21DF80110081840F08000C0B271
:10326000CDE7E3BDF8B5344B304C1D781746227AD4
:1032700015434ED101232372FFF790FF45A618E0B6
:10328000FFF745FF6079401C607111E00D28F7D110
:103290003268A0790092E278904228BF0020002195
:1032A000A07161711DF8000040F08000FFF72BFF56
:1032B0007F1C387860B361792079814212D3002075
:1032C00060713268A0790092401CE278C1B29142EC
:1032D00028BF0020A071C0B21DF8000040F080009F
:1032E000FFF711FF38780A28D0D13368A1796079C7
:1032F0000093491CE378CAB29A4228BF0021A17109
:10330000C9B21DF80110081840F08000C0B2CDE726
:103310002072F1BD0549087840F00400FFE708700D
:1033200040F00800EFE60000A086010090090020B0
:1033300000140140000C01404C00002010B5C000FA
:1033400000F038000C4640F04000FFF7DCFE20782B
:10335000FFF7DDFE6078FFF7DAFEA078FFF7D7FE13
:10336000E078FFF7D4FE2079FFF7D1FE6079FFF710
:10337000CEFEA079FFF7CBFEE079FFE7BDE8104075
:10338000C5E600001F1111111111111F1F1F1F1F72
:103390001F1F1F1F0040145438B5040001D1012025
:1033A00032BD04F13805687820B900212970204623
:1033B000FFF7F0F9242068702068C16821F40051FB
:1033C000C160204600F03BFA2068016921F4904179
:1033D00001612068416921F02A01FFE7416120680D
:1033E000C16841F40051C16000206860202068700D
:1033F000A870002032BD2DE9F843054605F13806D6
:103400000F4670782028914650D1002F14BFB9F193
:10341000000F01204BD03078012847D001213170B6
:1034200021200021716070701C4602F015FDA5F886
:1034300024908046A5F8269002E017F8011B416011
:10344000E88CA8B1E98C481EE884A868B0F5805FD4
:103450002FD1286801680A063BD414F1010FF8D077
:10346000A4B102F0F9FCA0EB08008442F1D20DE017
:10347000286801684A0636D414F1010FF8D02CB13F
:1034800002F0EAFCA0EB08008442F1D22868C1688F
:1034900021F4D071C160286841694908490041613F
:1034A00020207070B0700020307022E00220BDE853
:1034B000F283286801680A06BFD414F1010FF8D01E
:1034C000002CE3D002F0C8FCA0EB08008442F0D24C
:1034D000DCE73988C1F3080141602869002814BF7E
:1034E0007F1CBF1CACE72021717000203070BDE84C
:1034F000F2830320BDE8F28338B5044604F13805B1
:103500001346A87820283ED109B1180001D1012026
:1035100032BD2878012836D001222A70A162A38505
:10352000002068602220A870626B0FF2B9109062D0
:10353000626B0FF2E910D062626B0FF2E910106358
:103540000020626B50630A462068011D606B01F029
:10355000D1FF00200090206801680091426800922D
:10356000002200992A70C26842F48072C26020680A
:10357000416941F0010141612068416941F0400128
:103580004161002032BD022032BD38B504462568B5
:103590002968EA686B6911F00F0007D1880660D5C9
:1035A00090065ED52046BDE83240FDE0D80702D443
:1035B00012F4907F55D0C80705D5D00503D5E06B30
:1035C00040F00100E063480705D5D80703D5E06B5C
:1035D00040F00200E063880705D5D80703D5E06B0B
:1035E00040F00400E063080705D5D80703D5E06B79
:1035F00040F00800E063E06B002871D0890604D534
:10360000900644BF204600F0CFF820684069E16B87
:103610000A0701D440061ED5204600F0B1F8206804
:1036200041694A0612D5416921F040014161606B50
:1036300060B10FF269114163606B01F0A5FF0028D2
:103640004ED0606B416BBDE8344008472046BDE872
:10365000324002F007BC204602F004FC0020E06388
:1036600031BD08062CD510062AD594F8390021283A
:1036700036D1A168206AB1F5805F0DD10188C1F310
:1036800008016960206918B9216A881C206207E076
:10369000206A411C216203E0411C216200786860BD
:1036A000E08C401EE08480B2D0B92068C16821F06F
:1036B0008001C1602068C16841F04001C16031BD36
:1036C00048060DD550060BD5E86820F04000E860AC
:1036D000202184F839102046BDE8324002F0C3BBF7
:1036E00031BD0000416A00680268930613D40020CF
:1036F000C8850868C26822F48072C260086842699E
:103700005208520042610868426922F04002426158
:10371000202081F83A000846FDF75EB9406A02F0C1
:10372000A3BB000018B4406A0268536900F1390174
:103730000C78212C09D11B0607D50023C384D3683C
:1037400023F0C003D36020220A70026853694C78CA
:10375000222C0ED15B060CD50023C385D36823F43D
:103760009073D360026853695B085B005361202249
:103770004A70C16B41F01001C16312BC02F072BB10
:103780000168CA6822F49072CA6001684A695208E6
:1037900052004A61202180F83A107047406A0021A7
:1037A000C185C18402F05EBB80B590F83A10222931
:1037B00043D18268B2F5805F14D1826A016941B950
:1037C00003685968C1F308011180826A911C816203
:1037D00018E001684B6803F0FF031380816A4A1CFC
:1037E00082620FE001690029816A04D14A1C826269
:1037F0000268536805E04A1C82620268536803F05D
:103800007F030B70C18D491EC18589B299B90168CA
:10381000CA6822F02002CA600168CA6822F4807275
:10382000CA6001684A69520852004A61202180F842
:103830003A10FDF7D1F8002002BD022002BD2DE9AB
:10384000F0470446642521680A69E06822F4405282
:1038500002430A611926CA6831480240A06802433F
:103860002069024360690243CA604A69A06922F480
:10387000407202432B484A6181420ED101F006FAA0
:10388000074601F003FA804601F000FA814601F094
:10389000FDF9824601F0FAF90DE001F0EFF9074673
:1038A00001F0ECF9804601F0E9F9814601F0E6F912
:1038B000824601F0E3F906FB09F961688900774364
:1038C000B7FBF1F206FB08F7B7FBF1F3B9FBF1F731
:1038D000B7FBF5F705FB17331B013233B3FBF5F3E9
:1038E000B2FBF5F203F0F00303EB021306FB0AF759
:1038F0004643B7FBF1F2B6FBF1F06421B0FBF1F007
:1039000005FB10252D0132356420B5FBF0F0216850
:1039100000F00F00C3188B60BDE8F08700000000C6
:10392000F3E9FFFF0038014038B5040001D1012060
:1039300032BD04F13C05687820B900212970204689
:10394000FFF73DF90AE00068C16841F00101C1607C
:10395000026842F001020260002070470220687095
:10396000211D206800F041F901206870002032BD5F
:1039700010B50446206801698A0716D5C1688A0710
:1039800013D56FF00202026101212177806910F0E6
:10399000030F204602D002F068FA04E002F066FA53
:1039A000204602F064FA00202077206801694A0767
:1039B00016D5C1684A0713D56FF0040202610221CF
:1039C0002177806910F4407F204602D002F04DFA42
:1039D00004E002F04BFA204602F049FA002020777A
:1039E000206801690A0716D5C1680A0713D56FF068
:1039F0000802026104212177C06910F0030F2046FC
:103A000002D002F032FA04E002F030FA204602F06E
:103A10002EFA0020207720680169CA0616D5C168F1
:103A2000CA0613D56FF01002026108212177C06920
:103A300010F4407F204602D002F017FA04E002F0B2
:103A400015FA204602F013FA002020772068016959
:103A5000CA0708D5C168CA0705D56FF0010202611F
:103A60002046FDF77FF9206801690A0608D5C1687C
:103A70000A0605D56FF080020261204602F0F8F9CF
:103A8000206801694A0608D5C1684A0605D56FF065
:103A900040020261204602F0ECF9206801698A06C2
:103AA0000AD5C1688A0607D56FF020020261204658
:103AB000BDE8104002F0DEB910BD70B5054605F155
:103AC0003C042078012801D1022070BD012222701F
:103AD000022060702A68DFF89401936803409360C5
:103AE000086800285FD0102864D0202869D03028CA
:103AF0006ED040284BD0502831D060283BD0702861
:103B00000BD0B0F5805F03D0B0F5005F16D066E053
:103B100028688168C908C90060E0C8684A682B68DD
:103B200089689E6826F47F4631430A4342EA0022B0
:103B30009A602868816841F077014FE0C8684A6858
:103B40002B6889689E6826F47F4631430A4342EA1F
:103B500000229A602868816841F480413EE0CA688A
:103B60004968286800F08EF82868816821F07001A3
:103B700041F0570132E0CA684968286800F094F8BB
:103B80002868816821F0700141F0670126E0CA6869
:103B90004968286800F076F82868816821F070018B
:103BA00041F047011AE02868816821F0700141F076
:103BB000070113E02868816821F0700141F01701C6
:103BC0000CE02868816821F0700141F0270105E0D0
:103BD0002868816821F0700141F03701816001207F
:103BE00060700020207070BD000018B4204B046885
:103BF00098421CBF1F4A90420BD0B0F1804F1CBFAF
:103C00001D4A904205D01D4A90421CBF1C4A90425A
:103C100010D14A6824F07004144398421CBF154A1E
:103C200090420AD0B0F1804F1FBF134A9042134A0E
:103C3000904202D0124A904203D1CA6824F44074E0
:103C400014434A6924F080041443046098428A684B
:103C5000C2620A68826219BF064A9042096901631A
:103C60000121416111BC7047000000008800FFFF86
:103C7000002C0140003401400004004000080040D6
:103C8000000C004010B4036A046A64086400046213
:103C900023F00A03846924F0F00444EA02148461E6
:103CA0001943016210BC7047036A23F010030362DA
:103CB0008369D0F820C023F4704343EA02332CF028
:103CC000A00C83614CEA011CC0F820C07047026858
:103CD000531C0360117070470CB430B583B00446B8
:103CE00006A802900A4600250194009502AB01A99E
:103CF000084878441E3002F0BFF801990D70002882
:103D00004EBF04460198041B204603B030BC5DF84A
:103D10000CFB00BFBBFFFFFF38B403460A004FF6A1
:103D2000FF7010D04AF201041A7850400822451062
:103D3000C00746BF84EA050080B2A8B2521EF6D181
:103D40005B1C491EF0D132BC7047BD4B60B5198970
:103D500000250A46012A99B007D1BB258DF80150EC
:103D6000AA218DF80010022504E019B9AB218DF8C5
:103D70000010012501260DF805606D1CEEB213211F
:103D80000DF806106D1C5988EEB26D1C0DF806106A
:103D9000EEB2090A0DF806106D1CD988EEB26D1C42
:103DA0000DF806106E1C9988EDB2052908BF032195
:103DB0000DF80510F3B241790DF80310761CC18897
:103DC000F3B2761C0DF80310F3B2C188090A0DF89E
:103DD0000310761CF1B200230DF80130761CF3B20B
:103DE00000210DF80310761C817AF3B2761C0DF8D1
:103DF0000310F3B2B0F80B100DF80310761CB0F8F6
:103E00000B10F3B2090A0DF80310761CB0F80D1070
:103E1000F3B2761C0DF80310F3B2B0F80D10090AD6
:103E20000DF80310761CB0F80F10F3B2761C0DF8E5
:103E30000310F1B2B0F80F00000A0DF801001021D4
:103E40000DEB0200C01CFFF767FF761CF1B2761C79
:103E50000DF80100F1B2000A0DF80100761CF1B274
:103E60000D200DF80100761C42F21073F2B2694683
:103E70007448FFF7C0FA19B060BD0000F8B5704A89
:103E80000D4611890026012918BF002940F0C58080
:103E90006D4C2178092900F2BE80DFE801F00510A1
:103EA0001A2F39485B67717A132840F0B4800120DB
:103EB00020701020A071132064494870ADE0634960
:103EC000A4F801000A78A318521CD8710A700220C5
:103ED00012E0B4F8011041EA0021A4F801105B4996
:103EE0000B78E518E871B4F801005288904240F070
:103EF00092805B1C0B70032020708EE0D288904271
:103F000040F0898004212170E07050490A7826E051
:103F10009188032808BF052903D0884218BF642868
:103F200079D105212170207148490A7817E02128AC
:103F300018BF012808D0022818BF132804D003286E
:103F40001CBF0428052866D10621217060713F49F5
:103F50000A7804E03D49A3790A789A4204D2A3186A
:103F6000521CD8710A7058E0072121700821217075
:103F700004F58371487035480278521C02704CE099
:103F800084F806010921217030480178491C01702C
:103F900043E00D283FD104F583700178477847EA64
:103FA0000127A179E01DFFF7B7FE28490A78521CC6
:103FB00087420A702FD1D2B2132A29D16079012801
:103FC00008BF012620D0022806D11022E11D284674
:103FD00000F0B2FB022617E0032806D11022E11DF3
:103FE000284600F0A9FB03260EE0132808BF13267D
:103FF0000AD0212808BF212606D0042808BF04269D
:1040000002D0052808BF052600F009F83046F2BDA9
:1040100000F005F801E000F002F80020F2BD10B554
:10402000094C0A490020207008706421084801F0FA
:1040300017FC2046BDE810404FF48471FDF7B8B876
:1040400038070020F8080020200100206D0900201A
:10405000580400201CB5DFF89C048088012804D196
:10406000DFF894440FF2B4411AE0022804D1DFF8DB
:1040700088440FF2BC4113E0032804D1DFF87844F0
:104080000FF2C0410CE0042804D1DFF86C440FF2B9
:10409000C84105E005280ED1DFF85C440FF2CC41A1
:1040A0002046FFF719FE224602B0BDE8104000216D
:1040B0000020FFF7D7B813BD38B5DFF840544FF4F0
:1040C00080612846FEF755FFDFF83444B8B92079FF
:1040D00090B9207B411C642821730DDB00202072E5
:1040E0002073012020712074DFF81814DFF81824E1
:1040F00008700221117014E00120207211E0207A72
:1041000001280CD10021217201212078DFF8F4234D
:10411000401C207011700220DFF8EC231070002189
:1041200021734FF400612846FEF723FFB0B9607990
:1041300088B9607B411C642861730CDB00206072CD
:1041400060730120DFF8BC13DFF8BC2360710870D6
:104150000221117014E00120607211E0607A0128E0
:104160000CD10021617201216078DFF89C23401C92
:104170006070DFF8900301700220107000216173FD
:104180004FF480512846FEF7F4FEB0B9A07988B903
:10419000A07B411C6428A1730CDB0020A072A073DB
:1041A0000120DFF86013DFF86023A071087002219E
:1041B000117031BD0120A07231BDA07A01280CD14F
:1041C0000021A1720121A078DFF83C23401CA070DF
:1041D000DFF830030170022010700021A17331BD9F
:1041E000F8B5DFF81C43A08A10B1A18A481E3CE054
:1041F000227C012A74D14FF48061DFF80003FEF7BE
:10420000B8FE012804BF607C002815D14FF49670D9
:1042100002F0FEFD012060740020207120706178A2
:10422000002904BF6079002821D0A17C491CA17419
:1042300000206070607126E0207948B1617C01291E
:1042400006D10020207120746074A07414200CE04A
:1042500020780028E3D0617C0129E0D10020207083
:1042600002202074002060740520A082F1BDA17896
:10427000002904BFA079002805D0A17C481EA074A5
:104280000020A070A071A07C02281EDA0121A17478
:1042900000209E49984D08702846A27C0FF2F42118
:1042A000FFF71AFD00F0E6F82A4600210020FEF78D
:1042B00089FF9048A17C30F81120954D0FF2DC2148
:1042C0002846FFF709FD2A46CDE0A07C1628DFDB53
:1042D000002121740020A07460742071207035E0EA
:1042E000217C022940F0C580844E4FF48061304625
:1042F000FEF73FFE012804BF607C002807D10221A1
:10430000A18201206074002020712070F1BD20780E
:1043100040B3617C012925D1002020702071607498
:1043200001202074FEF746FD0220A082002060706C
:104330006071A070A071A07C401CA074A07C1628A5
:10434000C0F29780002121740020A0746F4908708A
:10435000FFF780FE8AA16E48FFF7BEFC6D49012081
:104360000870F1BD4FF400613046FEF702FE0128EF
:10437000604D03D10020607160732DE0A17C6079F5
:10438000491EC9B2D0B100226270E08A421C0228E4
:10439000E28221DD0020E08205EB410004EB4101D7
:1043A00042880F8B0A37BA42BCBF0A324280428829
:1043B0000B8B9A4210D3098B41800DE0607858B185
:1043C0000022627005EB410004EB410142880B8B37
:1043D0009A423CBF521C42804FF480513046FEF757
:1043E000C8FD012803D10020A071A07323E0A079AB
:1043F00098B10021A170E08A411C0228E1821ADDF7
:104400000020E082A07C35F810100A2913DBA07C84
:1044100035F81010A1F10A020BE0A07858B1002184
:10442000A170A17C35F8110028B1A07C35F81010DE
:104430004A1E25F8102035492F4E002008703046BE
:1044400094F812205AA1FFF747FC324600210020C1
:10445000FEF7B8FEA07C35F810202D4E59A130464D
:10446000FFF73AFC3246BDE8F84001210020FEF794
:10447000A9BEF1BD2248817C491E142936D8DFE847
:1044800001F00B0D0F11131517191B1D1F212325EB
:1044900027292B2D2F3133004FA128E052A126E0F0
:1044A00055A124E058A122E05BA120E05EA11EE01E
:1044B00061A11CE064A11AE067A118E06AA116E0FE
:1044C0006DA114E070A112E073A110E076A10EE0DE
:1044D00079A10CE07CA10AE07FA108E082A106E0BE
:1044E00085A104E088A102E08BA100E08EA10A482A
:1044F000FFF7F2BB38070020A8030020001001409E
:104500003C0000201D0300201E0300201C0300208F
:10451000BC03002014030020AB030020494F5420AB
:104520005246203136434820202020200000000041
:10453000494F542052462038434820202020202034
:1045400000000000494F542052462050454E444937
:104550004E47202000000000494F5420524620437F
:104560004849434B2020202020200000494F542060
:1045700052462050454E4420384348200000000059
:10458000202020202020202020202020202020202B
:1045900000000000253032643E00000020205661FB
:1045A0006C7565203A20253033642020000000001F
:1045B000205365742056616C75653A25303264204D
:1045C00020200000202056616C7565203A2025309F
:1045D00033642020200000004661726D20436F6428
:1045E0006520202020000000446576696365205422
:1045F0007970652020000000524620416464726595
:1046000073732020200000005246205479706520EA
:1046100020202020200000004F7574312053656356
:104620006F6E6420200000004F7574322053656364
:104630006F6E6420200000004F7574332053656353
:104640006F6E6420200000004F7574342053656342
:104650006F6E6420200000004F7574352053656331
:104660006F6E6420200000004F7574362053656320
:104670006F6E6420200000004F757437205365630F
:104680006F6E6420200000004F75743820536563FE
:104690006F6E6420200000004F75743920536563ED
:1046A0006F6E6420200000004F7574313020536518
:1046B000636F6E64200000004F75743131205365C4
:1046C000636F6E64200000004F75743132205365B3
:1046D000636F6E64200000004F75743133205365A2
:1046E000636F6E64200000004F7574313420536591
:1046F000636F6E64200000004F7574313520536580
:10470000636F6E64200000004F757431362053656E
:10471000636F6E64200000004D6F76696E67204302
:104720006F756E742020000023232323232323236B
:10473000232323202000000062B38B0708D0521EE1
:1047400011F8013B00F8013B00F024808B07F6D103
:10475000830740F0208000BF103A07D330B4B1E89F
:104760003810103AA0E83810F9D230BC530724BFF3
:10477000B1E80810A0E8081044BF51F8043B40F825
:10478000043BD20724BF31F8022B20F8022B44BF90
:104790000B7803707047121F17D35B0009D151F8D3
:1047A000043B20F8023B1B0C121F20F8023BF6D200
:1047B0000BE051F8043B00F8013B1B0A20F8023BD8
:1047C0001B0C121F00F8013BF3D238BF121D521E02
:1047D00024BF11F8013B00F8013BF8D870470000F6
:1047E0002DE9FC410546DFF8B8642878C10740F19F
:1047F000DD80706800F00C00042807D0706800F0BD
:104800000C0008280DD17068C1030AD531688803EF
:1048100040F1CC806868002840F0C8800120BDE8E5
:10482000F6816868B0F5803F0FD038B9316821F45F
:1048300080313160306820F4802009E0B0F5A02F8D
:10484000316807D141F480213160306840F4803014
:10485000306006E021F480313160326822F4802239
:104860003260686870B101F0F7FA04463168880375
:1048700000F19C8001F0F0FA001B6528F6D30320BC
:10488000BDE8F68101F0E8FA04463068810340F1A2
:104890008D8001F0E1FA001B6528F6D3EFE701F007
:1048A000DBFA001B022840F2AE80E8E72869DFF857
:1048B000FC1370B101220A6001F0CEFA04463068A0
:1048C000810700F1DA8001F0C7FA001B0228F6D94F
:1048D000D5E7086001F0C0FA04463068810740F16E
:1048E000848001F0B9FA001B0228F6D9C7E70860F6
:1048F00001F0B2FA0446706A810740F1978001F036
:10490000ABFA001B0228F6D9B9E708B9306A09E00A
:104910000528306A06D140F004003062306A40F069
:10492000010005E0400840003062306A20F00400D9
:104930003062E86870B101F08FFA074641F28938B9
:10494000306A810700F1A98001F086FAC01B40455A
:10495000F6D394E701F080FA074641F28938306ACD
:10496000810740F19A8001F077FAC01B4045F6D3E9
:1049700085E701F071FAC01B022840F2A4807EE7AF
:1049800001F06AFA401B022840F2B88077E7002065
:10499000206601F061FA04463068810140F1B2807E
:1049A00001F05AFA001B0228F6D968E72878810737
:1049B0001BD5706810F00C0F09D0706800F00C0067
:1049C00008287FF473AF7068C1033FF56FAF31689B
:1049D000880703D5286901287FF420AF316868690A
:1049E00021F0F80141EAC0013160297808071DD59E
:1049F000A869DFF8BC1200283FF479AF01220A60F1
:104A000001F02AFA0446706A81077FF548AFDFF8A3
:104A100094120868C0084FF47A72B0FBF2F2009268
:104A200000BF0098411E00280091F9D12878410765
:104A300038D5F0690024C10009D4F06940F08050F5
:104A4000F0610124F06900F0805000900098DFF8D8
:104A500064723968C80518D4386840F480703860CA
:104A600001F0FAF980463968C8050ED401F0F4F96E
:104A7000A0EB08006528F6D301E73068696920F0EB
:104A8000F80040EAC1003060AFE7E86801287FF431
:104A90003CAF306A40F001004AE71CB1F06920F0F9
:104AA0008050F061E86968B3716801F00C01082971
:104AB0003FF4B4AE02287D4C7FF469AF002020663D
:104AC00001F0CAF90746306881013FF552AF286A04
:104AD000B0F5803F05D17168A86821F40031014329
:104AE00071607168286A21F474110143686A014396
:104AF00071600120206601F0AFF905463068810140
:104B00007FF53EAF0020BDE8F6812DE9F0416A4F08
:104B100005463868884600F00700404509D23968E4
:104B2000C90848EAC1013960386800F0070040450B
:104B300076D129785A4C880705D56168A86821F094
:104B4000F001014361602878C1075AD568680128DF
:104B500002D121688A0303E0022803D121688A0177
:104B600003D45DE0226891075AD56168890840EA5C
:104B70008100606001F070F90646686801280ED176
:104B8000606800F00C0004283BD001F065F9801B40
:104B900041F289318842F3D30320BDE8F081022835
:104BA00041D1606800F00C0008282AD001F054F9C7
:104BB000801B41F289318842F3D3EDE72878410721
:104BC00005D56168E86821F4E061014361602878F7
:104BD000010706D56068296920F4605040EAC100E9
:104BE000606000F02DF862683449C2F30312895CFA
:104BF0002C4AC8401060002000F0C8FB0020BDE82F
:104C0000F081386800F007008045D7D23968C908BC
:104C100048EAC1013960386800F007004045CDD04E
:104C20000120BDE8F081606810F00C0FE9D001F0C0
:104C300013F9801B41F289318842F4D3ACE70000BC
:104C40001F490A6802F00C00082812D11FA3C2F302
:104C50008340D203185C09D50A6813491FA348434F
:104C6000C2F34041595CB0FBF1F07047154948432D
:104C700070470D4870470B48006870470948104A54
:104C8000006813681049C3F3022206E005480C4A85
:104C9000006813680C49C3F3C222895CC84070479E
:104CA000001002409C00002000127A0000004242E6
:104CB000800442420070004000200240A4780008B6
:104CC0000410024000093D008C790008020304052D
:104CD000060708090A0B0C0D0E0F10100102000048
:104CE0002F4A13684FF6FF0100020B4000F4E0600A
:104CF00018432C4908431060704738B4284B1C688F
:104D0000C4F30223C3F10704052C28BF04241D1D8E
:104D1000072D34BF0023DB1E012505FA04F4641EB1
:104D20002140994005FA03F35B1E1A401143090123
:104D3000020007D51C4A00F00F00104400F8041CC4
:104D400031BC7047194B195431BC7047012200F037
:104D50001F01174BFFE78A40400943F820207047A6
:104D6000401EB0F1807F01D3012070471149124AE3
:104D70004860F020107000228A6007200860002040
:104D8000704704280B4904D1086840F0040008600B
:104D900070470A6822F004020A60704700000000B1
:104DA0000CED00E00000FA0518ED00E000E400E082
:104DB00000E100E010E000E023ED00E000F000B8CA
:104DC00070470000014648B1B0FA80F18840C91C24
:104DD000C1F58461090501EBD02140057047000051
:104DE000F0B540F2FF7581EA030C0CF0004C15EAB7
:104DF00011541DBF15EA1357AC42AF42E5E0BC4168
:104E0000C1F31301C3F31303801A994143F48013D0
:104E100004D2641E4000494180185941C90241EA48
:104E20005051B1FBF3F603FB1611A2FB0675D7EB4D
:104E3000C020A94102D2761E80185941C90241EA18
:104E40005051B1FBF3FE03FB1E11A2FB0E75D7EB15
:104E5000C020A94103D2AEF1010E80185941890248
:104E600041EA9051760546EA8E2EB1FBF3F603FB3C
:104E70001611A2FB0675D7EB8020A94102D2761E3F
:104E800080185941C90241EA50514EEA060EB1FB61
:104E9000F3F603FB1611A2FB0675D7EBC020A94160
:104EA00002D2761E80185941C90241EA5051B1FB25
:104EB000F3F703FB1711A2FB0735D3EBC020A94181
:104EC00067F100070CBF004247F0010766F3D527E2
:104ED0004FEA1E31B80814F5806412DDBD0775F184
:104EE000004250EB0E5051EB045111F5801F5CBF96
:104EF00041EA0C01F0BD4CF07F6141F0E04100203F
:104F0000F0BDBD076D0840EA0E5041F48011D4F1A8
:104F10000104B4F120060ADAC4F120060200E040E0
:104F200001FA06F3E1401843B24015430EE0342C79
:104F300013DCC6F1200445EA40056D0820FA06F2AC
:104F4000154321FA06F0A1400D43002175F10042FE
:104F500050F1000051EB0C01F0BD00205FEA0C01A4
:104F6000F0BDCFB992185B41B3FA83F704BFB2FA30
:104F700082F6BF190B3FB7F120062FBF02FA06F3E6
:104F8000BB40C7F1200622FA06F638BF3343BA40C9
:104F90001CB1E419641E33E77F4231F00041B1FADD
:104FA00081F404BFB0FA80F6A4190B3CB4F12006DA
:104FB0002FBF00FA06F1A140C4F1200620FA06F640
:104FC00038BF3143A0403C1B1AE7AC421ABF05EA88
:104FD0001357AF4212E050EA41061CBF52EA4306A3
:104FE000BFE750EA4107304661461CBF41EA055120
:104FF000F0BD52EA430C08BFC143F0BD00204FF49E
:10500000001616EB410F98BF16EB430F08BF16EBC7
:10501000410F24BFC14305E016EB430F0CBF6146AF
:105020004CEA0551F0BD0000B0B581EA030C0CF06C
:10503000004C40F2FF7515EA11541DBF15EA1357D5
:10504000AC42AF4239E0E41923EA455343F48013FC
:10505000C90241F0004141EA505EC7021100A7FBBE
:10506000020200284FF00000EEFB01204FF000018B
:10507000E3FB072118BF42F001024018002149411B
:10508000E3FB0E01A4F580640F0302D252004041FD
:10509000494154F101046CDD470872F1004250F1BE
:1050A000000051EB0451A1F580115CBF41EA0C01F5
:1050B000B0BD4CEA05510020B0BD05EA1357AC4223
:1050C00014BFAF4241E050EA410E1CBF52EA430E0A
:1050D00002E061460020B0BD24423C441BD15FEA9F
:1050E000070EF6D0090302BF01460020AEF1140EF0
:1050F000B1FA81F7AEEB070401FA07FE0C37C7F1EE
:10510000200100FA07F7C8404EEA000E23EA455393
:1051100043F48013A2E733F00043B3FA83F704BFEC
:10512000B2FA82FE77440B3FE41BB7F1200E2FBF8B
:1051300002FA0EF3BB40C7F1200E22FA0EFE38BF72
:1051400043EA0E03BA40641C82E750EA410E14BFE2
:1051500052EA430E6FF000014FF4001717EB430FB4
:105160008ABF194617EB410FB5E74CEA05510020FD
:10517000B0BDD4F10104B4F120070FDAC4F1200767
:10518000520828BF42F0010210FA07F501FA07F7AA
:10519000E1BF2A43E0403843E1400FE0352C98DC82
:1051A000C7F1200452EA400220FA07F218BF42F089
:1051B000010231FA07F0A1400A43002172F10042D6
:1051C00050F1000051EB0C01B0BD0000C1F30A53D7
:1051D00040F2FE329B1A14DDD3F120034FEAE17254
:1051E00008DDC90241EA505141F00040D840801822
:1051F0005040704703F2E13010B1D24382F00040DA
:10520000704700207047000038B53B4C20780528D7
:1052100067D8DFE800F0030D151C333BA0780128A8
:105220005FD100210120A170A1602070E07058E0E2
:10523000002220213148FDF7A3FE0222227050E017
:10524000012220212D48FDF79BFE03201CE02C4D60
:10525000002202212846FDF793FE04202070E0780A
:1052600000283ED00021E17028460121FDF781FE93
:10527000E060E16860788140A16017E001220221CE
:105280001F48FDF77DFE052020702AE01C4D0121FE
:105290002846FDF76EFEE060E2686078A168824013
:1052A00011431828A16004DA03212170401C6070AA
:1052B00017E0002202212846FDF762FE0020607000
:1052C0001049A06820F07F40A0600A68824206D0A2
:1052D00008600D4900F01CF80C49012008700021FD
:1052E0002170A088401C81B2B1F57A7F02DB0121D8
:1052F0000020A170A08031BD740900200010014081
:10530000000C0140A4090020FC0200202C02002017
:10531000F8B48DF80000020A000C8DF801208DF819
:1053200002006A460320012300240C70157803FA5A
:1053300004F6354206D00E78C4F1070703FA07F7E2
:105340003E430E70641C082CF1DB521C491C401EAD
:10535000EAD1F1BC7047000000B500BF13009646CB
:105360009446103928BFA0E80C50FAD85FEA417C77
:1053700028BF0CC048BF40F8042BC90728BF20F83D
:10538000022B48BF00F8012B00BD000038B50D4DC1
:105390000D4A297804464FF47A70B0FBF1F1106899
:1053A000B0FBF1F0FFF7DCFC50B9102C08D2002262
:1053B00021464FF0FF30FFF7A0FCAC60002032BD6B
:1053C000012032BD900000209C00002080B52448C0
:1053D000016841F001010160026802F001020092DF
:1053E0000099416841F080514160406800F0805070
:1053F000009000980320FFF773FC002200216FF05B
:105400000B00FFF77AFC002200216FF00A00FFF783
:1054100074FC002200216FF00900FFF76EFC0022EF
:1054200000216FF00400FFF768FC002200216FF0FC
:105430000300FFF762FC002200216FF00100FFF77C
:105440005CFC002200214FF0FF30FFF756FC0548BE
:10545000016821F0E06141F00071016001BD00BF11
:10546000181002400400014030B410B930BC0120D3
:1054700070470268DFF8A4138A4200F128030AD2B9
:10548000DFF89C138C181425B4FBF5F4A4009C6180
:10549000DFF8901309E0DFF890138C181425B4FBA3
:1054A000F5F4A4009C61DFF884135961022180F8AF
:1054B0002110146841686FF30D140C4381680C438C
:1054C000C1680C4301690C4341690C4381690C4379
:1054D000C1690C4314600021196059609960D9605A
:1054E0001961012180F82110002180F8201000208E
:1054F00030BC7047F0B490F820500024012D08BF54
:1055000002203FD090F821500126012D80F8206024
:1055100034D1022680F8216000F12C06F460056881
:105520002F687F087F002F6001277569AF403569BC
:105530006F6007687B604368102B04D10568AA6020
:105540000268D16003E0036899600568EA60026858
:10555000316821B1136843F00E03136008E011684D
:1055600021F00401116001680A6842F00A020A6031
:105570000068016841F00101016002E080F820400C
:1055800002242046F0BC70471CB590F8211000247E
:10559000022904D0343004224260012463E001680F
:1055A0000A6822F00E020A600168DFF884220B68A4
:1055B0005B085B000B60016891421DD9DFF85C223B
:1055C000914208BF012114D0DFF86822914208BF40
:1055D00010210ED0DFF86022914208BF4FF4807195
:1055E00007D0DFF8582291420CBF4FF480514FF49E
:1055F0008031DFF84C222DE0DFF84832994221D08B
:10560000DFF8443299421FD0DFF8403299421DD072
:10561000DFF83C32994208BF4FF4805118D0DFF8D0
:10562000343299420BD0DFF83032994208BF4FF440
:1056300080110DD0914208BF4FF0807108D04FF417
:10564000803105E0012103E0102101E04FF4807179
:10565000DFF808221160012180F8211080F8204035
:10566000416B01B18847204616BD78B400F128028D
:10567000042651690B6801680C689569AE40334295
:1056800052D0660750D50B689C0603D40C6824F0F2
:1056900004040C600168664B994218D95F4B99422B
:1056A00008BF042111D0634B994208BF40210CD0A0
:1056B000614B994208BF4FF4806106D05F4B99421D
:1056C0000CBF4FF480414FF480215D4B26E05D4CD0
:1056D000A1421CD05C4CA1421BD05C4CA1421AD010
:1056E0005B4CA14208BF4FF4804116D0594CA142F7
:1056F0000AD0594CA14208BF4FF480010DD0994205
:1057000008BF4FF0806108D04FF4802105E00421EC
:1057100003E0402101E04FF48061504B1960516873
:10572000002978D074BC08470226AE40334257D0D7
:10573000A60755D50B689C0606D40C6824F00A040D
:105740000C60012180F82110036839498B4218D977
:1057500032498B4208BF022111D036498B4208BF23
:1057600020210CD034498B4208BF4FF4007106D081
:1057700032498B420CBF4FF400514FF40031304B93
:1057800026E0304CA3421CD02F4CA3421BD02F4C00
:10579000A3421AD02E4CA34208BF4FF4005116D09A
:1057A0002C4CA3420AD02C4CA34208BF4FF400114A
:1057B0000DD08B4208BF4FF0007108D04FF400317C
:1057C00005E0022103E0202101E04FF40071234BAA
:1057D0001960002180F820101168E1B174BC0847FD
:1057E000082606FA05F52B4215D0230713D50B68BA
:1057F00023F00E030B60012491698C4051694C60C9
:1058000001230021136180F8201080F82130916875
:1058100009B174BC084771BC70470000080402401D
:10582000F8FFFDBF00000240F8FBFDBF000402408E
:10583000800002401C040240300402404404024044
:1058400004040240080002401C00024030000240F4
:1058500044000240580002406C0002400400024034
:10586000002201F0E9BA000030B400F13C031A78DC
:10587000012A08BF02201BD001241C7002225A708A
:105880000268546824F070045460046865680A680B
:10589000154365600268946824F08004946002688F
:1058A0009468486804439460012058700020187080
:1058B00030BC704738B5040001D1012032BD2068EA
:1058C0004CF6CC41016045F2555101606168416080
:1058D000A168816000F0C0FA05462168C86830B14F
:1058E00000F0BAFA401B3128F7D3032032BD4AF644
:1058F000AA200860002032BD2DE9F84F584E04461A
:10590000307E01280F469046994608BF02204BD0B2
:10591000012131764CF2503A504600F055F8010022
:1059200040D1012C1CBF022C0424384600254D4FC9
:1059300000900020F0614046796841F001017960F3
:105940002A01494601F0A8FA009901EB45010880B7
:1059500000F082FA83463868C1070BD500F07CFA64
:10596000A0EB0B005045F6D9032012E000F054F8EC
:1059700001200EE03868810644BF20213960386874
:10598000C106F3D43869C107F0D439684807EDD4AB
:1059900000207968490849007960010002D16D1C36
:1059A000A542C6DB00213176BDE8F28F2E49CA68D8
:1059B0000020130607D52D4B2D4A0B600A60C968DD
:1059C0000A0648BF0120704770B5044600F044FA4B
:1059D0000646244D2868C1070CD514F1010FF9D0F3
:1059E00024B100F039FA801B8442F3D2032070BD49
:1059F000002070BD2868810644BF202129602868E6
:105A0000C10605D42869C10702D429684807EFD523
:105A100000F002F8012070BD124802680021D30690
:105A200005D50F49CA6942F00202CA611021026815
:105A3000530706D50A4AD36943F00103D36141F005
:105A400004010269D30708D5054AD36943F004036A
:105A5000D361026952085200026101607047000080
:105A6000380900200C200240042002402301674531
:105A7000AB89EFCD2DE9F84785B00020DFF8BC6396
:105A8000DFF8BC5300900022318828880192B0468C
:105A9000012200294FF0FF39CDF80C8004927CD010
:105AA0004EF6EE6291422AD04FF6FF72914240F0DC
:105AB000BC8050B9404600F0C0F820B9694601A842
:105AC00001F0FAF900B90020B4E04EF6EE61884228
:105AD00012D1404600F0B1F828B9694601A801F09A
