:020000040800F2
:10000000100E0020AD9700081596000817960008FE
:10001000199600081B9600081D96000800000000B5
:100020000000000000000000000000001F96000813
:10003000219600080000000023960008259600087D
:10004000D7970008DB970008DF970008E3970008C0
:10005000E7970008EB970008EF970008F397000870
:10006000F7970008FB970008FF970008039800081F
:1000700007980008339600080B9800083996000886
:100080000F98000813980008179800081B9800089C
:100090001F98000823980008279800082B9800084C
:1000A0002F9800083F9600083398000837980008FA
:1000B000459600084B9600083B9800083F980008BA
:1000C00043980008479800084B9800084F9800088C
:1000D0005398000851960008579800085796000852
:1000E0005B9800085F98000863980008679800080C
:1000F0006B9800086F9800087398000877980008BC
:100100007B9800087F9800085D9600088398000897
:10011000879800088B9800088F980008939800082B
:10012000979800089B9800089F980008A3980008DB
:100130002DE9F8415D485E4C5E4D5F4EDFF87C81F5
:1001400085B0016841F0100101604EF21F0702689E
:1001500002F0100204920499016841F0200101604C
:10016000026802F0200204920499016841F004013F
:100170000160026802F004020492012204990168FD
:1001800041F0080101603946006800F00800049061
:100190000498204602F0C3F80122FF21284602F00D
:1001A000BEF800222021204602F0B9F800224FF4C8
:1001B000FD71304602F0B3F800224FF41941284691
:1001C00002F0ADF800220421404602F0A8F8012216
:1001D0004FF40071304602F0A2F800970120019020
:1001E00000210220029103906946204601F05CFF45
:1001F00049F6FF1001210090019100200221029098
:1002000003912846694601F04FFF2020012100900C
:10021000019100200321029003912046694601F0DC
:1002200043FF012000210090019102906946304671
:1002300001F03AFF40F2FA300121009001910020D4
:100240000221029003913046694601F02DFF4FF2E2
:10025000040000210090019102913046694601F0AE
:1002600023FF4FF4707000210090019102916946C4
:10027000204601F019FF4FF4E050009000210120CA
:10028000019102906946204601F00EFF04200121F1
:10029000009001910020022102900391404669469E
:1002A00001F002FF06B0BDE8F08100001810024026
:1002B0000010014000080140000C01400014014002
:1002C0002DE9F84300240546100005F14206DFF849
:1002D000289BDFF8288B40F07585DFF8247BB988F0
:1002E0002878032940F09E80002814BF00220122B4
:1002F0004FF40051404602F012F86878002814BF0D
:10030000002201224FF48041404602F008F8A8780C
:10031000002814BF012200224FF40041404601F0A2
:10032000FEFFE878002814BF002201220821404681
:1003300001F0F5FF2879002819BF002201210122D0
:100340000121404601F0EBFF6879002814BF00222C
:1003500001220221404601F0E2FFA879002814BFE3
:10036000012200220421404601F0D9FFE87900284B
:1003700019BF0022012101220121484601F0CFFFCF
:10038000287A002814BF002201220221484601F0E9
:10039000C6FF687A002814BF0022012204214846C3
:1003A00001F0BDFFA87A002814BF01220022082115
:1003B000484601F0B4FFE87A002814BF0022012269
:1003C0001021484601F0ABFF287B002814BF002213
:1003D00001222021484601F0A2FF687B002814BFBB
:1003E000002201224021484601F099FFA87B012804
:1003F00003D100228021484605E0E87B012804D192
:1004000000221021404601F08AFFA87B20B901227A
:100410008021484601F083FFE87B002841F0BF853A
:1004200001F0B8BD05294DD1002814BF00220122DA
:100430004FF40051404601F072FF6878002814BF65
:10044000002201224FF48041404601F068FFA87865
:10045000002814BF002201224FF40041404601F061
:100460005EFFE878002814BF0022012208214046E0
:1004700001F055FF2879002819BF0022012101222F
:100480000121404601F04BFF6879002814BF00228B
:1004900001220221404601F042FFA879002814BF42
:1004A000002201220421404601F039FFE87920B101
:1004B00000220121484601F070BD01220121484679
:1004C00001F06BBD022940F0D381B98D002900F005
:1004D000E680012803D100224FF4005105E068783E
:1004E000012805D100224FF48041404601F017FF5A
:1004F000287828B901224FF40051404601F00FFF3F
:10050000687828B901224FF48041404601F007FF86
:10051000A878012803D100224FF4004104E0E878D4
:10052000012804D100220821404601F0F8FEA878F5
:1005300028B901224FF40041404601F0F0FEE8786E
:1005400020B901220821404601F0E9FE287901285E
:1005500002D10022012104E06879012804D100229F
:100560000221404601F0DBFE287920B90122012159
:10057000404601F0D4FE687920B9012202214046AC
:1005800001F0CDFEA879012803D1002204214046C4
:1005900005E0E879012804D100220121484601F054
:1005A000BEFEA87920B901220421404601F0B7FE21
:1005B000E87920B901220121484601F0B0FE287AED
:1005C000012802D10022022104E0687A012804D126
:1005D00000220421484601F0A2FE287A20B9012217
:1005E0000221484601F09BFE687A20B901220421CD
:1005F000484601F094FEA87A012802D10022082181
:1006000004E0E87A012804D100221021484601F0D4
:1006100086FEA87A20B901220821484601F07FFE13
:10062000E87A20B901221021484601F078FE287BA3
:10063000012802D10022202104E0687B012804D196
:1006400000224021484601F06AFE287B20B90122A1
:100650002021484601F063FE687B20B90122402139
:10066000484601F05CFEA87B012803D100228021CE
:10067000484605E0E87B012804D1002210214046CD
:1006800001F04DFEA87B20B901228021484601F0EF
:1006900046FEE87B002841F0828401F07BBC012803
:1006A00003D100224FF4804105E06878012805D18C
:1006B00000224FF40051404601F031FE287828B95D
:1006C00001224FF48041404601F029FE687828B9A4
:1006D00001224FF40051404601F021FEA878012884
:1006E00002D10022082105E0E878012805D1002286
:1006F0004FF40041404601F012FEA87820B90122D3
:100700000821404601F00BFEE87828B901224FF499
:100710000041404601F003FE2879012802D1002261
:10072000022104E06879012804D100220121404619
:1007300001F0F5FD287920B901220221404601F09F
:10074000EEFD687920B901220121404601F0E7FD64
:10075000A879012803D100220121484605E0E87963
:10076000012804D100220421404601F0D8FDA879D7
:1007700020B901220121484601F0D1FDE87920B9D4
:1007800001220421404601F0CAFD287A012802D145
:100790000022042104E0687A012804D10022022109
:1007A000484601F0BCFD287A20B9012204214846C0
:1007B00001F0B5FD687A20B901220221484601F016
:1007C000AEFDA87A012802D10022102104E0E87AC7
:1007D000012804D100220821484601F0A0FDA87A92
:1007E00020B901221021484601F099FDE87A20B98C
:1007F00001220821484601F092FD287B012802D100
:100800000022402104E0687B012804D1002220213D
:10081000484601F084FD287B20B90122402148464A
:1008200001F07DFD687B20B901222021484601F0BE
:1008300076FDA87B012803D100221021404605E067
:10084000E87B012804D100228021484601F067FDA1
:10085000A87B20B901221021404601F060FDE87B11
:10086000002841F09C8301228021484601F095BB7D
:10087000062940F01182B98D002900F00581012878
:1008800005D1288F18B100224FF4005107E0697894
:10089000012907D1688F28B100224FF480414046DA
:1008A00001F03DFD287828B901224FF4005140465F
:1008B00001F035FD687828B901224FF480414046A7
:1008C00001F02DFDA978012905D1A88F18B10022CA
:1008D0004FF4004106E0E978012906D1E88F20B104
:1008E00000220821404601F01AFDA87828B901220B
:1008F0004FF40041404601F012FDE87820B9012292
:100900000821404601F00BFD2979012904D1B5F8F1
:10091000400008B1002206E06979012906D130883B
:1009200020B100220221404601F0F9FC287920B9CB
:1009300001220121404601F0F2FC687920B9012230
:100940000221404601F0EBFCA979012905D170880C
:1009500018B100220421404606E0E979012905D1B9
:10096000B08818B10022484601F0D9FCA87920B916
:1009700001220421404601F0D2FCE87920B901228D
:100980000121484601F0CBFC297A012904D13089A4
:1009900010B10022022106E0697A012906D170898E
:1009A00020B100220421484601F0B9FC287A20B980
:1009B00001220221484601F0B2FC687A20B90122E6
:1009C0000421484601F0ABFCA97A012904D17089C1
:1009D00010B10022082106E0E97A012906D1B08988
:1009E00020B100221021484601F099FCA87A20B9D4
:1009F00001220821484601F092FCE87A20B9012240
:100A00001021484601F08BFC297B012904D1F08993
:100A100010B10022202106E0697B012906D1308A2D
:100A200020B100224021484601F079FC287B20B902
:100A300001222021484601F072FC687B20B9012286
:100A40004021484601F06BFCA97B012905D1708A41
:100A500018B100228021484607E0E97B012906D130
:100A6000B08A20B100221021404601F058FCA87B3A
:100A700020B901228021484601F051FCE87B002882
:100A800041F08D8201F086BA012805D1288F18B176
:100A900000224FF4804107E06978012907D1688F6F
:100AA00028B100224FF40051404601F038FC28786C
:100AB00028B901224FF48041404601F030FC6878AB
:100AC00028B901224FF40051404601F028FCA978D2
:100AD000012904D1A88F10B10022082107E0E9788C
:100AE000012907D1E88F28B100224FF40041404688
:100AF00001F015FCA87820B901220821404601F038
:100B00000EFCE87828B901224FF40041404601F07C
:100B100006FC2979012905D1B5F8400010B1002261
:100B2000022105E06979012905D1308818B1002238
:100B3000404601F0F4FB287920B901220221404609
:100B400001F0EDFB687920B901220121404601F056
:100B5000E6FBA979012904D1708810B1002248462A
:100B600007E0E979012906D1B08820B100220421EB
:100B7000404601F0D4FBA87920B901220121484662
:100B800001F0CDFBE87920B901220421404601F0B3
:100B9000C6FB297A012904D1F08810B10022042172
:100BA00006E0697A012906D1308920B100220221AC
:100BB000484601F0B4FB287A20B9012204214846B6
:100BC00001F0ADFB687A20B901220221484601F00C
:100BD000A6FBA97A012904D1708910B10022102145
:100BE00006E0E97A012906D1B08920B10022082166
:100BF000484601F094FBA87A20B90122102148460A
:100C000001F08DFBE87A20B901220821484601F065
:100C100086FB297B012904D1F08910B100224021F3
:100C200006E0697B012906D1308A20B1002220210B
:100C3000484601F074FB287B20B901224021484638
:100C400001F06DFB687B20B901222021484601F0AC
:100C500066FBA97B012905D1708A18B100221021F9
:100C6000404607E0E97B012906D1B08A20B1002285
:100C70008021484601F053FBA87B20B901221021B6
:100C8000404601F04CFBE87B002841F088810122BE
:100C90008021484601F081B9002814BF00220122BA
:100CA0004FF40051404601F03AFB6878002814BF29
:100CB000002201224FF48041404601F030FBA87829
:100CC000002814BF002201224FF40041404601F0E9
:100CD00026FBE878002814BF0022012208214046A4
:100CE00001F01DFB2879002819BF002201210122F3
:100CF0000121404601F013FB6879002814BF00224F
:100D000001220221404601F00AFBA879002814BF05
:100D1000002201220421404601F001FBE87900286D
:100D200019BF0022012101220121484601F0F7FAF2
:100D3000B988042901F03381287A002814BF0022E1
:100D400001220221484601F0EAFA687A002814BF1D
:100D5000002201220421484601F0E1FAA87A002885
:100D600014BF002201220821484601F0D8FAE87A8F
:100D7000002814BF002201221021484601F0CFFABA
:100D8000287B002814BF002201222021484601F0C0
:100D9000C6FA687B002814BF002201224021484681
:100DA00001F0BDFAA87B002814BF00220122802197
:100DB000484601F0B4FAE87B002801F0EB800022FD
:100DC00001F0E9B8012A41F0EA800D4FB988288F77
:100DD000032940F05E81A8B12978012912D1401E73
:100DE000288780B298B928704FF40051404601F02E
:100DF00096FA01240BE000BF0008014000100140FA
:100E0000B80600204FF40051404601F088FA688F80
:100E100078B1697801290CD1401E688780B270B919
:100E2000687001224FF48041404601F078FA0124B5
:100E300005E001224FF48041404601F070FAA88F8E
:100E400078B1A97801290CD1401EA88780B270B969
:100E5000A87000224FF40041404601F060FA0124DE
:100E600005E000224FF40041404601F058FAE88FB7
:100E700070B1E97801290BD1401EE88780B260B9D2
:100E8000E87001220821404601F049FA012404E0FB
:100E900001220821404601F042FAB5F8400070B145
:100EA000297901290BD1401EA5F8400080B258B91C
:100EB00028710122404601F032FA012404E00122A7
:100EC0000121404601F02BFA308870B1697901297F
:100ED0000BD1401E308080B260B9687101220221BE
:100EE000404601F01CFA012404E0012202214046A0
:100EF00001F015FA708870B1A97901290BD1401E53
:100F0000708080B260B9A87100220421404601F0CF
:100F100006FA012404E000220421404601F0FFF912
:100F2000B08868B1E97901290AD1401EB08080B249
:100F300058B9E8710122484601F0F1F9012404E0B2
:100F400001220121484601F0EAF9F08870B1297ABE
:100F500001290BD1401EF08080B260B928720122B5
:100F60000221484601F0DBF9012404E001220221BC
:100F7000484601F0D4F9308970B1697A01290BD162
:100F8000401E308180B260B9687201220421484657
:100F900001F0C5F9012404E001220421484601F0D2
:100FA000BEF9708970B1A97A01290BD1401E7081F8
:100FB00080B260B9A87200220821484601F0AFF95A
:100FC000012404E000220821484601F0A8F9B08974
:100FD00070B1E97A01290BD1401EB08180B260B9AD
:100FE000E87201221021484601F099F9012404E039
:100FF00001221021484601F092F9F08970B1297B55
:1010000001290BD1401EF08180B260B92873012202
:101010002021484601F083F9012404E00122202127
:10102000484601F07CF9308A70B1697B01290BD107
:10103000401E308280B260B9687301224021484668
:1010400001F06DF9012404E001224021484601F03D
:1010500066F9708A70B1A97B01290BD1401E70829C
:1010600080B260B9A87301228021484601F057F987
:10107000012404E001228021484601F050F9B08AA1
:10108000002800F08787E97B012900F0768700F0CF
:1010900081BF052940F0B38070B1297801290BD1B7
:1010A000401E288780B260B928704FF40051404636
:1010B00001F035F9012404E04FF40051404601F0FD
:1010C0002EF9688F78B1697801290CD1401E6887A4
:1010D00080B270B9687001224FF48041404601F03F
:1010E0001EF9012405E001224FF48041404601F041
:1010F00016F9A88F78B1A97801290CD1401EA887CC
:1011000080B270B9A87001224FF40041404601F04E
:1011100006F9012405E001224FF40041404601F0A8
:10112000FEF8E88F70B1E97801290BD1401EE887FD
:1011300080B260B9E87001220821404601F0EFF862
:10114000012404E001220821404601F0E8F8B5F846
:10115000400070B1297901290BD1401EA5F840004B
:1011600080B258B928710122404601F0D8F8012414
:1011700004E001220121404601F0D1F8308870B12D
:10118000697901290BD1401E308080B260B9687145
:1011900001220221404601F0C2F8012404E00122AC
:1011A0000221404601F0BBF8708870B1A97901298D
:1011B0000BD1401E708080B260B9A8710122042159
:1011C000404601F0ACF8012404E00122042140462D
:1011D00001F0A5F8B08868B1E97901290AD1401E6B
:1011E000B08080B2002840F0DA86E87101224846DB
:1011F00000F0CCBE01220121484600F0CEBE0229FB
:1012000040F0BF82B98D002900F0588170B12A7872
:10121000012A0BD1401E288780B268B928704FF48C
:101220000051404601F07BF8012405E001224FF413
:101230000051404601F073F8688F78B16978012950
:101240000CD1401E688780B270B9687001224FF4DB
:101250008041404601F063F8012405E001224FF48B
:101260008041404601F05BF8A88F78B1A978012948
:101270000CD1401EA88780B270B9A87001224FF42B
:101280000041404601F04BF8012405E001224FF4F3
:101290000041404601F043F8E88F70B1E978012938
:1012A0000BD1401EE88780B260B9E87001220821A6
:1012B000404601F034F8012404E0012208214046B0
:1012C00001F02DF8B5F8400070B1297901290BD152
:1012D000401EA5F8400080B258B92871012240464E
:1012E00001F01DF8012404E001220121404601F033
:1012F00016F8308870B1697901290BD1401E308011
:1013000080B260B9687101220221404601F007F8FD
:10131000012404E001220221404601F000F8708817
:1013200070B1A97901290BD1401E708080B260B9DB
:10133000A87101220421404600F0F1FF012404E0DD
:1013400001220421404600F0EAFFB08868B1E97943
:1013500001290AD1401EB08080B258B9E87101223B
:10136000484600F0DCFF012404E001220121484648
:1013700000F0D5FFF08870B1297A01290BD1401E09
:10138000F08080B260B9287201220221484600F044
:10139000C6FF012404E001220221484600F0BFFFFD
:1013A000308970B1697A01290BD1401E308180B239
:1013B00060B9687201220421484600F0B0FF0124A0
:1013C00004E001220421484600F0A9FF708970B1B1
:1013D000A97A01290BD1401E708180B260B9A87230
:1013E00001220821484600F09AFF012404E001226E
:1013F0000821484600F093FFB08970B1E97A0129CD
:101400000BD1401EB08180B260B9E8720122102178
:10141000484600F084FF012404E0012210214846E0
:1014200000F07DFFF08970B1297B01290BD1401EAE
:10143000F08180B260B9287301222021484600F073
:101440006EFF012404E001222021484600F067FFDE
:10145000308A70B1697B01290BD1401E308280B285
:1014600060B9687301224021484600F058FF01240A
:1014700004E001224021484600F051FF708A70B11B
:10148000A97B01290BD1401E708280B260B9A8737C
:1014900001228021484600F042FF012404E001229D
:1014A0008021484600F03BFFB08A002800F072859A
:1014B000E97B012900F0618500F06CBD70B12978ED
:1014C00001290BD1401E288780B260B928704FF4E3
:1014D0008041404600F023FF012404E04FF48041A6
:1014E000404600F01CFF688F78B1697801290CD163
:1014F000401E688780B270B9687001224FF40051B5
:10150000404600F00CFF012405E001224FF4005199
:10151000404600F004FFA88F70B1A97801290BD1D3
:10152000401EA88780B260B9A870012208214046F9
:1015300000F0F5FE012404E001220821404600F0FD
:10154000EEFEE88F78B1E97801290CD1401EE887DA
:1015500080B270B9E87001224FF40041404600F0BB
:10156000DEFE012405E001224FF40041404600F078
:10157000D6FEB5F8400078B1297901290CD1401E7A
:10158000A5F8400080B260B92871012202214046CE
:1015900000F0C5FE012404E001220221404600F0D3
:1015A000BEFE308868B1697901290AD1401E3080B9
:1015B00080B258B968710122404600F0B0FE0124A3
:1015C00004E001220121404600F0A9FE708868B1C4
:1015D000A97901290AD1401E708080B258B9A8713A
:1015E0000122484600F09BFE012404E00122012173
:1015F000484600F094FEB08870B1E97901290BD11A
:10160000401EB08080B260B9E871012204214046DA
:1016100000F085FE012404E001220421404600F090
:101620007EFEF08870B1297A01290BD1401EF0802E
:1016300080B260B9287201220421484600F06FFE92
:10164000012404E001220421484600F068FE3089AC
:1016500070B1697A01290BD1401E308180B260B926
:10166000687201220221484600F059FE012404E07C
:1016700001220221484600F052FE708970B1A97A19
:1016800001290BD1401E708180B260B9A87201227D
:101690001021484600F043FE012404E001221021FD
:1016A000484600F03CFEB08970B1E97A01290BD1BF
:1016B000401EB08180B260B9E8720122082148461C
:1016C00000F02DFE012404E001220821484600F02C
:1016D00026FEF08970B1297B01290BD1401EF081D3
:1016E00080B260B9287301224021484600F017FEFD
:1016F000012404E001224021484600F010FE308A17
:1017000070B1697B01290BD1401E308280B260B973
:10171000687301222021484600F001FE012404E004
:1017200001222021484600F0FAFD708A70B1A97BA1
:1017300001290BD1401E708280B260B9A8730122CA
:101740001021404600F0EBFD012404E001221021AD
:10175000404600F0E4FDB08A70B1E97B01290BD16D
:10176000401EB08280B2002840F01984E873012244
:101770008021484600F00ABC01228021484600F042
:101780000CBC062940F0A382B98D002900F04E81DF
:1017900068B12A78012A0AD1401E288780B260B930
:1017A0004FF40051404600F0BAFD012405E001224B
:1017B0004FF40051404600F0B2FD688F70B1697877
:1017C00001290BD1401E688780B268B901224FF40D
:1017D0008041404600F0A3FD012405E001224FF4C2
:1017E0008041404600F09BFDA88F70B1A978012987
:1017F0000BD1401EA88780B268B901224FF4004186
:10180000404600F08CFD012405E001224FF4004128
:10181000404600F084FDE88F68B1E97801290AD1DB
:10182000401EE88780B258B901220821404600F0E6
:1018300076FD012404E001220821404600F06FFDFE
:10184000B5F8400068B1297901290AD1401EA5F8F0
:10185000400080B250B90122404600F060FD0124F2
:1018600004E001220121404600F059FD308868B1B2
:10187000697901290AD1401E308080B258B901220D
:101880000221404600F04BFD012404E00122022128
:10189000404600F044FD708868B1A97901290AD159
:1018A000401E708080B258B901220421404600F0E9
:1018B00036FD012404E001220421404600F02FFD02
:1018C000B08860B1E979012909D1401EB08080B2A9
:1018D00050B90122484600F022FD012404E0012213
:1018E0000121484600F01BFDF08868B1297A0129E2
:1018F0000AD1401EF08080B258B901220221484628
:1019000000F00DFD012404E001220221484600F010
:1019100006FD308968B1697A01290AD1401E3081FB
:1019200080B258B901220421484600F0F8FC012495
:1019300004E001220421484600F0F1FC708968B1FE
:10194000A97A01290AD1401E708180B258B90122BA
:101950000821484600F0E3FC012404E001220821AC
:10196000484600F0DCFCB08968B1E97A01290AD167
:10197000401EB08180B258B901221021484600F0C3
:10198000CEFC012404E001221021484600F0C7FCEF
:10199000F08968B1297B01290AD1401EF08180B20B
:1019A00058B901222021484600F0B9FC012404E086
:1019B00001222021484600F0B2FC308A68B1697BE0
:1019C00001290AD1401E308280B258B9012240213B
:1019D000484600F0A4FC012404E0012240214846CE
:1019E00000F09DFC708A68B1A97B01290AD1401ED4
:1019F000708280B258B901228021484600F08FFCE5
:101A0000012404E001228021484600F088FCB08ACD
:101A1000002800F0BF82E97B012940F0BB82401E14
:101A2000B08280B2002840F0BA82ACE268B1297876
:101A300001290AD1401E288780B258B94FF480414D
:101A4000404600F06CFC012404E04FF48041404625
:101A500000F065FC688F70B1697801290BD1401ED8
:101A6000688780B268B901224FF40051404600F007
:101A700056FC012405E001224FF40051404600F0DD
:101A80004EFCA88F68B1A97801290AD1401EA88709
:101A900080B258B901220821404600F040FC0124E0
:101AA00004E001220821404600F039FCE88F70B1C3
:101AB000E97801290BD1401EE88780B268B901227C
:101AC0004FF40041404600F02AFC012405E00122C9
:101AD0004FF40041404600F022FCB5F8400070B1E0
:101AE000297901290BD1401EA5F8400080B258B9D0
:101AF00001220221404600F012FC012404E00122F0
:101B00000221404600F00BFC308860B16979012960
:101B100009D1401E308080B250B90122404600F009
:101B2000FEFB012404E001220121404600F0F7FB06
:101B3000708860B1A979012909D1401E708080B2F6
:101B400050B90122484600F0EAFB012404E00122DA
:101B50000121484600F0E3FBB08868B1E97901292A
:101B60000AD1401EB08080B258B9012204214046FB
:101B700000F0D5FB012404E001220421404600F0DE
:101B8000CEFBF08868B1297A01290AD1401EF08085
:101B900080B258B901220421484600F0C0FB01245C
:101BA00004E001220421484600F0B9FB308968B105
:101BB000697A01290AD1401E308180B258B90122C8
:101BC0000221484600F0ABFB012404E0012202217F
:101BD000484600F0A4FB708968B1A97A01290AD1AE
:101BE000401E708180B258B901221021484600F091
:101BF00096FB012404E001221021484600F08FFBEF
:101C0000B08968B1E97A01290AD1401EB08180B259
:101C100058B901220821484600F081FB012404E064
:101C200001220821484600F07AFBF08968B1297B3F
:101C300001290AD1401EF08180B258B90122402109
:101C4000484600F06CFB012404E001224021484694
:101C500000F065FB308A68B1697B01290AD1401E1A
:101C6000308280B258B901222021484600F057FB4B
:101C7000012404E001222021484600F050FB708A34
:101C800068B1A97B01290AD1401E708280B258B97F
:101C900001221021404600F042FB012404E0012211
:101CA0001021404600F03BFBB08A60B1E97B01297E
:101CB00009D1401EB08280B2002840F0708101221C
:101CC0008021484662E101228021484665E170B1E9
:101CD000297801290BD1401E288780B260B928706D
:101CE0004FF40051404600F01AFB012404E04FF489
:101CF0000051404600F013FB688F78B169780129E4
:101D00000CD1401E688780B270B9687001224FF410
:101D10008041404600F003FB012405E001224FF41E
:101D20008041404600F0FBFAA88F78B1A9780129DC
:101D30000CD1401EA88780B270B9A87001224FF460
:101D40000041404600F0EBFA012405E001224FF487
:101D50000041404600F0E3FAE88F70B1E9780129CC
:101D60000BD1401EE88780B260B9E87001220821DB
:101D7000404600F0D4FA012404E001220821404644
:101D800000F0CDFAB5F8400070B1297901290BD1E6
:101D9000401EA5F8400080B258B928710122404683
:101DA00000F0BDFA012404E001220121404600F0C8
:101DB000B6FA308870B1697901290BD1401E3080A4
:101DC00080B260B9687101220221404600F0A7FA92
:101DD000012404E001220221404600F0A0FA7088AC
:101DE00070B1A97901290BD1401E708080B260B911
:101DF000A87101220421404600F091FA012404E078
:101E000001220421404600F08AFAB08868B1E979DD
:101E100001290AD1401EB08080B258B9E871012270
:101E2000484600F07CFA012404E0012201214846E2
:101E300000F075FAB888042800F0B180F08870B11D
:101E4000297A01290BD1401EF08080B260B9287236
:101E500001220221484600F062FA012404E0012236
:101E60000221484600F05BFA308970B1697A012995
:101E70000BD1401E308180B260B96872012204210A
:101E8000484600F04CFA012404E0012204214846AF
:101E900000F045FA708970B1A97A01290BD1401E72
:101EA000708180B260B9A87201220821484600F012
:101EB00036FA012404E001220821484600F02FFAF6
:101EC000B08970B1E97A01290BD1401EB08180B28E
:101ED00060B9E87201221021484600F020FA01247E
:101EE00004E001221021484600F019FAF08970B18F
:101EF000297B01290BD1401EF08180B260B9287383
:101F000001222021484600F00AFA012404E00122BF
:101F10002021484600F003FA308A70B1697B01291C
:101F20000BD1401E308280B260B96873012240211B
:101F3000484600F0F4F9012404E00122402148461B
:101F400000F0EDF9708A70B1A97B01290BD1401E18
:101F5000708280B260B9A87301228021484600F0E7
:101F6000DEF9012404E001228021484600F0D7F97F
:101F7000B08A78B1E97B01290CD1B08A401EB082C9
:101F800080B260B9E87301221021404600F0C7F921
:101F9000012404E001221021404600F0C0F920464F
:101FA000BDE8F283F8B53D4D0446688D40B14FF46D
:101FB00000513B4800F0ACF9401E8041C00F00E0EA
:101FC00001206073688D012808DD4FF4004134481A
:101FD00000F09EF9401E8041C00F00E001206077B4
:101FE00004F12506688D2F4F022807DD8021384631
:101FF00000F08EF9401E8041C00F00E001203072D9
:102000004FF48051264D284600F082F960714FF45C
:102010008041284600F07CF960754021384600F088
:1020200077F930704FF48071384600F071F93074F0
:102030004FF40071384600F06BF930760022231D12
:102040005878002804BF197800290AD15860012067
:1020500018709040617801436170217808432070C6
:1020600016E0002804BF1978012903D15868401CE4
:1020700058600DE0012804BF1878012808D1617864
:1020800090408143617021780843207000201870CF
:10209000521C0833082AD3DBF1BD0000B80600202B
:1020A000000C0140001001402DE9F84F834600204C
:1020B00086466FF01F089D4A9D4BDFF878924FF0DF
:1020C0000F0A01240F6804FA0EF63740B74240F0B9
:1020D000A4804C683CB3012C1AD0022C1DD0032CD8
:1020E0002ED0112C16D0122C1AD0934DAC421CBFFE
:1020F000924DAC4217D0924DAC421CBF914DAC42B8
:1021000011D0914DAC421CBF904DAC420BD018E0A9
:10211000C86816E0C868001D13E0C868083010E001
:10212000C8680C300DE0886808B9042009E001286F
:1021300019BF0820CBF814600820CBF8106000E02D
:102140000020B7F5807F39BFDC464FEA8E040BF1E3
:10215000040C44460AFA04F6DCF80050B54300FAD1
:1021600004F42C43CCF800404C68E40055D5D9F871
:10217000004044F00104C9F800404FEA9E0CD9F831
:10218000005005F001050095009C53F82C6008F004
:102190000C040AFA04F526EA05056D4EB34508BF9E
:1021A000002618D06B4EB34508BF012613D06A4EE7
:1021B000B34508BF02260ED0684EB34508BF0326BC
:1021C00009D0674EB34508BF042604D0654EB34519
:1021D0000CBF0526062606FA04F42C4343F82C40CF
:1021E0004C68E40314684CBF3C43BC4314604C6827
:1021F000A40354684CBF3C43BC4354604C68E402A5
:1022000094684CBF3C43BC4394604C68A402D468BF
:102210004CBF274324EA0707D7600EF1010EBEF139
:102220000F0F08F104087FF64CAFBDE8F18F2DE9E0
:10223000F84F00226FF01F033C4CDFF8F4804FF0A2
:102240000F094FF0010B82461CE0464FBA4514BF00
:102250000627052707FA0EF7BE4211D158F82C6061
:1022600026EA050548F82C50256805402560656874
:1022700005406560A5680540A560E5682840E06008
:10228000521C1B1D31FA02F040D00BFA02F008403C
:10229000F6D0B0F5807F39BFD4464FEA820E0AF1FE
:1022A000040C9E4609FA0EF6DCF80050284FB543A0
:1022B000042606FA0EF63543CCF80050C043DAF88F
:1022C0000C500540CAF80C504FEA920C950058F893
:1022D0002C6005F00C0E09FA0EF52E40BA4508BF29
:1022E0000027B7D01B4FBA4508BF0127B2D01A4FFD
:1022F000BA4508BF0227ADD0184FBA4508BF03271B
:10230000A8D0174FBA45A0D10427A3E7BDE8F18FA5
:1023100080680140481E8041C043C00F704781B0B3
:1023200002B90904016101B07047000000040140D6
:1023300008000140181002400000111000001210A7
:1023400000002110000022100000311000003210A7
:1023500000080140000C0140001001400014014041
:1023600000180140001C014038B5DFF8004CDFF8D0
:10237000005C00206084E88228764C210520687685
:10238000002068832075A882DFF8E80B01F0F6F9D9
:102390008821DFF8E40B01F0F1F900206075A075E9
:1023A0006421DFF8D80B01F0E9F96421DFF8D00BE4
:1023B00001F0E4F96421DFF8CC0B01F0DFF9002033
:1023C000E0752083E0761121284601F0D7F911212C
:1023D000204601F0D3F90020A8774421DFF8705C93
:1023E000284601F0CBF9012068736877012105F1D7
:1023F0002C0041700170297329770020E0611121C0
:1024000004F15C0001F0BAF9112104F1700001F04F
:10241000B5F9002084F82000E08431BD7CB5DFF8F8
:10242000344CDFF8545BA088DFF8406B03281DD1E3
:10243000317E042910D114217171307100220C21D8
:10244000284601F0FCFB0022DFF8281B2846FDF798
:1024500037FF608D08BB2CE0052940F09E801521D8
:1024600030717171608D00285ED169E0052840F0FF
:102470009480307E042844D11420707100220320FF
:1024800030710C21284601F0DAFB0022DFF8E41A53
:102490002846FDF715FF608D58B14FF6FF720021F9
:1024A000284601F0CCFB0022DFF8C81A2846FDF7C9
:1024B00007FF608D02280BDB4FF6FF7204212846D0
:1024C00001F0BDFB0022DFF8AC1A2846FDF7F8FE4C
:1024D000608D02280BDD4FF6FF720821284601F0BF
:1024E000AEFB0022DFF88C1A2846FDF7E9FE2846ED
:1024F00001F03FFB0120707530750220B07604209A
:1025000046E0052849D11520707100220320307162
:102510000C21284601F093FB0022DFF8581A2846C8
:10252000FDF7CEFE608D58B14FF6FF7201212846AF
:1025300001F085FB0022DFF83C1A2846FDF7C0FEBB
:10254000608D02280BDB4FF6FF720521284601F053
:1025500076FB0022DFF81C1A2846FDF7B1FE608DDD
:1025600002280BDD4FF6FF720921284601F067FBB8
:102570000022DFF8001A2846FDF7A2FE284601F0E7
:10258000F8FA09207075012030750220B076052018
:1025900070760120B0770220F07773BD2DE9F84303
:1025A000DFF8B04AE08F00285AD00021E1870027E9
:1025B000DFF8C059DFF8C0894FF6FF790126B4F87B
:1025C000400006FA07F1084209D04A46F9B24046EF
:1025D00001F035FB002229464046FDF771FE7F1CC5
:1025E000F8B21028EBDBA088032818BF052804F1F7
:1025F00042032DD15988DFF8584A322508466843EE
:1026000020619A88DFF8647910466843A061D88811
:10261000454325621D887D7531B1617841F0020125
:10262000002561706573267332B10022617862778C
:1026300041F008016170267740B10021607840F0D8
:102640002000607004F125000170C6710020207028
:10265000002058809880D880BDE8F14301F06CBD1F
:10266000BDE8F1832DE9FE4F01F084FDFFF77CFE0C
:1026700000F096FCFDF75CFD01F08EFD01F0ACFD75
:1026800001F0C2FD01F0BEFF02F0A0F801F086FFEC
:1026900001F0EAFFDFF8CC0A016800268A0003D5C2
:1026A000DFF8C41A0120086001F0F2FC01F024FDFB
:1026B000DFF8B848DFF89C5901202075A88DA08468
:1026C000288E042802DB032101262986698E0A2927
:1026D00012DB288E38B1012803D118290CDB182011
:1026E00008E0022803D1142906DB142002E00328A5
:1026F00002D10A20688600E00EB101F01DFD01F054
:1027000019FFA888DFF86868042830770BD1DFF854
:10271000507C012202213846FFF701FE01220421EC
:102720003846FFF7FCFD02F096F80122DFF84C185E
:10273000DFF8300C02F016FB0122DFF82C1CDFF86A
:102740002C0C02F00FFBDFF8280C02F032FDDFF852
:10275000240C02F02EFDDFF8200C02F02AFDE888A0
:102760000FF6240100901323012204F15C0002F013
:10277000F3FE0020607704F15C02002102F0A8F96A
:10278000FFF70CFFA88801281CBF022806280DD1DE
:1027900001224FF40041DFF8C80BFFF7C0FD002213
:1027A0004FF40071DFF8D40BFFF7B9FDDFF8D01B51
:1027B000DFF8D08B0A68DFF8D07BDFF8BC97DFF852
:1027C000C4A74CF6CC40106008F1D400019008F189
:1027D000D0000090ADE3132940F055830020A0768F
:1027E00050E308F108001FFA8BF25146805C02F0BA
:1027F0008BFF20760BF1010B98F802101FFA8BF07B
:102800008842EED3002088F80200E084642108F1B9
:10281000080000F0B3FF0020E07627E0E07E042807
:1028200024DD03F0BCF8E08CDFF838BB401C00214D
:10283000E084E176E175DBF83C0001070AD55846F3
:1028400001F08FFD01F0E0FCDFF83017012258465F
:1028500002F088FAE88D20B1E18C40F259208142E3
:102860000ADADFF81C07642100F088FFF07F0028F7
:102870004FD04FF0000B3CE0484601F07AF9A5F844
:10288000400005F14200617D018032230121E9878A
:10289000DFF8BC170A69B2FBF3F3438032238A697D
:1028A000B2FBF3F383803222096AB1FBF2F2C280F9
:1028B00001F042FC0A2003F059F9BFF34F8FDFF813
:1028C000CC1ADFF8CC0A0A6802F4E06202430A601C
:1028D000BFF34F8F00BFFDE7DFF8B80A1FFA8BF296
:1028E00008F16C01805C01F091FD88F804000BF1A7
:1028F000010BF17F1FFA8BF08842EDD30020F077B7
:102900006421DFF8900A00F039FF002086F82000EB
:102910000EE096F8200004280ADD01F0C4FD002135
:1029200086F82010F1776421DFF8680A00F026FFAE
:10293000207F18B103F0FCF900212177217E0029C6
:1029400000F0A5822889012818BF002840F09D8248
:1029500001291FD194F82000012808D16079152899
:1029600018BF142803D1002084F8200001E01120B2
:102970006071A888052808BF142002D0062808BF67
:1029800002202071484601F0F4F8E0800220A07691
:10299000012077E2212920D194F82000012808D1D4
:1029A0006079152818BF142803D1002084F820006E
:1029B00001E021206071A888052808BF032002D00B
:1029C000062808BF02202071484601F0D2F8E080B6
:1029D0000220A0762120607628E2022940F09B8028
:1029E0001220707112239AF80500411EF1809AF8A6
:1029F00007209AF8080042EA002232816371A88811
:102A0000052808BF032002D0062808BF0220207135
:102A1000C9B2484601F013F9DFF8581500224846BC
:102A2000FDF74EFC484601F0A4F8E080A888042891
:102A30006AD1F088022802D0032865D131E03089BC
:102A4000A8B1397801290BD0012038700020B87066
:102A50004FF4C8706063002060643220E06401E0DD
:102A60000020B870642301220121012014E0B8780D
:102A700001280BD00121B970002038704FF4C870C4
:102A8000E063002060653220E06401E000203870DF
:102A9000642301220021012001F08EFCF18803292A
:102AA00016D13089A0B1797801290BD00120787036
:102AB0000020F8704FF4C870A0630020A06432209A
:102AC000E06401E00020F87064230122012118E095
:102AD000F188032904BF3089002815D1F97801292C
:102AE0000BD00120F870002078704FF4C87020647B
:102AF000002060653220E06400E0787064230122E9
:102B00000021022001F058FC012020750320A0764E
:102B1000022060768AE1062940F09B8016207071C1
:102B200016239AF80500411EF1809AF807209AF8BA
:102B3000080042EA002232816371A888052808BF94
:102B4000032002D0062808BF02202071C9B24846DF
:102B500001F075F8DFF81C1400224846FDF7B0FBC1
:102B6000484601F006F8E080A88804286AD1F08879
:102B7000022802D0032865D131E03089A8B1397824
:102B800001290BD0012038700020B8704FF4C870B4
:102B90006063002060643220E06401E00020B870CF
:102BA000642301220121012014E0B87801280BD010
:102BB0000121B970002038704FF4C870E063002024
:102BC00060653220E06401E0002038706423012257
:102BD0000021012001F0F0FBF188032916D1308992
:102BE000A0B1797801290BD0012078700020F8700D
:102BF0004FF4C870A0630020A0643220E06401E0BC
:102C00000020F87064230122012118E0F1880329D3
:102C100004BF3089002815D1F97801290BD0012093
:102C2000F870002078704FF4C87020640020606550
:102C30003220E06400E07870642301220021022049
:102C400001F0BAFB012020750220A07606206076F4
:102C5000ECE0032940F0EF809AF8040070719AF8D4
:102C60000500411EF1809AF807209AF8080042EA10
:102C7000002232819AF80A009AF80B3040EA0320C9
:102C8000A6F80B009AF80C309AF80DC043EA0C2312
:102C9000652BA8BF642301DA03B90123A6F80D3020
:102CA0008BB2022B08D1009B1880B6F80D0088F873
:102CB00000004008E06409E0032B07D1009B588026
:102CC000B6F80D0088F801004008206513206071F7
:102CD000C9B2A8882071484600F0B1FFA54900227A
:102CE0004846FDF7EDFA484600F043FFE08001203A
:102CF00020750220A07603206076F18802294AD14F
:102D0000308930B3397801290CD001203870002087
:102D1000B8704FF4C870B6F80B10484360630020D9
:102D2000606401E00020B87004F15C0098F80020B5
:102D30000FF6002102F010FC04F1700201210020C6
:102D400001F0C6FE0098028898F8003001210120A9
:102D50001FE0B87801280CD00121B970002038702C
:102D60004FF4C870B6F80B104843E063002060656C
:102D700001E00020387004F15C0098F800200FF6A4
:102D8000C41102F0E9FB0098028898F80030002195
:102D9000012001F011FBF188032921D13089F8B11C
:102DA000797801290CD0012078700020F8704FF458
:102DB000C870B6F80B104843A0630020A06401E07F
:102DC0000020F87004F15C0098F801200FF68811DB
:102DD00002F0C2FB009898F801304288012122E0FD
:102DE000032904BF3089002820D1F97801290CD0AB
:102DF0000120F870002078704FF4C870B6F80B10FE
:102E0000484320640020606500E0787098F8012055
:102E10000FF6541104F15C0002F09EFB009898F844
:102E2000013042880021022001F0C6FA0120A0777B
:102E30000220E07727E004297FF4CDAC9AF8040063
:102E4000707114239AF80500411EF1809AF807204A
:102E50009AF8080042EA002232816371C9B2A88858
:102E60002071484600F0EBFE424900224846FDF73B
:102E700027FA484600F07DFEE08001202075022000
:102E8000A07604206076FFF7C9FA0020207698F833
:102E9000040050B198F86C10012903D10120A077EB
:102EA0000220E077002088F8040098F8050048B375
:102EB000002188F805100822DFF8B8B001995846BB
:102EC00000F09CFC9BF80800012817D100218BF82A
:102ED00008105846494600F0EAFC9AF80400707160
:102EE00000229AF80500411E4FF6FF70F1803081F4
:102EF00059464846FDF7E4F9012020750120A077E6
:102F00000220E077A988042907D198F8060020B1AB
:102F1000002188F8061000F09FF898F803000028B8
:102F200004BF717F012904D170772889C0B202F0F3
:102F300047FDDFF84C1409684AF6AA200860E27DD4
:102F4000002A3FF46BAC88F8022008F10800DFF893
:102F500030B0594603F074FA0020E07564215846F9
:102F600000F00CFC4FF0000B46E400004004002091
:102F7000700900206007002030030020C4040020F6
:102F8000280500208C05002056657220253031640C
:102F90002E25303264204944202530326400000060
:102FA00000B58FB0092005900021012207910992F8
:102FB0000B924FF48030069002220D904FF4E011F6
:102FC0000C920E9105A803F083FA0F2102200091C4
:102FD000019000214FF4C0600291039004900221FF
:102FE000684603F00AFC03F0BEFC4FF47A71B0FBB4
:102FF000F1F003F031FD042003F03FFD0022002139
:103000004FF0FF3003F0F1FC0FB000BD30B40168A9
:10301000DFF8D82691420AD1DFF8D416DFF8D4368B
:10302000CA7D1C78DFF8D056AC54521CCA750068B3
:10303000DFF8C816884208D1DFF8C406CA4AC17F43
:103040001378D44C6354491CC17730BC70470000DE
:10305000AC070020B80600202DE9F84FDFF89006F5
:1030600084B000F12C0A00F1300400F1340900F1C1
:10307000440800F14C0500F13C0600F15407C24938
:103080000391022001F1020B0290039801780129BB
:1030900026D1D8F80000D9F80020824208BF28685D
:1030A0001BD0401CC8F8000003F00AFDCDE9000168
:1030B000D9F8000003F004FD02460B46DDE90001EB
:1030C00003F00CFDCDE90001286803F0F9FCDDE90F
:1030D000002303F027FE03F0F7FEAAF800002AE021
:1030E0009BF80000012826D138683168814202D15E
:1030F000322020801FE0401C386003F0E1FCCDE965
:103100000001306803F0DCFC02460B46DDE90001FB
:1031100003F0E4FC0022DFF8EC3503F003FE03F0DB
:10312000D3FE208080B22968C1F13202824224BFDE
:10313000C1F1320121800398411C03913F1D029986
:10314000361D2D1DA41C491E08F1040809F10409AF
:103150000AF1020A0BF1010B029196D105B0BDE80C
:10316000F08F000024100240E0044242401E042878
:1031700000D9704738B5DFE800F0032849BCC40027
:10318000DFF88405408D012807D1DFF86405817AD6
:103190008A0740F1E480022236E0022809D1DFF8F4
:1031A0005005817A01F00A010A2940F0D8800222F4
:1031B0002AE0032801BFDFF83805817A01F02A01EF
:1031C0002A2940F0CC8002221EE0DFF83C05408D29
:1031D000012806D1DFF81805817A8A0700F1BF803F
:1031E00011E0022805D1DFF80805817A11F00A0FF5
:1031F00007E0032840F0B380DFF8F404817A11F08F
:103200002A0F40F0AC800322427531BDDFF8F8543C
:10321000DFF8F844688DE8B1AB88032B0BD14FF68B
:10322000FF720121204600F00AFD0022DFF8E014C1
:103230002046FDF745F8A88805280BD14FF6FF7208
:103240000121204600F0FBFC0022DFF8C4142046D8
:10325000FDF736F8688D02281DDBA98803290BD1FC
:103260004FF6FF720521204600F0E9FC0022DFF84E
:10327000A0142046FDF724F8A88805280BD14FF6A6
:10328000FF720521204600F0DAFC0022DFF88014EE
:103290002046FDF715F8688D03281DDBA988032952
:1032A0000BD14FF6FF720921204600F0C8FC002226
:1032B000DFF85C142046FDF703F8A88805280BD139
:1032C0004FF6FF720921204600F0B9FC0022DFF81A
:1032D00040142046FCF7F4FF2046DFF8145400F0B9
:1032E00048FCE8800520A875042068750120287531
:1032F00031BDDFF8FC13887D002830D105224A75E6
:1033000031BDDFF80854DFF8E843284600F031FC0F
:10331000E080DFF8F4038088032818BF05281ED159
:10332000012084F820004FF6FF72152060710C21F7
:1033300003202071284600F082FC0022DFF8D01321
:103340002846FCF7BDFF284600F013FCE080002073
:103350006075012020750220A0760520607631BDC1
:103360000008014030090020F0050020F00800208E
:103370003008002070080020F0070020000C0140F9
:10338000E009002058020020920900200CED00E026
:103390000400FA0554060020F0B5054685B02868FB
:1033A000DFF84C43DFF85863B0F1804F4BD1307DEC
:1033B00018B9608C401C60843DE00A283BD014287A
:1033C00021D1707EB17E014306D10120B07600206C
:1033D000607702F0DFFB02E008B1401E7076607F8C
:1033E000401C6077C0B20A2825DD0020607704F118
:1033F0005C02002101F06CFB04F17002012100204D
:1034000001F066FB17E01E2815D1BF48808803280D
:1034100018BF042803D0052818BF062807D10122A9
:10342000BB49BA48FCF74CFF08B101202075A07DCC
:1034300008B1401EA075307D401C3075C0B26428B4
:10344000A4BF002030752868B249884240F02E8120
:10345000717D0E2900F22281DFE811F00F001200C9
:103460002001200120012001740080004B00200178
:10347000C0000F00C300C700070102F0C4FB0DE14C
:10348000A149307F8A8890421CD0A34B1878C8B9D4
:10349000032A18BF052A02D100F01EFE03E0062A07
:1034A00003D100F01DFE00F047FEBFF34F8F9B4994
:1034B0009B480A6802F4E06202430A60BFF34F8F40
:1034C00000BFFDE7A08C898D884200F0E78092491B
:1034D0000878002840F0E280BFF34F8F8F49904872
:1034E0000A6802F4E06202430A60BFF34F8F00BF34
:1034F000FDE785488088032818BF052840F0CE8066
:10350000884F3846FEF74EFD387828B17F4800F0E6
:1035100030FBE0807878A07232213869B0FBF1F19D
:10352000A4F80B103221386AB0FBF1F1A4F80D10A9
:103530003221386BB0FBF1F1A4F80F10607DFFF77A
:1035400015FEABE0F07E192803DC217D012940F057
:10355000A5800020F076022020759FE0207D0228C3
:1035600040F09C801121684600F008F90020207589
:10357000607769490878002840F090800023634A0A
:10358000D05C08B9302707E002F1380737F813009C
:10359000002814BF312753270DF803705B1CD05C43
:1035A00008B9302707E002F1380737F81300002880
:1035B00014BF312753270DF803705B1C102BDFDB82
:1035C000684690E88C1004F17001002081E88C10AE
:1035D00004F17002012101F07BFA5FE001207077B5
:1035E0005CE0207F401C207758E0607EA0B3A17E85
:1035F0004A1EA27681BB01281DD1204601F0E5FFBD
:103600000020607640488088032818BF052823D111
:103610004449087800B3800744BF00200861087857
:10362000020744BF00220A62820644BF00220A63E6
:103630000020087010E0212818BF022807D00328B6
:1036400018BF042803D0052818BF062804D1204637
:1036500001F0BBFF00206076E07E401CE07696F82B
:103660002000401C86F8200018E0A07F012808D127
:1036700001224FF400612C48FEF751FE0020A07794
:103680000CE058B9E07F48B1401EE077C0B228B9DD
:1036900000224FF400612448FEF741FE707D401C7B
:1036A0007075C0B21428A4BF0020707528681F4927
:1036B000884219D1144DA88801281CBF0228062869
:1036C00012D103F01FFC208D03F0C4FCC0B258B12E
:1036D0000E4800F04EFAA988012902D100F006FA3E
:1036E00001E000F076F9208505B0F0BD004800400B
:1036F00040040020C40400202805002000380140B8
:103700007009002000004940B80600203003002066
:103710006007002000040040600000200CED00E085
:103720000400FA05AC07002000080140002C01400D
:10373000704700004C494748543A31204F4E2025ED
:10374000303364004C494748543A31204F464620B4
:1037500025303364000000004C494748543A322079
:103760004F4E2025303364004C494748543A3220AC
:103770004F4646202530336400000000002203F04D
:10378000DFBCF0B40246106895681318506803EB6C
:103790005004C00721D54D441FE0F0BC02F10C00DD
:1037A000704713F8017B05F8017B491EF9D1A0B1E0
:1037B000B60813F8011B06F00306032E08BF13F822
:1037C000016B01EB06214942801C294405D011F808
:1037D000016B05F8016B401EF9D1A342DDD013F84F
:1037E000016B16F0030104BF13F8011BC91C30095B
:1037F0000F28DAD113F8010B0F30D6E778B4002583
:10380000082A034651D18878012400281FBF4A782E
:10381000002A0978002948D0120242EA0042DFF863
:10382000680880880A43D243022818BF062822F07D
:103830007F4220D10026032096FBF0F101EB4101ED
:10384000711A22FA06F0C9B200F0010021B970B174
:10385000B01C04FA00F009E0022904D138B1B01E0E
:1038600004FA00F002E010B104FA06F00543761CF9
:10387000182EE0DB2A465A6003F109051822586821
:103880002978204051B160B995F82000401C85F896
:103890002000002129700120187202E008B10120E7
:1038A000287064006D1C521EE9D171BC7047F8B4D9
:1038B0000A46DFF8D4178B88022B18BF062B5AD183
:1038C00000F1290402F1200302F1380501F10A0791
:1038D00008204FF0FF362178A1B14FF0000C84F89A
:1038E00000C05178012921D00121117082F801C056
:1038F00039882980A5F802C00121117482F811C00D
:1039000019702FE0617841B14FF0000C84F801C0CC
:1039100082F800C082F801C00CE0A17811B34FF02A
:10392000000C84F802C0117801290ED182F801C080
:1039300082F800C0A5F800C0A5F802C082F810C047
:1039400082F811C083F800C00CE082F800C00121A9
:103950005170A5F800C07988698082F810C00121F3
:1039600051741E703F1D2D1DE41C921C5B1C401EDB
:10397000B1D1F1BC7047012B18BF042BF9D100F174
:1039800029030820197871B100241C7002F1280164
:103990001478012C03D1002515700D7013E001245B
:1039A00014700C700FE0997869B100249C7002F1DA
:1039B0002801147A012C03D1002515720D7202E042
:1039C000012414720C72DB1C521C401EDAD1F1BCB3
:1039D0007047DFF8B42692880021022A18BF062A11
:1039E00081B040D1C20748BF4FF48041820748BF31
:1039F00041F40041420748BF41F48051020748BFEB
:103A000041F40051C20648BF41F48061820648BFBC
:103A100041F40061420648BF41F48071020648BF8C
:103A200041F40071C20548BF41F04001820548BF22
:103A300041F08001420548BF41F01001020548BF36
:103A400041F02001C20448BF41F00401820448BF94
:103A500041F00801420448BF41F00101000442D591
:103A600041F002013FE0C20748BF4FF40041820726
:103A700048BF41F48041420748BF41F4005102076A
:103A800048BF41F48051C20648BF41F4006182063C
:103A900048BF41F48061420648BF41F4007102060C
:103AA00048BF41F48071C20548BF41F080018205E2
:103AB00048BF41F04001420548BF41F020010205E6
:103AC00048BF41F01001C20448BF41F00801820420
:103AD00048BF41F00401420448BF41F00201000424
:103AE00048BF41F00101084601B070470021C207FC
:103AF00048BF4FF40041820748BF41F400514207DC
:103B000048BF41F40061020748BF41F40071C2069A
:103B100048BF41F08001820648BF41F020014206C3
:103B200048BF41F00801020648BF41F00201C2054A
:103B300048BF41F48041820548BF41F480514205AD
:103B400048BF41F48061020548BF41F48071C2045E
:103B500048BF41F04001820448BF41F010014204D7
:103B600048BF41F00401000448BF41F0010108468C
:103B70007047DFF81435B3F804C001460022087816
:103B8000BCF1050F1BD100B10122487808B142F009
:103B90000202887808B142F01002C87808B142F0F9
:103BA0002002087908B142F48072487908B142F4E1
:103BB0000072C879002840D042F480523DE000B144
:103BC0000122487808B142F00202887808B142F038
:103BD0000402C87808B142F00802087908B142F03E
:103BE0001002487908B142F02002887908B142F009
:103BF0004002C87908B142F08002087A08B142F464
:103C00008072487A08B142F40072887A08B142F4AE
:103C10008062C87A08B142F40062087B08B142F4BD
:103C20008052487B08B142F40052887B08B142F4CC
:103C30008042C87B08B142F40042104670477CB510
:103C40000546DFF84804DFF8403401700C469888D8
:103C5000022818BF062861D1100046D004EBD476A4
:103C600029197608B4EB460020D011F8010C012880
:103C70003FD001262E5503EB4400002601F8016CCD
:103C80004FF6FF764189B24218BF8A4203D105EB55
:103C90004400018705E005EB44010A87428100F0FA
:103CA0004BFA05EB44010020C88673BD4878012813
:103CB0002AD001262E5503EB440000264E704FF605
:103CC000FF764189B24218BF8A4203D105EB440016
:103CD000018705E005EB44010A87428100F02CFAD8
:103CE00005EB44010020488773BD4908B4EB41004F
:103CF0000AD000202919285501F8010C002105EBF4
:103D000044000187C18673BD0020291928554870D9
:103D1000002105EB44000187418773BD032840F073
:103D2000D180100000F09E8089B9012028704FF6E4
:103D3000FF740020A870A242588918BF82420FBFAA
:103D400028872A875A8100F0F7F9002092E0012C99
:103D50000FD10120A8704FF6FF7400202870A242F6
:103D6000D88914BF8242A88700F0D780AA87DA8159
:103D7000D1E0042C13D1012028714FF6FF740020EC
:103D8000A871A242588A18BF82420FBFA5F840000E
:103D9000A5F840205A8200F0CFF9002075E0052CEC
:103DA0000FD10120A8714FF6FF7400202871A242A4
:103DB000D88A18BF824268D005F142004280DA8278
:103DC00058E1082C19D1012028724FF6FF74002009
:103DD000A872A242588B18BF824203D105F142015A
:103DE000C88005E005F14200C2805A8300F0A4F9C2
:103DF00005F142010020488173BD092C19D1012031
:103E0000A8724FF6FF7400202872A242D88B18BF08
:103E1000824203D105F14201488105E005F14200EB
:103E20004281DA8300F088F905F142010020C88060
:103E300073BD0C2C40F0278101202873A8734FF626
:103E4000FF74598CA24218BF8A4204D105F1420086
:103E5000C181D98C34E005F14200C2815A8442828A
:103E6000DA8407E1002918BF012C05D10020287051
:103E7000A8702887A88773BD042C18BF052C08D10B
:103E800000202871A871A5F8400005F14201488082
:103E900073BD082C18BF092C08D100202872A87205
:103EA000002105F14200C180418173BD0C2C40F01E
:103EB000EA8000202873002105F14200C181A97326
:103EC000418273BD052840F0C080100000F0928050
:103ED00089B9012028704FF6FF7400206870A24253
:103EE000588918BF82420FBF28872A875A8100F05D
:103EF00023F9002086E0012C12D1012068704FF6D2
:103F0000FF7400202870A242988914BF82426887FB
:103F100003D06A879A8100F00FF90020288773BDCB
:103F2000042C11D10120A8704FF6FF740020E87016
:103F3000A242D88918BF82420FBFA887AA87DA8118
:103F400000F0FAF8002067E0052C0DD10120E870A0
:103F50004FF6FF740020A870A242188A18BF824250
:103F60005AD0EA871A8285E0082C13D101202871E3
:103F70004FF6FF7400206871A242588A18BF82422F
:103F80000FBFA5F84000A5F840205A8200F0D4F8F1
:103F900000204CE0092C15D1012068714FF6FF7408
:103FA00000202871A242988A18BF82420FBFA5F84C
:103FB0004200A5F842209A8200F0BEF80020A5F841
:103FC000400073BD0C2C5ED10120A871E8714FF642
:103FD000FF74D98AA24218BF8A4204D105F1420077
:103FE0004180198B2FE005F1420042805A84828083
:103FF000DA843FE0002918BF012C05D10020287089
:1040000068702887688773BD042C18BF052C05D1FC
:104010000020A870E870A887E88773BD082C18BF37
:10402000092C07D1002028716871A5F84000A5F877
:10403000420073BD0C2C26D10020A871002105F18F
:1040400042004180E971818073BD100016D00120CB
:1040500028554FF6FF7603EB4400B242418918BF62
:104060008A4203D105EB4400018773BD05EB44018F
:104070000A874281BDE8734000F05EB800202855F1
:1040800005EB4401088773BDB80600200C0A002028
:1040900080B503F0C9F8BDE8014003F029B910B5B7
:1040A000304C52212046FFF769FB40F616506080E5
:1040B00004F10A010120A0802081E0800322042075
:1040C0000A804A808A80CA800831401EF8D10220C6
:1040D00060850020E06210BD23490420032203E034
:1040E000214904204FF496720A804A808A80CA804F
:1040F0000831401EF8D17047F8B51A4E31460020FD
:1041000003F0EAF931880024002541F21917B94279
:1041100005D0FFF7C4FF378000F00EF80AE006EB89
:104120004500811C681C80B203F0D6F96D1C282D57
:10413000F5DB01242046F2BD70B541F219110020D3
:1041400003F0F0F90024094D094E36F8021B25F85A
:10415000021B601C80B203F0E5F9641C282CF4DB20
:1041600070BD0000B8060020C20600200E07002027
:10417000BA06002080B50748016841F010010160CF
:10418000032002F025FC002003F0A4FA03F0C2FA99
:10419000002002BD0020024080B50E48016841F0B9
:1041A000010101600022006800F001000090002180
:1041B00000980D2002F019FC0D2002F03FFC0022B7
:1041C00000210F2002F011FCBDE802400F2002F098
:1041D00035BC00BF1410024080B5BA48BA4901602E
:1041E0004FF41651416000218160C16001610C21D2
:1041F000416100218161C16100F004FD18B1BDE899
:1042000004404B2118E001BD80B5B048B0490160C1
:104210004FF41651416000218160C16001610C21A1
:10422000416100218161C16100F0ECFC18B1BDE881
:1042300004405E2100E001BDADA0FFF779BA0000A7
:1042400030B5044685B020689F49884240D1A148D6
:10425000A14D016841F4804101604FF40071006894
:1042600000F48040049002220498009103200390FF
:10427000019269462846FDF717FF4FF48060002140
:1042800000900191029128466946FDF70DFF934D7C
:10429000934800F128018020E86029602020002157
:1042A000A8616960A96029616961E961284603F034
:1042B0007FFA20B15FF089018DA0FFF739FA6563BD
:1042C0006C6200220421252002F08FFB252044E0AF
:1042D0007F49884243D17F48824D416841F4802123
:1042E00041604FF48061406800F480200490022215
:1042F0000498009103200390019269462846FDF737
:10430000D3FE4FF4006000210090019102912846F5
:104310006946FDF7C9FE714D714868640020A864C4
:10432000E8648020286500206865A8652020E8658D
:104330000020286605F1440003F03AFA18B1B721CD
:104340006BA0FFF7F5F905F144006063AC6600224D
:104350000321272002F049FB272002F06FFB05B064
:1043600030BD10B504465849206888420ED15948DE
:10437000026822F4804202604FF4C0615648FDF7A3
:1043800056FF606B03F05AFA252010E0504988422E
:1043900011D15048416821F4802141604FF44061BF
:1043A0005048FDF744FF606B03F048FA2720BDE852
:1043B000104002F048BB10BD30B585B0AB248DF87D
:1043C00002008DF80310100A8DF8040008258DF8FE
:1043D00005208DF806308DF800408DF8015005213C
:1043E0000DF1020001F0D8F88DF8070042F21073C9
:1043F000000A8DF808000A220D208DF80900694690
:10440000304800F02EFC05B030BD000070B5364CD1
:104410000D462178052942D8DFE801F003070C1783
:104420001B22AB283BD1012002E0C01E20710220DC
:10443000207036E0217D2279914204D2621D5054D1
:10444000491C21752DE00321217004212170207465
:1044500002E005212170E073207D401C207520E0E2
:104460000D281CD1E07B267C217946EA0026601DC0
:1044700001F092F8217D491C864221750FD12279E5
:10448000C9B2D01C814207D1611D284601F0C8FF86
:1044900000F009F8012070BD00F005F801E000F01F
:1044A00002F8002070BD10B50F4C0020207564216B
:1044B0000E4803F0B7FB2046BDE810401121FFF77E
:1044C0005DB90000F00800200038014030090020EC
:1044D000004800401810024000080140B8030020C6
:1044E00030000240000C0140B8090020F005002017
:1044F000443A5C55736572735C6461776F6F6E31BB
:104500005C4465736B746F705C494F545F4D4355E9
:104510005F57495245524553535C494F545F574981
:104520005245524553535C5372635C7573617274A8
:104530002E630000904810B5904C20604FF4E1705D
:10454000606086B00020A0600920E060002020614B
:104550006061A061204600F01DFE20B15FF04301C4
:104560008DA0FFF7E5F84FF48050029002A9204695
:1045700000F0D9FE18B1492187A0FFF7D9F8002033
:10458000009001906946204603F050FB18B150217D
:1045900081A0FFF7CDF806B010BD00004FF08040BD
:1045A00010B5774C20604FF4E160606086B0002069
:1045B000A0606320E06000202061A061204600F040
:1045C000E9FD20B15FF0620173A0FFF7B1F84FF48D
:1045D0008050029002A9204600F0A5FE18B1682183
:1045E0006DA0FFF7A5F800200090019069462046D5
:1045F00003F01CFB18B16F2167A0FFF799F806B014
:1046000010BD00005F4810B55F4C20604FF4E160C2
:10461000606086B00020A0600920E060002020617A
:10462000A061204600F0B6FD18B181215AA0FFF725
:104630007FF84FF48050029002A9204600F073FEEC
:1046400018B1872154A0FFF773F800200090019063
:104650006946204603F0EAFA18B18E214EA0FFF712
:1046600067F806B010BD0000484810B5484C2060FF
:10467000B420606086B00020A0600920E0600020C7
:104680002061A061204600F085FD20B15FF0A0010F
:1046900041A0FFF74DF84FF48050029002A9204648
:1046A00000F041FE18B1A6213BA0FFF741F8002021
:1046B000009001906946204603F0B8FA18B1AD2188
:1046C00035A0FFF735F806B010BD80B500682A495F
:1046D000884210D12F48016841F400610160002236
:1046E000006800F40060009000210098192002F09A
:1046F0007CF919203AE0B0F1804F10D1254841688B
:1047000041F0010141600022406800F0010000908A
:10471000002100981C2002F068F91C2026E01949AD
:10472000884210D11B48416841F0020141600022DB
:10473000406800F002000090022100981D2002F065
:1047400054F91D2012E01149884213D111484168E3
:1047500041F0080141600022406800F0080000902C
:1047600005210098322002F040F93220BDE80240D5
:1047700002F064B901BD0000002C0140F0070020E8
:10478000300800200004004070080020000C0040A9
:10479000B008002018100240443A5C776F726B5CDE
:1047A000494F545C494F545F4D43555F57495245FB
:1047B000524553535C494F545F57495245524553F4
:1047C000535C5372635C74696D2E630080B5094855
:1047D000094901600221416040F6C411816003F083
:1047E0004BFA30B1BDE804405FF03A0103A0FEF798
:1047F0009FBF01BDE009002000300040443A5C77D3
:104800006F726B5C494F545C494F545F4D43555F29
:1048100057495245524553535C494F545F5749528B
:1048200045524553535C5372635C697764672E63EA
:1048300000000000002804D000BF00BF401E002878
:10484000FAD1704710B5040004D00B20FFF7F2FF37
:10485000641EFAD110BDE0B50FF294310FF2983515
:1048600084B0D1E9002302A8D5E90067C0E900239C
:10487000CDE900670221102000F00AF802A900200B
:1048800000F092F96946012000F08EF904B0E0BD15
:1048900070B505460E4600F04AF8BE48BE4CFFF71C
:1048A000D1FF00206071A071012EC8BF0820607088
:1048B000E6702571032000F06EF841F29415284649
:1048C000FFF7C0FF032000F066F82846FFF7BAFFA5
:1048D000032000F060F82846FFF7B4FF022000F044
:1048E0005AF86420FFF7AEFF607840F0200000F037
:1048F00040F86420FFF7A6FF0420207000F040F984
:104900006420FFF79FFF012000F033F840F6B83035
:10491000FFF798FF6420FFF795FF0220A0700620A4
:1049200000F027F8BDE8704042F210708AE710B539
:104930000022042199489A4CFDF7F1FC002208213D
:104940002046FDF7ECFC002210212046FDF7E7FC95
:10495000002220212046FDF7E2FC002240212046D3
:10496000FDF7DDFC2046BDE8104000228021FDF768
:10497000D6BC10B50446002202E010B50446012260
:1049800004218648FDF7CBFC200900F004F804F070
:104990000F00BDE8104038B504462007804D4CBFDD
:1049A0000122002280212846FDF7B9FC60074CBF98
:1049B0000122002240212846FDF7B1FCA0074CBF90
:1049C0000122002220212846FDF7A9FCE0074CBF68
:1049D0000122002210212846FDF7A1FC0122082116
:1049E0002846FDF79CFC7820FFF72CFF00220821C9
:1049F0002846FDF794FC78240B20FFF71BFF641E6C
:104A0000FAD131BD0000000038B5634A7CA3D578E7
:104A10001C680094A94228BF0021917150711DF8B3
:104A20000110081840F08000C0B2FFF7A2FF31BDAE
:104A3000F8B51646FFF7E8FF71A7574D18E0FFF7E6
:104A40009CFF6879401C687111E00D28F7D1A879A6
:104A50003A680092EA78904228BF002000216971EC
:104A6000A8711DF8000040F08000FFF782FF761C5F
:104A7000307860B369792879814212D30020687157
:104A80003A68A8790092401CEA78C1B2914228BFE6
:104A90000020A871C0B21DF8000040F08000FFF7B0
:104AA00068FF30780A28D0D168793B68A9790093EB
:104AB000491CEB78CAB29A4228BF0021A971C9B239
:104AC0001DF80110081840F08000C0B2CDE7E3BD2A
:104AD000F8B5344B304C1D781746227A15434ED129
:104AE00001232372FFF790FF45A618E0FFF745FF6B
:104AF0006079401C607111E00D28F7D13268A0790F
:104B00000092E278904228BF00200021A0716171DC
:104B10001DF8000040F08000FFF72BFF7F1C387865
:104B200060B361792079814212D3002060713268CC
:104B3000A0790092401CE278C1B2914228BF0020C7
:104B4000A071C0B21DF8000040F08000FFF711FF17
:104B500038780A28D0D13368A17960790093491C4C
:104B6000E378CAB29A4228BF0021A171C9B21DF8E8
:104B70000110081840F08000C0B2CDE72072F1BDEE
:104B80000549087840F00400FFE7087040F008008D
:104B9000EFE60000A0860100EC09002000140140AF
:104BA000000C01406000002010B5C00000F038008B
:104BB0000C4640F04000FFF7DCFE2078FFF7DDFEFA
:104BC0006078FFF7DAFEA078FFF7D7FEE078FFF70E
:104BD000D4FE2079FFF7D1FE6079FFF7CEFEA079F1
:104BE000FFF7CBFEE079FFE7BDE81040C5E6000027
:104BF0001F1111111111111F1F1F1F1F1F1F1F1F19
:104C00000040145438B5040001D1012032BD04F134
:104C10003805687820B9002129702046FFF710FB7D
:104C2000242068702068C16821F40051C1602046CA
:104C300000F03BFA2068016921F49041016120688D
:104C4000416921F02A01FFE741612068C16841F410
:104C50000051C1600020686020206870A8700020AA
:104C600032BD2DE9F843054605F138060F46707848
:104C70002028914650D1002F14BFB9F1000F012018
:104C80004BD03078012847D00121317021200021FC
:104C9000716070701C4603F011F8A5F824908046EE
:104CA000A5F8269002E017F8011B4160E88CA8B136
:104CB000E98C481EE884A868B0F5805F2FD1286889
:104CC00001680A063BD414F1010FF8D0A4B102F038
:104CD000F5FFA0EB08008442F1D20DE028680168DE
:104CE0004A0636D414F1010FF8D02CB102F0E6FFD9
:104CF000A0EB08008442F1D22868C16821F4D07189
:104D0000C1602868416949084900416120207070EC
:104D1000B0700020307022E00220BDE8F2832868E5
:104D200001680A06BFD414F1010FF8D0002CE3D0BB
:104D300002F0C4FFA0EB08008442F0D2DCE739881F
:104D4000C1F3080141602869002814BF7F1CBF1C03
:104D5000ACE72021717000203070BDE8F2830320A1
:104D6000BDE8F28338B5044604F138051346A87847
:104D700020283ED109B1180001D1012032BD287888
:104D8000012836D001222A70A162A3850020686024
:104D90002220A870626B0FF2B9109062626B0FF262
:104DA000E910D062626B0FF2E91010630020626BB1
:104DB00050630A462068011D606B02F07CFD0020F4
:104DC00000902068016800914268009200220099DA
:104DD0002A70C26842F48072C2602068416941F062
:104DE000010141612068416941F0400141610020B9
:104DF00032BD022032BD38B5044625682968EA680C
:104E00006B6911F00F0007D1880660D590065ED55A
:104E10002046BDE83240FDE0D80702D412F4907F6E
:104E200055D0C80705D5D00503D5E06B40F001008B
:104E3000E063480705D5D80703D5E06B40F00200D2
:104E4000E063880705D5D80703D5E06B40F0040080
:104E5000E063080705D5D80703D5E06B40F00800EC
:104E6000E063E06B002871D0890604D5900644BF4A
:104E7000204600F0CFF820684069E16B0A0701D4B2
:104E800040061ED5204600F0B1F8206841694A0668
:104E900012D5416921F040014161606B60B10FF2B0
:104EA00069114163606B02F050FD00284ED0606BC9
:104EB000416BBDE8344008472046BDE8324002F06F
:104EC00003BF204602F000FF0020E06331BD08066A
:104ED0002CD510062AD594F83900212836D1A1689E
:104EE000206AB1F5805F0DD10188C1F308016960C6
:104EF000206918B9216A881C206207E0206A411CD9
:104F0000216203E0411C216200786860E08C401E51
:104F1000E08480B2D0B92068C16821F08001C1600E
:104F20002068C16841F04001C16031BD48060DD51F
:104F300050060BD5E86820F04000E860202184F896
:104F400039102046BDE8324002F0BFBE31BD00003E
:104F5000416A00680268930613D40020C885086877
:104F6000C26822F48072C260086842695208520026
:104F700042610868426922F040024261202081F8C3
:104F80003A000846FEF742B8406A02F09FBE0000B1
:104F900018B4406A0268536900F139010C78212C79
:104FA00009D11B0607D50023C384D36823F0C003AF
:104FB000D36020220A70026853694C78222C0ED1EB
:104FC0005B060CD50023C385D36823F49073D360AC
:104FD000026853695B085B00536120224A70C16B11
:104FE00041F01001C16312BC02F06EBE0168CA68D4
:104FF00022F49072CA6001684A69520852004A61FC
:10500000202180F83A107047406A0021C185C18490
:1050100002F05ABE80B590F83A10222943D1826836
:10502000B2F5805F14D1826A016941B90368596899
:10503000C1F308011180826A911C816218E0016845
:105040004B6803F0FF031380816A4A1C82620FE001
:1050500001690029816A04D14A1C8262026853688E
:1050600005E04A1C82620268536803F07F030B70FC
:10507000C18D491EC18589B299B90168CA6822F0FB
:105080002002CA600168CA6822F48072CA6001689E
:105090004A69520852004A61202180F83A10FDF70F
:1050A000B5FF002002BD022002BD2DE9F0470446F5
:1050B000642521680A69E06822F4405202430A61CB
:1050C0001926CA6831480240A06802432069024399
:1050D00060690243CA604A69A06922F440720243CF
:1050E0002B484A6181420ED101F048FC074601F08D
:1050F00045FC804601F042FC814601F03FFC8246BF
:1051000001F03CFC0DE001F031FC074601F02EFC03
:10511000804601F02BFC814601F028FC824601F01C
:1051200025FC06FB09F9616889007743B7FBF1F2BA
:1051300006FB08F7B7FBF1F3B9FBF1F7B7FBF5F79F
:1051400005FB17331B013233B3FBF5F3B2FBF5F26A
:1051500003F0F00303EB021306FB0AF74643B7FB29
:10516000F1F2B6FBF1F06421B0FBF1F005FB102584
:105170002D0132356420B5FBF0F0216800F00F00FE
:10518000C3188B60BDE8F08700000000F3E9FFFF63
:105190000038014038B5040001D1012032BD04F1CE
:1051A0003C05687820B9002129702046FFF78DFA68
:1051B0000AE00068C16841F00101C160026842F084
:1051C000010202600020704702206870211D2068E3
:1051D00000F041F901206870002032BD10B504468E
:1051E000206801698A0716D5C1688A0713D56FF050
:1051F0000202026101212177806910F0030F20462D
:1052000002D002F064FD04E002F062FD204602F0EC
:1052100060FD00202077206801694A0716D5C16823
:105220004A0713D56FF004020261022121778069D9
:1052300010F4407F204602D002F049FD04E002F065
:1052400047FD204602F045FD0020207720680169D7
:105250000A0716D5C1680A0713D56FF00802026164
:1052600004212177C06910F0030F204602D002F01C
:105270002EFD04E002F02CFD204602F02AFD002065
:10528000207720680169CA0616D5C168CA0613D5F9
:105290006FF01002026108212177C06910F4407F8D
:1052A000204602D002F013FD04E002F011FD20467A
:1052B00002F00FFD0020207720680169CA0708D599
:1052C000C168CA0705D56FF0010202612046FEF7EA
:1052D00063F8206801690A0608D5C1680A0605D581
:1052E0006FF080020261204602F0F4FC2068016940
:1052F0004A0608D5C1684A0605D56FF0400202612A
:10530000204602F0E8FC206801698A060AD5C168D7
:105310008A0607D56FF0200202612046BDE81040E2
:1053200002F0DABC10BD70B5054605F13C042078EA
:10533000012801D1022070BD01222270022060707C
:105340002A68DFF894019368034093600868002896
:105350005FD0102864D0202869D030286ED0402833
:105360004BD0502831D060283BD070280BD0B0F5FE
:10537000805F03D0B0F5005F16D066E028688168D2
:10538000C908C90060E0C8684A682B6889689E68D7
:1053900026F47F4631430A4342EA00229A60286895
:1053A000816841F077014FE0C8684A682B688968D6
:1053B0009E6826F47F4631430A4342EA00229A60FF
:1053C0002868816841F480413EE0CA6849682868DD
:1053D00000F08EF82868816821F0700141F05701D3
:1053E00032E0CA684968286800F094F82868816843
:1053F00021F0700141F0670126E0CA684968286819
:1054000000F076F82868816821F0700141F04701CA
:105410001AE02868816821F0700141F0070113E06B
:105420002868816821F0700141F017010CE02868BC
:10543000816821F0700141F0270105E0286881684A
:1054400021F0700141F0370181600120607000207F
:10545000207070BD000018B4204B046898421CBF37
:105460001F4A90420BD0B0F1804F1CBF1D4A9042A2
:1054700005D01D4A90421CBF1C4A904210D14A6878
:1054800024F07004144398421CBF154A90420AD07D
:10549000B0F1804F1FBF134A9042134A904202D08E
:1054A000124A904203D1CA6824F4407414434A69F2
:1054B00024F080041443046098428A68C2620A6837
:1054C000826219BF064A9042096901630121416164
:1054D00011BC7047000000008800FFFF002C014055
:1054E000003401400004004000080040000C00406F
:1054F00010B4036A046A64086400046223F00A03B7
:10550000846924F0F00444EA0214846119430162BE
:1055100010BC7047036A23F0100303628369D0F85C
:1055200020C023F4704343EA02332CF0A00C8361C3
:105530004CEA011CC0F820C07047B1F5807F02D34F
:105540004FF0FF3070470170012070470078401E17
:105550008041C043C00F70470CB430B583B00446DF
:1055600006A802900A4600250194009502AB01A905
:10557000084878441E3002F0B1FB01990D700028F4
:105580004EBF04460198041B204603B030BC5DF8B2
:105590000CFB00BF330F000038B403460A004FF67F
:1055A000FF7010D04AF201041A78504008224510CA
:1055B000C00746BF84EA050080B2A8B2521EF6D1E9
:1055C0005B1C491EF0D132BC7047DFF84C3560B52A
:1055D000198900260A46012A99B007D1AA21BB25BC
:1055E0008DF800108DF80150022604E019B9AB21A6
:1055F0008DF80010012601250DF80650761CF5B235
:1056000013210DF80510761C5988F5B2761C0DF89B
:105610000510F5B2090A0DF80510761CD988F5B207
:10562000761C0DF80510751C99880529F6B208BF7F
:10563000032102D0062908BF02210DF80610EBB2A3
:1056400041790DF803106D1CC188EBB26D1C0DF88B
:105650000310EBB2C188090A0DF803106D1CE9B202
:1056600000230DF801306D1CEBB200210DF8031082
:105670006D1C817AEBB26D1C0DF80310EBB2B0F823
:105680000B100DF803106D1CB0F80B10EBB2090AEB
:105690000DF803106D1CB0F80D10EBB26D1C0DF879
:1056A0000310EBB2B0F80D10090A0DF803106D1CD1
:1056B000B0F80F10EBB26D1C0DF80310E9B2B0F8A2
:1056C0000F00000A0DF8010010210DEB0200C01CB4
:1056D000FFF762FF6D1CE9B26D1C0DF80100E9B225
:1056E000000A0DF801006D1CE9B20D200DF8010053
:1056F0006D1C42F21073EAB26946DFF82004FFF72E
:10570000B0FA19B060BD0000F8B5DFF80C240C4603
:1057100011890025012918BF002940F03E81DFF8DA
:105720000074DFF8006439783378002900F0F480E1
:10573000092B00F23081DFE813F00A001600210087
:105740003600410065007D00890093009C0013280D
:1057500040F02181012030701020B0711320DFF85B
:10576000C813487019E1DFF8C013A6F801000A78E1
:10577000B318521CD8710A700220E7E0B6F8011085
:1057800041EA0021A6F80110DFF89C130B78F41809
:10579000E071B6F801005288904240F0FC805B1C3A
:1057A0000B700320D2E0D288904240F0F4800421B4
:1057B0003170F070DFF870130A7840E003280DD1E3
:1057C000918805290FD1052333703071DFF8581304
:1057D0000B78F5185B1CE8710B7004E0022804BF1D
:1057E0009188062905D09288904218BF642840F01D
:1057F000D280052131703071F31DDFF82C130A7847
:1058000098541EE0212818BF01280CD0022818BF88
:10581000132808D0032818BF042804D0052818BF6F
:10582000062840F0B880062131707071DFF8F81258
:105830000A7804E0BC49B3790A789A4204D2B318D2
:10584000D871521C0A70A8E007213170082131700C
:1058500006F583714870B4480278521C02709CE0CF
:1058600086F8060109213170AF480178491C0170A2
:1058700093E00D2840F08F8006F58370017847781B
:1058800047EA0127B179F01DFFF786FEA6490A789D
:10589000521C87420A7040F07E80D2B2132A37D160
:1058A0007079012808BF01252ED0022806D11022C8
:1058B000F11D204600F0B4FD022525E0032806D1A5
:1058C0001022F11D204600F0ABFD03251CE004284A
:1058D00006D11022F11D204600F0A2FD042513E0A0
:1058E000132808BF13250FD0212808BF21250BD06E
:1058F000052808BF052507D0062805D11022F11D6F
:10590000204600F08DFD062500F049F82846F2BD3E
:1059100000F045F80020F2BD33B1052B08D0062B6E
:105920000AD0092B14D036E0AB2836D105200DE083
:105930000A2830D1062009E07B490A78B318521CA6
:10594000D8710A70D2B2032A27DB0920307024E014
:1059500075490B783344D871F079118E884202BFB3
:10596000307A518E884214D07049032008707048F4
:105970000188491C018089B203290CDBDFF8B4419E
:1059800070A12046FFF7E8FD224600210020FFF726
:105990009FF80120387000F002F80020F2BD10B529
:1059A000604C61490020207008706421624802F058
:1059B00039F92046BDE810404FF48471FDF7DEBE92
:1059C00038B55A4C2178072988B000F28E80DFE87C
:1059D00001F0040C283258627E895849544A00204C
:1059E000088010800120207090E0694640B1AA2014
:1059F0008DF80000BB224A7005208870032205E064
:105A00000A224A70AB208DF80000022242F2107385
:105A10004248FFF726F902224948227000210180FE
:105A200063E0474802880B2A5FDB44480188491C31
:105A30000180012054E038494A8E098E70B1AA20B5
:105A40008DF800008DF80420BB2503208DF801504F
:105A50008DF802008DF8031005220AE08DF803206E
:105A6000AB2004258DF800008DF801508DF8021050
:105A7000042242F2107369462848FFF7F2F8042026
:105A800020E02F490A880B2A2FDB052020700020F8
:105A90002A4908803AE0694640B1AA208DF8000002
:105AA000BB224A7005208870032205E00A224A7052
:105AB000AB208DF80000022242F210731748FFF766
:105AC000D0F80620207000201D4908800DE01C49F8
:105AD0000A880B2A09DB19480188491C0180052026
